:020000040020DA
:10200000000004204122200049222000014010004D
:10201000593E2000FF212000913F200000000000D9
:10202000000000000000000000000000154010004B
:1020300053222000000000005522200059222000D9
:1020400000F002F800F0C2F80AA090E8000C824408
:102050008344AAF10107DA4501D100F0B7F8AFF2E5
:10206000090EBAE80F0013F0010F18BFFB1A43F076
:1020700001031847C4180100041901000A444FF075
:10208000000C10F8013B13F0070408BF10F8014BD7
:102090001D1108BF10F8015B641E05D010F8016B1C
:1020A000641E01F8016BF9D113F0080F1EBF10F880
:1020B000014BAD1C0C1B09D16D1E58BF01F801CBA3
:1020C000FAD505E014F8016B01F8016B6D1EF9D526
:1020D0009142D6D370470000103A24BF78C878C127
:1020E000FAD8520724BF30C830C144BF04680C601E
:1020F000704700000023002400250026103A28BF66
:1021000078C1FBD8520728BF30C148BF0B60704769
:102110006E2900F02284702900F0C781662911F031
:102120009580652911F09280672911F08F806129CF
:1021300011F08E8003681B0A28BF41F080016929D5
:1021400000F03881642900F03581752900F0328172
:102150006F2900F01C85782900F09381E92900F0AF
:10216000B784E42900F0B484F52900F0B184EF29A4
:1021700000F01985F82900F092810368DB0928BF77
:1021800041F08001632900F02784732900F02C843A
:10219000E32901F0EF80F32901F0F480002070477B
:1021A0001FB511F01FF801F019F9040000200021FB
:1021B00010F0F2F9401C60600020002110F0D6F908
:1021C000E06000F04DFB1FBD10B510BDDFF80CD076
:1021D000FFF7E6FF0BF078FD01F0B6F900000420F0
:1021E00003B4FFF7F1FF03BC02F091FA0A6802F8AA
:1021F000010B0A607047007B00F080007047FEE72B
:1022000058585247010000002556000000202000C9
:10221000002020007EEE9247010100000000000037
:1022200000000000000000000000000000000000AE
:10223000000000000000000000000000000000009E
:102240000648804706480047FEE7FEE7FEE7FEE750
:10225000FEE7FEE7FEE7FEE7FEE70000413F200065
:1022600031DE20007CB51D4616460C00009001D0E2
:102270002044401E074B7B442A4669460190304665
:1022800000F085FB05461CB100206946FFF7AEFF54
:1022900028467CBD3B0700000FB4044910B503AAD3
:1022A000029800F0A5FB10BC5DF814FB805D0020D7
:1022B0000FB41CB5084B06AA7B44694600900598EC
:1022C00000F065FB044600206946FFF78FFF2046BB
:1022D0001CBC5DF814FB000031FFFFFF0FB47CB5A0
:1022E0000C0009AA009001D02044401E084B7B44FA
:1022F00069460190089800F04AFB05461CB1002091
:102300006946FFF773FF28467CBC5DF814FB0000AC
:10231000C306000070B5044685690068C10601D592
:10232000302600E02026C00707D070BDD4E9012187
:1023300030469047206A401C20626D1EF6D570BD65
:1023400070B5044685690078C00707D170BDD4E92F
:10235000012120209047206A401C20626D1EF6D586
:1023600070BD70B50C460546012A05D02878800658
:1023700000D5EA69002302E0012305E05B1C9342DB
:1023800002D2E05C0028F9D1A869E618C01AA86159
:10239000286A184428622846FFF7BCFF04E0D5E904
:1023A000012114F8010B9047B442F8D32846FFF7F7
:1023B000C7FF70BD2DE9F04106460024106875295D
:1023C000314616A510D000F05DFA002802DA40422E
:1023D00013A507E031688A0701D512A502E0490775
:1023E00004D511A5012401E000F055FA00210A22CC
:1023F00006F1240709E0B0FBF2FCB0FBF2F302FBAC
:102400001C00303078541846491C0028F3D123466C
:102410002A463046BDE8F04100F046BA0000000010
:102420002D0000002B00000020000000F0B40D463D
:102430000188090502D5214C7C4402E01F4C7C44F4
:102440000E34002100F1240608E002F00F07120903
:10245000E75D42EA03721B097754491C52EA0307FD
:10246000F3D102780023120704D5702D06D009B1EC
:10247000022311342246F0BC00F016BA01231034B6
:10248000F8E770B504460D462146106800F003FADF
:10249000024629462046BDE870400023C6E7D21D0B
:1024A00022F00703D3E90023C0E70368126843F072
:1024B000200303600823C3610023B7E7581001001D
:1024C0002DE9F05F894604464FF0000ADFF874B149
:1024D000FB44C0F820A02046E1688847002874D05B
:1024E000252806D0D4E901219047206A401C2062AB
:1024F000F1E700265F462046E16888472028054628
:1025000007DB312D05D2781910F8200C08B10643ED
:10251000F1E7B00701D526F00406C4F81CA0002797
:10252000C4F818A02A2D09D0284602F0E3F838B3E1
:1025300004EB8708303DC8F8185019E059F8041B1F
:10254000204604EB87029161E1688847012F054628
:1025500018D1E069002820DA26F020061DE0D8F81E
:10256000180000EB800005EB40003038C8F8180078
:102570002046E1688847054602F0BCF80028EED105
:10258000012F0AD02E2D08D12046E16888477F1CF4
:102590000546022F46F02006C4DBA069002803DAB6
:1025A000404246F00106A061F00701D026F0100677
:1025B0006C2D0BD0682D09D04C2D39D06A2D35D01B
:1025C000742D35D07A2D33D016E038E0E1682F46EF
:1025D00020468847B842054609D16C2F26D04FF4D3
:1025E0008060E168064320468847054604E06C2F7A
:1025F0001AD04FF4807006430DB3A5F1410019289D
:1026000002D8203546F400664A4629462046266010
:102610004E46FFF77DFD80B101280BD0F61D26F058
:10262000070000F1080956E74020E4E78020D8E7DA
:102630000020D6E706F104094DE7284652E7206A54
:10264000BDE8F09FE80F010040EA010310B59B07C9
:102650000FD1042A0DD310C808C9121F9C42F8D00C
:1026600020BA19BA884201D9012010BD4FF0FF30BD
:1026700010BD1AB1D30703D0521C07E0002010BDD3
:1026800010F8013B11F8014B1B1B07D110F8013B5F
:1026900011F8014B1B1B01D1921EF1D1184610BD40
:1026A00010B5431C02E010F8011B71B18107FAD18B
:1026B0004FF0013202C88C1A8C4314EAC211F9D0CF
:1026C000C01A0A0603D0C01E10BDC01A10BD0A04ED
:1026D00001D0801E10BD0902FCD0401E10BD032A8F
:1026E00040F2308010F0030C00F0158011F8013B2F
:1026F000BCF1020F624498BF11F801CB00F8013B16
:1027000038BF11F8013BA2F1040298BF00F801CBD9
:1027100038BF00F8013B11F0030300F02580083AB0
:10272000C0F0088051F8043B083A51F804CBA0E807
:102730000810F5E7121D5CBF51F8043B40F8043B5C
:10274000AFF30080D20724BF11F8013B11F801CB91
:1027500048BF11F8012B24BF00F8013B00F801CB62
:1027600048BF00F8012B704710B5203AC0F00B802D
:10277000B1E81850203AA0E81850B1E81850A0E885
:102780001850BFF4F5AF5FEA027C24BFB1E81850DF
:10279000A0E8185044BF18C918C0BDE810405FEA4F
:1027A000827C24BF51F8043B40F8043B08BF7047CB
:1027B000D20728BF31F8023B48BF11F8012B28BFD0
:1027C00020F8023B48BF00F8012B70474FF0000291
:1027D0000429C0F0128010F0030C00F01B80CCF133
:1027E000040CBCF1020F18BF00F8012BA8BF20F8A1
:1027F000022BA1EB0C0100F00DB85FEAC17C24BFF5
:1028000000F8012B00F8012B48BF00F8012B70479E
:102810004FF0000200B5134694469646203922BF79
:10282000A0E80C50A0E80C50B1F12001BFF4F7AFC4
:10283000090728BFA0E80C5048BF0CC05DF804EBA6
:10284000890028BF40F8042B08BF704748BF20F814
:10285000022B11F0804F18BF00F8012B70470000C9
:1028600070B5064C7C44064D7D4403E0206820444E
:102870008047241DAC42F9D170BD00003C1201001C
:102880003C12010009684A0501D540B27047C905EC
:10289000FCD500B2704709684A0501D5C0B270473F
:1028A000C905FCD580B270472DE9F0470D46994621
:1028B0009246044600F124080168880604D5E069C0
:1028C00021F01001216000E00120A84201DD471B3A
:1028D00000E00027A1697A1902EB0900081AA0613B
:1028E0002078C00602D42046FFF714FD002608E039
:1028F000D4E901211AF806009047206A401C761C92
:1029000020624E45F4DB2078C0060AD52046FFF74A
:1029100001FD06E0D4E9012130209047206A401CE7
:102920002062381EA7F10107F4DC07E0D4E9012199
:1029300018F805009047206A401C2062281EA5F167
:102940000105F3DC2046FFF7FBFC2078000602D5EA
:102950000220BDE8F0870120FBE711680268006AE9
:10296000530501D508700AE0D30501D5088006E0BB
:10297000130603D5C217C1E9000200E00860012078
:102980007047000001694A1C02610878704700B571
:102990008FB0CDE901310021059105497944CDE998
:1029A000031011466846FFF78BFD0FB000BD000015
:1029B000E5FFFFFFD1E900239A4202D2531C0B60CE
:1029C0001070704710B5436913B1AFF3008001E098
:1029D000FFF7C7FC012010BD127800F124010A7036
:1029E00000224A700122EDE711684FF0FF32E9E75B
:1029F000074B70B50D467B44FFF7C9FF04462846D8
:102A0000FFF7F9FB10B14FF0FF3070BD204670BDED
:102A10001F4C00002DE9FF5F15468A460446DFF88B
:102A2000AC80F8440027D8E900103E46CDE90010FC
:102A300010E03AF816106A4602A800F0A7FC411C04
:102A400007D02178890603D5E269391891420DD85B
:102A50000744761C2078800602D5E069B84205DD7F
:102A6000AE42E6DB3AF816000028E2D1A069C01BAE
:102A7000A0612046FFF74EFCD8E90010CDE9001018
:102A8000002017E03AF818106A4602A800F07EFC11
:102A9000B0F1FF3F81460BD000250DF1080B05E09A
:102AA000D4E901211BF8050090476D1C4D45F7D373
:102AB00008F10100B0428046E4DB206A384420621D
:102AC0002046FFF73DFCBDE8FF9F0000AA0A010079
:102AD0002DE9F0418046D21D22F007020025D2E9FF
:102AE0000002F52915A614D0011E72F1000106DAC4
:102AF0000023D0EB030063EB020211A608E0D8F834
:102B000000108B0701D50FA602E0490701D50EA6DC
:102B100001251146002408F1240704E000F04EF8D6
:102B200030323A55641C50EA0102F7D12B46324646
:102B300021464046BDE8F041FFF7B6BE0000000068
:102B40002D0000002B0000002000000030B4002108
:102B500000F1240408E002F00705D208303542EA0B
:102B60004372DB086554491C52EA0305F3D104683B
:102B7000002310A2250707D5A40600D421B1C469FB
:102B800001230DA2641EC46130BCFFF78DBE10B5D9
:102B9000044621461068FFF77EFE02462046BDE847
:102BA00010400023D2E7D21D22F00701D1E9002313
:102BB000CCE70000000000003000000030B5B0F1AC
:102BC0000A024FEA900E71F100034EEA817EB0EBEB
:102BD0000E0061EB91014FEA101E4EEA017E10EBF0
:102BE0000E0041EB11114FEA102E4EEA016E10EB70
:102BF0000E0041EB11214FEA104E4EEA014E10EB50
:102C00000E0041EB1141401841F100014FEAD000A4
:102C100040EA41704FEAD10110EB80054FEA810490
:102C200044EA907444EB01046D1944EB0404521B14
:102C3000A3414FF0000348BF0A3200D530BD401C0D
:102C400041F1000130BD70472DE9FF4F0C461E4693
:102C50004FF0FF378BB0D2E90001DDF860800A90B9
:102C60008A46C1F30A5505B93D46002108464FF092
:102C70000000BAF1000F00F4400005DA00EB80001C
:102C80004FF4400101EA50004FEA9059B9F1010FA9
:102C900000DDB9460A9850EA4A000ED044F61050BA
:102CA000A5F2FF3545432F14B8F1000F1ED0754231
:102CB000291E1EDDC9F100021CE0B8F1010F4FF022
:102CC000000001D0302103E0F24305E02154401C14
:102CD000B042FBDB30460022002121540B99C1F8A1
:102CE0000880C1E900200FB0BDE8F08FBD1B6D1C4E
:102CF000DEE74A4600DA694206A800F0B3FB06ABFD
:102D000093E8070003AB83E8070050460A9900F0F8
:102D100065FC8DE80700A0F500501F38009003986F
:102D2000002D0ADD42F21F014A460844002303A990
:102D30000390684600F0CEFE09E0A0F500504A4638
:102D40001F38002303A90390684600F0D8FE8DE8E1
:102D500007000004000C03D04FF0FF30410800E0F2
:102D60001046B8F1000F03D00022009215461EE075
:102D7000751E05D4FFF722FF303262556D1EF9D55E
:102D8000B3460122084302D000227F1C04E02078D1
:102D9000302801D100227F1E002A099784D01DE02F
:102DA000112D07DAFFF70AFF303262556D1C50EA29
:102DB0000102F5D1084302D00098C8B10EE000210D
:102DC000681E05E0235C625C63542254401E491C6B
:102DD0008142F7DBAB46A81B401E0990002004F897
:102DE0000B000B98099AC0F80880C0E9002B7AE71D
:102DF00011264FF0000857E72DE9F04F88460446AA
:102E0000D21D22F0070191B0D1E90001CDE90A01FC
:102E100001F0BFF802460B98C00F01D02D2007E04B
:102E20002068810701D52B2002E0202101EAC000A3
:102E3000032A099001D0072A05DB034641462046B4
:102E400000F0D0FA0BE12078800601D5E06900E0BF
:102E50000620B8F1650F814606D0B8F1660F18D08C
:102E6000B8F1670F70D131E00020B9F1110F009077
:102E700001DB112301E009F101030AAA01A90CA851
:102E8000FFF7E2FEDDE90C70002609F1010583463B
:102E900047E001204B4600904FF000470AAA01A9E5
:102EA0000CA8FFF7D1FEDDE90DB00C995D460026B8
:102EB00010B909F101000D18B9EB050003D4C0F1F8
:102EC000FF3609F10105A5EB09002BE0B9F1010F6F
:102ED00001DA4FF001090020B9F1110F00904846C6
:102EE00001DD112300E003460AAA01A90CA8FFF79F
:102EF000ABFEDDE90C704D460026834620780007C6
:102F00000AD4AB4500DA5D4601A8012D04DD411964
:102F100011F8011C302907D04F4502DA17F1040FD0
:102F200004DA012082460FE06D1EEEE7002F02DC7E
:102F3000ED1B3E4403E0781CA84200DD7D1CB81B5D
:102F400000F1010A4FF000472078000703D4AA459A
:102F500001DB4FF0FF3A0021B7F1004F0DF14308BC
:102F60008DF8431024D002202B23002F01DA7F425A
:102F70002D230A21021EA0F1010000DC5FB197FBA6
:102F8000F1FC97FBF1F201FB1C7C17460CF1300CB5
:102F900008F801CDEEE7A8F10100037021880905CA
:102FA00001D5452100E06521A0F1010800F8011CD0
:102FB00009980FA9A1EB0807FF1D00B101204119D5
:102FC00001EBEA70A1693844081A401EA06120781C
:102FD000C00602D42046FFF79DF9099828B1D4E92C
:102FE00001219047206A401C20622078C00622D52B
:102FF0002046FFF78FF91EE0002E04DBB34502DD0B
:1030000001A8805D00E03020D4E901219047206ACA
:10301000401C2062761CAAF101005FEA000A0AD176
:1030200000F0DCF9C0680168405CD4E901219047F8
:10303000206A401C2062281EA5F10105DCDC07E0A7
:10304000D4E9012118F8010B9047206A401C206246
:10305000381EA7F10107F3DC2046FFF771F90320C2
:1030600011B041E62DE9F04F04460D46D21D22F085
:10307000070089B0D0E900974846394600F089FF3B
:103080000246F80F01D02D2307E02068810701D503
:103090002B2302E0202101EAC0038DF820300BB180
:1030A000012000E00020032A824601D0072A04DB29
:1030B0002946204600F096F93FE12078800601D4A9
:1030C0000D2500E0E569C7F30A560D2D49DA002108
:1030D0004FEA175B08464FF00000002F00F4400055
:1030E00007DA00EB80004FF4400100EBD07001EAFA
:1030F00060008115012901DD4FF0FF3100224FEA08
:10310000850CBCF1180F06D31346ACF118004FF034
:103110008052C24003E04FF4801323FA0CF30CF109
:103120000C0CBCF1200F04D3ACF1200C09FA0CF00C
:1031300001E007FA0CF000294FF0004801DD18B952
:103140000FE00ED140450CD319EB02095F4121B9C4
:10315000404502D19F4329EA0209BBEB175F00D02B
:10316000761C2088000502D57B48784402E07A4826
:103170007844193808AA302302F80A30037C0AF18F
:103180000101002E0AF1020A53546A4602DC4FF094
:10319000300101E04FF031014FF001088DF80010CF
:1031A00002D0A6F2FF3603E059EA470100D06B4E89
:1031B000002D02DC2178090704D54FF002082E21EA
:1031C0008DF80110C44600210BE0C7F303433F0113
:1031D000C35C491C6D1E02F80830052908F101087E
:1031E00001DA002DF1DC00210CE000EB1973491C21
:1031F0001B786D1E082902F808304FEA091908F1FA
:10320000010801DA002DF0DC21688B0602D516E0FA
:10321000A8F10108E04505DD02EB080313F8013CC5
:10322000302BF5D0B8F1000F09DD02EB080313F8DD
:10323000013C2E2B03D1090701D4A8F10108002D70
:1032400005DD3E2102F808106D1E08F10108407CE2
:10325000002E02F8080008F1010804DA2D20764259
:1032600002F8080002E02B2002F808000A214FF4BF
:103270007A70864208F101080BDB96FBF0F33033DD
:1032800002F8083096FBF0F308F1010800FB136622
:1032900001E0642E0CDB642096FBF0F3303302F87F
:1032A000083096FBF0F308F1010800FB136601E01B
:1032B0000A2E06DB96FBF1F0303002F8080008F128
:1032C000010896FBF1F001FB1060303002F80800B5
:1032D000A16908F1010808EB050202EB0A00081ACF
:1032E000A0612078C00602D42046FFF713F8216AB7
:1032F00008AE01EB0A00206204E0D4E9012116F8CF
:10330000010B9047BAF1010AF7D22078C00602D526
:103310002046FEF7FFFF6E4609E016F8010B3E2837
:103320000FD0D4E901219047206A401C2062B8F1F7
:103330000108F2D22046FFF703F809B00320BDE8E8
:10334000F08F206A2844206203E0D4E90121302074
:1033500090476D1EEBD3F8E77D03010002FCFFFFF1
:1033600010B5436913B1AFF3008001E0FFF752FBE2
:10337000012010BD128800F1240182840022C28441
:103380000122EDE711684FF0FF32E9E770B516460C
:103390000C46054600F01AF8036893F8010101286D
:1033A00006D0FF2C0FD8185D68B101202C7070BDBD
:1033B000D3F807013246214603F207130344284697
:1033C000BDE8704018474FF0FF3070BD10B500F0F9
:1033D00005F8001D10BD00BFC1F100000048704796
:1033E0002C9200202DE9F0411F4604460326016877
:1033F000072A01F4006004DB08B116A505E016A554
:1034000003E008B115A500E015A521F0100020602B
:10341000A069C01EA0610FB1401EA0612046FEF74A
:1034200079FF4FB1D4E9012138469047206A401C0A
:103430002062C01C206206E0206AFAE7D4E901217C
:1034400015F8010B9047761EF8D22046FEF778FF5C
:10345000BDE8F0814E414E006E616E00494E46005F
:10346000696E66002DE9F047814616468AB03548F8
:1034700078440DC88DE80D0032487844801C03ACB8
:103480000DC884E80D0041F69B300844372190FBBD
:10349000F1F290FBF1F5A5F1800501FB12041B3C54
:1034A00002D56442012000E00020DFF898A08046A9
:1034B0000027FA44AAF1BE0A0EE0E0070AD032461D
:1034C000684607EB470101230AEB810100F017FB77
:1034D0008DE8070064107F1C002CEED1194F7F444B
:1034E000AE3F19E0E80715D007EB04100DF1180AFC
:1034F00090E80E008AE80E00C068F04201D19819E9
:1035000008903246012306A903A800F0F8FA03AB9D
:1035100083E807006D10641C002DE3D14FF0010318
:1035200032466946B8F1000F03A802D000F0D2FA83
:1035300001E000F0E4FAC9E90001C9F808200AB086
:10354000BDE8F0870801010010B50446AFF3008024
:103550002046BDE81040FEF743BE00004FF0013C9E
:1035600050F8042B51F8043B9A4221D1A2EB0C03F2
:10357000934313EACC1317D150F8042B51F8043BB2
:103580009A4215D1A2EB0C03934313EACC130BD14F
:1035900050F8042B51F8043B9A4209D1A2EB0C03DA
:1035A000934313EACC13DBD04FF00000704700BF09
:1035B000D01A01BAB1FA81F101F0180122FA01F032
:1035C000CB40C1F12001DBB2C0B2C01A2CFA01F32A
:1035D000D11A914311EAC311E6D170475FEA400C5A
:1035E00008BF91F0000F4FEA8C234FEAC12243EA53
:1035F00051514FEA1C5018BF00F5F0404FEA30001F
:1036000018BF41F000415FEA6C5C00F02980BCF11A
:10361000FF3F08BF40F080407047130C06BF120404
:103620004FF0100C4FF0000C130E04BF12020CF1FF
:10363000080C130F04BF12010CF1040C930F04BF0C
:1036400092000CF1020CD30F04BF52000CF1010CDC
:1036500011464FF00002A0F11F00A0EB0C007047D4
:1036600011F0004F08BF704731F000413FF4D5AF73
:103670000B0C06BF09044FF0100C4FF0000C0B0EA2
:1036800004BF09020CF1080C0B0F04BF09010CF177
:10369000040C8B0F04BF89000CF1020CCB0F04BF8C
:1036A00049000CF1010CCCF12003A0EB0C0022FA34
:1036B00003F302FA0CF241EA030100F10100704742
:1036C00020F07F4C80EA030023F07F47ACEB070338
:1036D00003F57C5300F0004003F1FF032DE980491E
:1036E0004FEA154B09B44FEA144325EA0B4E24EA7E
:1036F00003480FF2042606EB132749083E785FEAD9
:10370000320203FB0667C7F5000707FB06F64FEA20
:1037100054374FEAD64606F1020607FB066CCCF199
:10372000005C4FEA1C472CEA074C07FB06F40CFB35
:1037300006F504EB15464FEA961634BF00204FF00D
:1037400000404FEAD13706FB07FC4FEA1C4C0CFB4C
:103750000BF7D21B03FB0CF761EB07010CFB0EF719
:10376000B0EB074072EB17420CFB08F734BFA2EB3B
:103770000742B2EB074261EB17414FEA0C444FEAB4
:10378000910706FB07FC4FEA1C4C0CFB0BF7B0EB58
:10379000C74072EB573203FB0CF734BFA2EBC742B2
:1037A000B2EBC74261EB57310CFB0EF7B0EBC70031
:1037B00072EB57720CFB08F734BFA2EBC702B2EBF7
:1037C000C70261EB5771039F4FEA816141EA921191
:1037D00004EBCC044FEAD1374FEA826206FB07FCC8
:1037E00042EA90124FEA80604FEA1C4C0CFB0BF748
:1037F000D21B03FB0CF761EB07010CFB0EF7B0EBE0
:10380000074072EB17420CFB08F734BFA2EB0742EC
:10381000B2EB074261EB17414FEA8C554FEA910733
:1038200004EB9C2406FB07FC4FEA1C4C0CFB0BF73B
:10383000B0EBC74072EB573203FB0CF734BFA2EB7F
:10384000C742B2EBC74261EB57310CFB0EF7B0EB4E
:10385000C70072EB57720CFB08F734BFA2EBC7022C
:10386000B2EBC70261EB577115EB4C254FEA816152
:1038700041EA92114FEA82624FEAD13742EA90124E
:1038800006FB07FC44F100044FEA80604FEA1C4C41
:103890000CFB0BF7D21B03FB0CF761EB07010CFBD6
:1038A0000EF7B0EB074072EB17420CFB08F734BF82
:1038B000A2EB0742B2EB074261EB174115EB1C1577
:1038C0004FEA813141EA92414FEA823242EA904224
:1038D0004FEA80304FEA0C7644F1000448EA034393
:1038E0004EEA0B484FF0000EB2EB080C71EB0307E9
:1038F00024BF624639464EEB0E0E4FF0000B001807
:10390000524149414BEB0B0BB2EB080C71EB030737
:103910007BF1000B24BF624639464EEB0E0E4FF092
:10392000000B0018524149414BEB0B0BB2EB080C5A
:1039300071EB03077BF1000B24BF624639464EEB67
:103940000E0E51EA020718BF46F0010616EB0E767E
:1039500055F1000254F1000103D5BDE88901BDE82D
:103960000088BDE88901BDE80048B619524141EB25
:103970000101A3F10103704780807F7E7D7C7B7A0B
:103980007978777676757473727171706F6E6E6D0B
:103990006C6C6B6A6A6968686766666564646363B1
:1039A00062616160605F5F5E5E5D5D5C5C5B5B5A37
:1039B0005A595958585757565655555554545353A4
:1039C00052525251515050504F4F4F4E4E4D4D4DFF
:1039D0004C4C4C4B4B4B4A4A4A494949484848474A
:1039E0004747474646464545454444444443434388
:1039F0004342424242414141002B9C4630D4770031
:103A00002BD01CB54FEA370703B44FF010004FF02E
:103A10001001BAF1000F06D0BCF1000FDCBF40F07E
:103A2000080040F008014FF000000FBCBDE8104056
:103A30000BF1010BBBF1010F08BF5FEA170722BFB3
:103A400012F1010211F101014FF0004143F10003B5
:103A500000F0004043EA00007047F9D35708D0E770
:103A600046EA064613F1400F4FEA16461FDD13F1F2
:103A7000200FDFBF16430A46002120335B42BED031
:103A8000C3F1200746EA064602FA07F74FEA164650
:103A900046EA0706C3F1200722FA03F201FA07F704
:103AA00021FA03F14FF0000342EA0702A7E746EAD2
:103AB000020646EA06464FEA164646EA0106BCBF3B
:103AC00046EA0646360C4FF000034FF000024FF076
:103AD000000194E72DE9804C9A46934670B491E832
:103AE000380007C831EA400C48BF34EA430C03D51C
:103AF000FFF7E6FDFFF780FFF0BCBDE8008C2DE985
:103B0000804C9A46934670B491E8380007C810F08C
:103B1000804F08BF13F0804F03D100F005F8FFF786
:103B20006BFFF0BCBDE8008C20F07F4780EA03000B
:103B300023F07F4C07EB0C03A3F57C5300F000400F
:103B4000A3F1FE0392F0000F00F0B38095F0000F98
:103B500000F077802DE901494FEA11404FEA144601
:103B600021EA004800FB06FC24EA064708FB06F6AB
:103B700007FB08F800FB07F718EB06484CEB164C60
:103B80004FEA124B18EB07484FEA15464CEB17402B
:103B900022EA0B4E0BFB06FC25EA06470EFB06F657
:103BA00007FB0EFE0BFB07F71EEB064E4CEB164C0D
:103BB0004FF000061EEB074E4CEB174B18EB0B08B3
:103BC00040F1000018EB0E0B58EB000840F100002C
:103BD0008F1A4FF000013CBFC943661B14BFB5EB01
:103BE000040C00213CBFC943F61B4FEA17444EEAC0
:103BF0008E0E27EA04454FEA1C4704FB07622CEAB5
:103C0000074C05FB07F70CFB05F604FB0CFC16EB59
:103C1000074642EB174216EB0C4642EB1C421BEBED
:103C2000060658EB0202414146EA9E0601D5BDE870
:103C30000189B619524141EB0101A3F10103BDE82D
:103C400001894FEA14454FEA114724EA054621EA63
:103C5000074C05FB07F406FB07F70CFB06F105FB19
:103C60000CFC11EB074144EB17444FEA124711EBF0
:103C70000C4144EB1C4422EA074C05FB07F206FB0F
:103C800007F70CFB06F605FB0CFC16EB074642EBB0
:103C9000174216EB0C4642EB1C456A1854F1000122
:103CA00048BF7047B619524141EB0101A3F101032E
:103CB000704795F0000F37D04FEA11424FEA144792
:103CC00021EA024624EA074C02FB07F106FB07F74C
:103CD0000CFB06F402FB0CFC14EB074441EB174110
:103CE0004FEA154714EB0C4441EB1C4125EA074C05
:103CF00002FB07F506FB07F70CFB06F602FB0CFCC4
:103D000016EB074645EB174516EB0C4645EB1C42F8
:103D1000121951F1000148BF7047B619524141EBE9
:103D20000101A3F1010370474FEA14454FEA11471F
:103D300024EA054621EA074C05FB07F106FB07F7D5
:103D40000CFB06F24FF0000605FB0CFC12EB0742E1
:103D500041EB174112EB0C4251EB1C4148BF70473D
:103D6000921841EB0101A3F10103704710B502F075
:103D700029FC10BD1CB5032400BF274800680121A1
:103D800021EA900078B900BF23480C30006800F0A9
:103D9000010040B100BF20488C38006800F00700E7
:103DA0002040A04200D01CBD0020009000F0D2FBBB
:103DB00000901A480068401C18490860642009F601
:103DC000FBFA01A800F06CF8022000F071F8322034
:103DD00009F6F2FA00BF1248006840F002001049EC
:103DE000086000BF0F49488909F6E6FA00BF0C4891
:103DF000006820F002000A49086000BF094988896C
:103E000009F6DAFA9DF8040000F052F8009800F084
:103E100078FC00BFC7E70000D4A40040AC600020DD
:103E200004A900406A5F00200748006800F0100005
:103E300008B10648704706480068C0F302400549CB
:103E400051F82000F6E7000084E30040006CDC023B
:103E500000A00040E8332100FEE70000024840686F
:103E6000001D05F0ADBD00005C5D002000F7EFBE59
:103E7000052800DB70470949096801F4E021B1EB2E
:103E8000004F08D0054A126822F4E02141EA0042BE
:103E9000024B1A6000BF00BFECE7000000A000402A
:103EA0000249096801F007010170704700A0004055
:103EB00010B500220021072800DB10BD144B1B6841
:103EC00003F0070383421BD0114B1B6823F007024A
:103ED00042F003030E4C23602346DB6823F0070106
:103EE00041F00103E36000BF00BF00BF00BF42EA32
:103EF0000003074C2360074B53F820300B43E3606B
:103F0000054B53F82030054C236000BFD5E7000077
:103F100000A00040CC332100B0332100485D0020D8
:103F20000448006800F00700034951F820000349E5
:103F30000860704700A00040B0332100485D0020B9
:103F40000248016841F470010160704788ED00E0AB
:103F500002480068001D06F0B5B90000C0700020DE
:103F600002484068001D06F0ADB90000C070002096
:103F700002488068001D06F0A5B90000C07000204E
:103F80000248C068001D06F09DB90000C070002006
:103F9000FEE703B401984100009850EAC12018BF21
:103FA00004204A0D18BF40F0010040F2FF72B2EB4E
:103FB000515F08BF40F00200012808BF052002B091
:103FC0007047002809DB00F01F02012191404009E1
:103FD000800000F1E020C0F880127047002807DB65
:103FE00000F01F0201219140024A430942F82310C8
:103FF0007047000080E200E0002807DB00F01F02AD
:1040000001219140024A430942F823107047000001
:1040100080E200E000280BDB00F01F02012191404C
:10402000044A430942F82310BFF34F8FBFF36F8F49
:104030007047000080E100E000280DDB00BF00BFFA
:1040400000F01F02012191404209920002F1E0229A
:10405000C2F8001100BF00BF704700280DDB00BF91
:1040600000BF00F01F02012191404209920002F1BD
:10407000E022C2F8001100BF00BF704700280FDB2C
:104080004109890001F1E021D1F8001100F01F027F
:1040900001209040014201D001207047002070476C
:1040A00000207047002804DB00F1E02090F80004B5
:1040B000704700F00F0000F1E02090F8140D7047F9
:1040C000002804DB00F1E02090F80004704700F0C5
:1040D0000F0000F1E02090F8140D704702480068CE
:1040E000C0F30220704700000CED00E0002807DB61
:1040F00000F01F0201219140024A430942F82310B7
:104100007047000000E200E0EFF310807047EFF32B
:1041100010807047EFF3108070470000000000002F
:1041200010B52DED020B2DED088B84B09DED0C0B21
:1041300051EC100B0EF090FE41EC180B9DED0C0BAA
:1041400053EC182B51EC100B0EF0ECFE41EC190B5C
:104150000D989FED290B10F0004F53EC102B51ECF4
:10416000190B9FED21AB9FED22BB0ED00EF004FD8D
:104170000ED953EC1B2B51EC190B0EF037FE1CD251
:1041800014E000BF41EC180B17E00EF0F5FC06D26E
:1041900053EC1A2B51EC180B0EF0C4FEF2E753EC63
:1041A0001B2B51EC190B0EF021FE06D853EC1A2BE9
:1041B00051EC180B0EF006FAE4E78DED028B9DED45
:1041C0000C0B18EE901A10EE900A8DED000B61F3B7
:1041D0001E0003909DED020B04B0BDEC088B02B0F5
:1041E00010BD000000000000000000000000F03FD3
:1041F000000000000000E03F000000000000E0BF01
:10420000C1B281F31188704780F31088704780F342
:104210001088704780F31088704780F310887047CB
:1042200080F31088704780F3108870472DE9F74FAE
:104230000446904600BF4FEA5806019D4FF0000B20
:104240007448754908603F207449496860F3050166
:10425000724A516000BF00BF1046406820F48030B1
:104260001146486000BF00BF6B48006820F4700032
:1042700040EA04506849086000BF00BF0846006873
:1042800020F4702040EA0440086000BF0D2C07D1E4
:1042900000BF0846006840F40040086000BF00BF4F
:1042A0000E2C08D100BF5C48006840F480405A4999
:1042B000086000BF00BF4FF400505749096821F45F
:1042C00000510143544A116000BF002011460968A3
:1042D00021F060510143116000BF042011460968BC
:1042E00021F00F010143116000BF002000F006F92A
:1042F000012801D0BDE8FE8F00BF4748006840F0AC
:1043000080404549086000BF4FF0000A0DE000BF43
:104310004248806840F480304049886000BF0AF11C
:1043200001008246401C00B903E007F09BF9002819
:10433000EDD100BF072000F0E1F8012800D0D9E757
:1043400054E04FF0000B2CE0BBF57A7F24D900BF7E
:104350003148006820F080402F49086000BF00BF4E
:104360000846006840F00040086000BF00BF0846F3
:10437000006820F00040086000BF002000F0BEF898
:10438000012800D0B6E726480068401C2449086090
:10439000052009F611F84EE7012009F60DF80BF19A
:1043A000010B07F05FF90128CED100BF1B488068E0
:1043B00000F07F008146B14501D9304600E0484613
:1043C00081464FF0000A0DE000BF1448076800BFA7
:1043D00025F8027B4FF6FF7000EA174025F8020B24
:1043E0000AF1010ACA45EFD3A6EB0906002EA8D1AF
:1043F0005EB908F0010040B100BF07F033F90128B1
:10440000FBD100BF054800682880002000F076F846
:1044100000BF6FE70A07080700A8004000E000405F
:10442000B860002010B5044600BF00201A4908609B
:1044300000BF00BF18498039086000BF00BF17489F
:10444000406A174908600846007800F0010020B172
:104450000846008800F4807098B906E00CB9002086
:1044600010BD641E012008F6A7FF00BF0B4880693D
:1044700040F20111884201D1012000E00020002813
:10448000ECD00848006808490860044840680749BB
:1044900008600120E4E7000094D41D4200E00040E1
:1044A0001461002000A800400C6100201061002071
:1044B0000D4800680D4948600D4800680D490860C6
:1044C0000D48007800F0010020B10B48008800F48E
:1044D000807040B900BF0548006A20F00100034920
:1044E000086200BF00BF70471061002000E000407C
:1044F0000C61002000A800401461002070B5044643
:1045000007F0A8F8A04201D1012070BD00BF1048FB
:10451000C06820F0070020430D49C86000BF002597
:1045200008E007F097F8A04200D107E0012008F664
:1045300043FF6D1C4FF6FF708542F2D300BF4FF66C
:10454000FF70854201D10020DFE70120DDE7000098
:1045500000E0004010B500BFEFF3108004460120DA
:10456000FFF755FE204610BD70B52DED108B8AB0BB
:1045700005460C469FED510B8DED080B202168463A
:10458000FEF746F99FED4D0BB0EE408AF0EE608AE3
:10459000102269462846FFF749FE00260FE006F183
:1045A00008013DF811000EF08DFA41EC190B53ECA7
:1045B000182B0EF007F841EC180B701CC6B2082E31
:1045C000EDDB9FED400B53EC102B51EC180B0EF074
:1045D000ADF841EC180B0D2D41D1E08A0EF072FAC6
:1045E00041EC1B0B9FED390B53EC102B0EF09EF89A
:1045F00041EC190B60880EF065FA41EC1F0B9FED42
:10460000350B53EC102B0EF0F3FA41EC1E0B9FED23
:10461000330B53EC102B0EF0EBFA41EC1C0BA08A81
:104620000EF050FA41EC1E0B53EC182B0EF06EFC02
:1046300041EC1D0B53EC1C2B0EF078F841EC1B0BDE
:104640009FED280B53EC102B0EF070F841EC1A0B79
:1046500053EC192B0DF0B6FFCDE9080127E00E2D24
:1046600025D160880EF02EFA41EC1C0B9FED190B42
:1046700053EC102B0EF0BCFA41EC1A0B20880EF014
:1046800021FA41EC1C0B53EC182B0EF03FFC41ECD3
:104690001B0B53EC1A2B0EF049F841EC190B9FED54
:1046A000130B53EC102B0EF0A3FACDE908019DED8E
:1046B000080B0AB0BDEC108B70BD000000000000BC
:1046C000000000000000000000002040000000008A
:1046D00000005940000000000000F0BF0000000092
:1046E0000000004079E9263108AC5CBFB76DDBB64D
:1046F0006DDB0E4030380A2801D2012070470020BF
:10470000704710B504462046FFF781FD10BD704785
:1047100010B50446204606F0B3FD10BD10B50446A2
:1047200020460AF05DFA10BD70B504460D462946D4
:1047300020460CF071FF2946204609F0A3FA70BD0F
:1047400006460F46154672B63846FDF7A9FF4028C3
:1047500001D9402002E03846FDF7A2FF80463046EE
:10476000FDF79EFF402801D9402002E03046FDF7CA
:1047700097FF04469C211048FEF74AF84246394606
:104780000D48FDF7ACFF0C48224631465C30FDF782
:10479000A6FF09484FF0AA31016445644FF0BB31D0
:1047A00081644FF0CC3101654FF0DD31816500202F
:1047B00000F004F8FEE70000F471002030B5ADF21F
:1047C0000C4D04464FF4806103A8FEF721F8184D04
:1047D000202085F83F0085F89B003CB12846012C3D
:1047E000436DC26C09D0022C0CD00FE0104A11A10D
:1047F0005C3203A8FDF75CFD08E011A103A8FDF7FA
:1048000057FD03E016A103A8FDF752FD03A90BA273
:10481000686CCDE90121009018A3054A18A1002079
:1048200000F088FE00F052FE0DF20C4D30BD00008D
:10483000F47100205B4552524F525D2025730000F9
:104840005B5741524E494E475D20506172616D3059
:104850003A25642C506172616D313A256400000084
:104860005B504152414D5D20506172616D303A257F
:10487000642C506172616D313A25640000000000C3
:104880006170705F6173736572742E630000000065
:1048900001480BF05DBD0000845D002006460F4618
:1048A00090461D4672B64046FDF7FAFE402801D9F3
:1048B000402002E04046FDF7F3FE04469C210D48EF
:1048C000FDF7A6FF224641460A48FDF708FF0948C2
:1048D0004FF05531016445644FF066318164C66420
:1048E0004FF0773101654765C94381650220FFF7C5
:1048F00065FFFEE7F47100202DE9F04106460F4602
:1049000090461D464046FDF7CBFE402801D9402089
:1049100002E04046FDF7C4FE04469C210D48FDF729
:1049200077FF224641460B48FDF7D9FE09484FF074
:1049300011310164456449008164C6644FF033312C
:10494000016547654FF044318165BDE8F0410120C4
:10495000FFF734BFF47100200C2801D3002070470A
:1049600000EBC000054900EB400011F820201AB10F
:1049700001EB8000001D704700207047186A00207E
:104980002DE9F05F0546894600244FF0FF38464682
:104990004FF0010A002D16D0474903200BF058FCB8
:1049A000464923200BF054FC287970B101280CD023
:1049B00002280AD0032808D0042806D0052804D0ED
:1049C0004046BDE8F09FE520FBE7EFF310830121AF
:1049D00081F310883A4F04EBC40101EB410117F851
:1049E000212052B107EB8102D5F800B0D2F804C003
:1049F000DC4514D1127A824211D104EBC40000EBE1
:104A0000400207EB8202384692F83120022A04D095
:104A100026B2012200F8212004E00C2402E0641CEC
:104A20000C2CD8D383F310880C2C3FD20022032106
:104A300024480AF05FF904EBC40000EB400007EBE8
:104A40008004296861602879207204F10C00242216
:104A500005F10801FDF788FE1B48A0631B48206490
:104A60001B48E06300206064C4F8689019496068DE
:104A700088420AD10320FFF701FB98B9032015F6FD
:104A80009FFB032015F6BAFB0CE01349884209D1BD
:104A90002320FFF7F3FA28B9232015F691FB2320F2
:104AA00015F6ACFB201D03F061FC8246BAF1000F45
:104AB00000D04646304684E7E94110001942100014
:104AC000186A002064322100A16A2000D968200001
:104AD000896820000090014000A001402DE9F041CC
:104AE000014600291BD000240F4E0E4A357814E0F1
:104AF00002EB04100F780378BB420CD14B6840687E
:104B0000034208D0707808B900F0B2FC2046BDE836
:104B1000F04100F0E1BB641CE4B2AC42E8D3BDE874
:104B2000F081000014690020505D00207CB505462E
:104B30000E46002D01D0002418E0E5207CBD05EBD9
:104B4000041041680091017A8DF80410417A8DF8C3
:104B5000051008218DF80610C26800780023694608
:104B600000F0CAF90028E9D1641CE4B2B442E6D3EB
:104B700000207CBD10B50446114822784FF0FF316B
:104B800050F82220A2F86C10227850F82200A0F8E9
:104B90006E10606B002801D1A16B71B120B120466D
:104BA00000F060F8002807D1A06B20B1204600F08B
:104BB00009F8002800D1002010BDE42010BD00003D
:104BC000685D002030B58BB004462C216846FDF7A7
:104BD0001FFE2249A06B884202D1E4200BB030BDF9
:104BE000009094F83D008DF80400207890B10520E5
:104BF0000290092003904FF400100490C012059019
:104C000000200690216C022906D81021079102216C
:104C1000089105E00720EBE7202107910421089186
:104C200009900A9000216846FFF7AAFE21780C4DF2
:104C300055F82110A1F86E00002801DAE420CDE734
:104C4000FFF78AFE217855F82110C863217855F8BE
:104C50002110091D01630020C0E700000090014001
:104C6000685D002030B58BB004462C216846FDF706
:104C7000CFFD2249606B884202D1E4200BB030BDE9
:104C8000009094F83C008DF80400092002902078F0
:104C900088B1042003904FF4801004900020059008
:104CA0004FF480710691216C022906D810210791DA
:104CB0000221089105E00620ECE72021079104215C
:104CC000089109900A9000216846FFF759FE217863
:104CD0000B4D55F82110A1F86C00002801DAE420F2
:104CE000CCE7FFF739FE217855F821108863217849
:104CF00055F82110091D01630020BFE70090014015
:104D0000685D002070B500280CD004780F4E56F86E
:104D1000241049B191F8702032B191F8711029B185
:104D2000EA2070BDE52070BDE92070BDEFF310856D
:104D3000012181F31088FFF71DFF20B956F82420C8
:104D4000012182F8711085F3108870BD685D002024
:104D500070B50446022C01D3E82070BD114D55F802
:104D6000240048B190F8713033B139B132B190F8C4
:104D700072302BB1E22070BDE92070BDE42070BD1F
:104D8000012380F8723055F82400001D04F0E0FB88
:104D900028B155F82420002182F8721070BD00203F
:104DA00070BD0000685D0020022801D3E820704734
:104DB000064951F8200038B190F8701021B14068D0
:104DC0000121816100207047E9207047685D002063
:104DD0002DE9F04105460F46002D05D02C78022C18
:104DE00004D3E820BDE8F081E520FBE7264E05F17D
:104DF000500046F824002878291D05F0A1FE00285F
:104E0000F0D156F82410281D886656F82400076053
:104E1000403556F824002ECD08302EC01B4856F8D9
:104E2000241050F82400486056F82400001D04F0B7
:104E30006DF90028D6D156F82400001D04F01CFAA4
:104E40000028CFD111480B220321083009F052FF6E
:104E500056F82410012081F8700056F82410002024
:104E600081F872000A491E200BF0F2F909491D2051
:104E70000BF0EEF9054D2D1F285715F6A1F928570F
:104E800015F6BCF90020ADE7685D002090332100E5
:104E9000E7431000DD43100010B502460846052A1E
:104EA00025D2DFE802F0030303111900114951F87C
:104EB00032200104090C05D022B10146104603F04E
:104EC000B1FF10E0E42010BD10F0FF0F02D002F09F
:104ED0006FFF08E0E42010BD10F0FF0F05D0014681
:104EE000002004F081FB002010BDE42010BDE6206E
:104EF00010BD0000803221002DE9F05F05460C4610
:104F00009046994626680027042D11D03146284640
:104F1000FFF7C2FF2146284600F05EF8002808D1BE
:104F2000032D08D04FF0100A2807070E002448E090
:104F3000E620BDE8F09F4FF0080AF7E7F0073DD004
:104F40003DB1012D05D0022D03D0032D21D0E62047
:104F5000EFE71E4800EBC50090F904B0BBF1000F6D
:104F600015D0EFF31081012080F31088184AE01962
:104F700042F8308002EBC000C0F8049081F3108842
:104F8000584615F61DF9584615F638F916E0E4208E
:104F9000CFE7EFF31081012080F310880D4AE0196C
:104FA00042F8308002EBC000C0F8049081F3108812
:104FB0001B2015F605F91B2015F620F97608641C50
:104FC000E4B25445BAD30020B3E700008032210098
:104FD000806F00208070002030B597B005460C46E9
:104FE0001C22454910A8FDF7BFFB1C2242491C3179
:104FF00009A8FDF7B9FB20223F49383101A8FDF788
:10500000B3FBD4B13D4906200BF022F93C490720FF
:105010000BF01EF93B491B200BF01AF93A491220FC
:105020000BF016F934496C39A1F12C02052D61D22F
:10503000DFE805F0060606213900E52017B030BD8F
:10504000207931F810001190607932F81000129038
:10505000A0791390206810902748843850F83500C4
:1050600021880904090C04D018B110A903F0CBFF62
:1050700039E0E420E2E7207901EB4000808A0A90E1
:10508000607902EB4000C0880B90A0790C902068FA
:105090000990207810F0FF0F03D009A802F06CFFF0
:1050A00021E0E420CAE72079031F042B01D8E72080
:1050B000C4E7022819D001200290207901EB4000BA
:1050C000008D0390607902EB400080890490A07904
:1050D000059020680190207810F0FF0F08D001A9FA
:1050E000002004F035FB0020A8E702200290E4E74E
:1050F000E420A3E7E620A1E70433210041431000A8
:105100003B4310003743100031431000024600209B
:10511000052A11D2DFE802F0030303090C00074857
:1051200050F8320089B214F6AABF88B202F092BFDA
:1051300089B2002004F014BB7047000080322100C7
:10514000002803D002490860012070470020704702
:105150004C5D002070B505460024091F062917D2B2
:10516000DFE801F003070C111315284600F0A4F83E
:105170000EE00124284600F09FF809E002242846AA
:1051800000F09AF804E0032402E0042400E005247F
:10519000034A214628461268BDE8704010470000C7
:1051A0004C5D00202DE9F0410446204600F0AEF8A9
:1051B00001462E4800230826025D00F10A0700F18F
:1051C0001405AAB1052A33D0082A2AD1092945D0C5
:1051D000082926D1295D491CC9B22955142920D393
:1051E0002B5506552046BDE8F0410821FFF7B2BF18
:1051F000052913D0042916D0072914D0082910D165
:10520000295D491CC9B2295514290AD32B550655C5
:105210002046BDE8F0410821FFF79CBF3B55052122
:105220000155BDE8F0812046BDE8F041FFF792BF8F
:1052300005290CD0395D491CC9B239553229F0D342
:1052400003552046BDE8F0410521FFF783BF035514
:105250002046BDE8F0410621FFF77CBF03552046FC
:10526000BDE8F0410921FFF775BF0000D4680020B8
:1052700070B504460D4600F00FF808B100F00EF9C5
:105280000348044A2946005D5268BDE87040104753
:1052900008690020505D00200020064911F8102008
:1052A0000AB100207047401CC0B20A28F6D3012082
:1052B00070470000F26800200349002201F8102026
:1052C00001EB400042707047F2680020014A02F88A
:1052D00010107047F2680020024A012102EB4000E2
:1052E00041707047F268002070B50024064D05EB50
:1052F0004400407810B12046FFF754FF641CE4B22C
:105300000A2CF4D370BD0000F268002070B50021B3
:105310001D4B03F132051A5C002A09D0002403F169
:105320000A06012A0AD0022A12D0032A24D11FE039
:1053300015F8102002B301221A541DE015F81020B0
:105340001AB1345402221A5416E01C54042113E0FA
:1053500015F810204AB1325C521CD2B23254642A81
:105360000AD3072103221A5406E005211C5403E046
:1053700015F8101011B10821084670BD1C54FFF734
:105380009BFF0921F8E70000C0680020704700007B
:105390002DE9F0410E4617460A2E02D80FB1002320
:1053A0001AE00020BDE8F08103EB430400EB840524
:1053B000114AA97AD154104910F824200C3101EB7C
:1053C0000314227069686160297A2172697A6172B6
:1053D0000A49E1605B1CDBB2B342E5D306483146C3
:1053E0000C30FFF7A3FB0648067047600548FFF73F
:1053F000A7FE0120D6E7000008690020DD4A200052
:10540000505D0020715220002DE9F0410024124F20
:10541000DFF8488019E0002607EB04152878696852
:10542000FFF774FE10B9697A012902D0012802D071
:1054300005E0012603E0687A022800D10126314602
:105440002046FFF743FF641CE4B298F80000844252
:10545000E1D3BDE8F081000014690020505D002018
:1054600010B5FFF7D1FFBDE81040FFF73DBF0000CA
:1054700010B5074A0121074800F0DCF900220A2193
:10548000044800F0A7FA04490120487010BD00004C
:1054900061542000B8690020505D002010B5034819
:1054A00000F0F6F902490020487010BDB8690020EC
:1054B000505D0020002806D0002904D0024AD2699D
:1054C000002A00D010477047D07100200248006ABF
:1054D000002800D000477047D071002070B50D46FD
:1054E00016460D4C00280AD00178032911D8012155
:1054F000A17601461A222046FDF7F1F805E00020CA
:10550000A0761A210448FDF783F9E56126620020A0
:1055100070BD012070BD0000D0710020044A10440D
:10552000807D084201D001207047002070470000B4
:10553000D07100202DE9FE4FDDF830B006469246CE
:10554000994600240027019702975A480178B142F2
:1055500002D2807E00287DD10DF13808CDF8008080
:10556000EFF311850220FEF7ABFD014652480068BB
:10557000C0F30220401C012282408818C0B280F390
:10558000118801213046FFF7C9FF38B14B484C491B
:1055900050F82620204600F0A5F804461C2130468D
:1055A000FFF7BCFF00285ED046A24549204600F028
:1055B00099F8204484B204213046FFF7AFFFF8B1D8
:1055C00052463F49204600F08DF8204484B208211D
:1055D0003046FFF7A3FF38B13BA23949204600F01F
:1055E00081F8204484B20BE010213046FFF796FF8B
:1055F00030B136A23249204600F074F8204484B21B
:1056000008213046FFF78AFF90B14A462C492046D0
:1056100000F068F8204484B210213046FFF77EFF86
:1056200030B12BA22649204600F05CF8204484B219
:1056300010213046FFF772FF70B15B4626A20521AC
:1056400001A8FCF74BFE01AA1D49204600F04AF8CC
:10565000204400E02BE084B220A21949204600F04B
:1056600041F8204484B21648C4F580712044434672
:105670000D9AFCF7F7FD00974FF48071002804DBCA
:105680002044884201DC86B200E00E46B01C88420D
:1056900000D9FE2612A20A49304600F023F8304411
:1056A00081B20748FFF706FFE8B280F31188BDE832
:1056B000FE8F0000D07100200CED00E0705D002036
:1056C000D070002028000000200000003A000000F8
:1056D000204C696E653A0000256C640029200000AA
:1056E0000D0A000030B50546002000290CD0002A24
:1056F0000AD006E02B18FF2B06D8CC54521C401CB5
:1057000080B21478002CF5D130BD00001CB5002209
:10571000009201928DF80010002903D0032901D0D6
:10572000042901D1C069019003484068016800293B
:1057300001D0684688471CBD5C5D002070B50446FA
:105740000E46002C3CD01F4D04F13000686020460E
:1057500008F0FAFE002832D16968401E8887A069E7
:1057600020B1204608F03EFE002828D168688463F6
:105770000660203400F108061ECC1EC62968416070
:10578000001D04F039F8002819D16868001D04F0E4
:10579000BDF8002813D1102203210B4809F0AAFA02
:1057A0006968012081F83E00084927200AF050FD71
:1057B000272014F605FD272014F620FD002070BDDB
:1057C000E52070BD5C5D0020543221005D3E20006C
:1057D00010B50B4B5C68002C0ED094F83E305BB1DA
:1057E00060B159B152B113460A460146201D04F07A
:1057F0003FF90028FFD110BDE92010BDE42010BD05
:105800005C5D002010B50848017800290AD101210B
:10581000017006483EF6F8F8BDE810400021044843
:105820003EF688BA10BD0000645D0020B942100049
:105830002DEC20002DE9F04104460D461746002DC1
:1058400004D0012D02D00120BDE8F081E4B1DFB128
:10585000607801281AD0EFF311860220FEF722FCAF
:105860008046FEF73BFC401C0121814008EB010013
:10587000C0B280F3118800206070A570E761F0B2BB
:1058800080F311880020DFE70120DDE70620DBE759
:1058900010B50446002C0CD0204600F02DF9FF2056
:1058A00060700021A160E160216161610020E06120
:1058B00010BD012010BDF0B5DDE9074505998161F6
:1058C0004FF47A76A2FB061C03FB06C3002702FBFB
:1058D0000732C0E9021209196A41C0E90412002125
:1058E0000162F0BD2DE9F0410446002C13D0EFF326
:1058F00011850220FEF7D6FB0746FEF7EFFB401CA2
:10590000012606FA00F03844C0B280F3118812482C
:10591000002121620EE00020BDE8F081D4E90432CC
:10592000D1E9047CDB1B72EB0C0202D2016A21621A
:1059300003E00846016A0029F0D104626670064857
:1059400010380168491C0160016B4160E8B280F3C6
:1059500011880120E0E70000F06900202DE9F04106
:1059600005460024EFF311860220FEF79BFB074655
:10597000FEF7B4FB401C012181407818C0B280F3CF
:105980001188134A106BE8B115B102F1100010E054
:105990000446206A10631068401E10600CE0A942A3
:1059A00006D11168491E1160296A01622C4603E084
:1059B0000846016A0029F2D124B1002020626070FB
:1059C000106B5060F0B280F311882046BDE8F08182
:1059D000E06900202DE9FF5F82460E4693464FF0B6
:1059E0000008BAF1000F20D0414886421DD8E6B128
:1059F000EFF311870220FEF755FB0446FEF76EFB1E
:105A0000401C012181406018C0B280F311885046CB
:105A100005F006FE10B19AF8010040B1F8B280F32B
:105A200011880F2004B0BDE8F09F0120FAE708F0CC
:105A300037F804460D464FF47A7106FB01F0224612
:105A40002B46002105F08AFCDFF8A890B0B1D9F808
:105A5000040048B1D0E90410091B60EB0500C9E956
:105A6000021008F097F804E00021C9F80810C9F8FE
:105A70000C104FF00108D9E9020106E0D9F8040042
:105A8000D0E90421101B61EB0501CDE9020132468A
:105A90000023CDF800B05046FFF70DFF5046FFF74A
:105AA00021FF0AF0F1FA4FF0E024D4F800014FF0A2
:105AB000806510F0806F01D0012000E0002020B947
:105AC0001A20FEF77EFAC4F80051B8F1000F0AD090
:105AD000D9F80400D0E90431D9E90202181A61EBBF
:105AE000020108F013F8F8B280F31188002099E75A
:105AF000008AB907E06900202DE9F041044600253D
:105B0000002C39D0EFF311870220FEF7CBFA0646BE
:105B1000FEF7E4FA401C012181407018C0B280F306
:105B200011886078012824D1144E7068A0420BD1EE
:105B300007F0B6FFD4E90432181A62EB0102C6E995
:105B4000020208F027F801252046FFF707FF5DB1A4
:105B5000706848B1D0E90421D6E90203101A61EB5C
:105B6000030107F0D3FF04E01DB9706808B908F01D
:105B700011F8F8B280F31188BDE8F081E0690020E7
:105B800070B504461A4D55F8240070300AF0F3F948
:105B900082B21646A2B155F8240090F801110129ED
:105BA0000ED0012180F80411802A0FD355F824006B
:105BB000802200F1800170300AF0F2F980260CE0BA
:105BC00055F82410002081F8000170BD55F824001C
:105BD00000F1800170300AF0E3F955F824003246F4
:105BE00000F18001001D04F03FFC0028EDD170BDE4
:105BF000C0700020704700002DE9F8430446514E64
:105C000056F82400071D042C7ED290F86C10002951
:105C10007AD0012978D190F80011012974D190F837
:105C20000111002970D1012180F80111002556F8D9
:105C30002400D0E903120A44017D01F00101C91DCD
:105C400002EB01084168CA6FC2F38002002AFAD051
:105C500090F80411E1B1DFF8F0906D1C56F82400C3
:105C6000001D04F07DFA10280BD056F82400D9F856
:105C700000108068B1FBF0F000FB08F0B5EBC01F2E
:105C8000EBD956F8240070300AF075F985B226E099
:105C9000B0F82480C58C001D04F01CF956F82400CF
:105CA00041F2883300EB0801491B8031001D2A4670
:105CB00004F088FBE5E756F82400012270306946BD
:105CC0000AF06EF956F824004068C16FC1F3400134
:105CD0000029FAD09DF8001001606D1EADB2002DB4
:105CE000E9D156F8240070300AF045F90028C8D1EF
:105CF000386841694906FCD5EFF31085012080F32F
:105D0000108856F8240000E01AE070300AF033F9E9
:105D100058B1EFF31081012080F310883868426891
:105D200042F08202426081F3108856F8241000206D
:105D300081F8000156F8241081F8010185F31088DC
:105D4000BDE8F883C0700020485D00202DE9F041D7
:105D500005460F46002D06D02AB12C78042C04D31A
:105D6000E820BDE8F081E520FBE7344E05F158005E
:105D700046F82400D2E900310A46703019460AF08C
:105D8000E5F8291D286D0BF03FFD0028E9D156F8F4
:105D90002410281D486656F82400076056F8240091
:105DA0001822083005F14001FCF7DEFC244856F8C3
:105DB000241000EBC4056868486056F82400001DF4
:105DC00004F0ECF856F82400001D04F0D7F91C4844
:105DD00001220321103808F08DFF56F8241001200D
:105DE00081F86C0056F82410002081F8000156F864
:105DF000241081F8010156F8241081F8020156F8A8
:105E0000241081F803010F490C200AF021FA0E49F1
:105E10000D200AF01DFA0D4934200AF019FA0C4938
:105E200035200AF015FA95F9010014F6C9F995F92B
:105E3000010014F6E3F9002093E70000C070002091
:105E40006C332100513F2000613F2000713F200052
:105E5000813F20002DE9F04104461A4D55F82400F9
:105E600070300AF088F882B2164600277AB155F8E9
:105E7000240090F80111012909D0802A0ED300F1E5
:105E80008001703080220AF08BF880260BE055F8F4
:105E9000240080F800710020BDE8F08100F180014D
:105EA00070300AF07DF855F8240080F8047155F838
:105EB0002400324600F18001001D04F03DFB002863
:105EC000EAD1E9E7C070002070B5042801D3E820CA
:105ED00070BD0C4D55F820407CB194F86C6066B1F3
:105EE00069B162B1002684F8026155F82000001DF6
:105EF00004F068FA0028EBD170BDE52070BDE42005
:105F000070BD0000C07000202DE9F74F84B0054639
:105F10000C46022604F10809204601F025FE07463A
:105F20003E48D0F804A000200390B5F5804F0ADB6E
:105F3000B5F5004F07DA3948406839490968A0EBE0
:105F4000010A01200390E019504501DD052662E0B9
:105F50003248006800F6FF7030490988491EC1F3D5
:105F60000B01401AC0F3073B039810B12C4800689E
:105F700000E0002002902B4800682B490968401A75
:105F8000001F2649497AA1EB0B01A0EBC100234970
:105F90000968411A0298A1EB000809EB0700404587
:105FA00032DD002011231E224FF400410090012019
:105FB00041F624FC0021084601F032FCC8B917491B
:105FC000487A05F083F806461EB1304607B0BDE8B2
:105FD000F08F002012231E224FF400410090012078
:105FE00041F60CFC21462846069A0BF0FDFE0646BB
:105FF00010E0002013231E224FF4004100900120E6
:1060000041F6FCFB0F2605E021462846069A0BF0D8
:10601000EBFE064600BF3046D8E700007887002038
:10602000485F00205C5F0020545F002010B56FF0D7
:106030000200814908603820002807DB00F01F02B9
:10604000012191407D4A430942F8231000BF0020FE
:106050007B49086000BF7A481C30006840F00200AD
:1060600077491C3108600846006840F0010008606C
:106070000846006820F00200086000BF00BF7048BA
:10608000001F006840F001006D49091F08600846C4
:10609000006820F00200086000BF00BF07F06CF845
:1060A0000028FBD1022066493839096821F0030134
:1060B00008B9002206E0022802D140F2AA2201E03B
:1060C00040F2FF3202F0030211435D4A383A116098
:1060D00000BF02201146096821F00C0108B9002216
:1060E00006E0022802D140F2AA2201E040F2FF328B
:1060F00002F00C021143524A383A116000BF0220EC
:106100001146096821F0C00108B9002206E0022802
:1061100002D140F2AA2201E040F2FF3202F0C002B6
:106120001143474A383A116000BF032044494039BF
:10613000096821F0030108B9002206E0022802D113
:1061400040F2AA2201E040F2FF3202F003021143C2
:106150003B4A403A116000BF03201146096821F014
:106160000C0108B9002206E0022802D140F2AA225E
:1061700001E040F2FF3202F00C021143304A403A93
:10618000116000BF03201146096821F0C00108B961
:10619000002206E0022802D140F2AA2201E040F2E9
:1061A000FF3202F0C0021143254A403A116000BF9D
:1061B00000BF012022493439086000BF00BF06F04B
:1061C000DBFF0028FBD1FFF61FF9FFF624F900BF23
:1061D0001B481C30006840F0040019491C3108605D
:1061E00000BF00BF1648001F006840F004001449BB
:1061F000091F086000BF01200AF03EF900BF1148E6
:10620000006820F040000C499839C1F8800200BFB6
:1062100000BF0846D0F8800220F01000C1F88002CC
:1062200000BF00BF0846D0F8800220F02000C1F86F
:10623000800200BF10BD000098A0004080E200E096
:10624000C4A4004080A2004010B5FFF6E4F8FFF6B9
:10625000DBF800BF1048006840F002000E490860FB
:106260000846006820F00100086000BF00BF0A482F
:106270002030006840F001000749203108600846DE
:10628000006840F0020008600846006820F0010045
:10629000086000BF10BD0000C0A4004038B50AF07F
:1062A000F3FC28B140F27E4108460AF045FA04E0CA
:1062B00040F27E4108460AF03FFA2748007878B15C
:1062C0002648006800900AF051FA044624480088E5
:1062D00000900AF04BFA054621460AF063FC05E0FF
:1062E0004FF466714FF47F700AF05CFC1D4808F0B3
:1062F000A3FB0AF0C9FC10B91B48007880B91B4801
:1063000018490A6802604A6842600989018118498F
:10631000144802680A6042684A600089088119E0EE
:106320001249104802680A6042684A600089088180
:106330000F490C4802680A6042684A600089088177
:1063400040F21A40094908800AF08CF90749888010
:106350000120487238BD000008610020046100205F
:1063600006610020DA600020C6600020E4600020A2
:10637000EE60002010B53EF6C1FD10BD10B500F076
:1063800099F800F059F8BDE8104000F079B8000025
:1063900010B50121002003F0E9FC012012F610FEE7
:1063A00002200649087009F0CBFE0549322009F0A9
:1063B0004FFF3220FDF751FE10BD0000AC620020FF
:1063C0006D3D200010B52DED028B00BF1748006811
:1063D000C0F30B00044600BF14480830006820F0EA
:1063E0007F4008EE100A601C00EE100AB8EE400A6A
:1063F000DFED0F0A20EE200AB8EE481AC0EE010ABF
:10640000B6EE000A30EE800ABCEEC00A094880ED04
:10641000000A006808F0E8FAF0EE408AB0EE680A78
:106420000AF056FCBDEC028B10BD000004E40040F5
:106430000024F44B9862002000B587B003208DF84B
:1064400004000821029105218DF80C1001228DF81D
:106450000D2000238DF80E308DF8100010200590CF
:106460008DF818108DF8192004208DF81A00034AB1
:10647000022101A8FEF78CFF07B000BD8D5320005C
:106480007CB50825009502248DF804408DF8054060
:106490008DF8065069460420FEF79EFD042000900A
:1064A0008DF804408DF805408DF806506946FEF7DA
:1064B00093FD7CBD00B587B000F01EF803208DF879
:1064C00000001D208DF8160001208DF817008DF8B2
:1064D00018008DF81900044A04496846FEF7FEFFCB
:1064E000FEF7D6F907B000BDF16420005965200021
:1064F0000020FFF781BB00007CB5144800904FF4EA
:106500008065019500F58060002101704FF4E13253
:106510000264032444648164C1640165012343650A
:106520000174DA02426102224274037601718560CD
:106530004271017306494163816380F83C2080F811
:106540003D406A460349FFF701FC7CBD60630020C3
:1065500000900140F55B20000A4601464FF47A7333
:106560000020FFF7B1BC014600200A2904DC40F6F8
:10657000641000EB410012E0242904DC40F66610B0
:1065800000EB41000BE0252902D140F6621006E045
:10659000262902D140F67A1001E04FF41B607047C3
:1065A00010B50021084603F0E1FB012012F600FDC2
:1065B0000348806820F480700149886010BD0000A5
:1065C00000A0004010B516480068401C144908603F
:1065D00000BF1448006800F0010040B100BF11483E
:1065E0000838006800F0010008B109F001FE00BFA2
:1065F0000D48006800F0010040B100BF0A480838AB
:10660000006800F0010008B100F098FE09F032FDCA
:1066100020B104F01FF908B1FFF7C2FF10BD000060
:10662000C462002008E4004008E5004010B509F00D
:1066300005FE00F029FE10BD10B508F053FBBDE8C3
:10664000104000F019B900007CB504460D4624E066
:106650002178154A126802EB01300822694600F0E1
:106660007FF8082814D1BDF800004FF6FF7188426A
:1066700000D10FE09DF800000C49C870BDF8020081
:1066800088809DF8010028702078487000207CBD2B
:106690001020FCE72078401C207020780449497ABB
:1066A0008842D5DB0020F2E7545F00204C5F0020D9
:1066B0007887002010B500BF2348006820F0004014
:1066C0002149086000BF214A1078214A117840EA28
:1066D00081031D4A121D126863F31F721A4B1B1DA2
:1066E0001A6000BF06201946096821F4E07141EAEA
:1066F00080111A46116000BF00BF101F006840F0F3
:106700000040111F086000BF00BF1248006840F041
:1067100001001149C1F8880200BF1049312009F079
:1067200097FD312000280DDB00BF00BF00F01F02E5
:10673000012191404209920002F1E022C2F80011C9
:1067400000BF00BF00BF10BD04A90040A86000202A
:10675000A960002088E2004000E00040753D200074
:106760002DE9F04104460D4616460948007810B15F
:10677000002006F009FF32462946204606F0EEFECC
:1067800007460348007806F0FFFE3846BDE8F08172
:10679000615F00202DE9F04105460E461446094888
:1067A000007810B1002006F0EFFEA2B23146284674
:1067B00006F0FAFE07460348007806F0E5FE384684
:1067C000BDE8F081615F00202DE9F04105460E46ED
:1067D00014460948007810B1002006F0D5FEA2B298
:1067E0003146284606F041FF07460348007806F088
:1067F000CBFE3846BDE8F081615F00202DE9F04115
:1068000004460D4616460948007810B1002006F0EF
:10681000BBFE32462946204606F066FF074603487F
:10682000007806F0B1FE3846BDE8F081615F0020D7
:106830002DE9F04104460F4615464FF00008206848
:1068400000F6FF702188491EC1F30B01401A216830
:106850002944884201D84FF008082A463946206862
:10686000FFF7B2FF86B205EB0801206808442060FC
:106870003046BDE8F08100000249014808607047D9
:10688000B54D10006C03002030B40021114B01EB1A
:10689000C10202EB420213F82240012C15D103EB96
:1068A00082020579147AAC420FD152680468A24280
:1068B0000BD101EBC10000EB400003EB8000816EC7
:1068C000002905D030BC02200847491C0C29DED322
:1068D00030BC7047186A002030B40021114B01EB26
:1068E000C10202EB420213F82240012C15D103EB46
:1068F00082020579147AAC420FD152680468A24230
:106900000BD101EBC10000EB400003EB8000816E76
:10691000002905D030BC00200847491C0C29DED3D3
:1069200030BC7047186A002010B50246012302B13E
:1069300009B9002010BD084C1068A04202D1002007
:10694000087007E0054C1068A04202D101200870D1
:1069500000E000231846EDE70090014000A0014050
:1069600070B500240D4E04EBC40000EB400016F897
:10697000201001290DD106EB80000546001D01F015
:10698000EDFC18B1012801D0002070BD281DFEF6D5
:106990002BF8641C0C2CE6D3012070BD186A002073
:1069A0002DE9F84305460F46202000906946284609
:1069B000FFF7BAFF012837D19DF8001088401B4926
:1069C0000968084080B35FBB00BF00BFEFF31080D1
:1069D0000646012080F3108800BF4FF000081449DC
:1069E0002868884202D1DFF84C8007E01249286805
:1069F000884203D1DFF83C8008F11808002408E041
:106A000058F8240018B158F82400FEF641F8601C2C
:106A1000C4B2062CF4DB00BF86F3108800BF00BFB1
:106A20009DF8000003F0D4F8BDE8F8836061002011
:106A300000900140788A002000A00140F8B504468B
:106A40000D4620200090002604B9F8BD6946204676
:106A5000FFF76AFF012810D1012D02D00DB10126E8
:106A600006E02068D0F8A00308B9002600E001265F
:106A700031469DF8000003F059F984F82D5000BF0D
:106A8000E3E738B504462020009069462046FFF72A
:106A90004BFF012803D19DF8000003F029F938BD10
:106AA00030B40021114B01EBC10202EB420213F89A
:106AB0002240012C15D103EB82020579147AAC42F5
:106AC0000FD152680468A2420BD101EBC10000EB68
:106AD000400003EB8000816E002905D030BC01200E
:106AE0000847491C0C29DED330BC7047186A0020C7
:106AF00070B504460D460448006820B1294620467A
:106B0000014A1268904770BD2061002070B50446AC
:106B10000E46002E43D03749206888421CD1207988
:106B2000062819DA00202179334A42F8210000258D
:106B300006E0314850F8250000B103E0681CC5B2FA
:106B4000062DF6DB00BF062D52D1002003F0A4F87D
:106B5000002003F027F84BE028492068884247D1FD
:106B60002079062844DA002122792348183040F899
:106B70002210002507E02048183050F8250000B109
:106B800003E0681CC5B2062DF5DB00BF062D2FD132
:106B9000012003F081F8012003F004F828E01549F2
:106BA000206888420FD1207906280CDA2079124912
:106BB00041F820401249002003F056F80E49002009
:106BC00003F080F814E00D492068884210D1207944
:106BD00006280DDA21790848183040F82140084984
:106BE000012003F041F804491831012003F06AF84C
:106BF00070BD000000900140788A002000A0014094
:106C0000594A100070B506460C46154600BF6FF491
:106C1000004000EAC43028B140F2F3220CA111A0D8
:106C2000FFF53EFC00BF00BFE80BC00328B14FF4E6
:106C30003D7207A11AA0FFF533FC00BF45EAC4303E
:106C400081B294207043254A1044A0F8661170BDAB
:106C500072665F6764785F62616C626F61322E6337
:106C60000000000028282875696E7431365F742989
:106C7000727877696465203C3C20313529202620D4
:106C80007E282875696E7431365F7429307830300B
:106C90003030383030302929203D3D203000000090
:106CA00028282875696E7431365F7429727877697F
:106CB0006E737A203C3C2030292026207E282875BF
:106CC000696E7431365F7429307830303030374631
:106CD00046462929203D3D203000000000800E401E
:106CE00070B5064C4FF4807628252A462146044884
:106CF0003044FBF7F4FC00BF70BD00006C34210091
:106D000000800E40F0B504460D4616461F463B4631
:106D100032462946204600F009F803F021FEF0BD76
:106D200001480078704700000C8E002030B5012427
:106D30000A4D2C702C466060E2602361A160084C13
:106D4000A4688C4203D2064CA4680C1B02E0044CDD
:106D5000A468641A014D6C6130BD00000C8E0020E7
:106D6000C862002010B503F0D3FD04461821054881
:106D7000FBF74EFD002003490870204600F07AF929
:106D800010BD00000C8E00202DE9F0470546884616
:106D90001646324C324887684FF0000994F800A03C
:106DA00026626562BD4201D9E81B00E0781B81467E
:106DB0002B48C068484507D3334642462946002041
:106DC000FFF7A0FFBDE8F087A069484502D9C4F8E5
:106DD0001890E661BAF1010F21D165616069B8428E
:106DE00003D92069401CA06002E02069401EE060D9
:106DF000D4E9020188420BD2D4E9020108444008D8
:106E00002061012020704046216900F02BF8D9E76D
:106E1000022020704046A16800F024F8D2E7BAF1C1
:106E2000020F10D1E069B04206D1334642462946EE
:106E30000020FFF767FFC5E7032020704046E169A7
:106E400000F010F808E0BAF1030F05D133464246CE
:106E500029460020FFF756FF00BFB3E7B48D00209E
:106E6000C862002070B504460D460648806A401C82
:106E700004498862AAB2E1B2034B5868034B03F09D
:106E8000F7FC70BDB48D0020C8620020896D200021
:106E900070B505460F4C2C212046FBF7B9FC0020AD
:106EA000A06040F2FF10E060D4E90201084440080D
:106EB00020614FF0FF30A061A06A401CA062012059
:106EC0002070238A9AB2E9B2034B5868034B03F04F
:106ED000CFFC70BDB48D0020C8620020896D2000F9
:106EE0002DE9F84306460D469046344C94F8009040
:106EF000B9F1010F0AD1E66040F2FF1020610222D1
:106F00000146284600F09CF8BDE8F883B9F1020F6D
:106F10004AD10027002000906661684600F050F8D2
:106F200007461FB92846FFF7B3FFEDE7012F12D13F
:106F30000F2D07DA0020A0600122681CA16800F074
:106F40007FF8E1E70520E06143462A463146E069E3
:106F5000FFF7D8FED8E7022F12D1002D07DD002061
:106F6000A060681E0122002100F06AF8CCE706202C
:106F7000E06143462A463146E069FFF7C3FEC3E7B6
:106F8000032F08D10098E06143462A463146E06964
:106F9000FFF7B8FEB8E70720E06143462A463146CE
:106FA000E069FFF7AFFEAFE70820E06143462A46FD
:106FB0003146E069FFF7A6FE00BFA5E7948D0020EB
:106FC00070B504461C491D480369826800250026E7
:106FD000C868904204D94869904201D9022070BD26
:106FE000C868904204D24869904201D20120F6E775
:106FF000C868904202D9C868801A01E0C868101AAF
:1070000005464869904202D94869801A01E04869FA
:10701000101A06469D4203D39E4201D30020DEE7AC
:107020009D4201D20120DAE79E4201D20220D6E73A
:107030000320206000BFD2E7948D0020C8620020AA
:107040002DE9F04105460E461746074CA069401C45
:10705000A06165602770B2B2E9B2044B5868044B76
:1070600003F006FCBDE8F081948D0020C86200208A
:10707000E16E200070B50546064C20212046FBF746
:10708000C7FB0020A06001222846A168FFF7D8FFB7
:1070900070BD0000948D00202DE9F84305460E4692
:1070A00017462A4C4FF00008C14600200090E069C6
:1070B000401CE0616660A760E0682061E5602448EC
:1070C0008068A84203D222488068281A02E020483B
:1070D0008068401B80466069404502D9C4F814802E
:1070E000A761684600F036F88146B9F1000F09D073
:1070F000B9F1010F0CD0B9F1020F11D0B9F1030FA2
:107100001AD113E00020A062204600F0CCF819E06C
:10711000012084F820003046A16900F087F811E0D2
:10712000A068411C304600F081F80BE0A068411EC9
:10713000304600F07BF805E00098A062204600F0A1
:10714000B2F800BF00BFBDE8F8830000E08D00206A
:10715000C8620020F0B503463249334882680024F3
:1071600000250026C868904202D9C868801A01E04C
:10717000C868101A04462C48C068A04201D30020F9
:10718000F0BD486A012801D10020F9E791F82000FC
:10719000012801D10020F3E74F6AC869B84209D33A
:1071A0008F688869B84201D10020E9E7012081F8A1
:1071B0002000E5E7C869012815D90869904202D97D
:1071C000C868904205D3086990420CD2C8689042C2
:1071D00009D98F688869B84201D10020D0E7012021
:1071E00081F82000CCE7C868904201D9012500E071
:1071F00001264DB18868B0F5FF7F03D909201860DA
:107200000420BDE70220BBE73EB1886818B90A2018
:1072100018600420B4E70320B2E70B2018600420B4
:10722000AEE70000E08D0020C862002070B5044683
:107230000D46AAB2E1B2034B5868034B03F018FBAA
:1072400070BD0000C86200209970200070B504462F
:107250000D4616462C210948FBF7DAFA00200749AB
:1072600081F82000401E486108464462B2B2E9B28B
:10727000034B5868034B03F0FBFA70BDE08D002010
:10728000C86200209970200010B503F0D5FA00B94B
:1072900010BDFFF745FD10B9FFF764FDF8E700F0FA
:1072A0002DF800BFF4E700B50346184600F004F8D7
:1072B00003F056FB00BD000001210E4A1171816AE6
:1072C0009160C169D160C168116141685161816893
:1072D0009161094AC1689268914204D9064AC1681D
:1072E0009268891A03E004498968C268891A014AC8
:1072F000D1617047248E0020C86200202DE9F04142
:1073000003F006FB064603F015FB07460948046830
:107310000948456920210748FBF77AFA601C0549AE
:107320000860002008713A4631462846FFF78EFF74
:10733000BDE8F081248E0020C862002010B51248FC
:107340000069401C1049086103F010FB0E49C86039
:1073500003F0DEFA0C49486003F0ECFA0A49886051
:1073600000200A490860084948610846C06940B1E0
:107370000C462489A2B20C462179E068E36998475B
:1073800001E003F0EDFA10BD748D002000E500402F
:107390007CB500251B48006800F108041A480078F5
:1073A00010B1002006F0F0F800BF08226946204620
:1073B00006F0FAF8BDF800004FF6FF71884202D0DF
:1073C000BDF8000008B9254615E0BDF8020000F040
:1073D000CBFBBDF802100831084486B23146204686
:1073E00000F0D8FB044609480068844202D30748ED
:1073F000056800E0D9E700BF0348007806F0C4F84C
:1074000028467CBD545F0020615F00205C5F002047
:10741000FEB506460C4602AA2146304609F0F8FFA2
:1074200008B10298FEBD029808B1029802E0224815
:10743000006808300546002002902048007810B10E
:10744000002006F0A1F800BF08226946284606F091
:10745000ABF8BDF800004FF6FF71884203D1002061
:107460002080029020E0BDF80000B04205D114B1A8
:10747000BDF802002080029516E0BDF8020000F081
:1074800073FBBDF802100831084487B2394628461C
:1074900000F080FB05460A480068854203D30020BF
:1074A0002080029000E0CFE700BF0448007806F09B
:1074B0006BF80298B6E70000545F0020615F00207F
:1074C0005C5F002010B50021084B5A685B8809E01A
:1074D00052F83140844203D102EBC100406810BD34
:1074E000491C89B29942F3D310BD0000CC5E002044
:1074F00010B50021084B5A681B8809E052F831404A
:10750000844203D102EBC100406810BD491C89B21E
:107510009942F3D310BD0000E85E002008B507F0E3
:1075200053FA01F019FC90B100208DF80000A3205F
:107530008DF8010002208DF802006846FDF62EF954
:1075400006F02CFF09F064FD07F024F908BDFEE702
:1075500002494968002900D0084770478C61002023
:1075600070B5044600BFFCF7CFFD05460120FCF7CF
:107570004BFE0648047024B9482205490548FBF72C
:10758000F3F82846FCF740FE00BF70BDC45E002043
:107590000C860020002000E010B50748406807492D
:1075A000486006480830402203490831FBF7DCF800
:1075B00003200249086010BDC4850020002000E0BF
:1075C000002003490968002900D0084770470000DF
:1075D0008C61002070B500BFFCF796FD05460120C8
:1075E000FCF712FE0948047834B9482208490948D2
:1075F000FBF7BAF8FFF7D0FF0120044908702846CE
:10760000FCF702FE00BF204670BD0000C45E0020F3
:10761000002000E00C86002013B501216846FDF72C
:1076200049FF01201CBD0000F0B4044600200025E5
:1076300000266FF48857E419174F06D0012C07D0A5
:10764000022C0CD0032C0CD105E03D687E6808E0CC
:10765000BD68FE6805E0BD69FE690B7801E03D6923
:107660007E69002414E035F834709F420FD105EB99
:10767000C4046468002C0DD00848844203D1F0BCD7
:1076800098B202F0E9BFA446F0BC98B26047641C0F
:10769000B442E8D3F0BC7047B40C002021BB010019
:1076A0002DE9F04102460F461E4600200024002529
:1076B0006FF488515118144A04D0012905D00329C8
:1076C00009D105E01468556805E09468D56802E0C2
:1076D000146955693E78002212E034F83210B14244
:1076E0000DD104EBC201496800290BD00846FFF711
:1076F000FFFE0246B0B23946BDE8F0411047521CC9
:10770000AA42EAD3BDE8F081D40C00202DE9F84369
:107710000C463DA0006800906A46214600200DF608
:107720006FFF0746012F65D1607800F00F084FF01A
:107730000009A18C608C0CF639FF08B1402553E09C
:10774000324E86F8749086F8729000F687FA3049C7
:107750002046096888470546280045D102203BF6A7
:10776000C3FD86F872802B48006808B180698047A5
:1077700086F87B9094F82A0086F87A0096F87200D2
:10778000800820D04120E17E86F875108A0704D455
:1077900021F0020086F875001720E18C4FF400629A
:1077A000914200D31146884200D9014689B2A6F819
:1077B0007610228D8A4200D21146884200D80846AF
:1077C000A6F8780001E086F875901048102204F1C0
:1077D0000A015C30FAF783FFA07EC00704D060681E
:1077E000F0662089A6F870003DB10B4A29460020BA
:1077F000126890473846BDE8F883084A00210846D9
:1078000012689047F6E700000300000054140020BF
:10781000D80500200C070020C4050020D405002056
:107820002DE9F04F8DB08046894608200C90002449
:1078300000200B904FF0080A0A90CDF82490019098
:10784000B8F1000F4ED0082204A9A5480068FEF741
:1078500087FF082803D00F200DB0BDE8F08F9DF8FA
:107860001000A52836D19DF811109E4A126802EB2F
:10787000013101F1080002226946FEF771FFBDF8EF
:1078800000004FF6FF7188420CD09DF81110954A08
:10789000126802EB01304FF4805105F029FE08B95F
:1078A0001020D9E79DF812000B90BDF816000C903F
:1078B0009DF81100401CC4B29DF812000B9009AB5A
:1078C0000CAA0BA904A80AF03BFC012801D1002056
:1078D000C2E71DE08448C0880C90834844788078D3
:1078E0000B9015E0FFF754FD054605F6FF70691E85
:1078F000C1F30B01401A7B490968401A0121C1EB11
:107900001030C4B20B9414B101200990019000BF53
:1079100009F0A0FCDDE00020069007905CB1714901
:10792000096801EB0430042206A9FEF719FF0428B8
:1079300001D00F2090E76C48002101604160A52034
:1079400069490870084644709DF82C008870BDF89D
:107950003000C8809DF81800C870BDF81A008880F3
:107960006048006800EB043050440A905C480068AE
:10797000504408904FF480515948006805F0B8FD14
:1079800008B9102068E79DF8180048B19DF8182044
:10799000012308A90AA80AF0A9FB08B10F205BE798
:1079A000BDF81A0048B1BDF81A20002308A90AA89A
:1079B0000AF09CFB08B10F204EE700BF49490A9826
:1079C0000968401AA0EB0430C0F58055082D2DDD64
:1079D0000120082302AA08A900900AA80AF050FB77
:1079E00008B10F2038E7BDF808004FF6FF71884254
:1079F00000D133E0083DBDF80A0000F0B5F8BDF84D
:107A00000A104718AF4208DDAAB2002308A90AA845
:107A10000AF06CFBD8B10F201EE7BAB2002308A908
:107A20000AA80AF063FB90B10F2015E7A8B200F096
:107A30009BF828441FFA80FB01205B462B4A08A9CB
:107A400000900AA80AF01CFB08B10F2004E72448A4
:107A50000899006800F580508142AFD300BF08222A
:107A600021491F480068FEF7C9FE082801D00F20F1
:107A7000F2E61C49096801EB04304FF4805105F02F
:107A800037FD08B91020E7E6019868B11549096883
:107A900001EB0430042206A9FEF7B0FE042801D051
:107AA0000F20D9E60020019009AB0CAA0BA90E48C3
:107AB0000AF046FB0646012E06D10103084800687D
:107AC00005F016FD0020C7E60EB10F20C4E6601CCD
:107AD000C4B20748407AA042BFF61DAF0020BBE603
