:020000040020DA
:102000000000042059202000612020000140100021
:10201000F3212000E9212000F92120000000000028
:10202000000000000000000000000000154010004B
:102030006B202000000000006D2020007120200097
:10204000DFF810D000F054FC00F070F800480047B2
:1020500051AE210000000420064880470648004792
:10206000FEE7FEE7FEE7FEE7FEE7FEE7FEE7FEE748
:10207000FEE70000C138200071AE21000649074A82
:102080000868504343F23902104408604008704722
:102090000149086070470000946600206D4EC641FB
:1020A00010B5431A934209D28318881803E010F838
:1020B000011D03F8011D521EF9D210BD40EA0103B3
:1020C0009B0703D009E008C9121F08C0042AFAD2EE
:1020D00003E011F8013B00F8013B521EF9D210BD9C
:1020E000D2B201E000F8012B491EFBD2704700225A
:1020F000F6E710B513460A4604461946FFF7F0FF07
:10210000204610BD421C10F8011B0029FBD1801A8B
:10211000704730B504460020034600E05B1C934244
:1021200003D2E05CCD5C401BF8D030BD70B5054CEF
:10213000054D03E0206820448047241DAC42F9D1BE
:1021400070BD0000482F22004C2F220030B40446FE
:1021500096230800214604D0B62330BC002200F0AC
:10216000B0BA20460021F8E70EB5C10F80EAE07052
:102170000844CA07002140F233438DE80E000A46A6
:102180000B4600F0DBFA03B000BD0EB540F2334160
:1021900002910021CDE900110A460B4600F0CEFA6B
:1021A00003B000BD0EB540F2334202920022CDE9E9
:1021B0000022134600F0C2FA03B000BD20F0004038
:1021C000C20DC0F3160040F400007F2A02DA00209E
:1021D000014670470021962A03DCC2F19602D040E6
:1021E0007047963A00F033BAFEE710B508F06EFB80
:1021F00010BDFEE702F7F7BBFEE7EFF31180704773
:1022000058585247010000002556000000202000C9
:10221000002020007EEE9247010100000000000037
:1022200000000000000000000000000000000000AE
:10223000000000000000000000000000000000009E
:102240002DE9FE4F804681EA0300C00F0C46009046
:1022500021F0004123F00045B8EB0200A94105D26E
:102260004046214690461C460B46024623F000405D
:10227000104347D0270DC7F30A00C3F30A51029059
:10228000401A019040286BDAC3F3130040F4801B1E
:102290000098924620B10023D2EB030A63EB0B0BAC
:1022A00001985946C0F14002504600F0D0F9064668
:1022B0000D4650465946019A00F0E8F910EB080027
:1022C0006141002487EA115284EAE7731A4340D03F
:1022D000009A62B3019A012A4FEA075215DC001BEB
:1022E00061EB02014FF0004202EA0752CDE90042E1
:1022F000001C41F5801132462B4600F01FFA03B056
:10230000BDE8F08F40462146F9E7001B61EB020172
:10231000001C41F5801300185B412018A2F500173E
:1023200047EB030140EAD570B6196D4111E06D0825
:102330004FEA360645EAC0754FEA0752001B61EBCB
:102340000201001C41F5801149084FEA30000019D4
:10235000514132462B4603B0BDE8F04F00F0DFB9E3
:102360000098012240000023D0EB020263EBE073EF
:10237000009821464FEAE074B8EB000061EB0401DD
:10238000E9E783F000435BE781F0004158E72DE97E
:10239000FE4F81EA030404F0004421F00041009460
:1023A0004FF0000B23F0004350EA01045ED052EAE4
:1023B00003045BD0C3F30A54C1F30A552C44A4F2BE
:1023C000F3340194A0FB0254C1F3130141F48011D2
:1023D000C3F3130343F4801301FB024400FB034ED9
:1023E000840A970A44EA815447EA8357A4FB0768A2
:1023F00002958D0A05FB07854FEA932C04FB0C54CC
:102400002705029D4FEA065847EA1637B5EB08053F
:102410006EEB070C870E920E47EA811742EA831291
:10242000A7FB0201B6EB0B0164EB00042B0D43EAA2
:102430000C335E1844EB1C50DA465146E7FB0201B0
:10244000C5F313044FEA0B3343EA14534FEA043243
:10245000019C43EA0603A4F10C040294009CCDE91C
:1024600000B400F06BF903B0BDE8F08F0020014626
:10247000F9E72DE9F04D81EA030404F0004B21F067
:10248000004514464FF0000A23F0004150EA0502CF
:1024900020D054EA01021DD0C5F30A570246C5F305
:1024A0001303C1F31300C1F30A5640F4801543F43B
:1024B0008013A7EB0608101BD64608F2FD3873EB15
:1024C000050002D308F1010801E092185B41B8F160
:1024D000000F03DA00200146BDE8F08D00204FF424
:1024E0008011064684460EE0171B73EB050705D3E3
:1024F000121B63EB050306434CEA010C49084FEA43
:10250000300092185B4150EA0107EDD152EA030016
:1025100012D082EA040083EA0501084305D0101BAB
:10252000AB4106D20122002306E000224FF0004317
:1025300002E06FF0010253101AEB06004CEB085159
:1025400010EB0A0041EB0B01BDE8F04D00F0E7B8DD
:1025500070B5C1F30A5201F000450024C1F3130124
:1025600040F2FF3341F480119A4201DA002070BD3D
:1025700040F233439A42A2F2334203DC524200F06B
:1025800075F800E090402C43F1D0404270BDC1F39B
:102590000A5210B5C1F3130140F2FF3341F4801128
:1025A0009A4201DA002010BD40F233439A42A2F26F
:1025B000334203DC524200F059F810BD904010BD88
:1025C00030B50B46014600202022012409E021FA03
:1025D00002F59D4205D303FA02F5491B04FA02F500
:1025E0002844151EA2F10102F1DC30BD2DE9F05F97
:1025F0000546002092469B46884606468146402472
:102600001BE0284641464746224600F02FF8534635
:102610005A46C01A914110D311461846224600F07E
:1026200016F82D1A67EB01084F46224601200021BB
:1026300000F00DF817EB00094E41201EA4F1010433
:10264000DFDC484631462A464346BDE8F09F202A53
:1026500004DB203A00FA02F1002070479140C2F1F9
:10266000200320FA03F3194390407047202A04DB2B
:10267000203A21FA02F00021704721FA02F3D040FB
:10268000C2F120029140084319467047202A06DB18
:10269000CB17203A41FA02F043EAE07306E041FA30
:1026A00002F3D040C2F1200291400843194670471E
:1026B0000029A8BF7047401C490008BF20F0010056
:1026C000704710B4B0FA80FC00FA0CF050EA010434
:1026D00004BF10BC704749B1CCF1200421FA04F4C6
:1026E00011FA0CF118BF012121430843A3EB0C019F
:1026F000CB1D4FEA00614FEA102042BF002010BC02
:10270000704700EBC35010440029A4BF10BC7047B1
:10271000401C490008BF20F0010010BC704710B5F4
:10272000141E73F1000408DA401C41F100019218F4
:102730005B411A4301D120F0010010BD2DE9F04D9D
:1027400092469B4611B1B1FA81F202E0B0FA80F2F2
:1027500020329046FFF77BFF04460F4640EA0A000E
:1027600041EA0B0153465A46084313D0114653EA37
:10277000010019D0C8F140025046FFF777FF054627
:102780000E46504659464246FFF761FF084305D0C2
:10279000012004E020463946BDE8F08D00200543C5
:1027A00046EAE0762C4337430A986305E40AA0EB37
:1027B00008000022FD0A44EA47540A3002D50020EE
:1027C0000146E9E7010510196941DDE908450019ED
:1027D0006941BDE8F04DA2E72DE9F041054621F041
:1027E00000400C46284309D0C4F30A5040F233415C
:1027F000884205DD28462146BDE8F0812846FBE7F2
:1028000040F2FE31884210DC0CDB4FEA043040EA33
:10281000155050EA053105D0104804F0004101433D
:102820000020E9E700200146E6E7A0F233404642F7
:10283000C6F1400228462146FFF709FF07468846B1
:10284000284621463246FFF711FF43463A46FFF736
:1028500066FF3246BDE8F041FFF7F9BE0000F03FE9
:10286000C1F30A52C1F3130140F2FF3341F4801166
:102870009A4202DA00200146704740F233439A42FE
:10288000A2F2334202DC5242FFF7F0BEFFF7DFBE96
:1028900030B5041E71F1000404DB4FF000444042E7
:1028A00064EB0101141E73F1000405DB1C464FF0BC
:1028B0000043524263EB04038B4208BF824230BDA7
:1028C00030B5041E71F1000404DB4FF000444042B7
:1028D00064EB0101141E73F1000405DB1C464FF08C
:1028E0000043524263EB0403994208BF904230BD5B
:1028F000064C074D06E0E06840F0010394E807004D
:1029000098471034AC42F6D3FFF79EFB082F220005
:10291000482F220070B58C1810F8015B15F00703E2
:1029200001D110F8013B2A1106D110F8012B03E068
:1029300010F8016B01F8016B5B1EF9D12B0705D470
:102940000023521E0DD401F8013BFAE710F8013BB9
:10295000CB1A921C03E013F8015B01F8015B521ED5
:10296000F9D5A142D8D3002070BD70B5002308244A
:10297000002550F8242051F82460921945EB0506F3
:10298000D21846EB050303F001032B4301D00123CA
:1029900000E0002340F82420641E002CE9DA002126
:1029A00050F8212012B9491C0929F9DBC1F10901AC
:1029B000416270BDF0B500240825002650F825308E
:1029C00051F82570DB1946EB06071B1947EB060487
:1029D00004F00104344301D0012400E0002442F853
:1029E00025306D1E002DE9DA002052F8201011B9B3
:1029F000401C0928F9DBC0F1090151629662F0BD63
:102A000070B514462246FFF7D5FFA06A20B12046D4
:102A1000BDE8704000F026B8114D606A696A002672
:102A20000123884212D801D233460FE0C0F10901D8
:102A30000AE055F8212054F82100824201D933469A
:102A400004E003D301F101010929F2D3002B05D0E1
:102A50002046BDE87040024900F040BE70BD000055
:102A60004019220010B58CB0044601AA214607483F
:102A700000F06AFD01A924222046FFF711FB0A9805
:102A800060620020A0620CB010BD0000401922005E
:102A90002DE9F0418CB00746474CB86A4FF000086A
:102AA000002809D03A462346506A5D6A0121A842AF
:102AB00031D81FD241462EE04FF000004FF00802FF
:102AC000414657F8223054F8225088465B1941EBB2
:102AD00001061D184E4106F00100414658EA00006B
:102AE00001D0012000E0002047F82250521E002AA9
:102AF000E7DA3FE0C0F109000AE053F8205052F84D
:102B00002060B54201D9414605E004D300F101003F
:102B10000928F2D34146F1B100200822454654F875
:102B2000223057F822101E1845EB050C8E1B75EB52
:102B30000C0607D21844081A001C47F822004FF070
:102B4000010004E01844091A47F822100020521E20
:102B5000002AE4DA0EE001AA3946174800F0F4FC36
:102B600001A93C4624222046FFF79AFA0A9860629F
:102B7000C7F828800021002057F8202012EB080316
:102B800048EB010461084FEA330147F8201023F0B5
:102B90000101591A00F101000928EDD3002057F86E
:102BA000201011B9401C0928F9DBC0F10900786236
:102BB0000CB0BDE8F0810000401922001CB50324D0
:102BC00000BF27480068012121EA900078B900BFC2
:102BD00023480C30006800F0010040B100BF2048DD
:102BE0008C38006800F007002040A04200D01CBDD7
:102BF0000020009001F05EFA00901A480068401C26
:102C00001849086064200AF6D7FB01A800F008FE06
:102C1000022000F00DFE32200AF6CEFB00BF124863
:102C2000006840F002001049086000BF0F49488961
:102C30000AF6C2FB00BF0C48006820F002000A49F7
:102C4000086000BF094988890AF6B6FB9DF80400B0
:102C500000F0EEFD009801F056FF00BFC7E700004E
:102C6000D4A400405C5E002004A900401E5D00204A
:102C70002DE9F04FADF5377D82460D4614460AF139
:102C80002C0B0AF15800B6902F9005F12C00B5904E
:102C90002E902C30B4902D9024212046FFF727FA57
:102CA0004FF00008C4F82480C4F8288004F12C06F2
:102CB00024213046FFF71BFAC6F82480C6F8288086
:102CC00004F1580724213846FFF711FAC7F8248089
:102CD000C7F82880A9A82421FFF709FACDF8C882EF
:102CE000CDF8CC829EA82421FFF701FACDF89C8272
:102CF000CDF8A08293A82421FFF7F9F9CDF87082CE
:102D0000CDF8748288A82421FFF7F1F9CDF8448228
:102D1000CDF848827DA82421FFF7E9F9CDF8188283
:102D2000CDF81C8272A82421FFF7E1F9CDF8EC81DF
:102D3000CDF8F08167A82421FFF7D9F9CDF8C0813B
:102D4000CDF8C4815CA82421FFF7D1F9CDF8948196
:102D5000CDF8988151A82421FFF7C9F9CDF86881F1
:102D6000CDF86C8146A82421FFF7C1F9CDF83C814C
:102D7000CDF840813BA82421FFF7B9F9CDF81081A7
:102D8000CDF8148130A82421FFF7B1F9CDF8E48003
:102D9000CDF8E8805046E34918F006F9DFF884934F
:102DA00009F12C0809F1580948B94146584618F06C
:102DB000FBF820B94946B69818F0F6F840B1002063
:102DC000002859D02846D74918F0EEF810B10BE08A
:102DD0000120F5E74146B59818F0E6F820B94946D4
:102DE000B49818F0E1F830B3002030B3CD4D242270
:102DF00029462046FFF754F9686A6062A86AA06213
:102E0000242241463046FFF74BF9D8F8240070627F
:102E1000D8F82800B062242249463846FFF740F926
:102E2000D9F824007862D9F82800B86200200DF59E
:102E3000377DBDE8F08F0120D7E7242229462046C0
:102E4000FFF72EF9686A6062A86AA062B59C242226
:102E500021463046FFF724F9606A7062A06AB062CA
:102E6000B49C242221463846FFF71AF9606A78623A
:102E7000A06AB8620020DAE72846AA4918F094F858
:102E800048B94146B59818F08FF820B94946B4982A
:102E900018F08AF818B3002018B3242251462046AF
:102EA000FFF7FEF8DAF824006062DAF82800A06282
:102EB000242259463046FFF7F3F8DBF8240070620D
:102EC000DBF82800B062B69C242221463846FFF782
:102ED000E7F8606A7862A06AB8620020A7E701207C
:102EE000DAE75146284618F05FF860BB5946B598B6
:102EF00018F05AF808B38B4D242229462046FFF7D4
:102F0000CFF8686A6062A86AA0622422414630460F
:102F1000FFF7C6F8D8F824007062D8F82800B0622D
:102F2000242249463846FFF7BBF8D9F824007862D6
:102F3000D9F82800B862002079E7286D012802D866
:102F4000E86C00287DD0DDE92E01A9AA00F018FA6E
:102F50009EAA58462D9900F013FA93AA28462F9955
:102F600000F00EFA88AA50462D9900F009FA88A9B7
:102F700093A818F019F800287ED07DAA9EA9A9A8C8
:102F800000F010FB72AA88A993A800F00BFB5CAAC2
:102F90002D992F9800F0F4F922A82421FFF7A7F823
:102FA00000252B952C9517A82421FFF7A0F8209534
:102FB00021950CA82421FFF79AF81595169501A8DC
:102FC0002421FFF794F80A950B9551AA72A972A8CB
:102FD00000F0D6F946AA72A951A800F0D1F93BAA8F
:102FE0007DA97DA800F0CCF930AA88A951A800F0ED
:102FF000C7F901AA022130A800F0A2F917AA5CA91A
:103000003BA800F0BDF90CAA46A917A800F0CAFA1F
:1030100067AA01A90CA800F0C5FA224667A972A800
:1030200000F0AEF922A82421FFF761F82B952C952A
:1030300017A82421FFF75BF8209521950CA82421DF
:1030400000E020E0FFF753F81595169522AA67A92E
:1030500030A800F0A7FA17AA22A97DA800F090F9DD
:103060000CAA9EA946A800F08BF932460CA917A815
:1030700000F098FA3A4600E027E05CA946A800F084
:103080007FF90120D3E6274D242229462046FFF769
:1030900007F8686A6062A86AA06224224146304646
:1030A000FEF7FEFFD8F824007062D8F82800B0625E
:1030B000242249463846FEF7F3FFD9F82400786207
:1030C000D9F82800B8620020B1E69EA9A9A817F097
:1030D0006BFF08B3134D242229462046FEF7E0FF7C
:1030E000686A6062A86AA062242241463046FEF700
:1030F000D7FFD8F824007062D8F82800B0622422E4
:1031000049463846FEF7CCFFD9F824007862D9F852
:103110002800B86200208AE62146504600F004F8F4
:10312000002084E6BC1922002DE9F04FF9B00C46CE
:10313000824600F12C0500F1580B594F696A07F1DE
:103140002C06583704F12C0804F15809012901D83C
:10315000296A79B1524917F027FF48B93146284604
:1031600017F022FF20B93946584617F01DFF28B343
:10317000002028B34A4D242229462046FEF790FF1E
:10318000686A6062A86AA062242231464046FEF75F
:1031900087FF706AC8F82400B06AC8F828002422A3
:1031A00039464846FEF77CFF786AC9F82400B86AB9
:1031B000C9F82800002079B0BDE8F08F0120D8E7D9
:1031C00037AA59465046FFF71BFC2CAA59465046D1
:1031D00000F0E8F921AA2CA937A800F0D1F86EAACE
:1031E000032121A800F0ACF863AA5946284600F054
:1031F000C7F837AA63A9284600F0C2F858AA37A929
:10320000504600F0BDF837AA6EA96EA800F0B8F8D5
:103210002CAA082158A800F093F84DAA2CA937A889
:1032200000F0C0F937AA63A94DA800F0A9F822461A
:10323000022137A800F084F837AA2946284600F072
:103240009FF842AA63A963A800F09AF82CAA42A9A1
:1032500037A800F095F821AA08212CA800F070F8F2
:1032600016AA042158A800F06BF80BAA4DA916A8BD
:1032700000F098F96A460BA96EA800F081F8424662
:1032800021A9684600F08EF937AA63A942A800F088
:1032900077F84A46082137A800F052F800208AE75C
:1032A000BC1922002DE9F0478CB0054688469146AE
:1032B000DFF854A0154E10279AF81730FF2B06D0D0
:1032C000706ED90007FA01F4A0432043706601A98B
:1032D00005F1580003F046F89AF81730FF2B04D098
:1032E000706ED9008F40B8437066424601A92846E7
:1032F00000F046F84A4601A905F12C0000F040F81C
:103300000CB0BDE8F0870000080E002000000E4061
:103310000748006800F0100008B1064870470648EA
:103320000068C0F30240054951F82000F6E70000AC
:1033300084E30040006CDC0200A000404018220042
:10334000F0B40646104600230825002256F82570E2
:103350001446E7FB013440F8253023466D1E002D4E
:10336000F4DA002150F8212012B9491C0929F9DBAF
:10337000C1F109024262B16A8162F0BC1BF070BD0A
:103380002DE9F04F9FB005460E4693460BAC482101
:103390000BA8FEF7ACFE4FF00009CDF87490CDF805
:1033A0007890082300210822D7187F1C55F8238025
:1033B00054F8270056F822A0401849EB090CE8FB06
:1033C0000A0C614644F82700521E002AECDA5B1E04
:1033D000002BE7DA0BA9002051F8202012B9401C7D
:1033E0001228F9DBC0F112008864A86AB16A884229
:1033F00001D0012000E000201E9000240BAD00E071
:10340000641C55F8240008B9092CF9D31E980A90B9
:1034100034490BAA1D988E6C0123B04201D99946FC
:1034200019E018D3C0F1120012E051F8206052F8F0
:103430002070BE420BD051F8201052F8200081427B
:1034400002D24FF0010906E04FF0000903E0401CF2
:103450001228EADB9946B9F1000F01D104E0641C9F
:1034600055F824000028FAD005EB84012422684690
:10347000FEF716FE6946002051F8202012B9401CC4
:103480000928F9DBC0F10900486216E068461BF024
:10349000E7FC68462022011DFEF702FE55F82600D3
:1034A0000890641C6946002051F8202012B9401C85
:1034B0000928F9DBC0F10900486204F10900064659
:1034C0001228E3D368461BF0CBFC69465C462422F5
:1034D0002046FEF7E5FD099860620A98A0621FB0D9
:1034E000BDE8F08F6C19220010B54342421E0A60FD
:1034F0004B6088600020C86008614A61441E8C618E
:10350000CC610B628862002A02D00920486210BD9B
:103510000820486210BD0000052800DB70470949FB
:10352000096801F4E021B1EB004F08D0054A1268A8
:1035300022F4E02141EA0042024B1A6000BF00BFC2
:10354000ECE7000000A000402DE9F0410024082332
:10355000002751F8236050F8235016EB040C47EB7A
:103560000708B5EB0C0C77EB080C07D234442C1B86
:10357000241C42F823404FF0010404E034442D1B86
:1035800042F8235000245B1E002BE2DA002052F8A0
:10359000201011B9401C0928F9DBC0F10900506264
:1035A000BDE8F0812DE9F04103460E461446996AC4
:1035B00000270125B06A002906D088B3706A596ACD
:1035C00088423CD9284650E030B122463146184660
:1035D000FFF7F0F9A76256E0586A716A884201D98C
:1035E000284615E001D2384612E0C0F109000CE08F
:1035F00056F8202053F820108A4201D9384607E0B7
:1036000001D2284604E000F101000928F0D3284641
:1036100038B1224631461846FFF796FFA76232E0DE
:1036200006E0224619463046FFF78EFFA5622AE0E3
:10363000224631461846FFF7BDF9A56223E001D2C4
:10364000384612E0C0F109000CE053F8202056F88B
:1036500020108A4201D9384607E001D2284604E00A
:1036600000F101000928F0D3284630B1224619465E
:103670003046FFF769FFA76205E02246314618464B
:10368000FFF762FFA562A06A20B12046BDE8F041C5
:10369000FFF7E8B91049606A4A6A904212D801D22D
:1036A0003D460FE0C0F109000AE051F8203054F81F
:1036B0002020934201D93D4604E003D300F10100EC
:1036C0000928F2D3002D05D02046BDE8F04102497B
:1036D00000F004B8BDE8F08140192200F0B50023E5
:1036E0000822002651F8225050F82240EF1846EBED
:1036F000060CE71B76EB0C0707D22B44E31A1B1CC6
:1037000040F822304FF0010304E02B44E41A40F863
:1037100022400023521E002AE4DA002150F8212022
:1037200012B9491C0929F9DBC1F109014162F0BD57
:1037300070B58CB004460B46A16A01260025986A34
:10374000002907D0E8B3586A616A884251D840D24C
:103750002E464EE030B10CB02046BDE87040194610
:10376000FFF703B9606A596A884201D9354611E00A
:1037700010D3C0F109000AE053F8202054F82010BB
:103780008A4207D801D2354604E000F10100092839
:10379000F2D3354635B10CB02046BDE8704019462D
:1037A000FFF79CBF01AA21461846FFF7CDFE01A9ED
:1037B00024222046FEF774FC0A986062A6620CB0D0
:1037C00070BDFFE70CB02046BDE870401946FFF71A
:1037D000CCB8C0F109000AE054F8202053F82010BA
:1037E0008A4201D92E4604E003D300F101000928E2
:1037F000F2D36EB101AA21461846FFF7A5FE01A932
:1038000024222046FEF74CFC0A986062A562D6E7A7
:103810000CB02046BDE870401946FFF75FBF0000BE
:103820000249096801F007010170704700A00040DB
:1038300010B500220021072800DB10BD144B1B68C7
:1038400003F0070383421BD0114B1B6823F00702D0
:1038500042F003030E4C23602346DB6823F007018C
:1038600041F00103E36000BF00BF00BF00BF42EAB8
:103870000003074C2360074B53F820300B43E360F1
:10388000054B53F82030054C236000BFD5E70000FE
:1038900000A00040241822000818220048590020E7
:1038A0000448006800F00700034951F8200003496C
:1038B0000860704700A00040081822004859002006
:1038C0000248016841F470010160704788ED00E032
:1038D00002480068001D11F071B90000B06D0020B1
:1038E00002484068001D11F069B90000B06D002069
:1038F00002488068001D11F061B90000B06D002021
:103900000248C068001D11F059B90000B06D0020D8
:103910000FB4054B10B503A9044A029800F05CFDF2
:1039200010BC5DF814FB0000FDC4200068590020A5
:103930000FB41CB50246002007AC00290BD0491E6D
:10394000CDE90021054B6A462146069800F044FD6A
:10395000009A002111701CBC5DF814FB134B200071
:103960000FB4084B10B504A902AA039800F034FD67
:10397000044602A9002001F0D7F8204610BC5DF8EB
:1039800014FB0000294B20007CB5044600201D4696
:10399000164600290BD0491ECDE90041044B6A466A
:1039A0002946304600F018FD009A002111707CBDB8
:1039B000134B2000002809DB00F01F020121914079
:1039C0004009800000F1E020C0F88012704700003C
:1039D000002807DB00F01F0201219140024A430941
:1039E00042F823107047000080E200E0002807DB67
:1039F00000F01F0201219140024A430942F82310BE
:103A00007047000080E200E000280DDB00BF00BF2F
:103A100000F01F02012191404209920002F1E022D0
:103A2000C2F8001100BF00BF704700280DDB00BFC7
:103A300000BF00F01F02012191404209920002F1F3
:103A4000E022C2F8001100BF00BF7047002804DB6D
:103A500000F1E02090F80004704700F00F0000F142
:103A6000E02090F8140D7047002804DB00F1E020FE
:103A700090F80004704700F00F0000F1E02090F88B
:103A8000140D70470146002902DB0448405C704772
:103A9000034801F00F02121F805CF8E700E400E029
:103AA00018ED00E00146002902DB0448405C704745
:103AB000034801F00F02121F805CF8E700E400E009
:103AC00018ED00E00146002902DB0448405C704725
:103AD000034801F00F02121F805CF8E700E400E0E9
:103AE00018ED00E00146002902DB0448405C704705
:103AF000034801F00F02121F805CF8E700E400E0C9
:103B000018ED00E00146002902DB0448405C7047E4
:103B1000034801F00F02121F805CF8E700E400E0A8
:103B200018ED00E00146002902DB0448405C7047C4
:103B3000034801F00F02121F805CF8E700E400E088
:103B400018ED00E00146002902DB0448405C7047A4
:103B5000034801F00F02121F805CF8E700E400E068
:103B600018ED00E002480068C0F302207047000032
:103B70000CED00E002480068C0F30220704700002E
:103B80000CED00E002480068C0F30220704700001E
:103B90000CED00E002480068C0F30220704700000E
:103BA0000CED00E002480068C0F3022070470000FE
:103BB0000CED00E002480068C0F3022070470000EE
:103BC0000CED00E002480068C0F3022070470000DE
:103BD0000CED00E002480068C0F3022070470000CE
:103BE0000CED00E0002807DB00F01F0201219140EE
:103BF000024A430942F823107047000000E200E047
:103C0000EFF311807047EFF311807047EFF31180ED
:103C10007047EFF311807047EFF311807047EFF3B7
:103C200010807047EFF310807047EFF310807047FB
:103C300010B52DED020B2DED088B84B09DED0C0B16
:103C400051EC100BFEF7C8FD41EC180B9DED0C0B71
:103C500053EC182B51EC100BFEF793FB41EC190BB6
:103C60000D989FED290B10F0004F53EC102B51ECE9
:103C7000190B9FED21AB9FED22BB0ED0FEF708FE86
:103C80000ED953EC1B2B51EC190BFEF719FE1CD26D
:103C900014E000BF41EC180B17E0FEF7F9FD06D267
:103CA00053EC1A2B51EC180BFEF76BFBF2E753ECBD
:103CB0001B2B51EC190BFEF703FE06D853EC1A2B05
:103CC00051EC180BFEF7BCFAE4E78DED028B9DED8D
:103CD0000C0B18EE901A10EE900A8DED000B61F3AC
:103CE0001E0003909DED020B04B0BDEC088B02B0EA
:103CF00010BD000000000000000000000000F03FC8
:103D0000000000000000E03F000000000000E0BFF5
:103D100002E008C8121F08C1002AFAD17047704794
:103D2000002001E001C1121F002AFBD17047C1B27F
:103D300081F311887047C1B281F311887047C1B215
:103D400081F311887047C1B281F311887047C1B205
:103D500081F311887047C1B281F311887047C1B2F5
:103D600081F311887047C1B281F31188704780F3E5
:103D70001088704780F31088704780F31088704770
:103D800080F31088704780F3108870472DE9F74F53
:103D90000446904600BF4FEA5806019D4FF0000BC5
:103DA0007448754908603F207449496860F305010B
:103DB000724A516000BF00BF1046406820F4803056
:103DC0001146486000BF00BF6B48006820F47000D7
:103DD00040EA04506849086000BF00BF0846006818
:103DE00020F4702040EA0440086000BF0D2C07D189
:103DF00000BF0846006840F40040086000BF00BFF4
:103E00000E2C08D100BF5C48006840F480405A493D
:103E1000086000BF00BF4FF400505749096821F403
:103E200000510143544A116000BF00201146096847
:103E300021F060510143116000BF04201146096860
:103E400021F00F010143116000BF002000F006F9CE
:103E5000012801D0BDE8FE8F00BF4748006840F050
:103E600080404549086000BF4FF0000A0DE000BFE8
:103E70004248806840F480304049886000BF0AF1C1
:103E800001008246401C00B903E014F06DFB0028DD
:103E9000EDD100BF072000F0E1F8012800D0D9E7FC
:103EA00054E04FF0000B2CE0BBF57A7F24D900BF23
:103EB0003148006820F080402F49086000BF00BFF3
:103EC0000846006840F00040086000BF00BF084698
:103ED000006820F00040086000BF002000F0BEF83D
:103EE000012800D0B6E726480068401C2449086035
:103EF000052009F661FA4EE7012009F65DFA0BF19B
:103F0000010B14F031FB0128CED100BF1B488068A3
:103F100000F07F008146B14501D9304600E04846B7
:103F200081464FF0000A0DE000BF1448076800BF4B
:103F300025F8027B4FF6FF7000EA174025F8020BC8
:103F40000AF1010ACA45EFD3A6EB0906002EA8D153
:103F50005EB908F0010040B100BF14F005FB012874
:103F6000FBD100BF054800682880002000F076F8EB
:103F700000BF6FE70A07080700A8004000E0004004
:103F8000685E002010B5044600BF00201A49086092
:103F900000BF00BF18498039086000BF00BF174844
:103FA000406A174908600846007800F0010020B117
:103FB0000846008800F4807098B906E00CB900202B
:103FC00010BD641E012009F6F7F900BF0B48806997
:103FD00040F20111884201D1012000E000200028B8
:103FE000ECD0084800680849086004484068074960
:103FF00008600120E4E7000094D41D4200E0004086
:10400000C45E002000A80040BC5E0020C05E00200E
:104010000D4800680D4948600D4800680D4908606A
:104020000D48007800F0010020B10B48008800F432
:10403000807040B900BF0548006A20F001000349C4
:10404000086200BF00BF7047C05E002000E0004073
:10405000BC5E002000A80040C45E002070B504468D
:1040600014F07AFAA04201D1012070BD00BF1048BF
:10407000C06820F0070020430D49C86000BF00253C
:1040800008E014F069FAA04200D107E0012009F627
:1040900093F96D1C4FF6FF708542F2D300BF4FF6C7
:1040A000FF70854201D10020DFE70120DDE700003D
:1040B00000E0004010B500BFEFF31080044601207F
:1040C000FFF758FE204610BD2DE9FF5F82B00021AA
:1040D000DDE90430020DDDF840B0034318D044F6AA
:1040E0001050A2F2FF3242431514119801281FD03C
:1040F000A5EB0B00401C5FEA000A4FF000064E4F94
:10410000DFF83891B046504615D5CAF1000413E0E7
:10411000119801244AA3012801D16FEA0B010298EA
:10412000119AC0E90031C0E9024206B0BDE8F09F33
:10413000CBF10000DFE704460021404A491842EB7A
:104140000450CDE9001012E0E00707D032463B46AC
:1041500040464946FEF71BF98046894632463B46B3
:1041600010461946FEF713F906460F466410002C58
:10417000EAD1DDE90401DDE90023BAF1000F06DA36
:10418000FEF705F942464B46FEF701F905E0FEF75A
:1041900070F942464B46FEF76CF904460E46002283
:1041A000284BFEF78DFB03D84FF0FF30014607E0A8
:1041B0000022254B20463146FEF742F8FEF750FB21
:1041C000102409E0002C0ADB0A220023FEF70EFA75
:1041D000039B30321A55641E50EA0102F2D1641C6E
:1041E000039AC4F111031444119A012A03D0012245
:1041F00008430DD10AE0084304D000204FF0110B12
:10420000119072E7A3EB0B056D1E0DE05B4504DD1D
:104210004FF0000205F1010504E003DA4FF000025F
:10422000A5F10105002AECD002981199C0E90231EC
:10423000C0E9004579E70000000014400000F03FAD
:10424000300000000000F0430000E03F70B52DEDAD
:10425000108B8AB005460C469FED510B8DED080B77
:1042600020216846FDF743FF9FED4D0BB0EE408ADD
:10427000F0EE608A102269462846FFF787FD002687
:104280000FE006F108013DF81100FDF77EFF41EC5B
:10429000190B53EC182BFDF7D3FF41EC180B701CD6
:1042A000C6B2082EEDDB9FED400B53EC102B51EC0A
:1042B000180BFEF7DEF841EC180B0D2D41D1E08A0A
:1042C000FDF763FF41EC1B0B9FED390B53EC102BFB
:1042D000FEF7CFF841EC190B6088FDF756FF41EC73
:1042E0001F0B9FED350B53EC102BFEF750F841ECF4
:1042F0001E0B9FED330B53EC102BFEF748F841ECEF
:104300001C0BA08AFDF741FF41EC1E0B53EC182B50
:10431000FEF73AF841EC1D0B53EC1C2BFEF7A9F805
:1043200041EC1B0B9FED280B53EC102BFEF7A1F873
:1043300041EC1A0B53EC192BFDF782FFCDE9080174
:1043400027E00E2D25D16088FDF71FFF41EC1C0BE7
:104350009FED190B53EC102BFEF719F841EC1A0BDB
:104360002088FDF712FF41EC1C0B53EC182BFEF7D5
:104370000BF841EC1B0B53EC1A2BFEF77AF841ECCF
:10438000190B9FED130B53EC102BFEF700F8CDE942
:1043900008019DED080B0AB0BDEC108B70BD00004C
:1043A00000000000000000000000000000002040AD
:1043B0000000000000005940000000000000F0BFB5
:1043C000000000000000004079E9263108AC5CBF25
:1043D000B76DDBB66DDB0E402DE9FF4F95B09B4608
:1043E0008946064600250FE2252877D10024274676
:1043F000F84A0121059400E0044316F8013F203BF0
:1044000001FA03F01042F7D130782A2811D06FF06A
:104410002F033078A0F13002092A16D8059A44F00B
:10442000020402EB820203EB42021044761C059068
:10443000EFE759F8042B0592002A03DA504244F4BE
:104440000054059044F00204761C30782E2816D1D2
:1044500016F8010F44F004042A280DD06FF02F0243
:104460003078A0F13003092B09D807EB870302EB62
:104470004303C718761CF3E759F8047B761C3078A1
:104480006C280FD006DC4C2817D068280DD06A287D
:1044900014D104E0742810D07A280FD10DE044F430
:1044A00000140AE044F4801401E044F440147278EB
:1044B000824202D104F58014761C761C307866287E
:1044C0000BD013DC582877D009DC002875D045289C
:1044D000F6D04628F4D047281AD19DE118E0632889
:1044E00035D0642879D0652812D195E1702873D031
:1044F00008DC6728F1D069286FD06E280DD06F28AE
:1045000006D1B5E073282CD0752875D0782874D0E2
:104510005A46179990476D1C75E1C4F30250022862
:1045200009D003280DD0D9F8001004280DD00D6053
:1045300009F1040967E1D9F80010EA17C1E900524E
:10454000F6E7D9F800100D80F2E70D70F0E719F8E2
:10455000041B8DF8001000208DF80100EA460120B0
:1045600003E059F804AB4FF0FF3061074FF0000152
:1045700002D40DE008F101018846B9420FDA804506
:10458000F8DB1AF808100029F4D108E008F101015D
:1045900088468142FADB1AF808100029F6D10598FE
:1045A0005B46A0EB080721463846179A00F094FABC
:1045B000284400EB080507E04DE029E10DE01AF87A
:1045C000010B5A4617999047B8F10108F7D25B469C
:1045D00021463846179A13E142E00A220092C4F3BA
:1045E00002524FF0000A022A08D059F804CB032ADD
:1045F0004FEAEC710AD00DE029E02AE009F1070149
:1046000021F00702F2E802C1914609E00FFA8CFCA2
:104610004FEAEC71042A03D14FFA8CFC4FEAEC719B
:10462000002907DA0A460021DCF1000C61EB0201E7
:104630002D2202E0220504D52B228DF80420012230
:1046400003E0E20701D02022F7E7904659E00A2173
:1046500002E010220DE010214FF0000A00910BE063
:1046600010224FF0000A44F004040827009203E0EF
:1046700008224FF0000A0092C4F30252022A05D029
:1046800059F804CB0021032A08D009E009F10701F9
:1046900021F00702F2E802C1914605E01FFA8CFC06
:1046A000042A01D10CF0FF0C4FF00008220728D596
:1046B000702806D0009B83F0100353EA0A0305D04C
:1046C0000EE040228DF80420012208E05CEA01029D
:1046D00006D030228DF804208DF805000222904685
:1046E000009B83F0080353EA0A030AD15CEA010243
:1046F00001D1620705D530228DF804204FF0010862
:104700007F1E582804D034A003900EA802900DE01C
:1047100036A0F9E753466046009AFDF767FF8446E6
:104720000398825C0298401E029002705CEA0100CD
:10473000F0D1029806A9081A00F1200A600702D5F4
:1047400024F4803400E00127574502DDA7EB0A007E
:1047500000E0002000EB0A01009005984144401A57
:104760000590E00306D45B462146179A059800F0B1
:10477000B3F90544002706E001A85A46C05D179921
:1047800090476D1C7F1C4745F6DBE0030CD55B466C
:104790002146179A059800F09FF9054404E030205F
:1047A0005A46179990476D1C0099481E00900029A1
:1047B000F5DC08E0029802995A460078491C0291FB
:1047C000179990476D1CBAF10001AAF1010AF1DCBA
:1047D00065E10000092801003031323334353637C5
:1047E000383961626364656600000000303132333D
:1047F00034353637383941424344454600000000DD
:1048000000F058F90544761C307800287FF4ECADB0
:1048100019B02846BDE8F08F620700D4062709F1D9
:10482000070222F0070CFCE80223E14603F00048EF
:104830005FEA080C02D00FF2702C0DE05FEA045C16
:1048400002D50FF2682C07E05FEAC47C02D00FF2B9
:10485000602C01E0AFF2700C4FF0FF3823F0004302
:10486000CDF850C065280CD006DC452809D0462874
:104870001DD047283DD13DE0662818D067287ED15D
:1048800038E00021112F01DB112000E0781CCDE978
:10489000000106A90EA8FFF717FCDDE90F010E9A2B
:1048A00003910021009207F1010A04914DE04FF0BD
:1048B00000400097CDE9011006A90EA8FFF704FCFF
:1048C000DDE90F0203920E9B11990022DDF80CA086
:1048D0000093049211B9791C00EB010AB7EB0A00AE
:1048E00004D4C0F1FF3007F1010A0490AAEB0700DD
:1048F000019044E0012F00DA01270021112F01DD92
:10490000112000E03846CDE9000106A90EA8FFF706
:10491000DBFBDDE90F010E9A039100210491009267
:10492000BA4621070CD40399514500DA8A46BAF1F8
:10493000010F05DD009AAAF10101515C302908D070
:10494000B84202DA10F1040F06DA0121CDE90110B4
:1049500015E0AAF10101E9E7002805DC049901440A
:104960000491AAEB000102E0411C514500DD8A469A
:104970000499401A401C01904FF00040029020071B
:1049800004D40198504501DBCDF8048000208DF857
:104990004F0002980DF14F07B0F1004F25D02B20AA
:1049A0000E9002984FF0020800280CDA4042029064
:1049B0002D200E9007E00A210298FDF701FE30310C
:1049C000029007F8011DB8F10001A8F10108F2DC1E
:1049D00002980028EFD1791E0E980870307800F008
:1049E000200040F0450007F8020D12A8C01B00F19E
:1049F00007081498007800B1012000EB0A01019823
:104A000001EBE07105984144401A401E0590E00317
:104A100006D45B462146179A059800F05DF80544D8
:104A20001498007818B15A46179990476D1CE00306
:104A300024D55B462146179A059800F04DF80544A9
:104A40001CE00498002807DBDDE90301884203DD50
:104A50000098405C179901E0179930205A4690471A
:104A6000049805F10105401C04900198401E019036
:104A700004D12E205A46179990476D1CBAF10001B7
:104A8000AAF1010ADDDC05E017F8010B5A46179977
:104A900090476D1CB8F10001A8F10108F4DC5B46F9
:104AA0002146179A0598ABE62D0000002B00000068
:104AB000200000002DE9F041044600251E4617465F
:104AC000880404D405E039462020B0476D1C641EDC
:104AD000F9D52846BDE8F0812DE9F04104460025CE
:104AE0001E469046C80301D5302700E020278804E1
:104AF00004D505E041463846B0476D1C641EF9D523
:104B00002846BDE8F08110B504462046FFF732F98B
:104B100010BD4A68002A06D00A68531C0B6010704A
:104B20004868401E486070470A68531C0B6010704C
:104B3000704710B50446204611F062F810BD10B55C
:104B40000446204617F0DEF810BD70B504460D4649
:104B5000294620461BF02CFC2946204616F056F923
:104B600070BD00000848006840F001000649086078
:104B700006480749086007484860074888600749B1
:104B80000748416770470000046000203DCF2000C7
:104B90004CB7002095CE20000DC520002DF520003B
:104BA000E85A00202DE9F04116461D46DDE90623AE
:104BB000074688460D497C2000F652FC044684F8DE
:104BC00038502022414604F13900FDF769FA2022CD
:104BD000394604F15900FDF763FA04F13802314611
:104BE0002046BDE8F041412300F614BFF14B200000
:104BF00000F66EBE2DE9F0471D46DDE9086A0A9B06
:104C000081468846174600221A49A42000F628FC4F
:104C1000044600213D3484F8641044F805ACE17387
:104C2000012020743068C4F81100B088A4F8150081
:104C3000B079E0752868A061A888A083A879A077DA
:104C40003D3C1022394604F15C00FDF729FA1022A0
:104C5000414604F16C00FDF723FA07480068E0675D
:104C60004A462046BDE8F04703492023091D00F6C7
:104C7000D1BE00007D4C2000582422002DE9F047D1
:104C800004468A464FF000085146204600F620FEB2
:104C9000F8B194F8A1004FF0010904F14C0704F1B8
:104CA0003C0530B104F18106012813D002282FD130
:104CB00021E0102251462846FDF7F2F9002084F841
:104CC000800084F8A19035233A462946204600F614
:104CD000A1FE1DE0102251463046FDF7E1F984F8AF
:104CE0008090022084F8A10035233A4629462046C8
:104CF00000F690FE0CE01022514604F19100FDF701
:104D0000CFF9A36B31460020626998474FF0010844
:104D10004046BDE8F08700002DE9F05F1546DDE96B
:104D20000B9A1E46DDF82880DDE90D2383460F46E9
:104D30001D497C2000F694FB04461022394604F1FC
:104D40006900FDF7ADF91022294604F15900FDF77D
:104D5000A7F91022314604F14900FDF7A1F93834D2
:104D6000B8F80000E08198F802002074D9F800003B
:104D7000C4F80700B9F80400A4F80B0099F806007D
:104D80006073DAF800002060BAF80400A0809AF896
:104D90000600A071383C04F1380259462046BDE8AF
:104DA000F05F412300F636BEAD4D200000F690BD09
:104DB0002DE9F04115461E46DDE9062380460F46E3
:104DC0000F49882000F64CFB04462022414604F19E
:104DD0006800FDF765F92022394604F14800FDF727
:104DE0005FF9314604F1380010220646FDF758F904
:104DF000324629462046BDE8F041502300F60ABE5F
:104E0000054E200000F664BD06460F46154672B6F4
:104E10003846FDF777F9402801D9402002E03846AE
:104E2000FDF770F980463046FDF76CF9402801D94E
:104E3000402002E03046FDF765F904469C21104809
:104E4000FDF755F9424639460D48FDF729F90C485A
:104E5000224631465C30FDF723F909484FF0AA316C
:104E6000016445644FF0BB3181644FF0CC31016582
:104E70004FF0DD318165002000F004F8FEE700000E
:104E80004471002030B5ADF20C4D04464FF4806102
:104E900003A8FDF72CF9184D202085F83F0085F870
:104EA0009B003CB12846012C436DC26C09D0022CFA
:104EB0000CD00FE0104A11A15C3203A8FEF750FDA0
:104EC00008E011A103A8FEF74BFD03E016A103A81B
:104ED000FEF746FD03A90BA2686CCDE90121009005
:104EE00018A3054A18A1002000F0B2FC00F07CFCD9
:104EF0000DF20C4D30BD0000447100205B45525254
:104F00004F525D20257300005B5741524E494E477A
:104F10005D20506172616D303A25642C5061726180
:104F20006D313A25640000005B504152414D5D20D7
:104F3000506172616D303A25642C506172616D313F
:104F40003A256400000000006170705F6173736552
:104F500072742E630000000001481AF069B8000066
:104F60006C59002006460F4690461D4672B64046D4
:104F7000FDF7C8F8402801D9402002E04046FDF77F
:104F8000C1F804469C210D48FDF7B1F82246414680
:104F90000A48FDF785F809484FF05531016445642A
:104FA0004FF066318164C6644FF077310165476523
:104FB000C94381650220FFF765FFFEE744710020C9
:104FC0002DE9F04106460F4690461D464046FDF746
:104FD00099F8402801D9402002E04046FDF792F8B8
:104FE00004469C210D48FDF782F8224641460B48B5
:104FF000FDF756F809484FF0113101644564490046
:105000008164C6644FF03331016547654FF0443128
:105010008165BDE8F0410120FFF734BF44710020F5
:105020003EB504464FF400711A48FDF760F8207849
:1050300010B1012819D01DE000211748A28830F8CE
:1050400031309A4207D100EBC10014A143681148E6
:10505000FEF786FC0EE02E2902D0491CC9B2EEE70D
:1050600014A10C48FEF77CFC04E01DA1094862680D
:10507000FEF776FC074921A22069CDE901210090C5
:10508000D4E902231EA1002000F0E2FBBDE83E406F
:1050900000F0AABB446F0020481522004572726FD1
:1050A0007220636F6465203078253034583A2025AB
:1050B000730000004572726F7220636F6465203068
:1050C00078253034583A204E6F20666F756E642014
:1050D000696E666F726D6174696F6E2E00000000FC
:1050E00028257329206973206E6F7420657374619D
:1050F000626C69736865642E00000000257300000F
:105100006170705F6572726F722E630070B50446D5
:105110000D460121204602F06FFC70BD2DE9F041E3
:10512000014600291BD000240F4E0E4A357814E0AA
:1051300002EB04100F780378BB420CD14B68406837
:10514000034208D0707808B900F020FB2046BDE883
:10515000F04100F04FBA641CE4B2AC42E8D3BDE8C1
:10516000F0810000EC710020785900207CB50546E4
:105170000E46002D01D0002418E0E5207CBD05EB93
:10518000041041680091017A8DF80410417A8DF87D
:10519000051008218DF80610C268007800236946C2
:1051A00000F038F80028E9D1641CE4B2B442E6D338
:1051B00000207CBD10B502460846052A25D2DFE84E
:1051C00002F0030303111900114951F832200104C0
:1051D000090C05D022B1014610460EF0D5FD10E0B5
:1051E000E42010BD10F0FF0F02D00DF0F3FE08E038
:1051F000E42010BD10F0FF0F05D0014600200EF096
:10520000D5FE002010BDE42010BDE62010BD00003A
:105210003C1422002DE9F05F05460C469046994665
:1052200026680027042D11D031462846FFF7C2FF1B
:105230002146284600F05EF8002808D1032D08D04A
:105240004FF0100A2807070E002448E0E620BDE8CA
:10525000F09F4FF0080AF7E7F0073DD03DB1012D70
:1052600005D0022D03D0032D21D0E620EFE71E4804
:1052700000EBC50090F904B0BBF1000F15D0EFF3BF
:105280001081012080F31088184AE01942F830801C
:1052900002EBC000C0F8049081F31088584614F661
:1052A0008FFF584614F6AAFF16E0E420CFE7EFF38D
:1052B0001081012080F310880D4AE01942F83080F7
:1052C00002EBC000C0F8049081F310881B2014F694
:1052D00077FF1B2014F692FF7608641CE4B2544555
:1052E000BAD30020B3E700003C142200186C002061
:1052F000186D002030B597B005460C461C22454974
:1053000010A8FCF7CDFE1C2242491C3109A8FCF76D
:10531000C7FE20223F49383101A8FCF7C1FED4B1B5
:105320003D49062019F094FD3C49072019F090FDF5
:105330003B491B2019F08CFD3A49122019F088FDD9
:1053400034496C39A1F12C02052D61D2DFE805F05A
:10535000060606213900E52017B030BD207931F866
:1053600010001190607932F810001290A07913901B
:10537000206810902748843850F8350021880904A7
:10538000090C04D018B110A90EF0EFFD39E0E420AB
:10539000E2E7207901EB4000808A0A90607902EB15
:1053A0004000C0880B90A0790C902068099020786C
:1053B00010F0FF0F03D009A80DF0F0FE21E0E4206B
:1053C000CAE72079031F042B01D8E720C4E702288D
:1053D00019D001200290207901EB4000008D03904C
:1053E000607902EB400080890490A07905902068E4
:1053F0000190207810F0FF0F08D001A900200EF0D6
:1054000089FE0020A8E702200290E4E7E420A3E759
:10541000E620A1E7C0142200C1411000BB411000EA
:10542000B7411000B141100002460020052A11D2F8
:10543000DFE802F0030303090C00074850F83200CC
:1054400089B214F61CBE88B20DF016BF89B20020D6
:105450000EF068BE704700003C142200002803D004
:1054600002490860012070470020704780590020E1
:1054700070B505460024091F062917D2DFE801F0A0
:1054800003070C111315284600F0A4F80EE00124C0
:10549000284600F09FF809E00224284600F09AF818
:1054A00004E0032402E0042400E00524034A21462A
:1054B00028461268BDE8704010470000805900205F
:1054C0002DE9F0410446204600F0AEF801462E4892
:1054D00000230826025D00F10A0700F11405AAB1B5
:1054E000052A33D0082A2AD1092945D0082926D1EE
:1054F000295D491CC9B22955142920D32B550655BD
:105500002046BDE8F0410821FFF7B2BF052913D0BE
:10551000042916D0072914D0082910D1295D491C67
:10552000C9B2295514290AD32B5506552046BDE882
:10553000F0410821FFF79CBF3B5505210155BDE80F
:10554000F0812046BDE8F041FFF792BF05290CD05D
:10555000395D491CC9B239553229F0D3035520466B
:10556000BDE8F0410521FFF783BF03552046BDE8A4
:10557000F0410621FFF77CBF03552046BDE8F0410E
:105580000921FFF775BF0000CC72002070B50446FA
:105590000D4600F00FF808B100F00EF90348044A78
:1055A0002946005D5268BDE870401047E071002058
:1055B000785900200020064911F810200AB1002077
:1055C0007047401CC0B20A28F6D301207047000083
:1055D000EA7200200349002201F8102001EB40008C
:1055E00042707047EA720020014A02F810107047BA
:1055F000EA720020024A012102EB4000417070472C
:10560000EA72002070B50024064D05EB4400407896
:1056100010B12046FFF754FF641CE4B20A2CF4D307
:1056200070BD0000EA72002070B500211D4B03F12F
:1056300032051A5C002A09D0002403F10A06012A67
:105640000AD0022A12D0032A24D11FE015F8102014
:1056500002B301221A541DE015F810201AB1345477
:1056600002221A5416E01C54042113E015F81020ED
:105670004AB1325C521CD2B23254642A0AD3072196
:1056800003221A5406E005211C5403E015F81010FB
:1056900011B10821084670BD1C54FFF79BFF09217A
:1056A000F8E70000B8720020704700002DE9F041D3
:1056B0000E4617460A2E02D80FB100231AE000202A
:1056C000BDE8F08103EB430400EB8405114AA97A9D
:1056D000D154104910F824200C3101EB031422702E
:1056E00069686160297A2172697A61720A49E160A8
:1056F0005B1CDBB2B342E5D3064831460C30FFF702
:1057000035FD0648067047600548FFF7A7FE0120F3
:10571000D6E70000E07100201D51200078590020DC
:105720008D5520002DE9F0410024124FDFF848800C
:1057300019E0002607EB041528786968FFF774FE66
:1057400010B9697A012902D0012802D005E00126AA
:1057500003E0687A022800D1012631462046FFF78F
:1057600043FF641CE4B298F800008442E1D3BDE832
:10577000F0810000EC7100207859002010B5FFF78F
:10578000D1FFBDE81040FFF73DBF000010B5074A4C
:105790000121074800F070F900220A21044800F0B6
:1057A0003BFA04490120487010BD00007D572000DD
:1057B000907200207859002010B5034800F08AF953
:1057C00002490020487010BD9072002078590020D6
:1057D000002806D0002904D0024AD269002A00D04D
:1057E00010477047206F00200248006A002800D050
:1057F00000477047206F002070B50D4616460D4CCF
:1058000000280AD00178032911D80121A176014688
:105810001A222046FCF744FC05E00020A0761A215D
:105820000448FCF764FCE5612662002070BD01209D
:1058300070BD0000206F0020044A1044807D0842A3
:1058400001D001207047002070470000206F002029
:105850002DE9FE4FDDF830B0064692469946002409
:105860000027019702975A480178B14202D2807E00
:1058700000287DD10DF13808CDF80080EFF31185B7
:105880000220FEF7F1F8014652480068C0F30220FA
:10589000401C012282408818C0B280F31188012187
:1058A0003046FFF7C9FF38B14B484C4950F8262025
:1058B000204600F0A5F804461C213046FFF7BCFF47
:1058C00000285ED046A24549204600F099F82044C1
:1058D00084B204213046FFF7AFFFF8B152463F498A
:1058E000204600F08DF8204484B208213046FFF7AE
:1058F000A3FF38B13BA23949204600F081F820448B
:1059000084B20BE010213046FFF796FF30B136A28B
:105910003249204600F074F8204484B20821304611
:10592000FFF78AFF90B14A462C49204600F068F8FC
:10593000204484B210213046FFF77EFF30B12BA205
:105940002649204600F05CF8204484B210213046FD
:10595000FFF772FF70B15B4626A2052101A8FDF793
:10596000E7FF01AA1D49204600F04AF8204400E064
:105970002BE084B220A21949204600F041F82044CF
:1059800084B21648C4F58071204443460D9AFDF751
:10599000FBFF00974FF48071002804DB204488420D
:1059A00001DC86B200E00E46B01C884200D9FE261B
:1059B00012A20A49304600F023F8304481B2074869
:1059C000FFF706FFE8B280F31188BDE8FE8F000004
:1059D000206F00200CED00E058590020206E0020C0
:1059E00028000000200000003A000000204C696EF2
:1059F000653A0000256C6400292000000D0A0000B3
:105A000030B50546002000290CD0002A0AD006E057
:105A10002B18FF2B06D8CC54521C401C80B2147893
:105A2000002CF5D130BD000010B5064A06214CF21D
:105A3000010015F0DFFC04F0BAFCBDE810400220C4
:105A40003EF6E0B8B816220010B5084801780029E3
:105A50000AD10121017006483DF6D6FFBDE810408D
:105A6000002104483EF666B910BD00004C590020E4
:105A7000D5411000A9BE21002DE9F04104460D4694
:105A80001746002D04D0012D02D00120BDE8F08181
:105A9000E4B1DFB1607801281AD0EFF3118602205B
:105AA000FDF7D4FF8046FEF75DF8401C01218140E0
:105AB00008EB0100C0B280F3118800206070A5706F
:105AC000E761F0B280F311880020DFE70120DDE715
:105AD0000620DBE710B50446002C0CD0204600F071
:105AE0002DF9FF2060700021A160E16021616161FA
:105AF0000020E06110BD012010BDF0B5DDE90745D3
:105B0000059981614FF47A76A2FB061C03FB06C35C
:105B1000002702FB0732C0E9021209196A41C0E9F5
:105B2000041200210162F0BD2DE9F0410446002C71
:105B300013D0EFF311850220FDF788FF0746FEF72B
:105B400011F8401C012606FA00F03844C0B280F378
:105B500011881248002121620EE00020BDE8F0818A
:105B6000D4E90432D1E9047CDB1B72EB0C0202D2D3
:105B7000016A216203E00846016A0029F0D104624B
:105B80006670064810380168491C0160016B41606D
:105B9000E8B280F311880120E0E70000D06D00201A
:105BA0002DE9F04105460024EFF311860220FDF7B0
:105BB0004DFF0746FDF7D6FF401C012181407818B4
:105BC000C0B280F31188134A106BE8B115B102F12D
:105BD000100010E00446206A10631068401E106038
:105BE0000CE0A94206D11168491E1160296A0162C0
:105BF0002C4603E00846016A0029F2D124B10020B6
:105C000020626070106B5060F0B280F31188204603
:105C1000BDE8F081C06D00202DE9FF5F82460E4691
:105C200093464FF00008BAF1000F20D04148864259
:105C30001DD8E6B1EFF311870220FDF707FF0446F8
:105C4000FDF790FF401C012181406018C0B280F335
:105C50001188504610F0DAF910B19AF8010040B1FD
:105C6000F8B280F311880F2004B0BDE8F09F012046
:105C7000FAE714F0D9FF04460D464FF47A7106FB9B
:105C800001F022462B46002110F05EF8DFF8A890C4
:105C9000B0B1D9F8040048B1D0E90410091B60EB99
:105CA0000500C9E9021015F039F804E00021C9F82F
:105CB0000810C9F80C104FF00108D9E9020106E0FC
:105CC000D9F80400D0E90421101B61EB0501CDE9EE
:105CD000020132460023CDF800B05046FFF70DFF19
:105CE0005046FFF721FF18F0CFFF4FF0E024D4F823
:105CF00000014FF0806510F0806F01D0012000E0BE
:105D0000002020B91A20FDF755FEC4F80051B8F163
:105D1000000F0AD0D9F80400D0E90431D9E9020211
:105D2000181A61EB020114F0B5FFF8B280F3118884
:105D3000002099E7008AB907C06D00202DE9F041E5
:105D400004460025002C39D0EFF311870220FDF71F
:105D50007DFE0646FDF706FF401C012181407018BC
:105D6000C0B280F311886078012824D1144E706885
:105D7000A0420BD114F058FFD4E90432181A62EB98
:105D80000102C6E9020214F0C9FF01252046FFF70F
:105D900007FF5DB1706848B1D0E90421D6E902037C
:105DA000101A61EB030114F075FF04E01DB970686F
:105DB00008B914F0B3FFF8B280F31188BDE8F081A0
:105DC000C06D002070B504461A4D55F8240070309F
:105DD00017F021FA82B21646A2B155F8240090F8C5
:105DE000011101290ED0012180F80411802A0FD35E
:105DF00055F82400802200F18001703017F020FA5D
:105E000080260CE055F82410002081F8000170BDB8
:105E100055F8240000F18001703017F011FA55F8A0
:105E20002400324600F18001001D0EF099FF002889
:105E3000EDD170BDB06D0020704700002DE9F84332
:105E40000446514E56F82400071D042C7ED290F8CB
:105E50006C1000297AD0012978D190F8001101291D
:105E600074D190F80111002970D1012180F801113D
:105E7000002556F82400D0E903120A44017D01F000
:105E80000101C91D02EB01084168CA6FC2F380021B
:105E9000002AFAD090F80411E1B1DFF8F0906D1CFF
:105EA00056F82400001D0EF0D7FD10280BD056F830
:105EB0002400D9F800108068B1FBF0F000FB08F076
:105EC000B5EBC01FEBD956F82400703017F0A3F9DA
:105ED00085B226E0B0F82480C58C001D0EF076FC5B
:105EE00056F8240041F2883300EB0801491B803149
:105EF000001D2A460EF0E2FEE5E756F824000122D6
:105F00007030694617F09CF956F824004068C16F5C
:105F1000C1F340010029FAD09DF8001001606D1E08
:105F2000ADB2002DE9D156F82400703017F073F9A6
:105F30000028C8D1386841694906FCD5EFF31085BF
:105F4000012080F3108856F8240000E01AE0703039
:105F500017F061F958B1EFF31081012080F3108838
:105F60003868426842F08202426081F3108856F835
:105F70002410002081F8000156F8241081F8010156
:105F800085F31088BDE8F883B06D002048590020E3
:105F90002DE9F04105460F46002D06D02AB12C7898
:105FA000042C04D3E820BDE8F081E520FBE7344E63
:105FB00005F1580046F82400D2E900310A46703055
:105FC000194617F013F9291D286D1AF0E9FA00286F
:105FD000E9D156F82410281D486656F824000760B9
:105FE00056F824001822083005F14001FCF758F853
:105FF000244856F8241000EBC4056868486056F839
:106000002400001D0EF046FC56F82400001D0EF082
:1060100031FD1C4801220321103815F0A9FF56F864
:106020002410012081F86C0056F82410002081F81B
:10603000000156F8241081F8010156F8241081F867
:10604000020156F8241081F803010F490C2018F0C2
:10605000FFFE0E490D2018F0FBFE0D49342018F00C
:10606000F7FE0C49352018F0F3FE95F9010014F6FF
:10607000A7F895F9010014F6C1F8002093E7000095
:10608000B06D002028152200D1382000E138200012
:10609000F1382000013920002DE9F04104461A4D65
:1060A00055F82400703017F0B6F882B21646002773
:1060B0007AB155F8240090F80111012909D0802AFD
:1060C0000ED300F180017030802217F0B9F88026DD
:1060D0000BE055F8240080F800710020BDE8F08145
:1060E00000F18001703017F0ABF855F8240080F80B
:1060F000047155F82400324600F18001001D0EF0B5
:1061000097FE0028EAD1E9E7B06D002070B50428B9
:1061100001D3E82070BD0C4D55F820407CB194F8B7
:106120006C6066B169B162B1002684F8026155F80D
:106130002000001D0EF0C2FD0028EBD170BDE5204F
:1061400070BDE42070BD0000B06D00202DE9F74F58
:1061500084B005460C46022604F1080920460CF0DE
:10616000DFFB07463E48D0F804A000200390B5F5B9
:10617000804F0ADBB5F5004F07DA394840683949E6
:106180000968A0EB010A01200390E019504501DDE8
:10619000052662E03248006800F6FF703049098841
:1061A000491EC1F30B01401AC0F3073B039810B11D
:1061B0002C48006800E0002002902B4800682B4922
:1061C0000968401A001F2649497AA1EB0B01A0EB90
:1061D000C10023490968411A0298A1EB000809EBA4
:1061E0000700404532DD002011231E224FF40041FC
:1061F0000090012041F602FB002108460CF0ECF96A
:10620000C8B91749487A0FF021FC06461EB130463E
:1062100007B0BDE8F08F002012231E224FF400418A
:106220000090012041F6EAFA21462846069A1AF023
:1062300039FD064610E0002013231E224FF40041D2
:106240000090012041F6DAFA0F2605E021462846A3
:10625000069A1AF027FD064600BF3046D8E7000030
:106260009CBC0020AC5C0020C05C0020B85C00201E
:1062700010B500210A4C0023002001EB410202EB83
:10628000C10204EB420222F81030401CC0B20A28BE
:10629000F9D31375491CC9B20A29EDD310BD00000A
:1062A0002CC200200848006800280CD090F82E105E
:1062B000012908D190F83000FF2804D2034908686A
:1062C00040F08060086070479C09002000000E408C
:1062D00010B586B0044668463EF640FD9DE80E00C7
:1062E00003A80EC00B4A891C21F070415160104672
:1062F0003EF604FF07483EF675FF207F002806D1D2
:10630000054991F80101054A01EB0010426006B011
:1063100010BD0000E0200020F420002031A9210061
:1063200010B586B0002001F01DFB04464CB11422CC
:106330000A4901A8FBF7B4FEADF8084001A8FEF732
:106340006FFE07494888401C4880C2074FF0010093
:1063500002D0487006B010BD0870FBE7F8162200A6
:10636000C8590020F0B5ADB005460E460024AC6219
:106370000CA82421FBF7BBFE1594169401A8242138
:10638000FBF7B5FE0A940B9422A824222946FBF7BA
:1063900087FE686A2B90A86A2C908A4D17A8242241
:1063A0002946FBF77DFE686A2090A86A21900125A6
:1063B0001495099415950A95C8E022AF4FF0000C8A
:1063C0000022214657F82200401844EB0C014908EE
:1063D0004FEA300147F8221020F00101B0EB010C28
:1063E00002F10102092AECD3002057F8201011B95C
:1063F000401C0928F9DBC0F1090078621498C00735
:1064000006D00CA8FCF744FB2A98C007D5D048E07A
:106410000CAF4FF0000C0020214657F820205218F6
:1064200041EB0C035B084FEA320347F8203022F0BF
:106430000103B2EB030C00F101000928EDD30020A9
:1064400057F8201011B9401C0928F9DBC0F10900E8
:106450007862D9E717AF4FF0000C0020214657F8BB
:106460002020121944EB0C0359084FEA320147F877
:10647000201022F00101B2EB010C00F1010009280B
:10648000ECD3002057F8201011B9401C0928F9DB83
:10649000C0F1090078620998C0070DD001A8FCF787
:1064A000F7FA1F98C007D5D022AA17A92B98209BCE
:1064B000984223D9284637E001AF4FF0000C6246DE
:1064C000234657F82200C01843EB0C0149084FEA55
:1064D000300147F8221020F00101B0EB010C02F16D
:1064E0000102092AEDD3002057F8201011B9401CF1
:1064F0000928F9DBC0F109007862D2E701D2204611
:1065000012E0C0F109000CE051F8203052F8207080
:10651000BB4201D9204607E001D2284604E000F141
:1065200001000928F0D3284640B117A922A8FDF799
:10653000D5F801A90CA8FDF7FBF807E022A917A8D8
:10654000FDF7CCF80CA901A8FDF7F2F82B9800286C
:106550007FF47FAF0B9868B101A818F081FC01A906
:1065600024223046FBF79CFD0A9870620B98B062BB
:106570002DB0F0BD134901AA486A0A9B984201D97F
:106580002C4610E00FD3C0F109000AE052F8203089
:1065900051F82070BB4206D801D22C4603E000F12E
:1065A00001000928F2D34CB101A924223046FBF79F
:1065B00077FD0A9870620B98B062D9E701A818F0CD
:1065C0004FFCCCE7401922000AF01ABC10B58CB081
:1065D00008A819F013FABDF8221009989DF8212097
:1065E000CDE904109DF820303FA040F20F11CDE915
:1065F0000232CDE90010464B46A24CA10220FFF723
:1066000027F90AA800F0D8FD044654B114224049E5
:10661000103103A8FBF744FDADF8104003A8FEF7C6
:10662000FFFC9DF828009DF82910CDE906109DF883
:106630002A209DF82B30CDE904329DF82C109DF8CE
:106640002D003CA24FF48A73CDE90032CDE902015E
:106650002F4B30A235A10220FFF7FAF840A04FF4EB
:106660008E71CDE900102A4B2AA230A10220FFF73B
:10667000EFF808F0C3FC404A01214048FFF7FCF95D
:10668000044654B114222249243103A8FBF708FD23
:10669000ADF8104003A8FEF7C3FC002241F2883198
:1066A0003648FFF7B9FA044654B114221849383174
:1066B00003A8FBF7F5FCADF8104003A8FEF7B0FC0B
:1066C0002F49002000F0F8FF0446002C0AD01422C5
:1066D0000F494C3103A8FBF7E3FCADF8104003A8C9
:1066E000FEF79EFC0CB010BD476F6F6469782042C6
:1066F0004C452053444B205625642E25642E25649A
:106700002028636F6D6D69742025782900000000D2
:10671000581722002E2E5C5372635C757365725C91
:10672000757365725F6170702E6300004E4F5F5429
:10673000414700004C6F63616C20426F61726420BE
:10674000253032583A253032583A253032583A25D9
:106750003032583A253032583A253032582E00001F
:10676000426561636F6E206578616D706C65207342
:106770007461727465642E0021632000B8B2002039
:10678000CC5900202DE9F04104460D4616461F461F
:106790003B4632462946204600F606FEBDE8F0811B
:1067A0002DE9FF5F04460D4616461F46DDE910AB96
:1067B000DDE90E893B463246294620468DE8000F2A
:1067C00000F6CAFF04B0BDE8F09F2DE9FF5F044664
:1067D0000D4616461F46DDE910ABDDE90E893B4646
:1067E0003246294620468DE8000F00F6C7FF04B068
:1067F000BDE8F09F70B504460D462946204601F6D7
:1068000043FA70BD10B50446204601F6DBFA10BD10
:1068100070B504460D462946204601F6B7FF70BD07
:1068200070B5054628781949097808440A2801DD19
:10683000042070BD0024002623E01EE01448005D03
:10684000D0B9C6EBC603691C5A1804F14001C1F364
:106850000D0141F40040072114F0CCFD08B10120E6
:10686000E7E701222046641C09490A5407480078DA
:10687000401C0649087002E0641C0A2CDEDB00BFE5
:10688000761C2878B042D8DC0020D2E7F55F0020E3
:10689000D8C50020F8B507460D46384605F048FD36
:1068A00006460B48007886420EDAC620009006EBBA
:1068B00046012231C1F30D0141F400402A466946E8
:1068C00014F01CFC002400E003242046F8BD000066
:1068D000F45F0020F8B505460026002415E00820E6
:1068E00000900C48005D01280ED1691C01EBC60226
:1068F00004F16001C1F30D0141F40040694614F058
:10690000FDFB08B9701CC6B2641C042CE7DB2E70BA
:106910000020F8BDF65F00202DE9F041A8B0044644
:106920000E46002700206070804648E08C200490CE
:1069300008EB48012131C1F30D0141F4004005AAE3
:1069400004A914F0DBFB48BB9DF8150000F0020021
:1069500020B36078B04222DA07EB8701606800EB71
:10696000C1050DF13700DDF837102960BDF83B1087
:10697000A9808079A8719DF81600E87110220DF1A8
:10698000270105F10800FBF78BFB10220DF1170121
:1069900005F11800FBF784FB781CC7B20BE0002060
:1069A00001211E231A46CDE901060091C9030120E9
:1069B00040F624FF07E008F1010000F0FF08054859
:1069C00000788045B2DB00BF6770002028B0BDE8CA
:1069D000F0810000F45F0020F8B506460C46304612
:1069E00005F0A6FC054602270A48007885420FDA22
:1069F0008C20009005EB45012131C1F30D0141F4DC
:106A000000402246694614F079FB07463846F8BD37
:106A10000320FCE7F45F0020F8B506460C4630463C
:106A200005F0A4FC054602270A48007885420FDAE3
:106A30008C20009005EB45012131C1F30D0141F49B
:106A400000402246694614F059FB07463846F8BD17
:106A50000320FCE7F45F0020F8B50546002600247B
:106A600016E0072000900D48005D01280FD1C6EB0D
:106A7000C603691C5A1804F14001C1F30D0141F429
:106A80000040694614F03AFB08B9701CC6B2641C99
:106A90000A2CE6DB2E700020F8BD0000D8C50020CF
:106AA000FEB504460D463020B5FBF0F015490870E0
:106AB00008460078C0EBC006084607780078002139
:106AC00001221F23CDE9002102901E224FF4004134
:106AD000012040F693FE0C480460A0190B490860A1
:106AE00000200B4908704870A0193844486002F033
:106AF00033FB28B10EF094FE0EF0EAFE0020FEBD3E
:106B00000220FCE7F45F0020EC5F0020F05F002033
:106B1000FC5F00202DE9F04107460C46384605F0A1
:106B200007FC06460D480078864213DA06EB46015C
:106B30002231C1F30D0141F400402246C62114F078
:106B400059FC8046B8F1000F01D0012000E0002080
:106B5000054600E003252846BDE8F081F45F0020EB
:106B6000FEB506460F460024304605F0E1FB05461B
:106B700000BF40480078854219DA05EB4501213114
:106B8000C1F30D0141F400403A468C2114F032FC6F
:106B90000446002C5FD0002001211A231E22CDE9DB
:106BA00001040091C903012040F628FE54E005F0DD
:106BB0000BFC054605EB4501203141F4004032460F
:106BC000072114F017FC04465CB1002001211B23AF
:106BD0001E22CDE901040091C903012040F60EFEFA
:106BE0003AE005EB45012131C1F30D0141F40040CC
:106BF0003A468C2114F0FEFB0446A4B1002001218A
:106C00001C231E22CDE901040091C903012040F696
:106C1000F5FD05EB45012031C1F30D0141F40040C4
:106C200014F0D2F918E0284619F044FF05EB4501AD
:106C30002231C1F30D0141F4004014F0C5F9C5EB58
:106C4000C5000D490968084431680160B188818038
:106C5000B1798171002400BF00BF44B9787800F099
:106C6000020020B1034801780448FFF755FE204692
:106C7000FEBD0000F45F0020EC5F0020FC5F002000
:106C800010B50446204604F6FBFF10BD10B50446BF
:106C9000204605F6E9F810BD70B504460D462946B4
:106CA000204605F6F9F870BD10B50AF081FA0A48D9
:106CB0000A4948600A490948C1600A4941610A49CC
:106CC000C1610A4941620A49C1620A4941630A49EC
:106CD000C1630A49416410BD75792100A86500208F
:106CE00031782100B57A2100A5772100197E210095
:106CF000E1842100C5732100D17121004575210077
:106D000010B516F0EDFC0FF09BF90EF03FFBBDE85F
:106D1000104016F09FBB000010B56FF002008149D3
:106D200008603820002807DB00F01F020121914095
:106D30007D4A430942F8231000BF00207B490860C8
:106D400000BF7A481C30006840F0020077491C31CF
:106D500008600846006840F00100086008460068C6
:106D600020F00200086000BF00BF7048001F0068EC
:106D700040F001006D49091F08600846006820F0D6
:106D80000200086000BF00BF12F082FD0028FBD1A6
:106D9000022066493839096821F0030108B9002248
:106DA00006E0022802D140F2AA2201E040F2FF32BE
:106DB00002F0030211435D4A383A116000BF02201D
:106DC0001146096821F00C0108B9002206E00228EA
:106DD00002D140F2AA2201E040F2FF3202F00C029E
:106DE0001143524A383A116000BF02201146096827
:106DF00021F0C00108B9002206E0022802D140F2C9
:106E0000AA2201E040F2FF3202F0C0021143474AD9
:106E1000383A116000BF032044494039096821F025
:106E2000030108B9002206E0022802D140F2AA229A
:106E300001E040F2FF3202F0030211433B4A403AC4
:106E4000116000BF03201146096821F00C0108B948
:106E5000002206E0022802D140F2AA2201E040F21C
:106E6000FF3202F00C021143304A403A116000BF79
:106E700003201146096821F0C00108B9002206E08C
:106E8000022802D140F2AA2201E040F2FF3202F0D1
:106E9000C0021143254A403A116000BF00BF0120E3
:106EA00022493439086000BF00BF12F0F1FC00280D
:106EB000FBD1FEF6B1F9FEF6B6F900BF1B481C3057
:106EC000006840F0040019491C31086000BF00BF91
:106ED0001648001F006840F004001449091F0860AC
:106EE00000BF012018F038F900BF1148006820F0F9
:106EF00040000C499839C1F8800200BF00BF084625
:106F0000D0F8800220F01000C1F8800200BF00BF5E
:106F10000846D0F8800220F02000C1F8800200BFAF
:106F200010BD000098A0004080E200E0C4A4004032
:106F300080A2004010B50BF0A9F913F0A3FC12F0E9
:106F400029FE12F0D5FDFFF793F9BDE8104012F0CD
:106F5000BFBD000010B5FEF666F9FEF65DF900BF94
:106F60001048006840F002000E49086008460068BA
:106F700020F00100086000BF00BF0A482030006810
:106F800040F001000749203108600846006840F0E1
:106F9000020008600846006820F00100086000BF99
:106FA00010BD0000C0A4004010B511F6B3FE10BD26
:106FB00038B518F0FFFC28B140F27E41084618F0C1
:106FC00051FA04E040F27E41084618F04BFA274897
:106FD000007878B126480068009018F05DFA044601
:106FE00024480088009018F057FA0546214618F00A
:106FF0006FFC05E04FF466714FF47F7018F068FC89
:107000001D4814F0ABFD18F0D5FC10B91B480078F2
:1070100080B91B4818490A6802604A6842600989B9
:1070200001811849144802680A6042684A60008970
:10703000088119E01249104802680A6042684A60F3
:10704000008908810F490C4802680A6042684A605A
:107050000089088140F21A400949088018F098F91F
:10706000074988800120487238BD0000B85E0020C2
:10707000B45E0020B65E00208A5E0020765E0020AE
:10708000945E00209E5E002070B504460A2C15DA3E
:10709000492040EA0422052000EB0421042340F6A5
:1070A000224001F0ADFF05463DB1212028704FF68A
:1070B000FF706880284601F0EBFF00BF70BD000044
:1070C00010B504460CB9002010BD204602F06EF841
:1070D00040B90548006828B1204603490968884737
:1070E0000120F1E70020EFE7605C00200EB5018889
:1070F000B1F5807F0ED0A1F5007107390ED00129BE
:107100001BD0FF2918D1007903B001215DF804EBF1
:1071100000F072BCBDE80E40FFF758BA4088002866
:107120000AD009A1F722CDE9002102900F4B10A24D
:1071300015A10320FEF78CFB0EBD40880028FBD173
:10714000BDE80E4019F0F2BC416476657274696E58
:10715000672073746172746564206661696C65642C
:1071600028305825303258292E00000048172200B8
:107170002E2E5C5372635C757365725C75736572F9
:107180005F6170702E6300004E4F5F5441470000F6
:1071900010B5FDF7E7FC13F077FE17F05BFD11F07B
:1071A000CFF916F08BFA03F0CBFB0BF0F3F9BDE847
:1071B00010400BF0D1B800002DE9F047044600253F
:1071C00000BFFCF71DFD80460220FCF76BFC8146EA
:1071D000FCF7D8FC401C0121814009EB010738462F
:1071E000FCF7A9FD05F05EF9064600BF0CB90225C3
:1071F00015E0104890F81C0100F00100A071A07982
:10720000012805D10C48416821600089A08005E073
:1072100000F066FE016821608088A08000BF00BF8A
:10722000304605F007F94046FCF785FD00BF2846CB
:10723000BDE8F08754B4002056B500202DE9F84F82
:1072400004460E4617461D464FF0000800BFFCF7E7
:10725000D7FC00900220FCF725FC8346FCF792FC4B
:10726000401C012181400BEB010A5046FCF763FDF5
:1072700005F018F9814600BF27B9002D02DD4FF057
:107280000208D4E0052C02DB4FF01508CFE0002EF9
:1072900043D1C4EBC4016B4800EB8100806870B13E
:1072A000C4EBC402674901EB8201886801F07AFEF1
:1072B0000021C4EBC402634800EB82008160C4EB90
:1072C000C401604800EB8100806898B90021A81CC7
:1072D00001F06EFEC4EBC4025A4901EB82018860E2
:1072E000C4EBC401574800EB8100806810B94FF02F
:1072F00010089CE0C4EBC401524800EB8100806898
:107300000580C4EBC4024F4901EB82018968881CE7
:107310002A463946FAF7C4FE89E0012E3CD1C4EB77
:10732000C401484800EB8100C06870B1C4EBC402DE
:10733000444901EB8201C86801F034FE0021C4EB2E
:10734000C402404800EB8200C1600021A81C01F08B
:107350002FFEC4EBC4023B4901EB8201C860C4EBC1
:10736000C401384800EB8100C06810B94FF0100824
:107370005DE0C4EBC401334800EB8100C0680580C8
:10738000C4EBC4022F4901EB8201C968881C2A465C
:107390003946FAF785FE4AE0022E45D1C4EBC40116
:1073A000284800EB8100006970B1C4EBC402254994
:1073B00001EB8201086901F0F5FD0021C4EBC40274
:1073C000204800EB82000161C4EBC4011D4800EBC2
:1073D0008100006938BB002D25DD0021A81C01F0CB
:1073E000E7FDC4EBC402174901EB82010861C4EB5D
:1073F000C401144800EB8100006910B94FF0100877
:1074000015E0C4EBC4010F4800EB81000069058062
:10741000C4EBC4020B4901EB82010969881C2A46AE
:107420003946FAF73DFE02E04FF0160800BF00BFF4
:10743000484604F0FFFF0098FCF77DFC00BF404683
:10744000BDE8F88F5CB400202DE9FF5F06460F46CB
:10745000144600254FF0010800BFFCF7D1FB82461F
:107460000220FCF71FFB8346FCF78CFB401C01212C
:1074700081400BEB01094846FCF75DFC05F012F872
:107480000390002001218A230822CDE90106009102
:107490001021012040F6B2F900BF54B900208B231F
:1074A000082210210090012040F6A8F94FF00208B0
:1074B000F3E0052E0ADB00208C2308221021009027
:1074C000012040F69BF94FF01508E6E020780328EC
:1074D00002D06089202807DBA089B0F5804F03DC4B
:1074E0006089A18988420ADD00208D2308221021AD
:1074F0000090012040F682F94FF01F08CDE060783F
:1075000003280ADD00208E2308221021009001208C
:1075100040F674F94FF02008BFE0607803280DD1E1
:10752000207801280AD000208F2308221021009003
:10753000012040F663F94FF02108AEE0607803289F
:107540000CD1A07850B10020902308221021009087
:10755000012040F653F94FF021089EE020780328DF
:1075600002D02078042821D1002001900290062228
:1075700001A9E01CFAF7CDFD50B9002091230822A3
:1075800010210090012040F639F94FF0220884E0E4
:10759000607850B100209223082210210090012031
:1075A00040F62CF94FF0210877E000BFC6EBC6018A
:1075B000404800EB8100406898B90021282001F084
:1075C000F7FCC6EBC6023B4901EB82014860C6EB03
:1075D000C601384800EB8100406810B94FF0100830
:1075E0005BE0C6EBC601334800EB8100456828210B
:1075F0002846FAF77CFDC6EBC6012E4800EB810059
:10760000C77000202870A0786871A07B08B1A07BAB
:1076100000E0072028760121697660892861A18928
:107620006961D4F80300C5F80600B4F80700688162
:10763000607A2873207C28712078052813D2DFE82F
:1076400000F00603090C0F00002068800CE0032006
:10765000688009E00220688006E00D20688003E071
:107660000520688000E000BF00BFE07B18B168889B
:1076700040F480706880688840F01000688060780E
:10768000022802DC6078687004E06078032801D189
:10769000002068704FF0000800BF00BF039804F09E
:1076A000C9FE5046FCF747FB00BF404604B0BDE8AA
:1076B000F09F00005CB400202DE9F04786B004463E
:1076C0000D46012600BFFCF79BFA81460220FCF71D
:1076D000E9F98246FCF756FA401C012181400AEB89
:1076E00001084046FCF727FB04F0DCFE074600BF1C
:1076F000052C09DB0020A72308221021009001207F
:1077000040F67CF8152610E135B1C4EBC40194486D
:1077100000EB8100406848B90020A823082210210E
:107720000090012040F66AF80226FEE0C4EBC40196
:107730008B4800EB8100407808B102F097FCC4EB65
:10774000C401874800EB8100407848B10020A9239C
:10775000082210210090012040F650F80F26E4E0A6
:10776000C4EBC4017E4800EB81008068002843D14F
:10777000C4EBC4017A4800EB81004068007898B9F6
:10778000C4EBC401764800EB81004068807800F0CB
:10779000040080BB0020AA230822102100900120B1
:1077A00040F62CF82326C0E0C4EBC4016C4800EB83
:1077B000810040680078012813D1C4EBC4016848F7
:1077C00000EB81004068807800F0020098B900204A
:1077D000AB23082210210090012040F60FF8232649
:1077E000A3E00020AC23082210210090012040F6E5
:1077F00005F8232699E0FFE7C4EBC401584800EBE5
:1078000081004068807800F00200C8B1C4EBC40178
:10781000534800EB810040680078012810D1C4EB88
:10782000C4014F4800EB8100C06848B90020AD2377
:1078300008221021009001203FF6E0FF252674E089
:10784000C4EBC401464800EB810040680078022880
:1078500010D1C4EBC401424800EB8100006948B973
:107860000020AE2308221021009001203FF6C6FF21
:1078700024265AE0C4EBC401394800EB810040687B
:10788000807800F0080070B1288810B1288880281E
:1078900009DD0020AF2308221021009001203FF6CF
:1078A000ADFF262641E0C4EBC4012D4800EB81006A
:1078B00040684078022810D1288820B1288844F2F6
:1078C0005061884209DD0020B02308221021009079
:1078D00001203FF693FF262627E0C4EBC401204891
:1078E00000EB8100406990B90021042001F060FBA9
:1078F000C4EBC4021A4901EB82014861C4EBC40124
:10790000174800EB8100406908B910260DE0C4EB70
:10791000C401134800EB81004069296801602146D9
:10792000002005F013F8002600BF00BF0120002151
:10793000CDE90306CDE901140220B123082210216C
:10794000009001203FF65AFF384604F073FD484688
:10795000FCF7F1F900BF304606B0BDE8F087000043
:107960005CB400202DE9F04385B00446002500BF3B
:10797000FCF746F980460220FCF794F88146FCF7B4
:1079800001F9401C0121814009EB01073846FCF751
:10799000D2F904F087FD064600BF052C01DB152552
:1079A0000EE0C4EBC401134800EB810040780728C7
:1079B00001D00F2504E02146012004F0C7FF00BFDD
:1079C00000BF01200021CDE90305CDE9011402200B
:1079D000B32308221021009001203FF60FFF30460C
:1079E00004F028FD4046FCF7A6F900BF284605B084
:1079F000BDE8F0835CB400202DE9F84F05460E4643
:107A0000002700BFFAF7F9FB81460220FCF73AF89D
:107A10008246FCF7AFF8401C012181400AEB0104CB
:107A20002046FCF784F904F03DFD804600BF0A2D96
:107A300006DA194830F835004FF6FF71884201D157
:107A400003271EE0072000EB0521062349224FF4FF
:107A5000616001F0D5FA04460CB9102711E02670D8
:107A6000022060804FF6FF70A080002013230822C0
:107A70001021009001203FF6C1FE204601F008FBD6
:107A800000BF00BF404604F0D5FC4846FCF74FF964
:107A900000BF3846BDE8F88F02B40020044A52F80F
:107AA000200050F84B2F0A608088888070470000C3
:107AB000E41300202DE9FE430546002600BFFCF735
:107AC0009FF880460220FBF7EDFF8146FCF75AF84D
:107AD000401C0121814009EB01042046FCF72BF9F1
