:020000040020DA
:10200000000004205921200069292000014010000F
:10201000FF212000FB212000912A20000000000069
:10202000000000000000000000000000154010004B
:10203000FD212000000000006B2920009D292000C8
:1020400000F002F800F077F80AA090E8000C824453
:102050008344AAF10107DA4501D100F06CF8AFF230
:10206000090EBAE80F0013F0010F18BFFB1A43F076
:102070000103184794E40000D4E400000A444FF040
:10208000000C10F8013B13F0070408BF10F8014BD7
:102090001D1108BF10F8015B641E05D010F8016B1C
:1020A000641E01F8016BF9D113F0080F1EBF10F880
:1020B000014BAD1C0C1B09D16D1E58BF01F801CBA3
:1020C000FAD505E014F8016B01F8016B6D1EF9D526
:1020D0009142D6D370470000103A24BF78C878C127
:1020E000FAD8520724BF30C830C144BF04680C601E
:1020F000704700000023002400250026103A28BF66
:1021000078C1FBD8520728BF30C148BF0B60704769
:10211000642900F0BF80782900F02381732900F042
:102120008883002070471FB50DF040FE00F0E6FAEE
:102130001FBD10B510BDDFF810D0FFF7F4FF07F09A
:1021400041FE00F091FB00000000042003B4FFF703
:10215000F0FF03BC01F02FF8014880470148004719
:10216000412A200039A020000FB4044910B503AA69
:10217000029800F063FB10BC5DF814FB5C5D00206E
:102180000FB41CB5084B06AA7B446946009005981D
:1021900000F025FB04460020694600F033FB204692
:1021A0001CBC5DF814FB00007906000070B5044605
:1021B00085690068C10601D5302600E02026C007E9
:1021C00007D070BDD4E9012130469047206A401CF9
:1021D00020626D1EF6D570BD70B504468569007825
:1021E000C00707D170BDD4E9012120209047206AA3
:1021F000401C20626D1EF6D570BDFEE7FEE7FEE7CF
:1022000058585247010000002556000000202000C9
:10221000002020007EEE9247010100000000000037
:1022200000000000000000000000000000000000AE
:10223000000000000000000000000000000000009E
:1022400070B50C460546012A05D02878800600D5D1
:10225000EA69002302E0012305E05B1C934202D2FD
:10226000E05C0028F9D1A869E618C01AA861286ABC
:10227000184428622846FFF799FF04E0D5E90121B8
:1022800014F8010B9047B442F8D32846FFF7A4FF97
:1022900070BD00002DE9F041064600241068752944
:1022A000314616A510D0AFF30080002802DA404274
:1022B00013A507E031688A0701D512A502E0490796
:1022C00004D511A5012401E0AFF3008000210A220A
:1022D00006F1240709E0B0FBF2FCB0FBF2F302FBCD
:1022E0001C00303078541846491C0028F3D123468E
:1022F0002A463046BDE8F04100F012BA0000000066
:102300002D0000002B00000020000000F0B40D465E
:102310000188090502D5214C7C4402E01F4C7C4415
:102320000E34002100F1240608E002F00F07120924
:10233000E75D42EA03721B097754491C52EA03071E
:10234000F3D102780023120704D5702D06D009B10D
:10235000022311342246F0BC00F0E2B9012310340C
:10236000F8E770B504460D4621461068AFF30080CB
:10237000024629462046BDE870400023C6E7D21D2C
:1023800022F00703D3E90023C0E70368126843F093
:10239000200303600823C3610023B7E7CCDD0000FE
:1023A0002DE9F05F894604464FF0000ADFF874B16A
:1023B000FB44C0F820A02046E1688847002874D07C
:1023C000252806D0D4E901219047206A401C2062CC
:1023D000F1E700265F462046E16888472028054649
:1023E00007DB312D05D2781910F8200C08B106430F
:1023F000F1E7B00701D526F00406C4F81CA00027B9
:10240000C4F818A02A2D09D0284600F0C7FE38B31A
:1024100004EB8708303DC8F8185019E059F8041B40
:10242000204604EB87029161E1688847012F054649
:1024300018D1E069002820DA26F020061DE0D8F83F
:10244000180000EB800005EB40003038C8F8180099
:102450002046E1688847054600F0A0FE0028EED13E
:10246000012F0AD02E2D08D12046E16888477F1C15
:102470000546022F46F02006C4DBA069002803DAD7
:10248000404246F00106A061F00701D026F0100698
:102490006C2D0BD0682D09D04C2D39D06A2D35D03C
:1024A000742D35D07A2D33D016E038E0E1682F4610
:1024B00020468847B842054609D16C2F26D04FF4F4
:1024C0008060E168064320468847054604E06C2F9B
:1024D0001AD04FF4807006430DB3A5F141001928BE
:1024E00002D8203546F400664A4629462046266032
:1024F0004E46FFF70DFE80B101280BD0F61D26F0E9
:10250000070000F1080956E74020E4E78020D8E7FB
:102510000020D6E706F104094DE7284652E7206A75
:10252000BDE8F09F5CDD000040EA010310B59B07A9
:102530000FD1042A0DD310C808C9121F9C42F8D02D
:1025400020BA19BA884201D9012010BD4FF0FF30DE
:1025500010BD1AB1D30703D0521C07E0002010BDF4
:1025600010F8013B11F8014B1B1B07D110F8013B80
:1025700011F8014B1B1B01D1921EF1D1184610BD61
:1025800010B5431C02E010F8011B71B18107FAD1AC
:102590004FF0013202C88C1A8C4314EAC211F9D0F0
:1025A000C01A0A0603D0C01E10BDC01A10BD0A040E
:1025B00001D0801E10BD0902FCD0401E10BD032AB0
:1025C00040F2308010F0030C00F0158011F8013B50
:1025D000BCF1020F624498BF11F801CB00F8013B37
:1025E00038BF11F8013BA2F1040298BF00F801CBFB
:1025F00038BF00F8013B11F0030300F02580083AD2
:10260000C0F0088051F8043B083A51F804CBA0E828
:102610000810F5E7121D5CBF51F8043B40F8043B7D
:10262000AFF30080D20724BF11F8013B11F801CBB2
:1026300048BF11F8012B24BF00F8013B00F801CB83
:1026400048BF00F8012B704710B5203AC0F00B804E
:10265000B1E81850203AA0E81850B1E81850A0E8A6
:102660001850BFF4F5AF5FEA027C24BFB1E8185000
:10267000A0E8185044BF18C918C0BDE810405FEA70
:10268000827C24BF51F8043B40F8043B08BF7047EC
:10269000D20728BF31F8023B48BF11F8012B28BFF1
:1026A00020F8023B48BF00F8012B70474FF00002B2
:1026B00000B5134694469646203922BFA0E80C5038
:1026C000A0E80C50B1F12001BFF4F7AF090728BF13
:1026D000A0E80C5048BF0CC05DF804EB890028BF8F
:1026E00040F8042B08BF704748BF20F8022B11F0B8
:1026F000804F18BF00F8012B7047000070B5064CE2
:102700007C44064D7D4403E0206820448047241D1E
:10271000AC42F9D170BD000044DE000044DE000090
:102720002DE9F0470D4699469246044600F12408EB
:102730000168880604D5E06921F01001216000E0FD
:102740000120A84201DD471B00E00027A1697A199A
:1027500002EB0900081AA0612078C00602D42046C6
:10276000FFF724FD002608E0D4E901211AF806004D
:102770009047206A401C761C20624E45F4DB20788E
:10278000C0060AD52046FFF711FD06E0D4E9012175
:1027900030209047206A401C2062381EA7F10107B4
:1027A000F4DC07E0D4E9012118F805009047206A1D
:1027B000401C2062281EA5F10105F3DC2046FFF72E
:1027C0000BFD2078000602D50220BDE8F08701202D
:1027D000FBE7000001694A1C02610878704700B5F8
:1027E0008FB0CDE901310021059105497944CDE94A
:1027F000031011466846FFF7D3FD0FB000BD00007F
:10280000E5FFFFFF0A6802F8010B0A60704710B588
:10281000436913B1AFF3008001E0FFF711FD012020
:1028200010BD127800F124010A7000224A700122C2
:10283000EDE711684FF0FF32E9E70000074B70B594
:102840000D467B44FFF7CBFF0446284600F008F80E
:1028500010B14FF0FF3070BD204670BD3B2C000022
:10286000007B00F08000704710B50446AFF3008095
:102870002046BDE81040FFF769BC10B501F0A6FD89
:1028800010BD00001CB5032400BF274800680121CB
:1028900021EA900078B900BF23480C30006800F0AE
:1028A000010040B100BF20488C38006800F00700EC
:1028B0002040A04200D01CBD0020009000F08CFB06
:1028C00000901A480068401C1849086064200AF605
:1028D00073FD01A800F064F8022000F069F83220CE
:1028E0000AF66AFD00BF1248006840F00200104975
:1028F000086000BF0F4948890AF65EFD00BF0C481A
:10290000006820F002000A49086000BF0949888970
:102910000AF652FD9DF8040000F04AF8009800F015
:1029200044FC00BFC7E70000D4A40040246000209E
:1029300004A90040E25E00200748006800F0100093
:1029400008B10648704706480068C0F302400549D0
:1029500051F82000F6E7000084E30040006CDC0240
:1029600000A000403CFF2000FEE7FEE7052800DB5A
:1029700070470949096801F4E021B1EB004F08D024
:10298000054A126822F4E02141EA0042024B1A6033
:1029900000BF00BFECE7000000A00040FEE7000021
:1029A0000249096801F007010170704700A000406A
:1029B00010B500220021072800DB10BD144B1B6856
:1029C00003F0070383421BD0114B1B6823F007025F
:1029D00042F003030E4C23602346DB6823F007011B
:1029E00041F00103E36000BF00BF00BF00BF42EA47
:1029F0000003074C2360074B53F820300B43E36080
:102A0000054B53F82030054C236000BFD5E700008C
:102A100000A0004020FF200004FF200048550020B7
:102A20000448006800F00700034951F820000349FA
:102A30000860704700A0004004FF200048550020B7
:102A40000248016841F470010160704788ED00E0C0
:102A500002480068001D04F09BBF0000DC6E0020EF
:102A600002484068001D04F093BF0000DC6E0020A7
:102A700002488068001D04F08BBF0000DC6E00205F
:102A80000248C068001D04F083BF0000DC6E002017
:102A9000FEE70000002807DB00F01F020121914043
:102AA000024A430942F823107047000080E200E028
:102AB000002807DB00F01F0201219140024A430970
:102AC00042F823107047000080E200E0002807DB96
:102AD00000F01F0201219140024A430942F82310ED
:102AE0007047000080E200E000280DDB00BF00BF5F
:102AF00000F01F02012191404209920002F1E02200
:102B0000C2F8001100BF00BF704700280DDB00BFF6
:102B100000BF00F01F02012191404209920002F122
:102B2000E022C2F8001100BF00BF704700280DDB93
:102B300000BF00BF00F01F02012191404209920036
:102B400002F1E022C2F8001100BF00BF7047002868
:102B50000FDB4109890001F1E021D1F8001100F0FB
:102B60001F0201209040014201D001207047002047
:102B70007047002070470000002807DB00F01F02AC
:102B800001219140024A430942F823107047000096
:102B900000E200E0EFF310807047EFF31080704721
:102BA000EFF310807047000010B52DED020B2DEDF6
:102BB000088B84B09DED0C0B51EC100B0CF076FFE4
:102BC00041EC180B9DED0C0B53EC182B51EC100B3A
:102BD0000CF0D2FF41EC190B0D989FED290B10F072
:102BE000004F53EC102B51EC190B9FED21AB9FEDD7
:102BF00022BB0ED00CF0EAFD0ED953EC1B2B51EC8E
:102C0000190B0CF01DFF1CD214E000BF41EC180B97
:102C100017E00CF0DBFD06D253EC1A2B51EC180B2D
:102C20000CF0AAFFF2E753EC1B2B51EC190B0CF044
:102C300007FF06D853EC1A2B51EC180B0CF032FBA3
:102C4000E4E78DED028B9DED0C0B18EE901A10EE63
:102C5000900A8DED000B61F31E0003909DED020BB9
:102C600004B0BDEC088B02B010BD000000000000F5
:102C7000000000000000F03F000000000000E03F06
:102C8000000000000000E0BFC1B281F3118870476E
:102C900080F31088704780F31088704780F31088A5
:102CA000704780F31088704780F3108870470000E9
:102CB0002DE9F74F0446904600BF4FEA5806019DA4
:102CC0004FF0000B7448754908603F20744949680B
:102CD00060F30501724A516000BF00BF10464068B2
:102CE00020F480301146486000BF00BF6B48006888
:102CF00020F4700040EA04506849086000BF00BF3B
:102D00000846006820F4702040EA0440086000BFD4
:102D10000D2C07D100BF0846006840F40040086051
:102D200000BF00BF0E2C08D100BF5C48006840F413
:102D300080405A49086000BF00BF4FF40050574917
:102D4000096821F400510143544A116000BF00207A
:102D50001146096821F060510143116000BF042051
:102D60001146096821F00F010143116000BF0020E6
:102D700000F006F9012801D0BDE8FE8F00BF4748EA
:102D8000006840F080404549086000BF4FF0000AED
:102D90000DE000BF4248806840F4803040498860C0
:102DA00000BF0AF101008246401C00B903E005F0B3
:102DB000B5FA0028EDD100BF072000F0E1F80128A6
:102DC00000D0D9E754E04FF0000B2CE0BBF57A7F40
:102DD00024D900BF3148006820F080402F490860A6
:102DE00000BF00BF0846006840F00040086000BF18
:102DF00000BF0846006820F00040086000BF0020C7
:102E000000F0BEF8012800D0B6E726480068401C54
:102E10002449086005200AF6CFFA4EE701200AF699
:102E2000CBFA0BF1010B05F079FA0128CED100BFE6
:102E30001B48806800F07F008146B14501D93046CB
:102E400000E0484681464FF0000A0DE000BF1448FC
:102E5000076800BF25F8027B4FF6FF7000EA1740B5
:102E600025F8020B0AF1010ACA45EFD3A6EB0906C1
:102E7000002EA8D15EB908F0010040B100BF05F0F6
:102E80004DFA0128FBD100BF0548006828800020CA
:102E900000F076F800BF6FE70A07080700A80040B7
:102EA00000E000403060002010B5044600BF002064
:102EB0001A49086000BF00BF18498039086000BF88
:102EC00000BF1748406A174908600846007800F0BC
:102ED000010020B10846008800F4807098B906E02F
:102EE0000CB9002010BD641E01200AF665FA00BF6F
:102EF0000B48806940F20111884201D1012000E0B5
:102F000000200028ECD00848006808490860044800
:102F10004068074908600120E4E7000094D41D429E
:102F200000E000408C60002000A800408460002089
:102F3000886000200D4800680D4948600D48006811
:102F40000D4908600D48007800F0010020B10B48E1
:102F5000008800F4807040B900BF0548006A20F086
:102F600001000349086200BF00BF7047886000206D
:102F700000E000408460002000A800408C60002039
:102F800070B5044605F0C2F9A04201D1012070BD20
:102F900000BF1048C06820F0070020430D49C860FA
:102FA00000BF002508E005F0B1F9A04200D107E01C
:102FB00001200AF601FA6D1C4FF6FF708542F2D32C
:102FC00000BF4FF6FF70854201D10020DFE70120EE
:102FD000DDE7000000E0004010B500BFEFF3108017
:102FE00004460120FFF757FE204610BD70B5074D7F
:102FF0002868002804D105E0846800F0E3F8204642
:103000000028F9D10020286070BD0000545D002028
:1030100070B52DED108B8AB005460C469FED510B17
:103020008DED080B20216846FFF740FB9FED4D0B0F
:10303000B0EE408AF0EE608A102269462846FFF71B
:1030400037FE00260FE006F108013DF811000CF0F4
:10305000A9FB41EC190B53EC182B0CF023F941ECB4
:10306000180B701CC6B2082EEDDB9FED400B53EC25
:10307000102B51EC180B0CF0C9F941EC180B0D2D6D
:1030800041D1E08A0CF08EFB41EC1B0B9FED390B1C
:1030900053EC102B0CF0BAF941EC190B60880CF0D2
:1030A00081FB41EC1F0B9FED350B53EC102B0CF00B
:1030B000C9FB41EC1E0B9FED330B53EC102B0CF0B6
:1030C000C1FB41EC1C0BA08A0CF06CFB41EC1E0B0D
:1030D00053EC182B0CF044FD41EC1D0B53EC1C2B56
:1030E0000CF094F941EC1B0B9FED280B53EC102BCB
:1030F0000CF08CF941EC1A0B53EC192B0CF0D2F8B4
:10310000CDE9080127E00E2D25D160880CF04AFB9F
:1031100041EC1C0B9FED190B53EC102B0CF092FBA8
:1031200041EC1A0B20880CF03DFB41EC1C0B53ECDE
:10313000182B0CF015FD41EC1B0B53EC1A2B0CF06B
:1031400065F941EC190B9FED130B53EC102B0CF0B0
:1031500079FBCDE908019DED080B0AB0BDEC108BA1
:1031600070BD000000000000000000000000000032
:103170000000204000000000000059400000000056
:103180000000F0BF000000000000004079E9263197
:1031900008AC5CBFB76DDBB66DDB0E4030380A287B
:1031A00001D2012070470020704710B50446204628
:1031B000FFF771FD10BD704710B50446204605F0BD
:1031C0000BF810BD704710B50446204607F0A0FC70
:1031D00010BD70B504460D46294620460BF096F802
:1031E0002946204606F0CCFD70BD0000014809F0DC
:1031F00031BF0000605D00200C2801D30020704723
:1032000000EBC000054900EB400011F820201AB186
:1032100001EB8000001D70470020704734680020DB
:103220002DE9F05F0546894600244FF0FF384646F9
:103230004FF0010A002D16D04749032008F094FFF3
:103240004649232008F090FF287970B101280CD05E
:1032500002280AD0032808D0042806D0052804D064
:103260004046BDE8F09FE520FBE7EFF31083012126
:1032700081F310883A4F04EBC40101EB410117F8C8
:10328000212052B107EB8102D5F800B0D2F804C07A
:10329000DC4514D1127A824211D104EBC40000EB58
:1032A000400207EB8202384692F83120022A04D00D
:1032B00026B2012200F8212004E00C2402E0641C64
:1032C0000C2CD8D383F310880C2C3FD2002203217E
:1032D000244807F0E7FC04EBC40000EB400007EBD8
:1032E0008004296861602879207204F10C0024228E
:1032F00005F10801FFF7A8F91B48A0631B482064EB
:103300001B48E06300206064C4F868901949606855
:1033100088420AD10320FFF71AFC98B9032016F659
:103320004FFF032016F66AFF0CE01349884209D1CB
:103330002320FFF70CFC28B9232016F641FF232099
:1033400016F65CFF201D02F0A3FC8246BAF1000FC6
:1033500000D04646304684E71D4010004D40100026
:1033600034680020B8FD200099482000D146200094
:10337000814620000090014000A0014030B597B088
:1033800005460C461C22454910A8FFF75DF91C2292
:1033900042491C3109A8FFF757F920223F4938312B
:1033A00001A8FFF751F9D4B13D49062008F0DCFE31
:1033B0003C49072008F0D8FE3B491B2008F0D4FE0A
:1033C0003A49122008F0D0FE34496C39A1F12C02A0
:1033D000052D61D2DFE805F0060606213900E5205B
:1033E00017B030BD207931F810001190607932F8B3
:1033F00010001290A079139020681090274884380C
:1034000050F8350021880904090C04D018B110A91E
:1034100003F0B3F939E0E420E2E7207901EB400062
:10342000808A0A90607902EB4000C0880B90A079F6
:103430000C9020680990207810F0FF0F03D009A8A5
:1034400002F028FA21E0E420CAE72079031F042BC8
:1034500001D8E720C4E7022819D001200290207982
:1034600001EB4000008D0390607902EB4000808901
:103470000490A079059020680190207810F0FF0F4B
:1034800008D001A9002003F099F90020A8E7022044
:103490000290E4E7E420A3E7E620A1E758FE20003D
:1034A000754110006F4110006B4110006541100024
:1034B00010B50B461146002903D0012901D0E420A4
:1034C00010BD05281CD2DFE800F00303030F130032
:1034D0000C4A52F8300028B19BB20A46194616F63B
:1034E000E1FD0BE0E42010BD98B202F041FA05E0E6
:1034F00098B20A460146002003F068F9002010BD8A
:10350000E62010BDD4FD2000002806D0002904D0FC
:10351000024AD269002A00D010477047EC6F0020A1
:1035200070B50D4616460D4C00280AD001780329C7
:1035300011D80121A17601461A222046FFF73FF853
:1035400005E00020A0761A210448FFF7AFF8E561F6
:103550002662002070BD012070BD0000EC6F0020CD
:1035600010B50848017800290AD1012101700648E8
:1035700040F64AFABDE810400021044840F6DABBA4
:1035800010BD0000485D0020ED401000C9AB2000D8
:1035900010B50446114822784FF0FF3150F8222030
:1035A000A2F88810227850F82200A0F88A10606BE8
:1035B000002801D1A16B71B120B1204600F06EF856
:1035C000002807D1A06B20B1204600F009F80028A0
:1035D00000D1002010BDE42010BD00004C5D002093
:1035E00030B58BB004462C216846FFF75FF8A06B1E
:1035F000009094F83D008DF804000B200390207893
:10360000C8B10320029023490098884205D1207850
:1036100098B109200390112002904FF400100490FB
:10362000C012059000210691A06CB0F5E02F07D8DC
:103630000791089110E00520E4E7E4200BB030BDCD
:10364000B0F5702F04D8102007900220089003E0F6
:10365000202007900420089009910A9100216846D3
:10366000FFF7DEFD21780C4D55F82110A1F88A00F6
:10367000002801DAE420E1E7FFF7BEFD217855F8E4
:1036800021100865217855F82110091D01630020DB
:10369000D4E7000000A001404C5D002030B58BB0A5
:1036A00004462C216846FFF701F8606B009094F8FF
:1036B0003C008DF804000B2002902078C8B1022055
:1036C0000390224900981022884204D1207890B1BA
:1036D0000920029003924FF480100490002105917C
:1036E00000130690A06CB0F5E02F07D80791089161
:1036F0000FE00420E4E7E4200BB030BDB0F5702FFC
:1037000003D807920220089003E0202007900420AD
:10371000089009910A9100216846FFF781FD217800
:103720000B4D55F82110A1F88800002801DAE4209B
:10373000E2E7FFF761FD217855F82110C864217890
:1037400055F82110091D01630020D5E700A00140B4
:103750004C5D002070B500280CD004780F4E56F850
:10376000241049B191F88C2032B191F88D1029B113
:10377000EA2070BDE52070BDE92070BDEFF3108533
:10378000012181F31088FFF703FF20B956F82420A8
:10379000012182F88D1085F3108870BD4C5D0020EA
:1037A0002DE9F04105460F46002D05D02C78022C5E
:1037B00004D3E820BDE8F081E520FBE72D4E05F1BC
:1037C000680046F8240095F8641080F88F10287877
:1037D000291D08F0EFFE0028ECD156F82410281D12
:1037E000C1F8840056F82400076056F824001C2213
:1037F000083005F14801FEF727FF1F4856F824104E
:1038000050F82400486095F86400002520B156F86F
:1038100024101A48486202E056F82400456256F81F
:103820002400001D03F04EF956F82400001D03F09B
:10383000E7F9114803221146083007F033FA56F829
:103840002410012081F88C0056F8240080F88E5056
:103850000B49052008F088FC0A49042008F084FC84
:10386000054D2D1F285716F6ABFC285716F6C6FC3B
:1038700000209FE74C5D0020E4FE2000AFBEADDEDF
:103880001B4210001142100003780121084A012B4D
:1038900000D111700378022B00D151700378032BF3
:1038A00000D191700078002801D1117051707047DB
:1038B0006C5D00207CB5DDE90654022801D3E820C8
:1038C0007CBD0F4E56F8200070B190F88C605EB150
:1038D00061B15AB153B14DB1661C09D044F62066AE
:1038E000B44205D9E4207CBDE9207CBDE4207CBD48
:1038F000CDE90054001D03F059FB0028F7D17CBD31
:103900004C5D002010B5022801D3E82010BD0D4CFD
:1039100054F8200060B190F88C404CB151B14AB1DC
:103920005C1C09D044F62064A34205D9E42010BDF4
:10393000E92010BDE42010BD001D03F0C5FC0028E7
:10394000F9D110BD4C5D0020FEB5DDE90867012806
:1039500001D0E820FEBD1A4D6868A8B190F88D40EE
:1039600094B19EB197B10024019402948DF8041093
:10397000110C8DF80510110A8DF806108DF807202E
:10398000042B05D9E420FEBDE920FEBDE420FEBDE8
:103990001B1DDBB290F88E1009B1E220FEBD0121A3
:1039A00080F88E10009768683246001D01A903F068
:1039B00071FB18B1696881F88E40FEBD0020FEBD24
:1039C0004C5D0020F8B5069C012801D0E820F8BD28
:1039D000104D686848B190F88D6036B13BB134B194
:1039E00090F88E602EB1E220F8BDE920F8BDE42009
:1039F000F8BD012680F88E6000946868001D03F011
:103A0000D5FC20B16A68002182F88E10F8BD002034
:103A1000F8BD00004C5D002070B504461A4D55F805
:103A20002400703008F07FFA82B21646A2B155F831
:103A3000240090F8011101290ED0012180F8041111
:103A4000802A0FD355F82400802200F180017030C5
:103A500008F07EFA80260CE055F82410002081F84A
:103A6000000170BD55F8240000F18001703008F0AD
:103A70006FFA55F82400324600F18001001D04F071
:103A800055F80028EDD170BDDC6E002070470000B5
:103A90002DE9F84304464D4F57F82400061D042C29
:103AA0007ED290F86C1000297AD0012978D190F854
:103AB0000011012974D190F80111002970D1012160
:103AC00080F80111002157F82400D0E903231344A2
:103AD000027D02F00102D21D9D184268D36FC3F32C
:103AE0008003002BFAD090F80421A2B1384A136861
:103AF000491C90F83B20102A06D08268B3FBF2F2F2
:103B00006A43B1EBC21FF3D957F82400703008F0B4
:103B10000AFA85B226E0B0F82480C58C001D03F0B7
:103B20003FFD57F8240041F2883300EB0801491BA0
:103B30008031001D2A4603F0ABFFE5E757F824006B
:103B400001227030694608F003FA57F824004068F3
:103B5000C16FC1F340010029FAD09DF80010016047
:103B60006D1EADB2002DE9D157F82400703008F079
:103B7000DAF90028C8D1306841694906FCD5EFF36D
:103B80001085012080F3108857F82400703008F069
:103B9000CAF968B1EFF31081012080F3108800E0CA
:103BA00011E03068426842F08202426081F310887E
:103BB00057F82410002081F8000157F8241081F8EC
:103BC000010185F31088BDE8F8830000DC6E002059
:103BD000485500202DE9F04105460F46002D06D03E
:103BE0002AB12C78042C04D3E820BDE8F081E5202C
:103BF000FBE7344E05F1580046F82400D2E90031C5
:103C00000A467030194608F079F9291D286D0AF026
:103C100075FC0028E9D156F82410281D486656F88E
:103C20002400076056F824001822083005F14001EE
:103C3000FEF70AFD244856F8241000EBC405686816
:103C4000486056F82400001D03F00EFD56F82400CD
:103C5000001D03F0F9FD1C4801220321103807F074
:103C600021F856F82410012081F86C0056F8241031
:103C7000002081F8000156F8241081F8010156F85F
:103C8000241081F8020156F8241081F803010F492D
:103C90000C2008F069FA0E490D2008F065FA0D496C
:103CA000342008F061FA0C49352008F05DFA95F9E6
:103CB000010016F685FA95F9010016F69FFA002024
:103CC00093E70000DC6E0020C0FE2000512A200097
:103CD000612A2000712A2000812A20002DE9F0416C
:103CE00004461A4D55F82400703008F01CF982B2D1
:103CF000164600277AB155F8240090F801110129E1
:103D000009D0802A0ED300F180017030802208F0A3
:103D10001FF980260BE055F8240080F80071002080
:103D2000BDE8F08100F18001703008F011F955F81C
:103D3000240080F8047155F82400324600F1800117
:103D4000001D03F05BFF0028EAD1E9E7DC6E0020EC
:103D500070B5042801D3E82070BD104D55F82040FF
:103D600064B194F86C604EB151B14AB15E1C09D097
:103D700044F62066B34205D9E42070BDE52070BD4D
:103D8000E42070BD002684F8026155F82000001D73
:103D900003F07EFE0028F4D170BD0000DC6E002030
:103DA0002DE9F74F84B005460C46022604F10809B8
:103DB000204601F0C1FC07463E48D0F804A0002090
:103DC0000390B5F5804F0ADBB5F5004F07DA3948A7
:103DD000406839490968A0EB010A01200390E01905
:103DE000504501DD052662E03248006800F6FF70AC
:103DF00030490988491EC1F30B01401AC0F3073B43
:103E0000039810B12C48006800E0002002902B4875
:103E100000682B490968401A001F2649497AA1EB1E
:103E20000B01A0EBC10023490968411A0298A1EBDC
:103E3000000809EB0700404532DD002011231E2257
:103E40004FF400410090012043F6D8FC00210846C1
:103E500001F01EFBC8B91749487A04F0DFF806469E
:103E60001EB1304607B0BDE8F08F002012231E229D
:103E70004FF400410090012043F6C0FC2146284643
:103E8000069A0AF04DFE064610E0002013231E227B
:103E90004FF400410090012043F6B0FC0F2605E0EE
:103EA00021462846069A0AF03BFE064600BF3046E9
:103EB000D8E7000094960020C85E0020D45E002061
:103EC000CC5E002010B56FF00200814908603820F8
:103ED000002807DB00F01F02012191407D4A4309C1
:103EE00042F8231000BF00207B49086000BF7A48D9
:103EF0001C30006840F0020077491C310860084619
:103F0000006840F0010008600846006820F00200E8
:103F1000086000BF00BF7048001F006840F001004B
:103F20006D49091F08600846006820F0020008601B
:103F300000BF00BF05F06AFC0028FBD102206649E3
:103F40003839096821F0030108B9002206E0022887
:103F500002D140F2AA2201E040F2FF3202F0030255
:103F600011435D4A383A116000BF022011460968CA
:103F700021F00C0108B9002206E0022802D140F22B
:103F8000AA2201E040F2FF3202F00C021143524A31
:103F9000383A116000BF02201146096821F0C001C3
:103FA00008B9002206E0022802D140F2AA2201E06C
:103FB00040F2FF3202F0C0021143474A383A116022
:103FC00000BF032044494039096821F0030108B9C2
:103FD000002206E0022802D140F2AA2201E040F2CB
:103FE000FF3202F0030211433B4A403A116000BF26
:103FF00003201146096821F00C0108B9002206E0EF
:10400000022802D140F2AA2201E040F2FF3202F07F
:104010000C021143304A403A116000BF03201146A0
:10402000096821F0C00108B9002206E0022802D187
:1040300040F2AA2201E040F2FF3202F0C002114336
:10404000254A403A116000BF00BF0120224934399F
:10405000086000BF00BF05F0D9FB0028FBD101F7C5
:10406000F7F801F7FCF800BF1B481C30006840F06F
:10407000040019491C31086000BF00BF1648001F2A
:10408000006840F004001449091F086000BF0120C7
:1040900009F074F800BF1148006820F040000C4996
:1040A0009839C1F8800200BF00BF0846D0F88002EE
:1040B00020F01000C1F8800200BF00BF0846D0F811
:1040C000800220F02000C1F8800200BF10BD000077
:1040D00098A0004080E200E0C4A4004080A200401C
:1040E00010B501F7BCF801F7B3F800BF104800683D
:1040F00040F002000E4908600846006820F0010008
:10410000086000BF00BF0A482030006840F001008E
:104110000749203108600846006840F00200086046
:104120000846006820F00100086000BF10BD0000D4
:10413000C0A4004038B509F039FC28B140F27E41F6
:10414000084609F08BF904E040F27E41084609F088
:1041500085F92748007878B126480068009009F072
:1041600097F9044624480088009009F091F9054623
:10417000214609F0AFFB05E04FF466714FF47F7004
:1041800009F0A8FB1D4806F0EFFB09F00FFC10B981
:104190001B48007880B91B4818490A6802604A68C1
:1041A0004260098901811849144802680A6042681E
:1041B0004A600089088119E01249104802680A60C3
:1041C00042684A60008908810F490C4802680A6009
:1041D00042684A600089088140F21A400949088013
:1041E00009F0D2F8074988800120487238BD0000E4
:1041F000806000207C6000207E60002052600020F3
:104200003E6000205C6000206660002010B540F633
:1042100075FE10BD10B50121002002F0D7FB012072
:1042200014F6CEFE02200649087007F011FF05497A
:10423000322007F099FF3220FEF767FC10BD000026
:10424000AC6000207B28200010B52DED028B00BF54
:1042500017480068C0F30B00044600BF144808303C
:10426000006820F07F4008EE100A601C00EE100A83
:10427000B8EE400ADFED0F0A20EE200AB8EE481A29
:10428000C0EE010AB6EE000A30EE800ABCEEC00AAB
:10429000094880ED000A006806F03EFBF0EE408A17
:1042A000B0EE680A09F0A6FBBDEC028B10BD000061
:1042B00004E400400024F44B9860002000B587B06F
:1042C00000F01EF803208DF800001D208DF8160068
:1042D00001208DF817008DF818008DF81900044A98
:1042E00004496846FFF71CF9FEF780FF07B000BDE0
:1042F000F9422000614320000020FFF7C9BB000005
:104300007CB5144800904FF48065019500F58060FD
:10431000002101704FF4E13202640324446481649B
:10432000C1640165012343650174DA02426102221E
:1043300042740376017185604271017306494163DD
:10434000816380F83C2080F83D406A460349FFF7CE
:1043500041FC7CBDD4620020009001408D3A2000D9
:104360000A4601464FF47A730020FFF7F1BC01467C
:1043700000200A2904DC40F6641000EB410012E042
:10438000242904DC40F6661000EB41000BE02529EF
:1043900002D140F6621006E0262902D140F67A10DA
:1043A00001E04FF41B60704710B50021084602F091
:1043B0000DFB012014F6FCFD0348806820F480709A
:1043C0000149886010BD000000A0004010B51648EB
:1043D0000068401C1449086000BF1448006800F0E1
:1043E000010040B100BF11480838006800F001002A
:1043F00008B107F085FE00BF0D48006800F001001D
:1044000040B100BF0A480838006800F0010008B158
:1044100000F090FE07F012FE20B103F095FC08B109
:10442000FFF7C2FF10BD0000C460002008E4004098
:1044300008E5004010B507F001FE20B103F084FC50
:1044400008B1012010BD0020FCE710B507F07EFE8A
:1044500000F016FE10BD10B506F01CFCBDE81040C3
:1044600000F006B910B500BF2348006820F00040F6
:104470002149086000BF214A1078214A117840EA9A
:1044800081031D4A121D126863F31F721A4B1B1D14
:104490001A6000BF06201946096821F4E07141EA5C
:1044A00080111A46116000BF00BF101F006840F065
:1044B0000040111F086000BF00BF1248006840F0B4
:1044C00001001149C1F8880200BF1049312007F0EE
:1044D0004BFE312000280DDB00BF00BF00F01F02A3
:1044E000012191404209920002F1E022C2F800113C
:1044F00000BF00BF00BF10BD04A900402060002025
:104500002160002088E2004000E000408528200073
:1045100070B50C46064611461D462A462046FEF753
:1045200003F850B106A0FDF71FFE2A46214630468B
:1045300006F014FB4FF0FF3070BD002070BD00008E
:104540000D0A44617461207665726966792066613E
:10455000696C6564210D0A002DE9F04104460D46A1
:1045600016460948007810B1002005F0DFFA3246FF
:104570002946204605F0C4FA07460348007805F0AE
:10458000D5FA3846BDE8F081D95E00202DE9F0412A
:1045900005460E4614460948007810B1002005F083
:1045A000C5FAA2B23146284605F0D0FA07460348BC
:1045B000007805F0BBFA3846BDE8F081D95E0020EE
:1045C0002DE9F04105460E4614460948007810B121
:1045D000002005F0ABFAA2B23146284605F017FBE1
:1045E00007460348007805F0A1FA3846BDE8F08197
:1045F000D95E00202DE9F04104460D4616460948D3
:10460000007810B1002005F091FA32462946204684
:1046100005F03CFB07460348007805F087FA38466A
:10462000BDE8F081D95E00202DE9F04104460F4637
:1046300015464FF00008206800F6FF702188491EDB
:10464000C1F30B01401A21682944884201D84FF078
:1046500008082A4639462068FFF7B2FF86B205EB04
:1046600008012068084420603046BDE8F081000061
:104670000249014808607047E15410006C030020B3
:1046800030B40021114B01EBC10202EB420213F8DE
:104690002240012C15D103EB82020579147AAC4239
:1046A0000FD152680468A2420BD101EBC10000EBAC
:1046B000400003EB8000816E002905D030BC022051
:1046C0000847491C0C29DED330BC704734680020F1
:1046D00030B40021114B01EBC10202EB420213F88E
:1046E0002240012C15D103EB82020579147AAC42E9
:1046F0000FD152680468A2420BD101EBC10000EB5C
:10470000400003EB8000816E002905D030BC002002
:104710000847491C0C29DED330BC704734680020A0
:1047200010B50246012302B109B9002010BD084CA2
:104730001068A04202D10020087007E0054C106804
:10474000A04202D10120087000E000231846EDE7E6
:104750000090014000A0014070B500240D4E04EB14
:10476000C40000EB400016F8201001290DD106EB23
:1047700080000546001D01F083FA18B1012801D020
:10478000002070BD281D00F737F9641C0C2CE6D3FF
:10479000012070BD346800202DE9F84305460F461E
:1047A0002020009069462846FFF7BAFF012837D13C
:1047B0009DF8001088401B490968084080B35FBB22
:1047C00000BF00BFEFF310800646012080F3108881
:1047D00000BF4FF0000814492868884202D1DFF872
:1047E0004C8007E012492868884203D1DFF83C80FA
:1047F00008F11808002408E058F8240018B158F807
:10480000240000F74DF9601CC4B2062CF4DB00BF95
:1048100086F3108800BF00BF9DF8000002F008F882
:10482000BDE8F88318610020009001407C9A0020C8
:1048300000A00140F8B504460D4620200090002657
:1048400004B9F8BD69462046FFF76AFF012810D178
:10485000012D02D00DB1012606E02068D0F8A0039A
:1048600008B9002600E0012631469DF8000002F05C
:104870008DF884F82D5000BFE3E738B504462020BA
:10488000009069462046FFF74BFF012803D19DF8B1
:10489000000002F05DF838BD30B40021114B01EB8F
:1048A000C10202EB420213F82240012C15D103EBA6
:1048B00082020579147AAC420FD152680468A24290
:1048C0000BD101EBC10000EB400003EB8000816ED7
:1048D000002905D030BC01200847491C0C29DED333
:1048E00030BC70473468002070B504460D4604485B
:1048F000006820B129462046014A1268904770BDE1
:10490000E060002070B504460E46002E43D03749C3
:10491000206888421CD12079062819DA00202179E4
:10492000334A42F82100002506E0314850F82500BE
:1049300000B103E0681CC5B2062DF6DB00BF062DF2
:1049400052D1002001F0D8FF002001F05BFF4BE0C6
:1049500028492068884247D12079062844DA002176
:1049600022792348183040F82210002507E020481B
:10497000183050F8250000B103E0681CC5B2062DC0
:10498000F5DB00BF062D2FD1012001F0B5FF01207E
:1049900001F038FF28E01549206888420FD12079BE
:1049A00006280CDA2079124941F8204012490020EB
:1049B00001F08AFF0E49002001F0B4FF14E00D4918
:1049C0002068884210D1207906280DDA217908481C
:1049D000183040F821400849012001F075FF0449D2
:1049E0001831012001F09EFF70BD000000900140D1
:1049F0007C9A002000A00140694A100070B506466C
:104A00000C46154600BF6FF4004000EAC43028B1E0
:104A100040F2F3220CA111A001F642FD00BF00BF3D
:104A2000E80BC00328B14FF43D7207A11AA001F6AC
:104A300037FD00BF45EAC43081B294207043254A57
:104A40001044A0F8661170BD72665F6764785F629B
:104A5000616C626F61322E630000000028282875A7
:104A6000696E7431365F7429727877696465203CA9
:104A70003C203135292026207E282875696E743126
:104A8000365F742930783030303038303030292972
:104A9000203D3D203000000028282875696E7431C3
:104AA000365F7429727877696E737A203C3C2030C7
:104AB000292026207E282875696E7431365F742976
:104AC000307830303030374646462929203D3D2069
:104AD0003000000000800E4070B5064C4FF4807628
:104AE00028252A46214604483044FDF768FD00BFCA
:104AF00070BD0000C000210000800E40F0B50446EB
:104B00000D4616461F463B4632462946204600F0D3
:104B100009F803F09FF9F0BD0148007870470000E4
:104B2000449A002030B501240A4D2C702C46606058
:104B3000E2602361A160084CA4688C4203D2064C59
:104B4000A4680C1B02E0044CA468641A014D6C615B
:104B500030BD0000449A0020C860002010B503F06A
:104B600051F9044618210548FDF7A0FD002003492E
:104B70000870204600F07AF910BD0000449A002029
:104B80002DE9F047054688461646324C324887687C
:104B90004FF0000994F800A026626562BD4201D979
:104BA000E81B00E0781B81462B48C068484507D3C6
:104BB0003346424629460020FFF7A0FFBDE8F087B4
:104BC000A069484502D9C4F81890E661BAF1010F0E
:104BD00021D165616069B84203D92069401CA06099
:104BE00002E02069401EE060D4E9020188420BD255
:104BF000D4E90201084440082061012020704046A9
:104C0000216900F02BF8D9E7022020704046A16806
:104C100000F024F8D2E7BAF1020F10D1E069B042F7
:104C200006D13346424629460020FFF767FFC5E715
:104C3000032020704046E16900F010F808E0BAF166
:104C4000030F05D13346424629460020FFF756FFA1
:104C500000BFB3E7EC990020C860002070B504469F
:104C60000D460648806A401C04498862AAB2E1B237
:104C7000034B5868034B03F075F870BDEC990020A6
:104C8000C8600020814B200070B505460F4C2C21D8
:104C90002046FDF70BFD0020A06040F2FF10E06011
:104CA000D4E902010844400820614FF0FF30A061C0
:104CB000A06A401CA06201202070238A9AB2E9B247
:104CC000034B5868034B03F04DF870BDEC9900207E
:104CD000C8600020814B20002DE9F84306460D46B0
:104CE0009046344C94F80090B9F1010F0AD1E66077
:104CF00040F2FF10206102220146284600F09CF895
:104D0000BDE8F883B9F1020F4AD1002700200090D6
:104D10006661684600F050F807461FB92846FFF75D
:104D2000B3FFEDE7012F12D10F2D07DA0020A060AD
:104D30000122681CA16800F07FF8E1E70520E0612E
:104D400043462A463146E069FFF7D8FED8E7022FEE
:104D500012D1002D07DD0020A060681E0122002175
:104D600000F06AF8CCE70620E06143462A46314667
:104D7000E069FFF7C3FEC3E7032F08D10098E061A5
:104D800043462A463146E069FFF7B8FEB8E70720F8
:104D9000E06143462A463146E069FFF7AFFEAFE7E0
:104DA0000820E06143462A463146E069FFF7A6FE47
:104DB00000BFA5E7CC99002070B504461C491D48EA
:104DC0000369826800250026C868904204D94869B2
:104DD000904201D9022070BDC868904204D248694F
:104DE000904201D20120F6E7C868904202D9C86813
:104DF000801A01E0C868101A05464869904202D935
:104E00004869801A01E04869101A06469D4203D39A
:104E10009E4201D30020DEE79D4201D20120DAE765
:104E20009E4201D20220D6E70320206000BFD2E7D5
:104E3000CC990020C86000202DE9F04105460E46BF
:104E40001746074CA069401CA06165602770B2B28C
:104E5000E9B2044B5868044B02F084FFBDE8F081CE
:104E6000CC990020C8600020D94C200070B50546C0
:104E7000064C20212046FDF719FC0020A0600122ED
:104E80002846A168FFF7D8FF70BD0000CC9900202C
:104E90002DE9F84305460E4617462A4C4FF0000808
:104EA000C14600200090E069401CE0616660A76098
:104EB000E0682061E56024488068A84203D2224867
:104EC0008068281A02E020488068401B804660699C
:104ED000404502D9C4F81480A761684600F036F84E
:104EE0008146B9F1000F09D0B9F1010F0CD0B9F129
:104EF000020F11D0B9F1030F1AD113E00020A06204
:104F0000204600F0CCF819E0012084F8200030465B
:104F1000A16900F087F811E0A068411C304600F05C
:104F200081F80BE0A068411E304600F07BF805E0F8
:104F30000098A062204600F0B2F800BF00BFBDE8B4
:104F4000F8830000189A0020C8600020F0B50346DE
:104F5000324933488268002400250026C868904200
:104F600002D9C868801A01E0C868101A04462C48A3
:104F7000C068A04201D30020F0BD486A012801D1D9
:104F80000020F9E791F82000012801D10020F3E783
:104F90004F6AC869B84209D38F688869B84201D19D
:104FA0000020E9E7012081F82000E5E7C869012831
:104FB00015D90869904202D9C868904205D308699A
:104FC00090420CD2C868904209D98F688869B8426B
:104FD00001D10020D0E7012081F82000CCE7C8688B
:104FE000904201D9012500E001264DB18868B0F555
:104FF000FF7F03D9092018600420BDE70220BBE72A
:105000003EB1886818B90A2018600420B4E703206C
:10501000B2E70B2018600420AEE70000189A0020C9
:10502000C860002070B504460D46AAB2E1B2034B39
:105030005868034B02F096FE70BD0000C860002067
:10504000914E200070B504460D4616462C210948A5
:10505000FDF72CFB0020074981F82000401E486125
:1050600008464462B2B2E9B2034B5868034B02F0FF
:1050700079FE70BD189A0020C8600020914E200073
:1050800010B502F053FE00B910BDFFF745FD10B991
:10509000FFF764FDF8E700F02DF800BFF4E700B576
:1050A0000346184600F004F802F0D4FE00BD0000EC
:1050B00001210E4A1171816A9160C169D160C16894
:1050C00011614168516181689161094AC1689268C2
:1050D000914204D9064AC1689268891A03E00449DA
:1050E0008968C268891A014AD16170475C9A0020B8
:1050F000C86000202DE9F04102F084FE064602F06F
:1051000093FE074609480468094845692021074875
:10511000FDF7CCFA601C05490860002008713A468A
:1051200031462846FFF78EFFBDE8F0815C9A0020EB
:10513000C860002010B512480069401C1049086181
:1051400002F08EFE0E49C86002F05CFE0C49486019
:1051500002F06AFE0A49886000200A49086008498E
:1051600048610846C06940B10C462489A2B20C4689
:105170002179E068E369984701E002F06BFE10BD19
:10518000AC99002000E500402DE9F04106460F46AD
:105190001C4C4FF6FF75238C102B0AD32088214618
:1051A0006084CD835B1E0B841E22891C2046FDF784
:1051B00006FA608C3246394605F01AF910B10C2017
:1051C000BDE8F081208C102804D3401C2084608C22
:1051D000E08308E0618C24F81010208C401C2084AF
:1051E000608C401C608400F00FF80028E8D0218C0F
:1051F000491E89B22184628C521E628424F81150A7
:10520000DEE700001474002010B5054A24214FF495
:10521000204005F0EDF808B10C2010BD002010BDB5
:10522000147400207CB500251B48006800F10804B8
:105230001A48007810B1002004F078FC00BF082262
:105240006946204604F082FCBDF800004FF6FF716D
:10525000884202D0BDF8000008B9254615E0BDF827
:10526000020000F069FABDF802100831084486B265
:105270003146204600F076FA044609480068844228
:1052800002D30748056800E0D9E700BF034800786B
:1052900004F04CFC28467CBDCC5E0020D95E00208A
:1052A000D45E0020FEB506460C4602AA21463046D2
:1052B00008F028FF08B10298FEBD029808B10298D4
:1052C00002E022480068083005460020029020488D
:1052D000007810B1002004F029FC00BF08226946C4
:1052E000284604F033FCBDF800004FF6FF718842F9
:1052F00003D100202080029020E0BDF80000B042E1
:1053000005D114B1BDF802002080029516E0BDF869
:10531000020000F011FABDF802100831084487B20B
:105320003946284600F01EFA05460A4800688542BC
:1053300003D300202080029000E0CFE700BF0448A4
:10534000007804F0F3FB0298B6E70000CC5E002082
:10535000D95E0020D45E002008B505F0CDFA01F03A
:1053600071F9D8B100208DF80000A3208DF801005C
:1053700002208DF802006846FFF618FA08494FF639
:10538000FF700860091D8011086007F011FF05F02B
:1053900027F908F0C9FC05F091F908BDFEE7000007
:1053A00080A4004002494968002900D0084770479E
:1053B0004861002070B5044600BFFDF7EBFB0546D1
:1053C0000120FDF765FC0948047024B9482208490A
:1053D0000848FDF739F91DB90020FDF759FC02E036
:1053E0000120FDF755FC00BF70BD0000685E002085
:1053F00028950020002000E010B5074840680749C4
:10540000486006480830402203490831FDF71CF97E
:1054100003200249086010BDE0940020002000E055
:10542000002003490968002900D0084770470000A0
:105430004861002070B500BFFDF7ACFB05460120B8
:10544000FDF726FC0B48047834B948220A490B487A
:10545000FDF7FAF8FFF7D0FF0120064908701DB9E3
:105460000020FDF715FC02E00120FDF711FC00BF54
:10547000204670BD685E0020002000E028950020D6
:1054800013B501216846FEF73FF801201CBD00005E
:105490002DE9F04F8DB0884608200C9000240020A4
:1054A0000B904FF008090A90CDF824808246FFF750
:1054B000B9FE054605F6FF70691EC1F30B01401ADF
:1054C0007C490968401A0121C1EB1030C4B20B9429
:1054D00014B101200990824608F036FDE3E0002077
:1054E000069007906CB17349096801EB04300422FF
:1054F00006A9FFF731F8042803D00F200DB0BDE84E
:10550000F08F002002900390A5208DF808008DF800
:1055100009409DF82C008DF80A00BDF83000ADF868
:105520000E009DF818008DF80B00BDF81A00ADF8BC
:105530000C006048006800EB043048440A905E4864
:105540000068484408904FF480515B48006804F0BC
:10555000A1FA08B91020D1E79DF8180048B19DF8CC
:105560001820012308A90AA809F05CFC08B10F2043
:10557000C4E7BDF81A0048B1BDF81A20002308A9F5
:105580000AA809F04FFC08B10F20B7E700BF49494E
:105590000A980968401AA0EB0430C0F58055082D20
:1055A0002DDD0120082304AA08A900900AA809F00B
:1055B00003FC08B10F20A1E7BDF810004FF6FF7102
:1055C000884200D133E0083DBDF8120000F0B4F885
:1055D000BDF812104718AF4208DDAAB2002308A98F
:1055E0000AA809F01FFCD8B10F2087E7BAB2002340
:1055F00008A90AA809F016FC90B10F207EE7A8B20E
:1056000000F09AF828441FFA80FB01205B462B4AE1
:1056100008A900900AA809F0CFFB08B10F206DE798
:1056200025480899006800F580508142AFD300BF3B
:10563000082202A920480068FEF7DCFF082801D0F4
:105640000F205BE71B49096801EB04304FF48051E0
:1056500004F020FA08B9102050E7BAF1000F0DD07D
:105660001449096801EB0430042206A9FEF7C2FFC1
:10567000042801D00F2041E74FF0000A09AB0CAA23
:105680000BA902A809F0F8FB0646012E06D101037A
:105690000948006804F0FEF900202FE70EB10F2042
:1056A0002CE7601CC4B20648407AA042BFF617AF90
:1056B000002023E7CC5E0020D05E0020349800203C
:1056C0009496002001460020087108790A78104459
:1056D000087108798A78104408710879704710B504
:1056E00002460020507100BF05E053790C5C234452
:1056F0005371431C98B253888342F6DC507910BD35
:1057000010B500220A480068C0F3160108489C380A
:10571000D0F8A000C0F3160205481C380068C0F39A
:10572000C113501A034C54F82340604310BD0000CD
:105730009C200F408062002001460020084A127819
:1057400062B10A46CB1701EB93739B10A1EB830365
:10575000DB43D8B2421CD0B200F003007047000017
:10576000D95E002070B506460C4600253519214645
:10577000304602F0BDFD08B1082000E000200544DD
:10578000284670BD024600210BE0084850F8313031
:10579000501E834204D1054800EBC10040687047A9
:1057A000491C1029F1DB0020F9E70000709500206A
:1057B000002101E0491C4008C207FBD008467047A1
:1057C00070B5044600BFFDF7E5F905460120FDF779
:1057D0005FFA0020144908701448154908601548FC
:1057E00015490860482215491548FCF72DFF154852
:1057F000124948600320086048221348FCF724FF40
:1058000048220F490D48FCF71FFF882C01D008F0F3
:1058100049FA1DB90020FDF73BFA02E00120FDF72F
:1058200037FA00BF70BD0000685E0020B55320004D
:105830004C6100203554200048610020002000E029
:105840002895002080A10020E09400202DE9FE434F
:105850000546002403208DF8000000260C4F4FF071
:105860000108E8070BD008FA04F0019007EBC40028
:105870004068029057F8341009B168468847641CA4
:10588000A4B26D08761C082EEBDBBDE8FE83000099
:105890009C6E002010B588B004460CB908B010BD4D
:1058A00020680090207900F003000190A068029029
:1058B000E06803902069049060690590A0690690F3
:1058C000606800090790684602F03CFD00BFE5E70C
:1058D00070B5FF2024490968C9B201400C4600BFD9
:1058E0002248D0F88400C0F34000054664B3204647
:1058F00002F01CFD00BFE0431B49086000BF00BF71
:105900006FF002001949C1F8840000BF00BF1648BB
:105910001838006800F0010040B104F0100028B110
:1059200024F010041020FFF65BF811E000BF0F48D0
:10593000806800F0010040B104F0200028B124F09C
:1059400020042020FFF64CF802E02046FFF77EFFFF
:1059500045B13CB900BF6FF00200044984310860D2
:1059600000BF00BF70BD000008A2004000A00040C2
:1059700070B504460D464DB100BF06480068E1B25F
:1059800008430549C1F8E40100BF02E02046FFF6E4
:105990001FF870BDE4A1004000A00040012181403B
:1059A000024A12688A4301490A6070475462002023
:1059B000034804490860044804490860704700002F
:1059C0007B511000DC0A0020E3511000E00A0020A7
:1059D00001218140024A12681143014A1160704757
:1059E0005462002010B504460448006820B12046E7
:1059F00002490968884710BD0120FCE700610020CA
:105A000010B504460448006820B1204602490968E0
:105A1000884710BD0120FCE70461002070B50446F2
:105A200000250CB9012070BD94F82D0001280BD180
:105A300000BF002084F82C0000BF206C002868D034
:105A40002046216C884764E094F82D00022809D094
:105A500094F82D00042805D0606C40F004006064C8
:105A6000012556E02179206802F0FDFE00BF217972
:105A7000206803F03FFA0028F9D12179206802F06C
:105A800036FF2179206802F022FF2179206801F198
:105A90000802012393404FF44872135000BF21794C
:105AA000206801F10802012393404FF44A72135019
:105AB00000BF2179206802F012FF2179206802F0EE
:105AC000ABFE2179206802F09DFE21792068012338
:105AD0008B40C0F8483300BF2179206801238B40F8
:105AE000C0F8503300BF2179206802F090FE217980
:105AF000206802F0DBFE01212046FEF79BFE00BF7E
:105B0000002084F82C0000BF206C10B12046216CCE
:105B10008847284687E700002DE9F041044614B97C
:105B20000120BDE8F081534807685348D0F8008051
:105B300000BF4146384613F68BFA00BF4E48456811
:105B4000FCF76EFF4D4800684FF47A71B0FBF1F03E
:105B500000FB01F62179206801EB410202EBC10252
:105B600000EBC202126C42F4807201EB410303EBC2
:105B7000C10300EBC3031A6400BF19E03E4840684C
:105B8000401BB04214D9606C40F02000606400BF3C
:105B9000002084F82C0000BF03212046FEF74AFEB7
:105BA00000BF4146384613F631FA00BF0320B8E77C
:105BB0002179206801EB410202EBC10200EBC20235
:105BC000126CC2F34022002AD8D02179206802F05A
:105BD0004AFE29484568FCF723FF284800684FF42F
:105BE0007A71B0FBF1F000FB01F619E02248406841
:105BF000401BB04214D9606C40F02000606400BFCC
:105C0000002084F82C0000BF03212046FEF712FE7E
:105C100000BF4146384613F6F9F900BF032080E77C
:105C20002179206803F066F90028DFD12179206806
:105C300001EB410202EBC10200EBC202126C22F442
:105C4000807201EB410303EBC10300EBC3031A6451
:105C500000BF01212046FEF7EDFD00BF002084F8C3
:105C60002C0000BF00BF4146384613F6CFF900BFF5
:105C7000002056E7FCED00E0001000E04855002051
:105C8000014609B90420704791F82D00FBE7000098
:105C900010B58CB0044614B901200CB010BD94F8B6
:105CA0002D00F8B9002084F82C003949206888427A
:105CB00005D100BF00203749086000BF0AE036491F
:105CC0002068884206D100BF00203249091D0860C3
:105CD00000BF00BF00BF00BF00BF00202F49086009
:105CE00000BF00BF02212046FEF7A4FD684603F076
:105CF00076FAA0680990E0680A9060690490A0694B
:105D00000590E0690690206A079020690290606A19
:105D10000390A06A0B9021796A46206802F0D6FFB2
:105D20000020606401212046FEF784FD2046FEF736
:105D3000A4FD00212046FEF7D7FD154920688842C2
:105D40000CD1174800782279012191400843144969
:105D500008701449002000F089FD0FE00E4920680A
:105D600088420BD10E4840782279012191400843A6
:105D70000B4948700B49012000F078FD01212046B5
:105D8000FEF70AFD002084F82C0000BF85E7000024
:105D9000009001408CD71D4200A0014008D51D4253
:105DA000E4600020154B100010B5044604B910BD86
:105DB00094F82D0000B9FAE7207921684FF4427277
:105DC0005258012383401A40012383409A4201D153
:105DD000012200E000225AB3207921684FF44C726E
:105DE0005258012383401A40012383409A4201D133
:105DF000012200E00022DAB1606A18B92179206836
:105E000002F06DFD2179206802F001FD606C40F028
:105E10000100606404212046FEF70CFD00BF002055
:105E200084F82C0000BFE06B10B12046E16B88477E
:105E3000207921684FF43A725258012383401A4066
:105E4000012383409A4201D1012200E000224AB39B
:105E5000207921684FF444725258012383401A403C
:105E6000012383409A4201D1012200E00022CAB1FD
:105E7000606A18B92179206802F039FD217920681B
:105E800002F0CAFC606C606401212046FEF7D2FC7F
:105E900000BF002084F82C0000BF606B10B12046CA
:105EA000616B8847207921684FF43C725258012376
:105EB00083401A40012383409A4201D1012200E02D
:105EC0000022FAB1207921684FF44672525801231A
:105ED00083401A40012383409A4201D1012200E00D
:105EE00000227AB12179206802F08CFC606C606439
:105EF00000BF002084F82C0000BFA06B10B120462A
:105F0000A16B884700BF52E72DE9F04104460D46DA
:105F100016461F460748006850B13B4632462946A0
:105F20002046DFF810C0DCF800C0E047BDE8F08193
:105F30000120FBE7F46000202DE9F04104460D4606
:105F400016461F460748006850B13B463246294670
:105F50002046DFF810C0DCF800C0E047BDE8F08163
:105F60000120FBE7F06000202DE9F84304460E46CF
:105F700017461D464FF0000814B90120BDE8F8830C
:105F80002DB9606C40F0080060640120F6E700BFA6
:105F900094F82C00012801D10220EFE7012084F8B9
:105FA0002C0000BF94F82D0001287DD1002120464F
:105FB000FEF7F2FB2046FEF760FC02212046FEF7CA
:105FC00039FC2179206802F071FC20690090217968
:105FD0003B463246206802F025FC21792A4620689B
:105FE00002F0A0FF2179206802F016FC21792068D8
:105FF00002F0DBFC2179206802F004FC21792068A2
:1060000002F0BDFC2179206802F001FC21792068B2
:1060100002F0C0FC21790022206803F028F82179E1
:106020000022206803F049F821790022206803F05B
:1060300031F82179206802F063FC21790022206880
:1060400003F0ADF821790022206803F0B8F8217937
:10605000206802F01AFC21790022206802F0E7FF94
:1060600021790022206802F0F2FF217900222068C5
:1060700002F0CAFF21790022206802F0B2FF2179E4
:106080000022206802F09BFF21790022206803F0A3
:106090004EF821790022206803F06EF82179002261
:1060A000206803F057F800E004E02179206802F04E
:1060B00054FC06E04FF0020800BF002084F82C00DA
:1060C00000BF40465AE72DE9F04104460E46174608
:1060D0009846002543463A4631462046FFF72CFFB6
:1060E00005461DB92179206802F01BFC2846BDE851
:1060F000F0812DE9F84304460E4617461D464FF041
:10610000000804B135B9606C40F0080060640120FB
:10611000BDE8F88300BF94F82C00012801D10220CB
:10612000F6E7012084F82C0000BF94F82D00012828
:106130007DD100212046FEF72FFB2046FEF79DFB78
:1061400002212046FEF776FB2179206802F0AEFBA3
:106150002179206802F060FB2179206802F0C7FBFA
:106160002179206802F04EFB2179206802F0AFFB14
:106170002179206802F04BFB2179206802F0AFFB07
:1061800021790022206802F072FF21790022206824
:1061900002F093FF21790022206802F07BFF217931
:1061A000206802F0ADFB21790022206802F0F7FFA1
:1061B00021790022206803F002F82179206802F09A
:1061C00064FB21790022206802F031FF217900224E
:1061D000206802F03CFF21790022206802F014FFC1
:1061E00021790022206802F0FCFE2179002220683B
:1061F00002F0E5FE21790022206802F098FF217963
:106200000022206802F0B8FF21790022206802F005
:10621000A1FF2069009021793B463246206802F0B8
:1062200001FB21792A46206802F07CFE00E004E0B0
:106230002179206802F075FB06E04FF0020800BFEC
:10624000002084F82C0000BF404661E72DE9F843A8
:1062500004460D4616461F46DDF8208008480068B3
:1062600060B13B46324629462046DFF814C0CDF8DF
:106270000080DCF800C0E047BDE8F8830120FBE7C0
:10628000F86000202DE9F84304460F4690461E466C
:10629000089D4FF0000914B90120BDE8F88306B14C
:1062A0002DB9606C40F0080060640120F5E700BF84
:1062B00094F82C00012801D10220EEE7012084F897
:1062C0002C0000BF94F82D0001287DD1002120462C
:1062D000FEF762FA2046FEF7D0FA02212046FEF7CA
:1062E000A9FA2179206802F0E1FA21792A6A206866
:1062F00002F0BDFE2179AA69206802F0DEFE217954
:10630000AA6A206802F0C6FEA869B0F1805F0AD1CF
:106310002179206802F054FB217905F11C022068E4
:1063200002F04DFF08E02179206802F0E9FA2179B6
:106330000022206802F043FF286AB0F1006F0AD102
:106340002179206802F0F8FA217905F12402206809
:1063500002F07DFE08E02179206802F096FA2179AA
:106360000022206802F073FE21792A68206802F07A
:106370004BFE21796A68206802F033FE2179AA6811
:10638000206802F01CFE2179EA68206802F0CFFE46
:1063900021792A69206802F0EFFE21796A69206874
:1063A00002F0D8FE20690090217943463A462068E1
:1063B00002F038FA21793246206802F0B3FD2179E3
:1063C000206802F029FA00E018E02179206802F044
:1063D000ECFA2179206802F015FA2179206802F0A0
:1063E000CEFA2179206802F012FA2179206802F0B1
:1063F000D1FA2179206802F0B0FA06E04FF00209E4
:1064000000BF002084F82C0000BF484645E72DE976
:10641000F84304460E4617469846DDF820900025BE
:1064200043463A4631462046CDF80090FFF70EFF2E
:1064300005461DB92179206802F073FA2846BDE8A7
:10644000F8832DE9F84304460F4690461E46089D02
:106450004FF0000914B90120BDE8F88306B12DB949
:10646000606C40F0080060640120F5E700BF94F81C
:106470002C00012801D10220EEE7012084F82C0035
:1064800000BF94F82D0001287DD100212046FEF7A1
:1064900083F92046FEF7F1F902212046FEF7CAF9FA
:1064A0002179206802F002FA2179206802F0B4F91B
:1064B0002179206802F01BFA2179206802F0A2F904
:1064C0002179206802F003FA2179206802F09FF90F
:1064D0002179206802F003FA21792A6A206802F003
:1064E000C6FD2179AA69206802F0E7FD2179AA6A30
:1064F000206802F0CFFDA869B0F1805F0AD1217950
:10650000206802F05DFA217905F11C02206802F092
:1065100056FE08E02179206802F0F2F92179002284
:10652000206802F04CFE286AB0F1006F0AD1217990
:10653000206802F001FA217905F12402206802F0B6
:1065400086FD08E02179206802F09FF92179002278
:10655000206802F07CFD21792A68206802F054FD51
:1065600021796A68206802F03CFD2179AA682068D8
:1065700002F025FD2179EA68206802F0D8FD217932
:106580002A69206800E018E002F0F6FD21796A69C6
:10659000206802F0DFFD20690090217943463A46E9
:1065A000206802F03FF921793246206802F0BAFCF7
:1065B0002179206802F0B5F906E04FF0020900BF2A
:1065C000002084F82C0000BF484645E710B504467B
:1065D000002012F6DDFE204612F6F6FD10BD00008A
:1065E00010B50446034812F6D3FE204612F640FECC
:1065F00010BD00005C6200207047704770B5044613
:106600000D462A462146002013F648F808B9012015
:1066100070BD0020FCE7000000B101B97047044ADA
:1066200092680260024AD2680A6000BFF6E7000082
:10663000680D002010B513F6F5F808B1012010BD63
:106640000020FCE710B513F6F9F808B9012010BDD9
:106650000020FCE770B504460D4616463246294632
:10666000204613F6CFF908B9304670BD0020FCE78C
:1066700010B50446204613F6C7FA10BD2DE9F047C1
:10668000C0B080468946144622464946404613F625
:1066900041FB8246BAF1000F34D100252646B4F5FD
:1066A000807F02D94FF4807000E02046074600BF8B
:1066B00008EB05003A46694613F6A4F98246BAF19A
:1066C000000F1BD109EB05003A466946FBF72CFF8A
:1066D000A0B9F61B1EB9204640B0BDE8F0873D4486
:1066E000B6F5807F02D94FF4807000E0304607464F
:1066F000A54202D2E819A04201D901E000E0D7E7A3
:1067000000BF00BF0020E7E72DE9FE4380460F46AB
:106710003846FFF74DF885B20024DFF834900D4E6F
:1067200059F8340040450ED105EB041085B28DF8C0
:106730000040019706EBC5004068029056F83520EE
:106740000AB168469047641C032CE9DBBDE8FE8370
:10675000D4FD20009C6D002070B504464FF6FF70FC
:10676000A16B01400D463DB12946204602F04BFD8C
:1067700029462046FFF7C8FF70BD30B589B00546F1
:106780000C4605B10CB909B030BD206801902079E4
:1067900000F003000290A0680390E0680490206974
:1067A000059060690690A0690790606800090890EC
:1067B00001A9284602F02AFD00BFE4E770B50446AF
:1067C0000D462946204602F01BFF70BD10B54AB1A8
:1067D00000BF0A4B1B68CCB22343094CC4F8D43128
:1067E00000BF09E000BF054B1B68CCB2A343044CBB
:1067F000C4F8D43100BF00BF10BD0000D4A10040D8
:1068000000A0004010B504460748006820B12046AB
:1068100005490968884705E0202C03DA0020034970
:1068200041F8240010BD000030610020AC9B002026
:1068300010B504460B48006820B120460949096894
:1068400088470EE0202C0CDA0021074800F0704049
:1068500000F10070044AC2F3130200EB421040F84A
:10686000241010BD3C6100201861002070B5044662
:106870000D460848006828B129462046054A126896
:10688000904705E0202C03DA15B1034840F8245066
:1068900070BD0000246100202C9B002010B5044630
:1068A0000748006820B1204605490968884705E087
:1068B000202C03DA0020034941F8240010BD000019
:1068C000286100202C9B002070B504460D46084826
:1068D000006828B129462046054A1268904705E01D
:1068E000202C03DA15B1034840F8245070BD000095
:1068F0001C610020AC9A002010B5044607480068CF
:1069000020B1204605490968884705E0202C03DAB4
:106910000020034941F8240010BD00002061002040
:10692000AC9A002070B504460D460748006828B1AF
:1069300029462046044A1268904704E0202C02DAD7
:10694000024840F8245070BD2C610020AC9B002010
:1069500010B504460B48006820B120460949096873
:1069600088470EE0202C0CDA0121074800F0704027
:1069700000F10070044AC2F3130200EB421040F829
:10698000241010BD386100201061002070B504464D
:106990000D460C48006828B129462046094A12686D
:1069A00090470DE0202C0BDA074800F0704000F112
:1069B00000700549C1F3130100EB411040F8245069
:1069C00070BD0000346100200861002004280BDA4B
:1069D000064A02F0704202F10072044BC3F3130343
:1069E00002EB431242F82010704700000C610020B7
:1069F0001CB505F0CDFD04218DF8001006490022DC
:106A000051F8203083F88E2051F8200001680029C9
:106A100001D0684688471CBD4C5D00202DE9F0413F
:106A2000040027D094F85000012826D0012084F8D3
:106A3000500094F8510080074FF000063BD52068C5
:106A4000C6622068C16CD1B1C56CC66408212046FD
:106A500006F090F8A8071A4F04D5A06C0764A06C44
:106A6000FEF7CEFFE80726D0E06C0764E06CFEF787
:106A7000C7FF20E00120BDE8F0810220FBE794F889
:106A80005100C00609D50821204606F073F8E662D9
:106A90002068C16A41F001010CE094F851002228FD
:106AA00009D10821204606F065F8A6632068C16A6E
:106AB00041F01001C162304684F85060DBE700000D
:106AC000FDC12000F8B504004FF020008DF8000053
:106AD00012D094F85000012810D0012584F85050AD
:106AE00094F851000026002856D02D4F2068B84257
:106AF00006D102F0F0FE05E00120F8BD0220F8BD4D
:106B000002F02EFF204600F04FFA2068B84204D170
:106B1000244805602348E43007E02349884205D132
:106B20002048001D05601F48E8300560EFF310871E
:106B30000120FCF7B3F81D4800681D4908401D49B5
:106B4000814301D11C4805601848083000681B4982
:106B500008401B49814302D11748803805603846F8
:106B6000FCF79CF8204606F01AF8666500212046DE
:106B700006F000F80121204606F06EF8694620462E
:106B800005F0F2FC012803D19DF80000FFF786FE16
:106B90000121204605F008FF84F850600020F8BD70
:106BA00000C00040C4D51D4200C10040ACEE004012
:106BB000CFC37F7ACF035E70A8D41D420FFF7F0042
:106BC0000F3F7C001CB50446204605F0E1FC002286
:106BD0008DF80020616D0191064951F8203083F84D
:106BE0008E2051F820000168002901D068468847AE
:106BF0001CBD00004C5D002090F851007047000063
:106C0000F0B58BB004461C2262496846FBF71CFDB8
:106C1000614800686149B0FBF1F005905D481C30A7
:106C200007C807AB83E8070020208DF8280064B16F
:106C30005B4F94F8500001280AD0012084F85000DE
:106C400094F85100002628B124E001200BB0F0BDDB
:106C50000220FBE784F850605248066051488038B3
:106C600006602068B84204D14F4806604E48E430C0
:106C700007E04E49884205D14B48001D06604A484E
:106C8000E8300660204600F090F941F28831204655
:106C900000F0F4FA0021206802F01BFE00212068B9
:106CA00002F015FE0420216808650020216848656F
:106CB000024601212046A36D06F004F905002BD100
:106CC0002068816821F0010181602068B842606815
:106CD0000FD10190A0680290E0680390A069049031
:106CE00020690590E06906906946206802F002FE7E
:106CF00008E00790A0680890E068099007A920685C
:106D000002F03AFE626921680B6823F030031343F6
:106D10000B60012804D0012584F85060284695E7CF
:106D20002068816841F0010181606068B0F5E02F62
:106D300005D81F48E0631F4820641F480DE0B0F5E8
:106D4000702F05D81D48E0631D4820641D4804E0ED
:106D50001D48E0631D4820641D486064204605F01E
:106D60001EFF66650121204605F004FF0021204634
:106D700005F072FF0AA9204605F0F6FB012804D1B0
:106D800014499DF82800FFF771FD0121204605F008
:106D90000BFEC1E750FF20004855002080841E00F4
:106DA00000C00040A8D41D42C4D51D4200C100400F
:106DB0006DCA200085C920002BCB200025CA2000E9
:106DC0003DC920008FCA200049CA200061C92000A7
:106DD000DDCA2000554B1000F8B504460068056B6D
:106DE00015F02E0F6E4E28D0816C0091C16A21F0F3
:106DF0003F01C162606D40F002006065206AB042F0
:106E000003D19321204600F04DFA2068C16C69B18E
:106E10000021C1646348A16C0864E16C0864A06C43
:106E2000FEF7EEFDE06CFEF7EBFD06E001212046EB
:106E300005F0A0FE2046FFF7C5FEE8065FD5204618
:106E4000216C8847A06B002859D12068C16A21F0C5
:106E50001001C16294F85100222808D094F8510022
:106E6000322819D094F8510008282AD047E001218F
:106E7000204605F07FFE0121206802F0FCFC00287E
:106E8000F9D1206AB04203D19121204600F00AFADC
:106E9000204600F0D5F932E00121204605F06AFED7
:106EA0000121206802F0E7FC0028F9D1206AB042F5
:106EB00003D19221204600F0F5F9204600F052FB64
:106EC0001DE00121204605F055FE2068816821F073
:106ED000010181602068816841F001018160012128
:106EE000206802F0C8FC0028F9D1206AB04203D122
:106EF0009521204600F0D6F92046FFF779FDE807F6
:106F000038D0E06A58B12046E16B8847E06A002833
:106F100030D100212068BDE8F84002F0DABC2068DA
:106F2000C16A21F00101C16294F85100122822D0F7
:106F300094F8510008281DD10121204605F01AFEC1
:106F40002068816821F0010181602068816841F03A
:106F5000010181600121206802F08DFC0028F9D137
:106F6000206AB04203D19421204600F09BF92046CC
:106F7000FFF73EFDF8BD0121204605F0FBFD012194
:106F8000206802F078FC0028F9D1206AB04203D1D1
:106F90009021204600F086F9204600F0C3FAF8BDA3
:106FA000AFBEADDEFDC12000704770472DE9FE4F3A
:106FB0001F4691468A460400DDE90C6B324807C83B
:106FC0008DE8070005D031492068884204D10820A7
:106FD00060650120BDE8FE8F94F8500001280DD0B7
:106FE000012084F8500094F851004FF00008012867
:106FF00006D0022584F850802846EBE70220E9E716
:107000000021204605F0D0FC204605F0C8FDC4F85C
:1070100054800221204605F0ADFD5B46002201218F
:10702000204605F04FFF050028D1606800904FF41E
:1070300040706946CDE90106204605F09DF8A6633B
:107040006663C4E90B79A76232212046C4F824A004
:1070500005F090FD206A0E4EB04203D10421204677
:1070600000F00EF95946204605F004FC0546206A5A
:10707000B04203D18421204600F014F901212046BA
:1070800005F078FDB6E700009CFF200000C100403D
:10709000AFBEADDE2DE9FE4F1F4691468A46040085
:1070A000644807C80C9E8DE8070023D02046A16CD9
:1070B00001F000F9082500B32046E16C01F0FAF870
:1070C000D8B15D492068884217D0BAF1000F14D0BA
:1070D000B9F1000F11D094F8500001280FD0012011
:1070E00084F8500094F851004FF00008012808D0AF
:1070F000022585E00120BDE8FE8F6565FAE70220E4
:10710000F9E70021204605F04FFC204605F047FD39
:10711000C4F854800221204605F02CFD00220121F4
:107120002046A36D05F0CEFE050065D1A06CC069B8
:1071300020B1102804D0202806D00FE0E7620DE02F
:10714000F80703D1780808E0B80705D0606D40F073
:1071500008006065012501E0B808E062E06CC069E4
:1071600020B1102806D0202811D017E0A6634FF4D4
:10717000E02012E0F00705D0606D40F00800606587
:10718000012539E07008A0634FF4702005E0B007D6
:10719000F2D1B008A0634FF4F810009065BB4FF433
:1071A00040706946CDE90106204604F0E5FF2068FD
:1071B000C16A41F00801C162E06AA062C4F824A07B
:1071C000A06B606332212046C4F8309005F06CFD5E
:1071D000A36A514622686032A06CFEF795FE636B8D
:1071E0004A4621686031E06CFEF78EFE05000AD049
:1071F000606D40F0040060650121204605F0BAFC96
:1072000084F8508013E084F85080206A0B4988424B
:1072100003D10C21204600F033F82068C16C41F006
:107220000101C1642068C16C41F00201C1642846BB
:1072300061E70000FCFF200000C10040AFBEADDEF2
:107240001CB50446204605F0A3F902218DF8001074
:10725000616BA26B891AADF804100749002251F83E
:10726000203083F88E2051F820000168002901D0D9
:10727000684688471CBD00004C5D00208165704752
:1072800010B505F085F90649002251F82000D0F824
:10729000840041680078BDE81040FCF709B900009F
:1072A0004C5D002010B505F073F90649012251F834
:1072B0002000D0F8840041680078BDE81040FCF759
:1072C000F7B800004C5D00202DE9FE4399461646B4
:1072D0000F460400334807C88DE8070014D0AFB14B
:1072E000A6B194F85000012815D0012084F8500070
:1072F00094F851004FF0000801280ED0022584F8C0
:1073000050802846BDE8FE830120FBE7606D40F019
:1073100008006065F8E70220F4E70021204605F048
:1073200043FB204605F03BFCC4F854800221204674
:1073300005F020FC4B4600220121204605F0C2FD4D
:1073400005002AD1606800904FF480706946CDE94D
:107350000106204604F010FFE662A662C4F83880F9
:107360006762C4F8348012212046C4F8308005F0EA
:1073700001FC206A0C4EB04203D101212046FFF7E8
:107380007FFF4946204605F015FC0546206AB042BD
:1073900003D181212046FFF785FF0121204605F01A
:1073A000E9FBACE778FF2000AFBEADDE2DE9FE4F74
:1073B00099460400594829C861F31F620C9F8DE863
:1073C0002900154616D02046A16C00F073FFA0B12D
:1073D000B9F1000F11D094F85000012810D001200D
:1073E00084F8500094F851004FF00008012809D0AB
:1073F000022661E00120BDE8FE8F08206065F9E704
:107400000220F8E70021204605F0CEFA204605F0DC
:10741000C6FBC4F854800221204605F0ABFB0022D5
:1074200001212046A36D05F04DFD060040D1A06C62
:10743000C0694FF4E02A4FF4702B20B1102806D019
:10744000202811D017E0E762CDF800A013E0F8077C
:1074500005D0606D40F008006065012628E07808DE
:10746000E062CDF800B006E0B807F2D1B808E062FB
:107470004FF4F81000904FF480706946CDE9010791
:10748000204604F079FEE06AA06212212046C4F88A
:10749000249005F009FCA36A494622686032A06C7A
:1074A000FEF732FD06000AD0606D40F00400606512
:1074B0000121204605F05EFB84F850802CE084F822
:1074C0005080206A1649884203D109212046FFF7DF
:1074D000D7FE009850450CD1280E21680866C5F3E8
:1074E000074021680866C5F3072021680866E8B2EE
:1074F00005E0584506D1280C21680866A8B2216825
:10750000086604E0B0F5F81F01D120680566206820
:10751000C16C41F00201C16430466CE72C002100CF
:10752000AFBEADDE7CB50546284605F031F8044611
:1075300001208DF80000A86AE96A401AADF804003D
:10754000FBF754FD0649002051F8242082F88E00F4
:1075500051F824000168002901D0684688477CBDA5
:107560004C5D00201CB50446204605F011F80321AF
:107570008DF80010616BA26B891AADF804100749F1
:10758000002251F8203083F88E2051F82000016845
:10759000002901D0684688471CBD00004C5D0020D2
:1075A00070B504460CB9012070BD0021204607F0DB
:1075B00069F8204607F0C2F800BF00BFFBF7EDFAFC
:1075C00005460120FBF76DFB8221206802F000FADE
:1075D0002846FBF766FB00BF00BF94F83400012883
:1075E0001AD1E06A50B11448E16A0864E06AFEF713
:1075F00007FA68B1E06A016C884709E000206084FE
:1076000010220021204607F063F8204600F016F80B
:10761000002084F834000DE00020608404202168FC
:10762000C1F8880010220021204607F051F82046BA
:1076300000F004F80020B7E7FDE320001CB506F0D9
:107640004BFF03218DF800100649002251F820302D
:1076500083F8002151F820000168002901D0684614
:1076600088471CBDDC6E002038B504462020009001
:107670000CB9012038BD94F8370018B994F83800D7
:1076800000287DD014220221204607F021F820682E
:107690000021C0F8901000BF41F288330022402141
:1076A000204607F047F9206802F08AF9204600F0EA
:1076B000D5F945492068884209D100BF01204349D6
:1076C000086000BF00BF4249086000BF2FE0414989
:1076D000206888420BD100BF01203C49091D086089
:1076E00000BF00BF3A49091D086000BF1FE03A49CA
:1076F000206888420BD100BF01203449083108605E
:1077000000BF00BF32490831086000BF0FE03349B5
:10771000206888420BD100BF01202C490C31086041
:1077200000BF00BF2A490C31086000BF00BF00BF86
:10773000FBF733FA05460120FBF7B3FA00BF2848F0
:1077400000682849084028490840884206D100BFFF
:1077500001201E49D839086000BF00BF00BF204883
:10776000083000682149084021490840884205D175
:1077700000BF01201F49086000BF00BF284600E08D
:107780001BE0FBF78EFA00BF0020E063002202211D
:10779000204606F09DFF0121204607F02FF869469C
:1077A000204606F06FFE012803D19DF80000FFF788
:1077B00075F80121204606F065FF00BF002084F81F
:1077C000360000BF00BF55E700C5004080D51D4210
:1077D00080D61D4200C6004000C7004000C80040DF
:1077E000ACEE0040CFC37F7ACF035E700FFF7F0007
:1077F0000F3F7C0028D41D421CB50446204606F0ED
:107800006BFE00228DF80020E16B0191064951F8D2
:10781000203083F8002151F820000168002901D0B0
:10782000684688471CBD0000DC6E0020014609B98F
:10783000002070470022002391F8372091F838305B
:1078400042EA0300F5E7000010B586B004462020A8
:10785000009014B9012006B010BD94F8370000283C
:1078600050D194F8380000284CD184F8360000BF7D
:107870004049086000BF00BF3E498039086000BF32
:107880003D49206888420AD100BF00203949D831DB
:10789000086000BF00BF3949086000BF2FE03849C9
:1078A000206888420BD100BF00203249DC310860DB
:1078B00000BF00BF3149091D086000BF1FE031490A
:1078C000206888420BD100BF00202A49E0310860BF
:1078D00000BF00BF29490831086000BF0FE02A49F6
:1078E000206888420BD100BF00202249E4310860A3
:1078F00000BF00BF21490C31086000BF00BF204617
:1079000000F0ADF814220221204606F0E1FE606886
:107910000190A068029020690490E068039060697B
:10792000059001A9206802F05EF80020E0631022B3
:107930000221204606F0CCFE204606F0FFFE002184
:10794000204606F05BFF6946204606F09BFD0128B5
:1079500004D10E499DF80000FEF788FF0121204662
:1079600006F090FE00BF002084F8360000BF00BF84
:1079700071E70000A8D41D4200C5004080D61D421A
:1079800000C6004000C7004000C80040C94B1000BE
:107990002DE9F04104462068816801F00F010D4691
:1079A00000260027022D06D0042D08D0062D14D065
:1079B0000C2D4DD108E0204606F0E3FE49E0002101
:1079C000204606F009FE44E0A069012800D1012705
:1079D0003946204606F000FE3BE0206802F000F841
:1079E0000646E06B06F01E010843E0632068C16FA5
:1079F000C1F3C00119B10021204606F0EDFDE06B96
:107A000000F00200F0B1204606F00AFD94F83500BF
:107A1000012813D1206B50B10F48216B0864206BF3
:107A2000FDF7EEFF30B1206B016C884702E0204685
:107A3000FFF7E2FE002084F8350008E02046FFF75B
:107A4000DBFE04E02046FFF7D7FE0020E06300E005
:107A500000BF00BFBDE8F08155E3200070477047CC
:107A60001CB50446204606F037FD02218DF80010B3
:107A7000218D628D891AADF80410044951F8200057
:107A80000168002901D0684688471CBDDC6E0020D3
:107A90002DE9F04104460E4615461F4614B9012053
:107AA000BDE8F08106B12DB9E06B40F48060E06381
:107AB0000120F5E794F83700102835D10021204641
:107AC00006F0E0FD204606F039FE0020E0631122BA
:107AD0000021204606F0FCFD25840FE03B460022F5
