:020000040020DA
:10200000000004204D212000FF212000014010008D
:10201000FD212000F1212000A52820000000000063
:10202000000000000000000000000000154010004B
:10203000FB212000000000007D272000B1272000A8
:1020400000F002F800F071F80AA090E8000C824459
:102050008344AAF10107DA4501D100F066F8AFF236
:10206000090EBAE80F0013F0010F18BFFB1A43F076
:1020700001031847A0A60000E0A600000A444FF0A4
:10208000000C10F8013B13F0070408BF10F8014BD7
:102090001D1108BF10F8015B641E05D010F8016B1C
:1020A000641E01F8016BF9D113F0080F1EBF10F880
:1020B000014BAD1C0C1B09D16D1E58BF01F801CBA3
:1020C000FAD505E014F8016B01F8016B6D1EF9D526
:1020D0009142D6D370470000103A24BF78C878C127
:1020E000FAD8520724BF30C830C144BF04680C601E
:1020F000704700000023002400250026103A28BF66
:1021000078C1FBD8520728BF30C148BF0B60704769
:10211000782900F0C080002070471FB50AF0F8F958
:1021200000F050F81FBD10B510BDDFF810D0FFF75C
:10213000F4FF06F055F900F0DFFA0000000004207B
:1021400003B4FFF7F0FF03BC00F07DFE01488047B9
:102150000148004755282000EB8320000FB40449B4
:1021600010B503AA029800F0B5FA10BC5DF814FB94
:102170004C59002070B5044685690068C10601D538
:10218000302600E02026C00707D070BDD4E9012129
:1021900030469047206A401C20626D1EF6D570BD07
:1021A00070B5044685690078C00707D170BDD4E9D1
:1021B000012120209047206A401C20626D1EF6D528
:1021C00070BD000070B5064C7C44064D7D4403E0B4
:1021D000206820448047241DAC42F9D170BD000026
:1021E00088A5000088A50000007B00F080007047F3
:1021F000FEE710B501F024FC10BDFEE7FEE7FEE7A8
:1022000058585247010000002556000000202000C9
:10221000002020007EEE9247010100000000000037
:1022200000000000000000000000000000000000AE
:10223000000000000000000000000000000000009E
:10224000F0B40D460188090502D5214C7C4402E01A
:102250001F4C7C440E34002100F1240608E002F0FB
:102260000F071209E75D42EA03721B097754491C04
:1022700052EA0307F3D102780023120704D5702D28
:1022800006D009B1022311342246F0BC00F0B0B9E7
:1022900001231034F8E770B504460D462146106856
:1022A000AFF30080024629462046BDE87040002377
:1022B000C6E7D21D22F00703D3E90023C0E7036875
:1022C000126843F0200303600823C3610023B7E7CB
:1022D00088A400002DE9F05F894604464FF0000A0B
:1022E000DFF874B1FB44C0F820A02046E1688847BD
:1022F000002874D0252806D0D4E901219047206A0F
:10230000401C2062F1E700265F462046E1688847CE
:102310002028054607DB312D05D2781910F8200C4E
:1023200008B10643F1E7B00701D526F00406C4F86A
:102330001CA00027C4F818A02A2D09D0284600F0B8
:1023400075FD38B304EB8708303DC8F8185019E024
:1023500059F8041B204604EB87029161E168884725
:10236000012F054618D1E069002820DA26F0200662
:102370001DE0D8F8180000EB800005EB4000303875
:10238000C8F818002046E1688847054600F04EFD71
:102390000028EED1012F0AD02E2D08D12046E16869
:1023A00088477F1C0546022F46F02006C4DBA06943
:1023B000002803DA404246F00106A061F00701D090
:1023C00026F010066C2D0BD0682D09D04C2D39D07D
:1023D0006A2D35D0742D35D07A2D33D016E038E003
:1023E000E1682F4620468847B842054609D16C2F40
:1023F00026D04FF48060E1680643204688470546B2
:1024000004E06C2F1AD04FF4807006430DB3A5F191
:102410004100192802D8203546F400664A4629466C
:10242000204626604E46FFF773FE80B101280BD090
:10243000F61D26F0070000F1080956E74020E4E702
:102440008020D8E70020D6E706F104094DE72846AA
:1024500052E7206ABDE8F09F18A4000040EA01039B
:1024600010B59B070FD1042A0DD310C808C9121F3D
:102470009C42F8D020BA19BA884201D9012010BD77
:102480004FF0FF3010BD1AB1D30703D0521C07E044
:10249000002010BD10F8013B11F8014B1B1B07D1A8
:1024A00010F8013B11F8014B1B1B01D1921EF1D119
:1024B000184610BD032A40F2308010F0030C00F0E3
:1024C000158011F8013BBCF1020F624498BF11F86E
:1024D00001CB00F8013B38BF11F8013BA2F1040227
:1024E00098BF00F801CB38BF00F8013B11F003039F
:1024F00000F02580083AC0F0088051F8043B083A03
:1025000051F804CBA0E80810F5E7121D5CBF51F8A4
:10251000043B40F8043BAFF30080D20724BF11F81E
:10252000013B11F801CB48BF11F8012B24BF00F883
:10253000013B00F801CB48BF00F8012B704710B5F4
:10254000203AC0F00B80B1E81850203AA0E81850AB
:10255000B1E81850A0E81850BFF4F5AF5FEA027C6C
:1025600024BFB1E81850A0E8185044BF18C918C0DB
:10257000BDE810405FEA827C24BF51F8043B40F87C
:10258000043B08BF7047D20728BF31F8023B48BF61
:1025900011F8012B28BF20F8023B48BF00F8012B9F
:1025A00070474FF0000200B5134694469646203916
:1025B00022BFA0E80C50A0E80C50B1F12001BFF4FC
:1025C000F7AF090728BFA0E80C5048BF0CC05DF862
:1025D00004EB890028BF40F8042B08BF704748BFB0
:1025E00020F8022B11F0804F18BF00F8012B704724
:1025F0002DE9F0470D4699469246044600F124081D
:102600000168880604D5E06921F01001216000E02E
:102610000120A84201DD471B00E00027A1697A19CB
:1026200002EB0900081AA0612078C00602D42046F7
:10263000FFF7A0FD002608E0D4E901211AF8060002
:102640009047206A401C761C20624E45F4DB2078BF
:10265000C0060AD52046FFF78DFD06E0D4E901212A
:1026600030209047206A401C2062381EA7F10107E5
:10267000F4DC07E0D4E9012118F805009047206A4E
:10268000401C2062281EA5F10105F3DC2046FFF75F
:1026900087FD2078000602D50220BDE8F0870120E2
:1026A000FBE7000001694A1C02610878704700B529
:1026B0008FB0CDE901310021059105497944CDE97B
:1026C000031011466846FFF705FE0FB000BD00007D
:1026D000E5FFFFFF074B70B50D467B44FFF7E7FFB3
:1026E00004462846FFF780FD10B14FF0FF3070BD63
:1026F000204670BD3722000010B50446AFF30080BD
:102700002046BDE81040FFF71BBD000010B50324B4
:1027100000BF0D480068012121EA900078B900BF90
:1027200009480C30006800F0010040B100BF0648C5
:102730008C38006800F007002040A04200D010BD97
:1027400008F006F800BFFAE7D4A400400748006884
:1027500000F0100008B10648704706480068C0F352
:102760000240054951F82000F6E7000084E30040EC
:10277000006CDC0200A00040C4C62000FEE70000A0
:10278000052800DB70470949096801F4E021B1EB35
:10279000004F08D0054A126822F4E02141EA0042C5
:1027A000024B1A6000BF00BFECE7000000A0004031
:1027B000FEE700000249096801F007010170704757
:1027C00000A0004010B500220021072800DB10BD4A
:1027D000144B1B6803F0070383421BD0114B1B688B
:1027E00023F0070242F003030E4C23602346DB680C
:1027F00023F0070141F00103E36000BF00BF00BF09
:1028000000BF42EA0003074C2360074B53F8203017
:102810000B43E360054B53F82030054C236000BFA9
:10282000D5E7000000A00040A8C620008CC620000C
:10283000E85300200448006800F00700034951F8FD
:10284000200003490860704700A000408CC62000AB
:10285000E85300200248016841F4700101607047AC
:1028600088ED00E002480068001D03F05DBC000038
:10287000C065002002484068001D03F055BC000000
:10288000C065002002488068001D03F04DBC0000B8
:10289000C06500200248C068001D03F045BC000070
:1028A000C0650020FEE70000002807DB00F01F02E3
:1028B00001219140024A430942F823107047000069
:1028C00080E200E000280DDB00BF00BF00F01F0227
:1028D000012191404209920002F1E022C2F8001168
:1028E00000BF00BF704700280DDB00BF00BF00F035
:1028F0001F02012191404209920002F1E022C2F838
:10290000001100BF00BF704700280FDB410989009C
:1029100001F1E021D1F8001100F01F0201209040E8
:10292000014201D00120704700207047002070470D
:10293000EFF310807047EFF310807047EFF31080D3
:102940007047C1B281F31188704780F310887047D7
:1029500080F31088704780F31088704780F31088E8
:10296000704700002DE9F74F0446904600BF4FEA3C
:102970005806019D4FF0000B7448754908603F20D0
:102980007449496860F30501724A516000BF00BF95
:102990001046406820F480301146486000BF00BFF8
:1029A0006B48006820F4700040EA045068490860F1
:1029B00000BF00BF0846006820F4702040EA0440D1
:1029C000086000BF0D2C07D100BF0846006840F426
:1029D0000040086000BF00BF0E2C08D100BF5C485B
:1029E000006840F480405A49086000BF00BF4FF4BF
:1029F00000505749096821F400510143544A1160BD
:102A000000BF00201146096821F0605101431160A8
:102A100000BF04201146096821F00F010143116035
:102A200000BF002000F006F9012801D0BDE8FE8FAC
:102A300000BF4748006840F080404549086000BF3B
:102A40004FF0000A0DE000BF4248806840F480303B
:102A50004049886000BF0AF101008246401C00B96D
:102A600003E004F047F80028EDD100BF072000F094
:102A7000E1F8012800D0D9E754E04FF0000B2CE03A
:102A8000BBF57A7F24D900BF3148006820F0804030
:102A90002F49086000BF00BF0846006840F00040B2
:102AA000086000BF00BF0846006820F000400860D2
:102AB00000BF002000F0BEF8012800D0B6E726488D
:102AC0000068401C2449086005200AF675FC4EE7A2
:102AD00001200AF671FC0BF1010B04F00BF8012840
:102AE000CED100BF1B48806800F07F008146B14511
:102AF00001D9304600E0484681464FF0000A0DE01B
:102B000000BF1448076800BF25F8027B4FF6FF702E
:102B100000EA174025F8020B0AF1010ACA45EFD373
:102B2000A6EB0906002EA8D15EB908F0010040B15D
:102B300000BF03F0DFFF0128FBD100BF054800689C
:102B40002880002000F076F800BF6FE70A0708072A
:102B500000A8004000E00040785C002010B504466A
:102B600000BF00201A49086000BF00BF1849803923
:102B7000086000BF00BF1748406A17490860084650
:102B8000007800F0010020B10846008800F4807051
:102B900098B906E00CB9002010BD641E01200AF6A9
:102BA0000BFC00BF0B48806940F20111884201D143
:102BB000012000E000200028ECD008480068084907
:102BC000086004484068074908600120E4E7000005
:102BD00094D41D4200E00040D45C002000A80040D6
:102BE000CC5C0020D05C00200D4800680D49486096
:102BF0000D4800680D4908600D48007800F001009C
:102C000020B10B48008800F4807040B900BF05482F
:102C1000006A20F001000349086200BF00BF70474E
:102C2000D05C002000E00040CC5C002000A8004008
:102C3000D45C002070B5044603F054FFA04201D1DB
:102C4000012070BD00BF1048C06820F0070020437D
:102C50000D49C86000BF002508E003F043FFA04213
:102C600000D107E001200AF6A7FB6D1C4FF6FF70AC
:102C70008542F2D300BF4FF6FF70854201D100209C
:102C8000DFE70120DDE7000000E0004010B500BFF5
:102C9000EFF3108004460120FFF75AFE204610BDD6
:102CA00070B52DED108B8AB005460C469FED510B8B
:102CB0008DED080B20216846FFF773FC9FED4D0B4F
:102CC000B0EE408AF0EE608A102269462846FFF78F
:102CD00049FE00260FE006F108013DF8110009F059
:102CE000DFF941EC190B53EC182B08F065FF41ECB0
:102CF000180B701CC6B2082EEDDB9FED400B53EC99
:102D0000102B51EC180B08F0FFFF41EC180B0D2DA8
:102D100041D1E08A09F0C4F941EC1B0B9FED390B5E
:102D200053EC102B08F0F0FF41EC190B608809F010
:102D3000B7F941EC1F0B9FED350B53EC102B09F04D
:102D4000C3F941EC1E0B9FED330B53EC102B09F034
:102D5000BBF941EC1C0BA08A09F0A2F941EC1E0B57
:102D600053EC182B09F0AEFA41EC1D0B53EC1C2B65
:102D700008F0CAFF41EC1B0B9FED280B53EC102B06
:102D800008F0C2FF41EC1A0B53EC192B08F014FFAA
:102D9000CDE9080127E00E2D25D1608809F080F9E2
:102DA00041EC1C0B9FED190B53EC102B09F08CF927
:102DB00041EC1A0B208809F073F941EC1C0B53EC21
:102DC000182B09F07FFA41EC1B0B53EC1A2B08F07F
:102DD0009BFF41EC190B9FED130B53EC102B09F0EB
:102DE00073F9CDE908019DED080B0AB0BDEC108B1D
:102DF00070BD0000000000000000000000000000A6
:102E000000002040000000000000594000000000C9
:102E10000000F0BF000000000000004079E926310A
:102E200008AC5CBFB76DDBB66DDB0E4030380A28EE
:102E300001D2012070470020704710B5044620469B
:102E4000FFF786FD10BD704710B50446204603F01D
:102E5000CDFD10BD10B50446204606F031F810BD7A
:102E600070B504460D462946204607F0DBFE29468C
:102E7000204605F093FA70BD0C2801D3002070475E
:102E800000EBC000054900EB400011F820201AB10A
:102E900001EB8000001D704700207047185F002084
:102EA0002DE9F05F0546894600244FF0FF3846467D
:102EB0004FF0010A002D16D04749032006F02EFDE1
:102EC0004649232006F02AFD287970B101280CD04C
:102ED00002280AD0032808D0042806D0052804D0E8
:102EE0004046BDE8F09FE520FBE7EFF310830121AA
:102EF00081F310883A4F04EBC40101EB410117F84C
:102F0000212052B107EB8102D5F800B0D2F804C0FD
:102F1000DC4514D1127A824211D104EBC40000EBDB
:102F2000400207EB8202384692F83120022A04D090
:102F300026B2012200F8212004E00C2402E0641CE7
:102F40000C2CD8D383F310880C2C3FD20022032101
:102F5000244806F049F804EBC40000EB400007EBFE
:102F60008004296861602879207204F10C00242211
:102F700005F10801FFF7E3FA1B48A0631B48206432
:102F80001B48E06300206064C4F8689019496068D9
:102F900088420AD10320FFF7B7FC98B9032017F63F
:102FA0000FF9032017F62AF90CE01349884209D1DA
:102FB0002320FFF7A9FC28B9232017F601F92320C5
:102FC00017F61CF9201D02F087F88246BAF1000FAF
:102FD00000D04646304684E7B1411000E141100080
:102FE000185F00201CC52000C93E2000013D2000C4
:102FF000B13C20000090014000A0014030B597B0E6
:1030000005460C461C22454910A8FFF798FA1C22D9
:1030100042491C3109A8FFF792FA20223F49383172
:1030200001A8FFF78CFAD4B13D49062006F076FCE2
:103030003C49072006F072FC3B491B2006F06EFC61
:103040003A49122006F06AFC34496C39A1F12C028D
:10305000052D61D2DFE805F0060606213900E520DE
:1030600017B030BD207931F810001190607932F836
:1030700010001290A079139020681090274884388F
:1030800050F8350021880904090C04D018B110A9A2
:1030900002F097FD39E0E420E2E7207901EB4000FF
:1030A000808A0A90607902EB4000C0880B90A0797A
:1030B0000C9020680990207810F0FF0F03D009A829
:1030C00001F016FE21E0E420CAE72079031F042B5B
:1030D00001D8E720C4E7022819D001200290207906
:1030E00001EB4000008D0390607902EB4000808985
:1030F0000490A079059020680190207810F0FF0FCF
:1031000008D001A9002002F07DFD0020A8E70220E0
:103110000290E4E7E420A3E7E620A1E7BCC5200095
:103120000943100003431000FF421000F942100051
:10313000002806D0002904D0024AD269002A00D013
:1031400010477047D06600200248006A002800D06F
:1031500000477047D066002010B508480178002964
:103160000AD101210170064840F64EFCBDE810402E
:103170000021044840F6DEBD10BD00004859002083
:10318000814210000D8F200070B504460125207883
:103190000A4E012800D135702078022808D17570B8
:1031A000A088708072880649A1F50070FFF782F947
:1031B0002078002801D13570757070BD50590020FD
:1031C000F868002010B50446114822784FF0FF310E
:1031D00050F82220A2F86810227850F82200A0F8B7
:1031E0006A10606B002801D1A16B71B120B120463B
:1031F00000F070F8002807D1A06B20B1204600F045
:1032000009F8002800D1002010BDE42010BD000006
:10321000C065002030B58BB004462C216846FFF70E
:10322000C0F9A06B009094F83D008DF8040025488B
:10323000009B2549254A834205D1237801EB0311E0
:103240004968029107E0009B934204D1237801EB87
:103250000311C9680291029929B10099814205D1EF
:103260000B20039007E0E7200BB030BD00989042A0
:1032700001D1092003904FF400100490C012059072
:103280000020069007900890099040200A900021A5
:103290006846FFF705FE21780D4D55F82110A1F87D
:1032A0006A00002801DAE420DEE7FFF7E5FD217877
:1032B00055F821104863217855F82110091D016344
:1032C0000020D1E70090014044C6200000A001404A
:1032D000C065002030B58BB004462C216846FFF74E
:1032E00060F9606B009094F83C008DF8040025486C
:1032F000009A2549824202D10B22029204E0009AF0
:103300008A4201D109220292009B204A834205D1C0
:10331000207802EB00100068039007E000988842D4
:1033200004D1207802EB0010806803900398D0B19C
:103330004FF480100490002005904FF480710691A6
:103340000790089009900A9000216846FFF7A8FDB1
:1033500021780F4D55F82110A1F86800002804DAF3
:10336000E4200BB030BDE720FBE7FFF785FD2178B7
:1033700055F821100863217855F82110091D0163C3
:103380000020EEE70090014000A0014044C620006C
:10339000C06500207CB500251B4800904FF40076E6
:1033A00001966A4619491A4800F000F9002829D107
:1033B000174941F2883423464D22583900F0B4F9B8
:1033C0001349234609220B39002000F0ADF91048BB
:1033D00000F024F8002815D10D4C5C3C0BE060781F
:1033E0000028FCD0257062880A49002000F0A4F86B
:1033F00020780028FCD0657032460749002000F094
:1034000033F8ECE77CBD0000F86A00208931200029
:10341000AC590020F8660020F868002070B500283C
:103420000CD004780F4E56F8241049B191F86C2056
:1034300032B191F86D1029B1EA2070BDE52070BD60
:10344000E92070BDEFF31085012181F31088FFF7AB
:10345000B9FE20B956F82420012182F86D1085F3B9
:10346000108870BDC065002070B5042801D3E82025
:1034700070BD134C54F820304BB193F86D5035B1FA
:1034800039B132B193F80351012D04D010E0E92095
:1034900070BDE42070BD002583F8035154F820303E
:1034A0005B680225C3F8885054F820305B681B68BD
:1034B00054F82000001D02F09FFE0028EAD170BDE4
:1034C000C065002070B504461A4D55F824007030D0
:1034D00006F0B9F882B21646A2B155F8240090F869
:1034E000011101290ED0012180F80411802A0FD387
:1034F00055F82400802200F18001703006F0B8F801
:1035000080260CE055F82410002081F8000170BDE1
:1035100055F8240000F18001703006F0A9F855F844
:103520002400324600F18001001D02F073FF0028E4
:10353000EDD170BDC065002070B50446042C01D3E8
:10354000E82070BD184D55F8240090B190F86D300A
:103550007BB181B17AB1002680F8026155F8240070
:10356000703006F0C9F855F8240090F8001121B128
:103570000AE0E92070BDE42070BD90F8011119B98E
:1035800090F86C10012901D0E22070BD012180F873
:1035900000112046FFF796FF20B155F8241081F85E
:1035A000006170BD002070BDC06500202DE9F041B4
:1035B00005460F46002D06D02AB12C78042C04D3E2
:1035C000E820BDE8F081E520FBE7344E05F1580026
:1035D00046F82400D2E900310A467030194606F058
:1035E0001DF8291D286D07F03FFC0028E9D156F889
:1035F0002410281D486656F82400076056F8240059
:103600001822083005F14001FEF799FF244856F8CA
:10361000241000EBC4056868486056F82400001DBB
:1036200002F0EEFB56F82400001D02F0D9FC1C4805
:1036300001220321103805F0D7FC56F82410012090
:1036400081F86C0056F82410002081F8000156F82B
:10365000241081F8010156F8241081F8020156F86F
:10366000241081F803010F490C2006F057F90E4988
:103670000D2006F053F90D49342006F04FF90C499E
:10368000352006F04BF995F9010016F699FD95F9EC
:10369000010016F6B3FD002093E70000C06500208E
:1036A00024C62000652820007528200085282000D9
:1036B000952820002DE9F04104461A4D55F82400C4
:1036C000703005F0C0FF82B2164600277AB155F877
:1036D000240090F80111012909D0802A0ED300F1AD
:1036E00080017030802205F0C3FF80260BE055F882
:1036F000240080F800710020BDE8F08100F1800115
:10370000703005F0B5FF55F8240080F8047155F8C5
:103710002400324600F18001001D02F0E3FE002883
:10372000EAD1E9E7C065002070B5042801D3E8209C
:1037300070BD104D55F8204064B194F86C604EB1E6
:1037400051B14AB15E1C09D044F62066B34205D996
:10375000E42070BDE52070BDE42070BD002684F833
:10376000026155F82000001D02F006FE0028F4D189
:1037700070BD0000C06500202DE9F74F84B00546FC
:103780000C46022604F10809204601F003FA074618
:103790003E48D0F804A000200390B5F5804F0ADB26
:1037A000B5F5004F07DA3948406839490968A0EB98
:1037B000010A01200390E019504501DD052662E071
:1037C0003248006800F6FF7030490988491EC1F38D
:1037D0000B01401AC0F3073B039810B12C48006856
:1037E00000E0002002902B4800682B490968401A2D
:1037F000001F2649497AA1EB0B01A0EBC100234928
:103800000968411A0298A1EB000809EB070040453E
:1038100032DD002011231E224FF4004100900120D0
:1038200043F6ECFF0021084601F07CF8C8B91749BF
:10383000487A03F009F806461EB1304607B0BDE8E5
:10384000F08F002012231E224FF40041009001202F
:1038500043F6D4FF21462846069A07F017FE06468F
:1038600010E0002013231E224FF40041009001209D
:1038700043F6C4FF0F2605E021462846069A07F0C6
:1038800005FE064600BF3046D8E70000AC6E0020BB
:10389000145B0020205B0020185B002038B506F088
:1038A000FDFC28B140F27E41084606F04FFA04E0E4
:1038B00040F27E41084606F049FA2748007878B180
:1038C00026480068009006F05BFA04462448008809
:1038D000009006F055FA0546214606F073FC05E017
:1038E0004FF466714FF47F7006F06CFC1D4805F0D4
:1038F00013FA06F0D3FC10B91B48007880B91B48B6
:1039000018490A6802604A684260098901811849B9
:10391000144802680A6042684A600089088119E018
:103920001249104802680A6042684A6000890881AA
:103930000F490C4802680A6042684A6000890881A1
:1039400040F21A400949088006F096F90749888034
:103950000120487238BD0000C85C0020C45C002013
:10396000C65C00209A5C0020865C0020A45C0020DD
:10397000AE5C002010B50121002002F02FFA0120DA
:1039800015F61EFB02200649087005F03BFF0549AD
:10399000322005F0C3FF3220FEF7A5FF10BD000066
:1039A000F45C0020F321200010B52DED028B00BF48
:1039B00017480068C0F30B00044600BF14480830E5
:1039C000006820F07F4008EE100A601C00EE100A2C
:1039D000B8EE400ADFED0F0A20EE200AB8EE481AD2
:1039E000C0EE010AB6EE000A30EE800ABCEEC00A54
:1039F000094880ED000A006805F066F9F0EE408A9B
:103A0000B0EE680A06F06EFCBDEC028B10BD000043
:103A100004E400400024F44BE05C002010B50021D9
:103A2000084602F0DBF9012015F6C2FA0348806867
:103A300020F480700149886010BD000000A00040A3
:103A400010B516480068401C1449086000BF1448AF
:103A5000006800F0010040B100BF1148083800685C
:103A600000F0010008B105F025FF00BF0D48006817
:103A700000F0010040B100BF0A480838006800F0BB
:103A8000010008B100F0EEFD05F0B2FE20B102F039
:103A9000A5FD08B1FFF7C2FF10BD00000C5D0020BE
:103AA00008E4004008E5004010B505F0A1FE20B193
:103AB00002F094FD08B1012010BD0020FCE710B514
:103AC00005F01EFF00F074FD10BD10B505F084FA7E
:103AD00000F0E6F8BDE8104005F04EBE10B500BF9E
:103AE0002348006820F000402149086000BF214AB7
:103AF0001078214A117840EA81031D4A121D12688C
:103B000063F31F721A4B1B1D1A6000BF0620194673
:103B1000096821F4E07141EA80111A46116000BF82
:103B200000BF101F006840F00040111F086000BF78
:103B300000BF1248006840F001001149C1F8880236
:103B400000BF1049312005F0E9FE312000280DDBCF
:103B500000BF00BF00F01F02012191404209920006
:103B600002F1E022C2F8001100BF00BF00BF10BD8B
:103B700004A90040685C0020695C002088E20040E5
:103B800000E000400D2720002DE9F04104460D46DD
:103B900016460948007810B1002004F0D5FA3246E4
:103BA0002946204604F0BAFA07460348007804F094
:103BB000CBFA3846BDE8F081255B00202DE9F041C5
:103BC00005460E4614460948007810B1002004F05E
:103BD000BBFAA2B23146284604F0C6FA07460348AB
:103BE000007804F0B1FA3846BDE8F081255B00208A
:103BF0002DE9F04105460E4614460948007810B1FB
:103C0000002004F0A1FAA2B23146284604F00DFBD0
:103C100007460348007804F097FA3846BDE8F0817B
:103C2000255B00202DE9F04104460D461646094863
:103C3000007810B1002004F087FA32462946204669
:103C400004F032FB07460348007804F07DFA38465A
:103C5000BDE8F081255B00202DE9F04104460F46C8
:103C600015464FF00008206800F6FF702188491EB5
:103C7000C1F30B01401A21682944884201D84FF052
:103C800008082A4639462068FFF7B2FF86B205EBDE
:103C900008012068084420603046BDE8F08100003B
:103CA0000249014808607047815310006C030020EE
:103CB00030B40021114B01EBC10202EB420213F8B8
:103CC0002240012C15D103EB82020579147AAC4213
:103CD0000FD152680468A2420BD101EBC10000EB86
:103CE000400003EB8000816E002905D030BC02202B
:103CF0000847491C0C29DED330BC7047185F0020F0
:103D000030B40021114B01EBC10202EB420213F867
:103D10002240012C15D103EB82020579147AAC42C2
:103D20000FD152680468A2420BD101EBC10000EB35
:103D3000400003EB8000816E002905D030BC0020DC
:103D40000847491C0C29DED330BC7047185F00209F
:103D500010B50246012302B109B9002010BD084C7C
:103D60001068A04202D10020087007E0054C1068DE
:103D7000A04202D10120087000E000231846EDE7C0
:103D80000090014000A0014070B500240D4E04EBEE
:103D9000C40000EB400016F8201001290DD106EBFD
:103DA00080000546001D01F08FF918B1012801D0EF
:103DB000002070BD281D00F741FD641C0C2CE6D3CB
:103DC000012070BD185F00202DE9F84305460F461D
:103DD0002020009069462846FFF7BAFF012837D116
:103DE0009DF8001088401B490968084080B35FBBFC
:103DF00000BF00BFEFF310800646012080F310885B
:103E000000BF4FF0000814492868884202D1DFF84B
:103E10004C8007E012492868884203D1DFF83C80D3
:103E200008F11808002408E058F8240018B158F8E0
:103E3000240000F757FD601CC4B2062CF4DB00BF61
:103E400086F3108800BF00BF9DF8000001F0F8FE67
:103E5000BDE8F883605D002000900140947200206E
:103E600000A00140F8B504460D4620200090002631
:103E700004B9F8BD69462046FFF76AFF012810D152
:103E8000012D02D00DB1012606E02068D0F8A00374
:103E900008B9002600E0012631469DF8000001F037
:103EA0007DFF84F82D5000BFE3E738B5044620209D
:103EB000009069462046FFF74BFF012803D19DF88B
:103EC000000001F04DFF38BD30B40021114B01EB73
:103ED000C10202EB420213F82240012C15D103EB80
:103EE00082020579147AAC420FD152680468A2426A
:103EF0000BD101EBC10000EB400003EB8000816EB1
:103F0000002905D030BC01200847491C0C29DED30C
:103F100030BC7047185F002070B504460D46044859
:103F2000006820B129462046014A1268904770BDBA
:103F3000285D002070B504460E46002E43D0374958
:103F4000206888421CD12079062819DA00202179BE
:103F5000334A42F82100002506E0314850F8250098
:103F600000B103E0681CC5B2062DF6DB00BF062DCC
:103F700052D1002001F0C8FE002001F04BFE4BE0C2
:103F800028492068884247D12079062844DA002150
:103F900022792348183040F82210002507E02048F5
:103FA000183050F8250000B103E0681CC5B2062D9A
:103FB000F5DB00BF062D2FD1012001F0A5FE012069
:103FC00001F028FE28E01549206888420FD12079A9
:103FD00006280CDA2079124941F8204012490020C5
:103FE00001F07AFE0E49002001F0A4FE14E00D4914
:103FF0002068884210D1207906280DDA21790848F6
:10400000183040F821400849012001F065FE0449BC
:104010001831012001F08EFE70BD000000900140BB
:104020009472002000A00140AD481000F0B5044695
:104030000D4616461F463B4632462946204600F0AE
:1040400009F802F051FBF0BD01480078704700000C
:104050005C72002030B501240A4D2C702C46606043
:10406000E2602361A160084CA4688C4203D2064C34
:10407000A4680C1B02E0044CA468641A014D6C6136
:1040800030BD00005C720020105D002010B502F011
:1040900003FB044618210548FEF783FA0020034974
:1040A0000870204600F07AF910BD00005C72002014
:1040B0002DE9F047054688461646324C3248876857
:1040C0004FF0000994F800A026626562BD4201D954
:1040D000E81B00E0781B81462B48C068484507D3A1
:1040E0003346424629460020FFF7A0FFBDE8F0878F
:1040F000A069484502D9C4F81890E661BAF1010FE9
:1041000021D165616069B84203D92069401CA06073
:1041100002E02069401EE060D4E9020188420BD22F
:10412000D4E9020108444008206101202070404683
:10413000216900F02BF8D9E7022020704046A168E1
:1041400000F024F8D2E7BAF1020F10D1E069B042D2
:1041500006D13346424629460020FFF767FFC5E7F0
:10416000032020704046E16900F010F808E0BAF141
:10417000030F05D13346424629460020FFF756FF7C
:1041800000BFB3E704720020105D002070B5044644
:104190000D460648806A401C04498862AAB2E1B212
:1041A000034B5868034B02F027FA70BD04720020DD
:1041B000105D0020B140200070B505460F4C2C2149
:1041C0002046FEF7EEF90020A06040F2FF10E0600C
:1041D000D4E902010844400820614FF0FF30A0619B
:1041E000A06A401CA06201202070238A9AB2E9B222
:1041F000034B5868034B02F0FFF970BD04720020B6
:10420000105D0020B14020002DE9F84306460D4620
:104210009046344C94F80090B9F1010F0AD1E66051
:1042200040F2FF10206102220146284600F09CF86F
:10423000BDE8F883B9F1020F4AD1002700200090B1
:104240006661684600F050F807461FB92846FFF738
:10425000B3FFEDE7012F12D10F2D07DA0020A06088
:104260000122681CA16800F07FF8E1E70520E06109
:1042700043462A463146E069FFF7D8FED8E7022FC9
:1042800012D1002D07DD0020A060681E0122002150
:1042900000F06AF8CCE70620E06143462A46314642
:1042A000E069FFF7C3FEC3E7032F08D10098E06180
:1042B00043462A463146E069FFF7B8FEB8E70720D3
:1042C000E06143462A463146E069FFF7AFFEAFE7BB
:1042D0000820E06143462A463146E069FFF7A6FE22
:1042E00000BFA5E7E471002070B504461C491D48D5
:1042F0000369826800250026C868904204D948698D
:10430000904201D9022070BDC868904204D2486929
:10431000904201D20120F6E7C868904202D9C868ED
:10432000801A01E0C868101A05464869904202D90F
:104330004869801A01E04869101A06469D4203D375
:104340009E4201D30020DEE79D4201D20120DAE740
:104350009E4201D20220D6E70320206000BFD2E7B0
:10436000E4710020105D00202DE9F04105460E4665
:104370001746074CA069401CA06165602770B2B267
:10438000E9B2044B5868044B02F036F9BDE8F081FD
:10439000E4710020105D00200942200070B5054640
:1043A000064C20212046FEF7FCF80020A0600122E8
:1043B0002846A168FFF7D8FF70BD0000E471002017
:1043C0002DE9F84305460E4617462A4C4FF00008E3
:1043D000C14600200090E069401CE0616660A76073
:1043E000E0682061E56024488068A84203D2224842
:1043F0008068281A02E020488068401B8046606977
:10440000404502D9C4F81480A761684600F036F828
:104410008146B9F1000F09D0B9F1010F0CD0B9F103
:10442000020F11D0B9F1030F1AD113E00020A062DE
:10443000204600F0CCF819E0012084F82000304636
:10444000A16900F087F811E0A068411C304600F037
:1044500081F80BE0A068411E304600F07BF805E0D3
:104460000098A062204600F0B2F800BF00BFBDE88F
:10447000F883000030720020105D0020F0B5034684
:10448000324933488268002400250026C8689042DB
:1044900002D9C868801A01E0C868101A04462C487E
:1044A000C068A04201D30020F0BD486A012801D1B4
:1044B0000020F9E791F82000012801D10020F3E75E
:1044C0004F6AC869B84209D38F688869B84201D178
:1044D0000020E9E7012081F82000E5E7C86901280C
:1044E00015D90869904202D9C868904205D3086975
:1044F00090420CD2C868904209D98F688869B84246
:1045000001D10020D0E7012081F82000CCE7C86865
:10451000904201D9012500E001264DB18868B0F52F
:10452000FF7F03D9092018600420BDE70220BBE704
:104530003EB1886818B90A2018600420B4E7032047
:10454000B2E70B2018600420AEE7000030720020B4
:10455000105D002070B504460D46AAB2E1B2034BCF
:104560005868034B02F048F870BD0000105D002051
:10457000C143200070B504460D4616462C2109485B
:10458000FEF70FF80020074981F82000401E48611F
:1045900008464462B2B2E9B2034B5868034B02F0DA
:1045A0002BF870BD30720020105D0020C143200048
:1045B00010B502F005F800B910BDFFF745FD10B9C0
:1045C000FFF764FDF8E700F02DF800BFF4E700B551
:1045D0000346184600F004F802F086F800BD00001B
:1045E00001210E4A1171816A9160C169D160C1686F
:1045F00011614168516181689161094AC16892689D
:10460000914204D9064AC1689268891A03E00449B4
:104610008968C268891A014AD161704774720020A2
:10462000105D00202DE9F04102F036F8064602F058
:1046300045F80746094804680948456920210748A4
:10464000FDF7AFFF601C05490860002008713A467D
:1046500031462846FFF78EFFBDE8F08174720020D6
:10466000105D002010B512480069401C1049086117
:1046700002F040F80E49C86002F00EF80C4948609C
:1046800002F01CF80A49886000200A4908600849BD
:1046900048610846C06940B10C462489A2B20C4664
:1046A0002179E068E369984701E002F01DF810BD48
:1046B000C471002000E500407CB500251B4800685F
:1046C00000F108041A48007810B1002003F03CFD06
:1046D00000BF08226946204603F046FDBDF80000F1
:1046E0004FF6FF71884202D0BDF8000008B9254698
:1046F00015E0BDF8020000F04DFABDF802100831D7
:10470000084486B23146204600F05AFA0446094869
:104710000068844202D30748056800E0D9E700BF7B
:104720000348007803F010FD28467CBD185B00208C
:10473000255B0020205B0020FEB506460C4602AA41
:104740002146304606F06AF908B10298FEBD02988B
:1047500008B1029802E022480068083005460020AF
:1047600002902048007810B1002003F0EDFC00BF5B
:1047700008226946284603F0F7FCBDF800004FF612
:10478000FF71884203D100202080029020E0BDF814
:104790000000B04205D114B1BDF80200208002959E
:1047A00016E0BDF8020000F0F5F9BDF8021008317E
:1047B000084487B23946284600F002FA05460A48FE
:1047C0000068854203D300202080029000E0CFE7FC
:1047D00000BF0448007803F0B7FC0298B6E7000079
:1047E000185B0020255B0020205B002008B504F04A
:1047F0005BFA01F04BF9D8B100208DF80000A3203E
:104800008DF8010002208DF802006846FFF682FF55
:1048100008494FF6FF700860091D8011086005F017
:104820003FF904F0B5F805F0B6FE04F01FF908BD35
:10483000FEE7000080A4004002494968002900D03A
:10484000084770478C5D002070B5044600BFFEF736
:104850006FF805460120FEF778F80948047024B97E
:10486000482208490848FDF76AFE1DB90020FEF7F6
:104870006CF802E00120FEF768F800BF70BD000090
:104880000C5B0020406D0020002000E010B50748C0
:10489000406807494860064808304022034908310B
:1048A000FDF74DFE03200249086010BDF86C0020A2
:1048B000002000E0002003490968002900D00847D3
:1048C000704700008C5D002070B500BFFEF730F827
:1048D00005460120FEF739F80B48047834B9482220
:1048E0000A490B48FDF72BFEFFF7D0FF01200649D0
:1048F00008701DB90020FEF728F802E00120FEF73D
:1049000024F800BF204670BD0C5B0020002000E0B2
:10491000406D002013B501216846FEF709FC012017
:104920001CBD00002DE9F04F8DB0884608200C908A
:10493000002400200B904FF008090A90CDF8248045
:104940008246FFF7B9FE054605F6FF70691EC1F302
:104950000B01401A7C490968401A0121C1EB103053
:10496000C4B20B9414B101200990824605F078FF7F
:10497000E3E00020069007906CB17349096801EBF1
:104980000430042206A9FFF7FFF8042803D00F2003
:104990000DB0BDE8F08F002002900390A5208DF8A7
:1049A00008008DF809409DF82C008DF80A00BDF82C
:1049B0003000ADF80E009DF818008DF80B00BDF822
:1049C0001A00ADF80C006048006800EB0430484461
:1049D0000A905E480068484408904FF480515B4854
:1049E000006803F065FB08B91020D1E79DF81800B6
:1049F00048B19DF81820012308A90AA806F0C8FEAE
:104A000008B10F20C4E7BDF81A0048B1BDF81A205C
:104A1000002308A90AA806F0BBFE08B10F20B7E7DB
:104A200000BF49490A980968401AA0EB0430C0F554
:104A30008055082D2DDD0120082304AA08A9009027
:104A40000AA806F06FFE08B10F20A1E7BDF810001C
:104A50004FF6FF71884200D133E0083DBDF81200E7
:104A600000F098F8BDF812104718AF4208DDAAB25E
:104A7000002308A90AA806F08BFED8B10F2087E70B
:104A8000BAB2002308A90AA806F082FE90B10F204E
:104A90007EE7A8B200F07EF828441FFA80FB0120D0
:104AA0005B462B4A08A900900AA806F03BFE08B115
:104AB0000F206DE725480899006800F58050814275
:104AC000AFD300BF082202A920480068FFF7AAF868
:104AD000082801D00F205BE71B49096801EB04306F
:104AE0004FF4805103F0E4FA08B9102050E7BAF10E
:104AF000000F0DD01449096801EB0430042206A907
:104B0000FFF790F8042801D00F2041E74FF0000A8A
:104B100009AB0CAA0BA902A806F064FE0646012EFA
:104B200006D101030948006803F0C2FA00202FE70C
:104B30000EB10F202CE7601CC4B20648407AA04298
:104B4000BFF617AF002023E7185B00201C5B002096
:104B50004C700020AC6E00200146002008710879DE
:104B60000A781044087108798A7810440871087925
:104B7000704710B502460020507100BF05E0537920
:104B80000C5C23445371431C98B253888342F6DC77
:104B9000507910BD01460020084A127862B10A46D9
:104BA000CB1701EB93739B10A1EB8303DB43D8B2CC
:104BB000421CD0B200F0030070470000255B0020CB
:104BC00070B506460C46002535192146304601F0E1
:104BD0007BFF08B1082000E000200544284670BD96
:104BE000024600210BE0084850F83130501E834245
:104BF00004D1054800EBC10040687047491C1029EA
:104C0000F1DB0020F9E70000886D0020002101E0C1
:104C1000491C4008C207FBD00846704770B50446DF
:104C200000BFFDF785FE05460120FDF78EFE002042
:104C3000144908701448154908601548154908605A
:104C4000482215491548FDF77AFC15481249486075
:104C50000320086048221348FDF771FC48220F49E1
:104C60000D48FDF76CFC882C01D005F093FC1DB9B4
:104C70000020FDF76AFE02E00120FDF766FE00BF9E
:104C800070BD00000C5B002049482000905D0020B2
:104C9000C94820008C5D0020002000E0406D00200D
:104CA00080750020F86C00202DE9FE4305460024A5
:104CB00003208DF8000000260C4F4FF00108E80794
:104CC0000BD008FA04F0019007EBC4004068029092
:104CD00057F8341009B168468847641CA4B26D08BF
:104CE000761C082EEBDBBDE8FE830000806500200B
:104CF00010B588B004460CB908B010BD206800900B
:104D0000207900F003000190A0680290E068039011
:104D10002069049060690590A069069060680009A8
:104D20000790684601F0FAFE00BFE5E770B5FF2086
:104D30002A490968C9B201400C4600BF2848D0F88A
:104D40008400C0F340000546002C3CD0204601F012
:104D5000D9FE00BFE0432149086000BF00BF6FF0EB
:104D600002001F49C1F8840000BF00BF1B4818386B
:104D7000006800F0010070B104F0100058B124F098
:104D8000100410201549083909688143144AC2F8F3
:104D9000001200BF17E000BF1148806800F001005A
:104DA00070B104F0200058B124F0200420200B49F9
:104DB0000839096881430A4AC2F8001200BF02E0BC
:104DC0002046FFF771FF45B13CB900BF6FF002000C
:104DD00003498431086000BF00BF70BD08A20040D5
:104DE00000A0004001218140024A12688A43014923
:104DF0000A607047985E0020034804490860044830
:104E000004490860704700009D4F1000DC0A002034
:104E100005501000E00A002001218140024A12687A
:104E20001143014A11607047985E002010B5044696
:104E30000448006820B1204602490968884710BD2F
:104E40000120FCE7485D002010B5044604480068D6
:104E500020B1204602490968884710BD0120FCE7BF
:104E60004C5D002070B5044600250CB9012070BDD2
:104E700094F82D0001280BD100BF002084F82C00ED
:104E800000BF206C002868D02046216C884764E071
:104E900094F82D00022809D094F82D00042805D09C
:104EA000606C40F004006064012556E021792068C0
:104EB00002F0D1F800BF2179206802F013FC00282D
:104EC000F9D12179206802F00AF92179206802F0ED
:104ED000F6F82179206801F10802012393404FF48C
:104EE0004872135000BF2179206801F108020123A4
:104EF00093404FF44A72135000BF2179206802F0AA
:104F0000E6F82179206802F07FF82179206802F024
:104F100071F82179206801238B40C0F8483300BF25
:104F20002179206801238B40C0F8503300BF2179DC
:104F3000206802F064F82179206802F0AFF80121BE
:104F40002046FEF78FFF00BF002084F82C0000BF32
:104F5000206C10B12046216C8847284687E7000066
:104F60002DE9F041044614B90120BDE8F081534811
:104F700007685348D0F8008000BF4146384614F611
:104F800067F800BF4E484568FDF754FC4D4800687F
:104F90004FF47A71B0FBF1F000FB01F62179206843
:104FA00001EB410202EBC10200EBC202126C42F4BF
:104FB000807201EB410303EBC10300EBC3031A64EE
:104FC00000BF19E03E484068401BB04214D9606CF5
:104FD00040F02000606400BF002084F82C0000BF77
:104FE00003212046FEF73EFF00BF4146384614F637
:104FF0000DF800BF0320B8E72179206801EB4102DA
:1050000002EBC10200EBC202126CC2F34022002A82
:10501000D8D02179206802F01EF829484568FDF7AC
:1050200009FC284800684FF47A71B0FBF1F000FBEE
:1050300001F619E022484068401BB04214D9606C68
:1050400040F02000606400BF002084F82C0000BF06
:1050500003212046FEF706FF00BF4146384613F6FF
:10506000D5FF00BF032080E72179206802F03AFBDA
:105070000028DFD12179206801EB410202EBC10257
:1050800000EBC202126C22F4807201EB410303EBCD
:10509000C10300EBC3031A6400BF01212046FEF7E1
:1050A000E1FE00BF002084F82C0000BF00BF414695
:1050B000384613F6ABFF00BF002056E7FCED00E0DA
:1050C000001000E0E8530020014609B904207047B1
:1050D00091F82D00FBE7000010B58CB0044614B920
:1050E00001200CB010BD94F82D00F8B9002084F810
:1050F0002C0039492068884205D100BF002037497B
:10510000086000BF0AE036492068884206D100BF27
:1051100000203249091D086000BF00BF00BF00BF6A
:1051200000BF00202F49086000BF00BF02212046B9
:10513000FEF798FE684602F00FFCA0680990E06850
:105140000A9060690490A0690590E0690690206A61
:10515000079020690290606A0390A06A0B90217901
:105160006A46206802F0AAF9002060640121204606
:10517000FEF778FE2046FEF798FE00212046FEF757
:10518000CBFE1549206888420CD117480078227957
:10519000012191400843144908701449002000F08F
:1051A0006DFD0FE00E49206888420BD10E48407813
:1051B00022790121914008430B4948700B49012095
:1051C00000F05CFD01212046FEF7FEFD002084F882
:1051D0002C0000BF85E70000009001408CD71D42E5
:1051E00000A0014008D51D422C5D00205949100047
:1051F00010B5044604B910BD94F82D0000B9FAE7C3
:10520000207921684FF442725258012383401A409A
:10521000012383409A4201D1012200E000225AB3C7
:10522000207921684FF44C725258012383401A4070
:10523000012383409A4201D1012200E00022DAB129
:10524000606A18B92179206801F041FF217920684E
:1052500001F0D5FE606C40F001006064042120463E
:10526000FEF700FE00BF002084F82C0000BFE06BBA
:1052700010B12046E16B8847207921684FF43A72DB
:105280005258012383401A40012383409A4201D19E
:10529000012200E000224AB3207921684FF44472D1
:1052A0005258012383401A40012383409A4201D17E
:1052B000012200E00022CAB1606A18B92179206891
:1052C00001F00DFF2179206801F09EFE606C6064A2
:1052D00001212046FEF7C6FD00BF002084F82C0007
:1052E00000BF606B10B12046616B88472079216850
:1052F0004FF43C725258012383401A4001238340EB
:105300009A4201D1012200E00022FAB120792168FD
:105310004FF446725258012383401A4001238340C0
:105320009A4201D1012200E000227AB1217920685D
:1053300001F060FE606C606400BF002084F82C0007
:1053400000BFA06B10B12046A16B884700BF52E799
:105350002DE9F04104460D4616461F4607480068F1
:1053600050B13B46324629462046DFF810C0DCF8F3
:1053700000C0E047BDE8F0810120FBE73C5D002074
:105380002DE9F04104460D4616461F4607480068C1
:1053900050B13B46324629462046DFF810C0DCF8C3
:1053A00000C0E047BDE8F0810120FBE7385D002048
:1053B0002DE9F84304460E4617461D464FF00008F7
:1053C00014B90120BDE8F8832DB9606C40F00800E5
:1053D00060640120F6E700BF94F82C00012801D199
:1053E0000220EFE7012084F82C0000BF94F82D0084
:1053F00001287DD100212046FEF7E6FC2046FEF77D
:1054000054FD02212046FEF72DFD2179206801F090
:1054100045FE2069009021793B463246206801F024
:10542000F9FD21792A46206802F074F92179206873
:1054300001F0EAFD2179206801F0AFFE21792068B2
:1054400001F0D8FD2179206801F091FE21792068D2
:1054500001F0D5FD2179206801F094FE2179002228
:10546000206802F0D5F921790022206802F0F6F9CF
:1054700021790022206802F0DEF92179206801F00C
:1054800037FE21790022206802F046FA21790022B5
:10549000206802F051FA2179206801F0EEFD2179AF
:1054A0000022206802F094F921790022206802F09D
:1054B0009FF921790022206802F077F921790022F2
:1054C000206802F05FF921790022206802F048F993
:1054D00021790022206802F0E7F921790022206872
:1054E00002F007FA21790022206802F0F0F900E0CA
:1054F00004E02179206801F028FE06E04FF0020860
:1055000000BF002084F82C0000BF40465AE72DE978
:10551000F04104460E4617469846002543463A4653
:1055200031462046FFF72CFF05461DB9217920683A
:1055300001F0EFFD2846BDE8F0812DE9F84304466F
:105540000E4617461D464FF0000804B135B9606C91
:1055500040F0080060640120BDE8F88300BF94F8C3
:105560002C00012801D10220F6E7012084F82C004C
:1055700000BF94F82D0001287DD100212046FEF7C0
:1055800023FC2046FEF791FC02212046FEF76AFC30
:105590002179206801F082FD2179206801F034FD35
:1055A0002179206801F09BFD2179206801F022FD1E
:1055B0002179206801F083FD2179206801F01FFD29
:1055C0002179206801F083FD21790022206802F012
:1055D0001FF921790022206802F040F92179002288
:1055E000206802F028F92179206801F081FD2179F5
:1055F0000022206802F090F921790022206802F050
:105600009BF92179206801F038FD2179002220687A
:1056100002F0DEF821790022206802F0E9F8217911
:105620000022206802F0C1F821790022206802F0EF
:10563000A9F821790022206802F092F8217900224D
:10564000206802F031F921790022206802F051F936
:1056500021790022206802F03AF92069009021792E
:105660003B463246206801F0D5FC21792A46206865
:1056700002F050F800E004E02179206801F049FDD3
:1056800006E04FF0020800BF002084F82C0000BFA5
:10569000404661E72DE9F84304460D4616461F468D
:1056A000DDF820800848006860B13B463246294654
:1056B0002046DFF814C0CDF80080DCF800C0E047D9
:1056C000BDE8F8830120FBE7405D00202DE9F843A9
:1056D00004460F4690461E46089D4FF0000914B937
:1056E0000120BDE8F88306B12DB9606C40F00800D8
:1056F00060640120F5E700BF94F82C00012801D177
:105700000220EEE7012084F82C0000BF94F82D0061
:1057100001287DD100212046FEF756FB2046FEF7EA
:10572000C4FB02212046FEF79DFB2179206801F091
:10573000B5FC21792A6A206802F06AF82179AA6901
:10574000206802F08BF82179AA6A206802F073F8C9
:10575000A869B0F1805F0AD12179206801F028FDA5
:10576000217905F11C02206802F0E6F808E02179B1
:10577000206801F0BDFC21790022206802F0DCF8ED
:10578000286AB0F1006F0AD12179206801F0CCFCC1
:10579000217905F12402206802F02AF808E0217935
:1057A000206801F06AFC21790022206802F020F8CC
:1057B00021792A68206801F0F8FF21796A68206859
:1057C00001F0E0FF2179AA68206801F0C9FF217982
:1057D000EA68206802F068F821792A69206802F0F6
:1057E00088F821796A69206802F071F820690090D0
:1057F000217943463A46206801F00CFC2179324673
:10580000206801F087FF2179206801F0FDFB00E0AE
:1058100018E02179206801F0C0FC2179206801F0AE
:10582000E9FB2179206801F0A2FC2179206801F0D0
:10583000E6FB2179206801F0A5FC2179206801F0C0
:1058400084FC06E04FF0020900BF002084F82C0021
:1058500000BF484645E72DE9F84304460E46174683
:105860009846DDF82090002543463A4631462046CA
:10587000CDF80090FFF70EFF05461DB9217920688D
:1058800001F047FC2846BDE8F8832DE9F8430446BB
:105890000F4690461E46089D4FF0000914B901209E
:1058A000BDE8F88306B12DB9606C40F00800606473
:1058B0000120F5E700BF94F82C00012801D1022057
:1058C000EEE7012084F82C0000BF94F82D00012899
:1058D0007DD100212046FEF777FA2046FEF7E5FA53
:1058E00002212046FEF7BEFA2179206801F0D6FB9E
:1058F0002179206801F088FB2179206801F0EFFB15
:105900002179206801F076FB2179206801F0D7FB2E
:105910002179206801F073FB2179206801F0D7FB21
:1059200021792A6A206801F073FF2179AA69206829
:1059300001F094FF2179AA6A206801F07CFFA86930
:10594000B0F1805F0AD12179206801F031FC217922
:1059500005F11C02206801F0EFFF08E021792068C2
:1059600001F0C6FB21790022206801F0E5FF286ADA
:10597000B0F1006F0AD12179206801F0D5FB2179BF
:1059800005F12402206801F033FF08E02179206846
:1059900001F073FB21790022206801F029FF2179B1
:1059A0002A68206801F001FF21796A68206801F007
:1059B000E9FE2179AA68206801F0D2FE2179EA681F
:1059C000206801F071FF21792A69206800E018E061
:1059D00001F08FFF21796A69206801F078FF206962
:1059E0000090217943463A46206801F013FB217963
:1059F0003246206801F08EFE2179206801F089FB93
:105A000006E04FF0020900BF002084F82C0000BF20
:105A1000484645E710B50446002013F6B9FC204679
:105A200013F6D2FB10BD000010B50446034813F670
:105A3000AFFC204613F61CFC10BD0000A05E002049
:105A40007047704770B504460D462A46214600202F
:105A500013F624FE08B9012070BD0020FCE7000009
:105A600000B101B97047044A92680260024AD268E4
:105A70000A6000BFF6E70000680D002010B513F6BD
:105A8000D1FE08B1012010BD0020FCE710B513F6CF
:105A9000D5FE08B9012010BD0020FCE770B5044612
:105AA0000D46164632462946204613F6ABFF08B986
:105AB000304670BD0020FCE710B50446204614F6C1
:105AC000A3F810BD2DE9F047C0B0804689461446C2
:105AD00022464946404614F61DF98246BAF1000FA7
:105AE00034D100252646B4F5807F02D94FF480706A
:105AF00000E02046074600BF08EB05003A4669462D
:105B000013F680FF8246BAF1000F1BD109EB0500A6
:105B10003A466946FCF7A2FCA0B9F61B1EB920461E
:105B200040B0BDE8F0873D44B6F5807F02D94FF420
:105B3000807000E030460746A54202D2E819A04234
:105B400001D901E000E0D7E700BF00BF0020E7E790
:105B50002DE9FE4380460F463846FFF757F885B2D9
:105B60000024DFF834900D4E59F8340040450ED132
:105B700005EB041085B28DF80040019706EBC500D7
:105B80004068029056F835200AB168469047641C78
:105B9000032CE9DBBDE8FE8338C5200080640020CB
:105BA00070B504464FF6FF70A16B01400D463DB144
:105BB0002946204601F0E4FE29462046FFF7C8FFAB
:105BC00070BD30B589B005460C4605B10CB909B0B9
:105BD00030BD20680190207900F003000290A06899
:105BE0000390E06804902069059060690690A069C0
:105BF000079060680009089001A9284601F0C2FEDC
:105C000000BFE4E770B504460D462946204602F081
:105C1000B3F870BD10B504460748006820B12046AF
:105C200005490968884705E0202C03DA002003496C
:105C300041F8240010BD0000785D0020C4730020EE
:105C400010B504460B48006820B120460949096890
:105C500088470EE0202C0CDA0021074800F0704045
:105C600000F10070044AC2F3130200EB421040F846
:105C7000241010BD845D0020605D002070B50446D6
:105C80000D460848006828B129462046054A126892
:105C9000904705E0202C03DA15B1034840F8245062
:105CA00070BD00006C5D00204473002010B50446F8
:105CB0000748006820B1204605490968884705E083
:105CC000202C03DA0020034941F8240010BD000015
:105CD000705D00204473002070B504460D460848EE
:105CE000006828B129462046054A1268904705E019
:105CF000202C03DA15B1034840F8245070BD000091
:105D0000645D0020C472002010B504460748006896
:105D100020B1204605490968884705E0202C03DAB0
:105D20000020034941F8240010BD0000685D0020F8
:105D3000C472002070B504460D460748006828B1BB
:105D400029462046044A1268904704E0202C02DAD3
:105D5000024840F8245070BD745D0020C4730020D8
:105D600010B504460B48006820B12046094909686F
:105D700088470EE0202C0CDA0121074800F0704023
:105D800000F10070044AC2F3130200EB421040F825
:105D9000241010BD805D0020585D002070B50446C1
:105DA0000D460C48006828B129462046094A126869
:105DB00090470DE0202C0BDA074800F0704000F10E
:105DC00000700549C1F3130100EB411040F8245065
:105DD00070BD00007C5D0020505D002004280BDABF
:105DE000064A02F0704202F10072044BC3F313033F
:105DF00002EB431242F8201070470000545D00206F
:105E000038B50446202000900CB9012038BD94F824
:105E1000370018B994F8380000287DD014220221E8
:105E2000204605F00BF920680021C0F8901000BF53
:105E300041F2883300224021204605F031FA2068E3
:105E400002F0C4F8204600F0D5F9454920688842A0
:105E500009D100BF01204349086000BF00BF42498B
:105E6000086000BF2FE04149206888420BD100BF85
:105E700001203C49091D086000BF00BF3A49091DC7
:105E8000086000BF1FE03A49206888420BD100BF7C
:105E9000012034490831086000BF00BF3249083191
:105EA000086000BF0FE03349206888420BD100BF73
:105EB00001202C490C31086000BF00BF2A490C3179
:105EC000086000BF00BF00BFFCF735FD054601209C
:105ED000FCF741FD00BF28480068284908402849D0
:105EE0000840884206D100BF01201E49D839086009
:105EF00000BF00BF00BF20480830006821490840AB
:105F000021490840884205D100BF01201F4908608F
:105F100000BF00BF284600E01BE0FCF71CFD00BFEF
:105F20000020E06300220221204605F087F80121CD
:105F3000204605F019F96946204604F059FF01286A
:105F400003D19DF80000FFF7B1FE0121204605F0C6
:105F50004FF800BF002084F8360000BF00BF55E7AF
:105F600000C5004080D51D4280D61D4200C60040BD
:105F700000C7004000C80040ACEE0040CFC37F7AAD
:105F8000CF035E700FFF7F000F3F7C0028D41D42BF
:105F90001CB50446204604F055FF00228DF8002071
:105FA000E16B0191064951F8203083F8002151F846
:105FB00020000168002901D0684688471CBD000008
:105FC000C0650020014609B9002070470022002367
:105FD00091F8372091F8383042EA0300F5E70000E5
:105FE00010B586B004462020009014B9012006B0F8
:105FF00010BD94F83700002850D194F838000028DC
:106000004CD184F8360000BF4049086000BF00BF93
:106010003E498039086000BF3D49206888420AD166
:1060200000BF00203949D831086000BF00BF39499E
:10603000086000BF2FE03849206888420BD100BFBC
:1060400000203249DC31086000BF00BF3149091D22
:10605000086000BF1FE03149206888420BD100BFB3
:1060600000202A49E031086000BF00BF29490831FB
:10607000086000BF0FE02A49206888420BD100BFAA
:1060800000202249E431086000BF00BF21490C31E3
:10609000086000BF00BF204600F0ADF814220221C6
:1060A000204604F0CBFF60680190A0680290206950
:1060B0000490E06803906069059001A9206801F0F0
:1060C0009CFF0020E06310220221204604F0B6FF6E
:1060D000204604F0E9FF0021204605F045F8694616
:1060E000204604F085FE012804D10E499DF80000E9
:1060F000FFF7C4FD0121204604F07AFF00BF002015
:1061000084F8360000BF00BF71E70000A8D41D422C
:1061100000C5004080D61D4200C6004000C70040B8
:1061200000C80040994910002DE9F041044620685C
:10613000816801F00F010D4600260027022D06D0D0
:10614000042D08D0062D14D00C2D4DD108E020468A
:1061500004F0CDFF49E00021204604F0F3FE44E0C6
:10616000A069012800D101273946204604F0EAFE43
:106170003BE0206801F03EFF0646E06B06F01E01A2
:106180000843E0632068C16FC1F3C00119B1002169
:10619000204604F0D7FEE06B00F00200F0B120468C
:1061A00004F0F3FD94F83500012813D1206B50B1B1
:1061B0000F48216B0864206BFEF746FE30B1206B60
:1061C000016C884702E02046FFF7E2FE002084F8D9
:1061D000350008E02046FFF7DBFE04E02046FFF72D
:1061E000D7FE0020E06300E000BF00BFBDE8F08103
:1061F0006DAC2000704770472DE9F04104460E4613
:106200001546002714B90120BDE8F08116B10DB183
:10621000206B28B9E06B40F48060E0630120F3E775
:1062200094F8380010287CD10021204604F0E0FECC
:10623000204604F039FF0021206BFDF7C5FD206BDF
:10624000FDF733FEA06950B90021206801F027FF57
:10625000226B11791068002201F013FB0AE0012182
:10626000206801F01CFF226B117910684FF4004286
:1062700001F007FB6662258565850020E063122238
:106280000121204604F0DAFE012084F835002C4874
:10629000216B48632B48216BC8630020216B086485
:1062A000206801F0A7FE00F0820028B1206801F00C
:1062B000F2FE206801F09AFE00BF002084F836004C
:1062C00000BF206800BF80462B464146626A206BB3
:1062D000FFF73EF807462FBB00BF00BFFCF72BFBC4
:1062E00080460120FCF737FB0421206801F07AFE8C
:1062F0004046FCF730FB00BF00BFA06901281CD15D
:1063000000BF00BFFCF717FB80460120FCF723FB12
:106310000121206801F066FE4046FCF71CFB00BF2F
:106320000BE009E0E06B40F48070E0631022012193
:10633000204604F083FE00E00227384664E70000B0
:10634000CBAC200081AC20001CB50446204604F0F4
:1063500079FD02218DF80010218D628D891AADF82A
:106360000410044951F820000168002901D0684652
:1063700088471CBDC06500202DE9F04104460E464B
:1063800015461F4614B90120BDE8F08106B12DB9AC
:10639000E06B40F48060E0630120F5E794F837009B
:1063A000102835D10021204604F022FE204604F0BA
:1063B0007BFE0020E06311220021204604F03EFE17
:1063C00025840FE03B4600220221204604F0FAFE1D
:1063D00008B10320D8E7681E85B216F8011B2068B3
:1063E00001F063FE002DEDD83B46002240212046FF
:1063F00004F056FF08B10320C6E710220021204612
:1064000004F01CFE00BF002084F8360000BFBBE78C
:106410000220B9E72DE9F04104460E461546002753
:1064200014B90120BDE8F08116B10DB1E06A28B9B8
:10643000E06B40F48060E0630120F3E794F83700FC
:10644000102847D10021204604F0D2FD204604F058
:106450002BFE0021E06AFDF7B7FCE06AFDF725FDA1
:106460000121206801F01EFEE26A117910684FF4E4
:10647000805201F062F9E661258465840020E063C2
:1064800011220021204604F0D9FD012084F83400B7
:106490001248E16A48631248E16AC8630020E16A71
:1064A000086400BF84F8360000BF206800BF804643
:1064B0002B464246E169E06AFEF74AFF074657B1BC
:1064C000E06B40F48070E06310220021204604F06D
:1064D000B5FD00E002273846A4E7000041AD2000EA
:1064E00081AC20002DE9F04104460E46154614B952
:1064F0000120BDE8F08106B12DB9E06B40F4806069
:10650000E0630120F5E794F8370010282CD1002132
:10651000204604F06DFD204604F0C6FDE6612584AA
:1065200065840020E06311220021204604F086FDEE
:106530000121206801F0B6FD00BF002084F836007C
:1065400000BF00BF00BFFCF7F6F907460120FCF7CB
:1065500002FA8221206801F045FD3846FCF7FBF97C
:1065600000BF00BF0020C4E70220C2E77CB505469B
:10657000284604F067FC044601208DF80000288CB2
:10658000698C401AADF804000C4D55F8240090F8C1
:10659000040118B12046FCF795FF02E02046FDF704
:1065A00089F855F8240090F80011002904D10168F9
:1065B000002901D0684688477CBD0000C0650020E6
:1065C0000448406910B10448006808B901207047C8
:1065D0000020FCE7C4710020E00A002000B5FFF7AE
:1065E000EFFF20B10348806908B1012000BD002001
:1065F000FCE70000C47100202DE9F04106460C467E
:1066000015461F46FFF7DCFF08B9BDE8F081012100
:106610000020FFF7E3FB012012F6D2FC01201A490B
:1066200048610846066044608560C7610020886153
:1066300001F066FB204600F037F8284600F046F8E7
:1066400000BF1248806840F48070104988600220C2
:1066500001F07EFB0C49086801F084FB01F064FB4B
:1066600001F06CFB01F056FB00BF0948006820F008
:106670007F400028E5D00749322003F04FF932204F
:10668000FCF731F900BFC0E7C471002000A0004052
:106690000CE50040F32120000248006800F00F00E4
:1066A0007047000054A800400349096821F00F0119
:1066B0000143014A1160704754A800400248006835
:1066C000C0F308407047000050A800400449096822
:1066D000044A114041EA0041014A1160704700003C
:1066E00050A80040FFFF00FE01200149886170476B
:1066F000C47100202DE9F0472DED028B00BF174833
:10670000006820F07F400025044600BF1348083889
:106710000068C0F30B00461C002747F61228002033
:106720002146A1FB082A05FB08AC04FB00C110466A
:1067300005F0BEFE08EE100A3046394605F0B8FEF8
:1067400000EE100AC8EE000ABCEEE00A044880ED34
:10675000000A0068BDEC028BBDE8F0870CE5004044
:10676000E85C0020F0B589B00446601C01033348A2
:10677000006801F09DFCE8B900BF13F64DF806462D
:1067800013F656F8074602200721CDE90317CDE995
:10679000050640F2D940012103220223CDE9002160
:1067A00002901E22C903012041F628F800BF1020E4
:1067B00009B0F0BD2248016807914068089008229E
:1067C00007A91E480068FDF72DFA0546082D17D1C8
:1067D0001C49086008464472E000C0EB04300C38E5
:1067E000486008464068052101220B23CDE90021BD
:1067F00002901E222903012041F600F80020D7E76D
:1068000000BF13F609F8064613F612F807460220F1
:106810000721CDE90317CDE9050640F2ED4001213E
:1068200003221346CDE9002102901E22C903012054
:1068300040F6E4FF00BF1020BAE70000185B00201C
:1068400084C62000AC6E00202DE9F04786B00546D6
:106850006248006800F108046148457208206049F8
:106860000860C5EB45200821C1EBC000061F06F1FA
:1068700008005B4948604FF001094FF0000A594891
:10688000007810B1002001F05FFC00BF042204A9D1
:10689000204601F069FCBDF810004FF6FF718842F8
:1068A00002D14FF0010A56E0082204A9204601F067
:1068B0005BFCBDF8120000F10807BDF81200FEF7FE
:1068C00069F98046BDF81000A0B304A804F076FD75
:1068D00080B900200C231E224FF4004100900120BB
:1068E00040F68CFF3F48007801F02EFC0B2006B0EC
:1068F000BDE8F0873A48406807EB0801401A38497C
:1069000048600846406800280EDA00200E231E2248
:106910004FF400410090012040F670FF31480078AC
:1069200001F012FC0E20E2E74FF00009214604A816
:1069300003F0A4FF07EB080081B22046FEF740F900
:10694000044626480068201A2549086000BF2648EA
:10695000006884429AD300BF2248007801F0F4FB1B
:10696000BAF1010F01D00D20C1E7B9F1000F02D03B
:106970001B4846600FE01A484068082805DD1848A3
:10698000406808381649486005E015480079144900
:1069900008720020486012484068B0420FD8104882
:1069A0004068052101220F23CDE9002102901E221B
:1069B0004FF40041012040F621FF002097E70848EE
:1069C0004068052101221023CDE9002102901E22FA
:1069D000D902012040F612FF0E2088E7185B002044
:1069E000AC6E0020255B0020205B002070B50446C3
:1069F00000251548808B44F24471884205D100F08F
:106A00002FF810B900F024F800B170BD002C05DC9F
:106A10000D4890F8300000F1080506E0052C03DD74
:106A2000094890F8305000E0EFE77F2D00D97F252E
:106A300000BF06480068C0F30660A84202D028469E
:106A400000F066FA00BFE0E7086E002004A80040EE
:106A50000248C07CC0F3400070470000086E002070
:106A60000248C07C00F0010070470000086E002062
:106A70002DE9F04180460D4616462C4600271DE0C4
:106A80004FF480710F48FBF78CFDB4F5807F02DD79
:106A90004FF4807000E0204607463A4609494046D8
:106AA00001F062FB7019011B3A460648FBF7D6FC61
:106AB00010B10020BDE8F081E01B84B2002CDFD1D2
:106AC0000120F7E74C700020024602F6FF70531ECB
:106AD000C3F30B03C01A8B18984201D801207047EA
:106AE0000020FCE70248C068C0F302407047000085
:106AF00000E0004002488068C0F3002070470000BA
:106B000000E00040034909688143034AC2F80812C3
:106B10007047000008A2004000A000402DE9F043AB
:106B20000146002400220A682CE092FAA2F0B0FA92
:106B300080F3012000FA03F4501E02402046CB6887
:106B400090FAA0F6B6FA86F6B500BB4E36680F2767
:106B5000AF40BE4303FA05F73E43B74F3E60082BF4
:106B600007D1B64E366826EA0046B54FC7F8F4613D
:106B700006E0B24E366846EA0046B14FC7F8F46107
:106B800000BF00BF002AD0D10B69086890FAA0F6B8
:106B9000B6FA86F5A94E0C3E366826EA006703FA77
:106BA00005F647EA0666A64FC7F8E86100BF4B69DD
:106BB000086890FAA0FCBCFA8CF5C3F3001603F049
:106BC0000107DFF87CC2DCF8ECC12CEA000C06FA05
:106BD00005F84CEA080CDFF86882C8F8ECC1C44636
:106BE000DCF8ECC12CEA002807FA05FC48EA0C2C7A
:106BF000DFF84C82C8F8ECC100BF8B6908684FF41D
:106C00007F0505EA00408D4D083D2D688543012B29
:106C100001D1064600E000263543884E083E356027
:106C200000BFD1E900304FF47F0808EA03454FF474
:106C30007F4808EA0326012801D0032801D1A8468D
:106C400001E04FF000084746022801D0032801D197
:106C5000B04601E04FF00008C446DFF8E481D8F800
:106C6000E48128EA050848EA0708DFF8D491C9F862
:106C7000E481C846D8F8E48128EA060848EA0C0806
:106C8000C9F8E48100BF8B6808684FF47F4808EAC0
:106C90000025C6B2012B01D1A84601E04FF0000843
:106CA000474613B94FF0000800E0B046C446DFF88D
:106CB0009081D8F8E88146EA050928EA09084CEAF3
:106CC000070948EA0908DFF87891C9F8E88100BFA8
:106CD00008685A4B0C331B6883434D46C5F8003295
:106CE00000BF486801287BD1C869062879D2DFE84F
:106CF00000F08A28034D627908684FF47F4C0CEA53
:106D00000023C5B20CEA00264FF47F0C0CEA0047C2
:106D1000DFF82CC1DCF800C22CEA030CDFF820817C
:106D2000C8F800C2C446DCF804C22CEA070C45EAE5
:106D300006084CEA080CDFF80881C8F804C200BF56
:106D400062E008684FF47F4C0CEA0023C5B20CEAFD
:106D500000264FF47F0C0CEA0047DFF8E4C0DCF8B3
:106D600000C22CEA030CDFF8D880C8F800C2C44681
:106D7000DCF804C246EA07082CEA080C4CEA050CC9
:106D8000DFF8BC80C8F804C200BF3DE008684FF4DB
:106D90007F4606EA0023C5B2284E0C3636689E436D
:106DA000274FC7F800623E46D6F80462AE43C7F8E4
:106DB000046200BF28E008684FF47F4606EA00231B
:106DC000C5B21E4E0C3636681E431D4FC7F8006212
:106DD0003E46D6F80462AE43C7F8046200BF13E033
:106DE00027E010E00868C3B24FF47F0606EA0045CA
:106DF000124E1036366843EA05073E43104FC7F877
:106E0000046200BF00E000BF00BF08680B4B1433F2
:106E10001B6883430A4DC5F8083200BFC86940B1FA
:106E20000868064B0C331B680343C5F8003200BFEB
:106E300000BF0120BDE8F08374EE0040F4A10040E3
:106E400000A000400348006820F480000149086069
:106E50007047000014A800400348006820F000407C
:106E6000014908607047000004A80040034800681A
:106E700020F08000014908607047000004A800402D
:106E80000348006840F00040014908607047000076
:106E900004A8004002480068C0F38050704700001A
:106EA00014A800400449096821F4804141EA803176
:106EB000014A11607047000008A8004003490A68B1
:106EC00022F4804242EA80300860704708A80040FF
:106ED0000349096821F01F010143014A116070470D
:106EE0009CA80040094A126860F39342074B1A605D
:106EF000064A8432126822F4F85201F00F0342EA83
:106F00004322024B84331A607047000014A80040EB
:106F10000449096821F0FE4141EA0061014A11601B
:106F20007047000004A800400449096821F470611A
:106F300041EA0021014A11607047000094A8004016
:106F40000449096821F4E05141EA8021014A1160B5
:106F50007047000004A800400449096821F07C51F2
:106F600041EA0061014A11607047000048A80040F2
:106F70000449096821F4F81141EA0041014A11600D
:106F80007047000048A800400349096821F00F013C
:106F90000143014A1160704794A800400349096801
:106FA00021F003010143014A116070473CA70040F2
:106FB0000349096821F003010143014A1160704748
:106FC0003CA600400248006800F00700704700003F
:106FD00048A400400649896921F001010143044A9F
:106FE00091611146896921F0010101439161704766
:106FF00000A0004001238B40C0F8403370470123BC
:107000008B40C0F85833704701228A404FF44E73CA
:107010001A50704770B5049C01EB410505EBC105A2
:1070200040F8352001EB410505EBC10500EBC50536
:10703000AB6001EB410505EBC10500EBC505AD6992
:1070400025F44015254301EB410606EBC10600EB94
:10705000C606B56170BD01F10802012303FA02F210
:107060004FF468731A50704701F10802012303FAC4
:1070700002F24FF468731A50704701EB410202EBC1
:10708000C10200EBC202526C22F0200201EB41036C
:1070900003EBC10300EBC3035A64704701EB4102E9
:1070A00002EBC10200EBC202926922F0010201EB85
:1070B000410303EBC10300EBC3039A61704701F185
:1070C0000802012393404FF446721350704701F1B8
:1070D0000802012393404FF44C721350704701F1A2
:1070E0000802012303FA02F24FF444731A50704766
:1070F00001EB410202EBC10200EBC202526C22F032
:10710000400201EB410303EBC10300EBC3035A64EC
:10711000704701F108020123934001228A40134481
:107120004FF468721350704701EB410202EBC10249
:1071300000EBC202526C42F0200201EB410303EB70
:10714000C10300EBC3035A64704701EB410202EB39
:10715000C10200EBC202926922F00102521C01EB53
:10716000410303EBC10300EBC3039A61704701F1D4
:1071700008020123934001228A4013444FF44672CF
:107180001350704701F108020123934001228A4005
:1071900013444FF44C721350704701F1080201235D
:1071A000934001228A4013444FF4447213507047B5
:1071B00001EB410202EBC10200EBC202526C42F051
:1071C000400201EB410303EBC10300EBC3035A642C
:1071D0007047024601EB410000EBC10002EBC0002A
:1071E000006C00F04040704730B503460120AF4CC2
:1071F000A3427DD1122A01D0132908D1AC4C2468B6
:1072000024F00404241DAB4DC5F8C0410AE0022A55
:1072100001D0032906D1A64C246824F00404A54D0E
:10722000C5F8C041142A01D0152907D1A04C246803
:1072300044F010049F4DC5F8C0410AE0042A01D073
:10724000052906D19A4C246824F01004994DC5F8FC
:10725000C041162A01D0172907D1954C246844F063
:107260004004944DC5F8C0410AE0062A01D0072920
:1072700006D18F4C246824F040048E4DC5F8C041DF
:10728000182A01D0192907D1894C246844F4807444
:10729000884DC5F8C0410AE0082A01D0092906D165
:1072A000834C246824F48074824DC5F8C0411A2AA6
:1072B00001D01B2907D17E4C246844F480647D4DA5
:1072C000C5F8C0410AE00A2A01D00A2906D1784C43
:1072D000246824F48064774DC5F8C0411C2A01D08D
:1072E0001D2909D1724C246844F48054714D00E08A
:1072F00025E0C5F8C0410AE00C2A01D00D2906D1CD
:107300006B4C246824F480546A4DC5F8C0411E2A91
:1073100001D01F2907D1664C246844F48044654D90
:10732000C5F8C041C1E00E2A01D00F29FAD1604C46
:10733000246824F480445F4DC5F8C041B5E05E4C3C
:10734000A34271D1102A01D0112909D1584C241D12
:10735000246824F00104641C564DC5F8C4410AE0B9
:107360000AB1012907D1524C241D246824F00104DC
:10737000504DC5F8C441122A01D0132909D14C4CF3
:10738000241D246824F00404241D4A4DC5F8C4417A
:107390000BE0022A01D0032907D1454C241D2468A3
:1073A00024F00404434DC5F8C441142A01D0152922
:1073B00008D13F4C241D246844F010043D4DC5F80D
:1073C000C4410BE0042A01D0052907D1384C241D03
:1073D000246824F01004374DC5F8C441162A01D0A2
:1073E000172908D1324C241D246844F04004314D43
:1073F000C5F8C4410BE0062A01D0072907D12C4C5F
:10740000241D246824F040042A4DC5F8C441182ADC
:1074100001D0192909D1264C241D246844F4807414
:10742000244DC5F8C4410CE03EE0082A01D00829EB
:1074300007D11F4C241D246824F480741D4DC5F809
:10744000C4411A2A01D01B2908D1194C241D2468D3
:1074500044F48064174DC5F8C4410BE00A2A01D0FA
:107460000B2907D1124C241D246824F48064114D8B
:10747000C5F8C4411E2A01D01F2908D10C4C241D77
:10748000246844F480440B4DC5F8C4410DE00E2A35
:1074900001D00F2909D1064C241D246824F480440E
:1074A000044DC5F8C44100E0002030BD009001400B
:1074B000C0E1004000E0004000A0014070B505467A
:1074C0000C461646284600F007F928B900BF0120EF
:1074D000C5F8980300BF0FE02146284600F00EF9DA
:1074E00050B121462846FFF7BFFD00BF2146284680
:1074F00000F004F90028F9D14FF4606000EB44106B
:1075000004EB440101EBC40105EBC1010864042054
:1075100004EB440101EBC40105EBC1014864002008
:1075200004EB440101EBC40105EBC101886104EBEC
:10753000440101EBC40105EBC101C8613269B168C6
:10754000114372691143B2691143F26941EA0200C1
:1075500004EB440101EBC40105EBC10189695C4AFC
:107560001140014304EB440202EBC40205EBC202EA
:10757000916100BF0020014604EB440202EBC4020B
:1075800005EBC202126C22F4406240EA01031A4386
:1075900004EB440303EBC40305EBC3031A6400BF0D
:1075A000F06804EB440101EBC40105EBC101096C77
:1075B00021F04041014304EB440202EBC40205EB1D
:1075C000C202116400BF002004EB440101EBC401BE
:1075D00005EBC101096C3F4A114041EA005104EB3F
:1075E000440202EBC40205EBC202116400BF306822
:1075F00004EB440101EBC40145F8310000BF7068A1
:1076000004EB440101EBC40105EBC101886000BF3C
:10761000306A04EB440101EBC40105EBC101C96907
:107620006FF30B01014304EB440202EBC40205EBD0
:10763000C202D16100BF2846D6E90912FFF7D4FD86
:1076400096F8240000F00F007062706A04EB4401A9
:1076500001EBC40105EBC101496C21F4F06141EA81
:10766000C01104EB440202EBC40205EBC2025164F8
:1076700000BF96F8280000F00F00B062B06A04EB7B
:10768000440101EBC40105EBC101496C21F4F04157
:1076900041EAC02104EB440202EBC40205EBC20242
:1076A000516400BFF06A04EB440101EBC40105EB37
:1076B000C101096C21F0E001014304EB440202EB3B
:1076C000C40205EBC202116400BF012070BD0000BE
:1076D0004900CEFFFFFF0FC00146D1F8980300F02C
:1076E0000100704702464FF46870805801238B40B8
:1076F000184008B1012070470020FCE702464FF413
:107700006870805801238B40184008B101207047F1
:107710000020FCE710B501EB410303EBC10300EBD4
:10772000C303DB696FF30B03134301EB410404EB69
:10773000C10400EBC404E36110BD10B501EB4103CB
:1077400003EBC10300EBC3039B6923F460531343B2
:1077500001EB410404EBC10400EBC404A36110BDC0
:1077600010B501EB410303EBC10300EBC3031B6D39
:1077700062F31F5301EB410404EBC10400EBC404AA
:10778000236510BD10B501EB410303EBC10300EB12
:10779000C3031B6D6FF31303134301EB410404EBAD
:1077A000C10400EBC404236510BD10B501EB410317
:1077B00003EBC10300EBC3039B6923F48023134352
:1077C00001EB410404EBC10400EBC404A36110BD50
:1077D00010B501EB410303EBC10300EBC3039B6A4C
:1077E00001EB410404EBC10400EBC404A26210BD30
:1077F00010B501EB410303EBC10300EBC3039B6B2B
:1078000001EB410404EBC10400EBC404A26310BD0E
:1078100010B501EB410303EBC10300EBC3039B690C
:1078200023F00063134301EB410404EBC10400EBBC
:10783000C404A36110BD10B501EB410303EBC10308
:1078400000EBC3031B6903F00303134301EB410483
:1078500004EBC10400EBC404236110BD10B501EBBF
:10786000410303EBC10300EBC3039B6923F0805387
:10787000134301EB410404EBC10400EBC404A36116
:1078800010BD10B501EB410303EBC10300EBC303D3
:107890009B6923F4E033134301EB410404EBC1047F
:1078A00000EBC404A36110BD10B501EB410303EB71
:1078B000C10300EBC3039B6923F40033134301EBC3
:1078C000410404EBC10400EBC404A36110BD10B576
:1078D00001EB410303EBC10300EBC3039B6C62F3B9
:1078E0001F5301EB410404EBC10400EBC404A36487
:1078F00010BD10B501EB410303EBC10300EBC30363
:107900009B6C6FF31303134301EB410404EBC104BD
:1079100000EBC404A36410BD10B501EB410303EBFD
:10792000C10300EBC3031B6A01EB410404EBC10478
:1079300000EBC404226210BD10B501EB410303EB60
:10794000C10300EBC3031B6B01EB410404EBC10457
:1079500000EBC404226310BD00210160416081601E
:10796000C1604FF480610161891041610021816132
:10797000C16101620B21416281620021C1627047D5
:10798000816370472DE9F04705460C460027002625
:10799000266838E096FAA6F0B0FA80F1012000FAE5
:1079A00001F7701E06402A463946E368DFF8C8C171
:1079B00091FAA1F9B9FA89F14FEA41794FEAD96808
:1079C000DFF8B8914A4502D1C1F3C7000BE0DFF8F8
:1079D000B0914A4506D14FF0020909EBD10909F0EF
:1079E000FF0000E004205CF820904FF00F0A0AFA34
:1079F00008FA29EA0A0903FA08FA49EA0A094CF8D6
:107A0000209000BF00BF002EC4D12846D4E9001248
:107A100000F0BAF8294622692068DFF864C16145A0
:107A200002D14FF0100C01E04FF0000C00FA0CF006
:107A300090FAA0FCBCFA8CF3DFF848C1614512D182
:107A4000DFF834C1ACF1300CDCF800C02CEA000CDB
:107A500002FA03F84CEA080CDFF81C81A8F13008A0
:107A6000C8F800C011E0DFF810C1ACF1500CDCF830
:107A700000C02CEA000C02FA03F84CEA080CDFF80C
:107A8000F880A8F15008C8F800C000BF2846626915
:107A9000216800F0F5F82946A2692068384B994220
:107AA00001D1102300E000239840364B994212D1B7
:107AB000314B343B1B688343012A01D1844601E0EA
:107AC0004FF0000C43EA0C03DFF8ACC0ACF1340C0F
:107AD000CCF8003011E0284B543B1B688343012A4B
