:020000040020DA
:102000000000042059202000FF2120000140100082
:10201000FD212000F12120001539200000000000E2
:10202000000000000000000000000000154010004B
:10203000FB2120000000000017352000233820007D
:10204000DFF810D000F054FC00F074F800480047AE
:10205000CDE42100000004200148804701480047EA
:10206000C5382000FDE421000649074A08685043AE
:1020700043F2390210440860400870470149086083
:1020800070470000946B00206D4EC64110B5431A96
:10209000934209D28318881803E010F8011D03F851
:1020A000011D521EF9D210BD40EA01039B0703D067
:1020B00009E008C9121F08C0042AFAD203E011F887
:1020C000013B00F8013B521EF9D210BDD2B201E033
:1020D00000F8012B491EFBD270470022F6E710B52D
:1020E00013460A4604461946FFF7F0FF204610BD86
:1020F000421C10F8011B0029FBD1801A704710B553
:10210000002200E0521C835C8C5CA34201D1002BB6
:10211000F8D1D8B2E1B2401A10BD30B50446002063
:10212000034600E05B1C934203D2E05CCD5C401BA5
:10213000F8D030BD70B5054C054D03E02068204453
:102140008047241DAC42F9D170BD0000489E22009A
:102150004C9E220030B4044696230800214604D049
:10216000B62330BC002200F0ACBA20460021F8E7CC
:102170000EB5C10F80EAE0700844CA07002140F2A2
:1021800033438DE80E000A460B4600F0D7FA03B041
:1021900000BD0EB540F2334102910021CDE900119E
:1021A0000A460B4600F0CAFA03B000BD0EB540F275
:1021B000334202920022CDE90022134600F0BEFA1B
:1021C00003B000BD20F00040C20DC0F3160040F483
:1021D00000007F2A02DA0020014670470021962A7B
:1021E00003DCC2F19602D0407047963A00F02FBA55
:1021F000FEE710B50AF05EF910BDFEE7FEE7FEE768
:1022000058585247010000002556000000202000C9
:10221000002020007EEE9247010100000000000037
:1022200000000000000000000000000000000000AE
:10223000000000000000000000000000000000009E
:102240002DE9FE4F804681EA0300C00F0C46009046
:1022500021F0004123F00045B8EB0200A94105D26E
:102260004046214690461C460B46024623F000405D
:10227000104347D0270DC7F30A00C3F30A51029059
:10228000401A019040286BDAC3F3130040F4801B1E
:102290000098924620B10023D2EB030A63EB0B0BAC
:1022A00001985946C0F14002504600F0D0F9064668
:1022B0000D4650465946019A00F0E8F910EB080027
:1022C0006141002487EA115284EAE7731A4340D03F
:1022D000009A62B3019A012A4FEA075215DC001BEB
:1022E00061EB02014FF0004202EA0752CDE90042E1
:1022F000001C41F5801132462B4600F01FFA03B056
:10230000BDE8F08F40462146F9E7001B61EB020172
:10231000001C41F5801300185B412018A2F500173E
:1023200047EB030140EAD570B6196D4111E06D0825
:102330004FEA360645EAC0754FEA0752001B61EBCB
:102340000201001C41F5801149084FEA30000019D4
:10235000514132462B4603B0BDE8F04F00F0DFB9E3
:102360000098012240000023D0EB020263EBE073EF
:10237000009821464FEAE074B8EB000061EB0401DD
:10238000E9E783F000435BE781F0004158E72DE97E
:10239000FE4F81EA030404F0004421F00041009460
:1023A0004FF0000B23F0004350EA01045ED052EAE4
:1023B00003045BD0C3F30A54C1F30A552C44A4F2BE
:1023C000F3340194A0FB0254C1F3130141F48011D2
:1023D000C3F3130343F4801301FB024400FB034ED9
:1023E000840A970A44EA815447EA8357A4FB0768A2
:1023F00002958D0A05FB07854FEA932C04FB0C54CC
:102400002705029D4FEA065847EA1637B5EB08053F
:102410006EEB070C870E920E47EA811742EA831291
:10242000A7FB0201B6EB0B0164EB00042B0D43EAA2
:102430000C335E1844EB1C50DA465146E7FB0201B0
:10244000C5F313044FEA0B3343EA14534FEA043243
:10245000019C43EA0603A4F10C040294009CCDE91C
:1024600000B400F06BF903B0BDE8F08F0020014626
:10247000F9E72DE9F04D81EA030404F0004B21F067
:10248000004514464FF0000A23F0004150EA0502CF
:1024900020D054EA01021DD0C5F30A570246C5F305
:1024A0001303C1F31300C1F30A5640F4801543F43B
:1024B0008013A7EB0608101BD64608F2FD3873EB15
:1024C000050002D308F1010801E092185B41B8F160
:1024D000000F03DA00200146BDE8F08D00204FF424
:1024E0008011064684460EE0171B73EB050705D3E3
:1024F000121B63EB050306434CEA010C49084FEA43
:10250000300092185B4150EA0107EDD152EA030016
:1025100012D082EA040083EA0501084305D0101BAB
:10252000AB4106D20122002306E000224FF0004317
:1025300002E06FF0010253101AEB06004CEB085159
:1025400010EB0A0041EB0B01BDE8F04D00F0E7B8DD
:1025500070B5C1F30A5201F000450024C1F3130124
:1025600040F2FF3341F480119A4201DA002070BD3D
:1025700040F233439A42A2F2334203DC524200F06B
:1025800075F800E090402C43F1D0404270BDC1F39B
:102590000A5210B5C1F3130140F2FF3341F4801128
:1025A0009A4201DA002010BD40F233439A42A2F26F
:1025B000334203DC524200F059F810BD904010BD88
:1025C00030B50B46014600202022012409E021FA03
:1025D00002F59D4205D303FA02F5491B04FA02F500
:1025E0002844151EA2F10102F1DC30BD2DE9F05F97
:1025F0000546002092469B46884606468146402472
:102600001BE0284641464746224600F02FF8534635
:102610005A46C01A914110D311461846224600F07E
:1026200016F82D1A67EB01084F46224601200021BB
:1026300000F00DF817EB00094E41201EA4F1010433
:10264000DFDC484631462A464346BDE8F09F202A53
:1026500004DB203A00FA02F1002070479140C2F1F9
:10266000200320FA03F3194390407047202A04DB2B
:10267000203A21FA02F00021704721FA02F3D040FB
:10268000C2F120029140084319467047202A06DB18
:10269000CB17203A41FA02F043EAE07306E041FA30
:1026A00002F3D040C2F1200291400843194670471E
:1026B0000029A8BF7047401C490008BF20F0010056
:1026C000704710B4B0FA80FC00FA0CF050EA010434
:1026D00004BF10BC704749B1CCF1200421FA04F4C6
:1026E00011FA0CF118BF012121430843A3EB0C019F
:1026F000CB1D4FEA00614FEA102042BF002010BC02
:10270000704700EBC35010440029A4BF10BC7047B1
:10271000401C490008BF20F0010010BC704710B5F4
:10272000141E73F1000408DA401C41F100019218F4
:102730005B411A4301D120F0010010BD2DE9F04D9D
:1027400092469B4611B1B1FA81F202E0B0FA80F2F2
:1027500020329046FFF77BFF04460F4640EA0A000E
:1027600041EA0B0153465A46084313D0114653EA37
:10277000010019D0C8F140025046FFF777FF054627
:102780000E46504659464246FFF761FF084305D0C2
:10279000012004E020463946BDE8F08D00200543C5
:1027A00046EAE0762C4337430A986305E40AA0EB37
:1027B00008000022FD0A44EA47540A3002D50020EE
:1027C0000146E9E7010510196941DDE908450019ED
:1027D0006941BDE8F04DA2E72DE9F041054621F041
:1027E00000400C46284309D0C4F30A5040F233415C
:1027F000884205DD28462146BDE8F0812846FBE7F2
:1028000040F2FE31884210DC0CDB4FEA043040EA33
:10281000155050EA053105D0104804F0004101433D
:102820000020E9E700200146E6E7A0F233404642F7
:10283000C6F1400228462146FFF709FF07468846B1
:10284000284621463246FFF711FF43463A46FFF736
:1028500066FF3246BDE8F041FFF7F9BE0000F03FE9
:10286000C1F30A52C1F3130140F2FF3341F4801166
:102870009A4202DA00200146704740F233439A42FE
:10288000A2F2334202DC5242FFF7F0BEFFF7DFBE96
:1028900030B5041E71F1000404DB4FF000444042E7
:1028A00064EB0101141E73F1000405DB1C464FF0BC
:1028B0000043524263EB04038B4208BF824230BDA7
:1028C00030B5041E71F1000404DB4FF000444042B7
:1028D00064EB0101141E73F1000405DB1C464FF08C
:1028E0000043524263EB0403994208BF904230BD5B
:1028F000064C074D06E0E06840F0010394E807004D
:1029000098471034AC42F6D3FFF79EFB089E220096
:10291000489E220070B58C1810F8015B15F0070373
:1029200001D110F8013B2A1106D110F8012B03E068
:1029300010F8016B01F8016B5B1EF9D12B0705D470
:102940000023521E0DD401F8013BFAE710F8013BB9
:10295000CB1A921C03E013F8015B01F8015B521ED5
:10296000F9D5A142D8D3002070BD70B5002308244A
:10297000002550F8242051F82460921945EB0506F3
:10298000D21846EB050303F001032B4301D00123CA
:1029900000E0002340F82420641E002CE9DA002126
:1029A00050F8212012B9491C0929F9DBC1F10901AC
:1029B000416270BDF0B500240825002650F825308E
:1029C00051F82570DB1946EB06071B1947EB060487
:1029D00004F00104344301D0012400E0002442F853
:1029E00025306D1E002DE9DA002052F8201011B9B3
:1029F000401C0928F9DBC0F1090151629662F0BD63
:102A000070B514462246FFF7D5FFA06A20B12046D4
:102A1000BDE8704000F026B8114D606A696A002672
:102A20000123884212D801D233460FE0C0F10901D8
:102A30000AE055F8212054F82100824201D933469A
:102A400004E003D301F101010929F2D3002B05D0E1
:102A50002046BDE87040024900F042BE70BD000053
:102A60001883220010B58CB0044601AA21460748FD
:102A700000F06CFD01A924222046FFF707FB0A980D
:102A800060620020A0620CB010BD0000188322001C
:102A90002DE9F0418CB00746474CB86A4FF000086A
:102AA000002809D03A462346506A5D6A0121A842AF
:102AB00031D81FD241462EE04FF000004FF00802FF
:102AC000414657F8223054F8225088465B1941EBB2
:102AD00001061D184E4106F00100414658EA00006B
:102AE00001D0012000E0002047F82250521E002AA9
:102AF000E7DA3FE0C0F109000AE053F8205052F84D
:102B00002060B54201D9414605E004D300F101003F
:102B10000928F2D34146F1B100200822454654F875
:102B2000223057F822101E1845EB050C8E1B75EB52
:102B30000C0607D21844081A001C47F822004FF070
:102B4000010004E01844091A47F822100020521E20
:102B5000002AE4DA0EE001AA3946174800F0F6FC34
:102B600001A93C4624222046FFF790FA0A986062A9
:102B7000C7F828800021002057F8202012EB080316
:102B800048EB010461084FEA330147F8201023F0B5
:102B90000101591A00F101000928EDD3002057F86E
:102BA000201011B9401C0928F9DBC0F10900786236
:102BB0000CB0BDE8F0810000188322001CB503248E
:102BC00000BF27480068012121EA900078B900BFC2
:102BD00023480C30006800F0010040B100BF2048DD
:102BE0008C38006800F007002040A04200D01CBDD7
:102BF0000020009001F09EFA00901A480068401CE6
:102C00001849086064200AF6D7FB01A800F00AFE04
:102C1000022000F00FFE32200AF6CEFB00BF124861
:102C2000006840F002001049086000BF0F49488961
:102C30000AF6C2FB00BF0C48006820F002000A49F7
:102C4000086000BF094988890AF6B6FB9DF80400B0
:102C500000F0F0FD009801F096FF00BFC7E700000C
:102C6000D4A40040A463002004A9004062620020B4
:102C70002DE9F04FADF5377D82460D4614460AF139
:102C80002C0B0AF15800B6902F9005F12C00B5904E
:102C90002E902C30B4902D9024212046FFF71DFA61
:102CA0004FF00008C4F82480C4F8288004F12C06F2
:102CB00024213046FFF711FAC6F82480C6F8288090
:102CC00004F1580724213846FFF707FAC7F8248093
:102CD000C7F82880A9A82421FFF7FFF9CDF8C882FA
:102CE000CDF8CC829EA82421FFF7F7F9CDF89C827D
:102CF000CDF8A08293A82421FFF7EFF9CDF87082D8
:102D0000CDF8748288A82421FFF7E7F9CDF8448232
:102D1000CDF848827DA82421FFF7DFF9CDF818828D
:102D2000CDF81C8272A82421FFF7D7F9CDF8EC81E9
:102D3000CDF8F08167A82421FFF7CFF9CDF8C08145
:102D4000CDF8C4815CA82421FFF7C7F9CDF89481A0
:102D5000CDF8988151A82421FFF7BFF9CDF86881FB
:102D6000CDF86C8146A82421FFF7B7F9CDF83C8156
:102D7000CDF840813BA82421FFF7AFF9CDF81081B1
:102D8000CDF8148130A82421FFF7A7F9CDF8E4800D
:102D9000CDF8E8805046E3491BF066FCDFF88493E9
:102DA00009F12C0809F1580948B9414658461BF069
:102DB0005BFC20B94946B6981BF056FC40B1002098
:102DC000002859D02846D7491BF04EFC10B10BE023
:102DD0000120F5E74146B5981BF046FC20B949466D
:102DE000B4981BF041FC30B3002030B3CD4D242209
:102DF00029462046FFF74AF9686A6062A86AA0621D
:102E0000242241463046FFF741F9D8F82400706289
:102E1000D8F82800B062242249463846FFF736F930
:102E2000D9F824007862D9F82800B86200200DF59E
:102E3000377DBDE8F08F0120D7E7242229462046C0
:102E4000FFF724F9686A6062A86AA062B59C242230
:102E500021463046FFF71AF9606A7062A06AB062D4
:102E6000B49C242221463846FFF710F9606A786244
:102E7000A06AB8620020DAE72846AA491BF0F4FBF2
:102E800048B94146B5981BF0EFFB20B94946B498C4
:102E90001BF0EAFB18B3002018B324225146204649
:102EA000FFF7F4F8DAF824006062DAF82800A0628C
:102EB000242259463046FFF7E9F8DBF82400706217
:102EC000DBF82800B062B69C242221463846FFF782
:102ED000DDF8606A7862A06AB8620020A7E7012086
:102EE000DAE7514628461BF0BFFB60BB5946B59850
:102EF0001BF0BAFB08B38B4D242229462046FFF76E
:102F0000C5F8686A6062A86AA06224224146304619
:102F1000FFF7BCF8D8F824007062D8F82800B06237
:102F2000242249463846FFF7B1F8D9F824007862E0
:102F3000D9F82800B862002079E7286D012802D866
:102F4000E86C00287DD0DDE92E01A9AA00F018FA6E
:102F50009EAA58462D9900F013FA93AA28462F9955
:102F600000F00EFA88AA50462D9900F009FA88A9B7
:102F700093A81BF079FB00287ED07DAA9EA9A9A862
:102F800000F012FB72AA88A993A800F00DFB5CAABE
:102F90002D992F9800F0F4F922A82421FFF79DF82D
:102FA00000252B952C9517A82421FFF796F820953E
:102FB00021950CA82421FFF790F81595169501A8E6
:102FC0002421FFF78AF80A950B9551AA72A972A8D5
:102FD00000F0D6F946AA72A951A800F0D1F93BAA8F
:102FE0007DA97DA800F0CCF930AA88A951A800F0ED
:102FF000C7F901AA022130A800F0A2F917AA5CA91A
:103000003BA800F0BDF90CAA46A917A800F0CCFA1D
:1030100067AA01A90CA800F0C7FA224667A972A8FE
:1030200000F0AEF922A82421FFF757F82B952C9534
:1030300017A82421FFF751F8209521950CA82421E9
:1030400000E020E0FFF749F81595169522AA67A938
:1030500030A800F0A9FA17AA22A97DA800F090F9DB
:103060000CAA9EA946A800F08BF932460CA917A815
:1030700000F09AFA3A4600E027E05CA946A800F082
:103080007FF90120D3E6274D242229462046FEF76A
:10309000FDFF686A6062A86AA06224224146304649
:1030A000FEF7F4FFD8F824007062D8F82800B06268
:1030B000242249463846FEF7E9FFD9F82400786211
:1030C000D9F82800B8620020B1E69EA9A9A81BF093
:1030D000CBFA08B3134D242229462046FEF7D6FF2B
:1030E000686A6062A86AA062242241463046FEF700
:1030F000CDFFD8F824007062D8F82800B0622422EE
:1031000049463846FEF7C2FFD9F824007862D9F85C
:103110002800B86200208AE62146504600F004F8F4
:10312000002084E6948322002DE9F04FF9B00C468C
:10313000824600F12C0500F1580B594F696A07F1DE
:103140002C06583704F12C0804F15809012901D83C
:10315000296A79B152491BF087FA48B931462846A5
:103160001BF082FA20B9394658461BF07DFA28B385
:10317000002028B34A4D242229462046FEF786FF28
:10318000686A6062A86AA062242231464046FEF75F
:103190007DFF706AC8F82400B06AC8F828002422AD
:1031A00039464846FEF772FF786AC9F82400B86AC3
:1031B000C9F82800002079B0BDE8F08F0120D8E7D9
:1031C00037AA59465046FFF71BFC2CAA59465046D1
:1031D00000F0EAF921AA2CA937A800F0D1F86EAACC
:1031E000032121A800F0ACF863AA5946284600F054
:1031F000C7F837AA63A9284600F0C2F858AA37A929
:10320000504600F0BDF837AA6EA96EA800F0B8F8D5
:103210002CAA082158A800F093F84DAA2CA937A889
:1032200000F0C2F937AA63A94DA800F0A9F8224618
:10323000022137A800F084F837AA2946284600F072
:103240009FF842AA63A963A800F09AF82CAA42A9A1
:1032500037A800F095F821AA08212CA800F070F8F2
:1032600016AA042158A800F06BF80BAA4DA916A8BD
:1032700000F09AF96A460BA96EA800F081F8424660
:1032800021A9684600F090F937AA63A942A800F086
:1032900077F84A46082137A800F052F800208AE75C
:1032A000948322002DE9F0478CB00546884691466C
:1032B000DFF854A0154E10279AF81730FF2B06D0D0
:1032C000706ED90007FA01F4A0432043706601A98B
:1032D00005F1580003F024FF9AF81730FF2B04D0B3
:1032E000706ED9008F40B8437066424601A92846E7
:1032F00000F046F84A4601A905F12C0000F040F81C
:103300000CB0BDE8F0870000080E002000000E4061
:103310000748006800F0100008B1064870470648EA
:103320000068C0F30240054951F82000F6E70000AC
:1033300084E30040006CDC0200A000401882220000
:10334000F0B40646104600230825002256F82570E2
:103350001446E7FB013440F8253023466D1E002D4E
:10336000F4DA002150F8212012B9491C0929F9DBAF
:10337000C1F109024262B16A8162F0BC1FF01CBC5B
:103380002DE9F04F9FB005460E4693460BAC482101
:103390000BA8FEF7A2FE4FF00009CDF87490CDF80F
:1033A0007890082300210822D7187F1C55F8238025
:1033B00054F8270056F822A0401849EB090CE8FB06
:1033C0000A0C614644F82700521E002AECDA5B1E04
:1033D000002BE7DA0BA9002051F8202012B9401C7D
:1033E0001228F9DBC0F112008864A86AB16A884229
:1033F00001D0012000E000201E9000240BAD00E071
:10340000641C55F8240008B9092CF9D31E980A90B9
:1034100034490BAA1D988E6C0123B04201D99946FC
:1034200019E018D3C0F1120012E051F8206052F8F0
:103430002070BE420BD051F8201052F8200081427B
:1034400002D24FF0010906E04FF0000903E0401CF2
:103450001228EADB9946B9F1000F01D104E0641C9F
:1034600055F824000028FAD005EB84012422684690
:10347000FEF70CFE6946002051F8202012B9401CCE
:103480000928F9DBC0F10900486216E068461FF020
:1034900093FB68462022011DFEF7F8FD55F8260033
:1034A0000890641C6946002051F8202012B9401C85
:1034B0000928F9DBC0F10900486204F10900064659
:1034C0001228E3D368461FF077FB69465C46242246
:1034D0002046FEF7DBFD099860620A98A0621FB0E3
:1034E000BDE8F08F4483220010B54342421E0A60BB
:1034F0004B6088600020C86008614A61441E8C618E
:10350000CC610B628862002A02D00920486210BD9B
:103510000820486210BDFEE701F789BA052800DBE4
:1035200070470949096801F4E021B1EB004F08D068
:10353000054A126822F4E02141EA0042024B1A6077
:1035400000BF00BFECE7000000A000402DE9F04103
:1035500000240823002751F8236050F8235016EB6D
:10356000040C47EB0708B5EB0C0C77EB080C07D203
:1035700034442C1B241C42F823404FF0010404E087
:1035800034442D1B42F8235000245B1E002BE2DA4A
:10359000002052F8201011B9401C0928F9DBC0F1B5
:1035A00009005062BDE8F0812DE9F04103460E4666
:1035B0001446996A00270125B06A002906D088B30D
:1035C000706A596A88423CD9284650E030B1224698
:1035D00031461846FFF7EEF9A76256E0586A716A5D
:1035E000884201D9284615E001D2384612E0C0F1E0
:1035F00009000CE056F8202053F820108A4201D927
:10360000384607E001D2284604E000F1010009280D
:10361000F0D3284638B1224631461846FFF796FFC8
:10362000A76232E006E0224619463046FFF78EFFD9
:10363000A5622AE0224631461846FFF7BBF9A5628B
:1036400023E001D2384612E0C0F109000CE053F843
:10365000202056F820108A4201D9384607E001D2CE
:10366000284604E000F101000928F0D3284630B1D3
:10367000224619463046FFF769FFA76205E0224659
:1036800031461846FFF762FFA562A06A20B12046C6
:10369000BDE8F041FFF7E6B91049606A4A6A904216
:1036A00012D801D23D460FE0C0F109000AE051F8FE
:1036B000203054F82020934201D93D4604E003D342
:1036C00000F101000928F2D3002D05D02046BDE805
:1036D000F041024900F004B8BDE8F08118832200EF
:1036E000F0B500230822002651F8225050F822405D
:1036F000EF1846EB060CE71B76EB0C0707D22B44C2
:10370000E31A1B1C40F822304FF0010304E02B4465
:10371000E41A40F822400023521E002AE4DA002175
:1037200050F8212012B9491C0929F9DBC1F109011E
:103730004162F0BD70B58CB004460B46A16A01260B
:103740000025986A002907D0E8B3586A616A884260
:1037500051D840D22E464EE030B10CB02046BDE8E4
:1037600070401946FFF701B9606A596A884201D969
:10377000354611E010D3C0F109000AE053F82020CB
:1037800054F820108A4207D801D2354604E000F1EF
:1037900001000928F2D3354635B10CB02046BDE80A
:1037A00070401946FFF79CBF01AA21461846FFF753
:1037B000CDFE01A924222046FEF768FC0A9860622B
:1037C000A6620CB070BDFFE70CB02046BDE87040AB
:1037D0001946FFF7CAB8C0F109000AE054F82020E2
:1037E00053F820108A4201D92E4604E003D300F199
:1037F00001000928F2D36EB101AA21461846FFF74D
:10380000A5FE01A924222046FEF740FC0A9860622A
:10381000A562D6E70CB02046BDE870401946FFF718
:103820005FBFFEE70249096801F0070101707047B8
:1038300000A0004010B500220021072800DB10BDC9
:10384000144B1B6803F0070383421BD0114B1B680A
:1038500023F0070242F003030E4C23602346DB688B
:1038600023F0070141F00103E36000BF00BF00BF88
:1038700000BF42EA0003074C2360074B53F8203097
:103880000B43E360054B53F82030054C236000BF29
:10389000D5E7000000A00040FC812200E08122006A
:1038A000585400200448006800F00700034951F80C
:1038B000200003490860704700A00040E08122001A
:1038C000585400200248016841F4700101607047BB
:1038D00088ED00E002480068001D13F09DBE000066
:1038E000B072002002484068001D13F095BE000031
:1038F000B072002002488068001D13F08DBE0000E9
:10390000B07200200248C068001D13F085BE0000A0
:10391000B0720020FEE700000FB41CB50246002084
:1039200007AC00290BD0491ECDE90021054B6A46A2
:103930002146069800F090FD009A002111701CBCF1
:103940005DF814FB934B20000FB4084B10B504A98D
:1039500002AA039800F080FD044602A9002001F0AD
:1039600023F9204610BC5DF814FB0000A94B200091
:103970007CB5044600201D46164600290BD0491E82
:10398000CDE90041044B6A462946304600F064FD0B
:10399000009A002111707CBD934B2000002809DBA8
:1039A00000F01F02012191404009800000F1E02059
:1039B000C0F8801270470000002807DB00F01F02EB
:1039C00001219140024A430942F823107047000048
:1039D00080E200E0002807DB00F01F020121914097
:1039E000024A430942F823107047000080E200E0D9
:1039F00000280DDB00BF00BF00F01F020121914035
:103A00004209920002F1E022C2F8001100BF00BF9B
:103A1000704700280DDB00BF00BF00F01F0201212E
:103A200091404209920002F1E022C2F8001100BF69
:103A300000BF7047002804DB00F1E02090F800048C
:103A4000704700F00F0000F1E02090F8140D70476F
:103A5000002804DB00F1E02090F80004704700F03B
:103A60000F0000F1E02090F8140D70470146002986
:103A700002DB0448405C7047034801F00F02121F4C
:103A8000805CF8E700E400E018ED00E00146002962
:103A900002DB0448405C7047034801F00F02121F2C
:103AA000805CF8E700E400E018ED00E00146002942
:103AB00002DB0448405C7047034801F00F02121F0C
:103AC000805CF8E700E400E018ED00E00146002922
:103AD00002DB0448405C7047034801F00F02121FEC
:103AE000805CF8E700E400E018ED00E00146002902
:103AF00002DB0448405C7047034801F00F02121FCC
:103B0000805CF8E700E400E018ED00E001460029E1
:103B100002DB0448405C7047034801F00F02121FAB
:103B2000805CF8E700E400E018ED00E001460029C1
:103B300002DB0448405C7047034801F00F02121F8B
:103B4000805CF8E700E400E018ED00E001460029A1
:103B500002DB0448405C7047034801F00F02121F6B
:103B6000805CF8E700E400E018ED00E00146002981
:103B700002DB0448405C7047034801F00F02121F4B
:103B8000805CF8E700E400E018ED00E0024800681F
:103B9000C0F30220704700000CED00E0024800680E
:103BA000C0F30220704700000CED00E002480068FE
:103BB000C0F30220704700000CED00E002480068EE
:103BC000C0F30220704700000CED00E002480068DE
:103BD000C0F30220704700000CED00E002480068CE
:103BE000C0F30220704700000CED00E002480068BE
:103BF000C0F30220704700000CED00E002480068AE
:103C0000C0F30220704700000CED00E0024800689D
:103C1000C0F30220704700000CED00E0024800688D
:103C2000C0F30220704700000CED00E0024800687D
:103C3000C0F30220704700000CED00E0002807DB15
:103C400000F01F0201219140024A430942F823106B
:103C50007047000000E200E0EFF311807047EFF3DF
:103C600011807047EFF311807047EFF311807047B8
:103C7000EFF311807047EFF311807047EFF311807D
:103C80007047EFF310807047EFF310807047EFF349
:103C9000108070470000000010B52DED020B2DEDD7
:103CA000088B84B09DED0C0B51EC100BFEF794FDCE
:103CB00041EC180B9DED0C0B53EC182B51EC100B39
:103CC000FEF75FFB41EC190B0D989FED290B10F0EF
:103CD000004F53EC102B51EC190B9FED21AB9FEDD6
:103CE00022BB0ED0FEF7D4FD0ED953EC1B2B51ECAA
:103CF000190BFEF7E5FD1CD214E000BF41EC180BD8
:103D000017E0FEF7C5FD06D253EC1A2B51EC180B49
:103D1000FEF737FBF2E753EC1B2B51EC190BFEF7C8
:103D2000CFFD06D853EC1A2B51EC180BFEF788FA8E
:103D3000E4E78DED028B9DED0C0B18EE901A10EE62
:103D4000900A8DED000B61F31E0003909DED020BB8
:103D500004B0BDEC088B02B010BD000000000000F4
:103D6000000000000000F03F000000000000E03F05
:103D7000000000000000E0BF02E008C8121F08C1F8
:103D8000002AFAD170477047002001E001C1121FDC
:103D9000002AFBD17047C1B281F311887047C1B2CC
:103DA00081F311887047C1B281F311887047C1B2A5
:103DB00081F311887047C1B281F311887047C1B295
:103DC00081F311887047C1B281F311887047C1B285
:103DD00081F311887047C1B281F311887047C1B275
:103DE00081F311887047C1B281F31188704780F365
:103DF0001088704780F31088704780F310887047F0
:103E000080F31088704780F3108870472DE9F74FD2
:103E10000446904600BF4FEA5806019D4FF0000B44
:103E20007448754908603F207449496860F305018A
:103E3000724A516000BF00BF1046406820F48030D5
:103E40001146486000BF00BF6B48006820F4700056
:103E500040EA04506849086000BF00BF0846006897
:103E600020F4702040EA0440086000BF0D2C07D108
:103E700000BF0846006840F40040086000BF00BF73
:103E80000E2C08D100BF5C48006840F480405A49BD
:103E9000086000BF00BF4FF400505749096821F483
:103EA00000510143544A116000BF002011460968C7
:103EB00021F060510143116000BF042011460968E0
:103EC00021F00F010143116000BF002000F006F94E
:103ED000012801D0BDE8FE8F00BF4748006840F0D0
:103EE00080404549086000BF4FF0000A0DE000BF68
:103EF0004248806840F480304049886000BF0AF141
:103F000001008246401C00B903E017F07BF800284E
:103F1000EDD100BF072000F0E1F8012800D0D9E77B
:103F200054E04FF0000B2CE0BBF57A7F24D900BFA2
:103F30003148006820F080402F49086000BF00BF72
:103F40000846006840F00040086000BF00BF084617
:103F5000006820F00040086000BF002000F0BEF8BC
:103F6000012800D0B6E726480068401C24490860B4
:103F7000052009F621FA4EE7012009F61DFA0BF19A
:103F8000010B17F03FF80128CED100BF1B48806815
:103F900000F07F008146B14501D9304600E0484637
:103FA00081464FF0000A0DE000BF1448076800BFCB
:103FB00025F8027B4FF6FF7000EA174025F8020B48
:103FC0000AF1010ACA45EFD3A6EB0906002EA8D1D3
:103FD0005EB908F0010040B100BF17F013F80128E6
:103FE000FBD100BF054800682880002000F076F86B
:103FF00000BF6FE70A07080700A8004000E0004084
:10400000B063002010B5044600BF00201A490860C4
:1040100000BF00BF18498039086000BF00BF1748C3
:10402000406A174908600846007800F0010020B196
:104030000846008800F4807098B906E00CB90020AA
:1040400010BD641E012009F6B7F900BF0B48806956
:1040500040F20111884201D1012000E00020002837
:10406000ECD00848006808490860044840680749DF
:1040700008600120E4E7000094D41D4200E0004005
:104080000C64002000A800400464002008640020A4
:104090000D4800680D4948600D4800680D490860EA
:1040A0000D48007800F0010020B10B48008800F4B2
:1040B000807040B900BF0548006A20F00100034944
:1040C000086200BF00BF70470864002000E00040A5
:1040D0000464002000A800400C64002070B5044671
:1040E00016F088FFA04201D1012070BD00BF10482A
:1040F000C06820F0070020430D49C86000BF0025BC
:1041000008E016F077FFA04200D107E0012009F691
:1041100053F96D1C4FF6FF708542F2D300BF4FF686
:10412000FF70854201D10020DFE70120DDE70000BC
:1041300000E0004010B500BFEFF3108004460120FE
:10414000FFF758FE204610BD2DE9FF5F82B0002129
:10415000DDE90430020DDDF840B0034318D044F629
:104160001050A2F2FF3242431514119801281FD0BB
:10417000A5EB0B00401C5FEA000A4FF000064E4F13
:10418000DFF83891B046504615D5CAF1000413E067
:10419000119801244AA3012801D16FEA0B0102986A
:1041A000119AC0E90031C0E9024206B0BDE8F09FB3
:1041B000CBF10000DFE704460021404A491842EBFA
:1041C0000450CDE9001012E0E00707D032463B462C
:1041D00040464946FEF7DBF88046894632463B4674
:1041E00010461946FEF7D3F806460F466410002C19
:1041F000EAD1DDE90401DDE90023BAF1000F06DAB6
:10420000FEF7C5F842464B46FEF7C1F805E0FEF75B
:1042100030F942464B46FEF72CF904460E46002282
:10422000284BFEF74DFB03D84FF0FF30014607E067
:104230000022254B20463146FEF702F8FEF710FB20
:10424000102409E0002C0ADB0A220023FEF7CEF935
:10425000039B30321A55641E50EA0102F2D1641CED
:10426000039AC4F111031444119A012A03D00122C4
:1042700008430DD10AE0084304D000204FF0110B91
:10428000119072E7A3EB0B056D1E0DE05B4504DD9D
:104290004FF0000205F1010504E003DA4FF00002DF
:1042A000A5F10105002AECD002981199C0E902316C
:1042B000C0E9004579E70000000014400000F03F2D
:1042C000300000000000F0430000E03F70B52DED2D
:1042D000108B8AB005460C469FED510B8DED080BF7
:1042E00020216846FDF7F9FE9FED4D0BB0EE408AA8
:1042F000F0EE608A102269462846FFF787FD002607
:104300000FE006F108013DF81100FDF742FF41EC16
:10431000190B53EC182BFDF793FF41EC180B701C95
:10432000C6B2082EEDDB9FED400B53EC102B51EC89
:10433000180BFEF79EF841EC180B0D2D41D1E08AC9
:10434000FDF727FF41EC1B0B9FED390B53EC102BB6
:10435000FEF78FF841EC190B6088FDF71AFF41EC6E
:104360001F0B9FED350B53EC102BFEF710F841ECB3
:104370001E0B9FED330B53EC102BFEF708F841ECAE
:104380001C0BA08AFDF705FF41EC1E0B53EC182B0C
:10439000FDF7FAFF41EC1D0B53EC1C2BFEF769F8FF
:1043A00041EC1B0B9FED280B53EC102BFEF761F833
:1043B00041EC1A0B53EC192BFDF742FFCDE9080134
:1043C00027E00E2D25D16088FDF7E3FE41EC1C0BA4
:1043D0009FED190B53EC102BFDF7D9FF41EC1A0B95
:1043E0002088FDF7D6FE41EC1C0B53EC182BFDF793
:1043F000CBFF41EC1B0B53EC1A2BFEF73AF841ECC8
:10440000190B9FED130B53EC102BFDF7C0FFCDE9FB
:1044100008019DED080B0AB0BDEC108B70BD0000CB
:10442000000000000000000000000000000020402C
:104430000000000000005940000000000000F0BF34
:10444000000000000000004079E9263108AC5CBFA4
:10445000B76DDBB66DDB0E402DE9FF4F95B09B4687
:104460008946064600250FE2252877D100242746F5
:10447000F84A0121059400E0044316F8013F203B6F
:1044800001FA03F01042F7D130782A2811D06FF0EA
:104490002F033078A0F13002092A16D8059A44F08B
:1044A000020402EB820203EB42021044761C0590E8
:1044B000EFE759F8042B0592002A03DA504244F43E
:1044C0000054059044F00204761C30782E2816D152
:1044D00016F8010F44F004042A280DD06FF02F02C3
:1044E0003078A0F13003092B09D807EB870302EBE2
:1044F0004303C718761CF3E759F8047B761C307821
:104500006C280FD006DC4C2817D068280DD06A28FC
:1045100014D104E0742810D07A280FD10DE044F4AF
:1045200000140AE044F4801401E044F4401472786A
:10453000824202D104F58014761C761C30786628FD
:104540000BD013DC582877D009DC002875D045281B
:10455000F6D04628F4D047281AD19DE118E0632808
:1045600035D0642879D0652812D195E1702873D0B0
:1045700008DC6728F1D069286FD06E280DD06F282D
:1045800006D1B5E073282CD0752875D0782874D062
:104590005A46179990476D1C75E1C4F302500228E2
:1045A00009D003280DD0D9F8001004280DD00D60D3
:1045B00009F1040967E1D9F80010EA17C1E90052CE
:1045C000F6E7D9F800100D80F2E70D70F0E719F862
:1045D000041B8DF8001000208DF80100EA46012030
:1045E00003E059F804AB4FF0FF3061074FF00001D2
:1045F00002D40DE008F101018846B9420FDA804586
:10460000F8DB1AF808100029F4D108E008F10101DC
:1046100088468142FADB1AF808100029F6D105987D
:104620005B46A0EB080721463846179A00F094FA3B
:10463000284400EB080507E04DE029E10DE01AF8F9
:10464000010B5A4617999047B8F10108F7D25B461B
:1046500021463846179A13E142E00A220092C4F339
:1046600002524FF0000A022A08D059F804CB032A5C
:104670004FEAEC710AD00DE029E02AE009F10701C8
:1046800021F00702F2E802C1914609E00FFA8CFC22
:104690004FEAEC71042A03D14FFA8CFC4FEAEC711B
:1046A000002907DA0A460021DCF1000C61EB020167
:1046B0002D2202E0220504D52B228DF804200122B0
:1046C00003E0E20701D02022F7E7904659E00A21F3
:1046D00002E010220DE010214FF0000A00910BE0E3
:1046E00010224FF0000A44F004040827009203E06F
:1046F00008224FF0000A0092C4F30252022A05D0A9
:1047000059F804CB0021032A08D009E009F1070178
:1047100021F00702F2E802C1914605E01FFA8CFC85
:10472000042A01D10CF0FF0C4FF00008220728D515
:10473000702806D0009B83F0100353EA0A0305D0CB
:104740000EE040228DF80420012208E05CEA01021C
:1047500006D030228DF804208DF805000222904604
:10476000009B83F0080353EA0A030AD15CEA0102C2
:1047700001D1620705D530228DF804204FF00108E1
:104780007F1E582804D034A003900EA802900DE09C
:1047900036A0F9E753466046009AFDF727FF8446A6
:1047A0000398825C0298401E029002705CEA01004D
:1047B000F0D1029806A9081A00F1200A600702D574
:1047C00024F4803400E00127574502DDA7EB0A00FE
:1047D00000E0002000EB0A01009005984144401AD7
:1047E0000590E00306D45B462146179A059800F031
:1047F000B3F90544002706E001A85A46C05D1799A1
:1048000090476D1C7F1C4745F6DBE0030CD55B46EB
:104810002146179A059800F09FF9054404E03020DE
:104820005A46179990476D1C0099481E0090002920
:10483000F5DC08E0029802995A460078491C02917A
:10484000179990476D1CBAF10001AAF1010AF1DC39
:1048500065E1000009280100303132333435363744
:1048600038396162636465660000000030313233BC
:10487000343536373839414243444546000000005C
:1048800000F058F90544761C307800287FF4ECAD30
:1048900019B02846BDE8F08F620700D4062709F159
:1048A000070222F0070CFCE80223E14603F000486F
:1048B0005FEA080C02D00FF2702C0DE05FEA045C96
:1048C00002D50FF2682C07E05FEAC47C02D00FF239
:1048D000602C01E0AFF2700C4FF0FF3823F0004382
:1048E000CDF850C065280CD006DC452809D04628F4
:1048F0001DD047283DD13DE0662818D067287ED1DD
:1049000038E00021112F01DB112000E0781CCDE9F7
:10491000000106A90EA8FFF717FCDDE90F010E9AAA
:1049200003910021009207F1010A04914DE04FF03C
:1049300000400097CDE9011006A90EA8FFF704FC7E
:10494000DDE90F0203920E9B11990022DDF80CA005
:104950000093049211B9791C00EB010AB7EB0A002D
:1049600004D4C0F1FF3007F1010A0490AAEB07005C
:10497000019044E0012F00DA01270021112F01DD11
:10498000112000E03846CDE9000106A90EA8FFF786
:10499000DBFBDDE90F010E9A0391002104910092E7
:1049A000BA4621070CD40399514500DA8A46BAF178
:1049B000010F05DD009AAAF10101515C302908D0F0
:1049C000B84202DA10F1040F06DA0121CDE9011034
:1049D00015E0AAF10101E9E7002805DC049901448A
:1049E0000491AAEB000102E0411C514500DD8A461A
:1049F0000499401A401C01904FF00040029020079B
:104A000004D40198504501DBCDF8048000208DF8D6
:104A10004F0002980DF14F07B0F1004F25D02B2029
:104A20000E9002984FF0020800280CDA40420290E3
:104A30002D200E9007E00A210298FDF7C1FD3031CC
:104A4000029007F8011DB8F10001A8F10108F2DC9D
:104A500002980028EFD1791E0E980870307800F087
:104A6000200040F0450007F8020D12A8C01B00F11D
:104A700007081498007800B1012000EB0A010198A2
:104A800001EBE07105984144401A401E0590E00397
:104A900006D45B462146179A059800F05DF8054458
:104AA0001498007818B15A46179990476D1CE00386
:104AB00024D55B462146179A059800F04DF8054429
:104AC0001CE00498002807DBDDE90301884203DDD0
:104AD0000098405C179901E0179930205A4690479A
:104AE000049805F10105401C04900198401E0190B6
:104AF00004D12E205A46179990476D1CBAF1000137
:104B0000AAF1010ADDDC05E017F8010B5A461799F6
:104B100090476D1CB8F10001A8F10108F4DC5B4678
:104B20002146179A0598ABE62D0000002B000000E7
:104B3000200000002DE9F041044600251E461746DE
:104B4000880404D405E039462020B0476D1C641E5B
:104B5000F9D52846BDE8F0812DE9F041044600254D
:104B60001E469046C80301D5302700E02027880460
:104B700004D505E041463846B0476D1C641EF9D5A2
:104B80002846BDE8F08110B504462046FFF732F90B
:104B900010BD4A68002A06D00A68531C0B601070CA
:104BA0004868401E486070470A68531C0B601070CC
:104BB000704710B50446204613F096FE10BD10B5A0
:104BC000044620461AF018FC10BD70B504460D4688
:104BD000294620461FF04AFB2946204619F054FC7E
:104BE00070BD00000848006840F0010006490860F8
:104BF0000648074908600748486007488860074931
:104C0000074841677047000064650020B5F8200040
:104C100070D400200DF8200069EE2000C91F21008B
:104C2000EC5F00202DE9F04116461D46DDE9062324
:104C3000074688460D497C2000F612FC044684F89D
:104C400038502022414604F13900FDF71FFA202296
:104C5000394604F15900FDF719FA04F138023146DA
:104C60002046BDE8F041412300F6D4BE714C20003F
:104C700000F62EBE2DE9F0471D46DDE9086A0A9BC5
:104C800081468846174600221A49A42000F6E8FB10
:104C9000044600213D3484F8641044F805ACE17307
:104CA000012020743068C4F81100B088A4F8150001
:104CB000B079E0752868A061A888A083A879A0775A
:104CC0003D3C1022394604F15C00FDF7DFF910226B
:104CD000414604F16C00FDF7D9F907480068E06728
:104CE0004A462046BDE8F04703492023091D00F647
:104CF00091BE0000FD4C2000309222002DE9F047CB
:104D000004468A464FF000085146204600F6E0FD72
:104D1000F8B194F8A1004FF0010904F14C0704F137
:104D20003C0530B104F18106012813D002282FD1AF
:104D300021E0102251462846FDF7A8F9002084F80A
:104D4000800084F8A19035233A462946204600F693
:104D500061FE1DE0102251463046FDF797F984F8B8
:104D60008090022084F8A10035233A462946204647
:104D700000F650FE0CE01022514604F19100FDF7C0
:104D800085F9A36B31460020626998474FF001080E
:104D90004046BDE8F08700002DE9F05F1546DDE9EB
:104DA0000B9A1E46DDF82880DDE90D2383460F4669
:104DB0001D497C2000F654FB04461022394604F1BC
:104DC0006900FDF763F91022294604F15900FDF747
:104DD0005DF91022314604F14900FDF757F93834E6
:104DE000B8F80000E08198F802002074D9F80000BB
:104DF000C4F80700B9F80400A4F80B0099F80600FD
:104E00006073DAF800002060BAF80400A0809AF815
:104E10000600A071383C04F1380259462046BDE82E
:104E2000F05F412300F6F6BD2D4E200000F650BD88
:104E30002DE9F04115461E46DDE9062380460F4662
:104E40000F49882000F60CFB04462022414604F15D
:104E50006800FDF71BF92022394604F14800FDF7F0
:104E600015F9314604F1380010220646FDF70EF917
:104E7000324629462046BDE8F041502300F6CABD1F
:104E8000854E200000F624BD01481DF093BF0000B0
:104E9000645D002030B589B00546887ACA7A0B7BFC
:104EA0004C7BCDE90443CDE90620887BC97B2CA24D
:104EB00040F28633CDE90032CDE90210364B37A2FD
:104EC0003CA1022000F006FD3C48FF21017028466D
:104ED00020F0DCFE3A4807F0A7FC394800224FF4E6
:104EE0007A71503801F006F8044654B114222A4968
:104EF000183104A8FDF7CAF8ADF8144004A800F072
:104F0000B1F82F4800224FF4FA61783800F0F2FF30
:104F1000044654B1142220492C3104A8FDF7B6F8F8
:104F2000ADF8144004A800F09DF8254800224FF485
:104F30007A61283800F0DEFF044654B11422164985
:104F4000403104A8FDF7A2F8ADF8144004A800F021
:104F500089F809B02846BDE8304006F04BBD000096
:104F6000436F6E6E6563746564207769746820743E
:104F70006865207065657220253032583A253032D8
:104F8000583A253032583A253032583A253032587E
:104F90003A253032582E0000E87F22002E2E5C5336
:104FA00072635C757365725C757365725F61707056
:104FB0002E6300004E4F5F5441470000485E0020C2
:104FC00038C7002010B586B0044615A240F2A233BF
:104FD000CDE900320291184B18A21EA1022000F068
:104FE00079FC1E4801F018F81C48283001F014F82C
:104FF0001A48503001F010F81949204603F09EFA83
:105000000446002C0AD014220B491C3101A8FDF7DC
:105010003DF8ADF8084001A800F024F806B010BD36
:10502000446973636F6E6E656374656420283078BD
:1050300025303258292E00003C8022002E2E5C5351
:1050400072635C757365725C757365725F617070B5
:105050002E6300004E4F5F5441470000C0C6002041
:105060005A5E00203EB504464FF400711A48FDF721
:1050700034F8207810B1012819D01DE0002117481C
:10508000A28830F831309A4207D100EBC10014A158
:1050900043681148FEF758FC0EE02E2902D0491C47
:1050A000C9B2EEE714A10C48FEF74EFC04E01DA1C6
:1050B00009486268FEF748FC074921A22069CDE94A
:1050C00001210090D4E902231EA1002000F002FC7F
:1050D000BDE83E4000F0CABB587400206079220051
:1050E0004572726F7220636F6465203078253034AA
:1050F000583A2025730000004572726F7220636F6A
:105100006465203078253034583A204E6F20666F21
:10511000756E6420696E666F726D6174696F6E2E54
:105120000000000028257329206973206E6F742009
:1051300065737461626C69736865642E00000000B9
:10514000257300006170705F6572726F722E63006C
:1051500070B504460D460121204603F0B3FB70BD37
:105160002DE9F041014600291BD000240F4E0E4AC4
:10517000357814E002EB04100F780378BB420CD1B1
:105180004B684068034208D0707808B900F040FBD3
:105190002046BDE8F04100F04FBA641CE4B2AC42D6
:1051A000E8D3BDE8F081000064760020705D002047
:1051B0007CB505460E46002D01D0002418E0E52000
:1051C0007CBD05EB041041680091017A8DF8041054
:1051D000417A8DF8051008218DF80610C268007814
:1051E0000023694600F038F80028E9D1641CE4B2D5
:1051F000B442E6D300207CBD10B502460846052A1D
:1052000025D2DFE802F0030303111900114951F818
:1052100032200104090C05D022B10146104611F0DC
:10522000DFFA10E0E42010BD10F0FF0F02D010F004
:1052300001FC08E0E42010BD10F0FF0F05D001468E
:10524000002011F0DFFB002010BDE42010BDE6209F
:1052500010BD0000547822002DE9F05F05460C4691
:105260009046994626680027042D11D031462846DD
:10527000FFF7C2FF2146284600F05EF8002808D15B
:10528000032D08D04FF0100A2807070E002448E02D
:10529000E620BDE8F09F4FF0080AF7E7F0073DD0A1
:1052A0003DB1012D05D0022D03D0032D21D0E620E4
:1052B000EFE71E4800EBC50090F904B0BBF1000F0A
:1052C00015D0EFF31081012080F31088184AE019FF
:1052D00042F8308002EBC000C0F8049081F31088DF
:1052E000584614F66DFF584614F688FF16E0E42081
:1052F000CFE7EFF31081012080F310880D4AE01909
:1053000042F8308002EBC000C0F8049081F31088AE
:105310001B2014F655FF1B2014F670FF7608641C42
:10532000E4B25445BAD30020B3E700005478220019
:10533000187100201872002030B597B005460C4651
:105340001C22454910A8FCF7A1FE1C2242491C3131
:1053500009A8FCF79BFE20223F49383101A8FCF741
:1053600095FED4B13D4906201DF01EFC3C490720A6
:105370001DF01AFC3B491B201DF016FC3A49122077
:105380001DF012FC34496C39A1F12C02052D61D2BB
:10539000DFE805F0060606213900E52017B030BD2C
:1053A000207931F810001190607932F810001290D5
:1053B000A0791390206810902748843850F8350061
:1053C00021880904090C04D018B110A911F0F9FAC8
:1053D00039E0E420E2E7207901EB4000808A0A907E
:1053E000607902EB4000C0880B90A0790C90206897
:1053F0000990207810F0FF0F03D009A810F0FEFBF1
:1054000021E0E420CAE72079031F042B01D8E7201C
:10541000C4E7022819D001200290207901EB400056
:10542000008D0390607902EB400080890490A079A0
:10543000059020680190207810F0FF0F08D001A996
:10544000002011F093FB0020A8E702200290E4E77F
:10545000E420A3E7E620A1E7D87822002D40100041
:1054600027401000234010001D401000024600207D
:10547000052A11D2DFE802F0030303090C000748F4
:1054800050F8320089B214F6FABD88B210F024BC8C
:1054900089B2002011F072BB7047000054782200DE
:1054A000002803D00249086001207047002070479F
:1054B000785D002070B505460024091F062917D223
:1054C000DFE801F003070C111315284600F0A4F8DB
:1054D0000EE00124284600F09FF809E00224284647
:1054E00000F09AF804E0032402E0042400E005241C
:1054F000034A214628461268BDE870401047000064
:10550000785D00202DE9F0410446204600F0AEF819
:1055100001462E4800230826025D00F10A0700F12B
:105520001405AAB1052A33D0082A2AD1092945D061
:10553000082926D1295D491CC9B22955142920D32F
:105540002B5506552046BDE8F0410821FFF7B2BFB4
:10555000052913D0042916D0072914D0082910D101
:10556000295D491CC9B2295514290AD32B55065562
:105570002046BDE8F0410821FFF79CBF3B550521BF
:105580000155BDE8F0812046BDE8F041FFF792BF2C
:1055900005290CD0395D491CC9B239553229F0D3DF
:1055A00003552046BDE8F0410521FFF783BF0355B1
:1055B0002046BDE8F0410621FFF77CBF0355204699
:1055C000BDE8F0410921FFF775BF000044770020D6
:1055D00070B504460D4600F00FF808B100F02EF942
:1055E0000348044A2946005D5268BDE870401047F0
:1055F00058760020705D00200020064911F8102028
:105600000AB100207047401CC0B20A28F6D301201E
:1056100070470000627700200349002201F8102043
:1056200001EB40004270704762770020014A02F8A7
:105630001010704762770020024A012102EB4000FF
:10564000417070476277002070B50024064D05EB6D
:105650004400407810B12046FFF754FF641CE4B2C8
:105660000A2CF4D370BD00006277002070B50021D1
:105670001D4B03F132051A5C002A09D0002403F106
:105680000A06012A0AD0022A12D0032A24D11FE0D6
:1056900015F8102002B301221A541DE015F810204D
:1056A0001AB1345402221A5416E01C54042113E097
:1056B00015F810204AB1325C521CD2B23254642A1E
:1056C0000AD3072103221A5406E005211C5403E0E3
:1056D00015F8101011B10821084670BD1C54FFF7D1
:1056E0009BFF0921F8E700003077002010B5002863
:1056F00019D11FF003FE04460B4981F8904004EBDA
:10570000C40001EBC0025068401C5060907A401CFD
:1057100090720121054821F011FD2146BDE810409D
:1057200000201FF011BD10BD60CF0020F4CF00207D
:105730002DE9F0410E4617460A2E02D80FB100237C
:105740001AE00020BDE8F08103EB430400EB840580
:10575000114AA97AD154104910F824200C3101EBD8
:105760000314227069686160297A2172697A617212
:105770000A49E1605B1CDBB2B342E5D3064831461F
:105780000C30FFF715FD0648067047600548FFF727
:1057900087FE0120D6E700005876002061512000E6
:1057A000705D0020D15520002DE9F0410024124FFA
:1057B000DFF8488019E0002607EB041528786968AF
:1057C000FFF754FE10B9697A012902D0012802D0EE
:1057D00005E0012603E0687A022800D1012631465F
:1057E0002046FFF723FF641CE4B298F800008442CF
:1057F000E1D3BDE8F081000064760020705D0020F8
:1058000010B5FFF7D1FFBDE81040FFF71DBF000046
:1058100010B5074A0121074800F0CEF900220A21FD
:10582000044800F067FB04490120487010BD0000E7
:105830000158200008770020705D002010B5034853
:1058400000F0E8F902490020487010BD08770020F8
:10585000705D0020002806D0002904D0024AD269D9
:10586000002A00D010477047307400200248006AB8
:10587000002800D0004770473074002070B50D46F6
:1058800016460D4C00280AD00178032911D80121B1
:10589000A17601461A222046FCF7F8FB05E000201D
:1058A000A0761A210448FCF718FCE5612662002066
:1058B00070BD012070BD000030740020044A104407
:1058C000807D084201D00120704700207047000011
:1058D000307400202DE9FE4F074692469946002479
:1058E000A046CDF80480CDF8088059480178B94227
:1058F00002D2807E00287DD10EAD0095EFF3118697
:105900000220FEF7A5F88346FEF748F9401C012166
:1059100081400BEB0100C0B280F3118801213846B1
:10592000FFF7CCFF38B14B484B4950F827202046B1
:1059300000F0A4F804461C213846FFF7BFFF0028FA
:105940005ED046A24449204600F098F8204484B234
:1059500004213846FFF7B2FFF8B152463E492046CF
:1059600000F08CF8204484B208213846FFF7A6FFE7
:1059700038B13BA23849204600F080F8204484B278
:105980000BE010213846FFF799FF30B135A23249BC
:10599000204600F073F8204484B208213846FFF70F
:1059A0008DFF90B14A462C49204600F067F820440C
:1059B00084B210213846FFF781FF30B12AA2264970
:1059C000204600F05BF8204484B210213846FFF7EF
:1059D00075FF60B126A2052101A80C9BFDF79CFF75
:1059E00001AA1D49204600F049F8204484B221A2B2
:1059F000194900E029E0204600F040F8204484B234
:105A00001548C4F5807120442B460D9AFDF7B0FF70
:105A1000CDF800804FF48071002804DB20448842D8
:105A200001DC85B200E00D46A81C884200D9FE25A5
:105A300011A20949284600F021F8284481B20648FD
:105A4000FFF708FFF0B280F31188BDE8FE8F000079
:105A500030740020545D00203073002028000000C6
:105A6000200000003A000000204C696E653A0000FA
:105A7000256C6400292000000D0A000030B50546A1
:105A8000002000290CD0002A0AD006E02B18FF2B9A
:105A900006D8CC54521C401C80B21478002CF5D18E
:105AA00030BD000010B5094A06214CF2010019F082
:105AB0001FF806F06FFAF4220549002000F062FC9E
:105AC000BDE8104000203EF69DB80000A47D2200F5
:105AD0000886002010B50848017800290AD1012164
:105AE000017006483DF690FFBDE8104000210448D3
:105AF0003EF620B910BD0000485D00204140100076
:105B000069F6210070B58CB006460C46002C18D002
:105B1000242103A8FCF7E1FA20780025012490B1A4
:105B2000012815D014A04FF45F71CDE90010194B76
:105B300019A21FA10320FFF7CDFE03A9304605F0EF
:105B4000BFFE0CB070BD8DF80C508DF80D40F4E721
:105B50008DF80C408DF80D4010210DF10E00FCF772
:105B6000BCFA40208DF80E00E2208DF80F008DF871
:105B700010408DF81150E0E7556E737570706F72BC
:105B80007465642070616972696E67206D65746800
:105B90006F642E00CC7F22002E2E5C5372635C75E6
:105BA0007365725C757365725F6170702E6300005F
:105BB0004E4F5F54414700002DE9F04104460D4629
:105BC0001746002D04D0012D02D00120BDE8F08140
:105BD000E4B1DFB1607801281AD0EFF3118602201A
:105BE000FDF728FF8046FDF7D1FF401C01218140D1
:105BF00008EB0100C0B280F3118800206070A5702E
:105C0000E761F0B280F311880020DFE70120DDE7D3
:105C10000620DBE710B50446002C0CD0204600F02F
:105C2000FBF9FF2060700021A160E16021616161EA
:105C30000020E06110BD012010BD000010B586B04D
:105C40001C4A01211C48FFF7B7FF04464CB114223F
:105C50001A4901A8FCF71AFAADF8084001A8FFF7A5
:105C600001FA1548164A01212830FFF7A5FF04461E
:105C700054B114221149143101A8FCF707FAADF808
:105C8000084001A8FFF7EEF90B480E4A01215030F9
:105C9000FFF792FF0446002C0AD01422074928314E
:105CA00001A8FCF7F3F9ADF8084001A8FFF7DAF90D
:105CB00006B010BD59D02000C0C60020907F220041
:105CC000EDCF20002D692000F0B5DDE907450599ED
:105CD00081614FF47A76A2FB061C03FB06C3002702
:105CE00002FB0732C0E9021209196A41C0E9041235
:105CF00000210162F0BD00002DE9F0410446002CB6
:105D000013D0EFF311850220FDF794FE0746FDF74F
:105D10003DFF401C012606FA00F03844C0B280F373
:105D200011881248002121620EE00020BDE8F081B8
:105D3000D4E90432D1E9047CDB1B72EB0C0202D201
:105D4000016A216203E00846016A0029F0D1046279
:105D50006670064810380168491C0160016B41609B
:105D6000E8B280F311880120E0E70000D072002043
:105D70002DE9F04105460024EFF311860220FDF7DE
:105D800059FE0746FDF702FF401C012181407818AB
:105D9000C0B280F31188134A106BE8B115B102F15B
:105DA000100010E00446206A10631068401E106066
:105DB0000CE0A94206D11168491E1160296A0162EE
:105DC0002C4603E00846016A0029F2D124B10020E4
:105DD00020626070106B5060F0B280F31188204632
:105DE000BDE8F081C07200202DE9F041EFF311878A
:105DF0000220FDF71FFE0446FDF7C8FE401C0121EE
:105E000081406018C0B280F31188114D002608E06F
:105E10002078012804D1E16909B1A069884726707A
:105E20002D6A2C6A002CF3D1094D103D07E0E16981
:105E300009B1A06988472670206AA8632662AC6B06
:105E4000002CF4D1F8B280F311880120BDE8F08174
:105E5000D07200202DE9F041EFF311870220FDF709
:105E6000E9FD0446FDF792FE401C012606FA00F00B
:105E70002044C0B280F311881D4DA5F110082DE01B
:105E8000D4E90430D8E902125B1A60EB0200D8E9C9
:105E90001021D21A814124D326702046FFF768FFD3
:105EA000A078012806D0124828300021216201681C
:105EB00061B10FE0D8E90220D4E90213511858412A
:105EC000C4E904102046FFF717FF07E0046005E06F
:105ED00001F1200001680029FAD104602C6A002C2D
:105EE000CED1F8B280F311880120BDE8F081000026
:105EF000D07200202DE9FF5F82460E4693464FF098
:105F00000008BAF1000F20D0414886421DD8E6B102
:105F1000EFF311870220FDF78DFD0446FDF736FEF5
:105F2000401C012181406018C0B280F311885046A6
:105F300012F0AEFD10B19AF8010040B1F8B280F352
:105F400011880F2004B0BDE8F09F0120FAE718F097
:105F5000A9F904460D464FF47A7106FB01F022467A
:105F60002B46002112F064FDDFF8A890B0B1D9F8FB
:105F7000040048B1D0E90410091B60EB0500C9E931
:105F8000021018F009FA04E00021C9F80810C9F855
:105F90000C104FF00108D9E9020106E0D9F804001D
:105FA000D0E90421101B61EB0501CDE90201324665
:105FB0000023CDF800B05046FFF786FE5046FFF7AD
:105FC0009BFE1CF009FD4FF0E024D4F800014FF0D7
:105FD000806510F0806F01D0012000E0002020B922
:105FE0001A20FDF7DBFCC4F80051B8F1000F0AD00D
:105FF000D9F80400D0E90431D9E90202181A61EB9A
:10600000020118F085F9F8B280F31188002099E7B1
:10601000008AB907C07200202DE9F041044600252E
:10602000002C39D0EFF311870220FDF703FD06465F
:10603000FDF7ACFD401C012181407018C0B280F317
:1060400011886078012824D1144E7068A0420BD1C9
:1060500018F028F9D4E90432181A62EB0102C6E9F3
:10606000020218F099F901252046FFF781FE5DB183
:10607000706848B1D0E90421D6E90203101A61EB37
:10608000030118F045F904E01DB9706808B918F06B
:1060900083F9F8B280F31188BDE8F081C072002066
:1060A00070B504461A4D55F8240070301AF095FD6D
:1060B00082B21646A2B155F8240090F801110129C8
:1060C0000ED0012180F80411802A0FD355F8240046
:1060D000802200F1800170301AF094FD80260CE0DF
:1060E00055F82410002081F8000170BD55F82400F7
:1060F00000F1800170301AF085FD55F82400324619
:1061000000F18001001D11F0A5FB0028EDD170BD4C
:10611000B072002010B5017802290AD181880548A3
:1061200006F0DEFAF422BDE810400249002000F03B
:1061300029B910BD088600202DE9F84304464D4FCB
:1061400057F82400061D042C7ED290F86C1000290C
:106150007AD0012978D190F80011012974D190F8F2
:106160000111002970D1012180F80111002157F897
:106170002400D0E903231344027D02F00102D21D62
:106180009D184268D36FC3F38003002BFAD090F8B8
:106190000421A2B1384A1368491C90F83B20102A08
:1061A00006D08268B3FBF2F26A43B1EBC21FF3D9A7
:1061B00057F8240070301AF010FD85B226E0B0F8D0
:1061C0002480C58C001D11F02FF857F8240041F2EF
:1061D000883300EB0801491B8031001D2A4611F06D
:1061E000EBFAE5E757F824000122703069461AF00F
:1061F00009FD57F824004068C16FC1F34001002930
:10620000FAD09DF8001001606D1EADB2002DE9D1ED
:1062100057F8240070301AF0E0FC0028C8D130682C
:1062200041694906FCD5EFF31085012080F3108801
:1062300057F8240070301AF0D0FC68B1EFF31081E9
:10624000012080F3108800E011E03068426842F0DD
:106250008202426081F3108857F82410002081F8F0
:10626000000157F8241081F8010185F31088BDE87A
:10627000F8830000B0720020585400202DE9F0414E
:1062800005460F46002D06D02AB12C78042C04D3E5
:10629000E820BDE8F081E520FBE7344E05F1580029
:1062A00046F82400D2E900310A46703019461AF047
:1062B0007FFC291D286D1EF0D1F80028E9D156F881
:1062C0002410281D486656F82400076056F824005C
:1062D0001822083005F14001FBF7D8FE244856F893
:1062E000241000EBC4056868486056F82400001DBF
:1062F00010F0FEFF56F82400001D11F0E9F81C48CC
:1063000001220321103819F01DFA56F8241001203B
:1063100081F86C0056F82410002081F8000156F82E
:10632000241081F8010156F8241081F8020156F872
:10633000241081F803010F490C201CF035FC0E4994
:106340000D201CF031FC0D4934201CF02DFC0C49B3
:1063500035201CF029FC95F9010013F631FF95F961
:10636000010013F64BFF002093E70000B0720020FD
:1063700040792200D5382000E5382000F53820008B
:106380000539200070B5042801D3E82070BD134CF6
:1063900054F820304BB193F86C5035B139B132B16B
:1063A00093F80351012D04D010E0E52070BDE420E6
:1063B00070BD002583F8035154F820305B68022536
:1063C000C3F8885054F820305B681B6854F82000EC
:1063D000001D11F089F90028EAD170BDB0720020CB
:1063E0002DE9F04104461A4D55F8240070301AF09A
:1063F000F4FB82B2164600277AB155F8240090F8D3
:106400000111012909D0802A0ED300F180017030DA
:1064100080221AF0F7FB80260BE055F8240080F864
:1064200000710020BDE8F08100F1800170301AF0A9
:10643000E9FB55F8240080F8047155F82400324631
:1064400000F18001001D11F06DFA0028EAD1E9E7A2
:10645000B072002070B5042801D3E82070BD104D43
:1064600055F8204064B194F86C604EB151B14AB116
:106470005E1C09D044F62066B34205D9E42070BD05
:10648000E52070BDE42070BD002684F8026155F857
:106490002000001D11F090F90028F4D170BD00001B
:1064A000B07200202DE9F74F84B005460C46022655
:1064B00004F1080920460EF05FFF07463E48D0F879
:1064C00004A000200390B5F5804F0ADBB5F5004F1E
:1064D00007DA3948406839490968A0EB010A012008
:1064E0000390E019504501DD052662E0324800685E
:1064F00000F6FF7030490988491EC1F30B01401AAC
:10650000C0F3073B039810B12C48006800E000205E
:1065100002902B4800682B490968401A001F264941
:10652000497AA1EB0B01A0EBC10023490968411A8C
:106530000298A1EB000809EB0700404532DD00207E
:1065400011231E224FF400410090012041F656F91C
:10655000002108460EF0BCFDC8B91749487A12F070
:10656000F1F806461EB1304607B0BDE8F08F0020B6
:1065700012231E224FF400410090012041F63EF903
:1065800021462846069A1FF075FD064610E00020B9
:1065900013231E224FF400410090012041F62EF9F2
:1065A0000F2605E021462846069A1FF063FD0646A1
:1065B00000BF3046D8E70000C0D90020F8610020B5
:1065C00004620020FC61002010B500210A4C002369
:1065D000002001EB410202EBC10204EB420222F86F
:1065E0001030401CC0B20A28F9D31375491CC9B237
:1065F0000A29EDD310BD000038E000203EB5054665
:106600001A20124B1B7899421FD8C1EBC10101EB34
:1066100041030F4901EB8304627104EB4501498991
:10662000012912D100208DF80000221D21890220AD
:1066300018F026FFADF802000120ADF80400641D3B
:1066400002946946284603F009FC3EBDEC5D00203B
:1066500010830020002816D0028800F10801B2F54E
:10666000806F0AD0A2F58062013A09D0032A0AD1CC
:10667000428A018A007900F007B8007900F058B822
:10668000007900F0F9B870472DE9F84F07468946C0
:1066900016464FF0000A0024304618F04AFF002842
:1066A0002FD0214DDFF8848011E0C4EBC40000EB53
:1066B000400005EB8000031D01890522484618F0C3
:1066C000FAFE8246BAF1000F05D1641CE4B298F8D4
:1066D00000008442E9D3BAF1030F14D000208DF8F2
:1066E00000009DF8000000280BD0C4EBC40000EBB4
:1066F000400055F82010002903D08DF8017068463D
:106700008847BDE8F88FC4EBC40000EB400005EB00
:10671000800000EB47004681012E03D002208DF857
:106720000000DEE70120FAE710830020EC5D002086
:106730002DE9F04385B081460E78ADF80060002762
:106740008DF804700024294DDFF8A4800EE0C4EB1E
:10675000C40000EB400005EB8002131D11890522E7
:10676000304618F0A8FE28B9641CE4B298F800106E
:106770008C42ECD3012102280ED0032817D0042824
:1067800023D0ADF802708DF804106946484603F036
:10679000DFFC05B0BDE8F083ADF80210C4EBC40027
:1067A00000EB400005EB8000401D0290EDE7022069
:1067B000ADF80200C4EBC40000EB400005EB800024
:1067C00000EB49000A300290DFE70720ADF8020035
:1067D000C4EBC40000EB400005EB80011E3103A8B0
:1067E00018F0B1FE03A80290CFE70000108300204C
:1067F000EC5D002070B506460D460020002E03D04B
:10680000012D03D9012070BD022070BD002426E0B7
:10681000C4EBC40000EB4001134806EBC40200EBDC
:10682000810006CAC0E900120021018100F10802BE
:1068300082620E4AC262021D0263052280F8342081
:1068400080F8521080F853100849891C8163283061
:10685000074903F041FC0028D7D1641CE4B2AC42E4
:10686000D6D304490D7070BD10830020707C2200C7
:1068700055662000EC5D00202DE9FC4706460F46DA
:10688000B7F8008000200024ADF8008000218DF8CA
:106890000210244DDFF890900EE0C4EBC40000EB32
:1068A000400005EB8000031D01890522404618F0D9
:1068B00002FE28B9641CE4B299F800108C42ECD3B3
:1068C00003281AD001208DF802009DF8020001284B
:1068D0000DD09DF8040050B1C4EBC40000EB4000A3
:1068E00055F8201019B18DF8056001A88847694650
:1068F000304603F07BFEBDE8FC87B86814F062FB0D
:10690000C4EBC40101EB410105EB810101EB460140
:106910004881012803D002208DF80400D5E701202A
:10692000FAE7000010830020EC5D002010B586B06F
:106930000E49A1F156001BF0AAFEC2B20B488438E2
:10694000027100210846FFF759FE04461A2C0BD0AD
:10695000002C09D01422064901A8FBF797FBADF8DB
:10696000084001A8FEF77EFB06B010BDCC5E0020FB
:10697000647E22001CB5007801280DD002280AD1BF
:106980000BA040F27711CDE90010134B13A219A10F
:106990000320FEF79FFF1CBD18A040F27311CDE944
:1069A00000100D4B0DA213A10320FEF793FF1CBD99
:1069B00042617474657279204C6576656C204E6F07
:1069C00074696669636174696F6E2044697361629A
:1069D0006C65642E00000000787E22002E2E5C5331
:1069E00072635C757365725C757365725F617070FC
:1069F0002E6300004E4F5F544147000042617474A3
:106A0000657279204C6576656C204E6F7469666995
:106A1000636174696F6E20456E61626C65642E00FF
:106A20000848006800280CD090F82E10012908D1E1
:106A300090F83000FF2804D20349086840F08060D5
:106A4000086070479C09002000000E4010B586B019
:106A5000044668463EF682F99DE80E0003A80EC083
:106A60000B4A891C21F07041516010463EF646FBEE
:106A700007483EF6B7FB207F002806D1054991F86C
:106A80000101054A01EB0010426006B010BD000094
:106A9000E0200020F4200020EDDC21001CB500786F
:106AA000104901280FD002280CD1002048700EA0F8
:106AB00040F25121CDE90010194B1AA21FA1032069
:106AC000FEF708FF1CBD012048701EA04FF4137193
:106AD000CDE90010124B13A218A10320FEF7FAFE15
:106AE0001CBD0000485E0020426F647920436F6D3A
:106AF000706F736974696F6E204D6561737572652F
:106B00006D656E7420496E6469636174696F6E208F
:106B100069732064697361626C65642E0000000013
:106B2000CC7E22002E2E5C5372635C757365725CA2
:106B3000757365725F6170702E6300004E4F5F5415
:106B400041470000426F647920436F6D706F736935
:106B500074696F6E204D6561737572656D656E74D5
:106B600020496E6469636174696F6E206973206582
:106B70006E61626C65642E0000281ED0028800F1F0
:106B80000801B2F5806F0CD0A2F58062013A0BD0FB
:106B9000022A0CD0032A10D1428A018A007900F01F
:106BA0000DB8007900F01CBA007900F07BBA837848
:106BB0000A460079194600F0F9B97047FEB5064655
:106BC0000F461546284618F0B4FC00281FD0114C7B
:106BD000062204F10803218A384618F06CFC0021D3
:106BE0008DF800108DF80160052807D1022D0FD017
:106BF00002208DF8000004EB460045829DF800005D
:106C0000002804D02168002901D068468847FEBDCD
:106C10000120EEE76C7E00203EB50546204C94F83E
:106C20004D14002907D0A4F1540101EB4502528A0A
:106C3000022A0CD02BE0002084F84C0484F84D0488
:106C400040F24C411648FBF748FA00203EBD0120B7
:106C50008DF80000124A098A4C3A042018F010FC02
:106C6000ADF8020094F84C0494F84D14401A00EB6F
:106C7000400101EBC00034F81010ADF8041004EB33
:106C80004000801C02906946284603F0E7F800287F
:106C9000DCD194F84D14491E84F84D143EBD00001B
:106CA000C07E00202DE9F74F84B083460026B04611
:106CB000DFF89CA20AF154093FE106EB460000EB25
:106CC000C60009EB40042746C8EB08100BEB400553
:106CD000039001AB02AA2146284617F079FC9AF8E6
:106CE0000400C0070FD09AF80A00C0070BD0029822
:106CF000018841F002010180A91C019818F036FCBE
:106D00000199084401909AF8040080070DD59AF87B
:106D10000A00800709D50298018841F0040101802A
:106D20000198A97A00F8011B019003983BF8100024
:106D3000A0F57F41FF397DD09AF80400400709D5BE
:106D40009AF80A00400705D5A98901AB0820029AE4
:106D500017F0EAFF9AF80400000709D59AF80A002C
:106D6000000705D5E98901AB1020029A17F0DCFF76
:106D70009AF80400C00609D59AF80A00C00605D59D
:106D8000298A01AB2020029A17F0CEFF9AF804005E
:106D9000800609D59AF80A00800605D5698A01ABF4
:106DA0004020029A17F0C0FF0198001B801E20802F
:106DB0009AF80400400620D59AF80A0040061CD52F
:106DC0003A46022105981BF067FF68B1701C00EB82
:106DD000400101EBC00009EB4004284601AB02AAC8
:106DE000214617F0F5FB2080A98A01AB8020029A8A
:106DF00017F09AFF2188084420809AF804000006C2
:106E000023D59AF80A0000061FD53A4602210598B4
:106E10001BF042FF68B1701C00EB400101EBC000A9
:106E200009EB4004284601AB02AA214617F0D0FB2B
:106E3000208000E07BE0E98A01AB4FF48070029A89
:106E400017F072FF218808442080BAF80400C005BA
:106E500021D59AF80B00C0071DD03A4602210598AB
:106E60001BF01AFF68B1701C00EB400101EBC00081
:106E700009EB4004284601AB02AA214617F0A8FB03
:106E80002080298B01AB4FF40070029A17F04CFF61
:106E9000218808442080BAF80400800521D59AF89A
:106EA0000B0080071DD53A46022105981BF0F4FE21
:106EB00068B1701C00EB400101EBC00009EB40041D
:106EC000284601AB02AA214617F082FB2080698B7D
:106ED00001AB4FF48060029A17F026FF2188084426
:106EE0002080BAF80400400521D59AF80B0040072D
:106EF0001DD53A46022105981BF0CEFE68B1701CE4
:106F000000EB400101EBC00009EB4004284601AB57
:106F100002AA214617F05CFB2080A98B01AB4FF43D
:106F20000060029A17F000FF218808442080B61CF8
:106F3000F6B208F1010808F0FF0806988045FFF452
:106F4000BCAE89F84C6489F84D6407B0BDE8F08F99
:106F50006C7E00202DE9F04106460D461746002DB7
:106F600001D0192F02D90120BDE8F0811B2440F285
:106F70004C410D48FBF7B1F80B4B002083F84C0453
:106F800083F84D04A3F1540000EB4600408A022828
:106F900008D13A4614212846FFF784FE3046FFF711
:106FA0003BFE04462046DFE7C07E00203EB50023BE
:106FB0008DF800308DF80100084C2368002B0CD0B0
:106FC00000290AD11178012904D1FFF725FE0320F9
:106FD0008DF800002168684688473EBD6C7E002021
:106FE000FEB506460C78154D062205F10803298AE0
:106FF000204618F060FAADF8004000218DF804102A
:1070000002280BD0052810D0ADF8021001208DF811
:1070100004006946304603F09BF8FEBD0420ADF83D
:1070200002000648001D0290F3E70220ADF80200BE
:1070300005EB460012300290EBE700006C7E00206A
:1070400030B4002821D090E81C001149C06881E8C4
:107050001C00C8600020088201F110028A620D4AFB
:10706000CA6201F108020A63062281F834208022F4
:1070700081F8522081F853000648801C8863044838
:1070800030BC0549283003F027B830BC02207047D7
:107090006C7E00203E7C2200796B20000048704707
:1070A0007C7E00202DE9FF4105460E4637881B4CAB
:1070B000062204F10803218A384618F0FCF9ADF8DD
:1070C000007000218DF802108DF804108DF8055025
:1070D000052815D001208DF802006946284603F0E6
:1070E00085FA9DF80200012808D09DF804000028C8
:1070F00004D02168002901D001A88847BDE8FF819C
:10710000B06813F05FFF022806D002218DF804104A
:1071100004EB45014882E0E70121F7E76C7E00209F
:10712000F0B5ADB005460E460024AC620CA8242193
:10713000FAF7D3FF1594169401A82421FAF7CDFF8E
:107140000A940B9422A824222946FAF79FFF686A22
:107150002B90A86A2C908A4D17A824222946FAF76A
:1071600095FF686A2090A86A2190012514950994DA
:1071700015950A95C8E022AF4FF0000C0022214679
:1071800057F82200401844EB0C0149084FEA30013F
:1071900047F8221020F00101B0EB010C02F10102CE
:1071A000092AECD3002057F8201011B9401C0928F7
:1071B000F9DBC0F1090078621498C00706D00CA86A
:1071C000FBF766FC2A98C007D5D048E00CAF4FF01B
:1071D000000C0020214657F82020521841EB0C03E8
:1071E0005B084FEA320347F8203022F00103B2EB8C
:1071F000030C00F101000928EDD3002057F82010FE
:1072000011B9401C0928F9DBC0F109007862D9E7FF
:1072100017AF4FF0000C0020214657F8202012191C
:1072200044EB0C0359084FEA320147F8201022F0D2
:107230000101B2EB010C00F101000928ECD30020A0
:1072400057F8201011B9401C0928F9DBC0F10900DA
:1072500078620998C0070DD001A8FBF719FC1F98A8
:10726000C007D5D022AA17A92B98209B984223D9D2
:10727000284637E001AF4FF0000C6246234657F82E
:107280002200C01843EB0C0149084FEA300147F8CF
:10729000221020F00101B0EB010C02F10102092AD9
:1072A000EDD3002057F8201011B9401C0928F9DB54
:1072B000C0F109007862D2E701D2204612E0C0F1A5
:1072C00009000CE051F8203052F82070BB4201D97F
:1072D000204607E001D2284604E000F10100092819
:1072E000F0D3284640B117A922A8FCF7F9F901A963
:1072F0000CA8FCF71FFA07E022A917A8FCF7F0F981
:107300000CA901A8FCF716FA2B9800287FF47FAF90
:107310000B9868B101A81BF04FFC01A9242230464C
:10732000FAF7B4FE0A9870620B98B0622DB0F0BD07
:10733000134901AA486A0A9B984201D92C4610E0D9
:107340000FD3C0F109000AE052F8203051F8207044
:10735000BB4206D801D22C4603E000F10100092807
:10736000F2D34CB101A924223046FAF78FFE0A98D5
:1073700070620B98B062D9E701A81BF01DFCCCE746
:107380001883220010B515F069FCBDE810400CF020
:1073900085BA000010B58CB008A81CF009FABDF839
:1073A000221009989DF82120CDE904109DF8203085
:1073B00035A040F22541CDE90232CDE900103C4B29
:1073C0003CA242A10220FEF785FA0AA800F036FE90
:1073D000044654B114223649103103A8FAF756FE78
:1073E000ADF8104003A8FDF73DFE9DF828009DF87C
:1073F0002910CDE906109DF82A209DF82B30CDE903
:1074000004329DF82C109DF82D0032A240F22A4340
:10741000CDE90032CDE90201254B26A22BA10220A5
:10742000FEF758FA36A040F23141CDE90010204B6A
:1074300020A226A10220FEF74DFA1BF0A7F81BF0B0
:107440007FF90AF0A7FAFEF7F9FB1FF029FB344990
:10745000002001F073F8044654B114221449243179
:1074600003A8FAF713FEADF8104003A8FDF7FAFDE4
:107470002B4800211238C17041708170A521018113
:107480003221C1800CB010BD476F6F646978204213
:107490004C452053444B205625642E25642E2564EC
:1074A0002028636F6D6D6974202578290000000025
:1074B000908022002E2E5C5372635C757365725C43
:1074C000757365725F6170702E6300004E4F5F547C
:1074D000414700004C6F63616C20426F6172642011
:1074E000253032583A253032583A253032583A252C
:1074F0003032583A253032583A253032582E000072
:10750000576569676874205363616C6520657861AD
:107510006D706C6520737461727465642E00000078
:107520005A5E00202DE9F04104460D4616461F46DE
:107530003B46324629462046FFF536FFBDE8F0813E
:107540002DE9FF5F04460D4616461F46DDE910ABE8
:10755000DDE90E893B463246294620468DE8000F7C
:1075600000F6FAF804B0BDE8F09F2DE9FF5F04468D
:107570000D4616461F46DDE910ABDDE90E893B4698
:107580003246294620468DE8000F00F6F7F804B091
:10759000BDE8F09F70B504460D462946204600F62A
:1075A00073FB70BD10B50446204600F60BFC10BD01
:1075B00070B504460D462946204601F6E7F870BD31
:1075C00070B5054628781949097808440A2801DD6C
:1075D000042070BD0024002623E01EE01448005D56
:1075E000D0B9C6EBC603691C5A1804F14001C1F3B7
:1075F0000D0141F40040072117F07AFA08B101208B
:10760000E7E701222046641C09490A54074800782C
:10761000401C0649087002E0641C0A2CDEDB00BF37
:10762000761C2878B042D8DC0020D2E755650020CF
:10763000E4E30020F8B507460D46384607F018FB8E
:1076400006460B48007886420EDAC620009006EB0C
:1076500046012231C1F30D0141F400402A4669463A
:1076600017F0D2F8002400E003242046F8BD000003
:1076700054650020F8B505460026002415E00820D2
:1076800000900C48005D01280ED1691C01EBC60278
:1076900004F16001C1F30D0141F40040694617F0A7
:1076A000B3F808B9701CC6B2641C042CE7DB2E705A
:1076B0000020F8BD566500202DE9F041A8B0044631
:1076C0000E46002700206070804648E08C20049021
:1076D00008EB48012131C1F30D0141F4004005AA36
:1076E00004A917F091F848BB9DF8150000F00200BE
:1076F00020B36078B04222DA07EB8701606800EBC4
:10770000C1050DF13700DDF837102960BDF83B10D9
:10771000A9808079A8719DF81600E87110220DF1FA
:10772000270105F10800FAF7B1FC10220DF117014D
:1077300005F11800FAF7AAFC781CC7B20BE000208C
:1077400001211E231A46CDE901060091C90301203B
:1077500040F654F807E008F1010000F0FF08054882
:1077600000788045B2DB00BF6770002028B0BDE81C
:10777000F081000054650020F8B506460C463046FE
:1077800007F076FA054602270A48007885420FDAA4
:107790008C20009005EB45012131C1F30D0141F42E
:1077A00000402246694617F02FF807463846F8BDD4
:1077B0000320FCE754650020F8B506460C46304629
:1077C00007F074FA054602270A48007885420FDA66
:1077D0008C20009005EB45012131C1F30D0141F4EE
:1077E00000402246694617F00FF807463846F8BDB4
:1077F0000320FCE754650020F8B505460026002468
:1078000016E0072000900D48005D01280FD1C6EB5F
:10781000C603691C5A1804F14001C1F30D0141F47B
:107820000040694616F0F0FF08B9701CC6B2641C2F
:107830000A2CE6DB2E700020F8BD0000E4E30020F7
:10784000FEB504460D463020B5FBF0F01549087032
:1078500008460078C0EBC00608460778007800218B
:1078600001221F23CDE9002102901E224FF4004186
:1078700001203FF6C3FF0C480460A0190B490860C3
:1078800000200B4908704870A0193844486003F084
:1078900011F828B110F040FE10F096FE0020FEBD59
:1078A0000220FCE7546500204C6500205065002054
:1078B0005C6500202DE9F04107460C46384607F08C
:1078C000D7F906460D480078864213DA06EB4601E2
:1078D0002231C1F30D0141F400402246C62117F0C8
:1078E00007F98046B8F1000F01D0012000E0002028
:1078F000054600E003252846BDE8F08154650020D8
:10790000FEB506460F460024304607F0B1F905469D
:1079100000BF40480078854219DA05EB4501213166
:10792000C1F30D0141F400403A468C2117F0E0F814
:107930000446002C5FD0002001211A231E22CDE92D
:1079400001040091C90301203FF658FF54E007F0FD
:10795000DBF9054605EB4501203141F40040324694
:10796000072117F0C5F804465CB1002001211B2354
:107970001E22CDE901040091C90301203FF63EFF1C
:107980003AE005EB45012131C1F30D0141F400401E
:107990003A468C2117F0ACF80446A4B1002001212E
:1079A0001C231E22CDE901040091C90301203FF6EA
:1079B00025FF05EB45012031C1F30D0141F40040E5
:1079C00016F088FE18E028461EF068FA05EB45011F
:1079D0002231C1F30D0141F4004016F07BFEC5EBEE
:1079E000C5000D490968084431680160B18881808B
:1079F000B1798171002400BF00BF44B9787800F0EC
:107A0000020020B1034801780448FFF755FE2046E4
:107A1000FEBD0000546500204C6500205C65002020
:107A200010B50446204604F62BF910BD10B50446E7
:107A3000204604F619FA10BD70B504460D462946D5
:107A4000204604F629FA70BD10B50CF0FFF80A487C
:107A50000A4948600A490948C1600A4941610A491E
:107A6000C1610A4941620A49C1620A4941630A493E
:107A7000C1630A49416410BDF9A32100C06A002016
:107A8000B5A2210039A5210029A221009DA821002D
:107A900065AF2100499E2100559C2100C99F21000E
:107AA00010B500F017F819F0FDFA11F00BF810F00E
:107AB000E5FA19F0B1F90021212039F6FBFE002189
:107AC000222039F6F7FE0021BDE81040232039F6C8
:107AD000F1BE0000014902480DF0C8BE71C9210085
