:020000040020DA
:102000000000042059212000F52820000140100084
:10201000FF212000FB212000212A200000000000D9
:10202000000000000000000000000000154010004B
:10203000FD21200000000000F72820002D292000AD
:1020400000F002F800F077F80AA090E8000C824453
:102050008344AAF10107DA4501D100F06CF8AFF230
:10206000090EBAE80F0013F0010F18BFFB1A43F076
:102070000103184728FB000068FB00000A444FF0EA
:10208000000C10F8013B13F0070408BF10F8014BD7
:102090001D1108BF10F8015B641E05D010F8016B1C
:1020A000641E01F8016BF9D113F0080F1EBF10F880
:1020B000014BAD1C0C1B09D16D1E58BF01F801CBA3
:1020C000FAD505E014F8016B01F8016B6D1EF9D526
:1020D0009142D6D370470000103A24BF78C878C127
:1020E000FAD8520724BF30C830C144BF04680C601E
:1020F000704700000023002400250026103A28BF66
:1021000078C1FBD8520728BF30C148BF0B60704769
:10211000642900F0BF80782900F02381732900F042
:102120008883002070471FB50FF0FEF900F0E6FA33
:102130001FBD10B510BDDFF810D0FFF7F4FF09F098
:102140002BFF00F091FB00000000042003B4FFF718
:10215000F0FF03BC01F00DF801488047014800473B
:10216000D1292000FDC220000FB4044910B503AAF4
:10217000029800F063FB10BC5DF814FB545D002076
:102180000FB41CB5084B06AA7B446946009005981D
:1021900000F025FB04460020694600F033FB204692
:1021A0001CBC5DF814FB00007906000070B5044605
:1021B00085690068C10601D5302600E02026C007E9
:1021C00007D070BDD4E9012130469047206A401CF9
:1021D00020626D1EF6D570BD70B504468569007825
:1021E000C00707D170BDD4E9012120209047206AA3
:1021F000401C20626D1EF6D570BDFEE7FEE7FEE7CF
:1022000058585247010000002556000000202000C9
:10221000002020007EEE9247010100000000000037
:1022200000000000000000000000000000000000AE
:10223000000000000000000000000000000000009E
:1022400070B50C460546012A05D02878800600D5D1
:10225000EA69002302E0012305E05B1C934202D2FD
:10226000E05C0028F9D1A869E618C01AA861286ABC
:10227000184428622846FFF799FF04E0D5E90121B8
:1022800014F8010B9047B442F8D32846FFF7A4FF97
:1022900070BD00002DE9F041064600241068752944
:1022A000314616A510D0AFF30080002802DA404274
:1022B00013A507E031688A0701D512A502E0490796
:1022C00004D511A5012401E0AFF3008000210A220A
:1022D00006F1240709E0B0FBF2FCB0FBF2F302FBCD
:1022E0001C00303078541846491C0028F3D123468E
:1022F0002A463046BDE8F04100F012BA0000000066
:102300002D0000002B00000020000000F0B40D465E
:102310000188090502D5214C7C4402E01F4C7C4415
:102320000E34002100F1240608E002F00F07120924
:10233000E75D42EA03721B097754491C52EA03071E
:10234000F3D102780023120704D5702D06D009B10D
:10235000022311342246F0BC00F0E2B9012310340C
:10236000F8E770B504460D4621461068AFF30080CB
:10237000024629462046BDE870400023C6E7D21D2C
:1023800022F00703D3E90023C0E70368126843F093
:10239000200303600823C3610023B7E7A4F400000F
:1023A0002DE9F05F894604464FF0000ADFF874B16A
:1023B000FB44C0F820A02046E1688847002874D07C
:1023C000252806D0D4E901219047206A401C2062CC
:1023D000F1E700265F462046E16888472028054649
:1023E00007DB312D05D2781910F8200C08B106430F
:1023F000F1E7B00701D526F00406C4F81CA00027B9
:10240000C4F818A02A2D09D0284600F0A5FE38B33C
:1024100004EB8708303DC8F8185019E059F8041B40
:10242000204604EB87029161E1688847012F054649
:1024300018D1E069002820DA26F020061DE0D8F83F
:10244000180000EB800005EB40003038C8F8180099
:102450002046E1688847054600F07EFE0028EED160
:10246000012F0AD02E2D08D12046E16888477F1C15
:102470000546022F46F02006C4DBA069002803DAD7
:10248000404246F00106A061F00701D026F0100698
:102490006C2D0BD0682D09D04C2D39D06A2D35D03C
:1024A000742D35D07A2D33D016E038E0E1682F4610
:1024B00020468847B842054609D16C2F26D04FF4F4
:1024C0008060E168064320468847054604E06C2F9B
:1024D0001AD04FF4807006430DB3A5F141001928BE
:1024E00002D8203546F400664A4629462046266032
:1024F0004E46FFF70DFE80B101280BD0F61D26F0E9
:10250000070000F1080956E74020E4E78020D8E7FB
:102510000020D6E706F104094DE7284652E7206A75
:10252000BDE8F09F34F4000040EA010310B59B07BA
:102530000FD1042A0DD310C808C9121F9C42F8D02D
:1025400020BA19BA884201D9012010BD4FF0FF30DE
:1025500010BD1AB1D30703D0521C07E0002010BDF4
:1025600010F8013B11F8014B1B1B07D110F8013B80
:1025700011F8014B1B1B01D1921EF1D1184610BD61
:1025800010B5431C02E010F8011B71B18107FAD1AC
:102590004FF0013202C88C1A8C4314EAC211F9D0F0
:1025A000C01A0A0603D0C01E10BDC01A10BD0A040E
:1025B00001D0801E10BD0902FCD0401E10BD032AB0
:1025C00040F2308010F0030C00F0158011F8013B50
:1025D000BCF1020F624498BF11F801CB00F8013B37
:1025E00038BF11F8013BA2F1040298BF00F801CBFB
:1025F00038BF00F8013B11F0030300F02580083AD2
:10260000C0F0088051F8043B083A51F804CBA0E828
:102610000810F5E7121D5CBF51F8043B40F8043B7D
:10262000AFF30080D20724BF11F8013B11F801CBB2
:1026300048BF11F8012B24BF00F8013B00F801CB83
:1026400048BF00F8012B704710B5203AC0F00B804E
:10265000B1E81850203AA0E81850B1E81850A0E8A6
:102660001850BFF4F5AF5FEA027C24BFB1E8185000
:10267000A0E8185044BF18C918C0BDE810405FEA70
:10268000827C24BF51F8043B40F8043B08BF7047EC
:10269000D20728BF31F8023B48BF11F8012B28BFF1
:1026A00020F8023B48BF00F8012B70474FF00002B2
:1026B00000B5134694469646203922BFA0E80C5038
:1026C000A0E80C50B1F12001BFF4F7AF090728BF13
:1026D000A0E80C5048BF0CC05DF804EB890028BF8F
:1026E00040F8042B08BF704748BF20F8022B11F0B8
:1026F000804F18BF00F8012B7047000070B5064CE2
:102700007C44064D7D4403E0206820448047241D1E
:10271000AC42F9D170BD0000D8F40000D8F400003C
:102720002DE9F0470D4699469246044600F12408EB
:102730000168880604D5E06921F01001216000E0FD
:102740000120A84201DD471B00E00027A1697A199A
:1027500002EB0900081AA0612078C00602D42046C6
:10276000FFF724FD002608E0D4E901211AF806004D
:102770009047206A401C761C20624E45F4DB20788E
:10278000C0060AD52046FFF711FD06E0D4E9012175
:1027900030209047206A401C2062381EA7F10107B4
:1027A000F4DC07E0D4E9012118F805009047206A1D
:1027B000401C2062281EA5F10105F3DC2046FFF72E
:1027C0000BFD2078000602D50220BDE8F08701202D
:1027D000FBE7000001694A1C02610878704700B5F8
:1027E0008FB0CDE901310021059105497944CDE94A
:1027F000031011466846FFF7D3FD0FB000BD00007F
:10280000E5FFFFFF0A6802F8010B0A60704710B588
:10281000436913B1AFF3008001E0FFF711FD012020
:1028200010BD127800F124010A7000224A700122C2
:10283000EDE711684FF0FF32E9E70000074B70B594
:102840000D467B44FFF7CBFF0446284600F008F80E
:1028500010B14FF0FF3070BD204670BDD73700007B
:10286000007B00F08000704710B50446AFF3008095
:102870002046BDE81040FFF769BC10B502F096FB9A
:1028800010BD000010B5032400BF0D4800680121F1
:1028900021EA900078B900BF09480C30006800F0C8
:1028A000010040B100BF06488C38006800F0070006
:1028B0002040A04200D010BD0CF01CFE00BFFAE783
:1028C000D4A400400748006800F0100008B1064892
:1028D000704706480068C0F30240054951F82000DF
:1028E000F6E7000084E30040006CDC0200A000403A
:1028F00014172100FEE7FEE702F74BB9052800DBBD
:1029000070470949096801F4E021B1EB004F08D094
:10291000054A126822F4E02141EA0042024B1A60A3
:1029200000BF00BFECE7000000A00040FEE7000091
:102930000249096801F007010170704700A00040DA
:1029400010B500220021072800DB10BD144B1B68C6
:1029500003F0070383421BD0114B1B6823F00702CF
:1029600042F003030E4C23602346DB6823F007018B
:1029700041F00103E36000BF00BF00BF00BF42EAB7
:102980000003074C2360074B53F820300B43E360F0
:10299000054B53F82030054C236000BFD5E70000FD
:1029A00000A00040F8162100DC162100145600207B
:1029B0000448006800F00700034951F8200003496B
:1029C0000860704700A00040DC162100145600206B
:1029D0000248016841F470010160704788ED00E031
:1029E00002480068001D05F04FBF00006C6F00201A
:1029F00002484068001D05F047BF00006C6F0020D2
:102A000002488068001D05F03FBF00006C6F002089
:102A10000248C068001D05F037BF00006C6F002041
:102A2000FEE7002809DB00F01F0201219140400968
:102A3000800000F1E020C0F880127047002807DB1A
:102A400000F01F0201219140024A430942F823107D
:102A50007047000080E200E0002807DB00F01F0262
:102A600001219140024A430942F8231070470000B7
:102A700080E200E000280BDB00F01F020121914002
:102A8000044A430942F82310BFF34F8FBFF36F8FFF
:102A90007047000080E100E000280DDB00BF00BFB0
:102AA00000F01F02012191404209920002F1E02250
:102AB000C2F8001100BF00BF704700280DDB00BF47
:102AC00000BF00F01F02012191404209920002F173
:102AD000E022C2F8001100BF00BF704700280DDBE4
:102AE00000BF00BF00F01F02012191404209920087
:102AF00002F1E022C2F8001100BF00BF70470028B9
:102B00000FDB4109890001F1E021D1F8001100F04B
:102B10001F0201209040014201D001207047002097
:102B2000704700207047002804DB00F1E02090F897
:102B30000004704700F00F0000F1E02090F8140D41
:102B40007047000002480068C0F302207047000090
:102B50000CED00E0002807DB00F01F02012191408E
:102B6000024A430942F823107047000000E200E0E7
:102B7000EFF310807047EFF310807047EFF3108091
:102B8000704700000000000010B52DED020B2DED88
:102B9000088B84B09DED0C0B51EC100B0EF0FEFA7F
:102BA00041EC180B9DED0C0B53EC182B51EC100B5A
:102BB0000EF05AFB41EC190B0D989FED290B10F00C
:102BC000004F53EC102B51EC190B9FED21AB9FEDF7
:102BD00022BB0ED00EF072F90ED953EC1B2B51EC28
:102BE000190B0EF0A5FA1CD214E000BF41EC180B33
:102BF00017E00EF063F906D253EC1A2B51EC180BC8
:102C00000EF032FBF2E753EC1B2B51EC190B0EF0DC
:102C10008FFA06D853EC1A2B51EC180B0DF074FEFA
:102C2000E4E78DED028B9DED0C0B18EE901A10EE83
:102C3000900A8DED000B61F31E0003909DED020BD9
:102C400004B0BDEC088B02B010BD00000000000015
:102C5000000000000000F03F000000000000E03F26
:102C6000000000000000E0BFC1B281F3118870478E
:102C700080F31088704780F31088704780F31088C5
:102C8000704780F31088704780F310887047000009
:102C90002DE9F74F0446904600BF4FEA5806019DC4
:102CA0004FF0000B7448754908603F20744949682B
:102CB00060F30501724A516000BF00BF10464068D2
:102CC00020F480301146486000BF00BF6B480068A8
:102CD00020F4700040EA04506849086000BF00BF5B
:102CE0000846006820F4702040EA0440086000BFF5
:102CF0000D2C07D100BF0846006840F40040086072
:102D000000BF00BF0E2C08D100BF5C48006840F433
:102D100080405A49086000BF00BF4FF40050574937
:102D2000096821F400510143544A116000BF00209A
:102D30001146096821F060510143116000BF042071
:102D40001146096821F00F010143116000BF002006
:102D500000F006F9012801D0BDE8FE8F00BF47480A
:102D6000006840F080404549086000BF4FF0000A0D
:102D70000DE000BF4248806840F4803040498860E0
:102D800000BF0AF101008246401C00B903E007F0D1
:102D90003FF80028EDD100BF072000F0E1F801283E
:102DA00000D0D9E754E04FF0000B2CE0BBF57A7F60
:102DB00024D900BF3148006820F080402F490860C6
:102DC00000BF00BF0846006840F00040086000BF38
:102DD00000BF0846006820F00040086000BF0020E7
:102DE00000F0BEF8012800D0B6E726480068401C75
:102DF0002449086005200AF6DFFA4EE701200AF6AA
:102E0000DBFA0BF1010B07F003F80128CED100BF6C
:102E10001B48806800F07F008146B14501D93046EB
:102E200000E0484681464FF0000A0DE000BF14481C
:102E3000076800BF25F8027B4FF6FF7000EA1740D5
:102E400025F8020B0AF1010ACA45EFD3A6EB0906E1
:102E5000002EA8D15EB908F0010040B100BF06F015
:102E6000D7FF0128FBD100BF05480068288000205B
:102E700000F076F800BF6FE70A07080700A80040D7
:102E800000E00040C060002010B5044600BF0020F4
:102E90001A49086000BF00BF18498039086000BFA8
:102EA00000BF1748406A174908600846007800F0DC
:102EB000010020B10846008800F4807098B906E04F
:102EC0000CB9002010BD641E01200AF675FA00BF7F
:102ED0000B48806940F20111884201D1012000E0D5
:102EE00000200028ECD00848006808490860044821
:102EF0004068074908600120E4E7000094D41D42BF
:102F000000E000401C61002000A800401461002087
:102F1000186100200D4800680D4948600D480068A0
:102F20000D4908600D48007800F0010020B10B4801
:102F3000008800F4807040B900BF0548006A20F0A6
:102F400001000349086200BF00BF704718610020FC
:102F500000E000401461002000A800401C61002037
:102F600070B5044606F04CFFA04201D1012070BDAF
:102F700000BF1048C06820F0070020430D49C8601A
:102F800000BF002508E006F03BFFA04200D107E0AB
:102F900001200AF611FA6D1C4FF6FF708542F2D33C
:102FA00000BF4FF6FF70854201D10020DFE701200E
:102FB000DDE7000000E0004010B500BFEFF3108037
:102FC00004460120FFF757FE204610BD70B52DEDD9
:102FD000108B8AB005460C469FED510B8DED080B0A
:102FE00020216846FFF762FB9FED4D0BB0EE408A53
:102FF000F0EE608A102269462846FFF749FE002657
:103000000FE006F108013DF811000DF0FDFE41EC66
:10301000190B53EC182B0DF077FC41EC180B701CBE
:10302000C6B2082EEDDB9FED400B53EC102B51EC9C
:10303000180B0DF01DFD41EC180B0D2D41D1E08A50
:103040000DF0E2FE41EC1B0B9FED390B53EC102B06
:103050000DF00EFD41EC190B60880DF0D5FE41EC32
:103060001F0B9FED350B53EC102B0DF063FF41EC64
:103070001E0B9FED330B53EC102B0DF05BFF41EC5F
:103080001C0BA08A0DF0C0FE41EC1E0B53EC182B5C
:103090000EF0DEF841EC1D0B53EC1C2B0DF0E8FCA0
:1030A00041EC1B0B9FED280B53EC102B0DF0E0FCBB
:1030B00041EC1A0B53EC192B0DF026FCCDE908015D
:1030C00027E00E2D25D160880DF09EFE41EC1C0BF3
:1030D0009FED190B53EC102B0DF02CFF41EC1A0B4C
:1030E00020880DF091FE41EC1C0B53EC182B0EF0D8
:1030F000AFF841EC1B0B53EC1A2B0DF0B9FC41EC73
:10310000190B9FED130B53EC102B0DF013FFCDE9B2
:1031100008019DED080B0AB0BDEC108B70BD0000DE
:10312000000000000000000000000000000020403F
:103130000000000000005940000000000000F0BF47
:10314000000000000000004079E9263108AC5CBFB7
:10315000B76DDBB66DDB0E4030380A2801D2012096
:1031600070470020704710B504462046FFF783FDE6
:1031700010BD704710B50446204606F089FD10BD0D
:1031800010B50446204609F025FE10BD70B5044672
:103190000D46294620460CF017FC2946204608F02B
:1031A000D9FE70BD01480BF05DBA0000585D0020EB
:1031B0002DE9F0410C2802D3E820BDE8F08100EBB6
:1031C000C0001A4C00EB400614F82600F0B1EFF3F3
:1031D0001085012080F3108804EB86000746001D4F
:1031E00003F014FC002004F82600FF2038720020B1
:1031F00000EBC00101EB410114F82110012902D0BC
:10320000401C0C28F4D30C2802D00AE0E920D4E7B3
:10321000002009F0E5FE032016F6DFFF232016F656
:10322000DCFF85F310880020C7E70000C468002099
:103230000C2801D30020704700EBC000054900EBCB
:10324000400011F820201AB101EB8000001D7047EA
:1032500000207047C46800202DE9F05F05468946CC
:1032600000244FF0FF3846464FF0010A002D16D0DB
:10327000474903200BF076F9464923200BF072F9F9
:10328000287970B101280CD002280AD0032808D070
:10329000042806D0052804D04046BDE8F09FE5206C
:1032A000FBE7EFF31083012181F310883A4F04EB21
:1032B000C40101EB410117F8212052B107EB810253
:1032C000D5F800B0D2F804C0DC4514D1127A82429D
:1032D00011D104EBC40000EB400207EB8202384638
:1032E00092F83120022A04D026B2012200F82120CF
:1032F00004E00C2402E0641C0C2CD8D383F3108867
:103300000C2C3FD200220321244809F051FE04EB8B
:10331000C40000EB400007EB800429686160287955
:10332000207204F10C00242205F10801FFF78CF94A
:103330001B48A0631B4820641B48E06300206064B6
:10334000C4F868901949606888420AD10320FFF7E1
:10335000D6FB98B9032016F633FF032016F64EFF6E
:103360000CE01349884209D12320FFF7C8FB28B994
:10337000232016F625FF232016F640FF201D03F01C
:10338000E5FB8246BAF1000F00D04646304684E79E
:1033900075401000A5401000C4680020AC15210045
:1033A000355420006D5220001D5220000090014035
:1033B00000A001402DE9F041014600291BD0002466
:1033C0000F4E0E4A357814E002EB04100F780378A4
:1033D000BB420CD14B684068034208D0707808B9F2
:1033E00000F012FE2046BDE8F04100F041BD641C33
:1033F000E4B2AC42E8D3BDE8F0810000FC700020EC
:10340000645D00207CB505460E46002D01D00024E9
:1034100018E0E5207CBD05EB041041680091017ABD
:103420008DF80410417A8DF8051008218DF80610EA
:10343000C26800780023694600F02AFB0028E9D121
:10344000641CE4B2B442E6D300207CBD10B504464F
:10345000114822784FF0FF3150F82220A2F86C106A
:10346000227850F82200A0F86E10606B002801D17D
:10347000A16B71B120B1204600F060F8002807D19F
:10348000A06B20B1204600F009F8002800D10020F0
:1034900010BDE42010BD0000485D002030B58BB0A9
:1034A00004462C216846FFF701F92249A06B8842A7
:1034B00002D1E4200BB030BD009094F83D008DF8AF
:1034C0000400207890B105200290092003904FF469
:1034D00000100490C012059000200690216C022973
:1034E00006D8102107910221089105E00720EBE79B
:1034F000202107910421089109900A900021684633
:10350000FFF7AAFE21780C4D55F82110A1F86E00A6
:10351000002801DAE420CDE7FFF78AFE217855F88C
:103520002110C863217855F82110091D016300207E
:10353000C0E7000000900140485D002030B58BB02E
:1035400004462C216846FFF7B1F82249606B884297
:1035500002D1E4200BB030BD009094F83C008DF80F
:10356000040009200290207888B1042003904FF4D1
:1035700080100490002005904FF480710691216C1A
:10358000022906D8102107910221089105E00620A2
:10359000ECE7202107910421089109900A9000216D
:1035A0006846FFF759FE21780B4D55F82110A1F818
:1035B0006C00002801DAE420CCE7FFF739FE21781F
:1035C00055F821108863217855F82110091D0163F1
:1035D0000020BFE700900140485D00202DE9F04148
:1035E0000446022C02D3E820BDE8F0812F4D55F8A7
:1035F0002400E0B390F87010C9B3806E4168007881
:1036000000F016FA0028EFD155F82400806E016909
:10361000007B00F00DFA0028E6D155F82400806EFA
:10362000C169007E00F004FA0028DDD155F82400BD
:10363000806E816A90F8240000F0FAF90028D3D156
:103640001B48005716F6C9FD55F82400002780F8DE
:10365000707055F8240080F87270EFF31086012026
:1036600080F31088002055F8201039B100E003E005
:1036700091F8701041B901E0E920B5E7401C02283B
:10368000F1D30B2009F0ACFC86F3108855F8240028
:10369000001D04F027F90028A6D155F8240090F861
:1036A000710008B945F8247000209DE7485D0020AE
:1036B00090152100022801D3E8207047074951F8EE
:1036C000200048B190F8701031B14068C16821F015
:1036D0000101C16000207047E9207047485D00206B
:1036E00070B50446022C01D3E82070BD0C4D55F88E
:1036F000240018B190F87110012901D0E92070BDA3
:10370000B0F96C00FFF754FD55F82400B0F96E00D5
:10371000FFF74EFD55F82410002081F8710070BDB0
:10372000485D002070B500280CD004780F4E56F884
:10373000241049B191F8702032B191F8711029B17B
:10374000EA2070BDE52070BDE92070BDEFF3108563
:10375000012181F31088FFF779FE20B956F8242063
:10376000012182F8711085F3108870BD485D00203A
:1037700070B50446022C01D3E82070BD114D55F8F8
:10378000240048B190F8713033B139B132B190F8BA
:1037900072302BB1E22070BDE92070BDE42070BD15
:1037A000012380F8723055F82400001D04F09AFAC5
:1037B00028B155F82420002182F8721070BD002035
:1037C00070BD0000485D002070B50446022C01D396
:1037D000E82070BD114D55F8240048B190F87130C3
:1037E00033B139B132B190F872302BB1E22070BDF3
:1037F000E92070BDE42070BD012380F8723055F8D7
:103800002400001D04F018FB28B155F824200021E5
:1038100082F8721070BD002070BD0000485D00206D
:10382000022801D3E8207047064951F8200038B13A
:1038300090F8701021B1406801214161002070476B
:10384000E9207047485D0020022801D3E820704736
:10385000064951F8200038B190F8701021B1406845
:103860000121816100207047E9207047485D0020F8
:103870002DE9F04105460F46002D05D02C78022C8D
:1038800004D3E820BDE8F081E520FBE7264E05F1F2
:10389000500046F824002878291D05F099FC0028DE
:1038A000F0D156F82410281D886656F824000760C9
:1038B000403556F824002ECD08302EC01B4856F84F
:1038C000241050F82400486056F82400001D04F02D
:1038D00009F80028D6D156F82400001D04F0B8F8E5
:1038E0000028CFD111480B220321083009F060FBDA
:1038F00056F82410012081F8700056F8241000209A
:1039000081F872000A491E200AF02CFE09491D2088
:103910000AF028FE054D2D1F285716F651FC285792
:1039200016F66CFC0020ADE7485D002094152100E0
:10393000634010005940100070B50446022C01D3BA
:10394000E82070BD114D55F8240048B190F8703052
:1039500033B139B132B190F872302BB1E22070BD81
:10396000E92070BDE42070BD012380F8723055F865
:103970002400001D04F0C2F928B155F824200021CC
:1039800082F8721070BD002070BD0000485D0020FC
:1039900070B50446022C01D3E82070BD114D55F8D6
:1039A000240048B190F8703033B139B132B190F899
:1039B00072302BB1E22070BDE92070BDE42070BDF3
:1039C000012380F8723055F82400001D04F040FAFD
:1039D00028B155F82420002182F8721070BD002013
:1039E00070BD0000485D002003780121064A012BCC
:1039F00000D111700378022B00D15170007800289B
:103A000001D1117051707047705D00200378012161
:103A1000064A012B00D191700378022B00D1D1709E
:103A20000078002801D19170D1707047705D00203E
:103A300010B502460846052A25D2DFE802F0030346
:103A400003111900114951F832200104090C05D065
:103A500022B10146104603F0D1FD10E0E42010BD74
:103A600010F0FF0F02D002F0E3FC08E0E42010BDEC
:103A700010F0FF0F05D00146002004F0A5FA002049
:103A800010BDE42010BDE62010BD0000C8152100C7
:103A90002DE9F05F05460C469046994626680027BA
:103AA000042D11D031462846FFF7C2FF2146284693
:103AB00000F05EF8002808D1032D08D04FF0100A5E
:103AC0002807070E002448E0E620BDE8F09F4FF0ED
:103AD000080AF7E7F0073DD03DB1012D05D0022DD2
:103AE00003D0032D21D0E620EFE71E4800EBC500F0
:103AF00090F904B0BBF1000F15D0EFF31081012055
:103B000080F31088184AE01942F8308002EBC000B8
:103B1000C0F8049081F31088584616F651FB5846B9
:103B200016F66CFB16E0E420CFE7EFF310810120DE
:103B300080F310880D4AE01942F8308002EBC00093
:103B4000C0F8049081F310881B2016F639FB1B2067
:103B500016F654FB7608641CE4B25445BAD3002030
:103B6000B3E70000C81521002C6E00202C6F002048
:103B700030B597B005460C461C22454910A8FEF703
:103B800063FD1C2242491C3109A8FEF75DFD20227D
:103B90003F49383101A8FEF757FDD4B13D49062011
:103BA0000AF0E0FC3C4907200AF0DCFC3B491B2002
:103BB0000AF0D8FC3A4912200AF0D4FC34496C3996
:103BC000A1F12C02052D61D2DFE805F006060621E1
:103BD0003900E52017B030BD207931F81000119080
:103BE000607932F810001290A0791390206810903C
:103BF0002748843850F8350021880904090C04D07E
:103C000018B110A903F0EBFD39E0E420E2E72079D8
:103C100001EB4000808A0A90607902EB4000C08886
:103C20000B90A0790C9020680990207810F0FF0F7D
:103C300003D009A802F0ECFC21E0E420CAE72079D7
:103C4000031F042B01D8E720C4E7022819D0012064
:103C50000290207901EB4000008D0390607902EB27
:103C6000400080890490A079059020680190207818
:103C700010F0FF0F08D001A9002004F059FA00202D
:103C8000A8E702200290E4E7E420A3E7E620A1E70A
:103C90004C162100CD411000C7411000C341100057
:103CA000BD41100002460020052A11D2DFE802F0D3
:103CB000030303090C00074850F8320089B216F6D6
:103CC000DEB988B202F01EBD89B2002004F038BA15
:103CD00070470000C8152100002803D00249086081
:103CE00001207047002070476C5D002070B50546CC
:103CF0000024091F062917D2DFE801F003070C1181
:103D00001315284600F0A4F80EE00124284600F020
:103D10009FF809E00224284600F09AF804E0032402
:103D200002E0042400E00524034A214628461268E4
:103D3000BDE87040104700006C5D00202DE9F041A7
:103D40000446204600F0AEF801462E48002308261F
:103D5000025D00F10A0700F11405AAB1052A33D06B
:103D6000082A2AD1092945D0082926D1295D491CCC
:103D7000C9B22955142920D32B5506552046BDE834
:103D8000F0410821FFF7B2BF052913D0042916D04E
:103D9000072914D0082910D1295D491CC9B2295519
:103DA00014290AD32B5506552046BDE8F0410821B9
:103DB000FFF79CBF3B5505210155BDE8F08120462A
:103DC000BDE8F041FFF792BF05290CD0395D491CD1
:103DD000C9B239553229F0D303552046BDE8F04128
:103DE0000521FFF783BF03552046BDE8F0410621BA
:103DF000FFF77CBF03552046BDE8F0410921FFF7DE
:103E000075BF0000DC71002070B504460D4600F05F
:103E10000FF808B100F00EF90348044A2946005D86
:103E20005268BDE870401047F0700020645D0020CB
:103E30000020064911F810200AB100207047401CEC
:103E4000C0B20A28F6D3012070470000FA710020A2
:103E50000349002201F8102001EB40004270704736
:103E6000FA710020014A02F810107047FA71002020
:103E7000024A012102EB400041707047FA710020B4
:103E800070B50024064D05EB4400407810B1204683
:103E9000FFF754FF641CE4B20A2CF4D370BD000099
:103EA000FA71002070B500211D4B03F132051A5C38
:103EB000002A09D0002403F10A06012A0AD0022AA6
:103EC00012D0032A24D11FE015F8102002B30122DA
:103ED0001A541DE015F810201AB1345402221A5455
:103EE00016E01C54042113E015F810204AB1325C8E
:103EF000521CD2B23254642A0AD3072103221A5424
:103F000006E005211C5403E015F8101011B108213A
:103F1000084670BD1C54FFF79BFF0921F8E700001D
:103F2000C8710020704700002DE9F0410E46174689
:103F30000A2E02D80FB100231AE00020BDE8F0815C
:103F400003EB430400EB8405114AA97AD1541049CC
:103F500010F824200C3101EB0314227069686160B1
:103F6000297A2172697A61720A49E1605B1CDBB2CD
:103F7000B342E5D3064831460C30FFF743FA064812
:103F8000067047600548FFF7A7FE0120D6E700004E
:103F9000F0700020B5332000645D0020093E200051
:103FA0002DE9F0410024124FDFF8488019E0002687
:103FB00007EB041528786968FFF774FE10B9697A71
:103FC000012902D0012802D005E0012603E0687A29
:103FD000022800D1012631462046FFF743FF641C2A
:103FE000E4B298F800008442E1D3BDE8F08100001B
:103FF000FC700020645D002010B5FFF7D1FFBDE824
:104000001040FFF73DBF000010B5074A01210748E7
:1040100000F060F800220A21044800F0B1F90449D8
:104020000120487010BD0000F93F2000A071002061
:10403000645D002010B5034800F07AF802490020C2
:10404000487010BDA0710020645D0020002806D0DB
:10405000002904D0024AD269002A00D010477047D4
:10406000C870002070B50D4616460D4C00280AD0C9
:104070000178032911D80121A17601461A22204690
:10408000FEF79DFA05E00020A0761A210448FEF70D
:104090000DFBE5612662002070BD012070BD0000AF
:1040A000C870002010B50848017800290AD1012104
:1040B000017006483FF6A8FCBDE810400021044806
:1040C0003FF638BE10BD0000505D00204541100095
:1040D000D5CE20002DE9F04104460D461746002DAF
:1040E00004D0012D02D00120BDE8F081E4B1DFB1A0
:1040F000607801281AD0EFF311860220FEF713FD35
:104100008046FEF71FFD401C0121814008EB0100A5
:10411000C0B280F3118800206070A570E761F0B232
:1041200080F311880020DFE70120DDE70620DBE7D0
:1041300010B50446002C0CD0204600F0B3F9FF2047
:1041400060700021A160E160216161610020E06197
:1041500010BD012010BDF0B5DDE90745059981616D
:104160004FF47A76A2FB061C03FB06C3002702FB72
:104170000732C0E9021209196A41C0E9041200219C
:104180000162F0BD2DE9F0410446002C13D0EFF39D
:1041900011850220FEF7C7FC0746FEF7D3FC401C42
:1041A000012606FA00F03844C0B280F311881248A4
:1041B000002121620EE00020BDE8F081D4E9043244
:1041C000D1E9047CDB1B72EB0C0202D2016A216292
:1041D00003E00846016A0029F0D1046266700648CF
:1041E00010380168491C0160016B4160E8B280F33E
:1041F00011880120E0E70000906F00202DE9F041D8
:1042000005460024EFF311860220FEF78CFC0746DA
:10421000FEF798FC401C012181407818C0B280F361
:104220001188134A106BE8B115B102F1100010E0CB
:104230000446206A10631068401E10600CE0A9421A
:1042400006D11168491E1160296A01622C4603E0FB
:104250000846016A0029F2D124B100202062607072
:10426000106B5060F0B280F311882046BDE8F081F9
:10427000806F00202DE9F041EFF311870220FEF757
:1042800052FC0446FEF75EFC401C01218140601890
:10429000C0B280F31188114D002608E02078012873
:1042A00004D1E16909B1A069884726702D6A2C6A9A
:1042B000002CF3D1094D103D07E0E16909B1A06977
:1042C00088472670206AA8632662AC6B002CF4D164
:1042D000F8B280F311880120BDE8F081906F0020D2
:1042E0002DE9F041EFF311870220FEF71CFC044694
:1042F000FEF728FC401C012606FA00F02044C0B25C
:1043000080F311881D4DA5F110082DE0D4E904308B
:10431000D8E902125B1A60EB0200D8E91021D21A28
:10432000814124D326702046FFF768FFA07801283A
:1043300006D01248283000212162016861B10FE0E7
:10434000D8E90220D4E9021351185841C4E90410F5
:104350002046FFF717FF07E0046005E001F12000A9
:1043600001680029FAD104602C6A002CCED1F8B281
:1043700080F311880120BDE8F0810000906F0020DB
:104380002DE9FF5F82460E4693464FF00008BAF1D2
:10439000000F20D0414886421DD8E6B1EFF31187C7
:1043A0000220FEF7C0FB0446FEF7CCFB401C0121B7
:1043B00081406018C0B280F31188504605F006FDB8
:1043C00010B19AF8010040B1F8B280F311880F20C3
:1043D00004B0BDE8F09F0120FAE707F0C9FC0446ED
:1043E0000D464FF47A7106FB01F022462B46002160
:1043F00005F0BCFCDFF8A890B0B1D9F8040048B1D2
:10440000D0E90410091B60EB0500C9E9021007F0B0
:1044100029FD04E00021C9F80810C9F80C104FF07C
:104420000108D9E9020106E0D9F80400D0E9042125
:10443000101B61EB0501CDE9020132460023CDF8E6
:1044400000B05046FFF787FE5046FFF79BFE09F08D
:10445000A1FF4FF0E024D4F800014FF0806510F088
:10446000806F01D0012000E0002020B91A20FEF763
:10447000D8FAC4F80051B8F1000F0AD0D9F80400F6
:10448000D0E90431D9E90202181A61EB020107F000
:10449000A5FCF8B280F31188002099E7008AB907DB
:1044A000806F00202DE9F04104460025002C39D012
:1044B000EFF311870220FEF736FB0646FEF742FBBC
:1044C000401C012181407018C0B280F311886078CF
:1044D000012824D1144E7068A0420BD107F048FC8B
:1044E000D4E90432181A62EB0102C6E9020207F0AD
:1044F000B9FC01252046FFF781FE5DB1706848B127
:10450000D0E90421D6E90203101A61EB030107F098
:1045100065FC04E01DB9706808B907F0A3FCF8B2A7
:1045200080F31188BDE8F081806F002070B50446EB
:104530001A4D55F82400703009F087FE82B21646F5
:10454000A2B155F8240090F8011101290ED00121E3
:1045500080F80411802A0FD355F82400802200F13E
:104560008001703009F086FE80260CE055F824109A
:10457000002081F8000170BD55F8240000F1800191
:10458000703009F077FE55F82400324600F18001C2
:10459000001D04F047FA0028EDD170BD6C6F0020BB
:1045A000704700002DE9F84304464D4F57F82400AA
:1045B000061D042C7ED290F86C1000297AD00129B7
:1045C00078D190F80011012974D190F801110029D7
:1045D00070D1012180F80111002157F82400D0E9A1
:1045E00003231344027D02F00102D21D9D1842688C
:1045F000D36FC3F38003002BFAD090F80421A2B14B
:10460000384A1368491C90F83B20102A06D082686B
:10461000B3FBF2F26A43B1EBC21FF3D957F824009F
:10462000703009F012FE85B226E0B0F82480C58C07
:10463000001D03F031FF57F8240041F2883300EBEE
:104640000801491B8031001D2A4604F09DF9E5E769
:1046500057F8240001227030694609F00BFE57F824
:1046600024004068C16FC1F340010029FAD09DF8D1
:10467000001001606D1EADB2002DE9D157F8240085
:10468000703009F0E2FD0028C8D130684169490660
:10469000FCD5EFF31085012080F3108857F8240033
:1046A000703009F0D2FD68B1EFF31081012080F382
:1046B000108800E011E03068426842F082024260F7
:1046C00081F3108857F82410002081F8000157F872
:1046D000241081F8010185F31088BDE8F8830000FB
:1046E0006C6F0020145600202DE9F04105460F465E
:1046F000002D06D02AB12C78042C04D3E820BDE884
:10470000F081E520FBE7344E05F1580046F824001F
:10471000D2E900310A467030194609F081FD291DA1
:10472000286D0BF049FA0028E9D156F82410281D0D
:10473000486656F82400076056F82400182208300E
:1047400005F14001FDF780FF244856F8241000EBE6
:10475000C4056868486056F82400001D03F000FF97
:1047600056F82400001D03F0EBFF1C480122032132
:10477000103808F01DFC56F82410012081F86C0058
:1047800056F82410002081F8000156F8241081F812
:10479000010156F8241081F8020156F8241081F81E
:1047A00003010F490C2009F0DDFE0E490D2009F030
:1047B000D9FE0D49342009F0D5FE0C49352009F009
:1047C000D1FE95F9010015F6FBFC95F9010015F6EF
:1047D00015FD002093E700006C6F0020B416210047
:1047E000E1292000F1292000012A2000112A2000BF
:1047F0002DE9F04104461A4D55F82400703009F0B7
:1048000024FD82B2164600277AB155F8240090F8AC
:104810000111012909D0802A0ED300F180017030E6
:10482000802209F027FD80260BE055F8240080F84F
:1048300000710020BDE8F08100F18001703009F0C6
:1048400019FD55F8240080F8047155F8240032460B
:1048500000F18001001D04F04DF90028EAD1E9E7DC
:104860006C6F002070B5042801D3E82070BD104D96
:1048700055F8204064B194F86C604EB151B14AB122
:104880005E1C09D044F62066B34205D9E42070BD11
:10489000E52070BDE42070BD002684F8026155F863
:1048A0002000001D04F070F80028F4D170BD000055
:1048B0006C6F00202DE9F74F84B005460C460226A8
:1048C00004F10809204601F005FD07463E48D0F8EE
:1048D00004A000200390B5F5804F0ADBB5F5004F2A
:1048E00007DA3948406839490968A0EB010A012014
:1048F0000390E019504501DD052662E0324800686A
:1049000000F6FF7030490988491EC1F30B01401AB7
:10491000C0F3073B039810B12C48006800E000206A
:1049200002902B4800682B490968401A001F26494D
:10493000497AA1EB0B01A0EBC10023490968411A98
:104940000298A1EB000809EB0700404532DD00208A
:1049500011231E224FF400410090012042F64EFF29
:104960000021084601F062FBC8B91749487A05F0F2
:10497000BDF806461EB1304607B0BDE8F08F0020F6
:1049800012231E224FF400410090012042F636FF10
:1049900021462846069A0BF021FC064610E000202E
:1049A00013231E224FF400410090012042F626FFFF
:1049B0000F2605E021462846069A0BF00FFC064616
:1049C00000BF3046D8E70000787800205C5F002008
:1049D000685F0020605F002010B56FF002008A4918
:1049E00008603820002807DB00F01F0201219140F9
:1049F000864A430942F8231000BF0020844908601A
:104A00001E2008F6D9FC00BF81481C30006840F029
:104A100002007F491C3108600846006840F0010030
:104A200008600846006820F00200086000BF00BF70
:104A30007748001F006840F001007549091F0860B1
:104A40000846006820F00200086000BF00BF06F0C2
:104A5000E7FF0028FBD102206D493839096821F0B1
:104A6000030108B9002206E0022802D140F2AA227E
:104A700001E040F2FF3202F003021143644A383A87
:104A8000116000BF02201146096821F00C0108B92D
:104A9000002206E0022802D140F2AA2201E040F200
:104AA000FF3202F00C021143594A383A116000BF3C
:104AB00002201146096821F0C00108B9002206E071
:104AC000022802D140F2AA2201E040F2FF3202F0B5
:104AD000C00211434E4A383A116000BF03204C49CE
:104AE0004039096821F0030108B9002206E00228D4
:104AF00002D140F2AA2201E040F2FF3202F00302AA
:104B00001143434A403A116000BF0320114609682F
:104B100021F00C0108B9002206E0022802D140F27F
:104B2000AA2201E040F2FF3202F00C021143384A9F
:104B3000403A116000BF03201146096821F0C0010E
:104B400008B9002206E0022802D140F2AA2201E0C0
:104B500040F2FF3202F0C00211432D4A403A116088
:104B600000BF00BF01202A493439086000BF00BFE0
:104B700006F056FF0028FBD100BF25481C30006816
:104B800020F0040022491C31086000BF00BF20480B
:104B9000001F006820F004001D49091F086000BFC5
:104BA00000BF1B481C30006840F0040018491C314D
:104BB000086000BF00BF1648001F006840F00400F6
:104BC0001349091F086000BF012009F0DFFD00BF85
:104BD0001048006820F040000B499839C1F8800265
:104BE00000BF00BF0846D0F8800220F01000C1F8D6
:104BF000800200BF00BF0846D0F8800220F02000ED
:104C0000C1F8800200BF10BD98A0004080E200E023
:104C1000C4A4004080A2004000BF1948006820F0F2
:104C200004001749086000BF00BF15482030006825
:104C300020F0040012492031086000BF00BF104876
:104C4000006840F002000E4908600846006820F045
:104C50000100086000BF00BF09482030006840F034
:104C600001000749203108600846006840F0020052
:104C700008600846006820F00100086000BF704727
:104C8000C0A4004038B50AF099F928B140F27E413D
:104C9000084609F0EBFE04E040F27E41084609F0C8
:104CA000E5FE2748007878B126480068009009F0B2
:104CB000F7FE044624480088009009F0F1FE0546FE
:104CC00021460AF00FF905E04FF466714FF47F704A
:104CD0000AF008F91D4807F0A9FF0AF06FF910B9AA
:104CE0001B48007880B91B4818490A6802604A6866
:104CF0004260098901811849144802680A604268C3
:104D00004A600089088119E01249104802680A6067
:104D100042684A60008908810F490C4802680A60AD
:104D200042684A600089088140F21A4009490880B7
:104D300009F032FE074988800120487238BD000022
:104D4000106100200C6100200E610020E260002054
:104D5000CE600020EC600020F660002010B540F628
:104D6000CDF810BD10B500F099F800F059F8BDE885
:104D7000104000F079B8000010B50121002003F0C8
:104D8000D5FA012014F61CF902200649087009F032
:104D90005DFB0549322009F0E5FB3220FDF78DFE71
:104DA00010BD00003C6100207B28200010B52DEDD7
:104DB000028B00BF17480068C0F30B00044600BF19
:104DC00014480830006820F07F4008EE100A601C8C
:104DD00000EE100AB8EE400ADFED0F0A20EE200ABE
:104DE000B8EE481AC0EE010AB6EE000A30EE800AAC
:104DF000BCEEC00A094880ED000A006807F0EEFE2C
:104E0000F0EE408AB0EE680A0AF0FCF8BDEC028BC6
:104E100010BD000004E400400024F44B2861002091
:104E200000B587B003228DF80420012002900521EF
:104E30008DF80C108DF80D0000238DF80E308DF8D4
:104E40001020022205928DF818108DF81900042008
:104E50008DF81A00034A022101A8FFF765F807B090
:104E600000BD0000253F20007CB5082500950224E8
:104E70008DF804408DF805408DF8065069460420F1
:104E8000FEF776FE042000908DF804408DF8054072
:104E90008DF806506946FEF76BFE7CBD00B587B005
:104EA00000F01EF803208DF800001D208DF816007C
:104EB00001208DF817008DF818008DF81900044AAC
:104EC00004496846FFF7CEF8FEF76CF907B000BD5D
:104ED000D94E2000414F20000020FFF763BB0000A7
:104EE0007CB5144800904FF48065019500F5806012
:104EF000002101704FF4E1320264032444648164B0
:104F0000C1640165012343650174DA024261022232
:104F100042740376017185604271017306494163F1
:104F2000816380F83C2080F83D406A460349FFF7E2
:104F3000DBFB7CBD6463002000900140A1452000A4
:104F40000A4601464FF47A730020FFF78BBC0146F6
:104F500000200A2904DC40F6641000EB410012E056
:104F6000242904DC40F6661000EB41000BE0252903
:104F700002D140F6621006E0262902D140F67A10EE
:104F800001E04FF41B60704710B50021084603F0A4
:104F9000CDF9012014F60CF80348806820F48070E5
:104FA0000149886010BD000000A0004010B51648FF
:104FB0000068401C1449086000BF1448006800F0F5
:104FC000010040B100BF11480838006800F001003E
:104FD00008B109F093FA00BF0D48006800F0010025
:104FE00040B100BF0A480838006800F0010008B16D
:104FF00000F06EFE09F0C4F920B103F021FE08B103
:10500000FFF7C2FF10BD00005461002008E400401B
:1050100008E5004010B509F0B3F920B103F010FE27
:1050200008B1012010BD0020FCE710B509F08CFA92
:1050300000F0F4FD10BD10B507F0B2FF00F0E6F887
:10504000BDE8104009F05AB910B500BF2348006808
:1050500020F000402149086000BF214A1078214A11
:10506000117840EA81031D4A121D126863F31F7212
:105070001A4B1B1D1A6000BF06201946096821F44F
:10508000E07141EA80111A46116000BF00BF101F95
:10509000006840F00040111F086000BF00BF1248C8
:1050A000006840F001001149C1F8880200BF1049B2
:1050B000312009F057FA312000280DDB00BF00BF76
:1050C00000F01F02012191404209920002F1E0220A
:1050D000C2F8001100BF00BF00BF10BD04A900400E
:1050E000B0600020B160002088E2004000E0004095
:1050F000852820002DE9F04104460D461646094852
:10510000007810B1002006F06DFD32462946204699
:1051100006F052FD07460348007806F063FD384666
:10512000BDE8F0816D5F00202DE9F04105460E4697
:1051300014460948007810B1002006F053FDA2B2D1
:105140003146284606F05EFD07460348007806F023
:1051500049FD3846BDE8F0816D5F00202DE9F04142
:1051600005460E4614460948007810B1002006F0A6
:1051700039FDA2B23146284606F0A5FD0746034890
:10518000007806F02FFD3846BDE8F0816D5F002005
:105190002DE9F04104460D4616460948007810B145
:1051A000002006F01FFD32462946204606F0CAFDC3
:1051B00007460348007806F015FD3846BDE8F08143
:1051C0006D5F00202DE9F04104460F4615464FF073
:1051D0000008206800F6FF702188491EC1F30B010A
:1051E000401A21682944884201D84FF008082A460D
:1051F00039462068FFF7B2FF86B205EB0801206848
:10520000084420603046BDE8F081000002490148B2
:1052100008607047AD5510006C03002030B40021C9
:10522000114B01EBC10202EB420213F82240012CA8
:1052300015D103EB82020579147AAC420FD1526882
:105240000468A2420BD101EBC10000EB400003EB6C
:105250008000816E002905D030BC02200847491C1F
:105260000C29DED330BC7047C468002030B4002164
:10527000114B01EBC10202EB420213F82240012C58
:1052800015D103EB82020579147AAC420FD1526832
:105290000468A2420BD101EBC10000EB400003EB1C
:1052A0008000816E002905D030BC00200847491CD1
:1052B0000C29DED330BC7047C468002010B502460C
:1052C000012302B109B9002010BD084C1068A042AA
:1052D00002D10020087007E0054C1068A04202D1FE
:1052E0000120087000E000231846EDE7009001401F
:1052F00000A0014070B500240D4E04EBC40000EB8B
:10530000400016F8201001290DD106EB800005465B
:10531000001D01F013FC18B1012801D0002070BD60
:10532000281DFFF651FB641C0C2CE6D3012070BD38
:10533000C46800202DE9F84305460F462020009060
:1053400069462846FFF7BAFF012837D19DF80010BB
:1053500088401B490968084080B35FBB00BF00BF9D
:10536000EFF310800646012080F3108800BF4FF055
:10537000000814492868884202D1DFF84C8007E011
:1053800012492868884203D1DFF83C8008F11808E8
:10539000002408E058F8240018B158F82400FFF65B
:1053A00067FB601CC4B2062CF4DB00BF86F31088D8
:1053B00000BF00BF9DF8000002F0EAFEBDE8F883E0
:1053C000AC61002000900140607C002000A0014002
:1053D000F8B504460D4620200090002604B9F8BD1B
:1053E00069462046FFF76AFF012810D1012D02D03F
:1053F0000DB1012606E02068D0F8A00308B9002608
:1054000000E0012631469DF8000002F06FFF84F8AD
:105410002D5000BFE3E738B50446202000906946D0
:105420002046FFF74BFF012803D19DF8000002F052
:105430003FFF38BD30B40021114B01EBC10202EB3C
:10544000420213F82240012C15D103EB82020579A8
:10545000147AAC420FD152680468A2420BD101EB1E
:10546000C10000EB400003EB8000816E002905D0F5
:1054700030BC01200847491C0C29DED330BC7047E2
:10548000C468002070B504460D460448006820B189
:1054900029462046014A1268904770BD706100207D
:1054A00070B504460E46002E43D037492068884226
:1054B0001CD12079062819DA00202179334A42F8D4
:1054C0002100002506E0314850F8250000B103E036
:1054D000681CC5B2062DF6DB00BF062D52D1002098
:1054E00002F0BAFE002002F03DFE4BE028492068A1
:1054F000884247D12079062844DA002122792348BE
:10550000183040F82210002507E02048183050F8E5
:10551000250000B103E0681CC5B2062DF5DB00BF15
:10552000062D2FD1012002F097FE012002F01AFE75
:1055300028E01549206888420FD1207906280CDA26
:105540002079124941F820401249002002F06CFEF7
:105550000E49002002F096FE14E00D4920688842B2
:1055600010D1207906280DDA21790848183040F842
:1055700021400849012002F057FE0449183101205A
:1055800002F080FE70BD000000900140607C0020B1
:1055900000A00140394A100070B506460C46154679
:1055A00000BF6FF4004000EAC43028B140F2F62298
:1055B0000CA111A000F674FF00BF00BFE80BC003F0
:1055C00028B140F2F72207A11AA000F669FF00BF38
:1055D00045EAC43081B294207043254A1044A0F8B3
:1055E000661170BD72665F6764785F62616C626F3E
:1055F00061322E630000000028282875696E74311E
:10560000365F7429727877696465203C3C203135B7
:10561000292026207E282875696E7431365F74290A
:10562000307830303030383030302929203D3D203E
:105630003000000028282875696E7431365F74299F
:10564000727877696E737A203C3C203029202620BE
:105650007E282875696E7431365F74293078303051
:105660003030374646462929203D3D203000000095
:1056700000800E4070B5064C4FF4807628252A46EF
:10568000214604483044FCF79AFF00BF70BD00007B
:105690009817210000800E40F0B504460D461646CE
:1056A0001F463B4632462946204600F009F803F0E3
:1056B0004DFBF0BD0148007870470000287C0020B9
:1056C00030B501240A4D2C702C466060E2602361E5
:1056D000A160084CA4688C4203D2064CA4680C1B41
:1056E00002E0044CA468641A014D6C6130BD0000F6
:1056F000287C00205861002010B503F0FFFA044612
:1057000018210548FCF7D2FF002003490870204605
:1057100000F07AF910BD0000287C00202DE9F04748
:10572000054688461646324C324887684FF00009D5
:1057300094F800A026626562BD4201D9E81B00E032
:10574000781B81462B48C068484507D333464246FC
:1057500029460020FFF7A0FFBDE8F087A069484573
:1057600002D9C4F81890E661BAF1010F21D1656140
:105770006069B84203D92069401CA06002E020693A
:10578000401EE060D4E9020188420BD2D4E9020154
:10579000084440082061012020704046216900F043
:1057A0002BF8D9E7022020704046A16800F024F8C9
:1057B000D2E7BAF1020F10D1E069B04206D1334608
:1057C000424629460020FFF767FFC5E70320207007
:1057D0004046E16900F010F808E0BAF1030F05D186
:1057E0003346424629460020FFF756FF00BFB3E785
:1057F000D07B00205861002070B504460D46064855
:10580000806A401C04498862AAB2E1B2034B58681E
:10581000034B03F023FA70BDD07B002058610020B9
:105820001D57200070B505460F4C2C212046FCF773
:105830003DFF0020A06040F2FF10E060D4E90201CB
:105840000844400820614FF0FF30A061A06A401C6E
:10585000A06201202070238A9AB2E9B2034B5868F3
:10586000034B03F0FBF970BDD07B00205861002092
:105870001D5720002DE9F84306460D469046344C4E
:1058800094F80090B9F1010F0AD1E66040F2FF10E0
:10589000206102220146284600F09CF8BDE8F8830A
:1058A000B9F1020F4AD100270020009066616846D6
:1058B00000F050F807461FB92846FFF7B3FFEDE7A1
:1058C000012F12D10F2D07DA0020A0600122681CE1
:1058D000A16800F07FF8E1E70520E06143462A4631
:1058E0003146E069FFF7D8FED8E7022F12D1002D2C
:1058F00007DD0020A060681E0122002100F06AF888
:10590000CCE70620E06143462A463146E069FFF7CE
:10591000C3FEC3E7032F08D10098E06143462A463F
:105920003146E069FFF7B8FEB8E70720E06143467B
:105930002A463146E069FFF7AFFEAFE70820E06195
:1059400043462A463146E069FFF7A6FE00BFA5E7B9
:10595000B07B002070B504461C491D48036982686D
:1059600000250026C868904204D94869904201D9B0
:10597000022070BDC868904204D24869904201D2AA
:105980000120F6E7C868904202D9C868801A01E091
:10599000C868101A05464869904202D94869801AB9
:1059A00001E04869101A06469D4203D39E4201D386
:1059B0000020DEE79D4201D20120DAE79E4201D2BB
:1059C0000220D6E70320206000BFD2E7B07B002092
:1059D000586100202DE9F04105460E461746074C58
:1059E000A069401CA06165602770B2B2E9B2044BA7
:1059F0005868044B03F032F9BDE8F081B07B002019
:105A0000586100207558200070B50546064C2021CD
:105A10002046FCF74BFE0020A06001222846A1682A
:105A2000FFF7D8FF70BD0000B07B00202DE9F843E0
:105A300005460E4617462A4C4FF00008C146002086
:105A40000090E069401CE0616660A760E06820614A
:105A5000E56024488068A84203D222488068281A5A
:105A600002E020488068401B80466069404502D9BA
:105A7000C4F81480A761684600F036F88146B9F191
:105A8000000F09D0B9F1010F0CD0B9F1020F11D0FC
:105A9000B9F1030F1AD113E00020A062204600F0F4
:105AA000CCF819E0012084F820003046A16900F00C
:105AB00087F811E0A068411C304600F081F80BE047
:105AC000A068411E304600F07BF805E00098A06217
:105AD000204600F0B2F800BF00BFBDE8F883000028
:105AE000FC7B002058610020F0B503463249334862
:105AF0008268002400250026C868904202D9C86840
:105B0000801A01E0C868101A04462C48C068A042F8
:105B100001D30020F0BD486A012801D10020F9E737
:105B200091F82000012801D10020F3E74F6AC869ED
:105B3000B84209D38F688869B84201D10020E9E7EB
:105B4000012081F82000E5E7C869012815D9086916
:105B5000904202D9C868904205D3086990420CD29D
:105B6000C868904209D98F688869B84201D100207D
:105B7000D0E7012081F82000CCE7C868904201D925
:105B8000012500E001264DB18868B0F5FF7F03D9FB
:105B9000092018600420BDE70220BBE73EB18868F9
:105BA00018B90A2018600420B4E70320B2E70B20DC
:105BB00018600420AEE70000FC7B00205861002044
:105BC00070B504460D46AAB2E1B2034B5868034BC8
:105BD00003F044F870BD0000586100202D5A2000E9
:105BE00070B504460D4616462C210948FCF75EFDAB
:105BF0000020074981F82000401E486108464462A1
:105C0000B2B2E9B2034B5868034B03F027F870BDFA
:105C1000FC7B0020586100202D5A200010B503F0B5
:105C200001F800B910BDFFF745FD10B9FFF764FD9D
:105C3000F8E700F02DF800BFF4E700B5034618467A
:105C400000F004F803F082F800BD000001210E4AC4
:105C50001171816A9160C169D160C1681161416847
:105C6000516181689161094AC1689268914204D981
:105C7000064AC1689268891A03E004498968C268C3
:105C8000891A014AD1617047407C00205861002088
:105C90002DE9F04103F032F8064603F041F80746DB
:105CA000094804680948456920210748FCF7FEFCBB
:105CB000601C05490860002008713A4631462846B4
:105CC000FFF78EFFBDE8F081407C00205861002086
:105CD00010B512480069401C1049086103F03CF8F7
:105CE0000E49C86003F00AF80C49486003F018F840
:105CF0000A49886000200A49086008494861084646
:105D0000C06940B10C462489A2B20C462179E068F2
:105D1000E369984701E003F019F810BD907B00207B
:105D200000E500402DE9F04106460F461C4C4FF6B9
:105D3000FF75238C102B0AD3208821466084CD83E5
:105D40005B1E0B841E22891C2046FCF738FC608CED
:105D50003246394606F0AEFC10B10C20BDE8F081A9
:105D6000208C102804D3401C2084608CE08308E041
:105D7000618C24F81010208C401C2084608C401C06
:105D8000608400F00FF80028E8D0218C491E89B209
:105D90002184628C521E628424F81150DEE70000D8
:105DA0001076002010B5054A24214FF4204006F05B
:105DB00081FC08B10C2010BD002010BD1076002021
:105DC0007CB500251B48006800F108041A480078DB
:105DD00010B1002005F006FF00BF082269462046EA
:105DE00005F010FFBDF800004FF6FF71884202D0A9
:105DF000BDF8000008B9254615E0BDF8020000F026
:105E000069FABDF802100831084486B231462046CE
:105E100000F076FA044609480068844202D3074835
:105E2000056800E0D9E700BF0348007805F0DAFE16
:105E300028467CBD605F00206D5F0020685F002009
:105E4000FEB506460C4602AA2146304609F0B8FCCB
:105E500008B10298FEBD029808B1029802E02248FB
:105E6000006808300546002002902048007810B1F4
:105E7000002005F0B7FE00BF08226946284605F05D
:105E8000C1FEBDF800004FF6FF71884203D100202B
:105E90002080029020E0BDF80000B04205D114B18E
:105EA000BDF802002080029516E0BDF8020000F067
:105EB00011FABDF802100831084487B23946284665
:105EC00000F01EFA05460A480068854203D3002008
:105ED0002080029000E0CFE700BF0448007805F082
:105EE00081FE0298B6E70000605F00206D5F002031
:105EF000685F002008B506F061FE01F01DFBD8B117
:105F000000208DF80000A3208DF8010002208DF8FC
:105F100002006846FEF64EFC08494FF6FF70086026
:105F2000091D8011086008F04BFC06F0BBFC09F06D
:105F300003FA06F025FD08BDFEE7000080A400403E
:105F400002494968002900D008477047D8610020FD
:105F500070B5044600BFFCF70BFE05460120FCF7B8
:105F600087FE0948047024B9482208490848FCF70C
:105F70006BFB1DB90020FCF77BFE02E00120FCF763
:105F800077FE00BF70BD0000FC5E00200C77002093
:105F9000002000E010B507484068074948600648FF
:105FA0000830402203490831FCF74EFB0320024928
:105FB000086010BDC4760020002000E000200349E6
:105FC0000968002900D0084770470000D861002008
:105FD00070B500BFFCF7CCFD05460120FCF748FE7C
:105FE0000B48047834B948220A490B48FCF72CFBCB
:105FF000FFF7D0FF0120064908701DB90020FCF70B
:1060000037FE02E00120FCF733FE00BF204670BDE2
:10601000FC5E0020002000E00C77002013B5012179
:106020006846FEF713F801201CBD00002DE9F04F73
:106030008DB0884608200C90002400200B904FF073
:1060400008090A90CDF824808246FFF7B9FE05467C
:1060500005F6FF70691EC1F30B01401A7C490968FF
:10606000401A0121C1EB1030C4B20B9414B10120CD
:106070000990824609F0C6FAE3E0002006900790F6
:106080006CB17349096801EB0430042206A9FFF7DB
:1060900031F8042803D00F200DB0BDE8F08F0020A8
:1060A00002900390A5208DF808008DF809409DF816
:1060B0002C008DF80A00BDF83000ADF80E009DF8F8
:1060C00018008DF80B00BDF81A00ADF80C00604800
:1060D000006800EB043048440A905E480068484479
:1060E00008904FF480515B48006805F02FFD08B917
:1060F0001020D1E79DF8180048B19DF81820012321
:1061000008A90AA80AF0ECF908B10F20C4E7BDF805
:106110001A0048B1BDF81A20002308A90AA80AF0FD
:10612000DFF908B10F20B7E700BF49490A980968AD
:10613000401AA0EB0430C0F58055082D2DDD01205C
:10614000082304AA08A900900AA80AF093F908B144
:106150000F20A1E7BDF810004FF6FF71884200D173
:1061600033E0083DBDF8120000F0B4F8BDF812109D
:106170004718AF4208DDAAB2002308A90AA80AF00E
:10618000AFF9D8B10F2087E7BAB2002308A90AA84F
:106190000AF0A6F990B10F207EE7A8B200F09AF8B5
:1061A00028441FFA80FB01205B462B4A08A9009077
:1061B0000AA80AF05FF908B10F206DE72548089991
:1061C000006800F580508142AFD300BF082202A9C9
:1061D00020480068FEF7DCFF082801D00F205BE7AD
:1061E0001B49096801EB04304FF4805105F0AEFC07
:1061F00008B9102050E7BAF1000F0DD01449096812
:1062000001EB0430042206A9FEF7C2FF042801D0E6
:106210000F2041E74FF0000A09AB0CAA0BA902A816
:106220000AF088F90646012E06D1010309480068E4
:1062300005F08CFC00202FE70EB10F202CE7601C2E
:10624000C4B20648407AA042BFF617AF002023E749
:10625000605F0020645F0020187A002078780020BA
:1062600001460020087108790A78104408710879FD
:106270008A78104408710879704710B502460020EA
:10628000507100BF05E053790C5C23445371431CEB
:1062900098B253888342F6DC507910BD10B50022C5
:1062A0000A480068C0F3160108489C38D0F8A000DE
:1062B000C0F3160205481C380068C0F3C113501A19
:1062C000034C54F82340604310BD00009C200F4055
:1062D0001063002001460020084A127862B10A4685
:1062E000CB1701EB93739B10A1EB8303DB43D8B275
:1062F000421CD0B200F00300704700006D5F002028
:1063000070B506460C46002535192146304603F087
:1063100069FD08B1082000E000200544284670BD52
:10632000024600210BE0084850F83130501E8342ED
:1063300004D1054800EBC10040687047491C102992
:10634000F1DB0020F9E7000054770020002101E094
:10635000491C4008C207FBD00846704770B5044688
:1063600000BFFCF705FC05460120FCF781FC00207E
:106370001449087014481549086015481549086003
:10638000482215491548FCF75FF91548124948603D
:106390000320086048221348FCF756F948220F49A9
:1063A0000D48FCF751F9882C01D008F083FF1DB986
:1063B0000020FCF75DFC02E00120FCF759FC00BF67
:1063C00070BD0000FC5E0020515F2000DC610020F9
:1063D000D15F2000D8610020002000E00C77002071
:1063E00080830020C47600202DE9FE43054600246A
:1063F00003208DF8000000260C4F4FF00108E8073D
:106400000BD008FA04F0019007EBC400406802903A
:1064100057F8341009B168468847641CA4B26D0867
:10642000761C082EEBDBBDE8FE8300002C6F0020FD
:106430002DE9F04704460026002500BF714800689A
:10644000E1B288437049C1F8E40100BF2146012050
:106450004FF47F0808EA01424FF47F4808EA01231D
:10646000012801D0032801D1904601E04FF0000837
:106470004746022801D0032801D1984601E04FF099
:106480000008C446DFF88081D8F8E48128EA0208D1
:1064900048EA0708DFF87091C9F8E481C846D8F8DF
:1064A000E48128EA030848EA0C08C9F8E48100BF3F
:1064B00000BF54481C300068A0434946C1F80002A0
:1064C00000BF204603F0ACFC204602214FF47F4879
:1064D00008EA0027C3B2012901D1B84601E04FF014
:1064E0000008424611B94FF0000800E09846C44643
:1064F000DFF81481D8F8E88143EA070928EA090897
:106500004CEA020948EA0908DFF8FC90C9F8E8817A
:1065100000BF012094FAA4F2B2FA82F1394A121DA6
:10652000126822EA046300FA01F243EA02624B466F
:10653000C3F8E82100BF00BF94FAA4F7B7FA87F1C7
:10654000020903462F4F08373F68A74302FA01FCB0
:1065500047EA0C07CC46CCF8EC714F46D7F8EC7103
:1065600027EA042C03FA01F74CEA0727CC46CCF8BB
:10657000EC7100BF204600214FF47F0202EA004088
:10658000204A08321268824309B1034600E0002322
:106590001A431C4B08331A6000BF25462EE095FABB
:1065A000A5F0B0FA80F1012000FA01F6681E05405E
:1065B0003046082190FAA0F3B3FA83F39A00134B04
:1065C0001B680F279740BB4301FA02F73B430F4F6D
:1065D0003B60082908D10B4B10331B6823EA0043AA
:1065E000094FC7F8F43107E0064B10331B6843EA44
:1065F0000043054FC7F8F43100BF00BF002DCED1D6
:10660000BDE8F087E4A1004000A0004074EE004027
:1066100010B588B004460CB908B010BD20680090D1
:10662000207900F003000190A0680290E0680390D8
:106630002069049060690590A0690690606800096F
:106640000790684603F0F8FB00BFE5E770B5FF2050
:106650002A490968C9B201400C4600BF2848D0F851
:106660008400C0F340000546002C3CD0204603F0D7
:10667000D7FB00BFE0432149086000BF00BF6FF0B7
:1066800002001F49C1F8840000BF00BF1B48183832
:10669000006800F0010070B104F0100058B124F05F
:1066A000100410201549083909688143144AC2F8BA
:1066B000001200BF17E000BF1148806800F0010021
:1066C00070B104F0200058B124F0200420200B49C0
:1066D0000839096881430A4AC2F8001200BF02E083
:1066E0002046FFF781FE45B13CB900BF6FF00200C4
:1066F00003498431086000BF00BF70BD08A200409C
:1067000000A00040014608464FF07F4202EA0060C8
:10671000044A12680240824201D1012200E00022B4
:10672000D0B27047E4A1004001218140024A1268C2
:106730008A4301490A607047E46200200348044923
:10674000086004480449086070470000C9511000FF
:10675000DC0A002031521000E00A002001218140B3
:10676000024A12681143014A11607047E462002036
:1067700010B504460448006820B120460249096863
:10678000884710BD0120FCE79061002010B5044649
:106790000448006820B1204602490968884710BDB6
:1067A0000120FCE79461002070B5044600250CB977
:1067B000012070BD94F82D0001280BD100BF0020EE
:1067C00084F82C0000BF206C002868D02046216C83
:1067D000884764E094F82D00022809D094F82D0031
:1067E000042805D0606C40F004006064012556E088
:1067F0002179206803F0B3FE00BF2179206804F0FE
:10680000F5F90028F9D12179206803F0ECFE21790F
:10681000206803F0D8FE2179206801F108020123E5
:1068200093404FF44872135000BF2179206801F162
:106830000802012393404FF44A72135000BF21799C
:10684000206803F0C8FE2179206803F06BFD2179F0
:10685000206803F05DFD2179206801238B40C0F89A
:10686000483300BF2179206801238B40C0F85033A2
:1068700000BF2179206803F050FD2179206803F0E2
:1068800091FE01212046FEF7A3FD00BF002084F801
:106890002C0000BF206C10B12046216C8847284690
:1068A00087E700002DE9F041044614B90120BDE856
:1068B000F081534807685348D0F8008000BF414634
:1068C000384612F6C5FB00BF4E484568FCF770F825
:1068D0004D4800684FF47A71B0FBF1F000FB01F60F
:1068E0002179206801EB410202EBC10200EBC202F8
:1068F000126C42F4807201EB410303EBC10300EB25
:10690000C3031A6400BF19E03E484068401BB04210
:1069100014D9606C40F02000606400BF002084F84F
:106920002C0000BF03212046FEF752FD00BF414668
:10693000384612F66BFB00BF0320B8E721792068C8
:1069400001EB410202EBC10200EBC202126CC2F386
:106950004022002AD8D02179206803F000FE29487F
:106960004568FCF725F8284800684FF47A71B0FBB9
:10697000F1F000FB01F619E022484068401BB042EC
:1069800014D9606C40F02000606400BF002084F8DF
:106990002C0000BF03212046FEF71AFD00BF414630
:1069A000384612F633FB00BF032080E721792068C8
:1069B00004F01CF90028DFD12179206801EB4102A5
:1069C00002EBC10200EBC202126C22F4807201EBF6
:1069D000410303EBC10300EBC3031A6400BF0121B1
:1069E0002046FEF7F5FC00BF002084F82C0000BF15
:1069F00000BF4146384612F609FB00BF002056E7AB
:106A0000FCED00E0001000E01456002038B504460C
:106A1000202000900CB9012038BD434920688842ED
:106A200005D100BF00204149086000BF0AE040498D
:106A30002068884206D100BF00203C49091D08603B
:106A400000BF00BF2179206803F093FC2046FEF7C9
:106A5000E2FC0020606400212046FEF7B9FC3249C8
:106A60002068884210D13348007822790121914072
:106A700088433049087008460078D8B900BF012023
:106A80002A49086000BF15E029492068884211D1D1
:106A9000284840782279012191408843254948704F
:106AA0000846407830B900BF01202049091D086020
:106AB00000BF00BF1F48007850B91E48407838B961
:106AC00000BF00BF00BF01201B49086000BF00BF1E
:106AD00001212046FEF7D6FC69462046FEF7EEFB74
:106AE000012815D19DF8000038B91248007878B90E
:106AF0009DF8000001F082FB0AE09DF800000128EB
:106B000006D10C48407818B99DF8000001F076FBDA
:106B100001212046FEF70EFC00BF002084F82C0067
:106B200000BF00BF78E70000009001408CD71D42F5
:106B300000A001407461002008D51D42014609B93A
:106B40000420704791F82D00FBE7000010B58CB0D1
:106B5000044614B901200CB010BD94F82D00F8B90A
:106B6000002084F82C0039492068884205D100BFF4
:106B700000203749086000BF0AE036492068884293
:106B800006D100BF00203249091D086000BF00BFC8
:106B900000BF00BF00BF00202F49086000BF00BF3A
:106BA00002212046FEF714FC684604F059F9A0685B
:106BB0000990E0680A9060690490A0690590E06916
:106BC0000690206A079020690290606A0390A06A8C
:106BD0000B9021796A46206803F0F4FE002060647F
:106BE00001212046FEF7F4FB2046FEF714FC0021AD
:106BF0002046FEF747FC1549206888420CD117480B
:106C00000078227901219140084314490870144901
:106C1000002001F0DBFA0FE00E49206888420BD11A
:106C20000E48407822790121914008430B49487071
:106C30000B49012001F0CAFA01212046FEF77AFB38
:106C4000002084F82C0000BF85E700000090014080
:106C50008CD71D4200A0014008D51D427461002060
:106C6000E54A100010B5044604B910BD94F82D0093
:106C700000B9FAE7207921684FF442725258012393
:106C800083401A40012383409A4201D1012200E04F
:106C900000225AB3207921684FF44C7252580123D4
:106CA00083401A40012383409A4201D1012200E02F
:106CB0000022DAB1606A18B92179206803F08BFCF0
:106CC0002179206803F029FB606C40F001006064CA
:106CD00004212046FEF77CFB00BF002084F82C0036
:106CE00000BFE06B10B12046E16B88472079216836
:106CF0004FF43A725258012383401A4001238340D3
:106D00009A4201D1012200E000224AB32079216891
:106D10004FF444725258012383401A4001238340A8
:106D20009A4201D1012200E00022CAB1606A18B97A
:106D30002179206803F057FC2179206803F0F2FAEA
:106D4000606C606401212046FEF742FB00BF00201A
:106D500084F82C0000BF606B10B12046616B88473F
:106D6000207921684FF43C725258012383401A4025
:106D7000012383409A4201D1012200E00022FAB1AE
:106D8000207921684FF446725258012383401A40FB
:106D9000012383409A4201D1012200E000227AB10E
:106DA0002179206803F0B4FA606C606400BF0020B1
:106DB00084F82C0000BFA06B10B12046A16B88475F
:106DC00000BF52E72DE9F04104460D4616461F4626
:106DD0000748006850B13B46324629462046DFF856
:106DE00010C0DCF800C0E047BDE8F0810120FBE7FF
:106DF000846100202DE9F04104460D4616461F46E9
:106E00000748006850B13B46324629462046DFF825
:106E100010C0DCF800C0E047BDE8F0810120FBE7CE
:106E2000806100202DE9F84304460E4617461D46B2
:106E30004FF0000814B90120BDE8F8832DB9606C4B
:106E400040F0080060640120F6E700BF94F82C00D1
:106E5000012801D10220EFE7012084F82C0000BFB7
:106E600094F82D0001287DD100212046FEF762FA1A
:106E70002046FEF7D0FA02212046FEF7A9FA217932
:106E8000206803F08FFB2069009021793B46324651
:106E9000206803F04DFA21792A46206803F0BEFEEF
:106EA0002179206803F03EFA2179206803F0F9FB8C
:106EB0002179206803F02CFA2179206803F0DBFBAC
:106EC0002179206803F029FA2179206803F0DEFB9C
:106ED00021790022206803F032FF21790022206806
:106EE00003F053FF21790022206803F03BFF217952
:106EF000206803F081FB21790022206803F090FFD5
:106F000021790022206803F09BFF2179206803F09B
:106F100038FB21790022206803F0F1FE217900225C
:106F2000206803F0FCFE21790022206803F0D4FEE3
:106F300021790022206803F0BCFE2179002220681C
:106F400003F0A5FE21790022206803F031FF2179AA
:106F50000022206803F051FF21790022206803F00D
:106F60003AFF00E004E02179206803F072FB06E0BC
:106F70004FF0020800BF002084F82C0000BF4046FC
:106F80005AE72DE9F04104460E461746984600257B
:106F900043463A4631462046FFF72CFF05461DB9C9
:106FA0002179206803F039FB2846BDE8F0812DE9FE
:106FB000F84304460E4617461D464FF0000804B13C
:106FC00035B9606C40F0080060640120BDE8F883CA
:106FD00000BF94F82C00012801D10220F6E701201F
:106FE00084F82C0000BF94F82D0001287DD10021E9
:106FF0002046FEF79FF92046FEF70DFA02212046B3
:10700000FEF7E6F92179206803F0CCFA21792068AF
:1070100003F088F92179206803F0E5FA21792068E6
:1070200003F076F92179206803F0CDFA2179206800
:1070300003F073F92179206803F0CDFA2179002259
:10704000206803F07CFE21790022206803F09DFE79
:1070500021790022206803F085FE2179206803F061
:10706000CBFA21790022206803F0DAFE2179002290
:10707000206803F0E5FE2179206803F082FA217987
:107080000022206803F03BFE21790022206803F0F3
:1070900046FE21790022206803F01EFE217900229D
:1070A000206803F006FE21790022206803F0EFFD3E
:1070B00021790022206803F07BFE217900222068DC
:1070C00003F09BFE21790022206803F084FE2069F2
:1070D000009021793B463246206803F029F9217956
:1070E0002A46206803F09AFD00E004E02179206838
:1070F00003F093FA06E04FF0020800BF002084F886
:107100002C0000BF404661E72DE9F84304460D46D8
:1071100016461F46DDF820800848006860B13B46EF
:10712000324629462046DFF814C0CDF80080DCF84E
:1071300000C0E047BDE8F8830120FBE78C61002038
:107140002DE9F84304460D4616461F46DDF820801B
:107150000848006860B13B46324629462046DFF8C1
:1071600014C0CDF80080DCF800C0E047BDE8F8832B
:107170000120FBE7886100202DE9F84304460F4613
:1071800090461E46089D4FF0000914B90120BDE845
:10719000F88306B12DB9606C40F0080060640120EE
:1071A000F5E700BF94F82C00012801D10220EEE79A
:1071B000012084F82C0000BF94F82D0001287DD117
:1071C00000212046FEF7B6F82046FEF724F90221FA
:1071D0002046FEF7FDF82179206803F0E3F92179D4
:1071E0002A6A206803F0ABFD2179AA69206803F0C0
:1071F000CCFD2179AA6A206803F0B4FDA869B0F13A
:10720000805F0AD12179206803F056FA217905F1CF
:107210001C02206803F014FE08E02179206803F0C6
:10722000EBF921790022206803F00AFE286AB0F108
:10723000006F0AD12179206803F0FAF9217905F16C
:107240002402206803F06BFD08E02179206803F038
:1072500098F921790022206803F061FD21792A68DC
:10726000206803F039FD21796A68206803F021FD68
:107270002179AA68206803F00AFD2179EA6820686C
:1072800003F096FD21792A69206803F0B6FD217983
:107290006A69206803F09FFD2069009021794346C8
:1072A0003A46206803F044F821793246206803F01A
:1072B000B5FC2179206803F035F800E018E0217969
:1072C000206803F0EEF92179206803F021F8217994
:1072D000206803F0D0F92179206803F01EF82179A5
:1072E000206803F0D3F92179206803F0B2F906E0B1
:1072F0004FF0020900BF002084F82C0000BF484670
:1073000045E72DE9F84304460E4617469846DDF852
:107310002090002543463A4631462046CDF800905D
:10732000FFF70EFF05461DB92179206803F075F9B6
:107330002846BDE8F8832DE9F84304460F469046F9
:107340001E46089D4FF0000914B90120BDE8F883DE
:1073500006B12DB9606C40F0080060640120F5E7CB
:1073600000BF94F82C00012801D10220EEE7012093
:1073700084F82C0000BF94F82D0001287DD1002155
:107380002046FDF7D7FF2046FEF745F802212046AC
:10739000FEF71EF82179206803F004F921792068AE
:1073A00002F0C0FF2179206803F01DF921792068DF
:1073B00002F0AEFF2179206803F005F921792068F9
:1073C00002F0ABFF2179206803F005F921792A6AE0
:1073D000206803F0B4FC2179AA69206803F0D5FC89
:1073E0002179AA6A206803F0BDFCA869B0F1805F2A
:1073F0000AD12179206803F05FF9217905F11C0297
:10740000206803F01DFD08E02179206803F0F4F8FE
:1074100021790022206803F013FD286AB0F1006F83
:107420000AD12179206803F003F9217905F12402BA
:10743000206803F074FC08E02179206803F0A1F8CB
:1074400021790022206803F06AFC21792A682068EB
:1074500003F042FC21796A68206803F02AFC217954
:10746000AA68206803F013FC2179EA68206803F019
:107470009FFC21792A69206800E018E003F0BDFC38
:1074800021796A69206803F0A6FC206900902179BF
:1074900043463A46206802F04BFF21793246206885
:1074A00003F0BCFB2179206803F0B7F806E04FF049
:1074B000020900BF002084F82C0000BF484645E7C1
:1074C00010B50446002011F663FF204611F67CFE3D
:1074D00010BD000010B50446034811F659FF2046C0
:1074E00011F6C6FE10BD0000EC6200207047704728
:1074F00070B504460D462A462146002012F6CEF805
:1075000008B9012070BD0020FCE7000000B101B9FE
:107510007047044A92680260024AD2680A6000BF5B
:10752000F6E70000680D002010B512F67BF908B1EF
:10753000012010BD0020FCE710B512F67FF908B954
:10754000012010BD0020FCE770B504460D4616462C
:1075500032462946204612F655FA08B9304670BD23
:107560000020FCE710B50446204612F64DFB10BD86
:107570002DE9F047C0B08046894614462246494668
:10758000404612F6C7FB8246BAF1000F34D10025FF
:107590002646B4F5807F02D94FF4807000E0204683
:1075A000074600BF08EB05003A46694612F62AFA7C
:1075B0008246BAF1000F1BD109EB05003A46694635
:1075C000FAF7B2FFA0B9F61B1EB9204640B0BDE8DD
:1075D000F0873D44B6F5807F02D94FF4807000E01B
:1075E00030460746A54202D2E819A04201D901E07F
:1075F00000E0D7E700BF00BF0020E7E72DE9F0413A
:1076000004460D46002700260CB9BDE8F081294646
:10761000204603F03DFD01222946204603F03CFDB3
:1076200000BF656200BF2946204603F02DFC022200
:107630002946204603F0CEFD224628460023DFF8E7
:107640001CC1624502D14FF0100C01E04FF0000C5C
:1076500000FA0CF090FAA0FCBCFA8CF1DFF800C143
:1076600062450ED1DFF8FCC0DCF800C02CEA000C4B
:1076700003FA01F84CEA080CDFF8E880C8F800C00B
:1076800011E0DFF8E0C0ACF1200CDCF800C02CEA1F
:10769000000C03FA01F84CEA080CDFF8C880A8F1E6
:1076A0002008C8F800C000BF01222946204603F088
:1076B00015FE224628460021284B9A4201D110236C
:1076C00000E000239840264B9A4212D1254B1B1F05
:1076D0001B688343012901D1844601E04FF0000C6F
:1076E00043EA0C03DFF87CC0ACF1040CCCF80030AA
:1076F00011E01C4B243B1B688343012901D18446C4
:1077000001E04FF0000C43EA0C03DFF858C0ACF185
:10771000240CCCF8003000BF2E461AE096FAA6F0F2
:10772000B0FA80F1012000FA01F7701E06400E4801
:10773000844209D1012F01D0022F05D10022394600
:10774000204603F01DFD04E008223946204603F0E0
:1077500017FD002EE2D100BF57E7000000100140E6
:107760000020014030EE0040000001402DE9FE43C2
:1077700080460F463846FEF7E9FD85B20024DFF863
:1077800034900D4E59F8340040450ED105EB0410ED
:1077900085B28DF80040019706EBC5004068029065
:1077A00056F835200AB168469047641C032CE9DB83
:1077B000BDE8FE83C81521002C6E002070B504467C
:1077C0004FF6FF70A16B01400D463DB129462046A2
:1077D00003F05AFB29462046FFF7C8FF70BD30B5BD
:1077E00089B005460C4605B10CB909B030BD20681A
:1077F0000190207900F003000290A0680390E068F7
:1078000004902069059060690690A06907906068FF
:107810000009089001A9284603F038FB00BFE4E7FF
:1078200070B5044600250CB9012070BD00BF94F866
:107830003C00012801D10220F7E7012084F83C0038
:1078400000BF94F83D0000F00200002840D02068FE
:1078500003F090FFE0B1606B90F82D00012803D099
:10786000606BFEF785FF0546A06B90F82D000128A0
:1078700003D0A06BFEF77CFF05461DB1206C40F0E5
:1078800004002064206803F041FE206803F058FEE5
:107890002068C06B40F033002168C863104920683D
:1078A000884205D12068C06820F001002168C860C6
:1078B000206803F068FE206803F06FFE206803F084
:1078C0005DFE206803F064FE0121204601F07FFF89
:1078D00000BF002084F83C0000BF2846A5E7000058
:1078E00000F2004038B50446202000900CB9012079
:1078F00038BD00BF94F83C00012801D10220F7E711
:10790000012084F83C0000BF94F83D00002868D0B6
:10791000206803F09FFD204600F0E2F9344920681A
:1079200088420AD100BF01203249086000BF00BF71
:107930003049D431086000BF0FE02F4920688842E9
:107940000BD100BF01202B49091D086000BF00BFFB
:107950002849D831086000BF00BF00BF00BFEFF367
:10796000108005460120FBF789F900BF2348006815
:107970002349084023490840884205D100BF01201F
:107980002149086000BF00BF00BF1C4808300068E4
:107990001E4908401E490840884206D100BF012008
:1079A00019498039086000BF00BF2846FBF766F917
:1079B00000BF002020640021204601F008FF0121C3
:1079C000204601F0F1FF6946204601F0D7FB01286F
:1079D00003D19DF8000000F011FC0121204601F0C8
:1079E0008FFE00BF002084F83C0000BF00BF7FE78F
:1079F00000F20040CCD51D4200F00040ACEE00404B
:107A0000CFC37F7ACF035E70A8D41D420FFF7F00E3
:107A10000F3F7C001CB50446204601F0C7FB002246
:107A20008DF80020216C0191064951F8203083F82F
:107A3000722051F820000168002901D0684688476B
:107A40001CBD0000485D0020014691F83D007047D4
:107A500070B588B00446002501262020009014B996
:107A6000012008B070BD46492068884200D100BF9F
:107A700094F83D0080BB002084F83C0000BF4149E1
:107A8000086000BF00BF3F498039086000BF3C4923
:107A9000206888420AD100BF00203B49086000BF2F
:107AA00000BF3949D431086000BF0FE03749206872
:107AB00088420BD100BF00203349091D086000BF78
:107AC00000BF3149D831086000BF00BF204600F038
:107AD00008F941F2883060640221204601F077FE07
