:020000040020DA
:1020000000000420592120009929200001401000DF
:10201000FF212000FB212000C52A20000000000035
:10202000000000000000000000000000154010004B
:10203000FD212000000000009B292000D129200064
:1020400000F002F800F077F80AA090E8000C824453
:102050008344AAF10107DA4501D100F06CF8AFF230
:10206000090EBAE80F0013F0010F18BFFB1A43F076
:1020700001031847F8D1000038D200000A444FF09D
:10208000000C10F8013B13F0070408BF10F8014BD7
:102090001D1108BF10F8015B641E05D010F8016B1C
:1020A000641E01F8016BF9D113F0080F1EBF10F880
:1020B000014BAD1C0C1B09D16D1E58BF01F801CBA3
:1020C000FAD505E014F8016B01F8016B6D1EF9D526
:1020D0009142D6D370470000103A24BF78C878C127
:1020E000FAD8520724BF30C830C144BF04680C601E
:1020F000704700000023002400250026103A28BF66
:1021000078C1FBD8520728BF30C148BF0B60704769
:10211000642900F0BF80782900F02381732900F042
:102120008883002070471FB50CF066FD00F0E6FACA
:102130001FBD10B510BDDFF810D0FFF7F4FF07F09A
:10214000EBFB00F091FB00000000042003B4FFF75C
:10215000F0FF03BC01F021F8014880470148004727
:10216000752A2000719B20000FB4044910B503AA02
:10217000029800F063FB10BC5DF814FB545900207A
:102180000FB41CB5084B06AA7B446946009005981D
:1021900000F025FB04460020694600F033FB204692
:1021A0001CBC5DF814FB00007906000070B5044605
:1021B00085690068C10601D5302600E02026C007E9
:1021C00007D070BDD4E9012130469047206A401CF9
:1021D00020626D1EF6D570BD70B504468569007825
:1021E000C00707D170BDD4E9012120209047206AA3
:1021F000401C20626D1EF6D570BDFEE7FEE7FEE7CF
:1022000058585247010000002556000000202000C9
:10221000002020007EEE9247010100000000000037
:1022200000000000000000000000000000000000AE
:10223000000000000000000000000000000000009E
:1022400070B50C460546012A05D02878800600D5D1
:10225000EA69002302E0012305E05B1C934202D2FD
:10226000E05C0028F9D1A869E618C01AA861286ABC
:10227000184428622846FFF799FF04E0D5E90121B8
:1022800014F8010B9047B442F8D32846FFF7A4FF97
:1022900070BD00002DE9F041064600241068752944
:1022A000314616A510D0AFF30080002802DA404274
:1022B00013A507E031688A0701D512A502E0490796
:1022C00004D511A5012401E0AFF3008000210A220A
:1022D00006F1240709E0B0FBF2FCB0FBF2F302FBCD
:1022E0001C00303078541846491C0028F3D123468E
:1022F0002A463046BDE8F04100F012BA0000000066
:102300002D0000002B00000020000000F0B40D465E
:102310000188090502D5214C7C4402E01F4C7C4415
:102320000E34002100F1240608E002F00F07120924
:10233000E75D42EA03721B097754491C52EA03071E
:10234000F3D102780023120704D5702D06D009B10D
:10235000022311342246F0BC00F0E2B9012310340C
:10236000F8E770B504460D4621461068AFF30080CB
:10237000024629462046BDE870400023C6E7D21D2C
:1023800022F00703D3E90023C0E70368126843F093
:10239000200303600823C3610023B7E774CB000068
:1023A0002DE9F05F894604464FF0000ADFF874B16A
:1023B000FB44C0F820A02046E1688847002874D07C
:1023C000252806D0D4E901219047206A401C2062CC
:1023D000F1E700265F462046E16888472028054649
:1023E00007DB312D05D2781910F8200C08B106430F
:1023F000F1E7B00701D526F00406C4F81CA00027B9
:10240000C4F818A02A2D09D0284600F0B9FE38B328
:1024100004EB8708303DC8F8185019E059F8041B40
:10242000204604EB87029161E1688847012F054649
:1024300018D1E069002820DA26F020061DE0D8F83F
:10244000180000EB800005EB40003038C8F8180099
:102450002046E1688847054600F092FE0028EED14C
:10246000012F0AD02E2D08D12046E16888477F1C15
:102470000546022F46F02006C4DBA069002803DAD7
:10248000404246F00106A061F00701D026F0100698
:102490006C2D0BD0682D09D04C2D39D06A2D35D03C
:1024A000742D35D07A2D33D016E038E0E1682F4610
:1024B00020468847B842054609D16C2F26D04FF4F4
:1024C0008060E168064320468847054604E06C2F9B
:1024D0001AD04FF4807006430DB3A5F141001928BE
:1024E00002D8203546F400664A4629462046266032
:1024F0004E46FFF70DFE80B101280BD0F61D26F0E9
:10250000070000F1080956E74020E4E78020D8E7FB
:102510000020D6E706F104094DE7284652E7206A75
:10252000BDE8F09F04CB000040EA010310B59B0713
:102530000FD1042A0DD310C808C9121F9C42F8D02D
:1025400020BA19BA884201D9012010BD4FF0FF30DE
:1025500010BD1AB1D30703D0521C07E0002010BDF4
:1025600010F8013B11F8014B1B1B07D110F8013B80
:1025700011F8014B1B1B01D1921EF1D1184610BD61
:1025800010B5431C02E010F8011B71B18107FAD1AC
:102590004FF0013202C88C1A8C4314EAC211F9D0F0
:1025A000C01A0A0603D0C01E10BDC01A10BD0A040E
:1025B00001D0801E10BD0902FCD0401E10BD032AB0
:1025C00040F2308010F0030C00F0158011F8013B50
:1025D000BCF1020F624498BF11F801CB00F8013B37
:1025E00038BF11F8013BA2F1040298BF00F801CBFB
:1025F00038BF00F8013B11F0030300F02580083AD2
:10260000C0F0088051F8043B083A51F804CBA0E828
:102610000810F5E7121D5CBF51F8043B40F8043B7D
:10262000AFF30080D20724BF11F8013B11F801CBB2
:1026300048BF11F8012B24BF00F8013B00F801CB83
:1026400048BF00F8012B704710B5203AC0F00B804E
:10265000B1E81850203AA0E81850B1E81850A0E8A6
:102660001850BFF4F5AF5FEA027C24BFB1E8185000
:10267000A0E8185044BF18C918C0BDE810405FEA70
:10268000827C24BF51F8043B40F8043B08BF7047EC
:10269000D20728BF31F8023B48BF11F8012B28BFF1
:1026A00020F8023B48BF00F8012B70474FF00002B2
:1026B00000B5134694469646203922BFA0E80C5038
:1026C000A0E80C50B1F12001BFF4F7AF090728BF13
:1026D000A0E80C5048BF0CC05DF804EB890028BF8F
:1026E00040F8042B08BF704748BF20F8022B11F0B8
:1026F000804F18BF00F8012B7047000070B5064CE2
:102700007C44064D7D4403E0206820448047241D1E
:10271000AC42F9D170BD0000A8CB0000A8CB0000EE
:102720002DE9F0470D4699469246044600F12408EB
:102730000168880604D5E06921F01001216000E0FD
:102740000120A84201DD471B00E00027A1697A199A
:1027500002EB0900081AA0612078C00602D42046C6
:10276000FFF724FD002608E0D4E901211AF806004D
:102770009047206A401C761C20624E45F4DB20788E
:10278000C0060AD52046FFF711FD06E0D4E9012175
:1027900030209047206A401C2062381EA7F10107B4
:1027A000F4DC07E0D4E9012118F805009047206A1D
:1027B000401C2062281EA5F10105F3DC2046FFF72E
:1027C0000BFD2078000602D50220BDE8F08701202D
:1027D000FBE7000001694A1C02610878704700B5F8
:1027E0008FB0CDE901310021059105497944CDE94A
:1027F000031011466846FFF7D3FD0FB000BD00007F
:10280000E5FFFFFF0A6802F8010B0A60704710B588
:10281000436913B1AFF3008001E0FFF711FD012020
:1028200010BD127800F124010A7000224A700122C2
:10283000EDE711684FF0FF32E9E70000074B70B594
:102840000D467B44FFF7CBFF0446284600F008F80E
:1028500010B14FF0FF3070BD204670BD7B310000DD
:10286000007B00F08000704710B50446AFF3008095
:102870002046BDE81040FFF769BC10B502F0A2F891
:1028800010BD00001CB5032400BF274800680121CB
:1028900021EA900078B900BF23480C30006800F0AE
:1028A000010040B100BF20488C38006800F00700EC
:1028B0002040A04200D01CBD0020009000F090FB02
:1028C00000901A480068401C1849086064200AF605
:1028D00073FD01A800F07EF8022000F083F832209A
:1028E0000AF66AFD00BF1248006840F00200104975
:1028F000086000BF0F4948890AF65EFD00BF0C481A
:10290000006820F002000A49086000BF0949888970
:102910000AF652FD9DF8040000F064F8009800F0FB
:1029200036FC00BFC7E70000D4A400408C5B002049
:1029300004A900404E5A002010B50A4C2068002817
:1029400004D0017E11B1001D04F031F96068002847
:1029500007D0017E002904D0BDE81040001D04F01E
:1029600026B910BD485900200748006800F0100043
:1029700008B10648704706480068C0F302400549A0
:1029800051F82000F6E7000084E30040006CDC0210
:1029900000A00040D4ED2000FEE7FEE702F769B892
:1029A000052800DB70470949096801F4E021B1EB13
:1029B000004F08D0054A126822F4E02141EA0042A3
:1029C000024B1A6000BF00BFECE7000000A000400F
:1029D000FEE700000249096801F007010170704735
:1029E00000A0004010B500220021072800DB10BD28
:1029F000144B1B6803F0070383421BD0114B1B6869
:102A000023F0070242F003030E4C23602346DB68E9
:102A100023F0070141F00103E36000BF00BF00BFE6
:102A200000BF42EA0003074C2360074B53F82030F5
:102A30000B43E360054B53F82030054C236000BF87
:102A4000D5E7000000A00040B8ED20009CED20007C
:102A50005C5200200448006800F00700034951F868
:102A6000200003490860704700A000409CED200052
:102A70005C5200200248016841F470010160704717
:102A800088ED00E002480068001D04F023BF00004C
:102A90003065002002484068001D04F01BBF0000A4
:102AA0003065002002488068001D04F013BF00005C
:102AB000306500200248C068001D04F00BBF000014
:102AC00030650020FEE7002809DB00F01F0201212D
:102AD00091404009800000F1E020C0F8801270476A
:102AE000002807DB00F01F0201219140024A430940
:102AF00042F823107047000080E200E0002807DB66
:102B000000F01F0201219140024A430942F82310BC
:102B10007047000080E200E000280DDB00BF00BF2E
:102B200000F01F02012191404209920002F1E022CF
:102B3000C2F8001100BF00BF704700280DDB00BFC6
:102B400000BF00F01F02012191404209920002F1F2
:102B5000E022C2F8001100BF00BF7047002804DB6C
:102B600000F1E02090F80004704700F00F0000F141
:102B7000E02090F8140D704702480068C0F302206E
:102B8000704700000CED00E0002807DB00F01F029A
:102B900001219140024A430942F823107047000086
:102BA00000E200E0EFF310807047EFF31080704711
:102BB000EFF310807047000010B52DED020B2DEDE6
:102BC000088B84B09DED0C0B51EC100B0BF04EFEFE
:102BD00041EC180B9DED0C0B53EC182B51EC100B2A
:102BE0000BF0AAFE41EC190B0D989FED290B10F08C
:102BF000004F53EC102B51EC190B9FED21AB9FEDC7
:102C000022BB0ED00BF0C2FC0ED953EC1B2B51ECA7
:102C1000190B0BF0F5FD1CD214E000BF41EC180BB2
:102C200017E00BF0B3FC06D253EC1A2B51EC180B47
:102C30000BF082FEF2E753EC1B2B51EC190B0BF05F
:102C4000DFFD06D853EC1A2B51EC180B0BF0C4F92E
:102C5000E4E78DED028B9DED0C0B18EE901A10EE53
:102C6000900A8DED000B61F31E0003909DED020BA9
:102C700004B0BDEC088B02B010BD000000000000E5
:102C8000000000000000F03F000000000000E03FF6
:102C9000000000000000E0BFC1B281F3118870475E
:102CA00080F31088704780F31088704780F3108895
:102CB000704780F3108870472DE9F74F044690461F
:102CC00000BF4FEA5806019D4FF0000B744875494C
:102CD00008603F207449496860F30501724A5160F9
:102CE00000BF00BF1046406820F4803011464860A5
:102CF00000BF00BF6B48006820F4700040EA045039
:102D00006849086000BF00BF0846006820F47020D2
:102D100040EA0440086000BF0D2C07D100BF084600
:102D2000006840F40040086000BF00BF0E2C08D1CE
:102D300000BF5C48006840F480405A49086000BF0A
:102D400000BF4FF400505749096821F40051014376
:102D5000544A116000BF00201146096821F06051FB
:102D60000143116000BF04201146096821F00F01E2
:102D70000143116000BF002000F006F9012801D0D6
:102D8000BDE8FE8F00BF4748006840F080404549DD
:102D9000086000BF4FF0000A0DE000BF42488068A5
:102DA00040F480304049886000BF0AF1010082464B
:102DB000401C00B903E005F065FA0028EDD100BF22
:102DC000072000F0E1F8012800D0D9E754E04FF0E7
:102DD000000B2CE0BBF57A7F24D900BF3148006896
:102DE00020F080402F49086000BF00BF08460068FF
:102DF00040F00040086000BF00BF0846006820F0B7
:102E00000040086000BF002000F0BEF8012800D09C
:102E1000B6E726480068401C2449086005200AF6E9
:102E2000CBFA4EE701200AF6C7FA0BF1010B05F0C9
:102E300029FA0128CED100BF1B48806800F07F002E
:102E40008146B14501D9304600E0484681464FF001
:102E5000000A0DE000BF1448076800BF25F8027B98
:102E60004FF6FF7000EA174025F8020B0AF1010A3D
:102E7000CA45EFD3A6EB0906002EA8D15EB908F02B
:102E8000010040B100BF05F0FDF90128FBD100BFF2
:102E9000054800682880002000F076F800BF6FE742
:102EA0000A07080700A8004000E00040985B0020E7
:102EB00010B5044600BF00201A49086000BF00BFDB
:102EC00018498039086000BF00BF1748406A174999
:102ED00008600846007800F0010020B1084600882C
:102EE00000F4807098B906E00CB9002010BD641E93
:102EF00001200AF661FA00BF0B48806940F2011117
:102F0000884201D1012000E000200028ECD00848D0
:102F100000680849086004484068074908600120C3
:102F2000E4E7000094D41D4200E00040F45B002080
:102F300000A80040EC5B0020F05B00200D4800681A
:102F40000D4948600D4800680D4908600D4800783B
:102F500000F0010020B10B48008800F4807040B9F7
:102F600000BF0548006A20F001000349086200BF65
:102F700000BF7047F05B002000E00040EC5B0020E9
:102F800000A80040F45B002070B5044605F072F91B
:102F9000A04201D1012070BD00BF1048C06820F0E0
:102FA000070020430D49C86000BF002508E005F078
:102FB00061F9A04200D107E001200AF6FDF96D1C7D
:102FC0004FF6FF708542F2D300BF4FF6FF70854287
:102FD00001D10020DFE70120DDE7000000E0004034
:102FE00010B500BFEFF3108004460120FFF75BFE31
:102FF000204610BD70B52DED108B8AB005460C46ED
:103000009FED510B8DED080B20216846FFF74EFB1D
:103010009FED4D0BB0EE408AF0EE608A10226946BB
:103020002846FFF749FE00260FE006F108013DF8AB
:1030300011000BF051FA41EC190B53EC182B0AF06C
:10304000CBFF41EC180B701CC6B2082EEDDB9FEDD8
:10305000400B53EC102B51EC180B0BF071F841ECBA
:10306000180B0D2D41D1E08A0BF036FA41EC1B0B09
:103070009FED390B53EC102B0BF062F841EC190B60
:1030800060880BF029FA41EC1F0B9FED350B53ECD8
:10309000102B0BF0B7FA41EC1E0B9FED330B53ECEA
:1030A000102B0BF0AFFA41EC1C0BA08A0BF014FABA
:1030B00041EC1E0B53EC182B0BF032FC41EC1D0BBA
:1030C00053EC1C2B0BF03CF841EC1B0B9FED280B39
:1030D00053EC102B0BF034F841EC1A0B53EC192B7A
:1030E0000AF07AFFCDE9080127E00E2D25D160888E
:1030F0000BF0F2F941EC1C0B9FED190B53EC102B6C
:103100000BF080FA41EC1A0B20880BF0E5F941EC4A
:103110001C0B53EC182B0BF003FC41EC1B0B53EC7A
:103120001A2B0BF00DF841EC190B9FED130B53EC20
:10313000102B0BF067FACDE908019DED080B0AB0E2
:10314000BDEC108B70BD000000000000000000000E
:103150000000000000002040000000000000594076
:10316000000000000000F0BF000000000000004070
:1031700079E9263108AC5CBFB76DDBB66DDB0E407C
:1031800030380A2801D2012070470020704710B55E
:1031900004462046FFF787FD10BD704710B5044672
:1031A000204604F0AFFF10BD10B50446204607F0DE
:1031B0004BFA10BD70B504460D462946204609F06D
:1031C00061FF2946204606F085FB70BD014808F0E6
:1031D000FDBD0000585900200078012806D10448A0
:1031E00041684A1C426003A0FEF7BEBF7047000062
:1031F000705900200D0A5468697320697320256492
:1032000074682063616C6C204455414C2054494DD6
:103210004552302E0D0A00000078012808D10548DB
:103220000121017081684A1C826003A0FEF79CBFE7
:1032300070470000705900200D0A202054686973FF
:1032400020697320256474682063616C6C20445588
:10325000414C2054494D4552312E0D0A00000000CA
:1032600038B500230093002200680C4CA04204D023
:103270000A4C2034A04200D10122012901D10120B1
:103280000090074850F82200017E01B900930168C0
:10329000002901D06846884738BD00000020004062
:1032A0004859002070B5002804D00478022C03D3BC
:1032B000E82070BDE52070BDC268CAB31E4D00F1A4
:1032C000100245F82420116055F82410D0E901239C
:1032D000C068C1E902230861184855F8241050F865
:1032E0002400486055F82400001D03F0ABFB0028C3
:1032F000E1D155F82400001D03F0C0FB0028DAD10D
:103300000E4806220221083007F032FA55F8241040
:10331000012008760A490A2008F0D8FC074D2D1F25
:10332000285716F64DFF285716F668FF002070BD87
:10333000FFE7E420FBE700004859002064EC200090
:103340003929200010B5022801D3E82010BD084A11
:1033500052F8200040B1027E32B139B1001D03F0B5
:1033600053FC0028F2D110BDE92010BDE42010BDAF
:103370004859002010B50246022901D3E82010BDAB
:10338000074850F8210040B1017E31B1001D111DE8
:1033900003F051FC0028F2D110BDE92010BD00005F
:1033A0004859002010B5022801D3E82010BD074974
:1033B00051F8200038B1017E29B1001D03F0A0FBB7
:1033C0000028F3D110BDE92010BD000048590020AD
:1033D00010B5022801D3E82010BD074951F820009C
:1033E00038B1017E29B1001D03F0B5FB0028F3D1EF
:1033F00010BDE92010BD0000485900202DE9F04122
:10340000014600291BD000240F4E0E4A357814E0E7
:1034100002EB04100F780378BB420CD14B68406874
:10342000034208D0707808B900F020FB2046BDE8C0
:10343000F04100F04FBA641CE4B2AC42E8D3BDE8FE
:10344000F0810000BC660020645900207CB5054670
:103450000E46002D01D0002418E0E5207CBD05EBD0
:10346000041041680091017A8DF80410417A8DF8BA
:10347000051008218DF80610C268007800236946FF
:1034800000F038F80028E9D1641CE4B2B442E6D375
:1034900000207CBD10B502460846052A25D2DFE88B
:1034A00002F0030303111900114951F832200104FD
:1034B000090C05D022B10146104603F099FC10E03A
:1034C000E42010BD10F0FF0F02D002F083FC08E0F2
:1034D000E42010BD10F0FF0F05D00146002003F0DE
:1034E00099FD002010BDE42010BDE62010BD0000B5
:1034F00088EC20002DE9F05F05460C469046994681
:1035000026680027042D11D031462846FFF7C2FF58
:103510002146284600F05EF8002808D1032D08D087
:103520004FF0100A2807070E002448E0E620BDE807
:10353000F09F4FF0080AF7E7F0073DD03DB1012DAD
:1035400005D0022D03D0032D21D0E620EFE71E4841
:1035500000EBC50090F904B0BBF1000F15D0EFF3FC
:103560001081012080F31088184AE01942F8308059
:1035700002EBC000C0F8049081F31088584616F69C
:103580001FFE584616F63AFE16E0E420CFE7EFF3AA
:103590001081012080F310880D4AE01942F8308034
:1035A00002EBC000C0F8049081F310881B2016F6CF
:1035B00007FE1B2016F622FE7608641CE4B2544572
:1035C000BAD30020B3E7000088EC2000F0630020AD
:1035D000F064002030B597B005460C461C224549E2
:1035E00010A8FFF731F81C2242491C3109A8FFF747
:1035F0002BF820223F49383101A8FFF725F8D4B134
:103600003D49062008F062FB3C49072008F05EFBBC
:103610003B491B2008F05AFB3A49122008F056FBA0
:1036200034496C39A1F12C02052D61D2DFE805F097
:10363000060606213900E52017B030BD207931F8A3
:1036400010001190607932F810001290A079139058
:10365000206810902748843850F8350021880904E4
:10366000090C04D018B110A903F0B3FC39E0E42030
:10367000E2E7207901EB4000808A0A90607902EB52
:103680004000C0880B90A0790C90206809902078A9
:1036900010F0FF0F03D009A802F080FC21E0E42025
:1036A000CAE72079031F042B01D8E720C4E70228CA
:1036B00019D001200290207901EB4000008D039089
:1036C000607902EB400080890490A0790590206821
:1036D0000190207810F0FF0F08D001A9002003F01E
:1036E0004DFD0020A8E702200290E4E7E420A3E7D4
:1036F000E620A1E70CED2000E9401000E3401000B7
:10370000DF401000D940100002460020052A11D2E7
:10371000DFE802F0030303090C00074850F8320009
:1037200089B216F6ACBC88B202F0A6BC89B2002001
:1037300003F02CBD7047000088EC2000002803D067
:103740000249086001207047002070476C59002032
:1037500070B505460024091F062917D2DFE801F0DD
:1037600003070C111315284600F0A4F80EE00124FD
:10377000284600F09FF809E00224284600F09AF855
:1037800004E0032402E0042400E00524034A214667
:1037900028461268BDE87040104700006C590020B0
:1037A0002DE9F0410446204600F0AEF801462E48CF
:1037B00000230826025D00F10A0700F11405AAB1F2
:1037C000052A33D0082A2AD1092945D0082926D12B
:1037D000295D491CC9B22955142920D32B550655FA
:1037E0002046BDE8F0410821FFF7B2BF052913D0FC
:1037F000042916D0072914D0082910D1295D491CA5
:10380000C9B2295514290AD32B5506552046BDE8BF
:10381000F0410821FFF79CBF3B5505210155BDE84C
:10382000F0812046BDE8F041FFF792BF05290CD09A
:10383000395D491CC9B239553229F0D303552046A8
:10384000BDE8F0410521FFF783BF03552046BDE8E1
:10385000F0410621FFF77CBF03552046BDE8F0414B
:103860000921FFF775BF00009C67002070B5044672
:103870000D4600F00FF808B100F00EF90348044AB5
:103880002946005D5268BDE870401047B0660020D0
:10389000645900200020064911F810200AB10020C8
:1038A0007047401CC0B20A28F6D3012070470000C0
:1038B000BA6700200349002201F8102001EB400004
:1038C00042707047BA670020014A02F81010704732
:1038D000BA670020024A012102EB400041707047A4
:1038E000BA67002070B50024064D05EB440040780F
:1038F00010B12046FFF754FF641CE4B20A2CF4D345
:1039000070BD0000BA67002070B500211D4B03F1A7
:1039100032051A5C002A09D0002403F10A06012AA4
:103920000AD0022A12D0032A24D11FE015F8102051
:1039300002B301221A541DE015F810201AB13454B4
:1039400002221A5416E01C54042113E015F810202A
:103950004AB1325C521CD2B23254642A0AD30721D3
:1039600003221A5406E005211C5403E015F8101038
:1039700011B10821084670BD1C54FFF79BFF0921B7
:10398000F8E7000088670020704700002DE9F0414B
:103990000E4617460A2E02D80FB100231AE0002067
:1039A000BDE8F08103EB430400EB8405114AA97ADA
:1039B000D154104910F824200C3101EB031422706B
:1039C00069686160297A2172697A61720A49E160E5
:1039D0005B1CDBB2B342E5D3064831460C30FFF73F
:1039E00035FD0648067047600548FFF7A7FE012031
:1039F000D6E70000B0660020FD33200064590020A7
:103A00006D3820002DE9F0410024124FDFF8488086
:103A100019E0002607EB041528786968FFF774FEA3
:103A200010B9697A012902D0012802D005E00126E7
:103A300003E0687A022800D1012631462046FFF7CC
:103A400043FF641CE4B298F800008442E1D3BDE86F
:103A5000F0810000BC6600206459002010B5FFF71B
:103A6000D1FFBDE81040FFF73DBF000010B5074A89
:103A70000121074800F060F800220A21044800F004
:103A8000B1F904490120487010BD00005D3A2000E2
:103A9000606700206459002010B5034800F07AF8F0
:103AA00002490020487010BD606700206459002062
:103AB000002806D0002904D0024AD269002A00D08A
:103AC000104770478866002070B50D4616460D4CAD
:103AD00000280AD00178032911D80121A1760146D6
:103AE0001A222046FEF76BFD05E00020A0761A2181
:103AF0000448FEF7DBFDE5612662002070BD012071
:103B000070BD00008866002010B5084801780029C3
:103B10000AD10121017006483FF676FFBDE810404A
:103B20000021044840F606B910BD0000505900209D
:103B30006140100095A620002DE9F04104460D4695
:103B40001746002D04D0012D02D00120BDE8F081E0
:103B5000E4B1DFB1607801281AD0EFF311860220BA
:103B6000FEF7FCFF8046FFF707F8401C012181406B
:103B700008EB0100C0B280F3118800206070A570CE
:103B8000E761F0B280F311880020DFE70120DDE774
:103B90000620DBE710B50446002C0CD0204600F0D0
:103BA000B3F9FF2060700021A160E16021616161D3
:103BB0000020E06110BD012010BDF0B5DDE9074532
:103BC000059981614FF47A76A2FB061C03FB06C3BC
:103BD000002702FB0732C0E9021209196A41C0E955
:103BE000041200210162F0BD2DE9F0410446002CD1
:103BF00013D0EFF311850220FEF7B0FF0746FEF762
:103C0000BBFF401C012606FA00F03844C0B280F326
:103C100011881248002121620EE00020BDE8F081E9
:103C2000D4E90432D1E9047CDB1B72EB0C0202D232
:103C3000016A216203E00846016A0029F0D10462AA
:103C40006670064810380168491C0160016B4160CC
:103C5000E8B280F311880120E0E700005065002001
:103C60002DE9F04105460024EFF311860220FEF70E
:103C700075FF0746FEF780FF401C01218140781840
:103C8000C0B280F31188134A106BE8B115B102F18C
:103C9000100010E00446206A10631068401E106097
:103CA0000CE0A94206D11168491E1160296A01621F
:103CB0002C4603E00846016A0029F2D124B1002015
:103CC00020626070106B5060F0B280F31188204663
:103CD000BDE8F081406500202DE9F041EFF3118748
:103CE0000220FEF73BFF0446FEF746FF401C012181
:103CF00081406018C0B280F31188114D002608E0A1
:103D00002078012804D1E16909B1A06988472670AB
:103D10002D6A2C6A002CF3D1094D103D07E0E169B2
:103D200009B1A06988472670206AA8632662AC6B37
:103D3000002CF4D1F8B280F311880120BDE8F081A5
:103D4000506500202DE9F041EFF311870220FEF7C6
:103D500005FF0446FEF710FF401C012606FA00F09E
:103D60002044C0B280F311881D4DA5F110082DE04C
:103D7000D4E90430D8E902125B1A60EB0200D8E9FA
:103D80001021D21A814124D326702046FFF768FF04
:103D9000A078012806D0124828300021216201684D
:103DA00061B10FE0D8E90220D4E90213511858415B
:103DB000C4E904102046FFF717FF07E0046005E0A0
:103DC00001F1200001680029FAD104602C6A002C5E
:103DD000CED1F8B280F311880120BDE8F081000057
:103DE000506500202DE9FF5F82460E4693464FF056
:103DF0000008BAF1000F20D0414886421DD8E6B134
:103E0000EFF311870220FEF7A9FE0446FEF7B4FE89
:103E1000401C012181406018C0B280F311885046D7
:103E200004F00EFA10B19AF8010040B1F8B280F334
:103E300011880F2004B0BDE8F09F0120FAE705F0DB
:103E400057FC04460D464FF47A7106FB01F02246FA
:103E50002B46002104F0C4F9DFF8A890B0B1D9F8DE
:103E6000040048B1D0E90410091B60EB0500C9E962
:103E7000021005F0B7FC04E00021C9F80810C9F8E9
:103E80000C104FF00108D9E9020106E0D9F804004E
:103E9000D0E90421101B61EB0501CDE90201324696
:103EA0000023CDF800B05046FFF787FE5046FFF7DD
:103EB0009BFE07F027FE4FF0E024D4F800014FF0FE
:103EC000806510F0806F01D0012000E0002020B953
:103ED0001A20FEF7F8FDC4F80051B8F1000F0AD01F
:103EE000D9F80400D0E90431D9E90202181A61EBCB
:103EF000020105F033FCF8B280F31188002099E745
:103F0000008AB907406500202DE9F04104460025EC
:103F1000002C39D0EFF311870220FEF71FFE064672
:103F2000FEF72AFE401C012181407018C0B280F3C8
:103F300011886078012824D1144E7068A0420BD1FA
:103F400005F0D6FBD4E90432181A62EB0102C6E987
:103F5000020205F047FC01252046FFF781FE5DB116
:103F6000706848B1D0E90421D6E90203101A61EB68
:103F7000030105F0F3FB04E01DB9706808B905F012
:103F800031FCF8B280F31188BDE8F0814065002073
:103F900070B504461A4D55F82400703007F029FD1D
:103FA00082B21646A2B155F8240090F801110129F9
:103FB0000ED0012180F80411802A0FD355F8240077
:103FC000802200F18001703007F028FD80260CE08F
:103FD00055F82410002081F8000170BD55F8240028
:103FE00000F18001703007F019FD55F824003246C9
:103FF00000F18001001D03F03BFD0028EDD170BDF4
:1040000030650020704700002DE9F84304464D4F0D
:1040100057F82400061D042C7ED290F86C1000295D
:104020007AD0012978D190F80011012974D190F843
:104030000111002970D1012180F80111002157F8E8
:104040002400D0E903231344027D02F00102D21DB3
:104050009D184268D36FC3F38003002BFAD090F809
:104060000421A2B1384A1368491C90F83B20102A59
:1040700006D08268B3FBF2F26A43B1EBC21FF3D9F8
:1040800057F82400703007F0B4FC85B226E0B0F891
:104090002480C58C001D03F025FA57F8240041F256
:1040A000883300EB0801491B8031001D2A4603F0CC
:1040B00091FCE5E757F8240001227030694607F0CB
:1040C000ADFC57F824004068C16FC1F340010029DE
:1040D000FAD09DF8001001606D1EADB2002DE9D13F
:1040E00057F82400703007F084FC0028C8D13068ED
:1040F00041694906FCD5EFF31085012080F3108853
:1041000057F82400703007F074FC68B1EFF31081A9
:10411000012080F3108800E011E03068426842F02E
:104120008202426081F3108857F82410002081F841
:10413000000157F8241081F8010185F31088BDE8CB
:10414000F8830000306500205C5200202DE9F0412A
:1041500005460F46002D06D02AB12C78042C04D336
:10416000E820BDE8F081E520FBE7344E05F158007A
:1041700046F82400D2E900310A467030194607F0AB
:1041800023FC291D286D09F075F80028E9D156F89F
:104190002410281D486656F82400076056F82400AD
:1041A0001822083005F14001FEF74EFA244856F86F
:1041B000241000EBC4056868486056F82400001D10
:1041C00003F0F4F956F82400001D03F0DFFA1C4850
:1041D00001220321103806F0CBFA56F824100120F2
:1041E00081F86C0056F82410002081F8000156F880
:1041F000241081F8010156F8241081F8020156F8C4
:10420000241081F803010F490C2007F05FFD0E49CF
:104210000D2007F05BFD0D49342007F057FD0C49D8
:10422000352007F053FD95F9010015F6C9FF95F902
:10423000010015F6E3FF002093E700003065002041
:1042400074ED2000852A2000952A2000A52A200050
:10425000B52A20002DE9F04104461A4D55F82400F6
:10426000703007F0C6FB82B2164600277AB155F8C7
:10427000240090F80111012909D0802A0ED300F101
:1042800080017030802207F0C9FB80260BE055F8D2
:10429000240080F800710020BDE8F08100F1800169
:1042A000703007F0BBFB55F8240080F8047155F816
:1042B0002400324600F18001001D03F041FC00287B
:1042C000EAD1E9E73065002070B5042801D3E82081
:1042D00070BD0C4D55F820407CB194F86C6066B10F
:1042E00069B162B1002684F8026155F82000001D12
:1042F00003F070FB0028EBD170BDE52070BDE42019
:1043000070BD0000306500202DE9F74F84B00546F0
:104310000C46022604F10809204601F0ADFC0746D0
:104320003E48D0F804A000200390B5F5804F0ADB8A
:10433000B5F5004F07DA3948406839490968A0EBFC
:10434000010A01200390E019504501DD052662E0D5
:104350003248006800F6FF7030490988491EC1F3F1
:104360000B01401AC0F3073B039810B12C480068BA
:1043700000E0002002902B4800682B490968401A91
:10438000001F2649497AA1EB0B01A0EBC10023498C
:104390000968411A0298A1EB000809EB07004045A3
:1043A00032DD002011231E224FF400410090012035
:1043B00043F624FA0021084601F00AFBC8B9174960
:1043C000487A03F0CDFD06461EB1304607B0BDE881
:1043D000F08F002012231E224FF400410090012094
:1043E00043F60CFA21462846069A09F033FA0646A7
:1043F00010E0002013231E224FF400410090012002
:1044000043F6FCF90F2605E021462846069A09F0F6
:1044100021FA064600BF3046D8E70000386E00207B
:10442000345A0020405A0020385A002010B56FF04E
:104430000200814908603820002807DB00F01F02D5
:10444000012191407D4A430942F8231000BF00201A
:104450007B49086000BF7A481C30006840F00200C9
:1044600077491C3108600846006840F00100086088
:104470000846006820F00200086000BF00BF7048D6
:10448000001F006840F001006D49091F08600846E0
:10449000006820F00200086000BF00BF04F08AFF3F
:1044A0000028FBD1022066493839096821F0030150
:1044B00008B9002206E0022802D140F2AA2201E057
:1044C00040F2FF3202F0030211435D4A383A1160B4
:1044D00000BF02201146096821F00C0108B9002232
:1044E00006E0022802D140F2AA2201E040F2FF32A7
:1044F00002F00C021143524A383A116000BF022008
:104500001146096821F0C00108B9002206E002281E
:1045100002D140F2AA2201E040F2FF3202F0C002D2
:104520001143474A383A116000BF032044494039DB
:10453000096821F0030108B9002206E0022802D12F
:1045400040F2AA2201E040F2FF3202F003021143DE
:104550003B4A403A116000BF03201146096821F030
:104560000C0108B9002206E0022802D140F2AA227A
:1045700001E040F2FF3202F00C021143304A403AAF
:10458000116000BF03201146096821F0C00108B97D
:10459000002206E0022802D140F2AA2201E040F205
:1045A000FF3202F0C0021143254A403A116000BFB9
:1045B00000BF012022493439086000BF00BF04F069
:1045C000F9FE0028FBD100F7B1FD00F7B6FD00BFF2
:1045D0001B481C30006840F0040019491C31086079
:1045E00000BF00BF1648001F006840F004001449D7
:1045F000091F086000BF012007F07CFC00BF1148C4
:10460000006820F040000C499839C1F8800200BFD2
:1046100000BF0846D0F8800220F01000C1F88002E8
:1046200000BF00BF0846D0F8800220F02000C1F88B
:10463000800200BF10BD000098A0004080E200E0B2
:10464000C4A4004080A2004010B500F776FD00F73A
:104650006DFD00BF1048006840F002000E49086080
:104660000846006820F00100086000BF00BF0A484B
:104670002030006840F001000749203108600846FA
:10468000006840F0020008600846006820F0010061
:10469000086000BF10BD0000C0A4004038B508F09D
:1046A00041F828B140F27E41084607F093FD04E04E
:1046B00040F27E41084607F08DFD2748007878B12A
:1046C00026480068009007F09FFD044624480088B3
:1046D000009007F099FD0546214607F0B1FF05E07F
:1046E0004FF466714FF47F7007F0AAFF1D4805F084
:1046F000D7FE08F017F810B91B48007880B91B489E
:1047000018490A6802604A684260098901811849AB
:10471000144802680A6042684A600089088119E00A
:104720001249104802680A6042684A60008908819C
:104730000F490C4802680A6042684A600089088193
:1047400040F21A400949088007F0DAFC07498880DE
:104750000120487238BD0000E85B0020E45B0020C7
:10476000E65B0020BA5B0020A65B0020C45B002053
:10477000CE5B002010B540F6C1FB10BD10B500F0B7
:1047800099F800F059F8BDE8104000F079B8000041
:1047900010B50121002002F0EFFD012014F610FCFD
:1047A00002200649087007F009FA0549322007F08F
:1047B0008DFA3220FEF7C1F910BD0000845D0020A3
:1047C0007B28200010B52DED028B00BF1748006834
:1047D000C0F30B00044600BF14480830006820F006
:1047E0007F4008EE100A601C00EE100AB8EE400A86
:1047F000DFED0F0A20EE200AB8EE481AC0EE010ADB
:10480000B6EE000A30EE800ABCEEC00A094880ED20
:10481000000A006805F01CFEF0EE408AB0EE680A5F
:1048200007F0A4FFBDEC028B10BD000004E40040C3
:104830000024F44B705D002000B587B003228DF892
:1048400004200120029005218DF80C108DF80D0038
:1048500000238DF80E308DF81020022205928DF87D
:1048600018108DF8190004208DF81A00034A02214F
:1048700001A8FFF78BF807B000BD000089392000C0
:104880007CB50825009502248DF804408DF805407C
:104890008DF8065069460420FEF79CFE0420009027
:1048A0008DF804408DF805408DF806506946FEF7F6
:1048B00091FE7CBD00B587B000F01EF803208DF896
:1048C00000001D208DF8160001208DF817008DF8CE
:1048D00018008DF81900044A04496846FFF7F4F8F7
:1048E000FEF774FC07B000BDF148200059492000D4
:1048F0000020FFF789BB00007CB5144800904FF4FE
:104900008065019500F58060002101704FF4E1326F
:104910000264032444648164C16401650123436526
:104920000174DA02426102224274037601718560E9
:104930004271017306494163816380F83C2080F82D
:104940003D406A460349FFF701FC7CBD385E00200C
:1049500000900140054020000A4601464FF47A735A
:104960000020FFF7B1BC014600200A2904DC40F614
:10497000641000EB410012E0242904DC40F66610CC
:1049800000EB41000BE0252902D140F6621006E061
:10499000262902D140F67A1001E04FF41B607047DF
:1049A00010B50021084602F0E7FC012014F600FBD8
:1049B0000348806820F480700149886010BD0000C1
:1049C00000A0004010B516480068401C144908605B
:1049D00000BF1448006800F0010040B100BF11485A
:1049E0000838006800F0010008B107F03FF900BF87
:1049F0000D48006800F0010040B100BF0A480838C7
:104A0000006800F0010008B100F03EFE07F070F809
:104A100020B103F03BF908B1FFF7C2FF10BD000061
:104A20009C5D002008E4004008E5004010B507F058
:104A300043F900F0CFFD10BD10B505F091FEBDE8C3
:104A4000104000F0E3B8000010B500BF2348006834
:104A500020F000402149086000BF214A1078214A17
:104A6000117840EA81031D4A121D126863F31F7218
:104A70001A4B1B1D1A6000BF06201946096821F455
:104A8000E07141EA80111A46116000BF00BF101F9B
:104A9000006840F00040111F086000BF00BF1248CE
:104AA000006840F001001149C1F8880200BF1049B8
:104AB000312007F00BF9312000280DDB00BF00BFCB
:104AC00000F01F02012191404209920002F1E02210
:104AD000C2F8001100BF00BF00BF10BD04A9004014
:104AE000885B0020895B002088E2004000E00040F5
:104AF000852820002DE9F04104460D461646094858
:104B0000007810B1002004F02DFD324629462046E1
:104B100004F012FD07460348007804F023FD3846F0
:104B2000BDE8F081455A00202DE9F04105460E46CA
:104B300014460948007810B1002004F013FDA2B219
:104B40003146284604F01EFD07460348007804F06D
:104B500009FD3846BDE8F081455A00202DE9F041B5
:104B600005460E4614460948007810B1002004F0AE
:104B7000F9FCA2B23146284604F065FD0746034819
:104B8000007804F0EFFC3846BDE8F081455A00207B
:104B90002DE9F04104460D4616460948007810B14B
:104BA000002004F0DFFC32462946204604F08AFD4E
:104BB00007460348007804F0D5FC3846BDE8F0818C
:104BC000455A00202DE9F04104460F4615464FF0A6
:104BD0000008206800F6FF702188491EC1F30B0110
:104BE000401A21682944884201D84FF008082A4613
:104BF00039462068FFF7B2FF86B205EB080120684E
:104C0000084420603046BDE8F081000002490148B8
:104C100008607047F55110006C03002010B5024683
:104C2000012302B109B9002010BD084C1068A04250
:104C300002D10020087007E0054C1068A04202D1A4
:104C40000120087000E000231846EDE700900140C5
:104C500000A001402DE9F84305460F4620200090B2
:104C600069462846FFF7DAFF012837D19DF8001082
:104C700088401B490968084080B35FBB00BF00BF84
:104C8000EFF310800646012080F3108800BF4FF03C
:104C9000000814492868884202D1DFF84C8007E0F8
:104CA00012492868884203D1DFF83C8008F11808CF
:104CB000002408E058F8240018B158F82400FFF642
:104CC0007DFE601CC4B2062CF4DB00BF86F31088A6
:104CD00000BF00BF9DF8000002F080FABDE8F88335
:104CE000385C0020009001403871002000A0014095
:104CF000F8B504460D4620200090002604B9F8BD02
:104D000069462046FFF78AFF012810D1012D02D005
:104D10000DB1012606E02068D0F8A00308B90026EE
:104D200000E0012631469DF8000002F005FB84F802
:104D30002D5000BFE3E738B50446202000906946B7
:104D40002046FFF76BFF012803D19DF8000002F019
:104D5000D5FA38BD70B504460E46002E43D037490B
:104D6000206888421CD12079062819DA0020217990
:104D7000334A42F82100002506E0314850F825006A
:104D800000B103E0681CC5B2062DF6DB00BF062D9E
:104D900052D1002002F086FA002002F009FA4BE01E
:104DA00028492068884247D12079062844DA002122
:104DB00022792348183040F82210002507E02048C7
:104DC000183050F8250000B103E0681CC5B2062D6C
:104DD000F5DB00BF062D2FD1012002F063FA012080
:104DE00002F0E6F928E01549206888420FD12079C1
:104DF00006280CDA2079124941F820401249002097
:104E000002F038FA0E49002002F062FA14E00D496F
:104E10002068884210D1207906280DDA21790848C7
:104E2000183040F821400849012002F023FA0449D3
:104E30001831012002F04CFA70BD000000900140D2
:104E40003871002000A00140854910000120704702
:104E50002DE9F0474FF47A7634462F4F4FF0FF3567
:104E60003968B1FBF6F000EB4002C2EBC0102B4AF0
:104E700005EBC000D060B1FBF6F000EB4001C1EBE8
:104E8000C01002F12C0805EBC000C8F80C00244942
:104E90001046FEF707FA23494046FEF703FA22A020
:104EA000FDF762F90020FEF77DFA0120FEF77AFA9D
:104EB000386840F27121B0FBF6F0484305EBC001C1
:104EC0000020FEF73FFAA8F138054FF000094FF037
:104ED000010A16E02878A0B185F80090C8F808A06B
:104EE00004F57A743868B0FBF6F06043401EC8F8E9
:104EF0000C000A4801212C30FEF73CFA0120FEF795
:104F000051FAA8680528E5D30020FEF761FABDE84C
:104F1000F0470120FEF75CBA5C5200207C5900206B
:104F2000D9312000193220000D0A4455414C20543B
:104F3000494D45523020616E64204455414C205407
:104F4000494D4552312073746172740D0A0000009E
:104F500070B506460C46154600BF6FF4004000EAE7
:104F6000C43028B140F2F3220CA111A001F698FA46
:104F700000BF00BFE80BC00328B14FF43D7207A18A
:104F80001AA001F68DFA00BF45EAC43081B2942020
:104F90007043254A1044A0F8661170BD72665F67C1
:104FA00064785F62616C626F61322E6300000000A2
:104FB00028282875696E7431365F7429727877698C
:104FC0006465203C3C203135292026207E28287528
:104FD000696E7431365F7429307830303030383053
:104FE00030302929203D3D20300000002828287538
:104FF000696E7431365F7429727877696E737A20BE
:105000003C3C2030292026207E282875696E74318A
:10501000365F74293078303030303746464629299B
:10502000203D3D203000000000800E4070B5064C51
:105030004FF4807628252A46214604483044FDF75F
:10504000BEFA00BF70BD000068EE200000800E4078
:10505000F0B504460D4616461F463B4632462946E5
:10506000204600F009F802F097FEF0BD01480078F4
:1050700070470000CC74002030B501240A4D2C701C
:105080002C466060E2602361A160084CA4688C42F9
:1050900003D2064CA4680C1B02E0044CA468641AFA
:1050A000014D6C6130BD0000CC740020A05D00207B
:1050B00010B502F049FE044618210548FDF7F6FA3E
:1050C000002003490870204600F07AF910BD000066
:1050D000CC7400202DE9F047054688461646324C30
:1050E000324887684FF0000994F800A02662656294
:1050F000BD4201D9E81B00E0781B81462B48C068FF
:10510000484507D33346424629460020FFF7A0FF13
:10511000BDE8F087A069484502D9C4F81890E66157
:10512000BAF1010F21D165616069B84203D92069E4
:10513000401CA06002E02069401EE060D4E902014A
:1051400088420BD2D4E902010844400820610120C2
:1051500020704046216900F02BF8D9E7022020702A
:105160004046A16800F024F8D2E7BAF1020F10D14E
:10517000E069B04206D13346424629460020FFF797
:1051800067FFC5E7032020704046E16900F010F892
:1051900008E0BAF1030F05D1334642462946002004
:1051A000FFF756FF00BFB3E774740020A05D002036
:1051B00070B504460D460648806A401C0449886262
:1051C000AAB2E1B2034B5868034B02F06DFD70BD0B
:1051D00074740020A05D0020D550200070B50546F5
:1051E0000F4C2C212046FDF761FA0020A06040F210
:1051F000FF10E060D4E902010844400820614FF04C
:10520000FF30A061A06A401CA06201202070238AA8
:105210009AB2E9B2034B5868034B02F045FD70BDEA
:1052200074740020A05D0020D55020002DE9F843C3
:1052300006460D469046344C94F80090B9F1010FA3
:105240000AD1E66040F2FF102061022201462846A2
:1052500000F09CF8BDE8F883B9F1020F4AD10027AD
:10526000002000906661684600F050F807461FB9BC
:105270002846FFF7B3FFEDE7012F12D10F2D07DA14
:105280000020A0600122681CA16800F07FF8E1E71F
:105290000520E06143462A463146E069FFF7D8FE23
:1052A000D8E7022F12D1002D07DD0020A060681E74
:1052B0000122002100F06AF8CCE70620E0614346B5
:1052C0002A463146E069FFF7C3FEC3E7032F08D142
:1052D0000098E06143462A463146E069FFF7B8FE90
:1052E000B8E70720E06143462A463146E069FFF708
:1052F000AFFEAFE70820E06143462A463146E06949
:10530000FFF7A6FE00BFA5E75474002070B5044661
:105310001C491D480369826800250026C868904220
:1053200004D94869904201D9022070BDC8689042F2
:1053300004D24869904201D20120F6E7C868904241
:1053400002D9C868801A01E0C868101A0546486981
:10535000904202D94869801A01E04869101A06464D
:105360009D4203D39E4201D30020DEE79D4201D23D
:105370000120DAE79E4201D20220D6E70320206016
:1053800000BFD2E754740020A05D00202DE9F04159
:1053900005460E461746074CA069401CA061656093
:1053A0002770B2B2E9B2044B5868044B02F07CFC9F
:1053B000BDE8F08154740020A05D00202D52200033
:1053C00070B50546064C20212046FDF76FF90020F8
:1053D000A06001222846A168FFF7D8FF70BD000039
:1053E000547400202DE9F84305460E4617462A4C12
:1053F0004FF00008C14600200090E069401CE061C9
:105400006660A760E0682061E56024488068A84283
:1054100003D222488068281A02E020488068401B96
:1054200080466069404502D9C4F81480A761684687
:1054300000F036F88146B9F1000F09D0B9F1010F3B
:105440000CD0B9F1020F11D0B9F1030F1AD113E04A
:105450000020A062204600F0CCF819E0012084F87A
:1054600020003046A16900F087F811E0A068411CD7
:10547000304600F081F80BE0A068411E304600F095
:105480007BF805E00098A062204600F0B2F800BF6B
:1054900000BFBDE8F8830000A0740020A05D0020DC
:1054A000F0B50346324933488268002400250026BF
:1054B000C868904202D9C868801A01E0C868101A0A
:1054C00004462C48C068A04201D30020F0BD486AC1
:1054D000012801D10020F9E791F82000012801D12D
:1054E0000020F3E74F6AC869B84209D38F6888691A
:1054F000B84201D10020E9E7012081F82000E5E76A
:10550000C869012815D90869904202D9C868904233
:1055100005D3086990420CD2C868904209D98F68B7
:105520008869B84201D10020D0E7012081F820002D
:10553000CCE7C868904201D9012500E001264DB1B1
:105540008868B0F5FF7F03D9092018600420BDE703
:105550000220BBE73EB1886818B90A201860042011
:10556000B4E70320B2E70B2018600420AEE7000088
:10557000A0740020A05D002070B504460D46AAB2BC
:10558000E1B2034B5868034B02F08EFB70BD000084
:10559000A05D0020E553200070B504460D46164678
:1055A0002C210948FDF782F80020074981F82000E6
:1055B000401E486108464462B2B2E9B2034B5868E3
:1055C000034B02F071FB70BDA0740020A05D0020B1
:1055D000E553200010B502F04BFB00B910BDFFF7FA
:1055E00045FD10B9FFF764FDF8E700F02DF800BFA6
:1055F000F4E700B50346184600F004F802F0CCFBCF
:1056000000BD000001210E4A1171816A9160C169DB
:10561000D160C16811614168516181689161094A35
:10562000C1689268914204D9064AC1689268891A91
:1056300003E004498968C268891A014AD161704748
:10564000E4740020A05D00202DE9F04102F07CFB15
:10565000064602F08BFB074609480468094845697D
:1056600020210748FDF722F8601C0549086000204A
:1056700008713A4631462846FFF78EFFBDE8F081B3
:10568000E4740020A05D002010B512480069401CA1
:105690001049086102F086FB0E49C86002F054FB15
:1056A0000C49486002F062FB0A49886000200A4900
:1056B0000860084948610846C06940B10C46248921
:1056C000A2B20C462179E068E369984701E002F054
:1056D00063FB10BD3474002000E500402DE9F0416B
:1056E00006460F461C4C4FF6FF75238C102B0AD331
:1056F000208821466084CD835B1E0B841E22891C7A
:105700002046FCF75CFF608C3246394604F00CFC06
:1057100010B10C20BDE8F081208C102804D3401C6F
:105720002084608CE08308E0618C24F81010208CC9
:10573000401C2084608C401C608400F00FF800281E
:10574000E8D0218C491E89B22184628C521E628469
:1057500024F81150DEE70000D06B002010B5054A98
:1057600024214FF4204004F0DFFB08B10C2010BDD1
:10577000002010BDD06B00207CB500251B480068C0
:1057800000F108041A48007810B1002003F0EAFE86
:1057900000BF08226946204603F0F4FEBDF8000071
:1057A0004FF6FF71884202D0BDF8000008B92546C7
:1057B00015E0BDF8020000F05FFABDF802100831F4
:1057C000084486B23146204600F06CFA0446094887
:1057D0000068844202D30748056800E0D9E700BFAB
:1057E0000348007803F0BEFE28467CBD385A0020EE
:1057F000455A0020405A0020FEB506460C4602AA33
:105800002146304607F03AFB08B10298FEBD0298E7
:1058100008B1029802E022480068083005460020DE
:1058200002902048007810B1002003F09BFE00BFDA
:1058300008226946284603F0A5FEBDF800004FF691
:10584000FF71884203D100202080029020E0BDF843
:105850000000B04205D114B1BDF8020020800295CD
:1058600016E0BDF8020000F007FABDF8021008319A
:10587000084487B23946284600F014FA05460A481B
:105880000068854203D300202080029000E0CFE72B
:1058900000BF0448007803F065FE0298B6E70000F8
:1058A000385A0020455A0020405A002008B504F01C
:1058B000BFFD01F03BFAA0B100208DF80000A3204D
:1058C0008DF8010002208DF802006846FEF6FCFE0D
:1058D00006F02AFB04F020FC07F0E2F804F08AFC52
:1058E00008BDFEE702494968002900D00847704713
:1058F000645C002070B5044600BFFDF753F905460F
:105900000120FDF7CDF90948047024B9482208495F
:105910000848FCF799FE1DB90020FDF7C1F902E027
:105920000120FDF7BDF900BF70BD0000D459002073
:10593000CC6C0020002000E010B507484068074903
:10594000486006480830402203490831FCF77CFED5
:1059500003200249086010BD846C0020002000E094
:10596000002003490968002900D00847704700005B
:10597000645C002070B500BFFDF714F905460120F6
:10598000FDF78EF90B48047834B948220A490B48D0
:10599000FCF75AFEFFF7D0FF0120064908701DB939
:1059A0000020FDF77DF902E00120FDF779F900BF45
:1059B000204670BDD4590020002000E0CC6C0020AF
:1059C00013B501216846FEF773F801201CBD0000E5
:1059D0002DE9F04F8DB0884608200C90002400205F
:1059E0000B904FF008090A90CDF824808246FFF70B
:1059F000C3FE054605F6FF70691EC1F30B01401A90
:105A00007C490968401A0121C1EB1030C4B20B94E3
:105A100014B101200990824607F052F9E3E000201A
:105A2000069007906CB17349096801EB04300422B9
:105A300006A9FFF75FF8042803D00F200DB0BDE8DA
:105A4000F08F002002900390A5208DF808008DF8BB
:105A500009409DF82C008DF80A00BDF83000ADF823
:105A60000E009DF818008DF80B00BDF81A00ADF877
:105A70000C006048006800EB043048440A905E481F
:105A80000068484408904FF480515B48006803F078
:105A90001DFD08B91020D1E79DF8180048B19DF808
:105AA0001820012308A90AA808F056F808B10F2009
:105AB000C4E7BDF81A0048B1BDF81A20002308A9B0
:105AC0000AA808F049F808B10F20B7E700BF494914
:105AD0000A980968401AA0EB0430C0F58055082DDB
:105AE0002DDD0120082304AA08A900900AA807F0C8
:105AF000FDFF08B10F20A1E7BDF810004FF6FF71C0
:105B0000884200D133E0083DBDF8120000F0B4F83F
:105B1000BDF812104718AF4208DDAAB2002308A949
:105B20000AA808F019F8D8B10F2087E7BAB2002305
:105B300008A90AA808F010F890B10F207EE7A8B2D3
:105B400000F09AF828441FFA80FB01205B462B4A9C
:105B500008A900900AA807F0C9FF08B10F206DE757
:105B600025480899006800F580508142AFD300BFF6
:105B7000082202A920480068FFF70AF8082801D087
:105B80000F205BE71B49096801EB04304FF480519B
:105B900003F09CFC08B9102050E7BAF1000F0DD0BB
:105BA0001449096801EB0430042206A9FEF7F0FF4E
:105BB000042801D00F2041E74FF0000A09AB0CAADE
:105BC0000BA902A807F0F2FF0646012E06D1010339
:105BD0000948006803F07AFC00202FE70EB10F207F
:105BE0002CE7601CC4B20648407AA042BFF617AF4B
:105BF000002023E7385A00203C5A0020D86F0020AC
:105C0000386E002001460020087108790A78104497
:105C1000087108798A78104408710879704710B5BE
:105C200002460020507100BF05E053790C5C23440C
:105C30005371431C98B253888342F6DC507910BDEF
:105C400010B500220A480068C0F3160108489C38C5
:105C5000D0F8A000C0F3160205481C380068C0F355
:105C6000C113501A034C54F82340604310BD000088
:105C70009C200F40E45D002001460020084A127875
:105C800062B10A46CB1701EB93739B10A1EB830320
:105C9000DB43D8B2421CD0B200F0030070470000D2
:105CA000455A002070B506460C4600253519214698
:105CB000304602F0D1FA08B1082000E00020054487
:105CC000284670BD024600210BE0084850F83130EC
:105CD000501E834204D1054800EBC1004068704764
:105CE000491C1029F1DB0020F9E70000146D0020A9
:105CF000002101E0491C4008C207FBD0084670475C
:105D000070B5044600BFFCF74DFF05460120FCF7C7
:105D1000C7FF002014490870144815490860154849
:105D200015490860482215491548FCF78DFC1548AF
:105D3000124948600320086048221348FCF784FC9D
:105D400048220F490D48FCF77FFC882C01D006F053
:105D500065FE1DB90020FCF7A3FF02E00120FCF75F
:105D60009FFF00BF70BD0000D4590020F5582000EF
:105D7000685C002075592000645C0020002000E071
:105D8000CC6C002000790020846C00202DE9FE43BB
:105D90000546002403208DF8000000260C4F4FF02C
:105DA0000108E8070BD008FA04F0019007EBC400E3
:105DB0004068029057F8341009B168468847641C5F
:105DC000A4B26D08761C082EEBDBBDE8FE83000054
:105DD000F06400202DE9F047044600260025204607
:105DE000FEF684FD214601204FF47F0808EA0142B7
:105DF0004FF47F4808EA0123012801D0032801D18C
:105E0000904601E04FF000084746022801D00328E1
:105E100001D1984601E04FF00008C446DFF87081D8
:105E2000D8F8E48128EA020848EA0708DFF8609118
:105E3000C9F8E481C846D8F8E48128EA030848EAAA
:105E40000C08C9F8E48100BF2046FEF657FD204645
:105E500002F020FA204602214FF47F4808EA00238E
:105E6000C7B2012901D1984601E04FF00008C446AD
:105E700011B94FF0000800E0B8464246DFF8108143
:105E8000D8F8E88147EA030928EA090842EA0C0938
:105E900048EA0908DFF8F890C9F8E88100BF012056
:105EA00094FAA4F2B2FA82F13A4A126822EA04633E
:105EB00000FA01F243EA02624B46C3F8E82100BF50
:105EC00000BF94FAA4F7B7FA87F102090346314FED
:105ED0003F1D3F68A74302FA01FC47EA0C07CC4686
:105EE000CCF8EC714F46D7F8EC7127EA042C03FA92
:105EF00001F74CEA0727CC46CCF8EC7100BF2046EE
:105F000000214FF47F0202EA0040224A121D12686B
:105F1000824309B1034600E000231A431D4B1B1DB9
:105F20001A6000BF25462EE095FAA5F0B0FA80F180
:105F3000012000FA01F6681E05403046082190FA5B
:105F4000A0F3B3FA83F39A00134B1B680F27974013
:105F5000BB4301FA02F73B430F4F3B60082908D1CE
:105F60000C4B0C331B6823EA0043094FC7F8F4318C
:105F700007E0084B0C331B6843EA0043044FC7F8A3
:105F8000F43100BF00BF002DCED1BDE8F087000086
:105F900000A00040E8A1004074EE004010B588B0B9
:105FA00004460CB908B010BD20680090207900F0BC
:105FB00003000190A0680290E068039020690490BB
:105FC00060690590A06906906068000907906846BE
:105FD00002F06CF900BFE5E770B5FF2024490968BD
:105FE000C9B201400C4600BF2248D0F88400C0F37B
:105FF0004000054664B3204602F04CF900BFE04380
:106000001B49086000BF00BF6FF002001949C1F8CA
:10601000840000BF00BF16481838006800F0010077
:1060200040B104F0100028B124F010041020FEF656
:1060300065FC11E000BF0F48806800F0010040B12E
:1060400004F0200028B124F020042020FEF656FCA5
:1060500002E02046FFF79AFE45B13CB900BF6FF061
:10606000020004498431086000BF00BF70BD000019
:1060700008A2004000A00040014608464FF07F42C1
:1060800002EA0060044A12680240824201D1012201
:1060900000E00022D0B27047E4A10040012181401D
:1060A000024A12688A4301490A607047B85D0020BD
:1060B0000348044908600448044908607047000028
:1060C00057501000DC0A0020BF501000E00A0020EA
:1060D00001218140024A12681143014A1160704750
:1060E000B85D002010B504460448006820B1204681
:1060F00002490968884710BD0120FCE7205C0020A8
:1061000010B504460448006820B1204602490968D9
:10611000884710BD0120FCE7245C002070B50446D0
:1061200000250CB9012070BD94F82D0001280BD179
:1061300000BF002084F82C0000BF206C002868D02D
:106140002046216C884764E094F82D00022809D08D
:1061500094F82D00042805D0606C40F004006064C1
:10616000012556E02179206802F027FB00BF217944
:10617000206802F0E2FB0028F9D12179206802F0C2
:1061800057FB2179206802F043FB2179206801F157
:106190000802012393404FF44872135000BF217945
:1061A000206801F10802012393404FF44A72135012
:1061B00000BF2179206802F033FB2179206802F0CA
:1061C000D5FA2179206802F0C7FA217920680123E5
:1061D0008B40C0F8483300BF2179206801238B40F1
:1061E000C0F8503300BF2179206802F0BAFA217953
:1061F000206802F0FCFA01212046FEF779FD00BF7D
:10620000002084F82C0000BF206C10B12046216CC7
:106210008847284687E700002DE9F041044614B975
:106220000120BDE8F081534807685348D0F800804A
:1062300000BF4146384612F60BFF00BF4E48456886
:10624000FCF708FC4D4800684FF47A71B0FBF1F0A0
:1062500000FB01F62179206801EB410202EBC1024B
:1062600000EBC202126C42F4807201EB410303EBBB
:10627000C10300EBC3031A6400BF19E03E48406845
:10628000401BB04214D9606C40F02000606400BF35
:10629000002084F82C0000BF03212046FEF728FDD3
:1062A00000BF4146384612F6B1FE00BF0320B8E7F2
:1062B0002179206801EB410202EBC10200EBC2022E
:1062C000126CC2F34022002AD8D02179206802F053
:1062D00074FA29484568FCF7BDFB284800684FF46C
:1062E0007A71B0FBF1F000FB01F619E0224840683A
:1062F000401BB04214D9606C40F02000606400BFC5
:10630000002084F82C0000BF03212046FEF7F0FC9B
:1063100000BF4146384612F679FE00BF032080E7F1
:106320002179206802F009FB0028DFD1217920685B
:1063300001EB410202EBC10200EBC202126C22F43B
:10634000807201EB410303EBC10300EBC3031A644A
:1063500000BF01212046FEF7CBFC00BF002084F8DF
:106360002C0000BF00BF4146384612F64FFE00BF6A
:10637000002056E7FCED00E0001000E05C52002039
:106380002DE9F04104460D4616461F4607480068B1
:1063900050B13B46324629462046DFF810C0DCF8B3
:1063A00000C0E047BDE8F0810120FBE7145C00205D
:1063B0002DE9F04104460D4616461F460748006881
:1063C00050B13B46324629462046DFF810C0DCF883
:1063D00000C0E047BDE8F0810120FBE7105C002031
:1063E0002DE9F84304460E4617461D464FF00008B7
:1063F00014B90120BDE8F8832DB9606C40F00800A5
:1064000060640120F6E700BF94F82C00012801D158
:106410000220EFE7012084F82C0000BF94F82D0043
:1064200001287DD100212046FEF714FC2046FEF70E
:1064300082FC02212046FEF75BFC2179206802F0F5
:10644000D6F92069009021793B463246206802F057
:1064500093F921792A46206802F07BFA2179206895
:1064600002F084F92179206802F040FA217920684D
:1064700002F072F92179206802F022FA217920686D
:1064800002F06FF92179206802F025FA21790022C3
:10649000206802F0DCFA21790022206802F0FDFA7F
:1064A00021790022206802F0E5FA2179206802F0C3
:1064B000C8F921790022206802F03AFB21790022F4
:1064C000206802F045FB2179206802F07FF92179EC
:1064D0000022206802F09BFA21790022206802F055
:1064E000A6FA21790022206802F07EFA21790022A2
:1064F000206802F066FA21790022206802F04FFA43
:1065000021790022206802F0DBFA2179002220683C
:1065100002F0FBFA21790022206802F0E4FA00E0A0
:1065200004E02179206802F0B9F906E04FF0020892
:1065300000BF002084F82C0000BF40465AE72DE938
:10654000F04104460E4617469846002543463A4613
:1065500031462046FFF72CFF05461DB921792068FA
:1065600002F080F92846BDE8F0812DE9F8430446A1
:106570000E4617461D464FF0000804B135B9606C51
:1065800040F0080060640120BDE8F88300BF94F883
:106590002C00012801D10220F6E7012084F82C000C
:1065A00000BF94F82D0001287DD100212046FEF780
:1065B00051FB2046FEF7BFFB02212046FEF798FB69
:1065C0002179206802F013F92179206802F0CEF8D1
:1065D0002179206802F02CF92179206802F0BCF8BA
:1065E0002179206802F014F92179206802F0B9F8C5
:1065F0002179206802F014F921790022206802F044
:1066000026FA21790022206802F047FA2179002237
:10661000206802F02FFA2179206802F012F921791E
:106620000022206802F084FA21790022206802F01A
:106630008FFA2179206802F0C9F8217900222068B8
:1066400002F0E5F921790022206802F0F0F92179C1
:106650000022206802F0C8F921790022206802F0A7
:10666000B0F921790022206802F099F921790022FD
:10667000206802F025FA21790022206802F045FA0C
:1066800021790022206802F02EFA206900902179F9
:106690003B463246206802F06FF821792A4620688E
:1066A00002F057F900E004E02179206802F0DAF8FE
:1066B00006E04FF0020800BF002084F82C0000BF65
:1066C000404661E72DE9F84304460D4616461F464D
:1066D000DDF820800848006860B13B463246294614
:1066E0002046DFF814C0CDF80080DCF800C0E04799
:1066F000BDE8F8830120FBE7185C00202DE9F84392
:1067000004460F4690461E46089D4FF0000914B9F6
:106710000120BDE8F88306B12DB9606C40F0080097
:1067200060640120F5E700BF94F82C00012801D136
:106730000220EEE7012084F82C0000BF94F82D0021
:1067400001287DD100212046FEF784FA2046FEF77D
:10675000F2FA02212046FEF7CBFA2179206802F0F6
:1067600046F821792A6A206802F071F92179AA692C
:10677000206802F092F92179AA6A206802F07AF979
:10678000A869B0F1805F0AD12179206802F0B9F8D8
:10679000217905F11C02206802F0DAF908E021797C
:1067A000206802F04EF821790022206802F0D0F92A
:1067B000286AB0F1006F0AD12179206802F05DF8F3
:1067C000217905F12402206802F031F908E02179ED
:1067D000206801F0FBFF21790022206802F027F9F0
:1067E00021792A68206802F0FFF821796A68206818
:1067F00002F0E7F82179AA68206802F0D0F8217940
:10680000EA68206802F05CF921792A69206802F0C0
:106810007CF921796A69206802F065F920690090A5
:10682000217943463A46206801F0A6FF2179324695
:10683000206802F08EF82179206801F097FF00E0CF
:1068400018E02179206802F051F82179206801F0E0
:1068500083FF2179206802F033F82179206801F064
:1068600080FF2179206802F036F82179206802F053
:1068700015F806E04FF0020900BF002084F82C0054
:1068800000BF484645E72DE9F84304460E46174643
:106890009846DDF82090002543463A46314620468A
:1068A000CDF80090FFF70EFF05461DB9217920684D
:1068B00001F0D8FF2846BDE8F8832DE9F8430446E7
:1068C0000F4690461E46089D4FF0000914B901205E
:1068D000BDE8F88306B12DB9606C40F00800606433
:1068E0000120F5E700BF94F82C00012801D1022017
:1068F000EEE7012084F82C0000BF94F82D00012859
:106900007DD100212046FEF7A5F92046FEF713FAB7
:1069100002212046FEF7ECF92179206801F067FF9B
:106920002179206801F022FF2179206801F080FFA1
:106930002179206801F010FF2179206801F068FFBB
:106940002179206801F00DFF2179206801F068FFAE
:1069500021792A6A206802F07AF82179AA692068E8
:1069600002F09BF82179AA6A206802F083F8A869EE
:10697000B0F1805F0AD12179206801F0C2FF21794E
:1069800005F11C02206802F0E3F808E02179206894
:1069900001F057FF21790022206802F0D9F8286A17
:1069A000B0F1006F0AD12179206801F066FF2179EA
:1069B00005F12402206802F03AF808E02179206805
:1069C00001F004FF21790022206802F030F82179DB
:1069D0002A68206802F008F821796A68206801F0C6
:1069E000F0FF2179AA68206801F0D9FF2179EA68CF
:1069F000206802F065F821792A69206800E018E033
:106A000002F083F821796A69206802F06CF8206945
:106A10000090217943463A46206801F0ADFE217985
:106A20003246206801F095FF2179206801F01AFFB5
:106A300006E04FF0020900BF002084F82C0000BFE0
:106A4000484645E710B504460CB9012010BD00BF0B
:106A5000207C012801D10220F8E70120207400BF2A
:106A6000206802F085F8204600F048F800206074A5
:106A700000BF207400BF00BFE8E700007FB50446F8
:106A800000251C4B0FCB8DE80F001B480068401EF3
:106A9000039014B9012004B070BD00BF207C012810
:106AA00001D10220F7E70120207400BF607C20B9EB
:106AB00000202074204600F022F8022060746068F4
:106AC0000090E06803906946206802F064F8A068CE
:106AD000012803D1206802F059F802E0206802F092
:106AE00050F80120607400BF0020207400BF2846C9
:106AF000D1E70000E8ED20005C52002070477047AD
:106B00000146002209B90120704700BF087C012816
:106B100001D10220F8E70120087400BF487C012859
:106B200012D1022048740868806840F020000B6889
:106B3000986000BF0020087400BF0868806840F0BB
:106B400080000B68986004E000BF0020087400BF5C
:106B500002221046D8E770B5044600250CB9012082
:106B600070BD00BF207C012801D10220F8E7012080
:106B7000207400BF607C022812D1206802F026F841
:106B800001280DD160742068806820F080002168A1
:106B900088602068806820F020002168886000E01C
:106BA000012500BF0020207400BF2846D8E770B53B
:106BB00004462068416901F0010109B320684FF0E3
:106BC000FF31C16000BFA068012816D100252068F0
:106BD00001680D462946206801F0FDFF0120607420
:106BE0002068806820F080002168886020688068C4
:106BF00020F020002168886000BF204600F001F8E6
:106C000070BD0121FCF72CBB02460AB90120704778
:106C100000BF107C012801D10220F8E70120107488
:106C200000BFD1601068816100BF00BF00201074F8
:106C300000BF00BFEBE770B504460D46002604B167
:106C40000DB9012070BD00BF207C012801D10220B8
:106C5000F8E70120207400BF6968A160A968E160BD
:106C600028686060607C01281ED1D4E90001826838
:106C700022F00C020A43826000BFE168206801F044
:106C8000AAFF6868012803D1206801F07FFF0CE0AB
:106C900040212068826822F040020A43826000BFDF
:106CA000206801F06EFF00E0022600BF0020207483
:106CB00000BF3046C6E710B50446002012F668FB58
:106CC000204612F681FA10BD10B50446034812F6AC
:106CD0005FFB204612F6CCFA10BD0000C05D00201C
:106CE0007047704770B504460D462A46214600207D
:106CF00012F6D4FC08B9012070BD0020FCE70000AA
:106D000000B101B97047044A92680260024AD26831
:106D10000A6000BFF6E70000680D002010B512F60B
:106D200081FD08B1012010BD0020FCE710B512F66E
:106D300085FD08B9012010BD0020FCE770B50446B0
:106D40000D46164632462946204612F65BFE08B925
:106D5000304670BD0020FCE710B50446204612F610
:106D600053FF10BD2DE9F047C0B080468946144658
:106D700022464946404612F6CDFF8246BAF1000F40
:106D800034D100252646B4F5807F02D94FF48070B7
:106D900000E02046074600BF08EB05003A4669467A
:106DA00012F630FE8246BAF1000F1BD109EB050046
:106DB0003A466946FBF7B8FBA0B9F61B1EB9204658
:106DC00040B0BDE8F0873D44B6F5807F02D94FF46E
:106DD000807000E030460746A54202D2E819A04282
:106DE00001D901E000E0D7E700BF00BF0020E7E7DE
:106DF0002DE9F04104460D46002700260CB9BDE8F8
:106E0000F0812946204601F0EDFF01222946204667
:106E100001F0ECFF00BF656200BF2946204601F08B
:106E2000DCFE02222946204602F07EF82246284651
:106E30000023DFF81CC1624502D14FF0100C01E0C5
:106E40004FF0000C00FA0CF090FAA0FCBCFA8CF1A8
:106E5000DFF800C162450ED1DFF8FCC0DCF800C0ED
:106E60002CEA000C03FA01F84CEA080CDFF8E88081
:106E7000C8F800C011E0DFF8E0C0ACF1200CDCF88D
:106E800000C02CEA000C03FA01F84CEA080CDFF809
:106E9000C880A8F12008C8F800C000BF0122294618
:106EA000204602F0C5F8224628460021284B9A4287
:106EB00001D1102300E000239840264B9A4212D1C2
:106EC000254B1B1F1B688343012901D1844601E028
:106ED0004FF0000C43EA0C03DFF87CC0ACF1040C6B
:106EE000CCF8003011E01C4B243B1B688343012984
:106EF00001D1844601E04FF0000C43EA0C03DFF8B7
:106F000058C0ACF1240CCCF8003000BF2E461AE07B
:106F100096FAA6F0B0FA80F1012000FA01F7701E8F
:106F200006400E48844209D1012F01D0022F05D11D
:106F300000223946204601F0CDFF04E00822394600
:106F4000204601F0C7FF002EE2D100BF57E7000046
:106F5000001001400020014030EE004000000140E0
:106F60002DE9FE4380460F463846FEF7C1FE85B246
:106F70000024DFF834900D4E59F8340040450ED10E
:106F800005EB041085B28DF80040019706EBC500B3
:106F90004068029056F835200AB168469047641C54
:106FA000032CE9DBBDE8FE8388EC2000F0630020C1
:106FB00070B504464FF6FF70A16B01400D463DB120
:106FC0002946204601F009FE29462046FFF7C8FF62
:106FD00070BD30B589B005460C4605B10CB909B095
:106FE00030BD20680190207900F003000290A06875
:106FF0000390E06804902069059060690690A0699C
:10700000079060680009089001A9284601F0E8FD92
:1070100000BFE4E72DE9F0470646002400220B46B6
:1070200001204FF47F0909EA03454FF47F4909EA3B
:107030000327012801D0032801D1A94601E04FF020
:107040000009CC46022801D0032801D1B94601E04D
:107050004FF00009C846DFF81891D9F8D49129EA11
:10706000050949EA0C09DFF808A1CAF8D491D1460C
:10707000D9F8D49129EA070949EA0809CAF8D4914C
:1070800000BF084600234FF07F4707EA006533B191
:10709000384F3F682F43D446CCF8DC7106E0354FBB
:1070A0003F68AF43DFF8C8C0CCF8DC7100BF0846CA
:1070B00002234FF47F4909EA0025C7B2012B01D111
:1070C000A94601E04FF00009CC4613B94FF0000982
:1070D00000E0B946C846DFF89890D9F8D89147EA59
:1070E000050A29EA0A0948EA0C0A49EA0A09DFF806
:1070F00080A0CAF8D89100BF0A4634E092FAA2F004
:10710000B0FA80F3012000FA03F4501E024020463A
:10711000082390FAA0F7B7FA87F7BD00164F3F682B
:107120004FF00F0C0CFA05FC27EA0C0703FA05FCDC
:1071300047EA0C07DFF840C0CCF80070082B08D1F4
:107140000C4F3F1D3F688743DFF824C0CCF8E07147
:1071500007E0084F3F1D3F680743DFF814C0CCF835
:10716000E07100BF00BF002AC8D1BDE8F087000071
:1071700000A00040DCA1004078EE004070B504465D
:107180000D462946204602F00FF870BD024608461B
:107190004FF07F4303EA0060044B1B6803408342C7
:1071A00001D1012300E00023D8B27047D4A10040F0
:1071B00010B504460748006820B120460549096813
:1071C000884705E0202C03DA0020034941F8240019
:1071D00010BD0000505C00206872002010B504460D
:1071E0000B48006820B120460949096888470EE02D
:1071F000202C0CDA0021074800F0704000F10070EC
:10720000044AC2F3130200EB421040F8241010BDF0
:107210005C5C0020385C002070B504460D460848D0
:10722000006828B129462046054A1268904705E0C3
:10723000202C03DA15B1034840F8245070BD00003B
:10724000445C0020E871002010B50446074800683F
:1072500020B1204605490968884705E0202C03DA5B
:107260000020034941F8240010BD0000485C0020C4
:10727000E871002070B504460D460848006828B142
:1072800029462046054A1268904705E0202C03DA7B
:1072900015B1034840F8245070BD00003C5C00204C
:1072A0006871002010B504460748006820B12046E8
:1072B00005490968884705E0202C03DA00200349C6
:1072C00041F8240010BD0000405C002068710020DF
:1072D00070B504460D460748006828B12946204687
:1072E000044A1268904704E0202C02DA024840F871
:1072F000245070BD4C5C00206872002010B504461C
:107300000B48006820B120460949096888470EE00B
:10731000202C0CDA0121074800F0704000F10070C9
:10732000044AC2F3130200EB421040F8241010BDCF
:10733000585C0020305C002070B504460D460C48B7
:10734000006828B129462046094A126890470DE096
:10735000202C0BDA074800F0704000F1007005495E
:10736000C1F3130100EB411040F8245070BD000040
:10737000545C0020285C002004280BDA064A02F046
:10738000704202F10072044BC3F3130302EB431289
:1073900042F82010704700002C5C00202DE9F041DD
:1073A000EFF311870220FBF7D9FB0446FBF7E4FB60
:1073B000401C012181406018C0B280F31188002078
:1073C000FCF74EFC0546254ED5E90412C6E902122B
:1073D0002348081A72F11E0019D306F110000EE0BE
:1073E000DCE90412D6E90234B1EB030872EB0408BD
:1073F00004D3C91A62EB0402CCE90412006AD0F883
:1074000020C0BCF1000FEBD10021B160F160A87881
:1074100001280AD1D6E90230D5E9021259185041A3
:10742000C5E904102846FCF7DFFBF8B280F31188A9
:10743000FCF788FC706840B1D0E90421D6E902036A
:10744000101A61EB030102F089F9E96909B1A86931
:107450008847BDE8F041FCF73FBC000040650020D4
:107460000010C32C70B504460D460026142004F00D
:1074700059FB064600BF0748056000BF00BF44F047
:10748000030040F0807003494039086000BF304677
:1074900070BD000040A50040014800687047000032
:1074A0005C03002000BF01480068704748A5004009
:1074B00000BF0248006800F00100704738A5004096
:1074C00010B5142004F02EFB00BF0548006820F022
:1074D000010040F080700249086000BF10BD00004C
:1074E00000A5004070B504460CB9012070BD002114
:1074F000204605F083FF204605F0DCFF00BF00BFFB
:10750000FBF753FB05460120FBF7D0FB82212068E7
:1075100001F07AFF2846FBF7C9FB00BF00BF94F8D3
:10752000340001281AD1E06A50B11448E16A0864B5
:10753000E06AFEF7E5FD68B1E06A016C884709E0A2
:107540000020608410220021204605F07DFF2046A7
:1075500000F016F8002084F834000DE0002060846C
:1075600004202168C1F8880010220021204605F07F
:107570006BFF204600F004F80020B7E775D120002B
:107580001CB505F065FE03218DF8001006490022A8
:1075900051F8203083F8002151F8200001680029BB
:1075A00001D0684688471CBD3065002038B50446C8
:1075B000202000900CB9012038BD94F8370018B98C
:1075C00094F8380000287DD014220221204605F0CE
:1075D0003BFF20680021C0F8901000BF41F28833C3
:1075E00000224021204606F061F8206801F004FFE7
:1075F000204600F0D5F945492068884209D100BFEE
:1076000001204349086000BF00BF4249086000BF35
:107610002FE04149206888420BD100BF01203C493E
:10762000091D086000BF00BF3A49091D086000BF7E
:107630001FE03A49206888420BD100BF012034493D
:107640000831086000BF00BF32490831086000BF40
:107650000FE03349206888420BD100BF01202C493C
:107660000C31086000BF00BF2A490C31086000BF20
:1076700000BF00BFFBF799FA05460120FBF716FB98
:1076800000BF284800682849084028490840884227
:1076900006D100BF01201E49D839086000BF00BFD5
:1076A00000BF2048083000682149084021490840AF
:1076B000884205D100BF01201F49086000BF00BFFC
:1076C000284600E01BE0FBF7F1FA00BF0020E06372
:1076D00000220221204605F0B7FE0121204605F0D8
:1076E00049FF6946204605F089FD012803D19DF830
:1076F0000000FFF7A9FD0121204605F07FFE00BF35
:10770000002084F8360000BF00BF55E700C50040E8
:1077100080D51D4280D61D4200C6004000C70040F3
:1077200000C80040ACEE0040CFC37F7ACF035E704C
:107730000FFF7F000F3F7C0028D41D421CB504467C
:10774000204605F085FD00228DF80020E16B0191B7
:10775000064951F8203083F8002151F820000168D3
:10776000002901D0684688471CBD00003065002014
:10777000014609B9002070470022002391F8372004
:1077800091F8383042EA0300F5E7000010B586B002
:1077900004462020009014B9012006B010BD94F8D2
:1077A0003700002850D194F8380000284CD184F8D4
:1077B000360000BF4049086000BF00BF3E49803925
:1077C000086000BF3D49206888420AD100BF002000
:1077D0003949D831086000BF00BF3949086000BF8F
:1077E0002FE03849206888420BD100BF0020324981
:1077F000DC31086000BF00BF3149091D086000BFCF
:107800001FE03149206888420BD100BF00202A497F
:10781000E031086000BF00BF29490831086000BF9F
:107820000FE02A49206888420BD100BF002022497E
:10783000E431086000BF00BF21490C31086000BF7F
:1078400000BF204600F0ADF814220221204605F0CA
:10785000FBFD60680190A068029020690490E068D8
:1078600003906069059001A9206801F0D8FD00200F
:10787000E06310220221204605F0E6FD204605F0D7
:1078800019FE0021204605F075FE6946204605F0E8
:10789000B5FC012804D10E499DF80000FFF7BCFC9F
:1078A0000121204605F0AAFD00BF002084F8360023
:1078B00000BF00BF71E70000A8D41D4200C5004012
:1078C00080D61D4200C6004000C7004000C80040EE
:1078D000A54A10002DE9F04104462068816801F0B6
:1078E0000F010D4600260027022D06D0042D08D0DA
:1078F000062D14D00C2D4DD108E0204605F0FDFDDD
:1079000049E00021204605F023FD44E0A06901285C
:1079100000D101273946204605F01AFD3BE02068DA
:1079200001F07AFD0646E06B06F01E010843E063B5
:107930002068C16FC1F3C00119B10021204605F0D4
:1079400007FDE06B00F00200F0B1204605F024FCDA
:1079500094F83500012813D1206B50B10F48216BEA
:107960000864206BFEF7CCFB30B1206B016C8847BC
:1079700002E02046FFF7E2FE002084F8350008E030
:107980002046FFF7DBFE04E02046FFF7D7FE00208D
:10799000E06300E000BF00BFBDE8F081CDD0200073
:1079A000704770471CB50446204605F051FC022183
:1079B0008DF80010218D628D891AADF804100449EC
:1079C00051F820000168002901D0684688471CBD95
:1079D000306500202DE9F04104460E4615461F464D
:1079E00014B90120BDE8F08106B12DB9E06B40F477
:1079F0008060E0630120F5E794F83700102835D166
:107A00000021204605F0FAFC204605F053FD002039
:107A1000E06311220021204605F016FD25840FE0C9
:107A20003B4600220221204605F0D2FD08B103208A
:107A3000D8E7681E85B216F8011B206801F044FDE6
:107A4000002DEDD83B4600224021204605F02EFEB9
:107A500008B10320C6E710220021204605F0F4FCFF
:107A600000BF002084F8360000BFBBE70220B9E762
:107A70002DE9F04104460E461546002714B90120B1
:107A8000BDE8F08116B10DB1E06A28B9E06B40F4B1
:107A90008060E0630120F3E794F83700102847D1B5
:107AA0000021204605F0AAFC204605F003FD002138
:107AB000E06AFDF7CFF8E06AFDF73DF901212068A3
:107AC00001F0FFFCE26A117910684FF4805200F077
:107AD00053FFE661258465840020E06311220021C4
