:020000040020DA
:102000000000042019212000DF35200001401000CD
:1020100005342000FF212000DD39200000000000F1
:10202000000000000000000000000000154010004B
:10203000312D200000000000B5202000EB382000EA
:10204000DFF810D000F0B0FC00F028F9004800479D
:1020500081F02100000004202C4B19680868B0E8CA
:10206000F04F80F30988BFF36F8F4FF0000080F3CB
:10207000118870470000000008480068006880F37D
:1020800008884FF0000080F3148862B661B6BFF391
:102090004F8FBFF36F8F00DF00BF00BF08ED00E080
:1020A000DFF80C00016841F470010160704700BF67
:1020B00088ED00E0EFF30980BFF36F8F134B1A68D0
:1020C0001EF0100F08BF20ED108A20E9F04F1060BD
:1020D00009B44FF0300080F31188BFF34F8FBFF386
:1020E0006F8F24F0FFFC4FF0000080F3118809BCD3
:1020F00019680868B0E8F04F1EF0100F08BFB0EC88
:10210000108A80F30988BFF36F8F70473C5E002010
:10211000EFF3058070470000014880470148004701
:102120008D392000C5F021002DE9F05F0546002023
:1021300092469B4688460646814640241BE0284638
:1021400041464746224600F0ECFA53465A46C01A2A
:10215000914110D311461846224600F0D3FA2D1AA9
:1021600067EB01084F4622460120002100F0CAFA21
:1021700017EB00094E41201EA4F10104DFDC4846A4
:1021800031462A464346BDE8F09F00000649074A0B
:102190000868504343F23902104408604008704711
:1021A00001490860704700005C6E00206D4EC6411A
:1021B00010B5431A934209D28318881803E010F827
:1021C000011D03F8011D521EF9D210BD40EA0103A2
:1021D0009B0703D009E008C9121F08C0042AFAD2DD
:1021E00003E011F8013B00F8013B521EF9D210BD8B
:1021F000421C10F8011B0029FBD1801A7047FEE732
:1022000058585247010000002556000000202000C9
:10221000002020007EEE9247010100000000000037
:1022200000000000000000000000000000000000AE
:10223000000000000000000000000000000000009E
:10224000D2B201E000F8012B491EFBD270470022F8
:10225000F6E710B513460A4604461946FFF7F0FFA5
:10226000204610BD10B5002200E0521C835C8C5C3F
:10227000A34201D1002BF8D1D8B2E1B2401A10BD6F
:1022800030B504460020034600E05B1C934203D2B5
:10229000E05CCD5C401BF8D030BD000070B5054C53
:1022A000054D03E0206820448047241DAC42F9D14D
:1022B00070BD0000F8AD2200FCAD22002DE9FE4FFC
:1022C000804681EA0300C00F0C46009021F00041D7
:1022D00023F00045B8EB0200A94105D24046214653
:1022E00090461C460B46024623F00040104347D060
:1022F000270DC7F30A00C3F30A510290401A019058
:1023000040286BDAC3F3130040F4801B0098924618
:1023100020B10023D2EB030A63EB0B0B0198594663
:10232000C0F14002504600F0EDF906460D46504619
:102330005946019A00F005FA10EB080061410024AB
:1023400087EA115284EAE7731A4340D0009A62B3D5
:10235000019A012A4FEA075215DC001B61EB0201CA
:102360004FF0004202EA0752CDE90042001C41F55D
:10237000801132462B4600F03CFA03B0BDE8F08FE6
:1023800040462146F9E7001B61EB0201001C41F5C4
:10239000801300185B412018A2F5001747EB0301DA
:1023A00040EAD570B6196D4111E06D084FEA360666
:1023B00045EAC0754FEA0752001B61EB0201001CA1
:1023C00041F5801149084FEA300000195141324669
:1023D0002B4603B0BDE8F04F00F0FCB90098012295
:1023E00040000023D0EB020263EBE073009821462B
:1023F0004FEAE074B8EB000061EB0401E9E783F019
:1024000000435BE781F0004158E72DE9FE4F81EA88
:10241000030404F0004421F0004100944FF0000B4D
:1024200023F0004350EA01045ED052EA03045BD07B
:10243000C3F30A54C1F30A552C44A4F2F3340194B3
:10244000A0FB0254C1F3130141F48011C3F3130341
:1024500043F4801301FB024400FB034E840A970AF5
:1024600044EA815447EA8357A4FB076802958D0A22
:1024700005FB07854FEA932C04FB0C542705029DAE
:102480004FEA065847EA1637B5EB08056EEB070C1E
:10249000870E920E47EA811742EA8312A7FB0201D8
:1024A000B6EB0B0164EB00042B0D43EA0C335E1812
:1024B00044EB1C50DA465146E7FB0201C5F3130416
:1024C0004FEA0B3343EA14534FEA0432019C43EAC8
:1024D0000603A4F10C040294009CCDE900B400F0C2
:1024E00088F903B0BDE8F08F00200146F9E72DE937
:1024F000F04D81EA030404F0004B21F0004514463E
:102500004FF0000A23F0004150EA050220D054EABF
:1025100001021DD0C5F30A570246C5F31303C1F3E8
:102520001300C1F30A5640F4801543F48013A7EB5F
:102530000608101BD64608F2FD3873EB050002D3DF
:1025400008F1010801E092185B41B8F1000F03DACD
:1025500000200146BDE8F08D00204FF480110646B2
:1025600084460EE0171B73EB050705D3121B63EBC4
:10257000050306434CEA010C49084FEA3000921863
:102580005B4150EA0107EDD152EA030012D082EA22
:10259000040083EA0501084305D0101BAB4106D2B5
:1025A0000122002306E000224FF0004302E06FF01A
:1025B000010253101AEB06004CEB085110EB0A0015
:1025C00041EB0B01BDE8F04D00F004B930B4044616
:1025D00096230800214604D0B62330BC002200F028
:1025E000CBB820460021F8E70EB5C10F80EAE070B5
:1025F0000844CA07002140F233438DE80E000A4622
:102600000B4600F0F6F803B000BD0EB540F23341C2
:1026100002910021CDE900110A460B4600F0E9F8CD
:1026200003B000BD0EB540F2334202920022CDE964
:102630000022134600F0DDF803B000BD20F000409A
:10264000C20DC0F3160040F400007F2A02DA002019
:10265000014670470021962A03DCC2F19602D04061
:102660007047963A00F04EB870B5C1F30A5201F0C7
:1026700000450024C1F3130140F2FF3341F48011FF
:102680009A4201DA002070BD40F233439A42A2F22E
:10269000334203DC524200F044F800E090402C4307
:1026A000F1D0404270BDC1F30A5210B5C1F313011D
:1026B00040F2FF3341F480119A4201DA002010BD4C
:1026C00040F233439A42A2F2334203DC524200F01A
:1026D00028F810BD904010BD30B50B4601460020D3
:1026E0002022012409E021FA02F59D4205D303FAD4
:1026F00002F5491B04FA02F52844151EA2F1010255
:10270000F1DC30BD202A04DB203A00FA02F100207F
:1027100070479140C2F1200320FA03F3194390401F
:102720007047202A04DB203A21FA02F0002170478A
:1027300021FA02F3D040C2F1200291400843194629
:102740007047202A06DBCB17203A41FA02F043EA11
:10275000E07306E041FA02F3D040C2F1200291405A
:102760000843194670470029A8BF7047401C49001C
:1027700008BF20F00100704710B4B0FA80FC00FAE6
:102780000CF050EA010404BF10BC704749B1CCF111
:10279000200421FA04F411FA0CF118BF012121439D
:1027A0000843A3EB0C01CB1D4FEA00614FEA102058
:1027B00042BF002010BC704700EBC35010440029FA
:1027C000A4BF10BC7047401C490008BF20F00100A6
:1027D00010BC704710B5141E73F1000408DA401CD9
:1027E00041F1000192185B411A4301D120F0010030
:1027F00010BD2DE9F04D92469B4611B1B1FA81F220
:1028000002E0B0FA80F220329046FFF77BFF0446E8
:102810000F4640EA0A0041EA0B0153465A46084374
:1028200013D0114653EA010019D0C8F140025046B6
:10283000FFF777FF05460E46504659464246FFF7DA
:1028400061FF084305D0012004E020463946BDE879
:10285000F08D0020054346EAE0762C4337430A9882
:102860006305E40AA0EB08000022FD0A44EA47548D
:102870000A3002D500200146E9E701051019694137
:10288000DDE9084500196941BDE8F04DA2E7000007
:102890002DE9F041054621F000400C46284309D0BF
:1028A000C4F30A5040F23341884205DD28462146F0
:1028B000BDE8F0812846FBE740F2FE31884210DC9B
:1028C0000CDB4FEA043040EA155050EA053105D0E0
:1028D000104804F0004101430020E9E700200146D0
:1028E000E6E7A0F233404642C6F1400228462146C0
:1028F000FFF708FF07468846284621463246FFF77D
:1029000010FF43463A46FFF765FF3246BDE8F04107
:10291000FFF7F8BE0000F03FC1F30A52C1F3130104
:1029200040F2FF3341F480119A4202DA002001465E
:10293000704740F233439A42A2F2334202DC5242E1
:10294000FFF7EFBEFFF7DEBE30B5041E71F10004E5
:1029500004DB4FF00044404264EB0101141E73F1AC
:10296000000405DB1C464FF00043524263EB0403B6
:102970008B4208BF824230BD30B5041E71F10004A5
:1029800004DB4FF00044404264EB0101141E73F17C
:10299000000405DB1C464FF00043524263EB040386
:1029A000994208BF904230BD064C074D06E0E068F2
:1029B00040F0010394E8070098471034AC42F6D386
:1029C000FFF742FBB8AD2200F8AD220070B58C18BD
:1029D00010F8015B15F0070301D110F8013B2A1133
:1029E00006D110F8012B03E010F8016B01F8016B20
:1029F0005B1EF9D12B0705D40023521E0DD401F81C
:102A0000013BFAE710F8013BCB1A921C03E013F8E4
:102A1000015B01F8015B521EF9D5A142D8D3002019
:102A200070BD70B500230824002550F8242051F80B
:102A30002460921945EB0506D21846EB050303F016
:102A400001032B4301D0012300E0002340F82420A0
:102A5000641E002CE9DA002150F8212012B9491C2B
:102A60000929F9DBC1F10901416270BDF0B500240B
:102A70000825002650F8253051F82570DB1946EB63
:102A800006071B1947EB060404F00104344301D088
:102A9000012400E0002442F825306D1E002DE9DA03
:102AA000002052F8201011B9401C0928F9DBC0F1B0
:102AB000090151629662F0BD70B514462246FFF7D7
:102AC000D5FFA06A20B12046BDE8704000F026B8CE
:102AD000114D606A696A00260123884212D801D22A
:102AE00033460FE0C0F109010AE055F8212054F8FF
:102AF0002100824201D9334604E003D301F10101F0
:102B00000929F2D3002B05D02046BDE870400249C8
:102B100000F04ABE70BD00005488220010B58CB091
:102B2000044601AA2146074800F074FD01A92422A9
:102B30002046FFF73DFB0A9860620020A0620CB0BF
:102B400010BD0000548822002DE9F0418CB00746EA
:102B5000474CB86A4FF00008002809D03A4623468F
:102B6000506A5D6A0121A84231D81FD241462EE049
:102B70004FF000004FF00802414657F8223054F859
:102B8000225088465B1941EB01061D184E4106F0A4
:102B90000100414658EA000001D0012000E0002079
:102BA00047F82250521E002AE7DA3FE0C0F1090040
:102BB0000AE053F8205052F82060B54201D941464E
:102BC00005E004D300F101000928F2D34146F1B138
:102BD00000200822454654F8223057F822101E18CB
:102BE00045EB050C8E1B75EB0C0607D21844081A32
:102BF000001C47F822004FF0010004E01844091AB5
:102C000047F822100020521E002AE4DA0EE001AA42
:102C10003946174800F0FEFC01A93C462422204614
:102C2000FFF7C6FA0A986062C7F8288000210020E2
:102C300057F8202012EB080348EB010461084FEA23
:102C4000330147F8201023F00101591A00F1010067
:102C50000928EDD3002057F8201011B9401C09288D
:102C6000F9DBC0F1090078620CB0BDE8F08100002A
:102C70005488220010B509F0A1FD10BD1CB5032435
:102C800000BF27480068012121EA900078B900BF01
:102C900023480C30006800F0010040B100BF20481C
:102CA0008C38006800F007002040A04200D01CBD16
:102CB0000020009001F0D2FA00901A480068401CF1
:102CC0001849086064200AF677FB01A800F00EFEA0
:102CD000022000F013FE32200AF66EFB00BF1248FD
:102CE000006840F002001049086000BF0F494889A1
:102CF0000AF662FB00BF0C48006820F002000A4997
:102D0000086000BF094988890AF656FB9DF804004F
:102D100000F0F4FD009801F0CAFF00BFC7E7000013
:102D2000D4A400406C66002004A900402A6500205D
:102D3000FEE700002DE9F04FADF5377D82460D46E8
:102D400014460AF12C0B0AF15800B6902F9005F1A9
:102D50002C00B5902E902C30B4902D90242120463C
:102D6000FFF775FA4FF00008C4F82480C4F82880F3
:102D700004F12C0624213046FFF769FAC6F82480B6
:102D8000C6F8288004F1580724213846FFF75FFA77
:102D9000C7F82480C7F82880A9A82421FFF757FA8C
:102DA000CDF8C882CDF8CC829EA82421FFF74FFA37
:102DB000CDF89C82CDF8A08293A82421FFF747FA92
:102DC000CDF87082CDF8748288A82421FFF73FFAED
:102DD000CDF84482CDF848827DA82421FFF737FA48
:102DE000CDF81882CDF81C8272A82421FFF72FFAA3
:102DF000CDF8EC81CDF8F08167A82421FFF727FA00
:102E0000CDF8C081CDF8C4815CA82421FFF71FFA5A
:102E1000CDF89481CDF8988151A82421FFF717FAB5
:102E2000CDF86881CDF86C8146A82421FFF70FFA10
:102E3000CDF83C81CDF840813BA82421FFF707FA6B
:102E4000CDF81081CDF8148130A82421FFF7FFF9C7
:102E5000CDF8E480CDF8E8805046E3491CF0CEF987
:102E6000DFF8849309F12C0809F1580948B9414663
:102E700058461CF0C3F920B94946B6981CF0BEF973
:102E800040B10020002859D02846D7491CF0B6F997
:102E900010B10BE00120F5E74146B5981CF0AEF902
:102EA00020B94946B4981CF0A9F930B3002030B3DA
:102EB000CD4D242229462046FFF77AF9686A6062E0
:102EC000A86AA062242241463046FFF771F9D8F87B
:102ED00024007062D8F82800B0622422494638469F
:102EE000FFF766F9D9F824007862D9F82800B862AB
:102EF00000200DF5377DBDE8F08F0120D7E72422B3
:102F000029462046FFF754F9686A6062A86AA06201
:102F1000B59C242221463046FFF74AF9606A706268
:102F2000A06AB062B49C242221463846FFF740F9DB
:102F3000606A7862A06AB8620020DAE72846AA4987
:102F40001CF05CF948B94146B5981CF057F920B916
:102F50004946B4981CF052F918B3002018B3242243
:102F600051462046FFF724F9DAF824006062DAF8C7
:102F70002800A062242259463046FFF719F9DBF8F1
:102F800024007062DBF82800B062B69C242221463F
:102F90003846FFF70DF9606A7862A06AB8620020CF
:102FA000A7E70120DAE7514628461CF027F960BB65
:102FB0005946B5981CF022F908B38B4D24222946B6
:102FC0002046FFF7F5F8686A6062A86AA0622422CA
:102FD00041463046FFF7ECF8D8F824007062D8F884
:102FE0002800B062242249463846FFF7E1F8D9F8B4
:102FF00024007862D9F82800B862002079E7286DAB
:10300000012802D8E86C00287DD0DDE92E01A9AAAC
:1030100000F01AFA9EAA58462D9900F015FA93AAC4
:1030200028462F9900F010FA88AA50462D9900F0F2
:103030000BFA88A993A81CF0E1F800287ED07DAA9D
:103040009EA9A9A800F014FB72AA88A993A800F071
:103050000FFB5CAA2D992F9800F0F6F922A82421E5
:10306000FFF7F5F800252B952C9517A82421FFF7DD
:10307000EEF8209521950CA82421FFF7E8F8159586
:10308000169501A82421FFF7E2F80A950B9551AA9D
:1030900072A972A800F0D8F946AA72A951A800F046
:1030A000D3F93BAA7DA97DA800F0CEF930AA88A962
:1030B00051A800F0C9F901AA022130A800F0A3F933
:1030C00017AA5CA93BA800F0BFF90CAA46A917A84B
:1030D00000F0CEFA67AA01A90CA800F0C9FA2246AE
:1030E00067A972A800F0B0F922A82421FFF7AFF871
:1030F0002B952C9517A82421FFF7A9F82095219549
:103100000CA8242100E020E0FFF7A1F81595169502
:1031100022AA67A930A800F0ABFA17AA22A97DA8B5
:1031200000F092F90CAA9EA946A800F08DF932464B
:103130000CA917A800F09CFA3A4600E027E05CA929
:1031400046A800F081F90120D3E6274D2422294624
:103150002046FFF72DF8686A6062A86AA062242200
:1031600041463046FFF724F8D8F824007062D8F8BA
:103170002800B062242249463846FFF719F8D9F8EA
:1031800024007862D9F82800B8620020B1E69EA930
:10319000A9A81CF033F808B3134D24222946204671
:1031A000FFF706F8686A6062A86AA06224224146B6
:1031B0003046FEF7FDFFD8F824007062D8F82800EA
:1031C000B062242249463846FEF7F2FFD9F82400BF
:1031D0007862D9F82800B86200208AE62146504675
:1031E00000F004F8002084E6D08822002DE9F04F9A
:1031F000F9B00C46824600F12C0500F1580B594FEE
:10320000696A07F12C06583704F12C0804F15809B3
:10321000012901D8296A79B152491BF0EFFF48B959
:10322000314628461BF0EAFF20B9394658461BF0C4
:10323000E5FF28B3002028B34A4D24222946204622
:10324000FEF7B6FF686A6062A86AA062242231466F
:103250004046FEF7ADFF706AC8F82400B06AC8F8AF
:103260002800242239464846FEF7A2FF786AC9F8AA
:103270002400B86AC9F82800002079B0BDE8F08FB2
:103280000120D8E737AA59465046FFF715FC2CAA6B
:103290005946504600F0ECF921AA2CA937A800F0B5
:1032A000D3F86EAA032121A800F0ADF863AA59460D
:1032B000284600F0C9F837AA63A9284600F0C4F8E8
:1032C00058AA37A9504600F0BFF837AA6EA96EA8D1
:1032D00000F0BAF82CAA082158A800F094F84DAADA
:1032E0002CA937A800F0C4F937AA63A94DA800F0AB
:1032F000ABF82246022137A800F085F837AA294604
:10330000284600F0A1F842AA63A963A800F09CF83F
:103310002CAA42A937A800F097F821AA08212CA8C6
:1033200000F071F816AA042158A800F06CF80BAA56
:103330004DA916A800F09CF96A460BA96EA800F0EA
:1033400083F8424621A9684600F092F937AA63A99A
:1033500042A800F079F84A46082137A800F053F84F
:1033600000208AE7D08822002DE9F0478CB005467E
:1033700088469146DFF854A0154E10279AF817306A
:10338000FF2B06D0706ED90007FA01F4A04320434A
:10339000706601A905F1580003F066FB9AF8173032
:1033A000FF2B04D0706ED9008F40B8437066424640
:1033B00001A9284600F048F84A4601A905F12C0069
:1033C00000F042F80CB0BDE8F0870000080E0020C5
:1033D00000000E400748006800F0100008B10648E1
:1033E000704706480068C0F30240054951F82000C4
:1033F000F6E7000084E30040006CDC0200A000401F
:1034000054872200FEE7F0B4064610460023082544
:10341000002256F825701446E7FB013440F82530A9
:1034200023466D1E002DF4DA002150F8212012B938
:10343000491C0929F9DBC1F109024262B16A8162C2
:10344000F0BC21F0E9B900002DE9F04F9FB005462E
:103450000E4693460BAC48210BA8FEF7F8FE4FF042
:103460000009CDF87490CDF8789008230021082247
:10347000D7187F1C55F8238054F8270056F822A04F
:10348000401849EB090CE8FB0A0C614644F8270098
:10349000521E002AECDA5B1E002BE7DA0BA9002093
:1034A00051F8202012B9401C1228F9DBC0F112009B
:1034B0008864A86AB16A884201D0012000E0002037
:1034C0001E9000240BAD00E0641C55F8240008B9E0
:1034D000092CF9D31E980A9034490BAA1D988E6CBA
:1034E0000123B04201D9994619E018D3C0F1120066
:1034F00012E051F8206052F82070BE420BD051F813
:10350000201052F82000814202D24FF0010906E05B
:103510004FF0000903E0401C1228EADB9946B9F19C
:10352000000F01D104E0641C55F824000028FAD0F3
:1035300005EB840124226846FEF73AFE6946002026
:1035400051F8202012B9401C0928F9DBC0F109000C
:10355000486216E0684621F05FF968462022011DA6
:10356000FEF726FE55F826000890641C69460020E8
:1035700051F8202012B9401C0928F9DBC0F10900DC
:10358000486204F1090006461228E3D3684621F098
:1035900043F969465C4624222046FEF709FE099855
:1035A00060620A98A0621FB0BDE8F08F8088220098
:1035B00010B54342421E0A604B6088600020C8601C
:1035C00008614A61441E8C61CC610B628862002AEA
:1035D00002D00920486210BD0820486210BDFEE7F5
:1035E00001F7FFBA052800DB70470949096801F4B3
:1035F000E021B1EB004F08D0054A126822F4E02127
:1036000041EA0042024B1A6000BF00BFECE7000035
:1036100000A000402DE9F04100240823002751F8C4
:10362000236050F8235016EB040C47EB0708B5EB6A
:103630000C0C77EB080C07D234442C1B241C42F8EA
:1036400023404FF0010404E034442D1B42F8235082
:1036500000245B1E002BE2DA002052F8201011B982
:10366000401C0928F9DBC0F109005062BDE8F08177
:103670002DE9F04103460E461446996A00270125BC
:10368000B06A002906D088B3706A596A88423CD96A
:10369000284650E030B1224631461846FFF7E6F999
:1036A000A76256E0586A716A884201D9284615E037
:1036B00001D2384612E0C0F109000CE056F8202093
:1036C00053F820108A4201D9384607E001D2284633
:1036D00004E000F101000928F0D3284638B1224661
:1036E00031461846FFF796FFA76232E006E0224611
:1036F00019463046FFF78EFFA5622AE02246314682
:103700001846FFF7B3F9A56223E001D2384612E06C
:10371000C0F109000CE053F8202056F820108A422E
:1037200001D9384607E001D2284604E000F1010043
:103730000928F0D3284630B1224619463046FFF713
:1037400069FFA76205E0224631461846FFF762FF8F
:10375000A562A06A20B12046BDE8F041FFF7DEB9BE
:103760001049606A4A6A904212D801D23D460FE081
:10377000C0F109000AE051F8203054F820209342AB
:1037800001D93D4604E003D300F101000928F2D33A
:10379000002D05D02046BDE8F041024900F004B8F4
:1037A000BDE8F08154882200F0B5002308220026ED
:1037B00051F8225050F82240EF1846EB060CE71B58
:1037C00076EB0C0707D22B44E31A1B1C40F822307F
:1037D0004FF0010304E02B44E41A40F82240002398
:1037E000521E002AE4DA002150F8212012B9491CA7
:1037F0000929F9DBC1F109014162F0BD70B58CB056
:1038000004460B46A16A01260025986A002907D0C4
:10381000E8B3586A616A884251D840D22E464EE0D9
:1038200030B10CB02046BDE870401946FFF7F9B83A
:10383000606A596A884201D9354611E010D3C0F157
:1038400009000AE053F8202054F820108A4207D8D3
:1038500001D2354604E000F101000928F2D33546D3
:1038600035B10CB02046BDE870401946FFF79CBF4B
:1038700001AA21461846FFF7CDFE01A924222046C1
:10388000FEF796FC0A986062A6620CB070BDFFE776
:103890000CB02046BDE870401946FFF7C2B8C0F131
:1038A00009000AE054F8202053F820108A4201D978
:1038B0002E4604E003D300F101000928F2D36EB1D3
:1038C00001AA21461846FFF7A5FE01A92422204699
:1038D000FEF76EFC0A986062A562D6E70CB020463F
:1038E000BDE870401946FFF75FBFFEE7024909686F
:1038F00001F007010170704700A0004010B50022E0
:103900000021072800DB10BD144B1B6803F00703E0
:1039100083421BD0114B1B6823F0070242F00303C4
:103920000E4C23602346DB6823F0070141F00103BE
:10393000E36000BF00BF00BF00BF42EA0003074CC6
:103940002360074B53F820300B43E360054B53F8DB
:103950002030054C236000BFD5E7000000A00040E8
:10396000388722001C872200445400200448006845
:1039700000F00700034951F8200003490860704730
:1039800000A000401C872200445400200248016827
:1039900041F470010160704788ED00E00248006862
:1039A000001D14F0D7B90000787500200248406867
:1039B000001D14F0CFB9000078750020024880681F
:1039C000001D14F0C7B90000787500200248C068D7
:1039D000001D14F0BFB9000078750020FEE700005C
:1039E0000FB41CB50246002007AC00290BD0491EBD
:1039F000CDE90021054B6A462146069800F0C0FD3E
:103A0000009A002111701CBC5DF814FBBB4C200017
:103A10000FB4084B10B504A902AA039800F0B0FD3A
:103A2000044602A9002001F053F9204610BC5DF8BD
:103A300014FB0000D14C20007CB5044600201D463C
:103A4000164600290BD0491ECDE90041044B6A46B9
:103A50002946304600F094FD009A002111707CBD8B
:103A6000BB4C2000002809DB00F01F02012191401F
:103A70004009800000F1E020C0F88012704700008B
:103A8000002807DB00F01F0201219140024A430990
:103A900042F823107047000080E200E0002807DBB6
:103AA00000F01F0201219140024A430942F823100D
:103AB0007047000080E200E0002807DB00F01F02F2
:103AC00001219140024A430942F823107047000047
:103AD00080E200E000280BDB00F01F020121914092
:103AE000044A430942F82310BFF34F8FBFF36F8F8F
:103AF0007047000080E100E000280DDB00BF00BF40
:103B000000F01F02012191404209920002F1E022DF
:103B1000C2F8001100BF00BF704700280DDB00BFD6
:103B200000BF00F01F02012191404209920002F102
:103B3000E022C2F8001100BF00BF704700280DDB73
:103B400000BF00BF00F01F02012191404209920016
:103B500002F1E022C2F8001100BF00BF7047002848
:103B600004DB00F1E02090F80004704700F00F0043
:103B700000F1E02090F8140D7047002804DB00F1FC
:103B8000E02090F80004704700F00F0000F1E02002
:103B900090F8140D704700000146002902DB04482C
:103BA000405C7047034801F00F02121F805CF8E789
:103BB00000E400E018ED00E00146002902DB0448C3
:103BC000405C7047034801F00F02121F805CF8E769
:103BD00000E400E018ED00E00146002902DB0448A3
:103BE000405C7047034801F00F02121F805CF8E749
:103BF00000E400E018ED00E00146002902DB044883
:103C0000405C7047034801F00F02121F805CF8E728
:103C100000E400E018ED00E00146002902DB044862
:103C2000405C7047034801F00F02121F805CF8E708
:103C300000E400E018ED00E00146002902DB044842
:103C4000405C7047034801F00F02121F805CF8E7E8
:103C500000E400E018ED00E00146002902DB044822
:103C6000405C7047034801F00F02121F805CF8E7C8
:103C700000E400E018ED00E00146002902DB044802
:103C8000405C7047034801F00F02121F805CF8E7A8
:103C900000E400E018ED00E00146002902DB0448E2
:103CA000405C7047034801F00F02121F805CF8E788
:103CB00000E400E018ED00E002480068C0F30220D4
:103CC000704700000CED00E002480068C0F30220DD
:103CD000704700000CED00E002480068C0F30220CD
:103CE000704700000CED00E002480068C0F30220BD
:103CF000704700000CED00E002480068C0F30220AD
:103D0000704700000CED00E002480068C0F302209C
:103D1000704700000CED00E002480068C0F302208C
:103D2000704700000CED00E002480068C0F302207C
:103D3000704700000CED00E002480068C0F302206C
:103D4000704700000CED00E002480068C0F302205C
:103D5000704700000CED00E002480068C0F302204C
:103D6000704700000CED00E0002807DB00F01F02A8
:103D700001219140024A430942F823107047000094
:103D800000E200E0EFF311807047EFF3118070471D
:103D9000EFF311807047EFF311807047EFF311805C
:103DA0007047EFF311807047EFF311807047EFF326
:103DB00010807047EFF310807047EFF3108070476A
:103DC00010B52DED020B2DED088B84B09DED0C0B85
:103DD00051EC100BFEF75CFD41EC180B9DED0C0B4C
:103DE00053EC182B51EC100BFEF709FB41EC190BAF
:103DF0000D989FED290B10F0004F53EC102B51EC58
:103E0000190B9FED21AB9FED22BB0ED0FEF79CFD61
:103E10000ED953EC1B2B51EC190BFEF7ADFD1CD248
:103E200014E000BF41EC180B17E0FEF78DFD06D241
:103E300053EC1A2B51EC180BFEF7E1FAF2E753ECB6
:103E40001B2B51EC190BFEF797FD06D853EC1A2BE0
:103E500051EC180BFEF732FAE4E78DED028B9DED85
:103E60000C0B18EE901A10EE900A8DED000B61F31A
:103E70001E0003909DED020B04B0BDEC088B02B058
:103E800010BD000000000000000000000000F03F36
:103E9000000000000000E03F000000000000E0BF64
:103EA00002E008C8121F08C1002AFAD17047704703
:103EB000002001E001C1121F002AFBD17047C1B2EE
:103EC00081F311887047C1B281F311887047C1B284
:103ED00081F311887047C1B281F311887047C1B274
:103EE00081F311887047C1B281F311887047C1B264
:103EF00081F311887047C1B281F311887047C1B254
:103F000081F311887047C1B281F311887047C1B243
:103F100081F31188704780F31088704780F3108810
:103F2000704780F31088704780F31088704780F3E3
:103F3000108870472DE9F74F0446904600BF4FEABE
:103F40005806019D4FF0000B7448754908603F20EA
:103F50007449496860F30501724A516000BF00BFAF
:103F60001046406820F480301146486000BF00BF12
:103F70006B48006820F4700040EA0450684908600B
:103F800000BF00BF0846006820F4702040EA0440EB
:103F9000086000BF0D2C07D100BF0846006840F440
:103FA0000040086000BF00BF0E2C08D100BF5C4875
:103FB000006840F480405A49086000BF00BF4FF4D9
:103FC00000505749096821F400510143544A1160D7
:103FD00000BF00201146096821F0605101431160C3
:103FE00000BF04201146096821F00F010143116050
:103FF00000BF002000F006F9012801D0BDE8FE8FC7
:1040000000BF4748006840F080404549086000BF55
:104010004FF0000A0DE000BF4248806840F4803055
:104020004049886000BF0AF101008246401C00B987
:1040300003E017F039FE0028EDD100BF072000F0A3
:10404000E1F8012800D0D9E754E04FF0000B2CE054
:10405000BBF57A7F24D900BF3148006820F080404A
:104060002F49086000BF00BF0846006840F00040CC
:10407000086000BF00BF0846006820F000400860EC
:1040800000BF002000F0BEF8012800D0B6E72648A7
:104090000068401C24490860052009F68DF94EE7A8
:1040A000012009F689F90BF1010B17F0FDFD01283C
:1040B000CED100BF1B48806800F07F008146B1452B
:1040C00001D9304600E0484681464FF0000A0DE035
:1040D00000BF1448076800BF25F8027B4FF6FF7049
:1040E00000EA174025F8020B0AF1010ACA45EFD38E
:1040F000A6EB0906002EA8D15EB908F0010040B178
:1041000000BF17F0D1FD0128FBD100BF05480068B2
:104110002880002000F076F800BF6FE70A07080744
:1041200000A8004000E000407866002010B504467A
:1041300000BF00201A49086000BF00BF184980393D
:10414000086000BF00BF1748406A1749086008466A
:10415000007800F0010020B10846008800F480706B
:1041600098B906E00CB9002010BD641E012009F6C4
:1041700023F900BF0B48806940F20111884201D148
:10418000012000E000200028ECD008480068084921
:10419000086004484068074908600120E4E700001F
:1041A00094D41D4200E00040D466002000A80040E6
:1041B000CC660020D06600200D4800680D4948609C
:1041C0000D4800680D4908600D48007800F00100B6
:1041D00020B10B48008800F4807040B900BF05484A
:1041E000006A20F001000349086200BF00BF704769
:1041F000D066002000E00040CC66002000A800400F
:10420000D466002070B5044617F046FDA04201D1E7
:10421000012070BD00BF1048C06820F00700204397
:104220000D49C86000BF002508E017F035FDA04229
:1042300000D107E0012009F6BFF86D1C4FF6FF70B2
:104240008542F2D300BF4FF6FF70854201D10020B6
:10425000DFE70120DDE7000000E0004010B500BF0F
:10426000EFF3108004460120FFF758FE204610BDF2
:104270002DE9FF5F82B00021DDE90430020DDDF899
:1042800040B0034318D044F61050A2F2FF3242432C
:104290001514119801281FD0A5EB0B00401C5FEAF4
:1042A000000A4FF000064E4FDFF83891B0465046F6
:1042B00015D5CAF1000413E0119801244AA301287E
:1042C00001D16FEA0B010298119AC0E90031C0E9EF
:1042D000024206B0BDE8F09FCBF10000DFE70446E4
:1042E0000021404A491842EB0450CDE9001012E089
:1042F000E00707D032463B4640464946FEF785F880
:104300008046894632463B4610461946FEF77DF800
:1043100006460F466410002CEAD1DDE90401DDE910
:104320000023BAF1000F06DAFEF76FF842464B465B
:10433000FEF76BF805E0FEF7DAF842464B46FEF76B
:10434000D6F804460E460022284BFEF715FB03D88C
:104350004FF0FF30014607E00022254B2046314652
:10436000FDF7ACFFFEF7D8FA102409E0002C0ADBB9
:104370000A220023FDF7D8FE039B30321A55641E33
:1043800050EA0102F2D1641C039AC4F111031444EF
:10439000119A012A03D0012208430DD10AE00843F3
:1043A00004D000204FF0110B119072E7A3EB0B0526
:1043B0006D1E0DE05B4504DD4FF0000205F10105C7
:1043C00004E003DA4FF00002A5F10105002AECD069
:1043D00002981199C0E90231C0E9004579E700006F
:1043E000000014400000F03F300000000000F043E7
:1043F0000000E03F70B52DED108B8AB005460C46ED
:104400009FED510B8DED080B20216846FDF71FFF36
:104410009FED4D0BB0EE408AF0EE608A10226946A7
:104420002846FFF787FD00260FE006F108013DF85A
:104430001100FEF7EAF841EC190B53EC182BFDF7CD
:104440003DFF41EC180B701CC6B2082EEDDB9FED52
:10445000400B53EC102B51EC180BFEF748F841ECD5
:10446000180B0D2D41D1E08AFEF7CFF841EC1B0B64
:104470009FED390B53EC102BFEF739F841EC190B7B
:104480006088FEF7C2F841EC1F0B9FED350B53EC33
:10449000102BFDF7BAFF41EC1E0B9FED330B53ECD5
:1044A000102BFDF7B2FF41EC1C0BA08AFEF7ADF814
:1044B00041EC1E0B53EC182BFDF7A4FF41EC1D0B38
:1044C00053EC1C2BFEF713F841EC1B0B9FED280B54
:1044D00053EC102BFEF70BF841EC1A0B53EC192B95
:1044E000FDF7ECFECDE9080127E00E2D25D160880F
:1044F000FEF78BF841EC1C0B9FED190B53EC102BC6
:10450000FDF783FF41EC1A0B2088FEF77EF841ECA3
:104510001C0B53EC182BFDF775FF41EC1B0B53ECF8
:104520001A2BFDF7E4FF41EC190B9FED130B53EC35
:10453000102BFDF76AFFCDE908019DED080B0AB0CD
:10454000BDEC108B70BD00000000000000000000FA
:104550000000000000002040000000000000594062
:10456000000000000000F0BF00000000000000405C
:1045700079E9263108AC5CBFB76DDBB66DDB0E4068
:104580002DE9FF4F95B09B468946064600250FE270
:10459000252877D100242746F84A0121059400E018
:1045A000044316F8013F203B01FA03F01042F7D113
:1045B00030782A2811D06FF02F033078A0F1300224
:1045C000092A16D8059A44F0020402EB820203EB92
:1045D00042021044761C0590EFE759F8042B05922F
:1045E000002A03DA504244F40054059044F00204D7
:1045F000761C30782E2816D116F8010F44F00404EA
:104600002A280DD06FF02F023078A0F13003092B4B
:1046100009D807EB870302EB4303C718761CF3E7BF
:1046200059F8047B761C30786C280FD006DC4C28B7
:1046300017D068280DD06A2814D104E0742810D04F
:104640007A280FD10DE044F400140AE044F48014F9
:1046500001E044F440147278824202D104F58014DF
:10466000761C761C307866280BD013DC582877D05F
:1046700009DC002875D04528F6D04628F4D0472814
:104680001AD19DE118E0632835D0642879D06528D7
:1046900012D195E1702873D008DC6728F1D0692821
:1046A0006FD06E280DD06F2806D1B5E073282CD0BE
:1046B000752875D0782874D05A46179990476D1C84
:1046C00075E1C4F30250022809D003280DD0D9F8AF
:1046D000001004280DD00D6009F1040967E1D9F834
:1046E0000010EA17C1E90052F6E7D9F800100D8072
:1046F000F2E70D70F0E719F8041B8DF800100020A8
:104700008DF80100EA46012003E059F804AB4FF0B0
:10471000FF3061074FF0000102D40DE008F1010104
:104720008846B9420FDA8045F8DB1AF808100029EC
:10473000F4D108E008F1010188468142FADB1AF859
:1047400008100029F6D105985B46A0EB0807214622
:104750003846179A00F094FA284400EB080507E061
:104760004DE029E10DE01AF8010B5A4617999047E0
:10477000B8F10108F7D25B4621463846179A13E193
:1047800042E00A220092C4F302524FF0000A022AC9
:1047900008D059F804CB032A4FEAEC710AD00DE097
:1047A00029E02AE009F1070121F00702F2E802C13D
:1047B000914609E00FFA8CFC4FEAEC71042A03D110
:1047C0004FFA8CFC4FEAEC71002907DA0A46002107
:1047D000DCF1000C61EB02012D2202E0220504D580
:1047E0002B228DF80420012203E0E20701D02022D1
:1047F000F7E7904659E00A2102E010220DE010216F
:104800004FF0000A00910BE010224FF0000A44F034
:1048100004040827009203E008224FF0000A0092E7
:10482000C4F30252022A05D059F804CB0021032A0E
:1048300008D009E009F1070121F00702F2E802C1FE
:10484000914605E01FFA8CFC042A01D10CF0FF0C04
:104850004FF00008220728D5702806D0009B83F06F
:10486000100353EA0A0305D00EE040228DF804201D
:10487000012208E05CEA010206D030228DF8042013
:104880008DF8050002229046009B83F0080353EA4E
:104890000A030AD15CEA010201D1620705D5302280
:1048A0008DF804204FF001087F1E582804D034A052
:1048B00003900EA802900DE036A0F9E7534660463B
:1048C000009AFDF731FC84460398825C0298401EF2
:1048D000029002705CEA0100F0D1029806A9081A61
:1048E00000F1200A600702D524F4803400E001279B
:1048F000574502DDA7EB0A0000E0002000EB0A01AB
:10490000009005984144401A0590E00306D45B46A8
:104910002146179A059800F0B3F90544002706E0F0
:1049200001A85A46C05D179990476D1C7F1C4745EA
:10493000F6DBE0030CD55B462146179A059800F09C
:104940009FF9054404E030205A46179990476D1CA2
:104950000099481E00900029F5DC08E002980299B1
:104960005A460078491C0291179990476D1CBAF17C
:104970000001AAF1010AF1DC65E10000092801004B
:1049800030313233343536373839616263646566C5
:104990000000000030313233343536373839414287
:1049A000434445460000000000F058F90544761CD9
:1049B000307800287FF4ECAD19B02846BDE8F08FC0
:1049C000620700D4062709F1070222F0070CFCE871
:1049D0000223E14603F000485FEA080C02D00FF220
:1049E000702C0DE05FEA045C02D50FF2682C07E042
:1049F0005FEAC47C02D00FF2602C01E0AFF2700CD1
:104A00004FF0FF3823F00043CDF850C065280CD09C
:104A100006DC452809D046281DD047283DD13DE079
:104A2000662818D067287ED138E00021112F01DBDD
:104A3000112000E0781CCDE9000106A90EA8FFF7BF
:104A400017FCDDE90F010E9A03910021009207F196
:104A5000010A04914DE04FF000400097CDE90110AC
:104A600006A90EA8FFF704FCDDE90F0203920E9BD6
:104A700011990022DDF80CA00093049211B9791C61
:104A800000EB010AB7EB0A0004D4C0F1FF3007F1D4
:104A9000010A0490AAEB0700019044E0012F00DA1C
:104AA00001270021112F01DD112000E03846CDE95A
:104AB000000106A90EA8FFF7DBFBDDE90F010E9A46
:104AC0000391002104910092BA4621070CD4039966
:104AD000514500DA8A46BAF1010F05DD009AAAF1C4
:104AE0000101515C302908D0B84202DA10F1040FFC
:104AF00006DA0121CDE9011015E0AAF10101E9E78B
:104B0000002805DC049901440491AAEB000102E0AD
:104B1000411C514500DD8A460499401A401C019011
:104B20004FF000400290200704D40198504501DB6B
:104B3000CDF8048000208DF84F0002980DF14F074A
:104B4000B0F1004F25D02B200E9002984FF00208B4
:104B500000280CDA404202902D200E9007E00A2136
:104B60000298FDF7B9FD3031029007F8011DB8F148
:104B70000001A8F10108F2DC02980028EFD1791EAB
:104B80000E980870307800F0200040F0450007F8DB
:104B9000020D12A8C01B00F107081498007800B19C
:104BA000012000EB0A01019801EBE07105984144F6
:104BB000401A401E0590E00306D45B462146179A32
:104BC000059800F05DF805441498007818B15A462D
:104BD000179990476D1CE00324D55B462146179A30
:104BE000059800F04DF805441CE00498002807DB08
:104BF000DDE90301884203DD0098405C179901E07C
:104C0000179930205A469047049805F10105401C39
:104C100004900198401E019004D12E205A46179905
:104C200090476D1CBAF10001AAF1010ADDDC05E034
:104C300017F8010B5A46179990476D1CB8F10001FF
:104C4000A8F10108F4DC5B462146179A0598ABE60B
:104C50002D0000002B000000200000002DE9F04195
:104C6000044600251E461746880404D405E039464C
:104C70002020B0476D1C641EF9D52846BDE8F081A0
:104C80002DE9F041044600251E469046C80301D593
:104C9000302700E02027880404D505E04146384647
:104CA000B0476D1C641EF9D52846BDE8F08110B5EB
:104CB00004462046FFF732F910BD4A68002A06D0A4
:104CC0000A68531C0B6010704868401E48607047AB
:104CD0000A68531C0B601070704710B504462046DC
:104CE00014F044FC10BD10B5044620461BF042F9F8
:104CF00010BD70B504460D462946204621F056F8F1
:104D0000294620461AF09AF970BD0000084800684C
:104D100040F0010006490860064807490860074856
:104D200048600748886007490748416770470000A6
:104D3000E4670020B1F320002C33012009F32000A8
:104D400039E92000D91F2100B46200202DE9F0418B
:104D500016461D46DDE90623074688460D497C2098
:104D600000F67EFB044684F838502022414604F1C8
:104D70003900FDF71DFA2022394604F15900FDF7EC
:104D800017FA04F1380231462046BDE8F0414123CC
:104D900000F640BE994D200000F69ABD2DE9F0477F
:104DA0001D46DDE9086A0A9B8146884617460022AF
:104DB0001A49A42000F654FB044600213D3484F82F
:104DC000641044F805ACE173012020743068C4F825
:104DD0001100B088A4F81500B079E0752868A061CA
:104DE000A888A083A879A0773D3C1022394604F119
:104DF0005C00FDF7DDF91022414604F16C00FDF77F
:104E0000D7F907480068E0674A462046BDE8F04702
:104E100003492023091D00F6FDBD0000254E20009A
:104E20006C9722002DE9F04704468A464FF00008AF
:104E30005146204600F64CFDF8B194F8A1004FF021
:104E4000010904F14C0704F13C0530B104F181067D
:104E5000012813D002282FD121E0102251462846E4
:104E6000FDF7A6F9002084F8800084F8A19035238E
:104E70003A462946204600F6CDFD1DE01022514657
:104E80003046FDF795F984F88090022084F8A1005F
:104E900035233A462946204600F6BCFD0CE0102298
:104EA000514604F19100FDF783F9A36B31460020D0
:104EB000626998474FF001084046BDE8F08700005E
:104EC0002DE9F05F1546DDE90B9A1E46DDF82880D6
:104ED000DDE90D2383460F461D497C2000F6C0FA0C
:104EE00004461022394604F16900FDF761F91022E9
:104EF000294604F15900FDF75BF91022314604F10F
:104F00004900FDF755F93834B8F80000E08198F809
:104F100002002074D9F80000C4F80700B9F80400B2
:104F2000A4F80B0099F806006073DAF8000020601E
:104F3000BAF80400A0809AF80600A071383C04F189
:104F4000380259462046BDE8F05F412300F662BDB5
:104F5000554F200000F6BCBC2DE9F04115461E4619
:104F6000DDE9062380460F460F49882000F678FACF
:104F700004462022414604F16800FDF719F9202279
:104F8000394604F14800FDF713F9314604F13800C1
:104F900010220646FDF70CF9324629462046BDE8A8
:104FA000F041502300F636BDAD4F200000F690BC16
:104FB00001481FF01FBD00005C5D002010B5044CCF
:104FC0002278002A03D107F00BFD0220207010BDCB
:104FD000F05D002010B50F4C2078002803D06088C9
:104FE000401C608010BD4FF480620B49012001F02D
:104FF0003FFB01202070C4020022214600F0B0FADD
:10500000012008F6D3F921460122BDE810401046E0
:1050100000F0A6BA54600020B02201201CB5002088
:105020000190441E0198C10704D020F001000190B6
:1050300006F082FC0021224601AB0846009422F0D3
:1050400057FCEFE710B586B000224FF4FA6109482B
:1050500000F0DEFF0446002C09D01422064901A806
:10506000FDF7A6F8ADF8084001A800F05BF806B01F
:1050700010BD0000B81D01208C8322001CB506481D
:105080000921CDE9001000234FF4006203A1064876
:1050900022F032FB1CBD0000446000206170705F94
:1050A00062745F7461736B001D5020000EB50DA11A
:1050B00040F2BE22CDE900210290104B10A216A1B1
:1050C000022000F073FC164801F034F81448283030
:1050D00001F030F81248503001F02CF8BDE80E40D5
:1050E00008F05EBD446973636F6E6E6563746564DA
:1050F0002028307825303258292E0000A083220045
:105100002E2E5C5372635C757365725C7573657289
:105110005F6170702E6300004E4F5F544147000086
:10512000B81D01203EB504464FF400711A48FDF742
:105130008EF8207810B1012819D01DE00021174801
:10514000A28830F831309A4207D100EBC10014A197
:1051500043681148FEF75CFC0EE02E2902D0491C82
:10516000C9B2EEE714A10C48FEF752FC04E01DA101
:1051700009486268FEF74CFC074921A22069CDE985
:1051800001210090D4E902231EA1002000F00EFCB2
:10519000BDE83E4000F0D6BBF8760020107E22002D
:1051A0004572726F7220636F6465203078253034E9
:1051B000583A2025730000004572726F7220636FA9
:1051C0006465203078253034583A204E6F20666F61
:1051D000756E6420696E666F726D6174696F6E2E94
:1051E0000000000028257329206973206E6F742049
:1051F00065737461626C69736865642E00000000F9
:10520000257300006170705F6572726F722E6300AB
:1052100070B504460D460121204602F04BFF70BDDB
:105220002DE9F041014600291BD000240F4E0E4A03
:10523000357814E002EB04100F780378BB420CD1F0
:105240004B684068034208D0707808B900F04CFB06
:105250002046BDE8F04100F07BBA641CE4B2AC42E9
:10526000E8D3BDE8F08100002C790020705D0020BB
:105270007CB505460E46002D01D0002418E0E5203F
:105280007CBD05EB041041680091017A8DF8041093
:10529000417A8DF8051008218DF80610C268007853
:1052A0000023694600F038F80028E9D1641CE4B214
:1052B000B442E6D300207CBD10B502460846052A5C
:1052C00025D2DFE802F0030303111900114951F858
:1052D00032200104090C05D022B10146104611F01C
:1052E0002DFB10E0E42010BD10F0FF0F02D010F0F5
:1052F00039FC08E0E42010BD10F0FF0F05D0014696
:10530000002011F02DFC002010BDE42010BDE6208F
:1053100010BD0000047D22002DE9F05F05460C461B
:105320009046994626680027042D11D0314628461C
:10533000FFF7C2FF2146284600F05EF8002808D19A
:10534000032D08D04FF0100A2807070E002448E06C
:10535000E620BDE8F09F4FF0080AF7E7F0073DD0E0
:105360003DB1012D05D0022D03D0032D21D0E62023
:10537000EFE71E4800EBC50090F904B0BBF1000F49
:1053800015D0EFF31081012080F31088184AE0193E
:1053900042F8308002EBC000C0F8049081F310881E
:1053A000584614F60DFF584614F628FF16E0E42080
:1053B000CFE7EFF31081012080F310880D4AE01948
:1053C00042F8308002EBC000C0F8049081F31088EE
:1053D0001B2014F6F5FE1B2014F610FF7608641C43
:1053E000E4B25445BAD30020B3E70000047D2200A4
:1053F000E0730020E074002030B597B005460C46FD
:105400001C22454910A8FCF7D3FE1C2242491C313E
:1054100009A8FCF7CDFE20223F49383101A8FCF74E
:10542000C7FED4B13D4906201FF0EEF93C490720E4
:105430001FF0EAF93B491B201FF0E6F93A49122018
:105440001FF0E2F934496C39A1F12C02052D61D22B
:10545000DFE805F0060606213900E52017B030BD6B
:10546000207931F810001190607932F81000129014
:10547000A0791390206810902748843850F83500A0
:1054800021880904090C04D018B110A911F047FBB8
:1054900039E0E420E2E7207901EB4000808A0A90BD
:1054A000607902EB4000C0880B90A0790C902068D6
:1054B0000990207810F0FF0F03D009A810F036FCF7
:1054C00021E0E420CAE72079031F042B01D8E7205C
:1054D000C4E7022819D001200290207901EB400096
:1054E000008D0390607902EB400080890490A079E0
:1054F000059020680190207810F0FF0F08D001A9D6
:10550000002011F0E1FB0020A8E702200290E4E770
:10551000E420A3E7E620A1E7887D22002D401000CB
:1055200027401000234010001D40100002460020BC
:10553000052A11D2DFE802F0030303090C00074833
:1055400050F8320089B214F69ABD88B210F05CBCF3
:1055500089B2002011F0C0BB70470000047D22001A
:1055600010B50B461146002903D0012901D0E420D3
:1055700010BD05281CD2DFE800F00303030F130061
:105580000C4A52F8300028B19BB20A46194614F66C
:1055900089FD0BE0E42010BD98B210F047FC05E057
:1055A00098B20A460146002011F0A8FB002010BD69
:1055B000E62010BD047D2200002803D002490860C7
:1055C0000120704700207047785D002070B50546C7
:1055D0000024091F062917D2DFE801F003070C1188
:1055E0001315284600F0A4F80EE00124284600F028
:1055F0009FF809E00224284600F09AF804E003240A
:1056000002E0042400E00524034A214628461268EB
:10561000BDE8704010470000785D00202DE9F041A2
:105620000446204600F0AEF801462E480023082626
:10563000025D00F10A0700F11405AAB1052A33D072
:10564000082A2AD1092945D0082926D1295D491CD3
:10565000C9B22955142920D32B5506552046BDE83B
:10566000F0410821FFF7B2BF052913D0042916D055
:10567000072914D0082910D1295D491CC9B2295520
:1056800014290AD32B5506552046BDE8F0410821C0
:10569000FFF79CBF3B5505210155BDE8F081204631
:1056A000BDE8F041FFF792BF05290CD0395D491CD8
:1056B000C9B239553229F0D303552046BDE8F0412F
:1056C0000521FFF783BF03552046BDE8F0410621C1
:1056D000FFF77CBF03552046BDE8F0410921FFF7E5
:1056E00075BF00000C7A002070B504460D4600F02E
:1056F0000FF808B100F00EF90348044A2946005D8E
:105700005268BDE87040104720790020705D00208D
:105710000020064911F810200AB100207047401CF3
:10572000C0B20A28F6D30120704700002A7A002070
:105730000349002201F8102001EB4000427070473D
:105740002A7A0020014A02F8101070472A7A0020B5
:10575000024A012102EB4000417070472A7A002082
:1057600070B50024064D05EB4400407810B120468A
:10577000FFF754FF641CE4B20A2CF4D370BD0000A0
:105780002A7A002070B500211D4B03F132051A5C06
:10579000002A09D0002403F10A06012A0AD0022AAD
:1057A00012D0032A24D11FE015F8102002B30122E1
:1057B0001A541DE015F810201AB1345402221A545C
:1057C00016E01C54042113E015F810204AB1325C95
:1057D000521CD2B23254642A0AD3072103221A542B
:1057E00006E005211C5403E015F8101011B1082142
:1057F000084670BD1C54FFF79BFF0921F8E7000025
:10580000F8790020704700002DE9F0410E46174658
:105810000A2E02D80FB100231AE00020BDE8F08163
:1058200003EB430400EB8405114AA97AD1541049D3
:1058300010F824200C3101EB0314227069686160B8
:10584000297A2172697A61720A49E1605B1CDBB2D4
:10585000B342E5D3064831460C30FFF709FD064850
:10586000067047600548FFF7A7FE0120D6E7000055
:105870002079002021522000705D0020E956200090
:105880002DE9F0410024124FDFF8488019E000268E
:1058900007EB041528786968FFF748FE10B9697AA4
:1058A000012902D0012802D005E0012603E0687A30
:1058B000022800D1012631462046FFF743FF641C31
:1058C000E4B298F800008442E1D3BDE8F081000022
:1058D0002C790020705D002010B5FFF7D1FFBDE8E6
:1058E0001040FFF73DBF000010B5074A01210748EF
:1058F00000F0F0F900220A21044800F089FB044975
:105900000120487010BD0000D9582000D079002037
:10591000705D002010B5034800F00AFA024900202B
:10592000487010BDD0790020705D0020002806D09E
:10593000002904D0024AD269002A00D010477047DB
:10594000D07600200248006A002800D00047704747
:10595000D076002070B50D4616460D4C00280AD0B2
:105960000178032911D80121A17601461A22204687
:10597000FCF71EFC05E00020A0761A210448FCF785
:1059800066FCE5612662002070BD012070BD00004C
:10599000D0760020044A1044807D084201D00120C6
:1059A0007047002070470000D07600202DE9FE4FA0
:1059B0000746924699460024A046CDF80480CDF8CB
:1059C000088059480178B94202D2807E00287DD1F2
:1059D0000EAD0095EFF311860220FEF7CEF8834658
:1059E000FEF772F9401C012181400BEB0100C0B2AF
:1059F00080F3118801213846FFF7CCFF38B14B48BE
:105A00004B4950F82720204600F0D0F804461C21CE
:105A10003846FFF7BFFF00285ED046A24449204623
:105A200000F0C4F8204484B204213846FFF7B2FFE6
:105A3000F8B152463E49204600F0B8F8204484B2FE
:105A400008213846FFF7A6FF38B13BA23849204667
:105A500000F0ACF8204484B20BE010213846FFF788
:105A600099FF30B135A23249204600F09FF820441A
:105A700084B208213846FFF78DFF90B14A462C4981
:105A8000204600F093F8204484B210213846FFF7F6
:105A900081FF30B12AA22649204600F087F8204431
:105AA00084B210213846FFF775FF60B126A20521A8
:105AB00001A80C9BFDF794FF01AA1D49204600F0A8
:105AC00075F8204484B221A2194900E029E020465B
:105AD00000F06CF8204484B21548C4F5807120446D
:105AE0002B460D9AFDF7A8FFCDF800804FF480718A
:105AF000002804DB2044884201DC85B200E00D462A
:105B0000A81C884200D9FE2511A20949284600F0A8
:105B10004DF8284481B20648FFF708FFF0B280F341
:105B20001188BDE8FE8F0000D07600204C5D00207B
:105B3000D075002028000000200000003A0000007E
:105B4000204C696E653A0000256C64002920000035
:105B50000D0A00000FB4F8B507AC0094EFF31185FF
:105B60000220FEF70AF80646FEF7AEF8401C0121B7
:105B700081407018C0B280F3118823464FF48074BE
:105B800021460948069AFDF757FFA04201D881B285
:105B900000E021460448FFF7C9FEE8B280F311880F
:105BA000F8BC5DF814FB0000D075002030B5054648
:105BB000002000290CD0002A0AD006E02B18FF2B69
:105BC00006D8CC54521C401C80B21478002CF5D15D
:105BD00030BD000010B5074A06214CF2010019F053
:105BE00051FD05F073FC08F065FCBDE81040022093
:105BF0003EF608B80681220010B508480178002951
:105C00000AD10121017006483DF6FEFEBDE81040B4
:105C1000002104483EF68EB810BD0000485D00200B
:105C200041401000491422007047000070B58CB04C
:105C300006460C46002C31D0242103A8FCF707FBB4
:105C40002178012511B1032924D105E000208DF828
:105C50000C008DF80D501DE011A040F29521CDE90A
:105C60000010114B11A217A10220FFF79FFED4F8DC
:105C7000011016A040F29622CDE9002002910A4BB5
:105C80000AA210A10220FFF791FE03208DF80C005C
:105C90008DF80D5003A9304605F03CF90CB070BDED
:105CA0006E63207265710A00708322002E2E5C5391
:105CB00072635C757365725C757365725F61707039
:105CC0002E6300004E4F5F54414700006E756D3DDE
:105CD00025640A002DE9F04104460D461746002DC3
:105CE00004D0012D02D00120BDE8F081E4B1DFB184
:105CF000607801281AD0EFF311860220FDF72FFFFC
:105D00008046FDF7D9FF401C0121814008EB0100CE
:105D1000C0B280F3118800206070A570E761F0B216
:105D200080F311880020DFE70120DDE70620DBE7B4
:105D300010B50446002C0CD0204600F0FBF9FF20E3
:105D400060700021A160E160216161610020E0617B
:105D500010BD012010BD000010B586B01C4A012105
:105D60001C48FFF7B7FF04464CB114221A4901A89A
:105D7000FCF71EFAADF8084001A8FFF7D3F9154863
:105D8000164A01212830FFF7A5FF044654B114221A
:105D90001149143101A8FCF70BFAADF8084001A82D
:105DA000FFF7C0F90B480E4A01212838FFF792FF90
:105DB0000446002C0AD014220749283101A8FCF718
:105DC000F7F9ADF8084001A8FFF7ACF906B010BD2F
:105DD00015882100E01D012034832200E52A2200DD
:105DE000A5692000F0B5DDE90745059981614FF40B
:105DF0007A76A2FB061C03FB06C3002702FB0732D0
:105E0000C0E9021209196A41C0E9041200210162C5
:105E1000F0BD00002DE9F0410446002C13D0EFF353
:105E200011850220FDF79BFE0746FDF745FF401C4C
:105E3000012606FA00F03844C0B280F311881248F7
:105E4000002121620EE00020BDE8F081D4E9043297
:105E5000D1E9047CDB1B72EB0C0202D2016A2162E5
:105E600003E00846016A0029F0D104626670064822
:105E700010380168491C0160016B4160E8B280F391
:105E800011880120E0E70000987500202DE9F0411D
:105E900005460024EFF311860220FDF760FE074659
:105EA000FDF70AFF401C012181407818C0B280F341
:105EB0001188134A106BE8B115B102F1100010E01F
:105EC0000446206A10631068401E10600CE0A9426E
:105ED00006D11168491E1160296A01622C4603E04F
:105EE0000846016A0029F2D124B1002020626070C6
:105EF000106B5060F0B280F311882046BDE8F0814D
:105F0000887500202DE9F041EFF311870220FDF79D
:105F100026FE0446FDF7D0FE401C0121814060189A
:105F2000C0B280F31188114D002608E020780128C6
:105F300004D1E16909B1A069884726702D6A2C6AED
:105F4000002CF3D1094D103D07E0E16909B1A069CA
:105F500088472670206AA8632662AC6B002CF4D1B7
:105F6000F8B280F311880120BDE8F0819875002017
:105F70002DE9F041EFF311870220FDF7F0FD044613
:105F8000FDF79AFE401C012606FA00F02044C0B23C
:105F900080F311881D4DA5F110082DE0D4E90430DF
:105FA000D8E902125B1A60EB0200D8E91021D21A7C
:105FB000814124D326702046FFF768FFA07801288E
:105FC00006D01248283000212162016861B10FE03B
:105FD000D8E90220D4E9021351185841C4E9041049
:105FE0002046FFF717FF07E0046005E001F12000FD
:105FF00001680029FAD104602C6A002CCED1F8B2D5
:1060000080F311880120BDE8F08100009875002020
:106010002DE9FF5F82460E4693464FF00008BAF125
:10602000000F20D0414886421DD8E6B1EFF311871A
:106030000220FDF794FD0446FDF73EFE401C0121C1
:1060400081406018C0B280F31188504613F072FB93
:1060500010B19AF8010040B1F8B280F311880F2016
:1060600004B0BDE8F09F0120FAE718F0F5FE044601
:106070000D464FF47A7106FB01F022462B460021B3
:1060800013F018FBDFF8A890B0B1D9F8040048B1BC
:10609000D0E90410091B60EB0500C9E9021018F0F3
:1060A00055FF04E00021C9F80810C9F80C104FF0A2
:1060B0000108D9E9020106E0D9F80400D0E9042179
:1060C000101B61EB0501CDE9020132460023CDF83A
:1060D00000B05046FFF786FE5046FFF79BFE1EF0CD
:1060E00051FA4FF0E024D4F800014FF0806510F031
:1060F000806F01D0012000E0002020B91A20FDF7B8
:10610000B1FCC4F80051B8F1000F0AD0D9F804006E
:10611000D0E90431D9E90202181A61EB020118F042
:10612000D1FEF8B280F31188002099E7008AB90700
:10613000887500202DE9F04104460025002C39D057
:10614000EFF311870220FDF70AFD0646FDF7B4FDC7
:10615000401C012181407018C0B280F31188607822
:10616000012824D1144E7068A0420BD118F074FE9F
:10617000D4E90432181A62EB0102C6E9020218F0EF
:10618000E5FE01252046FFF781FE5DB1706848B14C
:10619000D0E90421D6E90203101A61EB030118F0DB
:1061A00091FE04E01DB9706808B918F0CFFEF8B28E
:1061B00080F31188BDE8F0818875002070B5044631
:1061C000042C01D3E82070BD0E4D55F82400B8B161
:1061D00090F86C10A1B170301CF0FEFA55F8240054
:1061E000001D11F0F1FA0028EDD155F8241001201E
:1061F00081F8020155F8241081F80301002070BDD8
:10620000E52070BD7875002070B50446042C01D3DC
:10621000E82070BD0A4D55F8240070B190F86C105C
:1062200059B1001D11F034FB0028F2D155F82410AB
:10623000012081F80301002070BDE52070BD000041
:106240007875002070B50446194D2178E86800295A
:1062500022D002292AD1A18806F098FBFD2813D06C
:10626000F12815D0002028702A6912B1A188E868A9
:106270009047A988E868FBF7EAFFAA88E968BDE8C3
:106280007040002000F0F4B9FD201FF0B3FDF0E7EE
:106290000849BF200860ECE7A988FBF7D8FFAA8867
:1062A000E968BDE87040002000F0E2B970BD000070
:1062B000F05D0020000002202DE9F0410446042C8E
:1062C00002D3E820BDE8F081364D55F82400C0B176
:1062D00090F86C10A9B1406E41680078FEF7ECFFB1
:1062E0000028EFD155F82400406E0169007BFEF7CD
:1062F000E3FF0028E6D155F824008169222902D065
:1063000012E0E520DEE7406E816A90F82400FEF797
:10631000D3FF0028D6D155F82400406EC169007E15
:10632000FEF7CAFF0028CDD11F4800EBC40090F94A
:10633000010013F652FF55F82400002780F86C7016
:1063400055F8240080F8007155F8240080F8017198
:1063500055F8240080F8027155F8240080F8037184
:10636000EFF31086012080F31088002055F82010EC
:1063700011B191F86C1029B9401C0428F6D3012002
:106380001BF0E8F886F3108855F82400001D11F082
:106390004DFB55F8240090F86D0008B945F82470BD
:1063A00000208FE778750020F07D220070B504464C
:1063B0001A4D55F8240070301CF030FA82B216469F
:1063C000A2B155F8240090F8011101290ED0012145
:1063D00080F80411802A0FD355F82400802200F1A0
:1063E000800170301CF06BFA80260CE055F8241008
:1063F000002081F8000170BD55F8240000F18001F3
:1064000070301CF05CFA55F82400324600F180012F
:10641000001D11F0BDFD0028EDD170BD7875002084
:10642000704700002DE9F84304464D4F57F824000B
:10643000061D042C7ED290F86C1000297AD0012918
:1064400078D190F80011012974D190F80111002938
:1064500070D1012180F80111002157F82400D0E902
:1064600003231344027D02F00102D21D9D184268ED
:10647000D36FC3F38003002BFAD090F80421A2B1AC
:10648000384A1368491C90F83B20102A06D08268CD
:10649000B3FBF2F26A43B1EBC21FF3D957F8240001
:1064A00070301CF0BBF985B226E0B0F82480C58CB2
:1064B000001D11F057FA57F8240041F2883300EB21
:1064C0000801491B8031001D2A4611F013FDE5E744
:1064D00057F824000122703069461CF0F0F957F893
:1064E00024004068C16FC1F340010029FAD09DF833
:1064F000001001606D1EADB2002DE9D157F82400E7
:1065000070301CF08BF90028C8D130684169490609
:10651000FCD5EFF31085012080F3108857F8240094
:1065200070301CF07BF968B1EFF31081012080F32B
:10653000108800E011E03068426842F08202426058
:1065400081F3108857F82410002081F8000157F8D3
:10655000241081F8010185F31088BDE8F88300005C
:1065600078750020445400202DE9F04105460F467F
:10657000002D06D02AB12C78042C04D3E820BDE8E5
:10658000F081E520FBE7344E05F1580046F8240081
:10659000D2E900310A46703019461CF02AF9291D4B
:1065A000286D1FF0A7FD0028E9D156F82410281DFA
:1065B000486656F82400076056F824001822083070
:1065C00005F14001FBF7F4FD244856F8241000EBD8
:1065D000C4056868486056F82400001D11F026FACA
:1065E00056F82400001D11F011FB1C480122032164
:1065F00010381AF097FF56F82410012081F86C002B
:1066000056F82410002081F8000156F8241081F873
:10661000010156F8241081F8020156F8241081F87F
:1066200003010F490C201EF0EFF80E490D201EF05B
:10663000EBF80D4934201EF0E7F80C4935201EF028
:10664000E3F895F9010013F6BBFD95F9010013F687
:10665000D5FD002093E7000078750020F07D220032
:106660009D392000AD392000BD392000CD392000F2
:1066700070B5042801D3E82070BD134C54F82030C5
:106680004BB193F86C5035B139B132B193F8035135
:10669000012D04D010E0E52070BDE42070BD002580
:1066A00083F8035154F820305B680225C3F8885002
:1066B00054F820305B681B6854F82000001D11F06E
:1066C000B1FB0028EAD170BD787500202DE9F041BA
:1066D00004461A4D55F8240070301CF09FF882B221
:1066E000164600277AB155F8240090F801110129C7
:1066F00009D0802A0ED300F18001703080221CF076
:10670000DEF880260BE055F8240080F800710020A8
:10671000BDE8F08100F1800170301CF0D0F855F830
:10672000240080F8047155F82400324600F18001FD
:10673000001D11F095FC0028EAD1E9E778750020EA
:1067400070B50446042C01D3E82070BD184D55F8EF
:10675000240090B190F86C307BB181B17AB1002601
:1067600080F8026155F8240070301CF0ECF855F800
:10677000240090F8001121B10AE0E52070BDE4206A
:1067800070BD90F8011119B990F86C10012901D071
:10679000E22070BD012180F800112046FFF796FF2E
:1067A00020B155F8241081F8006170BD002070BD43
:1067B0007875002070B5042801D3E82070BD0C4D19
:1067C00055F820407CB194F86C6066B169B162B153
:1067D000002684F8026155F82000001D11F08AFBA4
:1067E0000028EBD170BDE52070BDE42070BD000035
:1067F000787500202DE9F74F84B005460C46022637
:1068000004F1080920460EF04FFE07463E48D0F836
:1068100004A000200390B5F5804F0ADBB5F5004FCA
:1068200007DA3948406839490968A0EB010A0120B4
:106830000390E019504501DD052662E0324800680A
:1068400000F6FF7030490988491EC1F30B01401A58
:10685000C0F3073B039810B12C48006800E000200B
:1068600002902B4800682B490968401A001F2649EE
:10687000497AA1EB0B01A0EBC10023490968411A39
:106880000298A1EB000809EB0700404532DD00202B
:1068900011231E224FF400410090012040F6AEFF6C
:1068A000002108460EF0ACFCC8B91749487A12F02E
:1068B0008BFD06461EB1304607B0BDE8F08F0020C4
:1068C00012231E224FF400410090012040F696FF53
:1068D00021462846069A20F08FF9064610E000204F
:1068E00013231E224FF400410090012040F686FF42
:1068F0000F2605E021462846069A20F07DF9064637
:1069000000BF3046D8E700007C380120C06400207A
:10691000CC640020C464002010B500210A4C002380
:10692000002001EB410202EBC10204EB420222F81B
:106930001030401CC0B20A28F9D31375491CC9B2E3
:106940000A29EDD310BD00000C3E01203EB50546DE
:106950001A20124B1B7899421FD8C1EBC10101EBE1
:1069600041030F4901EB8304627104EB450149893E
:10697000012912D100208DF80000221D218902205A
:1069800019F03CFBADF802000120ADF80400641DD5
:1069900002946946284602F011FE3EBDEC5D0020DF
:1069A000F47E002010B586B00E49A1F134001DF030
:1069B000FCFCC2B20B484638827000210846FFF743
:1069C000C5FF04461A2C0BD0002C09D0142206490E
:1069D00001A8FBF7EDFBADF8084001A8FEF7A2FB0C
:1069E00006B010BD3A5F00204481220008480068CC
:1069F00000280CD090F82E10012908D190F8300012
:106A0000FF2804D20349086840F08060086070479E
:106A10009C09002000000E4010B586B00446684670
:106A20003EF69CF99DE80E0003A80EC00B4A891C97
:106A300021F07041516010463EF660FB07483EF67B
:106A4000D1FB207F002806D1054991F80101054AB4
:106A500001EB0010426006B010BD0000E0200020F5
:106A6000F4200020A5E72100F0B5ADB005460E46A4
:106A70000024AC620CA82421FBF7E9FB15941694C2
:106A800001A82421FBF7E3FB0A940B9422A82422FB
:106A90002946FBF78DFB686A2B90A86A2C908A4DDB
:106AA00017A824222946FBF783FB686A2090A86A6E
:106AB000219001251495099415950A95C8E022AFF7
:106AC0004FF0000C0022214657F82200401844EBFA
:106AD0000C0149084FEA300147F8221020F001016B
:106AE000B0EB010C02F10102092AECD3002057F8A7
:106AF000201011B9401C0928F9DBC0F109007862A7
:106B00001498C00706D00CA8FCF71EF82A98C007F6
:106B1000D5D048E00CAF4FF0000C0020214657F8CC
:106B20002020521841EB0C035B084FEA320347F870
:106B3000203022F00103B2EB030C00F10100092820
:106B4000EDD3002057F8201011B9401C0928F9DBBB
:106B5000C0F109007862D9E717AF4FF0000C0020B0
:106B6000214657F82020121944EB0C0359084FEA2C
:106B7000320147F8201022F00101B2EB010C00F1C4
:106B800001000928ECD3002057F8201011B9401C4F
:106B90000928F9DBC0F1090078620998C0070DD017
:106BA00001A8FBF7D1FF1F98C007D5D022AA17A9CB
:106BB0002B98209B984223D9284637E001AF4FF00D
:106BC000000C6246234657F82200C01843EB0C0124
:106BD00049084FEA300147F8221020F00101B0EBDC
:106BE000010C02F10102092AEDD3002057F8201010
:106BF00011B9401C0928F9DBC0F109007862D2E71D
:106C000001D2204612E0C0F109000CE051F820301A
:106C100052F82070BB4201D9204607E001D2284635
:106C200004E000F101000928F0D3284640B117A97B
:106C300022A8FCF7B9FD01A90CA8FCF7DFFD07E0CD
:106C400022A917A8FCF7B0FD0CA901A8FCF7D6FDF6
:106C50002B9800287FF47FAF0B9868B101A81DF036
:106C6000DBFD01A924223046FBF7A2FA0A987062E4
:106C70000B98B0622DB0F0BD134901AA486A0A9B77
:106C8000984201D92C4610E00FD3C0F109000AE068
:106C900052F8203051F82070BB4206D801D22C4661
:106CA00003E000F101000928F2D34CB101A924222C
:106CB0003046FBF77DFA0A9870620B98B062D9E70C
:106CC00001A81DF0A9FDCCE75488220010B516F0EC
:106CD00059FDBDE810400CF079BE000010B58AB037
:106CE00008A81EF0A5FBBDF8221009989DF82120E8
:106CF000CDE904109DF8203024A040F20931CDE9FF
:106D00000232CDE900102B4B2BA231A10220FEF75D
:106D10004DFE314800F0F8FD044654B114222549D7
:106D20000F3103A8FBF744FAADF8104003A8FEF7B3
:106D3000F9F92948017842788378C478CDE9044389
:106D4000CDE906210179407924A240F20F33CDE943
:106D50000032CDE90201174B17A21DA10220FEF758
:106D600025FE29A040F21631CDE90010114B12A2E8
:106D700017A10220FEF71AFE1DF0C4FA1DF06EFBEB
:106D80000AF06AFCFEF7E8FF0AB010BD476F6F64B7
:106D9000697820424C452053444B205625642E25CB
:106DA000642E25642028636F6D6D69742025782911
:106DB00000000000C98322002E2E5C5372635C75B4
:106DC0007365725C757365725F6170702E6300002D
:106DD0004E4F5F5441470000235F00204C6F6361BA
:106DE0006C20426F61726420253032583A2530326F
:106DF000583A253032583A253032583A25303258F0
:106E00003A253032582E0000486561727420526174
:106E100074652053656E736F72206578616D706C58
:106E20006520737461727465642E00002DE9F04171
:106E300004460D4616461F463B4632462946204626
:106E400000F6B2FABDE8F0812DE9FF5F04460D4679
:106E500016461F46DDE910ABDDE90E893B4632469A
:106E6000294620468DE8000F00F676FC04B0BDE808
:106E7000F09F2DE9FF5F04460D4616461F46DDE9EB
:106E800010ABDDE90E893B463246294620468DE8A7
:106E9000000F00F673FC04B0BDE8F09F70B5044627
:106EA0000D462946204600F6EFFE70BD10B504469B
:106EB000204600F687FF10BD70B504460D462946F2
:106EC000204601F663FC70BD70B505462878194967
:106ED000097808440A2801DD042070BD002400263A
:106EE00023E01EE01448005DD0B9C6EBC603691C60
:106EF0005A1804F14001C1F30D0141F4004007218B
:106F000018F0C0FB08B10120E7E701222046641C0D
:106F100009490A5407480078401C0649087002E0F5
:106F2000641C0A2CDEDB00BF761C2878B042D8DC5B
:106F30000020D2E7D5670020B8410120F8B5074608
:106F40000D46384607F006FC06460B480078864298
:106F50000EDAC620009006EB46012231C1F30D0186
:106F600041F400402A46694618F018FA002400E06F
:106F700003242046F8BD0000D4670020F8B505467C
:106F80000026002415E0082000900C48005D012830
:106F90000ED1691C01EBC60204F16001C1F30D01C1
:106FA00041F40040694618F0F9F908B9701CC6B2FE
:106FB000641C042CE7DB2E700020F8BDD66700208F
:106FC0002DE9F041A8B004460E460027002060706D
:106FD000804648E08C20049008EB48012131C1F341
:106FE0000D0141F4004005AA04A918F0D7F948BBE7
:106FF0009DF8150000F0020020B36078B04222DA5C
:1070000007EB8701606800EBC1050DF13700DDF883
:1070100037102960BDF83B10A9808079A8719DF8D0
:107020001600E87110220DF1270105F10800FBF7A9
:10703000BFF810220DF1170105F11800FBF7B8F8A1
:10704000781CC7B20BE0002001211E231A46CDE9AF
:1070500001060091C903012040F6D0FB07E008F1CA
:10706000010000F0FF08054800788045B2DB00BF52
:107070006770002028B0BDE8F0810000D4670020D0
:10708000F8B506460C46304607F064FB0546022775
:107090000A48007885420FDA8C20009005EB450104
:1070A0002131C1F30D0141F400402246694618F038
:1070B00075F907463846F8BD0320FCE7D467002081
:1070C000F8B506460C46304607F062FB0546022737
:1070D0000A48007885420FDA8C20009005EB4501C4
:1070E0002131C1F30D0141F400402246694618F0F8
:1070F00055F907463846F8BD0320FCE7D467002061
:10710000F8B505460026002416E0072000900D483B
:10711000005D01280FD1C6EBC603691C5A1804F1A3
:107120004001C1F30D0141F40040694618F036F901
:1071300008B9701CC6B2641C0A2CE6DB2E70002055
:10714000F8BD0000B8410120FEB504460D463020D0
:10715000B5FBF0F01549087008460078C0EBC00692
:10716000084607780078002101221F23CDE900217D
:1071700002901E224FF40041012040F63FFB0C48D4
:107180000460A0190B49086000200B490870487082
:10719000A0193844486002F0B5FE28B111F0FEFF96
:1071A00012F054F80020FEBD0220FCE7D467002056
:1071B000CC670020D0670020DC6700202DE9F0417B
:1071C00007460C46384607F0C5FA06460D480078D3
:1071D000864213DA06EB46012231C1F30D0141F478
:1071E00000402246C62118F04DFA8046B8F1000F43
:1071F00001D0012000E00020054600E003252846DC
:10720000BDE8F081D4670020FEB506460F46002495
:10721000304607F09FFA054600BF40480078854297
:1072200019DA05EB45012131C1F30D0141F40040AC
:107230003A468C2118F026FA0446002C5FD0002034
:1072400001211A231E22CDE901040091C903012066
:1072500040F6D4FA54E007F0C9FA054605EB4501BB
:10726000203141F400403246072118F00BFA044661
:107270005CB1002001211B231E22CDE901040091F5
:10728000C903012040F6BAFA3AE005EB4501213185
:10729000C1F30D0141F400403A468C2118F0F2F997
:1072A0000446A4B1002001211C231E22CDE90104C3
:1072B0000091C903012040F6A1FA05EB45012031F8
:1072C000C1F30D0141F4004017F0CEFF18E028464D
:1072D0001FF09AF905EB45012231C1F30D0141F48C
:1072E000004017F0C1FFC5EBC5000D49096808440F
:1072F00031680160B1888180B1798171002400BF5B
:1073000000BF44B9787800F0020020B1034801784A
:107310000448FFF755FE2046FEBD0000D46700205C
:10732000CC670020DC67002010B50446204604F638
:10733000A7FC10BD10B50446204604F695FD10BD0F
:1073400070B504460D462946204604F6A5FD70BDDD
:1073500010B50CF013FD0A480A4948600A4909486B
:10736000C1600A4941610A49C1610A4941620A4949
:10737000C1620A4941630A49C1630A49416410BDB7
:107380009DB02100886D002059AF2100DDB12100A2
:10739000CDAE210041B5210009BC2100EDAA21009C
:1073A000F9A821006DAC210010B500F017F81BF012
:1073B00053FD12F0D9F911F0FFF91BF0E7FB0021A2
:1073C00021203AF677FA002122203AF673FA0021BA
:1073D000BDE8104023203AF66DBA0000014902488A
:1073E0000EF0DCBA99D42100E9BA020010B56FF0B2
:1073F0000200814908603820002807DB00F01F02E6
:10740000012191407D4A430942F8231000BF00202A
:107410007B49086000BF7A481C30006840F00200D9
:1074200077491C3108600846006840F00100086098
:107430000846006820F00200086000BF00BF7048E6
:10744000001F006840F001006D49091F08600846F0
:10745000006820F00200086000BF00BF15F0E6FDE4
:107460000028FBD1022066493839096821F0030160
:1074700008B9002206E0022802D140F2AA2201E067
:1074800040F2FF3202F0030211435D4A383A1160C4
:1074900000BF02201146096821F00C0108B9002242
:1074A00006E0022802D140F2AA2201E040F2FF32B7
:1074B00002F00C021143524A383A116000BF022018
:1074C0001146096821F0C00108B9002206E002282F
:1074D00002D140F2AA2201E040F2FF3202F0C002E3
:1074E0001143474A383A116000BF032044494039EC
:1074F000096821F0030108B9002206E0022802D140
:1075000040F2AA2201E040F2FF3202F003021143EE
:107510003B4A403A116000BF03201146096821F040
:107520000C0108B9002206E0022802D140F2AA228A
:1075300001E040F2FF3202F00C021143304A403ABF
:10754000116000BF03201146096821F0C00108B98D
:10755000002206E0022802D140F2AA2201E040F215
:10756000FF3202F0C0021143254A403A116000BFC9
:1075700000BF012022493439086000BF00BF15F068
:1075800055FD0028FBD1FDF64BFFFDF650FF00BF77
:107590001B481C30006840F0040019491C31086089
:1075A00000BF00BF1648001F006840F004001449E7
:1075B000091F086000BF01201DF0B0FA00BF11488C
:1075C000006820F040000C499839C1F8800200BFE3
:1075D00000BF0846D0F8800220F01000C1F88002F9
:1075E00000BF00BF0846D0F8800220F02000C1F89C
:1075F000800200BF10BD000098A0004080E200E0C3
:10760000C4A4004080A2004010B50DF053FC17F058
:1076100073F815F0C5FE15F071FEFFF77DF9BDE8B2
:10762000104015F05BBE000010B5FDF600FFFDF642
:10763000F7FE00BF1048006840F002000E490860E5
:107640000846006820F00100086000BF00BF0A483B
:107650002030006840F001000749203108600846EA
:10766000006840F0020008600846006820F0010051
:10767000086000BF10BD0000C0A4004010B511F6A6
:1076800049FB10BD38B51DF0AFFE28B140F27E4178
:1076900008461DF001FC04E040F27E4108461DF062
:1076A000FBFB2748007878B12648006800901DF061
:1076B0000DFC04462448008800901DF007FC054698
:1076C00021461DF01FFE05E04FF466714FF47F70F8
:1076D0001DF018FE1D4818F079FB1DF085FE10B94D
:1076E0001B48007880B91B4818490A6802604A683C
:1076F0004260098901811849144802680A60426899
:107700004A600089088119E01249104802680A603D
:1077100042684A60008908810F490C4802680A6083
:1077200042684A600089088140F21A40094908808D
:107730001DF048FB074988800120487238BD0000D1
:10774000C8660020C4660020C66600209A66002035
:1077500086660020A4660020AE66002070B5044650
:107760000A2C15DA492040EA0422052000EB042106
:10777000042340F6224002F019FB05463DB12120CA
:1077800028704FF6FF706880284602F057FB00BF54
:1077900070BD000010B504460CB9002010BD204695
:1077A00002F0E4FB40B90548006828B120460349CF
:1077B000096888470120F1E70020EFE774640020A2
:1077C0003EB5018840F20233A1F202324FF48074D8
:1077D000994240D00EDCA14220D0A1F500710739BA
:1077E00022D0012930D0FA292DD1BDE83E40083001
:1077F000FDF728BC042A33D0A2F50072FE3A3ED031
:10780000A24234D0A2F58072013A1CD1427981782B
:10781000007903B0BDE83040FEF706BA03F050FF30
:10782000BDE83E40FFF75ABA408800280BD019A1A6
:1078300040F2D622CDE9002102901F4B1FA225A1C4
:107840000320FEF7B3F83EBD007A0028FBD1BDE867
:107850003E401CF0F3BE007ABDE83E40FDF726BC7A
:10786000007903B00121BDE8304000F023BC02796B
:1078700003B0411DBDE830401046FEF7D7B941883E
:107880000029E0D1C188007903B0BDE8304017F08D
:107890000FB90000416476657274696E6720737475
:1078A0006172746564206661696C6564283058256E
:1078B000303258292E000000B98322002E2E5C534E
:1078C00072635C757365725C757365725F6170700D
:1078D0002E6300004E4F5F544147000010B5FDF786
:1078E00015FA1BF099FA17F0F9FB1CF031FE14F0B1
:1078F000C1F91BF07FFA04F09BFF0DF05FFCBDE8BF
:1079000010400DF03DBB00002DE9F0470446002576
:1079100000BFFCF73AFA80460220FCF74DF9814699
:10792000FCF7E2F9401C0121814009EB01073846D0
:10793000FCF7C9FA06F0D0FF064600BF0CB90225D5
:1079400015E0104890F81C0100F00100A071A0792A
:10795000012805D10C48416821600089A08005E01C
:1079600000F034FF016821608088A08000BF00BF64
:10797000304606F073FF4046FCF7A5FA00BF2846E4
:10798000BDE8F08734300120363101202DE9F84F71
:1079900004460E4617461D464FF0000800BFFCF790
:1079A000F4F900900220FCF707F98346FCF79CF9F4
:1079B000401C012181400BEB010A5046FCF783FA81
:1079C00006F08AFF814600BF27B9002D02DD4FF087
:1079D0000208D4E0052C02DB4FF01508CFE0002EA2
:1079E00043D1C4EBC4016B4800EB8100806870B1E7
:1079F000C4EBC402674901EB8201886802F0A8F970
:107A00000021C4EBC402634800EB82008160C4EB38
:107A1000C401604800EB8100806898B90021A81C6F
:107A200002F09CF9C4EBC4025A4901EB8201886060
:107A3000C4EBC401574800EB8100806810B94FF0D7
:107A400010089CE0C4EBC401524800EB8100806840
:107A50000580C4EBC4024F4901EB82018968881C90
:107A60002A463946FAF7A4FB89E0012E3CD1C4EB43
:107A7000C401484800EB8100C06870B1C4EBC40287
:107A8000444901EB8201C86802F062F90021C4EBAD
:107A9000C402404800EB8200C1600021A81C02F033
:107AA0005DF9C4EBC4023B4901EB8201C860C4EB41
:107AB000C401384800EB8100C06810B94FF01008CD
:107AC0005DE0C4EBC401334800EB8100C068058071
:107AD000C4EBC4022F4901EB8201C968881C2A4605
