:020000040020DA
:1020000000000420592020008B34200001401000E3
:10201000B1322000912B20008D38200000000000FC
:10202000000000000000000000000000154010004B
:10203000DD2B2000000000008D3420009B372000A5
:10204000DFF810D000F03EFC00F066F800480047D2
:102050009DAD210000000420014880470148004751
:102060003D382000BDAD21000649074A08685043AD
:1020700043F2390210440860400870470149086083
:1020800070470000EC6A00206D4EC64110B5431A3F
:10209000934209D28318881803E010F8011D03F851
:1020A000011D521EF9D210BD40EA01039B0703D067
:1020B00009E008C9121F08C0042AFAD203E011F887
:1020C000013B00F8013B521EF9D210BDD2B201E033
:1020D00000F8012B491EFBD270470022F6E710B52D
:1020E00013460A4604461946FFF7F0FF204610BD86
:1020F000421C10F8011B0029FBD1801A704730B533
:1021000004460020034600E05B1C934203D2E05CDF
:10211000CD5C401BF8D030BD70B5054C054D03E0DB
:10212000206820448047241DAC42F9D170BD0000D6
:10213000A8392200AC39220030B4044696230800A6
:10214000214604D0B62330BC002200F0A4BA2046B9
:102150000021F8E70EB5C10F80EAE0700844CA0715
:10216000002140F233438DE80E000A460B4600F092
:10217000CFFA03B000BD0EB540F233410291002109
:10218000CDE900110A460B4600F0C2FA03B000BDCB
:102190000EB540F2334202920022CDE900221346EE
:1021A00000F0B6FA03B000BD20F00040C20DC0F34D
:1021B000160040F400007F2A02DA00200146704732
:1021C0000021962A03DCC2F19602D0407047963A6D
:1021D00000F027BA30B50B4601460020202201242A
:1021E00009E021FA02F59D4205D303FA02F5491BE5
:1021F00004FA02F52844151EA2F10102F1DC30BDFB
:1022000058585247010000002556000000202000C9
:10221000002020007EEE9247010100000000000037
:1022200000000000000000000000000000000000AE
:10223000000000000000000000000000000000009E
:102240002DE9FE4F804681EA0300C00F0C46009046
:1022500021F0004123F00045B8EB0200A94105D26E
:102260004046214690461C460B46024623F000405D
:10227000104347D0270DC7F30A00C3F30A51029059
:10228000401A019040286BDAC3F3130040F4801B1E
:102290000098924620B10023D2EB030A63EB0B0BAC
:1022A00001985946C0F14002504600F0BAF906467E
:1022B0000D4650465946019A00F0D2F910EB08003D
:1022C0006141002487EA115284EAE7731A4340D03F
:1022D000009A62B3019A012A4FEA075215DC001BEB
:1022E00061EB02014FF0004202EA0752CDE90042E1
:1022F000001C41F5801132462B4600F009FA03B06C
:10230000BDE8F08F40462146F9E7001B61EB020172
:10231000001C41F5801300185B412018A2F500173E
:1023200047EB030140EAD570B6196D4111E06D0825
:102330004FEA360645EAC0754FEA0752001B61EBCB
:102340000201001C41F5801149084FEA30000019D4
:10235000514132462B4603B0BDE8F04F00F0C9B9F9
:102360000098012240000023D0EB020263EBE073EF
:10237000009821464FEAE074B8EB000061EB0401DD
:10238000E9E783F000435BE781F0004158E72DE97E
:10239000FE4F81EA030404F0004421F00041009460
:1023A0004FF0000B23F0004350EA01045ED052EAE4
:1023B00003045BD0C3F30A54C1F30A552C44A4F2BE
:1023C000F3340194A0FB0254C1F3130141F48011D2
:1023D000C3F3130343F4801301FB024400FB034ED9
:1023E000840A970A44EA815447EA8357A4FB0768A2
:1023F00002958D0A05FB07854FEA932C04FB0C54CC
:102400002705029D4FEA065847EA1637B5EB08053F
:102410006EEB070C870E920E47EA811742EA831291
:10242000A7FB0201B6EB0B0164EB00042B0D43EAA2
:102430000C335E1844EB1C50DA465146E7FB0201B0
:10244000C5F313044FEA0B3343EA14534FEA043243
:10245000019C43EA0603A4F10C040294009CCDE91C
:1024600000B400F055F903B0BDE8F08F002001463C
:10247000F9E72DE9F04D81EA030404F0004B21F067
:10248000004514464FF0000A23F0004150EA0502CF
:1024900020D054EA01021DD0C5F30A570246C5F305
:1024A0001303C1F31300C1F30A5640F4801543F43B
:1024B0008013A7EB0608101BD64608F2FD3873EB15
:1024C000050002D308F1010801E092185B41B8F160
:1024D000000F03DA00200146BDE8F08D00204FF424
:1024E0008011064684460EE0171B73EB050705D3E3
:1024F000121B63EB050306434CEA010C49084FEA43
:10250000300092185B4150EA0107EDD152EA030016
:1025100012D082EA040083EA0501084305D0101BAB
:10252000AB4106D20122002306E000224FF0004317
:1025300002E06FF0010253101AEB06004CEB085159
:1025400010EB0A0041EB0B01BDE8F04D00F0D1B8F3
:1025500070B5C1F30A5201F000450024C1F3130124
:1025600040F2FF3341F480119A4201DA002070BD3D
:1025700040F233439A42A2F2334203DC524200F06B
:102580005FF800E090402C43F1D0404270BDC1F3B1
:102590000A5210B5C1F3130140F2FF3341F4801128
:1025A0009A4201DA002010BD40F233439A42A2F26F
:1025B000334203DC524200F043F810BD904010BD9E
:1025C0002DE9F05F0546002092469B468846064668
:1025D000814640241BE0284641464746224600F0FB
:1025E0002FF853465A46C01A914110D31146184647
:1025F000224600F016F82D1A67EB01084F462246D6
:102600000120002100F00DF817EB00094E41201EBB
:10261000A4F10104DFDC484631462A464346BDE8C2
:10262000F09F202A04DB203A00FA02F100207047D4
:102630009140C2F1200320FA03F319439040704700
:10264000202A04DB203A21FA02F00021704721FA07
:1026500002F3D040C2F1200291400843194670476E
:10266000202A06DBCB17203A41FA02F043EAE07356
:1026700006E041FA02F3D040C2F120029140084343
:10268000194670470029A8BF7047401C490008BF81
:1026900020F00100704710B4B0FA80FC00FA0CF092
:1026A00050EA010404BF10BC704749B1CCF12004CA
:1026B00021FA04F411FA0CF118BF01212143084357
:1026C000A3EB0C01CB1D4FEA00614FEA102042BF83
:1026D000002010BC704700EBC35010440029A4BF79
:1026E00010BC7047401C490008BF20F0010010BC1E
:1026F000704710B5141E73F1000408DA401C41F154
:10270000000192185B411A4301D120F0010010BD75
:102710002DE9F04D92469B4611B1B1FA81F202E0EB
:10272000B0FA80F220329046FFF77BFF04460F4656
:1027300040EA0A0041EA0B0153465A46084313D0C7
:10274000114653EA010019D0C8F140025046FFF784
:1027500077FF05460E46504659464246FFF761FF51
:10276000084305D0012004E020463946BDE8F08D3D
:102770000020054346EAE0762C4337430A98630578
:10278000E40AA0EB08000022FD0A44EA47540A309C
:1027900002D500200146E9E7010510196941DDE98C
:1027A000084500196941BDE8F04DA2E72DE9F04167
:1027B000054621F000400C46284309D0C4F30A50D6
:1027C00040F23341884205DD28462146BDE8F081CC
:1027D0002846FBE740F2FE31884210DC0CDB4FEA72
:1027E000043040EA155050EA053105D0104804F095
:1027F000004101430020E9E700200146E6E7A0F29E
:1028000033404642C6F1400228462146FFF709FF01
:1028100007468846284621463246FFF711FF4346C1
:102820003A46FFF766FF3246BDE8F041FFF7F9BED2
:102830000000F03FC1F30A52C1F3130140F2FF332D
:1028400041F480119A4202DA00200146704740F2BA
:1028500033439A42A2F2334202DC5242FFF7F0BE07
:10286000FFF7DFBE30B5041E71F1000404DB4FF04A
:102870000044404264EB0101141E73F1000405DBC7
:102880001C464FF00043524263EB04038B4208BFE7
:10289000824230BD30B5041E71F1000404DB4FF0FC
:1028A0000044404264EB0101141E73F1000405DB97
:1028B0001C464FF00043524263EB0403994208BFA9
:1028C000904230BD064C074D06E0E06840F0010341
:1028D00094E8070098471034AC42F6D3FFF7B4FBF6
:1028E00068392200A839220070B58C1810F8015BF5
:1028F00015F0070301D110F8013B2A1106D110F899
:10290000012B03E010F8016B01F8016B5B1EF9D19C
:102910002B0705D40023521E0DD401F8013BFAE722
:1029200010F8013BCB1A921C03E013F8015B01F88D
:10293000015B521EF9D5A142D8D3002070BD70B5FD
:1029400000230824002550F8242051F8246092190F
:1029500045EB0506D21846EB050303F001032B43B4
:1029600001D0012300E0002340F82420641E002C45
:10297000E9DA002150F8212012B9491C0929F9DBB4
:10298000C1F10901416270BDF0B50024082500269F
:1029900050F8253051F82570DB1946EB06071B1956
:1029A00047EB060404F00104344301D0012400E0A5
:1029B000002442F825306D1E002DE9DA002052F87F
:1029C000201011B9401C0928F9DBC0F1090151623E
:1029D0009662F0BD70B514462246FFF7D5FFA06A97
:1029E00020B12046BDE8704000F026B8114D606A65
:1029F000696A00260123884212D801D233460FE0CB
:102A0000C0F109010AE055F8212054F82100824262
:102A100001D9334604E003D301F101010929F2D3BE
:102A2000002B05D02046BDE87040024900F014BEDE
:102A300070BD0000901F220010B58CB0044601AAA2
:102A40002146074800F03EFD01A924222046FFF759
:102A50001DFB0A9860620020A0620CB010BD00004F
:102A6000901F22002DE9F0418CB00746474CB86A10
:102A70004FF00008002809D03A462346506A5D6AA4
:102A80000121A84231D81FD241462EE04FF000006C
:102A90004FF00802414657F8223054F82250884639
:102AA0005B1941EB01061D184E4106F0010041463D
:102AB00058EA000001D0012000E0002047F8225031
:102AC000521E002AE7DA3FE0C0F109000AE053F89D
:102AD000205052F82060B54201D9414605E004D3A8
:102AE00000F101000928F2D34146F1B1002008228B
:102AF000454654F8223057F822101E1845EB050CB5
:102B00008E1B75EB0C0607D21844081A001C47F8F8
:102B100022004FF0010004E01844091A47F822107F
:102B20000020521E002AE4DA0EE001AA39461748B6
:102B300000F0C8FC01A93C4624222046FFF7A6FA73
:102B40000A986062C7F828800021002057F82020EA
:102B500012EB080348EB010461084FEA330147F820
:102B6000201023F00101591A00F101000928EDD3CA
:102B7000002057F8201011B9401C0928F9DBC0F1DA
:102B8000090078620CB0BDE8F0810000901F2200BF
:102B9000FEE710B508F06EF910BD000010B5032473
:102BA00000BF0D480068012121EA900078B900BFFC
:102BB00009480C30006800F0010040B100BF064831
:102BC0008C38006800F007002040A04200D010BD03
:102BD0001DF0AEFC00BFFAE7D4A40040FEE7000001
:102BE0002DE9F04FADF5377D82460D4614460AF1CA
:102BF0002C0B0AF15800B6902F9005F12C00B590DF
:102C00002E902C30B4902D9024212046FFF765FAA9
:102C10004FF00008C4F82480C4F8288004F12C0682
:102C200024213046FFF759FAC6F82480C6F82880D8
:102C300004F1580724213846FFF74FFAC7F82480DB
:102C4000C7F82880A9A82421FFF747FACDF8C88241
:102C5000CDF8CC829EA82421FFF73FFACDF89C82C4
:102C6000CDF8A08293A82421FFF737FACDF870821F
:102C7000CDF8748288A82421FFF72FFACDF844827A
:102C8000CDF848827DA82421FFF727FACDF81882D5
:102C9000CDF81C8272A82421FFF71FFACDF8EC8131
:102CA000CDF8F08167A82421FFF717FACDF8C0818D
:102CB000CDF8C4815CA82421FFF70FFACDF89481E8
:102CC000CDF8988151A82421FFF707FACDF8688143
:102CD000CDF86C8146A82421FFF7FFF9CDF83C819F
:102CE000CDF840813BA82421FFF7F7F9CDF81081FA
:102CF000CDF8148130A82421FFF7EFF9CDF8E48056
:102D0000CDF8E8805046E34918F0F4F8DFF88493F2
:102D100009F12C0809F1580948B94146584618F0FC
:102D2000E9F820B94946B69818F0E4F840B1002017
:102D3000002859D02846D74918F0DCF810B10BE02C
:102D40000120F5E74146B59818F0D4F820B9494676
:102D5000B49818F0CFF830B3002030B3CD4D242212
:102D600029462046FFF792F9686A6062A86AA06265
:102D7000242241463046FFF789F9D8F824007062D2
:102D8000D8F82800B062242249463846FFF77EF979
:102D9000D9F824007862D9F82800B86200200DF52F
:102DA000377DBDE8F08F0120D7E724222946204651
:102DB000FFF76CF9686A6062A86AA062B59C242279
:102DC00021463046FFF762F9606A7062A06AB0621D
:102DD000B49C242221463846FFF758F9606A78628D
:102DE000A06AB8620020DAE72846AA4918F082F8FB
:102DF00048B94146B59818F07DF820B94946B498CD
:102E000018F078F818B3002018B324225146204651
:102E1000FFF73CF9DAF824006062DAF82800A062D3
:102E2000242259463046FFF731F9DBF8240070625E
:102E3000DBF82800B062B69C242221463846FFF712
:102E400025F9606A7862A06AB8620020A7E70120CD
:102E5000DAE75146284618F04DF860BB5946B59858
:102E600018F048F808B38B4D242229462046FFF776
:102E70000DF9686A6062A86AA06224224146304661
:102E8000FFF704F9D8F824007062D8F82800B0627F
:102E9000242249463846FFF7F9F8D9F82400786229
:102EA000D9F82800B862002079E7286D012802D8F7
:102EB000E86C00287DD0DDE92E01A9AA00F01AFAFD
:102EC0009EAA58462D9900F015FA93AA28462F99E4
:102ED00000F010FA88AA50462D9900F00BFA88A944
:102EE00093A818F007F800287ED07DAA9EA9A9A86B
:102EF00000F016FB72AA88A993A800F011FB5CAA47
:102F00002D992F9800F0F6F922A82421FFF7E5F873
:102F100000252B952C9517A82421FFF7DEF8209586
:102F200021950CA82421FFF7D8F81595169501A82E
:102F30002421FFF7D2F80A950B9551AA72A972A81D
:102F400000F0D8F946AA72A951A800F0D3F93BAA1B
:102F50007DA97DA800F0CEF930AA88A951A800F07B
:102F6000C9F901AA022130A800F0A3F917AA5CA9A7
:102F70003BA800F0BFF90CAA46A917A800F0D0FAA8
:102F800067AA01A90CA800F0CBFA224667A972A88B
:102F900000F0B0F922A82421FFF79FF82B952C957B
:102FA00017A82421FFF799F8209521950CA8242132
:102FB00000E020E0FFF791F81595169522AA67A981
:102FC00030A800F0ADFA17AA22A97DA800F092F966
:102FD0000CAA9EA946A800F08DF932460CA917A8A4
:102FE00000F09EFA3A4600E027E05CA946A800F00F
:102FF00081F90120D3E6274D242229462046FFF7F8
:1030000045F8686A6062A86AA06224224146304698
:10301000FFF73CF8D8F824007062D8F82800B062B6
:10302000242249463846FFF731F8D9F8240078625F
:10303000D9F82800B8620020B1E69EA9A9A817F027
:1030400059FF08B3134D242229462046FFF71EF8E6
:10305000686A6062A86AA062242241463046FFF78F
:1030600015F8D8F824007062D8F82800B06224223D
:1030700049463846FFF70AF8D9F824007862D9F8AB
:103080002800B86200208AE62146504600F004F885
:10309000002084E60C2022002DE9F04FF9B00C4608
:1030A000824600F12C0500F1580B594F696A07F16F
:1030B0002C06583704F12C0804F15809012901D8CD
:1030C000296A79B1524917F015FF48B931462846A7
:1030D00017F010FF20B93946584617F00BFF28B3F8
:1030E000002028B34A4D242229462046FEF7CEFF71
:1030F000686A6062A86AA062242231464046FEF7F0
:10310000C5FF706AC8F82400B06AC8F828002422F5
:1031100039464846FEF7BAFF786AC9F82400B86A0B
:10312000C9F82800002079B0BDE8F08F0120D8E769
:1031300037AA59465046FFF74DFC2CAA594650462F
:1031400000F0EEF921AA2CA937A800F0D3F86EAA56
:10315000032121A800F0ADF863AA5946284600F0E3
:10316000C9F837AA63A9284600F0C4F858AA37A9B5
:10317000504600F0BFF837AA6EA96EA800F0BAF862
:103180002CAA082158A800F094F84DAA2CA937A819
:1031900000F0C6F937AA63A94DA800F0ABF82246A3
:1031A000022137A800F085F837AA2946284600F002
:1031B000A1F842AA63A963A800F09CF82CAA42A92E
:1031C00037A800F097F821AA08212CA800F071F880
:1031D00016AA042158A800F06CF80BAA4DA916A84D
:1031E00000F09EF96A460BA96EA800F083F84246EB
:1031F00021A9684600F094F937AA63A942A800F013
:1032000079F84A46082137A800F053F800208AE7E9
:103210000C2022002DE9F0478CB0054688469146E7
:10322000DFF854A0154E10279AF81730FF2B06D060
:10323000706ED90007FA01F4A0432043706601A91B
:1032400005F1580003F028FA9AF81730FF2B04D044
:10325000706ED9008F40B8437066424601A9284677
:1032600000F048F84A4601A905F12C0000F042F8A8
:103270000CB0BDE8F0870000080E002000000E40F2
:103280000748006800F0100008B10648704706487B
:103290000068C0F30240054951F82000F6E700003D
:1032A00084E30040006CDC0200A00040901E22007D
:1032B000FEE7F0B40646104600230825002256F823
:1032C00025701446E7FB013440F8253023466D1E77
:1032D000002DF4DA002150F8212012B9491C0929E7
:1032E000F9DBC1F109024262B16A8162F0BC1CF0F3
:1032F0008FB800002DE9F04F9FB005460E4693466B
:103300000BAC48210BA8FEF7E8FE4FF00009CDF802
:103310007490CDF87890082300210822D7187F1CDC
:1033200055F8238054F8270056F822A0401849EB9E
:10333000090CE8FB0A0C614644F82700521E002ADB
:10334000ECDA5B1E002BE7DA0BA9002051F82020F5
:1033500012B9401C1228F9DBC0F112008864A86A77
:10336000B16A884201D0012000E000201E900024B4
:103370000BAD00E0641C55F8240008B9092CF9D302
:103380001E980A9034490BAA1D988E6C0123B042F6
:1033900001D9994619E018D3C0F1120012E051F892
:1033A000206052F82070BE420BD051F8201052F825
:1033B0002000814202D24FF0010906E04FF00009DF
:1033C00003E0401C1228EADB9946B9F1000F01D155
:1033D00004E0641C55F824000028FAD005EB8401B1
:1033E00024226846FEF752FE6946002051F820204C
:1033F00012B9401C0928F9DBC0F10900486216E047
:1034000068461CF005F868462022011DFEF73EFEC6
:1034100055F826000890641C6946002051F82020C9
:1034200012B9401C0928F9DBC0F10900486204F117
:10343000090006461228E3D368461BF0E9FF6946F7
:103440005C4624222046FEF721FE099860620A9815
:10345000A0621FB0BDE8F08FBC1F220010B5434230
:10346000421E0A604B6088600020C86008614A61A3
:10347000441E8C61CC610B628862002A02D0092054
:10348000486210BD0820486210BDFEE7FEE701F764
:1034900092BA0000052800DB70470949096801F469
:1034A000E021B1EB004F08D0054A126822F4E02178
:1034B00041EA0042024B1A6000BF00BFECE7000087
:1034C00000A000402DE9F04100240823002751F816
:1034D000236050F8235016EB040C47EB0708B5EBBC
:1034E0000C0C77EB080C07D234442C1B241C42F83C
:1034F00023404FF0010404E034442D1B42F82350D4
:1035000000245B1E002BE2DA002052F8201011B9D3
:10351000401C0928F9DBC0F109005062BDE8F081C8
:103520002DE9F04103460E461446996A002701250D
:10353000B06A002906D088B3706A596A88423CD9BB
:10354000284650E030B1224631461846FFF71CFAB3
:10355000A76256E0586A716A884201D9284615E088
:1035600001D2384612E0C0F109000CE056F82020E4
:1035700053F820108A4201D9384607E001D2284684
:1035800004E000F101000928F0D3284638B12246B2
:1035900031461846FFF796FFA76232E006E0224662
:1035A00019463046FFF78EFFA5622AE022463146D3
:1035B0001846FFF7E9F9A56223E001D2384612E088
:1035C000C0F109000CE053F8202056F820108A4280
:1035D00001D9384607E001D2284604E000F1010095
:1035E0000928F0D3284630B1224619463046FFF765
:1035F00069FFA76205E0224631461846FFF762FFE1
:10360000A562A06A20B12046BDE8F041FFF714BAD8
:103610001049606A4A6A904212D801D23D460FE0D2
:10362000C0F109000AE051F8203054F820209342FC
:1036300001D93D4604E003D300F101000928F2D38B
:10364000002D05D02046BDE8F041024900F004B845
:10365000BDE8F081901F2200F0B50023082200266B
:1036600051F8225050F82240EF1846EB060CE71BA9
:1036700076EB0C0707D22B44E31A1B1C40F82230D0
:103680004FF0010304E02B44E41A40F822400023E9
:10369000521E002AE4DA002150F8212012B9491CF8
:1036A0000929F9DBC1F109014162F0BD70B58CB0A7
:1036B00004460B46A16A01260025986A002907D016
:1036C000E8B3586A616A884251D840D22E464EE02B
:1036D00030B10CB02046BDE870401946FFF72FB955
:1036E000606A596A884201D9354611E010D3C0F1A9
:1036F00009000AE053F8202054F820108A4207D825
:1037000001D2354604E000F101000928F2D3354624
:1037100035B10CB02046BDE870401946FFF79CBF9C
:1037200001AA21461846FFF7CDFE01A92422204612
:10373000FEF7ACFC0A986062A6620CB070BDFFE7B1
:103740000CB02046BDE870401946FFF7F8B8C0F14C
:1037500009000AE054F8202053F820108A4201D9C9
:103760002E4604E003D300F101000928F2D36EB124
:1037700001AA21461846FFF7A5FE01A924222046EA
:10378000FEF784FC0A986062A562D6E70CB020467A
:10379000BDE870401946FFF75FBFFEE702490968C0
:1037A00001F007010170704700A0004010B5002231
:1037B0000021072800DB10BD144B1B6803F0070332
:1037C00083421BD0114B1B6823F0070242F0030316
:1037D0000E4C23602346DB6823F0070141F0010310
:1037E000E36000BF00BF00BF00BF42EA0003074C18
:1037F0002360074B53F820300B43E360054B53F82D
:103800002030054C236000BFD5E7000000A0004039
:10381000741E2200581E2200B05400200448006884
:1038200000F00700034951F8200003490860704781
:1038300000A00040581E2200B05400200248016839
:1038400041F470010160704788ED00E002480068B3
:10385000001D11F049B800000872002002484068BD
:10386000001D11F041B80000087200200248806875
:10387000001D11F039B80000087200200248C0682D
:10388000001D11F031B8000008720020FEE70000B2
:103890000FB4054B10B503A9044A029800F088FD47
:1038A00010BC5DF814FB0000B5CA2000745D002058
:1038B0000FB41CB50246002007AC00290BD0491EEE
:1038C000CDE90021054B6A462146069800F070FDBF
:1038D000009A002111701CBC5DF814FBEB4A20001B
:1038E0000FB4084B10B504A902AA039800F060FDBC
:1038F000044602A9002001F003F9204610BC5DF83F
:1039000014FB0000014B20007CB5044600201D463E
:10391000164600290BD0491ECDE90041044B6A46EA
:103920002946304600F044FD009A002111707CBD0C
:10393000EB4A2000002809DB00F01F020121914022
:103940004009800000F1E020C0F8801270470000BC
:10395000002807DB00F01F0201219140024A4309C1
:1039600042F823107047000080E200E0002807DBE7
:1039700000F01F0201219140024A430942F823103E
:103980007047000080E200E000280DDB00BF00BFB0
:1039900000F01F02012191404209920002F1E02251
:1039A000C2F8001100BF00BF704700280DDB00BF48
:1039B00000BF00F01F02012191404209920002F174
:1039C000E022C2F8001100BF00BF7047002804DBEE
:1039D00000F1E02090F80004704700F00F0000F1C3
:1039E000E02090F8140D7047002804DB00F1E0207F
:1039F00090F80004704700F00F0000F1E02090F80C
:103A0000140D70470146002902DB0448405C7047F2
:103A1000034801F00F02121F805CF8E700E400E0A9
:103A200018ED00E00146002902DB0448405C7047C5
:103A3000034801F00F02121F805CF8E700E400E089
:103A400018ED00E00146002902DB0448405C7047A5
:103A5000034801F00F02121F805CF8E700E400E069
:103A600018ED00E00146002902DB0448405C704785
:103A7000034801F00F02121F805CF8E700E400E049
:103A800018ED00E00146002902DB0448405C704765
:103A9000034801F00F02121F805CF8E700E400E029
:103AA00018ED00E00146002902DB0448405C704745
:103AB000034801F00F02121F805CF8E700E400E009
:103AC00018ED00E00146002902DB0448405C704725
:103AD000034801F00F02121F805CF8E700E400E0E9
:103AE00018ED00E00146002902DB0448405C704705
:103AF000034801F00F02121F805CF8E700E400E0C9
:103B000018ED00E002480068C0F302207047000092
:103B10000CED00E002480068C0F30220704700008E
:103B20000CED00E002480068C0F30220704700007E
:103B30000CED00E002480068C0F30220704700006E
:103B40000CED00E002480068C0F30220704700005E
:103B50000CED00E002480068C0F30220704700004E
:103B60000CED00E002480068C0F30220704700003E
:103B70000CED00E002480068C0F30220704700002E
:103B80000CED00E002480068C0F30220704700001E
:103B90000CED00E002480068C0F30220704700000E
:103BA0000CED00E0002807DB00F01F02012191402E
:103BB000024A430942F823107047000000E200E087
:103BC000EFF311807047EFF311807047EFF311802E
:103BD0007047EFF311807047EFF311807047EFF3F8
:103BE00011807047EFF310807047EFF3108070473B
:103BF000EFF310807047000010B52DED020B2DED96
:103C0000088B84B09DED0C0B51EC100BFEF7CEFD34
:103C100041EC180B9DED0C0B53EC182B51EC100BD9
:103C2000FEF7AFFB41EC190B0D989FED290B10F03F
:103C3000004F53EC102B51EC190B9FED21AB9FED76
:103C400022BB0ED0FEF70EFE0ED953EC1B2B51EC0F
:103C5000190BFEF71FFE1CD214E000BF41EC180B3D
:103C600017E0FEF7FFFD06D253EC1A2B51EC180BB0
:103C7000FEF787FBF2E753EC1B2B51EC190BFEF719
:103C800009FE06D853EC1A2B51EC180BFEF7D8FAA4
:103C9000E4E78DED028B9DED0C0B18EE901A10EE03
:103CA000900A8DED000B61F31E0003909DED020B59
:103CB00004B0BDEC088B02B010BD00000000000095
:103CC000000000000000F03F000000000000E03FA6
:103CD000000000000000E0BF02E008C8121F08C199
:103CE000002AFAD170477047002001E001C1121F7D
:103CF000002AFBD17047C1B281F311887047C1B26D
:103D000081F311887047C1B281F311887047C1B245
:103D100081F311887047C1B281F311887047C1B235
:103D200081F311887047C1B281F311887047C1B225
:103D300081F311887047C1B281F311887047C1B215
:103D400081F31188704780F31088704780F31088E2
:103D5000704780F31088704780F31088704780F3B5
:103D6000108870472DE9F74F0446904600BF4FEA90
:103D70005806019D4FF0000B7448754908603F20BC
:103D80007449496860F30501724A516000BF00BF81
:103D90001046406820F480301146486000BF00BFE4
:103DA0006B48006820F4700040EA045068490860DD
:103DB00000BF00BF0846006820F4702040EA0440BD
:103DC000086000BF0D2C07D100BF0846006840F412
:103DD0000040086000BF00BF0E2C08D100BF5C4847
:103DE000006840F480405A49086000BF00BF4FF4AB
:103DF00000505749096821F400510143544A1160A9
:103E000000BF00201146096821F060510143116094
:103E100000BF04201146096821F00F010143116021
:103E200000BF002000F006F9012801D0BDE8FE8F98
:103E300000BF4748006840F080404549086000BF27
:103E40004FF0000A0DE000BF4248806840F4803027
:103E50004049886000BF0AF101008246401C00B959
:103E600003E014F0B9F90028EDD100BF072000F0FD
:103E7000E1F8012800D0D9E754E04FF0000B2CE026
:103E8000BBF57A7F24D900BF3148006820F080401C
:103E90002F49086000BF00BF0846006840F000409E
:103EA000086000BF00BF0846006820F000400860BE
:103EB00000BF002000F0BEF8012800D0B6E7264879
:103EC0000068401C24490860052009F675FA4EE791
:103ED000012009F671FA0BF1010B14F07DF90128AC
:103EE000CED100BF1B48806800F07F008146B145FD
:103EF00001D9304600E0484681464FF0000A0DE007
:103F000000BF1448076800BF25F8027B4FF6FF701A
:103F100000EA174025F8020B0AF1010ACA45EFD35F
:103F2000A6EB0906002EA8D15EB908F0010040B149
:103F300000BF14F051F90128FBD100BF054800680B
:103F40002880002000F076F800BF6FE70A07080716
:103F500000A8004000E000400863002010B50446BF
:103F600000BF00201A49086000BF00BF184980390F
:103F7000086000BF00BF1748406A1749086008463C
:103F8000007800F0010020B10846008800F480703D
:103F900098B906E00CB9002010BD641E012009F696
:103FA0000BFA00BF0B48806940F20111884201D131
:103FB000012000E000200028ECD0084800680849F3
:103FC000086004484068074908600120E4E70000F1
:103FD00094D41D4200E000406463002000A800402B
:103FE0005C630020606300200D4800680D49486054
:103FF0000D4800680D4908600D48007800F0010088
:1040000020B10B48008800F4807040B900BF05481B
:10401000006A20F001000349086200BF00BF70473A
:104020006063002000E000405C63002000A80040C6
:104030006463002070B5044614F0C6F8A04201D1B4
:10404000012070BD00BF1048C06820F00700204369
:104050000D49C86000BF002508E014F0B5F8A04283
:1040600000D107E0012009F6A7F96D1C4FF6FF709B
:104070008542F2D300BF4FF6FF70854201D1002088
:10408000DFE70120DDE7000000E0004010B500BFE1
:10409000EFF3108004460120FFF758FE204610BDC4
:1040A0002DE9FF5F82B00021DDE90430020DDDF86B
:1040B00040B0034318D044F61050A2F2FF324243FE
:1040C0001514119801281FD0A5EB0B00401C5FEAC6
:1040D000000A4FF000064E4FDFF83891B0465046C8
:1040E00015D5CAF1000413E0119801244AA3012850
:1040F00001D16FEA0B010298119AC0E90031C0E9C1
:10410000024206B0BDE8F09FCBF10000DFE70446B5
:104110000021404A491842EB0450CDE9001012E05A
:10412000E00707D032463B4640464946FEF72FF9A6
:104130008046894632463B4610461946FEF727F927
:1041400006460F466410002CEAD1DDE90401DDE9E2
:104150000023BAF1000F06DAFEF719F942464B4682
:10416000FEF715F905E0FEF784F942464B46FEF7E7
:1041700080F904460E460022284BFEF78BFB03D83D
:104180004FF0FF30014607E00022254B2046314624
:10419000FEF756F8FEF74EFB102409E0002C0ADB70
:1041A0000A220023FEF70CFA039B30321A55641ED4
:1041B00050EA0102F2D1641C039AC4F111031444C1
:1041C000119A012A03D0012208430DD10AE00843C5
:1041D00004D000204FF0110B119072E7A3EB0B05F8
:1041E0006D1E0DE05B4504DD4FF0000205F1010599
:1041F00004E003DA4FF00002A5F10105002AECD03B
:1042000002981199C0E90231C0E9004579E7000040
:10421000000014400000F03F300000000000F043B8
:104220000000E03F70B52DED108B8AB005460C46BE
:104230009FED510B8DED080B20216846FDF74DFFDA
:104240009FED4D0BB0EE408AF0EE608A1022694679
:104250002846FFF787FD00260FE006F108013DF82C
:104260001100FDF788FF41EC190B53EC182BFDF7FB
:10427000E7FF41EC180B701CC6B2082EEDDB9FED7A
:10428000400B53EC102B51EC180BFEF7F2F841ECFD
:10429000180B0D2D41D1E08AFDF76DFF41EC1B0B92
:1042A0009FED390B53EC102BFEF7E3F841EC190BA3
:1042B0006088FDF760FF41EC1F0B9FED350B53EC61
:1042C000102BFEF764F841EC1E0B9FED330B53EC03
:1042D000102BFEF75CF841EC1C0BA08AFDF74BFF9E
:1042E00041EC1E0B53EC182BFEF74EF841EC1D0B66
:1042F00053EC1C2BFEF7BDF841EC1B0B9FED280B7C
:1043000053EC102BFEF7B5F841EC1A0B53EC192BBC
:10431000FDF796FFCDE9080127E00E2D25D1608835
:10432000FDF729FF41EC1C0B9FED190B53EC102BF3
:10433000FEF72DF841EC1A0B2088FDF71CFF41EC2D
:104340001C0B53EC182BFEF71FF841EC1B0B53EC26
:104350001A2BFEF78EF841EC190B9FED130B53EC63
:10436000102BFEF714F8CDE908019DED080B0AB0FB
:10437000BDEC108B70BD00000000000000000000CC
:104380000000000000002040000000000000594034
:10439000000000000000F0BF00000000000000402E
:1043A00079E9263108AC5CBFB76DDBB66DDB0E403A
:1043B0002DE9FF4F95B09B468946064600250FE242
:1043C000252877D100242746F84A0121059400E0EA
:1043D000044316F8013F203B01FA03F01042F7D1E5
:1043E00030782A2811D06FF02F033078A0F13002F6
:1043F000092A16D8059A44F0020402EB820203EB64
:1044000042021044761C0590EFE759F8042B059200
:10441000002A03DA504244F40054059044F00204A8
:10442000761C30782E2816D116F8010F44F00404BB
:104430002A280DD06FF02F023078A0F13003092B1D
:1044400009D807EB870302EB4303C718761CF3E791
:1044500059F8047B761C30786C280FD006DC4C2889
:1044600017D068280DD06A2814D104E0742810D021
:104470007A280FD10DE044F400140AE044F48014CB
:1044800001E044F440147278824202D104F58014B1
:10449000761C761C307866280BD013DC582877D031
:1044A00009DC002875D04528F6D04628F4D04728E6
:1044B0001AD19DE118E0632835D0642879D06528A9
:1044C00012D195E1702873D008DC6728F1D06928F3
:1044D0006FD06E280DD06F2806D1B5E073282CD090
:1044E000752875D0782874D05A46179990476D1C56
:1044F00075E1C4F30250022809D003280DD0D9F881
:10450000001004280DD00D6009F1040967E1D9F805
:104510000010EA17C1E90052F6E7D9F800100D8043
:10452000F2E70D70F0E719F8041B8DF80010002079
:104530008DF80100EA46012003E059F804AB4FF082
:10454000FF3061074FF0000102D40DE008F10101D6
:104550008846B9420FDA8045F8DB1AF808100029BE
:10456000F4D108E008F1010188468142FADB1AF82B
:1045700008100029F6D105985B46A0EB08072146F4
:104580003846179A00F094FA284400EB080507E033
:104590004DE029E10DE01AF8010B5A4617999047B2
:1045A000B8F10108F7D25B4621463846179A13E165
:1045B00042E00A220092C4F302524FF0000A022A9B
:1045C00008D059F804CB032A4FEAEC710AD00DE069
:1045D00029E02AE009F1070121F00702F2E802C10F
:1045E000914609E00FFA8CFC4FEAEC71042A03D1E2
:1045F0004FFA8CFC4FEAEC71002907DA0A460021D9
:10460000DCF1000C61EB02012D2202E0220504D551
:104610002B228DF80420012203E0E20701D02022A2
:10462000F7E7904659E00A2102E010220DE0102140
:104630004FF0000A00910BE010224FF0000A44F006
:1046400004040827009203E008224FF0000A0092B9
:10465000C4F30252022A05D059F804CB0021032AE0
:1046600008D009E009F1070121F00702F2E802C1D0
:10467000914605E01FFA8CFC042A01D10CF0FF0CD6
:104680004FF00008220728D5702806D0009B83F041
:10469000100353EA0A0305D00EE040228DF80420EF
:1046A000012208E05CEA010206D030228DF80420E5
:1046B0008DF8050002229046009B83F0080353EA20
:1046C0000A030AD15CEA010201D1620705D5302252
:1046D0008DF804204FF001087F1E582804D034A024
:1046E00003900EA802900DE036A0F9E7534660460D
:1046F000009AFDF765FF84460398825C0298401E8D
:10470000029002705CEA0100F0D1029806A9081A32
:1047100000F1200A600702D524F4803400E001276C
:10472000574502DDA7EB0A0000E0002000EB0A017C
:10473000009005984144401A0590E00306D45B467A
:104740002146179A059800F0B3F90544002706E0C2
:1047500001A85A46C05D179990476D1C7F1C4745BC
:10476000F6DBE0030CD55B462146179A059800F06E
:104770009FF9054404E030205A46179990476D1C74
:104780000099481E00900029F5DC08E00298029983
:104790005A460078491C0291179990476D1CBAF14E
:1047A0000001AAF1010AF1DC65E10000092801001D
:1047B0003031323334353637383961626364656697
:1047C0000000000030313233343536373839414259
:1047D000434445460000000000F058F90544761CAB
:1047E000307800287FF4ECAD19B02846BDE8F08F92
:1047F000620700D4062709F1070222F0070CFCE843
:104800000223E14603F000485FEA080C02D00FF2F1
:10481000702C0DE05FEA045C02D50FF2682C07E013
:104820005FEAC47C02D00FF2602C01E0AFF2700CA2
:104830004FF0FF3823F00043CDF850C065280CD06E
:1048400006DC452809D046281DD047283DD13DE04B
:10485000662818D067287ED138E00021112F01DBAF
:10486000112000E0781CCDE9000106A90EA8FFF791
:1048700017FCDDE90F010E9A03910021009207F168
:10488000010A04914DE04FF000400097CDE901107E
:1048900006A90EA8FFF704FCDDE90F0203920E9BA8
:1048A00011990022DDF80CA00093049211B9791C33
:1048B00000EB010AB7EB0A0004D4C0F1FF3007F1A6
:1048C000010A0490AAEB0700019044E0012F00DAEE
:1048D00001270021112F01DD112000E03846CDE92C
:1048E000000106A90EA8FFF7DBFBDDE90F010E9A18
:1048F0000391002104910092BA4621070CD4039938
:10490000514500DA8A46BAF1010F05DD009AAAF195
:104910000101515C302908D0B84202DA10F1040FCD
:1049200006DA0121CDE9011015E0AAF10101E9E75C
:10493000002805DC049901440491AAEB000102E07F
:10494000411C514500DD8A460499401A401C0190E3
:104950004FF000400290200704D40198504501DB3D
:10496000CDF8048000208DF84F0002980DF14F071C
:10497000B0F1004F25D02B200E9002984FF0020886
:1049800000280CDA404202902D200E9007E00A2108
:104990000298FDF71FFC3031029007F8011DB8F1B5
:1049A0000001A8F10108F2DC02980028EFD1791E7D
:1049B0000E980870307800F0200040F0450007F8AD
:1049C000020D12A8C01B00F107081498007800B16E
:1049D000012000EB0A01019801EBE07105984144C8
:1049E000401A401E0590E00306D45B462146179A04
:1049F000059800F05DF805441498007818B15A46FF
:104A0000179990476D1CE00324D55B462146179A01
:104A1000059800F04DF805441CE00498002807DBD9
:104A2000DDE90301884203DD0098405C179901E04D
:104A3000179930205A469047049805F10105401C0B
:104A400004900198401E019004D12E205A461799D7
:104A500090476D1CBAF10001AAF1010ADDDC05E006
:104A600017F8010B5A46179990476D1CB8F10001D1
:104A7000A8F10108F4DC5B462146179A0598ABE6DD
:104A80002D0000002B000000200000002DE9F04167
:104A9000044600251E461746880404D405E039461E
:104AA0002020B0476D1C641EF9D52846BDE8F08172
:104AB0002DE9F041044600251E469046C80301D565
:104AC000302700E02027880404D505E04146384619
:104AD000B0476D1C641EF9D52846BDE8F08110B5BD
:104AE00004462046FFF732F910BD4A68002A06D076
:104AF0000A68531C0B6010704868401E486070477D
:104B00000A68531C0B601070704710B504462046AD
:104B100010F0D4FF10BD10B50446204617F01CFB62
:104B200010BD70B504460D46294620461BF06AFFAD
:104B30002946204616F010F970BD00002DE9F0411D
:104B400016461D46DDE90623074688460D497C20AA
:104B500000F686FC044684F838502022414604F1D1
:104B60003900FDF793FA2022394604F15900FDF788
:104B70008DFA04F1380231462046BDE8F041412368
:104B800000F648BF894B200000F6A2BE2DE9F04791
:104B90001D46DDE9086A0A9B8146884617460022C1
:104BA0001A49A42000F65CFC044600213D3484F838
:104BB000641044F805ACE173012020743068C4F837
:104BC0001100B088A4F81500B079E0752868A061DC
:104BD000A888A083A879A0773D3C1022394604F12B
:104BE0005C00FDF753FA1022414604F16C00FDF71A
:104BF0004DFA07480068E0674A462046BDE8F0479E
:104C000003492023091D00F605BF0000154C2000B4
:104C1000A82E22002DE9F04704468A464FF00008EE
:104C20005146204600F654FEF8B194F8A1004FF02A
:104C3000010904F14C0704F13C0530B104F181068F
:104C4000012813D002282FD121E0102251462846F6
:104C5000FDF71CFA002084F8800084F8A190352329
:104C60003A462946204600F6D5FE1DE01022514660
:104C70003046FDF70BFA84F88090022084F8A100FA
:104C800035233A462946204600F6C4FE0CE01022A1
:104C9000514604F19100FDF7F9F9A36B314600206C
:104CA000626998474FF001084046BDE8F087000070
:104CB0002DE9F05F1546DDE90B9A1E46DDF82880E8
:104CC000DDE90D2383460F461D497C2000F6C8FB15
:104CD00004461022394604F16900FDF7D7F9102285
:104CE000294604F15900FDF7D1F91022314604F1AB
:104CF0004900FDF7CBF93834B8F80000E08198F8A6
:104D000002002074D9F80000C4F80700B9F80400C4
:104D1000A4F80B0099F806006073DAF80000206030
:104D2000BAF80400A0809AF80600A071383C04F19B
:104D3000380259462046BDE8F05F412300F66ABEBE
:104D4000454D200000F6C4BD2DE9F04115461E4634
:104D5000DDE9062380460F460F49882000F680FBD8
:104D600004462022414604F16800FDF78FF9202215
:104D7000394604F14800FDF789F9314604F138005D
:104D800010220646FDF782F9324629462046BDE844
:104D9000F041502300F63EBE9D4D200000F698BD28
:104DA00010B586B014461CF0FBF9002815D00C484D
:104DB00021680160A1888180A179817102F0E6FEFD
:104DC0000446002C09D01422064901A8FDF75EF91B
:104DD000ADF8084001A800F02DF906B010BD0000A4
:104DE0003C5E00206C1D220006460F46154672B63A
:104DF0003846FDF77DF9402801D9402002E03846C9
:104E0000FDF776F980463046FDF772F9402801D962
:104E1000402002E03046FDF76BF904469C21104823
:104E2000FDF75BF9424639460D48FDF72FF90C486E
:104E3000224631465C30FDF729F909484FF0AA3186
:104E4000016445644FF0BB3181644FF0CC310165A2
:104E50004FF0DD318165002000F004F8FEE700002E
:104E6000D076002030B5ADF20C4D04464FF4806191
:104E700003A8FDF732F9194D202085F83F0085F889
:104E80009B003CB12846012C436DC26C09D0022C1A
:104E90000CD00FE0114A12A15C3203A8FEF720FDEE
:104EA00008E012A103A8FEF71BFD03E017A103A869
:104EB000FEF716FD03A90CA2686CCDE90121009054
:104EC00019A3064A19A1002000F0C8FD012C01D049
:104ED00000F07CFD0DF20C4D30BD0000D0760020BE
:104EE0005B4552524F525D20257300005B57415283
:104EF0004E494E475D20506172616D303A25642CF9
:104F0000506172616D313A25640000005B5041527E
:104F1000414D5D20506172616D303A25642C5061C5
:104F200072616D313A256400000000006170705FAD
:104F30006173736572742E630000000001481AF0FB
:104F40004FBB0000785D002006460F4690461D4688
:104F500072B64046FDF7CCF8402801D9402002E067
:104F60004046FDF7C5F804469C210D48FDF7B5F80D
:104F7000224641460A48FDF789F809484FF0553165
:104F8000016445644FF066318164C6644FF0773147
:104F900001654765C94381650220FFF763FFFEE7AE
:104FA000D07600202DE9F04106460F4690461D467A
:104FB0004046FDF79DF8402801D9402002E04046D8
:104FC000FDF796F804469C210D48FDF786F8224629
:104FD00041460B48FDF75AF809484FF0113101647A
:104FE000456449008164C6644FF03331016547650B
:104FF0004FF044318165BDE8F0410120FFF732BF39
:10500000D07600207047000010B586B002F07EFD1B
:105010000446002C09D01422054901A8FDF736F8F2
:10502000ADF8084001A800F005F806B010BD00007A
:10503000941D22003EB504464FF400711A48FDF756
:105040004CF8207810B1012819D01DE00021174834
:10505000A28830F831309A4207D100EBC10014A188
:1050600043681148FEF73CFC0EE02E2902D0491C93
:10507000C9B2EEE714A10C48FEF732FC04E01DA112
:1050800009486268FEF72CFC074921A22069CDE996
:1050900001210090D4E902231EA1002000F0DEFCD3
:1050A000BDE83E4000F0A6BCD0740020441B2200A6
:1050B0004572726F7220636F6465203078253034DA
:1050C000583A2025730000004572726F7220636F9A
:1050D0006465203078253034583A204E6F20666F52
:1050E000756E6420696E666F726D6174696F6E2E85
:1050F0000000000028257329206973206E6F74203A
:1051000065737461626C69736865642E00000000E9
:10511000257300006170705F6572726F722E63009C
:1051200070B504460D460121204602F0D1FA70BD4B
:105130002DE9F041014600291BD000240F4E0E4AF4
:10514000357814E002EB04100F780378BB420CD1E1
:105150004B684068034208D0707808B900F014FC2E
:105160002046BDE8F04100F04FBA641CE4B2AC4206
:10517000E8D3BDE8F0810000247200204C5D0020DF
:105180007CB505460E46002D01D0002418E0E52030
:105190007CBD05EB041041680091017A8DF8041084
:1051A000417A8DF8051008218DF80610C268007844
:1051B0000023694600F038F80028E9D1641CE4B205
:1051C000B442E6D300207CBD10B502460846052A4D
:1051D00025D2DFE802F0030303111900114951F849
:1051E00032200104090C05D022B1014610460EF010
:1051F0005FFC10E0E42010BD10F0FF0F02D00DF0B6
:1052000069FD08E0E42010BD10F0FF0F05D0014655
:1052100000200EF05FFD002010BDE42010BDE62050
:1052200010BD0000381A22002DE9F05F05460C463B
:105230009046994626680027042D11D0314628460D
:10524000FFF7C2FF2146284600F05EF8002808D18B
:10525000032D08D04FF0100A2807070E002448E05D
:10526000E620BDE8F09F4FF0080AF7E7F0073DD0D1
:105270003DB1012D05D0022D03D0032D21D0E62014
:10528000EFE71E4800EBC50090F904B0BBF1000F3A
:1052900015D0EFF31081012080F31088184AE0192F
:1052A00042F8308002EBC000C0F8049081F310880F
:1052B000584614F685FF584614F6A0FF16E0E42081
:1052C000CFE7EFF31081012080F310880D4AE01939
:1052D00042F8308002EBC000C0F8049081F31088DF
:1052E0001B2014F66DFF1B2014F688FF7608641C43
:1052F000E4B25445BAD30020B3E70000381A2200C4
:10530000707000207071002030B597B005460C46D3
:105310001C22454910A8FCF7B9FE1C2242491C3149
:1053200009A8FCF7B3FE20223F49383101A8FCF759
:10533000ADFED4B13D4906201AF062F83C49072081
:105340001AF05EF83B491B201AF05AF83A4912202D
:105350001AF056F834496C39A1F12C02052D61D2AE
:10536000DFE805F0060606213900E52017B030BD5C
:10537000207931F810001190607932F81000129005
:10538000A0791390206810902748843850F8350091
:1053900021880904090C04D018B110A90EF079FC79
:1053A00039E0E420E2E7207901EB4000808A0A90AE
:1053B000607902EB4000C0880B90A0790C902068C7
:1053C0000990207810F0FF0F03D009A80DF072FDAE
:1053D00021E0E420CAE72079031F042B01D8E7204D
:1053E000C4E7022819D001200290207901EB400087
:1053F000008D0390607902EB400080890490A079D1
:10540000059020680190207810F0FF0F08D001A9C6
:1054100000200EF013FD0020A8E702200290E4E730
:10542000E420A3E7E620A1E7BC1A2200C141100056
:10543000BB411000B7411000B141100002460020EE
:10544000052A11D2DFE802F0030303090C00074824
:1054500050F8320089B214F612BE88B20DF0A4BD25
:1054600089B200200EF0F2BC70470000381A22000A
:10547000002803D0024908600120704700207047CF
:10548000545D002070B505460024091F062917D277
:10549000DFE801F003070C111315284600F0A4F80B
:1054A0000EE00124284600F09FF809E00224284677
:1054B00000F09AF804E0032402E0042400E005244C
:1054C000034A214628461268BDE870401047000094
:1054D000545D00202DE9F0410446204600F0AEF86E
:1054E00001462E4800230826025D00F10A0700F15C
:1054F0001405AAB1052A33D0082A2AD1092945D092
:10550000082926D1295D491CC9B22955142920D35F
:105510002B5506552046BDE8F0410821FFF7B2BFE4
:10552000052913D0042916D0072914D0082910D131
:10553000295D491CC9B2295514290AD32B55065592
:105540002046BDE8F0410821FFF79CBF3B550521EF
:105550000155BDE8F0812046BDE8F041FFF792BF5C
:1055600005290CD0395D491CC9B239553229F0D30F
:1055700003552046BDE8F0410521FFF783BF0355E1
:105580002046BDE8F0410621FFF77CBF03552046C9
:10559000BDE8F0410921FFF775BF0000047300204A
:1055A00070B504460D4600F00FF808B100F002FA9D
:1055B0000348044A2946005D5268BDE87040104720
:1055C000187200204C5D00200020064911F81020C0
:1055D0000AB100207047401CC0B20A28F6D301204F
:1055E00070470000227300200349002201F81020B8
:1055F00001EB40004270704722730020014A02F81C
:105600001010704722730020024A012102EB400073
:10561000417070472273002070B50024064D05EBE1
:105620004400407810B12046FFF754FF641CE4B2F8
:105630000A2CF4D370BD00002273002070B5002145
:105640001D4B03F132051A5C002A09D0002403F136
:105650000A06012A0AD0022A12D0032A24D11FE006
:1056600015F8102002B301221A541DE015F810207D
:105670001AB1345402221A5416E01C54042113E0C7
:1056800015F810204AB1325C521CD2B23254642A4E
:105690000AD3072103221A5406E005211C5403E013
:1056A00015F8101011B10821084670BD1C54FFF701
:1056B0009BFF0921F8E70000F07200201CB50428C8
:1056C00031D101290CD002292DD1394C2078002864
:1056D0002AD0012837D0022844D003285FD150E0D7
:1056E00016F0BCF80446012C0DD10021084616F036
:1056F000BBF830A04921CDE90010354B35A23EA1C1
:10570000032000F0ABF9002C0DD10121002016F090
:10571000ABF83BA04F21CDE900102D4B2DA236A1B7
:10572000032000F09BF91CBD0021084615F0D8FFAE
:105730003AA05821CDE90010254B26A22EA1032026
:1057400000F08CF92BE00121002015F0C9FF39A0F1
:105750005D21CDE900101E4B1EA227A1032000F001
:105760007DF91CE00421002015F0BAFF3AA0622167
:10577000CDE90010164B17A21FA1032000F06EF90F
:105780000DE00221002015F0ABFF3DA06721CDE91F
:1057900000100F4B0FA218A1032000F05FF9207832
:1057A000401CC0B220700428BDD1002020701CBD58
:1057B000F45D0020416C726561647920736574202A
:1057C00053696C656E74204D6F64652E0000000097
:1057D000041D22002E2E5C5372635C706C61746633
:1057E0006F726D5C757365725F7065726970685F0A
:1057F00073657475702E63004E4F5F54414700000F
:10580000416C726561647920736574204E6F726DAE
:10581000616C204D6F64652E00000000416C726564
:1058200061647920736574206E6F20616C65727499
:10583000732E0000416C7265616479207365742079
:1058400052696E67657220537461746520697320B4
:105850006163746976652E00416C726561647920BC
:1058600073657420446973706C617920537461743A
:1058700065206973206163746976652E00000000FD
:10588000416C726561647920736574205669627237
:105890006174696E67205374617465206973206157
:1058A00063746976652E00002DE9F0410E461746B7
:1058B0000A2E02D80FB100231AE00020BDE8F081C3
:1058C00003EB430400EB8405114AA97AD154104933
:1058D00010F824200C3101EB031422706968616018
:1058E000297A2172697A61720A49E1605B1CDBB234
:1058F000B342E5D3064831460C30FFF741FC064879
:10590000067047600548FFF7B3FD0120D6E70000A9
:1059100018720020315120004C5D0020A15520005C
:105920002DE9F0410024124FDFF8488019E00026ED
:1059300007EB041528786968FFF780FD10B9697ACC
:10594000012902D0012802D005E0012603E0687A8F
:10595000022800D1012631462046FFF74FFE641C85
:10596000E4B298F800008442E1D3BDE8F081000081
:10597000247200204C5D002010B5FFF7D1FFBDE878
:105980001040FFF749BE000010B5074A0121074843
:1059900000F0A8F900220A21044800F0F9FA0449AD
:1059A0000120487010BD000079592000C872002005
:1059B0004C5D002010B5034800F0C2F902490020F8
:1059C000487010BDC87200204C5D00200248406A3B
:1059D000002800D000477047A8740020002806D097
:1059E000002904D0024AD269002A00D0104770472B
:1059F000A87400200248006A002800D000477047C1
:105A0000A874002070B50D4616460D4C00280AD02B
:105A10000178032911D80121A17601461A222046D6
:105A2000FCF734FB05E00020A0761A210448FCF7BF
:105A300054FBE5612662002070BD012070BD0000AE
:105A4000A8740020044A1044807D084201D001203F
:105A50007047002070470000A87400202DE9FE4F19
:105A60000746924699460024A046CDF80480CDF81A
:105A7000088059480178B94202D2807E00287DD141
:105A80000EAD0095EFF311860220FDF7ADFF8346C2
:105A9000FEF740F8401C012181400BEB0100C0B231
:105AA00080F3118801213846FFF7CCFF38B14B480D
:105AB0004B4950F82720204600F0A4F804461C214A
:105AC0003846FFF7BFFF00285ED046A24449204673
:105AD00000F098F8204484B204213846FFF7B2FF62
:105AE000F8B152463E49204600F08CF8204484B27A
:105AF00008213846FFF7A6FF38B13BA238492046B7
:105B000000F080F8204484B20BE010213846FFF703
:105B100099FF30B135A23249204600F073F8204495
:105B200084B208213846FFF78DFF90B14A462C49D0
:105B3000204600F067F8204484B210213846FFF771
:105B400081FF30B12AA22649204600F05BF82044AC
:105B500084B210213846FFF775FF60B126A20521F7
:105B600001A80C9BFDF7A4FE01AA1D49204600F0E8
:105B700049F8204484B221A2194900E029E02046D6
:105B800000F040F8204484B21548C4F580712044E8
:105B90002B460D9AFDF7B8FECDF800804FF48071CA
:105BA000002804DB2044884201DC85B200E00D4679
:105BB000A81C884200D9FE2511A20949284600F0F8
:105BC00021F8284481B20648FFF708FFF0B280F3BD
:105BD0001188BDE8FE8F0000A8740020645D0020DD
:105BE000A873002028000000200000003A000000F8
:105BF000204C696E653A0000256C64002920000085
:105C00000D0A000030B50546002000290CD0002AFE
:105C10000AD006E02B18FF2B06D8CC54521C401C8F
:105C200080B21478002CF5D130BD000010B5064AC2
:105C300006214CF2010015F0A1FB04F08BFEBDE83B
:105C4000104002203DF6DEBFFE1C220010B50848C1
:105C5000017800290AD10121017006483DF6D4FEE1
:105C6000BDE81040002104483EF664B810BD0000B5
:105C7000485D0020D54110007DC3210010B58AB0D9
:105C800000218DF814100C20ADF81C00ADF81E009A
:105C9000ADF820104FF4C870ADF822000F4802682C
:105CA000CDF815208288ADF8192080798DF81B0079
:105CB000ADF8241005A9002001F05CFD0446002C7D
:105CC00009D0142206496846FCF7E0F9ADF8044013
:105CD0006846FFF7AFF90AB010BD00003C5E002037
:105CE000801D22002DE9F04104460D461746002D87
:105CF00004D0012D02D00120BDE8F081E4B1DFB174
:105D0000607801281AD0EFF311860220FDF75EFEBD
:105D10008046FDF7F7FE401C0121814008EB0100A1
:105D2000C0B280F3118800206070A570E761F0B206
:105D300080F311880020DFE70120DDE70620DBE7A4
:105D400010B50446002C0CD0204600F0B3F9FF201B
:105D500060700021A160E160216161610020E0616B
:105D600010BD012010BDF0B5DDE907450599816141
:105D70004FF47A76A2FB061C03FB06C3002702FB46
:105D80000732C0E9021209196A41C0E90412002170
:105D90000162F0BD2DE9F0410446002C13D0EFF371
:105DA00011850220FDF712FE0746FDF7ABFE401CF1
:105DB000012606FA00F03844C0B280F31188124878
:105DC000002121620EE00020BDE8F081D4E9043218
:105DD000D1E9047CDB1B72EB0C0202D2016A216266
:105DE00003E00846016A0029F0D1046266700648A3
:105DF00010380168491C0160016B4160E8B280F312
:105E000011880120E0E70000487300202DE9F041EF
:105E100005460024EFF311860220FDF7D7FD074663
:105E2000FDF770FE401C012181407818C0B280F35C
:105E30001188134A106BE8B115B102F1100010E09F
:105E40000446206A10631068401E10600CE0A942EE
:105E500006D11168491E1160296A01622C4603E0CF
:105E60000846016A0029F2D124B100202062607046
:105E7000106B5060F0B280F311882046BDE8F081CD
:105E8000387300202DE9F041EFF311870220FDF770
:105E90009DFD0446FDF736FE401C0121814060183F
:105EA000C0B280F31188114D002608E02078012847
:105EB00004D1E16909B1A069884726702D6A2C6A6E
:105EC000002CF3D1094D103D07E0E16909B1A0694B
:105ED00088472670206AA8632662AC6B002CF4D138
:105EE000F8B280F311880120BDE8F08148730020EA
:105EF0002DE9F041EFF311870220FDF767FD04461D
:105F0000FDF700FE401C012606FA00F02044C0B256
:105F100080F311881D4DA5F110082DE0D4E904305F
:105F2000D8E902125B1A60EB0200D8E91021D21AFC
:105F3000814124D326702046FFF768FFA07801280E
:105F400006D01248283000212162016861B10FE0BB
:105F5000D8E90220D4E9021351185841C4E90410C9
:105F60002046FFF717FF07E0046005E001F120007D
:105F700001680029FAD104602C6A002CCED1F8B255
:105F800080F311880120BDE8F081000048730020F3
:105F90002DE9FF5F82460E4693464FF00008BAF1A6
:105FA000000F20D0414886421DD8E6B1EFF311879B
:105FB0000220FDF70BFD0446FDF7A4FD401C012166
:105FC00081406018C0B280F3118850460FF04AFE3D
:105FD00010B19AF8010040B1F8B280F311880F2097
:105FE00004B0BDE8F09F0120FAE714F0C3FD0446B9
:105FF0000D464FF47A7106FB01F022462B46002134
:106000000FF000FEDFF8A890B0B1D9F8040048B155
:10601000D0E90410091B60EB0500C9E9021014F077
:1060200023FE04E00021C9F80810C9F80C104FF055
:106030000108D9E9020106E0D9F80400D0E90421F9
:10604000101B61EB0501CDE9020132460023CDF8BA
:1060500000B05046FFF787FE5046FFF79BFE19F051
:10606000E7F84FF0E024D4F800014FF0806510F01D
:10607000806F01D0012000E0002020B91A20FDF738
:1060800059FCC4F80051B8F1000F0AD0D9F8040047
:10609000D0E90431D9E90202181A61EB020114F0C7
:1060A0009FFDF8B280F31188002099E7008AB907B4
:1060B000387300202DE9F04104460025002C39D02A
:1060C000EFF311870220FDF781FC0646FDF71AFD6C
:1060D000401C012181407018C0B280F311886078A3
:1060E000012824D1144E7068A0420BD114F042FD57
:1060F000D4E90432181A62EB0102C6E9020214F074
:10610000B3FD01252046FFF781FE5DB1706848B1FF
:10611000D0E90421D6E90203101A61EB030114F05F
:106120005FFD04E01DB9706808B914F09DFDF8B278
:1061300080F31188BDE8F0813873002070B5044603
:106140001A4D55F82400703017F0DBFA82B216466B
:10615000A2B155F8240090F8011101290ED00121B7
:1061600080F80411802A0FD355F82400802200F112
:106170008001703017F0DAFA80260CE055F8241010
:10618000002081F8000170BD55F8240000F1800165
:10619000703017F0CBFA55F82400324600F1800138
:1061A000001D0EF06FFC0028EDD170BD08720020BC
:1061B000704700002DE9F84304464D4F57F824007E
:1061C000061D042C7ED290F86C1000297AD001298B
:1061D00078D190F80011012974D190F801110029AB
:1061E00070D1012180F80111002157F82400D0E975
:1061F00003231344027D02F00102D21D9D18426860
:10620000D36FC3F38003002BFAD090F80421A2B11E
:10621000384A1368491C90F83B20102A06D082683F
:10622000B3FBF2F26A43B1EBC21FF3D957F8240073
:10623000703017F066FA85B226E0B0F82480C58C7D
:10624000001D0EF059F957F8240041F2883300EB95
:106250000801491B8031001D2A460EF0C5FBE5E709
:1062600057F8240001227030694617F05FFA57F89A
:1062700024004068C16FC1F340010029FAD09DF8A5
:10628000001001606D1EADB2002DE9D157F8240059
:10629000703017F036FA0028C8D1306841694906D5
:1062A000FCD5EFF31085012080F3108857F8240007
:1062B000703017F026FA68B1EFF31081012080F3F7
:1062C000108800E011E03068426842F082024260CB
:1062D00081F3108857F82410002081F8000157F846
:1062E000241081F8010185F31088BDE8F8830000CF
:1062F00008720020B05400202DE9F04105460F46F9
:10630000002D06D02AB12C78042C04D3E820BDE857
:10631000F081E520FBE7344E05F1580046F82400F3
:10632000D2E900310A467030194617F0D5F9291D17
:10633000286D1AF05FFC0028E9D156F82410281DBA
:10634000486656F82400076056F8240018220830E2
:1063500005F14001FBF79AFE244856F8241000EBA3
:10636000C4056868486056F82400001D0EF028F93E
:1063700056F82400001D0EF013FA1C4801220321D8
:10638000103816F069F856F82410012081F86C00D6
:1063900056F82410002081F8000156F8241081F8E6
:1063A000010156F8241081F8020156F8241081F8F2
:1063B00003010F490C2019F023F80E490D2019F0A4
:1063C0001FF80D49342019F01BF80C49352019F03D
:1063D00017F895F9010013F6F3FE95F9010013F68D
:1063E0000DFF002093E7000008720020241B22000C
:1063F0004D3820005D3820006D3820007D382000A9
:106400002DE9F04104461A4D55F82400703017F07C
:1064100078F982B2164600277AB155F8240090F830
:106420000111012909D0802A0ED300F180017030BA
:10643000802217F07BF980260BE055F8240080F8C5
:1064400000710020BDE8F08100F18001703017F08C
:106450006DF955F8240080F8047155F8240032468F
:1064600000F18001001D0EF075FB0028EAD1E9E77C
:106470000872002070B5042801D3E82070BD104DCB
:1064800055F8204064B194F86C604EB151B14AB1F6
:106490005E1C09D044F62066B34205D9E42070BDE5
:1064A000E52070BDE42070BD002684F8026155F837
:1064B0002000001D0EF098FA0028F4D170BD0000F5
:1064C000087200202DE9F74F84B005460C460226DD
:1064D00004F1080920460CF09FF807463E48D0F822
:1064E00004A000200390B5F5804F0ADBB5F5004FFE
:1064F00007DA3948406839490968A0EB010A0120E8
:106500000390E019504501DD052662E0324800683D
:1065100000F6FF7030490988491EC1F30B01401A8B
:10652000C0F3073B039810B12C48006800E000203E
:1065300002902B4800682B490968401A001F264921
:10654000497AA1EB0B01A0EBC10023490968411A6C
:106550000298A1EB000809EB0700404532DD00205E
:1065600011231E224FF400410090012041F646F90C
:10657000002108460BF0FCFEC8B91749487A0FF015
:10658000CBF906461EB1304607B0BDE8F08F0020BB
:1065900012231E224FF400410090012041F62EF9F3
:1065A00021462846069A1AF0A3FE064610E000206F
:1065B00013231E224FF400410090012041F61EF9E2
:1065C0000F2605E021462846069A1AF091FE064657
:1065D00000BF3046D8E700005CC700204C610020B7
:1065E000586100205061002010B500210A4C0023A2
:1065F000002001EB410202EBC10204EB420222F84F
:106600001030401CC0B20A28F9D31375491CC9B216
:106610000A29EDD310BD0000D4CD00200848006841
:1066200000280CD090F82E10012908D190F83000E5
:10663000FF2804D20349086840F080600860704772
:106640009C09002000000E4010B586B00446684644
:106650003EF684FB9DE80E0003A80EC00B4A891C81
:1066600021F07041516010463EF648FD07483EF665
:10667000B9FD207F002806D1054991F80101054A9E
:1066800001EB0010426006B010BD0000E0200020C9
:10669000F42000207DA82100F0B5ADB005460E46DF
:1066A0000024AC620CA82421FBF717FD1594169466
:1066B00001A82421FBF711FD0A940B9422A824229F
:1066C0002946FBF7E3FC686A2B90A86A2C908A4D58
:1066D00017A824222946FBF7D9FC686A2090A86AEB
:1066E000219001251495099415950A95C8E022AFCB
:1066F0004FF0000C0022214657F82200401844EBCE
:106700000C0149084FEA300147F8221020F001013E
:10671000B0EB010C02F10102092AECD3002057F87A
:10672000201011B9401C0928F9DBC0F1090078627A
:106730001498C00706D00CA8FCF794F92A98C00753
:10674000D5D048E00CAF4FF0000C0020214657F8A0
:106750002020521841EB0C035B084FEA320347F844
:10676000203022F00103B2EB030C00F101000928F4
:10677000EDD3002057F8201011B9401C0928F9DB8F
:10678000C0F109007862D9E717AF4FF0000C002084
:10679000214657F82020121944EB0C0359084FEA00
:1067A000320147F8201022F00101B2EB010C00F198
:1067B00001000928ECD3002057F8201011B9401C23
:1067C0000928F9DBC0F1090078620998C0070DD0EB
:1067D00001A8FCF747F91F98C007D5D022AA17A92E
:1067E0002B98209B984223D9284637E001AF4FF0E1
:1067F000000C6246234657F82200C01843EB0C01F8
:1068000049084FEA300147F8221020F00101B0EBAF
:10681000010C02F10102092AEDD3002057F82010E3
:1068200011B9401C0928F9DBC0F109007862D2E7F0
:1068300001D2204612E0C0F109000CE051F82030EE
:1068400052F82070BB4201D9204607E001D2284609
:1068500004E000F101000928F0D3284640B117A94F
:1068600022A8FCF7F9FE01A90CA8FCF71FFF07E01E
:1068700022A917A8FCF7F0FE0CA901A8FCF716FF47
:106880002B9800287FF47FAF0B9868B101A818F00F
:10689000BFFD01A924223046FBF7F8FB0A9870627D
:1068A0000B98B0622DB0F0BD134901AA486A0A9B4B
:1068B000984201D92C4610E00FD3C0F109000AE03C
:1068C00052F8203051F82070BB4206D801D22C4635
:1068D00003E000F101000928F2D34CB101A9242200
:1068E0003046FBF7D3FB0A9870620B98B062D9E789
:1068F00001A818F08DFDCCE7901F220010B58CB0D8
:1069000008A819F06BFBBDF8221009989DF821200A
:10691000CDE904109DF820302DA04FF4B471CDE9DD
:106920000232CDE90010344B34A23AA10220FFF725
:1069300095F80AA800F08AFE044654B114222E49A4
:10694000103103A8FBF7A2FBADF8104003A8FEF737
:1069500071FB9DF828009DF82910CDE906109DF8DF
:106960002A209DF82B30CDE904329DF82C109DF89B
:106970002D002AA240F26D13CDE90032CDE90201CB
:106980001D4B1EA223A10220FFF768F82EA04FF492
:10699000BA71CDE90010184B18A21EA10220FFF712
:1069A0005DF818F0FDFB08F011FB01F0AFF80446AC
:1069B000002C0AD014221049243103A8FBF766FBEF
:1069C000ADF8104003A8FEF735FB0CB010BD000079
:1069D000476F6F64697820424C452053444B2056E2
:1069E00025642E25642E25642028636F6D6D6974DF
:1069F0002025782900000000B81D22002E2E5C53AF
:106A000072635C757365725C757365725F617070DB
:106A10002E6300004E4F5F54414700004C6F63618E
:106A20006C20426F61726420253032583A25303232
:106A3000583A253032583A253032583A25303258B3
:106A40003A253032582E000050686F6E6520416C38
:106A50006572742053746174757320536572766522
:106A600072206578616D706C6520737461727465F5
:106A7000642E00002DE9F04104460D4616461F46DF
:106A80003B4632462946204600F68EFCBDE8F081A2
:106A90002DE9FF5F04460D4616461F46DDE910ABA3
:106AA000DDE90E893B463246294620468DE8000F37
:106AB00000F652FE04B0BDE8F09F2DE9FF5F0446EA
:106AC0000D4616461F46DDE910ABDDE90E893B4653
:106AD0003246294620468DE8000F00F64FFE04B0EE
:106AE000BDE8F09F70B504460D462946204601F6E4
:106AF000CBF870BD10B50446204601F663F910BD11
:106B000070B504460D462946204601F63FFE70BD8D
:106B100070B5054628781949097808440A2801DD26
:106B2000042070BD0024002623E01EE01448005D10
:106B3000D0B9C6EBC603691C5A1804F14001C1F371
:106B40000D0141F40040072114F018FC08B10120A8
:106B5000E7E701222046641C09490A5407480078E7
:106B6000401C0649087002E0641C0A2CDEDB00BFF2
:106B7000761C2878B042D8DC0020D2E7AD64002033
:106B800080D10020F8B507460D46384605F096FE40
:106B900006460B48007886420EDAC620009006EBC7
:106BA00046012231C1F30D0141F400402A466946F5
:106BB00014F070FA002400E003242046F8BD000021
:106BC000AC640020F8B505460026002415E0082036
:106BD00000900C48005D01280ED1691C01EBC60233
:106BE00004F16001C1F30D0141F40040694614F065
:106BF00051FA08B9701CC6B2641C042CE7DB2E7075
:106C00000020F8BDAE6400202DE9F041A8B0044694
:106C10000E46002700206070804648E08C200490DB
:106C200008EB48012131C1F30D0141F4004005AAF0
:106C300004A914F02FFA48BB9DF8150000F00200DB
:106C400020B36078B04222DA07EB8701606800EB7E
:106C5000C1050DF13700DDF837102960BDF83B1094
:106C6000A9808079A8719DF81600E87110220DF1B5
:106C7000270105F10800FBF709FA10220DF11701B1
:106C800005F11800FBF702FA781CC7B20BE00020F0
:106C900001211E231A46CDE901060091C9030120F6
:106CA00040F6ACFD07E008F1010000F0FF080548E0
:106CB00000788045B2DB00BF6770002028B0BDE8D7
:106CC000F0810000AC640020F8B506460C46304662
:106CD00005F0F4FD054602270A48007885420FDAE0
:106CE0008C20009005EB45012131C1F30D0141F4E9
:106CF00000402246694614F0CDF907463846F8BDF3
:106D00000320FCE7AC640020F8B506460C4630468C
:106D100005F0F2FD054602270A48007885420FDAA1
:106D20008C20009005EB45012131C1F30D0141F4A8
:106D300000402246694614F0ADF907463846F8BDD2
:106D40000320FCE7AC640020F8B5054600260024CB
:106D500016E0072000900D48005D01280FD1C6EB1A
:106D6000C603691C5A1804F14001C1F30D0141F436
:106D70000040694614F08EF908B9701CC6B2641C54
:106D80000A2CE6DB2E700020F8BD000080D1002028
:106D9000FEB504460D463020B5FBF0F015490870ED
:106DA00008460078C0EBC006084607780078002146
:106DB00001221F23CDE9002102901E224FF4004141
:106DC000012040F61BFD0C480460A0190B49086027
:106DD00000200B4908704870A0193844486002F040
:106DE000F1FB28B10EF082FC0EF0D8FC0020FEBDB5
:106DF0000220FCE7AC640020A4640020A86400200A
:106E0000B46400202DE9F04107460C46384605F0F1
:106E100055FD06460D480078864213DA06EB46011A
:106E20002231C1F30D0141F400402246C62114F085
:106E3000A5FA8046B8F1000F01D0012000E0002043
:106E4000054600E003252846BDE8F081AC6400203B
:106E5000FEB506460F460024304605F02FFD0546D8
:106E600000BF40480078854219DA05EB4501213121
:106E7000C1F30D0141F400403A468C2114F07EFA32
:106E80000446002C5FD0002001211A231E22CDE9E8
:106E900001040091C903012040F6B0FC54E005F064
:106EA00059FD054605EB4501203141F400403246CD
:106EB000072114F063FA04465CB1002001211B2372
:106EC0001E22CDE901040091C903012040F696FC81
:106ED0003AE005EB45012131C1F30D0141F40040D9
:106EE0003A468C2114F04AFA0446A4B1002001214C
:106EF0001C231E22CDE901040091C903012040F6A4
:106F00007DFC05EB45012031C1F30D0141F400404A
:106F100014F026F818E028461AF006F905EB4501AA
:106F20002231C1F30D0141F4004014F019F8C5EB12
:106F3000C5000D490968084431680160B188818045
:106F4000B1798171002400BF00BF44B9787800F0A6
:106F5000020020B1034801780448FFF755FE20469F
:106F6000FEBD0000AC640020A4640020B4640020D6
:106F700010B50446204604F683FE10BD10B5044645
:106F8000204604F671FF10BD70B504460D46294633
:106F9000204604F681FF70BD10B509F0A7FF0A482E
:106FA0000A4948600A490948C1600A4941610A49D9
:106FB000C1610A4941620A49C1620A4941630A49F9
:106FC000C1630A49416410BDCD752100186A0020D3
:106FD000897421000D772100FD732100717A210051
:106FE000398121001D702100296E21009D71210031
:106FF00010B500F017F816F019FE0EF04DFE0EF069
:107000002BF916F09DFC002121203AF653FC0021BB
:1070100022203AF64FFC0021BDE8104023203AF62A
:1070200049BC0000014902480BF070BD4D9B210096
:10703000E9BA020010B56FF002008A4908603820F2
:10704000002807DB00F01F0201219140864A430916
:1070500042F8231000BF0020844908601E2006F675
:10706000ABF900BF81481C30006840F002007F4946
:107070001C3108600846006840F0010008600846BE
:10708000006820F00200086000BF00BF7748001FC2
:10709000006840F001007549091F08600846006853
:1070A00020F00200086000BF00BF12F05BFA002869
:1070B000FBD102206D493839096821F0030108B974
:1070C000002206E0022802D140F2AA2201E040F2AA
:1070D000FF3202F003021143644A383A116000BFE4
:1070E00002201146096821F00C0108B9002206E0CF
:1070F000022802D140F2AA2201E040F2FF3202F05F
:107100000C021143594A383A116000BF022011465F
:10711000096821F0C00108B9002206E0022802D166
:1071200040F2AA2201E040F2FF3202F0C002114315
:107130004E4A383A116000BF03204C494039096873
:1071400021F0030108B9002206E0022802D140F232
:10715000AA2201E040F2FF3202F003021143434A47
:10716000403A116000BF03201146096821F00C016C
:1071700008B9002206E0022802D140F2AA2201E06A
:1071800040F2FF3202F00C021143384A403A1160DB
:1071900000BF03201146096821F0C00108B9002290
:1071A00006E0022802D140F2AA2201E040F2FF32BA
:1071B00002F0C00211432D4A403A116000BF00BFE7
:1071C00001202A493439086000BF00BF12F0CAF913
:1071D0000028FBD100BF25481C30006820F00400C7
:1071E00022491C31086000BF00BF2048001F006812
:1071F00020F004001D49091F086000BF00BF1B48A4
:107200001C30006840F0040018491C31086000BFC1
:1072100000BF1648001F006840F004001349091F12
:10722000086000BF012018F06FFA00BF1048006826
:1072300020F040000B499839C1F8800200BF00BF20
:107240000846D0F8800220F01000C1F8800200BF8C
:1072500000BF0846D0F8800220F02000C1F880026C
:1072600000BF10BD98A0004080E200E0C4A4004030
:1072700080A2004010B50AF0D5FE13F0A9FA12F072
:1072800005FB12F0B1FAFFF7AFF912F095FABDE87D
:10729000104012F0A1BA000000BF1948006820F0A9
:1072A00004001749086000BF00BF1548203000687F
:1072B00020F0040012492031086000BF00BF1048D0
:1072C000006840F002000E4908600846006820F09F
:1072D0000100086000BF00BF09482030006840F08E
:1072E00001000749203108600846006840F00200AC
:1072F00008600846006820F00100086000BF704781
:10730000C0A4004010B511F605FD10BD38B518F049
:1073100041FE28B140F27E41084618F093FB04E09C
:1073200040F27E41084618F08DFB2748007878B17E
:1073300026480068009018F09FFB04462448008807
:10734000009018F099FB0546214618F0B7FD05E0BE
:107350004FF466714FF47F7018F0B0FD1D4814F0C3
:1073600027FE18F017FE10B91B48007880B91B489B
:1073700018490A6802604A6842600989018118490F
:10738000144802680A6042684A600089088119E06E
:107390001249104802680A6042684A600089088100
:1073A0000F490C4802680A6042684A6000890881F7
:1073B00040F21A400949088018F0DAFA0749888033
:1073C0000120487238BD000058630020546300203B
:1073D000566300202A6300201663002034630020D7
:1073E0003E63002070B504460A2C15DA492040EAB5
:1073F0000422052000EB0421042340F6224002F081
:1074000035F805463DB1212028704FF6FF706880A1
:10741000284602F073F800BF70BD000010B50446A6
:107420000CB9002010BD204602F000F940B9054813
:10743000006828B120460349096888470120F1E720
:107440000020EFE7006100203EB5044640F20D2227
:107450002088A0F20D21904248D00FDCB0F5807F4B
:1074600024D0A0F500700B3824D0012831D1207A27
:1074700000282FD0BDE83E40FEF700BCF4293ED0E6
:10748000F5295DD0F92924D139A040F25911CDE96F
:107490000010404B40A246A10320FEF7DFFA2079FE
:1074A00003B00121BDE8304000F012B9BDE83E4014
:1074B000FFF724BA608800280BD03FA14FF49A72DE
:1074C000CDE900210290334B33A239A10320FEF70E
:1074D000C5FA3EBD40A040F23B11CDE900102D4B56
:1074E0002DA233A10320FEF7B9FA3EBD618C606A7C
:1074F00003B004F10A02BDE83040FDF751BC3AA0E8
:107500004FF4A471CDE90010224B23A228A103203F
:10751000FEF7A4FA60880028E7D139A040F24B11A9
:10752000CDE900101B4B1CA221A10320FEF796FA07
:10753000207903B004F10801BDE83040FDF762BDD9
:1075400060880028D1D1207A30A140F25312CDE9D1
:10755000002102900F4B10A215A10320FEF77EFA26
:10756000217A207903B0BDE83040FDF74DBD000021
:10757000424C455F474150435F4556545F434F4E31
:107580004E5F504152414D5F5550444154455F520A
:1075900045510000A81D22002E2E5C5372635C75BD
:1075A0007365725C757365725F6170702E63000045
:1075B0004E4F5F54414700005363616E2073746106
:1075C00072746564206661696C6564283058253082
:1075D0003258292E000000005363616E2054696DFB
:1075E000656F75742E000000424C455F4741504363
:1075F0005F4556545F434F4E4E454354454400004B
:10760000436F6E6E65637465642E00004469736336
:107610006F6E6E656374656420283078253032584B
:10762000292E000010B516F0E1FA13F0D3FB17F085
:10763000E5FD10F0B7FD16F0C7FA03F061FC0AF0A3
:1076400075FEBDE810400AF053BD00002DE9F0477B
:107650000446002500BFFCF7B6FA80460220FCF77E
:10766000E1F98146FCF766FA401C0121814009EBF3
:1076700001073846FCF743FB05F0ECF9064600BF6E
:107680000CB9022515E0104890F81C0100F001002B
:10769000A071A079012805D10C48416821600089BA
:1076A000A08005E000F0F2FB016821608088A080E6
:1076B00000BF00BF304605F08FF94046FCF71FFBC6
:1076C00000BF2846BDE8F08714BF002016C0002088
:1076D0002DE9F84F05460E46002700BFFCF770FA6B
:1076E00081460220FCF78EF98246FCF71BFA401C0B
:1076F000012181400AEB01042046FCF7FCFA05F069
:10770000A9F9804600BF0A2D06DA194830F835007D
:107710004FF6FF71884201D103271EE0072000EBDE
:107720000521062349224FF4616001F09FFE0446C3
:107730000CB9102711E02670022060804FF6FF7010
:10774000A08000201323082210210090012040F681
:1077500055F8204601F0D2FE00BF00BF404605F0BC
:107760003BF94846FCF7C7FA00BF3846BDE8F88F3A
:10777000C2BE00202DE9FE4F06460D46002700BF81
:10778000FCF721FA81460220FCF74CF98246FCF70F
:10779000D1F9401C012181400AEB01042046FCF78D
:1077A000AEFA05F057F9804600BF00240DB9022754
:1077B00069E03F4890F8A50008B10F2763E02878FA
:1077C000012805D13A4890F88A0208B90F275AE0F3
:1077D0003748D0F8AC0060B90021382001F01EFE17
:1077E0003349C1F8AC000846D0F8AC0008B91027FE
:1077F00049E02F48D0F8AC4038212046FAF76DFC1C
:107800002B4880F8A76028782070607840F001004D
:1078100060702889A0816989E181A9892182E9892B
:1078200061822348B0F8260140F2712190FBF1F00B
:10783000401C4FF6FF7101EA4001A1821C48B0F8DC
:10784000260140F2712190FBF1F0401C4FF6FF71D0
:1078500001EA4001E182288A60801020A080102186
:10786000E180E87900F00101E971D5F801002063B9
:10787000B5F80500A086E87984F8360000210620D6
:1078800005F0D0FA00BF00BF01200090D6230822E7
:107890001021CDE901073FF6B1FF404605F09CF805
:1078A0004846FCF72CFA00BF3846BDE8FE8F0000C2
:1078B00014BF0020044A52F8200050F84B2F0A60F1
:1078C0008088888070470000E41300202DE9FE4383
:1078D0000546002600BFFCF776F980460220FCF73B
:1078E000A1F88146FCF726F9401C0121814009EBF3
:1078F00001042046FCF703FA05F0ACF8074600BF88
:1079000000240DB902262EE0A878032801DD012607
:1079100029E008234922062140F6245001F0A6FD63
:1079200004460CB910261EE0292020704920A080B2
:1079300028886080A878A071E878012803D1A07910
:1079400040F00400A071207800210122DE23CDE95F
:10795000002102900822102101203FF64FFF20460F
:1079600001F0CCFD00BF00BF384605F035F84046B9
:10797000FCF7C5F900BF3046BDE8FE832DE9F043B2
:1079800085B00446002500BFFCF71DF980460220A3
:10799000FCF748F88146FCF7CDF8401C01218140F6
:1079A00009EB01073846FCF7AAF905F053F806463B
:1079B00000BF052C01DB27250CE0134800EB041069
:1079C0004078072801D00F2504E02146052005F066
:1079D00029FA00BF00BF00200121CDE90115CDE942
:1079E00003040220CE2308221021009001203FF63C
:1079F00005FF304604F0F0FF4046FCF780F900BF79
:107A0000284605B0BDE8F083C4BF00202DE9F0474B
:107A100006460D46002700BFFCF7D5F88146022038
:107A2000FCF700F88246FCF785F8401C01218140F4
:107A30000AEB01042046FCF762F905F00BF88046DA
:107A400000BF00240DB9022753E02F48D0F8A00052
:107A500060B90021102001F0E1FC2B49C1F8A00021
:107A60000846D0F8A00008B9102742E02648D0F810
:107A7000A04010212046FAF730FB234880F89B6095
:107A800021206070287820B9607840F00400607090
:107A900004E02878012801D001272AE0687810B98D
:107AA000002020700BE06878012801D1207006E0EA
:107AB0006878022801D1207001E0012719E0A87838
:107AC00010B90020A07006E0A878012801D1A070AC
:107AD00001E001270DE0E87820B12078022801D1EB
