:020000040020DA
:102000000000042059202000612020000140100021
:10201000F3212000E9212000F92120000000000028
:10202000000000000000000000000000154010004B
:102030006B202000000000006D2020007120200097
:10204000DFF810D000F026FC00F070F800480047E0
:10205000398B2100000004200648804706480047CD
:10206000FEE7FEE7FEE7FEE7FEE7FEE7FEE7FEE748
:10207000FEE7000035382000618B21000649074A41
:102080000868504343F23902104408604008704722
:102090000149086070470000706600206D4EC6411F
:1020A00010B5431A934209D28318881803E010F838
:1020B000011D03F8011D521EF9D210BD40EA0103B3
:1020C0009B0703D009E008C9121F08C0042AFAD2EE
:1020D00003E011F8013B00F8013B521EF9D210BD9C
:1020E000D2B201E000F8012B491EFBD2704700225A
:1020F000F6E710B513460A4604461946FFF7F0FF07
:10210000204610BD421C10F8011B0029FBD1801A8B
:10211000704730B504460020034600E05B1C934244
:1021200003D2E05CCD5C401BF8D030BD70B5054CEF
:10213000054D03E0206820448047241DAC42F9D1BE
:1021400070BD0000280122002C01220030B404469A
:1021500096230800214604D0B62330BC002200F0AC
:102160009ABA20460021F8E70EB5C10F80EAE07068
:102170000844CA07002140F233438DE80E000A46A6
:102180000B4600F0C5FA03B000BD0EB540F2334176
:1021900002910021CDE900110A460B4600F0B8FA81
:1021A00003B000BD0EB540F2334202920022CDE9E9
:1021B0000022134600F0ACFA03B000BD20F000404E
:1021C000C20DC0F3160040F400007F2A02DA00209E
:1021D000014670470021962A03DCC2F19602D040E6
:1021E0007047963A00F01DBAFEE710B507F066FD9D
:1021F00010BDFEE702F723BBFEE7EFF31180704747
:1022000058585247010000002556000000202000C9
:10221000002020007EEE9247010100000000000037
:1022200000000000000000000000000000000000AE
:10223000000000000000000000000000000000009E
:102240002DE9FE4F804681EA0300C00F0C46009046
:1022500021F0004123F00045B8EB0200A94105D26E
:102260004046214690461C460B46024623F000405D
:10227000104347D0270DC7F30A00C3F30A51029059
:10228000401A019040286BDAC3F3130040F4801B1E
:102290000098924620B10023D2EB030A63EB0B0BAC
:1022A00001985946C0F14002504600F0BAF906467E
:1022B0000D4650465946019A00F0D2F910EB08003D
:1022C0006141002487EA115284EAE7731A4340D03F
:1022D000009A62B3019A012A4FEA075215DC001BEB
:1022E00061EB02014FF0004202EA0752CDE90042E1
:1022F000001C41F5801132462B4600F009FA03B06C
:10230000BDE8F08F40462146F9E7001B61EB020172
:10231000001C41F5801300185B412018A2F500173E
:1023200047EB030140EAD570B6196D4111E06D0825
:102330004FEA360645EAC0754FEA0752001B61EBCB
:102340000201001C41F5801149084FEA30000019D4
:10235000514132462B4603B0BDE8F04F00F0C9B9F9
:102360000098012240000023D0EB020263EBE073EF
:10237000009821464FEAE074B8EB000061EB0401DD
:10238000E9E783F000435BE781F0004158E72DE97E
:10239000FE4F81EA030404F0004421F00041009460
:1023A0004FF0000B23F0004350EA01045ED052EAE4
:1023B00003045BD0C3F30A54C1F30A552C44A4F2BE
:1023C000F3340194A0FB0254C1F3130141F48011D2
:1023D000C3F3130343F4801301FB024400FB034ED9
:1023E000840A970A44EA815447EA8357A4FB0768A2
:1023F00002958D0A05FB07854FEA932C04FB0C54CC
:102400002705029D4FEA065847EA1637B5EB08053F
:102410006EEB070C870E920E47EA811742EA831291
:10242000A7FB0201B6EB0B0164EB00042B0D43EAA2
:102430000C335E1844EB1C50DA465146E7FB0201B0
:10244000C5F313044FEA0B3343EA14534FEA043243
:10245000019C43EA0603A4F10C040294009CCDE91C
:1024600000B400F055F903B0BDE8F08F002001463C
:10247000F9E72DE9F04D81EA030404F0004B21F067
:10248000004514464FF0000A23F0004150EA0502CF
:1024900020D054EA01021DD0C5F30A570246C5F305
:1024A0001303C1F31300C1F30A5640F4801543F43B
:1024B0008013A7EB0608101BD64608F2FD3873EB15
:1024C000050002D308F1010801E092185B41B8F160
:1024D000000F03DA00200146BDE8F08D00204FF424
:1024E0008011064684460EE0171B73EB050705D3E3
:1024F000121B63EB050306434CEA010C49084FEA43
:10250000300092185B4150EA0107EDD152EA030016
:1025100012D082EA040083EA0501084305D0101BAB
:10252000AB4106D20122002306E000224FF0004317
:1025300002E06FF0010253101AEB06004CEB085159
:1025400010EB0A0041EB0B01BDE8F04D00F0D1B8F3
:1025500070B5C1F30A5201F000450024C1F3130124
:1025600040F2FF3341F480119A4201DA002070BD3D
:1025700040F233439A42A2F2334203DC524200F06B
:102580005FF800E090402C43F1D0404270BDC1F3B1
:102590000A5210B5C1F3130140F2FF3341F4801128
:1025A0009A4201DA002010BD40F233439A42A2F26F
:1025B000334203DC524200F043F810BD904010BD9E
:1025C0002DE9F05F0546002092469B468846064668
:1025D000814640241BE0284641464746224600F0FB
:1025E0002FF853465A46C01A914110D31146184647
:1025F000224600F016F82D1A67EB01084F462246D6
:102600000120002100F00DF817EB00094E41201EBB
:10261000A4F10104DFDC484631462A464346BDE8C2
:10262000F09F202A04DB203A00FA02F100207047D4
:102630009140C2F1200320FA03F319439040704700
:10264000202A04DB203A21FA02F00021704721FA07
:1026500002F3D040C2F1200291400843194670476E
:10266000202A06DBCB17203A41FA02F043EAE07356
:1026700006E041FA02F3D040C2F120029140084343
:10268000194670470029A8BF7047401C490008BF81
:1026900020F00100704710B4B0FA80FC00FA0CF092
:1026A00050EA010404BF10BC704749B1CCF12004CA
:1026B00021FA04F411FA0CF118BF01212143084357
:1026C000A3EB0C01CB1D4FEA00614FEA102042BF83
:1026D000002010BC704700EBC35010440029A4BF79
:1026E00010BC7047401C490008BF20F0010010BC1E
:1026F000704710B5141E73F1000408DA401C41F154
:10270000000192185B411A4301D120F0010010BD75
:102710002DE9F04D92469B4611B1B1FA81F202E0EB
:10272000B0FA80F220329046FFF77BFF04460F4656
:1027300040EA0A0041EA0B0153465A46084313D0C7
:10274000114653EA010019D0C8F140025046FFF784
:1027500077FF05460E46504659464246FFF761FF51
:10276000084305D0012004E020463946BDE8F08D3D
:102770000020054346EAE0762C4337430A98630578
:10278000E40AA0EB08000022FD0A44EA47540A309C
:1027900002D500200146E9E7010510196941DDE98C
:1027A000084500196941BDE8F04DA2E72DE9F04167
:1027B000054621F000400C46284309D0C4F30A50D6
:1027C00040F23341884205DD28462146BDE8F081CC
:1027D0002846FBE740F2FE31884210DC0CDB4FEA72
:1027E000043040EA155050EA053105D0104804F095
:1027F000004101430020E9E700200146E6E7A0F29E
:1028000033404642C6F1400228462146FFF709FF01
:1028100007468846284621463246FFF711FF4346C1
:102820003A46FFF766FF3246BDE8F041FFF7F9BED2
:102830000000F03F30B5041E71F1000404DB4FF0DE
:102840000044404264EB0101141E73F1000405DBF7
:102850001C464FF00043524263EB04038B4208BF17
:10286000824230BD30B5041E71F1000404DB4FF02C
:102870000044404264EB0101141E73F1000405DBC7
:102880001C464FF00043524263EB0403994208BFD9
:10289000904230BD064C074D06E0E06840F0010371
:1028A00094E8070098471034AC42F6D3FFF7CCFB0E
:1028B000E80022002801220070B58C1810F8015B96
:1028C00015F0070301D110F8013B2A1106D110F8C9
:1028D000012B03E010F8016B01F8016B5B1EF9D1CD
:1028E0002B0705D40023521E0DD401F8013BFAE753
:1028F00010F8013BCB1A921C03E013F8015B01F8BE
:10290000015B521EF9D5A142D8D3002070BD70B52D
:1029100000230824002550F8242051F8246092193F
:1029200045EB0506D21846EB050303F001032B43E4
:1029300001D0012300E0002340F82420641E002C75
:10294000E9DA002150F8212012B9491C0929F9DBE4
:10295000C1F10901416270BDF0B5002408250026CF
:1029600050F8253051F82570DB1946EB06071B1986
:1029700047EB060404F00104344301D0012400E0D5
:10298000002442F825306D1E002DE9DA002052F8AF
:10299000201011B9401C0928F9DBC0F1090151626E
:1029A0009662F0BD70B514462246FFF7D5FFA06AC7
:1029B00020B12046BDE8704000F026B8114D606A95
:1029C000696A00260123884212D801D233460FE0FB
:1029D000C0F109010AE055F8212054F82100824293
:1029E00001D9334604E003D301F101010929F2D3EF
:1029F000002B05D02046BDE87040024900F028BEFB
:102A000070BD000028F1210010B58CB0044601AA69
:102A10002146074800F052FD01A924222046FFF775
:102A20003FFB0A9860620020A0620CB010BD00005D
:102A300028F121002DE9F0418CB00746474CB86AD7
:102A40004FF00008002809D03A462346506A5D6AD4
:102A50000121A84231D81FD241462EE04FF000009C
:102A60004FF00802414657F8223054F82250884669
:102A70005B1941EB01061D184E4106F0010041466D
:102A800058EA000001D0012000E0002047F8225061
:102A9000521E002AE7DA3FE0C0F109000AE053F8CD
:102AA000205052F82060B54201D9414605E004D3D8
:102AB00000F101000928F2D34146F1B100200822BB
:102AC000454654F8223057F822101E1845EB050CE5
:102AD0008E1B75EB0C0607D21844081A001C47F829
:102AE00022004FF0010004E01844091A47F82210B0
:102AF0000020521E002AE4DA0EE001AA39461748E7
:102B000000F0DCFC01A93C4624222046FFF7C8FA6D
:102B10000A986062C7F828800021002057F820201A
:102B200012EB080348EB010461084FEA330147F850
:102B3000201023F00101591A00F101000928EDD3FA
:102B4000002057F8201011B9401C0928F9DBC0F10A
:102B5000090078620CB0BDE8F081000028F1210086
:102B60001CB5032400BF27480068012121EA90001A
:102B700078B900BF23480C30006800F0010040B174
:102B800000BF20488C38006800F007002040A042B9
:102B900000D01CBD0020009001F0F2F900901A480E
:102BA0000068401C1849086064200AF605FC01A86A
:102BB00000F0F0FD022000F0F5FD32200AF6FCFBEB
:102BC00000BF1248006840F002001049086000BFD2
:102BD0000F4948890AF6F0FB00BF0C48006820F056
:102BE00002000A49086000BF094988890AF6E4FB27
:102BF0009DF8040000F0D6FD009801F0C2FC00BF73
:102C0000C7E70000D4A40040AC5E002004A9004047
:102C10006E5D00202DE9F04FADF5377D82460D4603
:102C200014460AF12C0B0AF15800B6902F9005F1CA
:102C30002C00B5902E902C30B4902D90242120465D
:102C4000FFF755FA4FF00008C4F82480C4F8288034
:102C500004F12C0624213046FFF749FAC6F82480F7
:102C6000C6F8288004F1580724213846FFF73FFAB8
:102C7000C7F82480C7F82880A9A82421FFF737FACD
:102C8000CDF8C882CDF8CC829EA82421FFF72FFA78
:102C9000CDF89C82CDF8A08293A82421FFF727FAD3
:102CA000CDF87082CDF8748288A82421FFF71FFA2E
:102CB000CDF84482CDF848827DA82421FFF717FA89
:102CC000CDF81882CDF81C8272A82421FFF70FFAE4
:102CD000CDF8EC81CDF8F08167A82421FFF707FA41
:102CE000CDF8C081CDF8C4815CA82421FFF7FFF99D
:102CF000CDF89481CDF8988151A82421FFF7F7F9F8
:102D0000CDF86881CDF86C8146A82421FFF7EFF952
:102D1000CDF83C81CDF840813BA82421FFF7E7F9AD
:102D2000CDF81081CDF8148130A82421FFF7DFF908
:102D3000CDF8E480CDF8E8805046E34915F0ACFFCB
:102D4000DFF8849309F12C0809F1580948B9414684
:102D5000584615F0A1FF20B94946B69815F09CFFDA
:102D600040B10020002859D02846D74915F094FFDB
:102D700010B10BE00120F5E74146B59815F08CFF46
:102D800020B94946B49815F087FF30B3002030B31E
:102D9000CD4D242229462046FFF782F9686A6062F9
:102DA000A86AA062242241463046FFF779F9D8F894
:102DB00024007062D8F82800B062242249463846C0
:102DC000FFF76EF9D9F824007862D9F82800B862C4
:102DD00000200DF5377DBDE8F08F0120D7E72422D4
:102DE00029462046FFF75CF9686A6062A86AA0621B
:102DF000B59C242221463046FFF752F9606A706282
:102E0000A06AB062B49C242221463846FFF748F9F4
:102E1000606A7862A06AB8620020DAE72846AA49A8
:102E200015F03AFF48B94146B59815F035FF20B97D
:102E30004946B49815F030FF18B3002018B3242287
:102E400051462046FFF72CF9DAF824006062DAF8E0
:102E50002800A062242259463046FFF721F9DBF80A
:102E600024007062DBF82800B062B69C2422214660
:102E70003846FFF715F9606A7862A06AB8620020E8
:102E8000A7E70120DAE75146284615F005FF60BBA9
:102E90005946B59815F000FF08B38B4D24222946FA
:102EA0002046FFF7FDF8686A6062A86AA0622422E3
:102EB00041463046FFF7F4F8D8F824007062D8F89D
:102EC0002800B062242249463846FFF7E9F8D9F8CD
:102ED00024007862D9F82800B862002079E7286DCC
:102EE000012802D8E86C00287DD0DDE92E01A9AACE
:102EF00000F000FA9EAA58462D9900F0FBF993AA1B
:102F000028462F9900F0F6F988AA50462D9900F02E
:102F1000F1F988A993A815F0BFFE00287ED07DAAFC
:102F20009EA9A9A800F0F8FA72AA88A993A800F0AF
:102F3000F3FA5CAA2D992F9800F0DCF922A824213D
:102F4000FFF7D5F800252B952C9517A82421FFF71E
:102F5000CEF8209521950CA82421FFF7C8F81595E7
:102F6000169501A82421FFF7C2F80A950B9551AADE
:102F700072A972A800F0BEF946AA72A951A800F081
:102F8000B9F93BAA7DA97DA800F0B4F930AA88A9B7
:102F900051A800F0AFF901AA022130A800F08AF987
:102FA00017AA5CA93BA800F0A5F90CAA46A917A886
:102FB00000F0B2FA67AA01A90CA800F0ADFA224607
:102FC00067A972A800F096F922A82421FFF78FF8CC
:102FD0002B952C9517A82421FFF789F8209521958A
:102FE0000CA8242100E020E0FFF781F81595169544
:102FF00022AA67A930A800F08FFA17AA22A97DA8F3
:1030000000F078F90CAA9EA946A800F073F93246A0
:103010000CA917A800F080FA3A4600E027E05CA966
:1030200046A800F067F90120D3E6274D242229465F
:103030002046FFF735F8686A6062A86AA062242219
:1030400041463046FFF72CF8D8F824007062D8F8D3
:103050002800B062242249463846FFF721F8D9F803
:1030600024007862D9F82800B8620020B1E69EA951
:10307000A9A815F011FE08B3134D242229462046B5
:10308000FFF70EF8686A6062A86AA06224224146CF
:103090003046FFF705F8D8F824007062D8F8280009
:1030A000B062242249463846FEF7FAFFD9F82400D8
:1030B0007862D9F82800B86200208AE62146504696
:1030C00000F004F8002084E6A4F121002DE9F04F7F
:1030D000F9B00C46824600F12C0500F1580B594F0F
:1030E000696A07F12C06583704F12C0804F15809D5
:1030F000012901D8296A79B1524915F0CDFD48B9A5
:103100003146284615F0C8FD20B93946584615F015
:10311000C3FD28B3002028B34A4D24222946204667
:10312000FEF7BEFF686A6062A86AA0622422314688
:103130004046FEF7B5FF706AC8F82400B06AC8F8C8
:103140002800242239464846FEF7AAFF786AC9F8C3
:103150002400B86AC9F82800002079B0BDE8F08FD3
:103160000120D8E737AA59465046FFF71BFC2CAA86
:103170005946504600F0D0F921AA2CA937A800F0F2
:10318000B9F86EAA032121A800F094F863AA594661
:10319000284600F0AFF837AA63A9284600F0AAF83D
:1031A00058AA37A9504600F0A5F837AA6EA96EA80C
:1031B00000F0A0F82CAA082158A800F07BF84DAA2E
:1031C0002CA937A800F0A8F937AA63A94DA800F0E8
:1031D00091F82246022137A800F06CF837AA294658
:1031E000284600F087F842AA63A963A800F082F895
:1031F0002CAA42A937A800F07DF821AA08212CA802
:1032000000F058F816AA042158A800F053F80BAAA9
:103210004DA916A800F080F96A460BA96EA800F027
:1032200069F8424621A9684600F076F937AA63A9F1
:1032300042A800F05FF84A46082137A800F03AF8A3
:1032400000208AE7A4F121002DE9F0478CB0054663
:1032500088469146DFF854A0154E10279AF817308B
:10326000FF2B06D0706ED90007FA01F4A04320436B
:10327000706601A905F1580001F07AFF9AF817303D
:10328000FF2B04D0706ED9008F40B8437066424661
:1032900001A9284600F02EF84A4601A905F12C00A4
:1032A00000F028F80CB0BDE8F0870000080E002000
:1032B00000000E40F0B40646104600230825002208
:1032C00056F825701446E7FB013440F825302346B4
:1032D0006D1E002DF4DA002150F8212012B9491C8E
:1032E0000929F9DBC1F109024262B16A8162F0BCCD
:1032F00019F062BE2DE9F04F9FB005460E46934689
:103300000BAC48210BA8FEF7F2FE4FF00009CDF8F8
:103310007490CDF87890082300210822D7187F1CDC
:1033200055F8238054F8270056F822A0401849EB9E
:10333000090CE8FB0A0C614644F82700521E002ADB
:10334000ECDA5B1E002BE7DA0BA9002051F82020F5
:1033500012B9401C1228F9DBC0F112008864A86A77
:10336000B16A884201D0012000E000201E900024B4
:103370000BAD00E0641C55F8240008B9092CF9D302
:103380001E980A9034490BAA1D988E6C0123B042F6
:1033900001D9994619E018D3C0F1120012E051F892
:1033A000206052F82070BE420BD051F8201052F825
:1033B0002000814202D24FF0010906E04FF00009DF
:1033C00003E0401C1228EADB9946B9F1000F01D155
:1033D00004E0641C55F824000028FAD005EB8401B1
:1033E00024226846FEF75CFE6946002051F8202042
:1033F00012B9401C0928F9DBC0F10900486216E047
:10340000684619F0D9FD68462022011DFEF748FEE6
:1034100055F826000890641C6946002051F82020C9
:1034200012B9401C0928F9DBC0F10900486204F117
:10343000090006461228E3D3684619F0BDFD694627
:103440005C4624222046FEF72BFE099860620A980B
:10345000A0621FB0BDE8F08F54F1210010B54342C7
:10346000421E0A604B6088600020C86008614A61A3
:10347000441E8C61CC610B628862002A02D0092054
:10348000486210BD0820486210BD0000052800DB1E
:1034900070470949096801F4E021B1EB004F08D0F9
:1034A000054A126822F4E02141EA0042024B1A6008
:1034B00000BF00BFECE7000000A000402DE9F04194
:1034C00000240823002751F8236050F8235016EBFE
:1034D000040C47EB0708B5EB0C0C77EB080C07D294
:1034E00034442C1B241C42F823404FF0010404E018
:1034F00034442D1B42F8235000245B1E002BE2DADB
:10350000002052F8201011B9401C0928F9DBC0F145
:1035100009005062BDE8F0812DE9F04103460E46F6
:103520001446996A00270125B06A002906D088B39D
:10353000706A596A88423CD9284650E030B1224628
:1035400031461846FFF708FAA76256E0586A716AD2
:10355000884201D9284615E001D2384612E0C0F170
:1035600009000CE056F8202053F820108A4201D9B7
:10357000384607E001D2284604E000F1010009289E
:10358000F0D3284638B1224631461846FFF796FF59
:10359000A76232E006E0224619463046FFF78EFF6A
:1035A000A5622AE0224631461846FFF7D5F9A56202
:1035B00023E001D2384612E0C0F109000CE053F8D4
:1035C000202056F820108A4201D9384607E001D25F
:1035D000284604E000F101000928F0D3284630B164
:1035E000224619463046FFF769FFA76205E02246EA
:1035F00031461846FFF762FFA562A06A20B1204657
:10360000BDE8F041FFF700BA1049606A4A6A90428B
:1036100012D801D23D460FE0C0F109000AE051F88E
:10362000203054F82020934201D93D4604E003D3D2
:1036300000F101000928F2D3002D05D02046BDE895
:10364000F041024900F004B8BDE8F08128F1210002
:10365000F0B500230822002651F8225050F82240ED
:10366000EF1846EB060CE71B76EB0C0707D22B4452
:10367000E31A1B1C40F822304FF0010304E02B44F6
:10368000E41A40F822400023521E002AE4DA002106
:1036900050F8212012B9491C0929F9DBC1F10901AF
:1036A0004162F0BD70B58CB004460B46A16A01269C
:1036B0000025986A002907D0E8B3586A616A8842F1
:1036C00051D840D22E464EE030B10CB02046BDE875
:1036D00070401946FFF71BB9606A596A884201D9E0
:1036E000354611E010D3C0F109000AE053F820205C
:1036F00054F820108A4207D801D2354604E000F180
:1037000001000928F2D3354635B10CB02046BDE89A
:1037100070401946FFF79CBF01AA21461846FFF7E3
:10372000CDFE01A924222046FEF7BAFC0A98606269
:10373000A6620CB070BDFFE70CB02046BDE870403B
:103740001946FFF7E4B8C0F109000AE054F8202058
:1037500053F820108A4201D92E4604E003D300F129
:1037600001000928F2D36EB101AA21461846FFF7DD
:10377000A5FE01A924222046FEF792FC0A98606269
:10378000A562D6E70CB02046BDE870401946FFF7A9
:103790005FBF00000249096801F00701017070472E
:1037A00000A0004010B500220021072800DB10BD5A
:1037B000144B1B6803F0070383421BD0114B1B689B
:1037C00023F0070242F003030E4C23602346DB681C
:1037D00023F0070141F00103E36000BF00BF00BF19
:1037E00000BF42EA0003074C2360074B53F8203028
:1037F0000B43E360054B53F82030054C236000BFBA
:10380000D5E7000000A000400CF02100F0EF2100FF
:10381000485900200448006800F00700034951F8A7
:10382000200003490860704700A00040F0EF21002D
:10383000485900200248016841F470010160704756
:1038400088ED00E00FB4054B10B503A9044A0298B7
:1038500000F066FC10BC5DF814FB0000BDB6200053
:1038600074660020002809DB00F01F02012191404E
:103870004009800000F1E020C0F88012704700008D
:10388000002807DB00F01F0201219140024A430992
:1038900042F823107047000080E200E0002807DBB8
:1038A00000F01F0201219140024A430942F823100F
:1038B0007047000080E200E000280DDB00BF00BF81
:1038C00000F01F02012191404209920002F1E02222
:1038D000C2F8001100BF00BF704700280DDB00BF19
:1038E00000BF00F01F02012191404209920002F145
:1038F000E022C2F8001100BF00BF7047002804DBBF
:1039000000F1E02090F80004704700F00F0000F193
:10391000E02090F8140D70470146002902DB0448AE
:10392000405C7047034801F00F02121F805CF8E70B
:1039300000E400E018ED00E00146002902DB044845
:10394000405C7047034801F00F02121F805CF8E7EB
:1039500000E400E018ED00E00146002902DB044825
:10396000405C7047034801F00F02121F805CF8E7CB
:1039700000E400E018ED00E00146002902DB044805
:10398000405C7047034801F00F02121F805CF8E7AB
:1039900000E400E018ED00E00146002902DB0448E5
:1039A000405C7047034801F00F02121F805CF8E78B
:1039B00000E400E018ED00E00146002902DB0448C5
:1039C000405C7047034801F00F02121F805CF8E76B
:1039D00000E400E018ED00E00146002902DB0448A5
:1039E000405C7047034801F00F02121F805CF8E74B
:1039F00000E400E018ED00E00146002902DB044885
:103A0000405C7047034801F00F02121F805CF8E72A
:103A100000E400E018ED00E002480068C0F3022076
:103A2000704700000CED00E002480068C0F302207F
:103A3000704700000CED00E002480068C0F302206F
:103A4000704700000CED00E002480068C0F302205F
:103A5000704700000CED00E002480068C0F302204F
:103A6000704700000CED00E002480068C0F302203F
:103A7000704700000CED00E002480068C0F302202F
:103A8000704700000CED00E002480068C0F302201F
:103A9000704700000CED00E002480068C0F302200F
:103AA000704700000CED00E0002807DB00F01F026B
:103AB00001219140024A430942F823107047000057
:103AC00000E200E0EFF311807047EFF311807047E0
:103AD000EFF311807047EFF311807047EFF311801F
:103AE0007047EFF310807047EFF3108070470000CD
:103AF00010B52DED020B2DED088B84B09DED0C0B58
:103B000051EC100BFEF752FE41EC180B9DED0C0B27
:103B100053EC182B51EC100BFEF733FC41EC190B56
:103B20000D989FED290B10F0004F53EC102B51EC2A
:103B3000190B9FED21AB9FED22BB0ED0FEF77AFE55
:103B40000ED953EC1B2B51EC190BFEF78BFE1CD23C
:103B500014E000BF41EC180B17E0FEF76BFE06D235
:103B600053EC1A2B51EC180BFEF70BFCF2E753EC5D
:103B70001B2B51EC190BFEF775FE06D853EC1A2BD4
:103B800051EC180BFEF75CFBE4E78DED028B9DED2D
:103B90000C0B18EE901A10EE900A8DED000B61F3ED
:103BA0001E0003909DED020B04B0BDEC088B02B02B
:103BB00010BD000000000000000000000000F03F09
:103BC000000000000000E03F000000000000E0BF37
:103BD00002E008C8121F08C1002AFAD170477047D6
:103BE000002001E001C1121F002AFBD17047C1B2C1
:103BF00081F311887047C1B281F311887047C1B257
:103C000081F311887047C1B281F311887047C1B246
:103C100081F311887047C1B281F311887047C1B236
:103C200081F311887047C1B281F311887047C1B226
:103C300081F311887047C1B281F31188704780F316
:103C40001088704780F31088704780F310887047A1
:103C500080F31088704700002DE9F74F0446904626
:103C600000BF4FEA5806019D4FF0000B744875499C
:103C700008603F207449496860F30501724A516049
:103C800000BF00BF1046406820F4803011464860F5
:103C900000BF00BF6B48006820F4700040EA045089
:103CA0006849086000BF00BF0846006820F4702023
:103CB00040EA0440086000BF0D2C07D100BF084651
:103CC000006840F40040086000BF00BF0E2C08D11F
:103CD00000BF5C48006840F480405A49086000BF5B
:103CE00000BF4FF400505749096821F400510143C7
:103CF000544A116000BF00201146096821F060514C
:103D00000143116000BF04201146096821F00F0132
:103D10000143116000BF002000F006F9012801D026
:103D2000BDE8FE8F00BF4748006840F0804045492D
:103D3000086000BF4FF0000A0DE000BF42488068F5
:103D400040F480304049886000BF0AF1010082469B
:103D5000401C00B903E012F0F1FC0028EDD100BFD7
:103D6000072000F0E1F8012800D0D9E754E04FF037
:103D7000000B2CE0BBF57A7F24D900BF31480068E6
:103D800020F080402F49086000BF00BF084600684F
:103D900040F00040086000BF00BF0846006820F007
:103DA0000040086000BF002000F0BEF8012800D0ED
:103DB000B6E726480068401C24490860052009F63B
:103DC000FBFA4EE7012009F6F7FA0BF1010B12F0AE
:103DD000B5FC0128CED100BF1B48806800F07F00F1
:103DE0008146B14501D9304600E0484681464FF052
:103DF000000A0DE000BF1448076800BF25F8027BE9
:103E00004FF6FF7000EA174025F8020B0AF1010A8D
:103E1000CA45EFD3A6EB0906002EA8D15EB908F07B
:103E2000010040B100BF12F089FC0128FBD100BFA6
:103E3000054800682880002000F076F800BF6FE792
:103E40000A07080700A8004000E00040B85E002014
:103E500010B5044600BF00201A49086000BF00BF2B
:103E600018498039086000BF00BF1748406A1749E9
:103E700008600846007800F0010020B1084600887C
:103E800000F4807098B906E00CB9002010BD641EE3
:103E9000012009F691FA00BF0B48806940F2011138
:103EA000884201D1012000E000200028ECD0084821
:103EB0000068084908600448406807490860012014
:103EC000E4E7000094D41D4200E00040145F0020AD
:103ED00000A800400C5F0020105F00200D48006823
:103EE0000D4948600D4800680D4908600D4800788C
:103EF00000F0010020B10B48008800F4807040B948
:103F000000BF0548006A20F001000349086200BFB5
:103F100000BF7047105F002000E000400C5F0020F1
:103F200000A80040145F002070B5044612F0FEFBAC
:103F3000A04201D1012070BD00BF1048C06820F030
:103F4000070020430D49C86000BF002508E012F0BB
:103F5000EDFBA04200D107E0012009F62DFA6D1C0F
:103F60004FF6FF708542F2D300BF4FF6FF708542D7
:103F700001D10020DFE70120DDE7000000E0004084
:103F800010B500BFEFF3108004460120FFF75AFE82
:103F9000204610BD70B52DED108B8AB005460C463D
:103FA0009FED510B8DED080B20216846FEF79FF821
:103FB0009FED4D0BB0EE408AF0EE608A102269460C
:103FC0002846FFF749FE00260FE006F108013DF8FC
:103FD0001100FEF7DAF841EC190B53EC182BFEF741
:103FE0002FF941EC180B701CC6B2082EEDDB9FEDCB
:103FF000400B53EC102B51EC180BFEF73AFA41EC46
:10400000180B0D2D41D1E08AFEF7BFF841EC1B0BD8
:104010009FED390B53EC102BFEF72BFA41EC190BEB
:104020006088FEF7B2F841EC1F0B9FED350B53ECA7
:10403000102BFEF7ACF941EC1E0B9FED330B53EC4C
:10404000102BFEF7A4F941EC1C0BA08AFEF79DF89B
:1040500041EC1E0B53EC182BFEF796F941EC1D0BAF
:1040600053EC1C2BFEF705FA41EC1B0B9FED280BC4
:1040700053EC102BFEF7FDF941EC1A0B53EC192B06
:10408000FEF7DEF8CDE9080127E00E2D25D1608886
:10409000FEF77BF841EC1C0B9FED190B53EC102B3A
:1040A000FEF775F941EC1A0B2088FEF76EF841EC2B
:1040B0001C0B53EC182BFEF767F941EC1B0B53EC70
:1040C0001A2BFEF7D6F941EC190B9FED130B53ECAD
:1040D000102BFEF75CF9CDE908019DED080B0AB045
:1040E000BDEC108B70BD000000000000000000005F
:1040F00000000000000020400000000000005940C7
:10410000000000000000F0BF0000000000000040C0
:1041100079E9263108AC5CBFB76DDBB66DDB0E40CC
:104120002DE9FF4F8DB00F460546002606E02528F5
:104130000BD0DDE90F1290476D1C761C2878002803
:10414000F5D111B03046BDE8F08F0024A246A1465B
:104150000122EC4900E0044315F8013F203B02FA3C
:1041600003F00842F7D128782A2810D06FF02F02E8
:104170002878A0F13001092914D80AEB8A0102EB52
:10418000410144F0020400EB010A6D1CF0E701CF8D
:104190005FEA000A03D544F40054CAF1000A44F06F
:1041A00002046D1C28782E2817D115F8010F44F051
:1041B00004042A280ED06FF02F022878A0F13001D5
:1041C00009290AD809EB890102EB410100EB010939
:1041D0006D1CF2E757F8049B6D1C28786C280FD0F3
:1041E00006DC4C2817D068280DD06A2814D104E0CA
:1041F000742810D07A280FD10DE044F400140AE09E
:1042000044F4801401E044F440146978814202D1FE
:1042100004F580146D1C6D1C2A786E2A1FD00CDCEE
:10422000632A31D004DC002A8BD0582A11D1A3E0B4
:10423000642A68D0692A0CD165E0732A2ED004DC88
:104240006F2A73D0702A04D19BE0752A6FD0782A28
:104250006ED01046DDE90F129047761C50E1C4F392
:104260000250022806D0032809D0042801CF09D023
:10427000066045E101CFF117C0E9006140E101CFDF
:1042800006803DE106703BE117F8040B8DF8000055
:1042900000208DF80100EB46012003E057F804BB35
:1042A0004FF0FF3061074FF0000102D40DE008F13C
:1042B0000101884649450FDA8045F8DB1BF80810F4
:1042C0000029F4D108E008F1010188468142FADBB7
:1042D0001BF808100029F6D1DDE90F23AAEB08002E
:1042E0008146214600F036F9304400EB080604E030
:1042F000DDE90F121BF8010B9047B8F10108F7D266
:1043000021464846F7E00A21C4F302534FF0000B60
:104310000891022B04D001CFC117032B09D00AE06A
:10432000FF1D27F00707F7E8020108E032E01FE071
:1043300020E000B2C117042B01D140B2C117031E07
:1043400071F1000307DA4FF0000CD0EB0C006CEBBE
:1043500001012D2302E0230504D52B238DF8243001
:10436000012303E0E30701D02023F7E7984658E054
:104370000A2110E010210EE010204FF0000B0890F1
:104380000CE010214FF0000B44F004044FF008093A
:10439000089103E008214FF0000B0891C4F3025389
:1043A000022B04D001CF0021032B06D006E0FF1D15
:1043B00027F00707F7E8020103E080B2042B00D1E1
:1043C000C0B24FF0000823072BD5702A07D0DDF8C4
:1043D00020C08CF0100C5CEA0B0C05D00EE04023E2
:1043E0008DF82430012308E050EA010306D0302381
:1043F0008DF824308DF8252002239846DDF820C062
:104400008CF0080C5CEA0B0C0BD150EA010301D1D3
:10441000630706D530238DF824304FF00108A9F149
:104420000109582A04D038A20B9208AA0A920BE07C
:104430003AA2F9E75B46089AFEF7C2F80B9B9B5C31
:104440000A9A521E0A92137050EA0102F2D10A9897
:10445000ADEB000000F1200B600702D524F480349E
:1044600001E04FF00109D94502DDA9EB0B0000E0A6
:10447000002000EB0B0141440890AAEB010AE00385
:1044800006D4DDE90F232146504600F063F80644C8
:104490004FF0000908E009A911F80900DDE90F1241
:1044A000904709F10109761CC145F4DBE0030CD506
:1044B000DDE90F232146504600F04CF8064404E0A5
:1044C000DDE90F1230209047761C0899481E0890AD
:1044D0000029F5DC08E00A980A990078491C0A913D
:1044E000DDE90F129047761CBBF10001ABF1010B27
:1044F000F1DC21465046DDE90F2300F019F80644AF
:104500006D1C1BE609280100303132333435363753
:10451000383961626364656600000000303132330F
:1045200034353637383941424344454600000000AF
:104530002DE9F041044600251E461746880404D4A0
:1045400005E039462020B0476D1C641EF9D5284689
:10455000BDE8F0812DE9F041044600251E46904655
:10456000C80301D5302700E02027880404D505E0E2
:1045700041463846B0476D1C641EF9D52846BDE853
:10458000F08110B504462046FFF75CFB10BD10B566
:10459000044620460FF008FC10BD10B50446204626
:1045A00015F09EFC10BD70B504460D462946204608
:1045B00019F092FF2946204614F09CFA70BD0000C5
:1045C0000848006840F001000649086006480749AD
:1045D00008600748486007488860074907484167FE
:1045E00070470000F85F002001C120003CAD0020B2
:1045F00059C02000D1B6200019E72000F05A002051
:104600002DE9F04116461D46DDE90623074688469A
:104610000D497C2000F624FF044684F838502022FF
:10462000414604F13900FDF73BFD2022394604F1F3
:104630005900FDF735FD04F1380231462046BDE84A
:10464000F041412301F6E6B94D46200001F640B99C
:104650002DE9F0471D46DDE9086A0A9B8146884638
:10466000174600221A49A42000F6FAFE044600214B
:104670003D3484F8641044F805ACE17301202074E3
:104680003068C4F81100B088A4F81500B079E0755E
:104690002868A061A888A083A879A0773D3C102253
:1046A000394604F15C00FDF7FBFC1022414604F1A1
:1046B0006C00FDF7F5FC07480068E0674A462046B5
:1046C000BDE8F04703492023091D01F6A3B9000006
:1046D000D946200040FC21002DE9F04704468A46D7
:1046E0004FF000085146204601F6F2F8F8B194F870
:1046F000A1004FF0010904F14C0704F13C0530B171
:1047000004F18106012813D002282FD121E01022C4
:1047100051462846FDF7C4FC002084F8800084F848
:10472000A19035233A462946204601F673F91DE04B
:10473000102251463046FDF7B3FC84F880900220E9
:1047400084F8A10035233A462946204601F662F94D
:104750000CE01022514604F19100FDF7A1FCA36B7F
:1047600031460020626998474FF001084046BDE895
:10477000F08700002DE9F05F1546DDE90B9A1E4633
:10478000DDF82880DDE90D2383460F461D497C2096
:1047900000F666FE04461022394604F16900FDF772
:1047A0007FFC1022294604F15900FDF779FC102204
:1047B000314604F14900FDF773FC3834B8F80000C5
:1047C000E08198F802002074D9F80000C4F80700CE
:1047D000B9F80400A4F80B0099F806006073DAF841
:1047E00000002060BAF80400A0809AF80600A071CA
:1047F000383C04F1380259462046BDE8F05F4123B9
:1048000001F608B90948200001F662B82DE9F04127
:1048100015461E46DDE9062380460F460F498820CF
:1048200000F61EFE04462022414604F16800FDF712
:1048300037FC2022394604F14800FDF731FC3146AF
:1048400004F1380010220646FDF72AFC32462946BC
:104850002046BDE8F041502301F6DCB86148200055
:1048600001F636B81CB5184C207800282AD0012053
:1048700051B18DF8000081208DF8010002226946B7
:10488000002014F097FF1BE08DF8000010788DF8E1
:1048900001001088000A8DF8020090788DF803005E
:1048A0005088000A8DF8040010798DF80500908872
:1048B000000A8DF8060007226946002014F07AFFEE
:1048C000002020701CBD0000A059002070B50446D7
:1048D0000D460121204601F071FE70BD08B50A4861
:1048E0000278002A0DD00022027002208DF800000C
:1048F00041B181208DF8010002226946002014F0A8
:1049000059FF08BD0020F5E7A05900207CB50546F9
:104910000E46002D01D0002418E0E5207CBD05EBFB
:10492000041041680091017A8DF80410417A8DF8E5
:10493000051008218DF80610C2680078002369462A
:1049400000F038F80028E9D1641CE4B2B442E6D3A0
:1049500000207CBD10B502460846052A25D2DFE8B6
:1049600002F0030303111900114951F83220010428
:10497000090C05D022B1014610460DF079FE10E079
:10498000E42010BD10F0FF0F02D00DF047FC08E04E
:10499000E42010BD10F0FF0F05D0014600200DF0FF
:1049A00079FF002010BDE42010BDE62010BD0000FE
:1049B00040EE21002DE9F05F05460C4690469946F1
:1049C00026680027042D11D031462846FFF7C2FF84
:1049D0002146284600F05EF8002808D1032D08D0B3
:1049E0004FF0100A2807070E002448E0E620BDE833
:1049F000F09F4FF0080AF7E7F0073DD03DB1012DD9
:104A000005D0022D03D0032D21D0E620EFE71E486C
:104A100000EBC50090F904B0BBF1000F15D0EFF327
:104A20001081012080F31088184AE01942F8308084
:104A300002EBC000C0F8049081F31088584615F6C8
:104A4000BFFB584615F6DAFB16E0E420CFE7EFF39C
:104A50001081012080F310880D4AE01942F830805F
:104A600002EBC000C0F8049081F310881B2015F6FB
:104A7000A7FB1B2015F6C2FB7608641CE4B2544564
:104A8000BAD30020B3E7000040EE21009866002072
:104A90009867002030B597B005460C461C22454962
:104AA00010A8FDF7FDFA1C2242491C3109A8FDF7A8
:104AB000F7FA20223F49383101A8FDF7F1FAD4B1C5
:104AC0003D49062018F070FA3C49072018F06CFAAE
:104AD0003B491B2018F068FA3A49122018F064FA92
:104AE00034496C39A1F12C02052D61D2DFE805F0C3
:104AF000060606213900E52017B030BD207931F8CF
:104B000010001190607932F810001290A079139083
:104B1000206810902748843850F83500218809040F
:104B2000090C04D018B110A90DF093FE39E0E4206F
:104B3000E2E7207901EB4000808A0A90607902EB7D
:104B40004000C0880B90A0790C90206809902078D4
:104B500010F0FF0F03D009A80DF044FC21E0E42081
:104B6000CAE72079031F042B01D8E720C4E70228F5
:104B700019D001200290207901EB4000008D0390B4
:104B8000607902EB400080890490A079059020684C
:104B90000190207810F0FF0F08D001A900200DF03F
:104BA0002DFF0020A8E702200290E4E7E420A3E71D
:104BB000E620A1E7C4EE2100C1411000BB41100076
:104BC000B7411000B141100002460020052A11D261
:104BD000DFE802F0030303090C00074850F8320035
:104BE00089B215F64CBA88B20DF06ABC89B20020C1
:104BF0000DF00CBF7047000040EE21007047000030
:104C000010B5064A06214CF2010014F06BFA19F0B7
:104C10000BFDBDE8104002203EF6F4BFD4EF2100AA
:104C200010B50848017800290AD101210170064811
:104C30003EF6EAFEBDE81040002104483FF67AB88F
:104C400010BD00004C590020D541100005A12100E5
:104C50002DE9F04104460D461746002D04D0012DE4
:104C600002D00120BDE8F081E4B1DFB16078012815
:104C70001AD0EFF311860220FEF740FE8046FEF7C1
:104C8000CBFE401C0121814008EB0100C0B280F343
:104C9000118800206070A570E761F0B280F3118880
:104CA0000020DFE70120DDE70620DBE710B5044642
:104CB000002C0CD0204600F02DF9FF206070002160
:104CC000A160E160216161610020E06110BD01200F
:104CD00010BDF0B5DDE90745059981614FF47A769D
:104CE000A2FB061C03FB06C3002702FB0732C0E938
:104CF000021209196A41C0E9041200210162F0BDE3
:104D00002DE9F0410446002C13D0EFF31185022069
:104D1000FEF7F4FD0746FEF77FFE401C012606FA6B
:104D200000F03844C0B280F311881248002121629B
:104D30000EE00020BDE8F081D4E90432D1E9047C22
:104D4000DB1B72EB0C0202D2016A216203E008460F
:104D5000016A0029F0D104626670064810380168C3
:104D6000491C0160016B4160E8B280F311880120A9
:104D7000E0E70000406800202DE9F04105460024EE
:104D8000EFF311860220FEF7B9FD0746FEF744FE59
:104D9000401C012181407818C0B280F31188134A69
:104DA000106BE8B115B102F1100010E00446206A62
:104DB00010631068401E10600CE0A94206D1116813
:104DC000491E1160296A01622C4603E00846016A07
:104DD0000029F2D124B1002020626070106B506075
:104DE000F0B280F311882046BDE8F08130680020E1
:104DF0002DE9FF5F82460E4693464FF00008BAF158
:104E0000000F20D0414886421DD8E6B1EFF311874C
:104E10000220FEF773FD0446FEF7FEFD401C012153
:104E200081406018C0B280F3118850460FF0CCF971
:104E300010B19AF8010040B1F8B280F311880F2048
:104E400004B0BDE8F09F0120FAE713F061FD0446CD
:104E50000D464FF47A7106FB01F022462B460021E5
:104E60000FF050F8DFF8A890B0B1D9F8040048B1BD
:104E7000D0E90410091B60EB0500C9E9021013F02A
:104E8000C1FD04E00021C9F80810C9F80C104FF06A
:104E90000108D9E9020106E0D9F80400D0E90421AB
:104EA000101B61EB0501CDE9020132460023CDF86C
:104EB00000B05046FFF70DFF5046FFF721FF17F0F7
:104EC0008FFF4FF0E024D4F800014FF0806510F020
:104ED000806F01D0012000E0002020B91A20FEF7E9
:104EE000C1FCC4F80051B8F1000F0AD0D9F8040091
:104EF000D0E90431D9E90202181A61EB020113F07A
:104F00003DFDF8B280F31188002099E7008AB907C7
:104F1000306800202DE9F04104460025002C39D0EE
:104F2000EFF311870220FEF7E9FC0646FEF774FD59
:104F3000401C012181407018C0B280F31188607854
:104F4000012824D1144E7068A0420BD113F0E0FC6C
:104F5000D4E90432181A62EB0102C6E9020213F026
:104F600051FD01252046FFF707FF5DB1706848B18C
:104F7000D0E90421D6E90203101A61EB030113F012
:104F8000FDFC04E01DB9706808B913F03BFDF8B2F0
:104F900080F31188BDE8F081306800202DE9F74FDB
:104FA00084B005460C46022604F1080920460CF0A0
:104FB000DBFD07463E48D0F804A000200390B5F57D
:104FC000804F0ADBB5F5004F07DA394840683949A8
:104FD0000968A0EB010A01200390E019504501DDAA
:104FE000052662E03248006800F6FF703049098803
:104FF000491EC1F30B01401AC0F3073B039810B1DF
:105000002C48006800E0002002902B4800682B49E3
:105010000968401A001F2649497AA1EB0B01A0EB51
:10502000C10023490968411A0298A1EB000809EB65
:105030000700404532DD002011231E224FF40041BD
:105040000090012042F6DAFB002108460CF0E8FB54
:10505000C8B91749487A0EF0CDFD06461EB1304654
:1050600007B0BDE8F08F002012231E224FF400414C
:105070000090012042F6C2FB21462846069A19F00C
:1050800013FB064610E0002013231E224FF40041BC
:105090000090012042F6B2FB0F2605E0214628468B
:1050A000069A19F001FB064600BF3046D8E700001B
:1050B0008CB20020FC5C0020105D0020085D002008
:1050C00010B500210A4C0023002001EB410202EB45
:1050D000C10204EB420222F81030401CC0B20A2880
:1050E000F9D31375491CC9B20A29EDD310BD0000CC
:1050F000ECB700200848006800280CD090F82E106B
:10510000012908D190F83000FF2804D2034908682B
:1051100040F08060086070479C09002000000E404D
:1051200010B586B0044668463FF618FE9DE80E00AE
:1051300003A80EC00B4A891C21F070415160104633
:105140003FF6DCFF074840F64DF8207F002806D1E7
:10515000054991F80101054A01EB0010426006B0D3
:1051600010BD0000E0200020F4200020198621005E
:10517000F0B5ADB005460E460024AC620CA8242163
:10518000FCF7B5FF1594169401A82421FCF7AFFF96
:105190000A940B9422A824222946FCF781FF686A0E
:1051A0002B90A86A2C908A4D17A824222946FCF738
:1051B00077FF686A2090A86A2190012514950994C8
:1051C00015950A95C8E022AF4FF0000C0022214649
:1051D00057F82200401844EB0C0149084FEA30010F
:1051E00047F8221020F00101B0EB010C02F101029E
:1051F000092AECD3002057F8201011B9401C0928C7
:10520000F9DBC0F1090078621498C00706D00CA839
:10521000FDF710FC2A98C007D5D048E00CAF4FF03E
:10522000000C0020214657F82020521841EB0C03B7
:105230005B084FEA320347F8203022F00103B2EB5B
:10524000030C00F101000928EDD3002057F82010CD
:1052500011B9401C0928F9DBC0F109007862D9E7CF
:1052600017AF4FF0000C0020214657F820201219EC
:1052700044EB0C0359084FEA320147F8201022F0A2
:105280000101B2EB010C00F101000928ECD3002070
:1052900057F8201011B9401C0928F9DBC0F10900AA
:1052A00078620998C0070DD001A8FDF7C3FB1F98CD
:1052B000C007D5D022AA17A92B98209B984223D9A2
:1052C000284637E001AF4FF0000C6246234657F8FE
:1052D0002200C01843EB0C0149084FEA300147F89F
:1052E000221020F00101B0EB010C02F10102092AA9
:1052F000EDD3002057F8201011B9401C0928F9DB24
:10530000C0F109007862D2E701D2204612E0C0F174
:1053100009000CE051F8203052F82070BB4201D94E
:10532000204607E001D2284604E000F101000928E8
:10533000F0D3284640B117A922A8FEF789F901A9A0
:105340000CA8FEF7AFF907E022A917A8FEF780F92D
:105350000CA901A8FEF7A6F92B9800287FF47FAFCF
:105360000B9868B101A817F027FE01A92422304646
:10537000FCF796FE0A9870620B98B0622DB0F0BDF3
:10538000134901AA486A0A9B984201D92C4610E0A9
:105390000FD3C0F109000AE052F8203051F8207014
:1053A000BB4206D801D22C4603E000F101000928D7
:1053B000F2D34CB101A924223046FCF771FE0A98C1
:1053C00070620B98B062D9E701A817F0F5FDCCE741
:1053D00028F121000AF00ABE10B517F0D3FC08F03E
:1053E0000DFFBDE8104007F011B92DE9F04104466A
:1053F0000D4616461F463B4632462946204601F6D4
:10540000D3FFBDE8F0812DE9FF5F04460D46164647
:105410001F46DDE910ABDDE90E893B4632462946E1
:1054200020468DE8000F02F697F904B0BDE8F09F22
:105430002DE9FF5F04460D4616461F46DDE910AB19
:10544000DDE90E893B463246294620468DE8000FAD
:1054500002F694F904B0BDE8F09F70B504460D461D
:105460002946204602F610FC70BD10B504462046C1
:1054700002F6A8FC10BD70B504460D46294620462C
:1054800003F684F970BD000070B505462878194907
:10549000097808440A2801DD042070BD0024002694
:1054A00023E01EE01448005DD0B9C6EBC603691CBA
:1054B0005A1804F14001C1F30D0141F400400721E5
:1054C00013F010FE08B10120E7E701222046641C1A
:1054D00009490A5407480078401C0649087002E050
:1054E000641C0A2CDEDB00BF761C2878B042D8DCB6
:1054F0000020D2E7E95F002098BB0020F8B50746FE
:105500000D46384605F0F4FF06460B480078864203
:105510000EDAC620009006EB46012231C1F30D01E0
:1055200041F400402A46694613F060FC002400E084
:1055300003242046F8BD0000E85F0020F8B50546CA
:105540000026002415E0082000900C48005D01288A
:105550000ED1691C01EBC60204F16001C1F30D011B
:1055600041F40040694613F041FC08B9701CC6B212
:10557000641C042CE7DB2E700020F8BDEA5F0020DD
:105580002DE9F041A8B004460E46002700206070C7
:10559000804648E08C20049008EB48012131C1F39B
:1055A0000D0141F4004005AA04A913F01FFC48BBFB
:1055B0009DF8150000F0020020B36078B04222DAB6
:1055C00007EB8701606800EBC1050DF13700DDF8DE
:1055D00037102960BDF83B10A9808079A8719DF82B
:1055E0001600E87110220DF1270105F10800FCF703
:1055F00057FD10220DF1170105F11800FCF750FDC1
:10560000781CC7B20BE0002001211E231A46CDE909
:1056100001060091C903012042F6F0F807E008F105
:10562000010000F0FF08054800788045B2DB00BFAC
:105630006770002028B0BDE8F0810000E85F00201E
:10564000F8B506460C46304605F052FF05460227DF
:105650000A48007885420FDA8C20009005EB45015E
:105660002131C1F30D0141F400402246694613F097
:10567000BDFB07463846F8BD0320FCE7E85F002085
:10568000F8B506460C46304605F050FF05460227A1
:105690000A48007885420FDA8C20009005EB45011E
:1056A0002131C1F30D0141F400402246694613F057
:1056B0009DFB07463846F8BD0320FCE7E85F002065
:1056C000F8B505460026002416E0072000900D4896
:1056D000005D01280FD1C6EBC603691C5A1804F1FE
:1056E0004001C1F30D0141F40040694613F07EFB17
:1056F00008B9701CC6B2641C0A2CE6DB2E700020B0
:10570000F8BD000098BB0020FEB504460D463020D1
:10571000B5FBF0F01549087008460078C0EBC006EC
:10572000084607780078002101221F23CDE90021D7
:1057300002901E224FF40041012042F65FF80C480F
:105740000460A0190B49086000200B4908704870DC
:10575000A0193844486002F0E1FE28B10EF034F997
:105760000EF08AF90020FEBD0220FCE7E85F002071
:10577000E05F0020E45F0020F05F00202DE9F041B1
:1057800007460C46384605F0B3FE06460D4800783D
:10579000864213DA06EB46012231C1F30D0141F4D2
:1057A00000402246C62113F09DFC8046B8F1000F50
:1057B00001D0012000E00020054600E00325284636
:1057C000BDE8F081E85F0020FEB506460F460024E4
:1057D000304605F08DFE054600BF40480078854202
:1057E00019DA05EB45012131C1F30D0141F4004007
:1057F0003A468C2113F076FC0446002C5FD0002042
:1058000001211A231E22CDE901040091C9030120C0
:1058100041F6F4FF54E005F0B7FE054605EB4501FF
:10582000203141F400403246072113F05BFC04466E
:105830005CB1002001211B231E22CDE9010400914F
:10584000C903012041F6DAFF3AE005EB45012131B9
:10585000C1F30D0141F400403A468C2113F042FCA3
:105860000446A4B1002001211C231E22CDE901041D
:105870000091C903012041F6C1FF05EB450120312C
:10588000C1F30D0141F4004013F016FA18E0284668
:1058900018F046FE05EB45012231C1F30D0141F43C
:1058A000004013F009FAC5EBC5000D49096808442A
:1058B00031680160B1888180B1798171002400BFB5
:1058C00000BF44B9787800F0020020B103480178A5
:1058D0000448FFF755FE2046FEBD0000E85F0020AB
:1058E000E05F0020F05F002010B50446204606F679
:1058F000C7F910BD10B50446204606F6B5FA10BD2E
:1059000070B504460D462946204606F6C5FA70BD18
:1059100010B50AF043FD0A480A4948600A49094897
:10592000C1600A4941610A49C1610A4941620A49A3
:10593000C1620A4941630A49C1630A49416410BD11
:10594000315B21009C650020ED592100715C210034
:1059500061592100D55F21009D66210081552100FC
:105960008D5321000157210010B515F061FF0EF095
:1059700045FC0DF0DFFDBDE8104015F013BE000042
:1059800010B56FF00200814908603820002807DB5D
:1059900000F01F02012191407D4A430942F8231083
:1059A00000BF00207B49086000BF7A481C300068B7
:1059B00040F0020077491C3108600846006840F05A
:1059C000010008600846006820F00200086000BF7F
:1059D00000BF7048001F006840F001006D49091FBA
:1059E00008600846006820F00200086000BF00BFA1
:1059F00011F02CFE0028FBD10220664938390968D5
:105A000021F0030108B9002206E0022802D140F289
:105A1000AA2201E040F2FF3202F0030211435D4A84
:105A2000383A116000BF02201146096821F00C01CC
:105A300008B9002206E0022802D140F2AA2201E0C1
:105A400040F2FF3202F00C021143524A383A116020
:105A500000BF02201146096821F0C00108B90022E8
:105A600006E0022802D140F2AA2201E040F2FF3211
:105A700002F0C0021143474A383A116000BF0320C8
:105A800044494039096821F0030108B9002206E0C1
:105A9000022802D140F2AA2201E040F2FF3202F0D5
:105AA000030211433B4A403A116000BF03201146F4
:105AB000096821F00C0108B9002206E0022802D191
:105AC00040F2AA2201E040F2FF3202F00C02114340
:105AD000304A403A116000BF03201146096821F0A6
:105AE000C00108B9002206E0022802D140F2AA2231
:105AF00001E040F2FF3202F0C0021143254A403A71
:105B0000116000BF00BF012022493439086000BF86
:105B100000BF11F09BFD0028FBD1FFF661FAFFF6F4
:105B200066FA00BF1B481C30006840F004001949A9
:105B30001C31086000BF00BF1648001F006840F01D
:105B400004001449091F086000BF012017F098FBEA
:105B500000BF1148006820F040000C499839C1F896
:105B6000800200BF00BF0846D0F8800220F010007D
:105B7000C1F8800200BF00BF0846D0F8800220F0C4
:105B80002000C1F8800200BF10BD000098A00040B6
:105B900080E200E0C4A4004080A2004010B50BF0F9
:105BA00099FC12F0E3FC11F069FE11F015FEFFF70D
:105BB00087FABDE8104011F0FFBD000010B5FFF6F8
:105BC00016FAFFF60DFA00BF1048006840F0020018
:105BD0000E4908600846006820F00100086000BF18
:105BE00000BF0A482030006840F00100074920311A
:105BF00008600846006840F0020008600846006837
:105C000020F00100086000BF10BD0000C0A40040EB
:105C100010B513F67FF810BD38B517F067FF28B13F
:105C200040F27E41084617F0B9FC04E040F27E41A4
:105C3000084617F0B3FC2748007878B1264800687A
:105C4000009017F0C5FC044624480088009017F027
:105C5000BFFC0546214617F0D7FE05E04FF46671FC
:105C60004FF47F7017F0D0FE1D4814F065F817F060
:105C70003DFF10B91B48007880B91B4818490A68D5
:105C800002604A6842600989018118491448026823
:105C90000A6042684A600089088119E01249104888
:105CA00002680A6042684A60008908810F490C480E
:105CB00002680A6042684A600089088140F21A401E
:105CC0000949088017F000FC0749888001204872C4
:105CD00038BD0000085F0020045F0020065F002040
:105CE000DA5E0020C65E0020E45E0020EE5E00204A
:105CF00070B504460A2C15DA492040EA0422052032
:105D000000EB0421042340F6224002F05BFB054631
:105D10003DB1212028704FF6FF706880284602F0C0
:105D200099FB00BF70BD000010B504460CB90020FF
:105D300010BD204602F026FC40B90548006828B195
:105D400020460349096888470120F1E70020EFE772
:105D5000B05C00200188B1F5407F0ED004DCB1F5C5
:105D6000807F15D1FFF738BBA1F54071053908D008
:105D700001290DD1007900F021BC81780079FEF76E
:105D8000ADBD0379817800F108021846FEF76ABDBF
:105D9000704710B5FEF714FC12F0EEFE17F006F88F
:105DA00010F0B2FC15F032FD03F0C2FF0BF016FD4F
:105DB000BDE810400BF0F4BB2DE9F84F04460E4649
:105DC00017461D464FF0000800BFFDF77BFE009010
:105DD0000220FDF7B1FD8346FDF72EFE401C012198
:105DE00081400BEB010A5046FDF705FF05F03AFC38
:105DF000814600BF27B9002D02DD4FF00208D4E034
:105E0000052C02DB4FF01508CFE0002E43D1C4EB88
:105E1000C4016B4800EB8100806870B1C4EBC40220
:105E2000674901EB8201886802F09EFA0021C4EB09
:105E3000C402634800EB82008160C4EBC401604887
:105E400000EB8100806898B90021A81C02F092FA4A
:105E5000C4EBC4025A4901EB82018860C4EBC4015F
:105E6000574800EB8100806810B94FF010089CE0A3
:105E7000C4EBC401524800EB810080680580C4EB8C
:105E8000C4024F4901EB82018968881C2A463946C1
:105E9000FCF706F989E0012E3CD1C4EBC401484867
:105EA00000EB8100C06870B1C4EBC402444901EB4F
:105EB0008201C86802F058FA0021C4EBC4024048CD
:105EC00000EB8200C1600021A81C02F053FAC4EB71
:105ED000C4023B4901EB8201C860C4EBC4013848ED
:105EE00000EB8100C06810B94FF010085DE0C4EB12
:105EF000C401334800EB8100C0680580C4EBC402D4
:105F00002F4901EB8201C968881C2A463946FCF7F3
:105F1000C7F84AE0022E45D1C4EBC401284800EB83
:105F20008100006970B1C4EBC402254901EB820114
:105F3000086902F019FA0021C4EBC402204800EB02
:105F400082000161C4EBC4011D4800EB81000069BF
:105F500038BB002D25DD0021A81C02F00BFAC4EB94
:105F6000C402174901EB82010861C4EBC401144863
:105F700000EB8100006910B94FF0100815E0C4EB88
:105F8000C4010F4800EB810000690580C4EBC40226
:105F90000B4901EB82010969881C2A463946FCF746
:105FA0007FF802E04FF0160800BF00BF484605F03A
:105FB00021FB0098FDF71FFE00BF4046BDE8F88FAB
:105FC0004CAA00202DE9FF5F06460F461446002527
:105FD0004FF0010800BFFDF775FD82460220FDF776
:105FE000ABFC8346FDF728FD401C012181400BEBF3
:105FF00001094846FDF7FFFD05F034FB0390002042
:1060000001218A230822CDE90106009110210120F7
:1060100041F6F4FB00BF54B900208B230822102165
:106020000090012041F6EAFB4FF00208F3E0052E54
:106030000ADB00208C23082210210090012041F669
:10604000DDFB4FF01508E6E02078032802D06089D8
:10605000202807DBA089B0F5804F03DC6089A18987
:1060600088420ADD00208D230822102100900120A3
:1060700041F6C4FB4FF01F08CDE0607803280ADD2D
:1060800000208E23082210210090012041F6B6FB4B
:106090004FF02008BFE0607803280DD12078012858
:1060A0000AD000208F23082210210090012041F601
:1060B000A5FB4FF02108AEE0607803280CD1A07852
:1060C00050B100209023082210210090012041F6B9
:1060D00095FB4FF021089EE02078032802D020781D
:1060E000042821D1002001900290062201A9E01C81
:1060F000FCF70FF850B900209123082210210090DE
:10610000012041F67BFB4FF0220884E0607850B11B
:1061100000209223082210210090012041F66EFBFE
:106120004FF0210877E000BFC6EBC601404800EB06
:106130008100406898B90021282002F01BF9C6EBC5
:10614000C6023B4901EB82014860C6EBC6013848F4
:1061500000EB8100406810B94FF010085BE0C6EB1F
:10616000C601334800EB8100456828212846FBF72B
:10617000BEFFC6EBC6012E4800EB8100C7700020B1
:106180002870A0786871A07B08B1A07B00E0072090
:1061900028760121697660892861A1896961D4F82E
:1061A0000300C5F80600B4F807006881607A287318
:1061B000207C28712078052813D2DFE800F0060340
:1061C000090C0F00002068800CE00320688009E0C3
:1061D0000220688006E00D20688003E005206880CA
:1061E00000E000BF00BFE07B18B1688840F4807019
:1061F0006880688840F0100068806078022802DCBF
:106200006078687004E06078032801D1002068702D
:106210004FF0000800BF00BF039805F0EBF95046AF
:10622000FDF7E9FC00BF404604B0BDE8F09F000068
:106230004CAA00202DE9F04786B004460D46012601
:1062400000BFFDF73FFC81460220FDF775FB82464B
:10625000FDF7F2FB401C012181400AEB010840469A
:10626000FDF7C9FC05F0FEF9074600BF052C09DB68
:106270000020A723082210210090012041F6BEFA39
:10628000152610E135B1C4EBC401944800EB810040
:10629000406848B90020A82308221021009001205E
:1062A00041F6ACFA0226FEE0C4EBC4018B4800EBD9
:1062B0008100407808B103F0D9F8C4EBC4018748E5
:1062C00000EB8100407848B10020A923082210216A
:1062D0000090012041F692FA0F26E4E0C4EBC401DD
:1062E0007E4800EB81008068002843D1C4EBC401E4
:1062F0007A4800EB81004068007898B9C4EBC4018B
:10630000764800EB81004068807800F0040080BB94
:106310000020AA23082210210090012041F66EFAE5
:106320002326C0E0C4EBC4016C4800EB8100406848
:106330000078012813D1C4EBC401684800EB810048
:106340004068807800F0020098B90020AB23082252
:1063500010210090012041F651FA2326A3E00020ED
:10636000AC23082210210090012041F647FA232691
:1063700099E0FFE7C4EBC401584800EB8100406896
:10638000807800F00200C8B1C4EBC401534800EBB0
:10639000810040680078012810D1C4EBC4014F4847
:1063A00000EB8100C06848B90020AD23082210210D
:1063B0000090012041F622FA252674E0C4EBC401C6
:1063C000464800EB810040680078022810D1C4EBF9
:1063D000C401424800EB8100006948B90020AE23A7
:1063E000082210210090012041F608FA24265AE0E4
:1063F000C4EBC401394800EB81004068807800F0AC
:10640000080070B1288810B12888802809DD002094
:10641000AF23082210210090012041F6EFF9262633
:1064200041E0C4EBC4012D4800EB81004068407896
:10643000022810D1288820B1288844F2506188426F
:1064400009DD0020B023082210210090012041F630
:10645000D5F9262627E0C4EBC401204800EB8100D3
:10646000406990B90021042001F084FFC4EBC4020C
:106470001A4901EB82014861C4EBC401174800EBE3
:106480008100406908B910260DE0C4EBC40113482F
:1064900000EB81004069296801602146002005F079
:1064A00037FB002600BF00BF01200021CDE9030615
:1064B000CDE901140220B12308221021009001200F
:1064C00041F69CF9384605F095F84846FDF793FBF0
:1064D00000BF304606B0BDE8F08700004CAA00209F
:1064E0002DE9FE4F06460D46002700BFFBF785FE4F
:1064F00081460220FDF710FA8246FDF795FA401C0E
:10650000012181400AEB01042046FDF770FB05F0F4
:10651000A9F8804600BF0A2E06DA274830F8360070
:106520004FF6FF71884201D103273AE00DB90227E7
:1065300037E0214800EBC600807808B10F2730E033
:10654000072000EB06210E23492240F60E6001F0E1
:1065500039FF04460CB9102723E009202070288851
:1065600060806888A080A888E080E88820812889E9
:1065700060814FF6FF70A08101200F4901EBC60139
:1065800088702078002101221223CDE90021029099
:1065900008221021012041F631F9204601F05AFF6E
:1065A00000BF00BF404605F025F84846FDF71FFB39
:1065B00000BF3846BDE8FE8FF2A900202DE9F84F54
:1065C00005460E46002700BFFBF717FE8146022056
:1065D000FDF7A2F98246FDF727FA401C0121814010
:1065E0000AEB01042046FDF702FB05F03BF880466C
:1065F00000BF0A2D06DA194830F835004FF6FF7152
:10660000884201D103271EE0072000EB0521062365
:1066100049224FF4616001F0D5FE04460CB9102701
:1066200011E02670022060804FF6FF70A0800020ED
:106630001323082210210090012041F6DFF82046A4
:1066400001F008FF00BF00BF404604F0D3FF4846FA
:10665000FDF7CDFA00BF3846BDE8F88FF2A900205B
:106660002DE9F04704460D46002600BFFDF72AFA43
:1066700081460220FDF760F98246FDF7DDF9401CF6
:10668000012181400AEB01084046FDF7B4FA04F00D
:10669000E9FF074600BF1B2C13DBFB2C11DCB5F513
:1066A000A47F0EDB44F2902085420ADC0B48A0F860
:1066B0002441A0F82651408840F002000749488054
:1066C00001E0012600BF00BF384604F093FF4846B2
:1066D000FDF791FA00BF3046BDE8F08744AA0020DC
:1066E0002DE9F05F04460E461546002700BFFDF772
:1066F000E9F982460220FDF71FF98346FDF79CF970
:10670000401C012181400BEB01094846FDF773FA5B
:1067100004F0A8FF804600BF9EB1042C01DCF82DD8
:1067200001DD012725E02A4631461748FBF7B8FC72
:10673000164981F87751E9B23246022001F0F4FEA1
:1067400003E0042C01DD012713E01048B0F822011A
:1067500020F007010D48A0F82211B0F822012043D3
:106760000A49A1F822010846408840F0020048800A
:1067700000BF00BF404604F03DFF5046FDF73BFA26
:1067800000BF3846BDE8F09FBCAB002044AA002003
:10679000044A52F8200050F84B2F0A608088888005
:1067A00070470000E41300202DE9F05F04460D4619
:1067B0001646002700BFFDF785F982460220FDF747
:1067C000BBF88346FDF738F9401C012181400BEBF3
:1067D00001094846FDF70FFA04F044FF804600BF68
:1067E000202E01DD012717E0B4F5007F05DC412CE8
:1067F00003DB412D01DBA54201DD01270CE00C4844
:10680000A0F82841A0F82A5180F82C61408840F077
:1068100002000749488000BF00BF404604F0EAFE7E
:106820005046FDF7E8F900BF3846BDE8F09F00008C
:1068300044AA00202DE9FE430546002600BFFDF7CF
:1068400041F980460220FDF777F88146FDF7F4F81C
:10685000401C0121814009EB01042046FDF7CBF9E2
:1068600004F000FF074600BF00240DB902262EE009
:10687000A878032801DD012629E008234922062102
:1068800040F6245001F09EFD04460CB910261EE08F
:10689000292020704920A08028886080A878A071D5
:1068A000E878012803D1A07940F00400A071207895
:1068B00000210122DE23CDE90021029008221021CF
:1068C000012040F69BFF204601F0C4FD00BF00BF41
:1068D000384604F08FFE4046FDF78DF900BF304684
:1068E000BDE8FE832DE9F04385B00446002500BFD6
:1068F000FDF7E8F880460220FDF71EF88146FDF717
:106900009BF8401C0121814009EB01073846FDF747
:1069100072F904F0A7FE064600BF052C01DB27250F
:106920000CE0134800EB04104078072801D00F2535
:1069300004E02146052005F0EBF800BF00BF002071
:106940000121CDE90115CDE903040220CE2308225F
:1069500010210090012040F651FF304604F04AFE1D
:106960004046FDF748F900BF284605B0BDE8F08372
:10697000F4AA00202DE9F84F05460E461746984622
:106980004FF0000900BFFBF738FC00900220FCF735
:10699000C3FF8346FDF748F8401C012181400BEB03
:1069A00001042046FDF723F904F05CFE824600BF97
:1069B0000A2D06DA1C4830F835004FF6FF71884280
:1069C00002D14FF0030924E0174800EBC50000791D
:1069D00010B14FF00F091CE0072000EB0521042344
:1069E000492240F62F6001F0EDFC044614B94FF047
:1069F00010090EE017202070A770667084F80380DD
:106A00000120094901EBC5010871204601F022FD72
:106A100000BF00BF504604F0EDFD0098FDF7E7F819
:106A200000BF4846BDE8F88FF2A900202DE9F047E5
:106A300004460D4600BFFDF745F807460220FCF767
:106A40007BFF8146FCF7F8FF401C0121814009EBE8
:106A500001063046FDF7CFF804F004FE80460948F1
:106A600080F8304180F83151408840F002000549FB
:106A70004880404604F0BEFD3846FDF7BCF800BF34
:106A8000BDE8F08744AA00202DE9F04385B0054613
:106A9000002700BFFDF716F881460220FCF74CFFE7
:106AA0000646FCF7C9FF401C0121814074182046AE
:106AB000FDF7A1F804F0D6FD804600BF68780021FC
:106AC00001227D23CDE9002102900822102101201E
:106AD00040F694FE00240DB902273DE068780A28AC
:106AE00001DD0A2000E06878064606EB8600C0005B
:106AF000801C83B24922062140F6915001F062FCCD
:106B000004460CB9102727E091202070667006EB30
:106B10008600C100A01CFBF7EAFA6B789B1B03EB15
:106B20008303686800EBC30106EB8600C200A01C6B
:106B3000FBF7B6FA01212078002202AB43C3019291
:106B400002207E23082210210090012040F656FEEC
:106B5000204601F07FFC00BF00BF404604F04AFD24
:106B60004846FDF748F800BF384605B0BDE8F08359
:106B70002DE9F04F87B005460C461646032000214C
:106B8000CDE90506CDE90314072003218823082257
:106B9000CDE9010500911021012040F62FFE0027CC
:106BA00000BFFCF78FFF82460220FCF7C5FE83463C
:106BB000FCF742FF401C012181400BEB01094846D4
:106BC000FDF719F804F04EFD804685B1012D20D166
:106BD0000A2C06DA194830F834004FF6FF71884263
:106BE00001D1032702E0154810F8344012E0052CCB
:106BF00007DAC4EBC401124800EB81004078072893
:106C000001D0152704E0C4EBC4010D4810F8214061
:106C100000E000BF00BF37B932462146284601F0E8
:106C20001FFD00B10427404604F0E4FC5046FCF789
:106C3000E2FF00BF384607B0BDE8F08FF2A90020A0
:106C40004CAA00202DE9F04385B00446002700BF80
:106C5000FCF738FF81460220FCF76EFE0646FCF783
:106C6000EBFE401C0121814075182846FCF7C3FF4C
:106C700004F0F8FC804600BF3B4890F88A6200258B
:106C80000020039004900CB9022760E02078304483
:106C90000A2801DD0B275AE0002514E0C5EBC502E8
:106CA000611C5018062203A9FBF733FA48B90020EB
:106CB0007A23082210210090012040F69FFD1D2715
:106CC00004E0681CC5B22078A842E7DC00BF07B129
:106CD0003DE000250AE0C5EBC502611C501806F036
:106CE00007FD08B90A2704E0681CC5B22078A8424D
:106CF000F1DC00BF07B12AE005F06CFD08B90F27F1
:106D000025E02178C1EBC102C6EBC603174958182C
:106D1000611CFBF7C5F920783044C6B2124880F8F0
:106D20008A6200F28A2007F0F3FF2046FEF7ACFBF0
:106D30000D4890F88A02002101227B23CDE9002131
:106D4000029008221021012040F658FD00BF00BF2C
:106D5000404604F04FFC4846FCF74DFF00BF384664
:106D600005B0BDE8F083000044AA0020CFAC0020AD
:106D700010B50446204602490968884710BD000046
:106D80004805002010B50446204608F6D3FB10BD88
:106D900005480649086016204860054888610E21AC
:106DA0000248C161704700005C610020B40C002003
:106DB0000C62002010B50446204609F633F810BDD9
:106DC00070B504460D46294620460CF611F970BDF3
:106DD00010B5FFF7DDFF312101480CF617F910BDA2
:106DE0007C62002010B50DF665FC10BD084809490D
:106DF0000860342048600848886004210548C16064
:106E00000648044908610C210248416170470000AE
:106E1000E8F92100D40C002088FB21000464002044
:106E200010B50DF615FD10BD10B5FFF7DFFF2721DA
:106E300001480FF687FA10BD6464002070B504465F
:106E40000A2C27DA0DE004EB4401134A02EB01118E
:106E500001F11C00FEF74EFD0546284601F084FABC
:106E600000BF04EB44010C4A02EB011101F11C00CC
:106E700002680AB9012200E00022114600BF002981
:106E8000E1D004EB4401044A02EB011101F11C00C2
:106E9000FEF72AFD70BD000008B000202DE9FE437A
:106EA000064600200C231A4640210090012040F69F
:106EB000A5FC0024002500BF00BFEFF311800746AA
:106EC0000220FCF799FD8146FCF7E6FD401C0121FC
:106ED000814009EB01084046FCF7ADFE00BF0EB94A
:106EE00002241EE030460AF0CDFF0546102D01D1E8
:106EF000092416E005F17001C1F30D0141F40040D1
:106F000011F0DAFE04463CB9C5EBC5000D49084452
:106F10000021016081808171E0B201F0C0FA044675
:106F200000BF00BF3846FCF786FE00BF012000907E
:106F30000D230C224021CDE9010440F65FFC2046E0
:106F4000BDE8FE8358C100202DE9FE4307460D46EB
:106F50001646002008230C2240210090012040F614
:106F60004DFC0024A04600BF0FB105B10EB90224AC
:106F700018E038460AF086FF8046B8F1100F01D1BC
:106F800009240FE008F17001C1F30D0141F4004044
:106F90002A46314611F02AFF0446204601F07FFAC6
:106FA000044600BF00BF0120009009230C224021AD
:106FB000CDE9010440F622FC2046BDE8FE83000036
:106FC000FEB50446002006230C224021009001203B
:106FD00040F614FC0025002600BF0CB902252AE06B
:106FE00020460AF04FFF0646102E07D1204604F037
:106FF00011FA0646102E01D10B251CE0E28B20323F
:1070000091B206F17002C2F30D0242F40040224632
:1070100012F068F805464DB9C6EBC6000C490844A5
:1070200021680160A1888180A1798171E8B201F0B5
:1070300036FA054600BF00BF0120009007230C224E
:107040004021CDE9010540F6D9FB2846FEBD0000F0
:1070500058C100207CB5002003460C22402100903E
:10706000012040F6CBFB0020019020480021016068
:107070008180817100242DE004F17001C1F30D01C4
:1070800041F4004012F048F901900025BDF80400D9
:1070900028B10121BDF8040001F06CF90546BDB12D
:1070A00004F17001C1F30D0141F400402A4601A929
:1070B00011F09CFE48B9C4EBC4000C49084429688F
:1070C0000160A9888180A9798171284601F04CF975
:1070D000601C84B2102CCFDB002001230C22402145
:1070E0000090184640F68AFB7CBD000058C1002085
:1070F00070B504460A2C27DA0DE004EB4401134A6C
:1071000002EB011101F10800FEF7F4FB05462846E9
:1071100001F02AF900BF04EB44010C4A02EB011113
:1071200001F1080002680AB9012200E000221146BC
:1071300000BF0029E1D004EB4401044A02EB011135
:1071400001F10800FEF7D0FB70BD000008B0002080
:1071500010B5002400BF14E0002004EBC40101EBD3
:1071600004110E4A126802F83100002104EBC40039
:1071700000EB0410094A126802EBC0008172601C27
:10718000C4B2074800788442E6DB064802F0DAF928
:107190004FF4F0710448FAF7AAFF10BD845C002098
:1071A000245D0020885C002008B000202DE9F04715
:1071B00004460D46002600BF00BFEFF311800746CE
:1071C0000220FCF7C9FB8246FCF73EFC401C012173
:1071D00081400AEB01094846FCF711FD04F042FA30
:1071E000804600BF0A2C06DA0F4830F834004FF60C
:1071F000FF71884201D103260AE00DB9022607E09B
:1072000004EB4400094901EB00100088288000BF0E
:1072100000BF404604F0EEF93846FCF7F0FC00BF32
:107220003046BDE8F0870000F2A9002008B0002039
:10723000FEB507460C4600200A230C224021009090
:10724000012040F6DBFA002500BF38460AF01AFE9E
:107250000646102E01D109250AE044B106F170015D
:10726000C1F30D0141F4004012F056F8208000BF38
:1072700000BF012000900B230C224021CDE9010525
:1072800040F6BCFA2846FEBD10B52121034811F690
:10729000B9FA03200249087010BD0000E0FF210088
:1072A000D005002070B504460D4629462046024A06
:1072B0001268904770BD0000845F0020F0B5AFB049
:1072C00004460D4600201B230C2240210090012083
:1072D00040F694FA00271DB1402D01D0012787E028
:1072E000204609F0BDFB0646002001211C230C228C
:1072F000CDE9010600914021012040F67FFA052EDC
:1073000073D2DFE806F003040B26520000BF2046CC
:1073100000F08CFB2046FEF7EBFC67E004EBC400BA
:10732000734901EBC000807A40B10121204609F089
:10733000A1FB00212046FFF7B5FF02E0204600F048
:10734000B9FA002004EBC401694A02EBC10188725A
:107350004CE004EBC400664901EBC000807A90B1B8
:1073600004EBC40001EBC000408E18B1204601F0D0
:1073700057F907E00121204609F07CFB0021204657
:10738000FFF790FF32E00421204609F073FB012053
:1073900004EBC401564A02EBC101C871002004EBA2
:1073A000C40102EBC101887200BF04EBC400504964
:1073B00001EBC000807A28B904EBC40001EBC000E7
:1073C000C07940B90121204609F054FB0021204634
:1073D000FFF768FF00E00127002004EBC401444AE6
:1073E00002EBC101887201E0FFE700BF00BF00BFF0
:1073F000002F6BD0122D17D104EBC4003C4901EBD8
:10740000C000007A80B100201D230C224021009092
:10741000012040F6F3F90121204609F02BFB002161
:107420002046FFF73FFF3EE0F5B900BFFF22B8213D
:1074300001A8FAF755FE4FF4A160ADF80400002052
:10744000ADF8060000BF8DF8084004EBC4002849E1
:1074500001EBC000C1798DF80C1001218DF80D10E1
:1074600001A8FEF761FC1AE000BFFF22B82101A8C5
:10747000FAF736FE4FF4A160ADF80400ADF80650FF
:1074800000BF8DF8084004EBC400194901EBC000AF
:10749000C1798DF80C1001A8FEF746FC00BF002151
:1074A000204609F0FBFA002104EBC400104A02EB6D
:1074B000C000C079CDE9011002201E230C22CDE9C5
:1074C000031500904021012040F698F9204609F06C
:1074D000C7FA0646002001211F230C22CDE9010630
:1074E00000914021012040F689F92FB0F0BD000045
:1074F000C8B8002070B504460D4629462046024A09
:107500001268904770BD0000805F002070B5B0B079
:1075100004460E4600201A230C2240210090012030
:1075200040F66CF900BFFF22B82102A8FAF7D8FD97
:107530004FF4A160ADF808000020ADF80A0000BFCC
:107540008DF80C4004EBC400154901EBC000C17973
:107550008DF8101000218DF8111002A8FEF7E4FB41
:10756000204609F0B1FB0546204609F08DFAA0B986
:10757000152D01D0162D04D10121204609F08EFAD7
:107580000BE00221204609F089FA0121204609F08A
:1075900071FA31462046FFF785FE30B070BD00001D
:1075A000C8B8002010B504460A2C36DA04EBC40033
:1075B0001A4901EBC000406970B104EBC401174ADD
:1075C00002EBC101486900F0CFFE002104EBC400CA
:1075D000124A02EBC0004161204602F0D5F904EBEB
:1075E000C4000E4901EBC000406C70B104EBC40153
:1075F0000A4A02EBC101486C00F0B6FE002004EB21
:10760000C401064A02EBC101486404EBC401034A09
:1076100002EBC1004821FAF76AFD10BDC8B800208E
:1076200070B504460D461646324629462046024BA2
:107630001B68984770BD0000885F00202DE9FF415E
:1076400004460E461746002020230C2240210090BD
:10765000012040F6D3F800250020039000BF0EB9AA
:107660000225B0E00A2C01DB0325ACE02046FFF741
:1076700099FF04EBC4005B4901EBC0003168016075
:10768000B1888180B1798171002004EBC401554A31
:1076900002EBC101C87104EBC40102EBC10003A9F4
:1076A000FFF7C6FD054645B1002021230C224021ED
:1076B0000090012040F6A2F885E0BDF80C00012101
:1076C000009122230C22CDE901104021012040F637
:1076D00095F80121BDF80C0000F04CFE04EBC4014C
:1076E000404A02EBC101486404EBC400114601EBBF
:1076F000C000406C08B9102565E004EBC402394BAA
:1077000003EBC202516C04EBC40203EBC20003AAF8
:10771000FFF71AFC054605B155E0002D52D10120B6
:1077200004EBC4012F4A02EBC101087204EBC40050
:10773000114601EBC000406C0089A8B9002023234A
:107740000C2240210090012040F658F8012004EB63
:10775000C401244A02EBC101C871032004EBC40137
:1077600002EBC10148722EE00FBB04EBC4001D49BF
:1077700001EBC000406C4089C8B9002024230C22D2
:1077800040210090012040F639F8002004EBC401AC
:10779000144A02EBC101C871032004EBC40102EBDF
:1077A000C101487200212046FFF7A4FE0BE0012032
:1077B00004EBC4010B4A02EBC101487200212046D0
:1077C00009F04AFD00BF00BF0120009025230C22D4
:1077D0004021CDE9010540F611F8284604B0BDE886
:1077E000F0810000C8B8002070B504460D46294657
:1077F0002046024A1268904770BD00008C5F00204E
:10780000FEB504460E46002026230C22402100909F
:1078100001203FF6F3FF002504EBC400244901EBEF
:10782000C000007AF8B104EBC40001EBC000C079DD
:10783000C8B104EBC40001EBC000408E48B904EBB2
:10784000C40001EBC000008E18B1204602F016FA09
:1078500048B104EBC401164A02EBC1014869FFF7C5
:10786000AFFB054616E004EBC400114901EBC00074
:10787000407A03280ED104EBC4010D4A02EBC1008B
:10788000FFF70CFB002027230C2240210090012051
:107890003FF6B4FF2046FFF785FE01200090282325
:1078A0000C224021CDE901053FF6A8FF2846FEBD88
:1078B000C8B800202DE9F04705460027002600BF84
:1078C000FCF70CF980460220FCF786F88146FCF7AD
:1078D000DBF8401C0121814009EB01042046FCF744
:1078E000A2F900BF06F1180083B2492040EA052240
:1078F000052000EB052140F6194000F063FD044629
:107900000CB9102710E066700120A0804FF6FF70C0
:10791000E08016202070314604F10800FAF7E7FBFA
:10792000204600F097FD00BF00BF4046FCF77BF902
:1079300000BF3846BDE8F0872DE9F04704460E4603
:107940002548008800F4807010B91E20BDE8F0873B
:10795000002700BFFCF7BFF881460220FCF72CF897
:107960008246FCF789F8401C012181400AEB0105A1
:107970002846FCF754F903F075FE804600BF0A2C38
:1079800006DA164830F834004FF6FF71884201D10C
:10799000032716E00EB9042713E0492040EA042229
:1079A000052000EB0421022340F60E4000F00AFD02
:1079B00005460DB9102704E02E80284600F04AFD48
:1079C00000BF00BF404603F015FE4846FCF727F90C
:1079D00000BF3846BAE70000F85F0020F2A9002097
:1079E0002DE9F04107460C4615469846C5F3072693
:1079F000A088801D82B22146304609F073FD002028
:107A0000BDE8F08170B50446492040EA0422052013
:107A100000EB0421022340F6254000F0D3FC05468C
:107A200015B1284600F016FD70BD000010B50446E3
:107A30000A2C4FDA002004EBC401274A02EBC101F3
:107A4000C87104EBC40102EBC101887204EBC400ED
:107A5000114601EBC000406C68B104EBC40102EBBD
:107A6000C101486C00F080FC002004EBC4011A4AFC
:107A700002EBC101486404EBC401174A02EBC101E7
:107A800001F12C001821FAF732FB04EBC400124973
:107A900001EBC000406970B104EBC4010E4A02EB77
:107AA000C101486900F060FC002104EBC4000A4AEF
:107AB00002EBC0004161002104EBC400064A02EB66
:107AC000C000C18104EBC40002EBC000018220466B
:107AD00001F05AFF10BD0000C8B8002010B511F623
