:020000040020DA
:10200000000004204D212000FF212000014010008D
:10201000FD212000F12120001929200000000000EE
:10202000000000000000000000000000154010004B
:10203000FB21200000000000F127200025282000BF
:1020400000F002F800F071F80AA090E8000C824459
:102050008344AAF10107DA4501D100F066F8AFF236
:10206000090EBAE80F0013F0010F18BFFB1A43F076
:1020700001031847DC9700001C9800000A444FF049
:10208000000C10F8013B13F0070408BF10F8014BD7
:102090001D1108BF10F8015B641E05D010F8016B1C
:1020A000641E01F8016BF9D113F0080F1EBF10F880
:1020B000014BAD1C0C1B09D16D1E58BF01F801CBA3
:1020C000FAD505E014F8016B01F8016B6D1EF9D526
:1020D0009142D6D370470000103A24BF78C878C127
:1020E000FAD8520724BF30C830C144BF04680C601E
:1020F000704700000023002400250026103A28BF66
:1021000078C1FBD8520728BF30C148BF0B60704769
:10211000782900F0C080002070471FB509F0BAFA96
:1021200000F050F81FBD10B510BDDFF810D0FFF75C
:10213000F4FF05F08FFA00F0DFFA00000000042041
:1021400003B4FFF7F0FF03BC00F0A3FE0148804793
:1021500001480047C92820005F7620000FB40449D9
:1021600010B503AA029800F0B5FA10BC5DF814FB94
:102170004C59002070B5044685690068C10601D538
:10218000302600E02026C00707D070BDD4E9012129
:1021900030469047206A401C20626D1EF6D570BD07
:1021A00070B5044685690078C00707D170BDD4E9D1
:1021B000012120209047206A401C20626D1EF6D528
:1021C00070BD000070B5064C7C44064D7D4403E0B4
:1021D000206820448047241DAC42F9D170BD000026
:1021E000C4960000C4960000007B00F08000704799
:1021F000FEE710B501F074FA10BDFEE7FEE7FEE75A
:1022000058585247010000002556000000202000C9
:10221000002020007EEE9247010100000000000037
:1022200000000000000000000000000000000000AE
:10223000000000000000000000000000000000009E
:10224000F0B40D460188090502D5214C7C4402E01A
:102250001F4C7C440E34002100F1240608E002F0FB
:102260000F071209E75D42EA03721B097754491C04
:1022700052EA0307F3D102780023120704D5702D28
:1022800006D009B1022311342246F0BC00F0B0B9E7
:1022900001231034F8E770B504460D462146106856
:1022A000AFF30080024629462046BDE87040002377
:1022B000C6E7D21D22F00703D3E90023C0E7036875
:1022C000126843F0200303600823C3610023B7E7CB
:1022D000C49500002DE9F05F894604464FF0000ADE
:1022E000DFF874B1FB44C0F820A02046E1688847BD
:1022F000002874D0252806D0D4E901219047206A0F
:10230000401C2062F1E700265F462046E1688847CE
:102310002028054607DB312D05D2781910F8200C4E
:1023200008B10643F1E7B00701D526F00406C4F86A
:102330001CA00027C4F818A02A2D09D0284600F0B8
:102340009BFD38B304EB8708303DC8F8185019E0FE
:1023500059F8041B204604EB87029161E168884725
:10236000012F054618D1E069002820DA26F0200662
:102370001DE0D8F8180000EB800005EB4000303875
:10238000C8F818002046E1688847054600F074FD4B
:102390000028EED1012F0AD02E2D08D12046E16869
:1023A00088477F1C0546022F46F02006C4DBA06943
:1023B000002803DA404246F00106A061F00701D090
:1023C00026F010066C2D0BD0682D09D04C2D39D07D
:1023D0006A2D35D0742D35D07A2D33D016E038E003
:1023E000E1682F4620468847B842054609D16C2F40
:1023F00026D04FF48060E1680643204688470546B2
:1024000004E06C2F1AD04FF4807006430DB3A5F191
:102410004100192802D8203546F400664A4629466C
:10242000204626604E46FFF773FE80B101280BD090
:10243000F61D26F0070000F1080956E74020E4E702
:102440008020D8E70020D6E706F104094DE72846AA
:1024500052E7206ABDE8F09F5495000040EA01036E
:1024600010B59B070FD1042A0DD310C808C9121F3D
:102470009C42F8D020BA19BA884201D9012010BD77
:102480004FF0FF3010BD1AB1D30703D0521C07E044
:10249000002010BD10F8013B11F8014B1B1B07D1A8
:1024A00010F8013B11F8014B1B1B01D1921EF1D119
:1024B000184610BD032A40F2308010F0030C00F0E3
:1024C000158011F8013BBCF1020F624498BF11F86E
:1024D00001CB00F8013B38BF11F8013BA2F1040227
:1024E00098BF00F801CB38BF00F8013B11F003039F
:1024F00000F02580083AC0F0088051F8043B083A03
:1025000051F804CBA0E80810F5E7121D5CBF51F8A4
:10251000043B40F8043BAFF30080D20724BF11F81E
:10252000013B11F801CB48BF11F8012B24BF00F883
:10253000013B00F801CB48BF00F8012B704710B5F4
:10254000203AC0F00B80B1E81850203AA0E81850AB
:10255000B1E81850A0E81850BFF4F5AF5FEA027C6C
:1025600024BFB1E81850A0E8185044BF18C918C0DB
:10257000BDE810405FEA827C24BF51F8043B40F87C
:10258000043B08BF7047D20728BF31F8023B48BF61
:1025900011F8012B28BF20F8023B48BF00F8012B9F
:1025A00070474FF0000200B5134694469646203916
:1025B00022BFA0E80C50A0E80C50B1F12001BFF4FC
:1025C000F7AF090728BFA0E80C5048BF0CC05DF862
:1025D00004EB890028BF40F8042B08BF704748BFB0
:1025E00020F8022B11F0804F18BF00F8012B704724
:1025F0002DE9F0470D4699469246044600F124081D
:102600000168880604D5E06921F01001216000E02E
:102610000120A84201DD471B00E00027A1697A19CB
:1026200002EB0900081AA0612078C00602D42046F7
:10263000FFF7A0FD002608E0D4E901211AF8060002
:102640009047206A401C761C20624E45F4DB2078BF
:10265000C0060AD52046FFF78DFD06E0D4E901212A
:1026600030209047206A401C2062381EA7F10107E5
:10267000F4DC07E0D4E9012118F805009047206A4E
:10268000401C2062281EA5F10105F3DC2046FFF75F
:1026900087FD2078000602D50220BDE8F0870120E2
:1026A000FBE7000001694A1C02610878704700B529
:1026B0008FB0CDE901310021059105497944CDE97B
:1026C000031011466846FFF705FE0FB000BD00007D
:1026D000E5FFFFFF074B70B50D467B44FFF7E7FFB3
:1026E00004462846FFF780FD10B14FF0FF3070BD63
:1026F000204670BD871D000010B50446AFF3008072
:102700002046BDE81040FFF71BBD00001CB50324A8
:1027100000BF27480068012121EA900078B900BF76
:1027200023480C30006800F0010040B100BF204891
:102730008C38006800F007002040A04200D01CBD8B
:102740000020009000F0C8FA00901A480068401C71
:102750001849086064200AF62FFE01A800F064F80A
:10276000022000F069F832200AF626FE00BF124867
:10277000006840F002001049086000BF0F49488916
:102780000AF61AFE00BF0C48006820F002000A4951
:10279000086000BF094988890AF60EFE9DF804000A
:1027A00000F04AF8009800F06EFB00BFC7E7000099
:1027B000D4A400406C5C002004A900402A5B0020E7
:1027C0000748006800F0100008B106487047064846
:1027D0000068C0F30240054951F82000F6E7000008
:1027E00084E30040006CDC0200A0004000B8200040
:1027F000FEE70000052800DB70470949096801F47D
:10280000E021B1EB004F08D0054A126822F4E02124
:1028100041EA0042024B1A6000BF00BFECE7000033
:1028200000A00040FEE700000249096801F007012E
:102830000170704700A0004010B500220021072859
:1028400000DB10BD144B1B6803F0070383421BD051
:10285000114B1B6823F0070242F003030E4C236068
:102860002346DB6823F0070141F00103E36000BF6A
:1028700000BF00BF00BF42EA0003074C2360074BC4
:1028800053F820300B43E360054B53F82030054CE0
:10289000236000BFD5E7000000A00040E4B720009F
:1028A000C8B72000545200200448006800F0070018
:1028B000034951F8200003490860704700A0004018
:1028C000C8B72000545200200248016841F470014A
:1028D0000160704788ED00E002480068001D03F0C9
:1028E0007BB80000B060002002484068001D03F083
:1028F00073B80000B060002002488068001D03F03B
:102900006BB80000B06000200248C068001D03F0F2
:1029100063B80000B0600020FEE70000002807DB7D
:1029200000F01F0201219140024A430942F823109E
:102930007047000080E200E000280DDB00BF00BF10
:1029400000F01F02012191404209920002F1E022B1
:10295000C2F8001100BF00BF704700280DDB00BFA8
:1029600000BF00F01F02012191404209920002F1D4
:10297000E022C2F8001100BF00BF7047EFF31080E3
:102980007047EFF310807047EFF310807047C1B2CB
:1029900081F31188704780F31088704780F31088A6
:1029A000704780F31088704780F3108870470000EC
:1029B0002DE9F74F0446904600BF4FEA5806019DA7
:1029C0004FF0000B7448754908603F20744949680E
:1029D00060F30501724A516000BF00BF10464068B5
:1029E00020F480301146486000BF00BF6B4800688B
:1029F00020F4700040EA04506849086000BF00BF3E
:102A00000846006820F4702040EA0440086000BFD7
:102A10000D2C07D100BF0846006840F40040086054
:102A200000BF00BF0E2C08D100BF5C48006840F416
:102A300080405A49086000BF00BF4FF4005057491A
:102A4000096821F400510143544A116000BF00207D
:102A50001146096821F060510143116000BF042054
:102A60001146096821F00F010143116000BF0020E9
:102A700000F006F9012801D0BDE8FE8F00BF4748ED
:102A8000006840F080404549086000BF4FF0000AF0
:102A90000DE000BF4248806840F4803040498860C3
:102AA00000BF0AF101008246401C00B903E003F0B8
:102AB00021FC0028EDD100BF072000F0E1F801283B
:102AC00000D0D9E754E04FF0000B2CE0BBF57A7F43
:102AD00024D900BF3148006820F080402F490860A9
:102AE00000BF00BF0846006840F00040086000BF1B
:102AF00000BF0846006820F00040086000BF0020CA
:102B000000F0BEF8012800D0B6E726480068401C57
:102B10002449086005200AF64FFC4EE701200AF61A
:102B20004BFC0BF1010B03F0E5FB0128CED100BFFC
:102B30001B48806800F07F008146B14501D93046CE
:102B400000E0484681464FF0000A0DE000BF1448FF
:102B5000076800BF25F8027B4FF6FF7000EA1740B8
:102B600025F8020B0AF1010ACA45EFD3A6EB0906C4
:102B7000002EA8D15EB908F0010040B100BF03F0FB
:102B8000B9FB0128FBD100BF054800682880002060
:102B900000F076F800BF6FE70A07080700A80040BA
:102BA00000E00040785C002010B5044600BF002023
:102BB0001A49086000BF00BF18498039086000BF8B
:102BC00000BF1748406A174908600846007800F0BF
:102BD000010020B10846008800F4807098B906E032
:102BE0000CB9002010BD641E01200AF6E5FB00BFF1
:102BF0000B48806940F20111884201D1012000E0B8
:102C000000200028ECD00848006808490860044803
:102C10004068074908600120E4E7000094D41D42A1
:102C200000E00040D45C002000A80040CC5C002004
:102C3000D05C00200D4800680D4948600D480068D0
:102C40000D4908600D48007800F0010020B10B48E4
:102C5000008800F4807040B900BF0548006A20F089
:102C600001000349086200BF00BF7047D05C00202C
:102C700000E00040CC5C002000A80040D45C0020B4
:102C800070B5044603F02EFBA04201D1012070BDB7
:102C900000BF1048C06820F0070020430D49C860FD
:102CA00000BF002508E003F01DFBA04200D107E0B3
:102CB00001200AF681FB6D1C4FF6FF708542F2D3AE
:102CC00000BF4FF6FF70854201D10020DFE70120F1
:102CD000DDE7000000E0004010B500BFEFF310801A
:102CE00004460120FFF75AFE204610BD70B52DEDB9
:102CF000108B8AB005460C469FED510B8DED080BED
:102D000020216846FFF74DFC9FED4D0BB0EE408A49
:102D1000F0EE608A102269462846FFF749FE002639
:102D20000FE006F108013DF8110008F07BFA41ECD4
:102D3000190B53EC182B08F001F841EC180B701C20
:102D4000C6B2082EEDDB9FED400B53EC102B51EC7F
:102D5000180B08F09BF841EC180B0D2D41D1E08ABF
:102D600008F060FA41EC1B0B9FED390B53EC102B74
:102D700008F08CF841EC190B608808F053FA41EC2C
:102D80001F0B9FED350B53EC102B08F05FFA41EC55
:102D90001E0B9FED330B53EC102B08F057FA41EC50
:102DA0001C0BA08A08F03EFA41EC1E0B53EC182BCA
:102DB00008F04AFB41EC1D0B53EC1C2B08F066F8A5
:102DC00041EC1B0B9FED280B53EC102B08F05EF829
:102DD00041EC1A0B53EC192B07F0B0FFCDE90801B9
:102DE00027E00E2D25D1608808F01CFA41EC1C0B61
:102DF0009FED190B53EC102B08F028FA41EC1A0B3D
:102E0000208808F00FFA41EC1C0B53EC182B08F04B
:102E10001BFB41EC1B0B53EC1A2B08F037F841EC71
:102E2000190B9FED130B53EC102B08F00FFACDE9A3
:102E300008019DED080B0AB0BDEC108B70BD0000C1
:102E40000000000000000000000000000000204022
:102E50000000000000005940000000000000F0BF2A
:102E6000000000000000004079E9263108AC5CBF9A
:102E7000B76DDBB66DDB0E4030380A2801D2012079
:102E800070470020704710B504462046FFF786FDC6
:102E900010BD704710B50446204603F0A7F910BDD9
:102EA00010B50446204605F045F910BD70B504463E
:102EB0000D462946204606F087FF2946204604F0A5
:102EC000A7FB70BD30B597B005460C461C2245499E
:102ED00010A8FFF734FB1C2242491C3109A8FFF758
:102EE0002EFB20223F49383101A8FFF728FBD4B13F
:102EF0003D49062005F03AFE3C49072005F036FE24
:102F00003B491B2005F032FE3A49122005F02EFE07
:102F100034496C39A1F12C02052D61D2DFE805F0AE
:102F2000060606213900E52017B030BD207931F8BA
:102F300010001190607932F810001290A07913906F
:102F4000206810902748843850F8350021880904FB
:102F5000090C04D018B110A902F08BFA39E0E42072
:102F6000E2E7207901EB4000808A0A90607902EB69
:102F70004000C0880B90A0790C90206809902078C0
:102F800010F0FF0F03D009A801F05AFC21E0E42063
:102F9000CAE72079031F042B01D8E720C4E70228E1
:102FA00019D001200290207901EB4000008D0390A0
:102FB000607902EB400080890490A0790590206838
:102FC0000190207810F0FF0F08D001A9002002F036
:102FD00071FA0020A8E702200290E4E7E420A3E7CA
:102FE000E620A1E738B72000394210003342100034
:102FF0002F42100029421000002806D0002904D0DA
:10300000024AD269002A00D010477047C0610020F0
:103010000248006A002800D000477047C0610020C5
:1030200010B50848017800290AD10121017006482D
:1030300040F6EAFCBDE810400021044840F67ABEA4
:1030400010BD000048590020B141100081812000CE
:1030500070B50446012520780A4E012800D135704C
:103060002078022808D17570A0887080728806497F
:10307000A1F50070FFF71EFA2078002801D1357005
:10308000757070BD50590020E86300207CB50025A4
:10309000184800904FF4007601966A461649174882
:1030A00000F06CF8002823D1144941F288342346FB
:1030B0004922543900F088F91049234609220B3976
:1030C000002000F081F90D4C583C657032460C49E7
:1030D000002000F0D7F860780028FCD025706288C6
:1030E0000849002000F036F920780028FCD0ECE7F1
:1030F0007CBD0000E865002051302000A859002068
:10310000E8630020E861002070B504461A4D55F8C8
:103110002400703005F0D1FB82B21646A2B155F8FA
:10312000240090F8011101290ED0012180F804112A
:10313000802A0FD355F82400802200F180017030DE
:1031400005F0D0FB80260CE055F82410002081F813
:10315000000170BD55F8240000F18001703005F0C9
:10316000C1FB55F82400324600F18001001D02F039
:1031700051FD0028EDD170BDB06000202DE9F04177
:1031800005460F46002D06D02AB12C78042C04D316
:10319000E820BDE8F081E520FBE7344E05F158005A
:1031A00046F82400D2E900310A467030194605F08D
:1031B0006FFB291D286D06F0EDFE0028E9D156F8B9
:1031C0002410281D486656F82400076056F824008D
:1031D0001822083005F14001FFF7B1F9244856F8EC
:1031E000241000EBC4056868486056F82400001DF0
:1031F00002F05EFA56F82400001D02F049FB1C485C
:1032000001220321103805F029F856F82410012076
:1032100081F86C0056F82410002081F8000156F85F
:10322000241081F8010156F8241081F8020156F8A3
:10323000241081F803010F490C2005F097FC0E497A
:103240000D2005F093FC0D49342005F08FFC0C494E
:10325000352005F08BFC95F9010016F6B1FF95F9C4
:10326000010016F6CBFF002093E70000B0600020BD
:10327000A0B72000D9282000E9282000F928200044
:103280000929200070B5042801D3E82070BD134C33
:1032900054F820304BB193F86C5035B139B132B19C
:1032A00093F80351012D04D010E0E52070BDE42017
:1032B00070BD002583F8035154F820305B68022567
:1032C000C3F8885054F820305B681B6854F820001D
:1032D000001D02F0E9FB0028EAD170BDB0600020BB
:1032E0002DE9F04104461A4D55F82400703005F0E0
:1032F000E4FA82B2164600277AB155F8240090F815
:103300000111012909D0802A0ED300F1800170300B
:10331000802205F0E7FA80260BE055F8240080F8BB
:1033200000710020BDE8F08100F18001703005F0EF
:10333000D9FA55F8240080F8047155F82400324673
:1033400000F18001001D02F0CDFC0028EAD1E9E780
:10335000B060002070B50446042C01D3E82070BD95
:10336000184D55F8240090B190F86C307BB181B1C4
:103370007AB1002680F8026155F82400703005F01B
:10338000F5FA55F8240090F8001121B10AE0E52083
:1033900070BDE42070BD90F8011119B990F86C105F
:1033A000012901D0E22070BD012180F800112046E2
:1033B000FFF796FF20B155F8241081F8006170BD29
:1033C000002070BDB060002070B5042801D3E82053
:1033D00070BD104D55F8204064B194F86C604EB14A
:1033E00051B14AB15E1C09D044F62066B34205D9FA
:1033F000E42070BDE52070BDE42070BD002684F897
:10340000026155F82000001D02F0B6FB0028F4D13F
:1034100070BD0000B06000202DE9F74F84B0054674
:103420000C46022604F10809204601F05BF9074624
:103430003E48D0F804A000200390B5F5804F0ADB89
:10344000B5F5004F07DA3948406839490968A0EBFB
:10345000010A01200390E019504501DD052662E0D4
:103460003248006800F6FF7030490988491EC1F3F0
:103470000B01401AC0F3073B039810B12C480068B9
:1034800000E0002002902B4800682B490968401A90
:10349000001F2649497AA1EB0B01A0EBC10023498B
:1034A0000968411A0298A1EB000809EB07004045A2
:1034B00032DD002011231E224FF400410090012034
:1034C00044F69CF90021084600F0D4FFC8B917491A
:1034D000487A02F0B9FD06461EB1304607B0BDE895
:1034E000F08F002012231E224FF400410090012093
:1034F00044F684F921462846069A07F05DF8064608
:1035000010E0002013231E224FF400410090012000
:1035100044F674F90F2605E021462846069A07F07E
:103520004BF8064600BF3046D8E700009C690020F3
:10353000105B00201C5B0020145B002038B505F0F8
:10354000D5FF28B140F27E41084605F027FD04E092
:1035500040F27E41084605F021FD2748007878B109
:1035600026480068009005F033FD04462448008892
:10357000009005F02DFD0546214605F04BFF05E0C6
:103580004FF466714FF47F7005F044FF1D4804F05E
:10359000FDFC05F0ABFF10B91B48007880B91B4853
:1035A00018490A6802604A6842600989018118491D
:1035B000144802680A6042684A600089088119E07C
:1035C0001249104802680A6042684A60008908810E
:1035D0000F490C4802680A6042684A600089088105
:1035E00040F21A400949088005F06EFC07498880BE
:1035F0000120487238BD0000C85C0020C45C002077
:10360000C65C00209A5C0020865C0020A45C002040
:10361000AE5C002010B50121002002F037F8012037
:1036200015F6CEFC02200649087005F013FA05498C
:10363000322005F09BFA3220FFF78FF910BD000011
:10364000F45C0020F321200010B52DED028B00BFAB
:1036500017480068C0F30B00044600BF1448083048
:10366000006820F07F4008EE100A601C00EE100A8F
:10367000B8EE400ADFED0F0A20EE200AB8EE481A35
:10368000C0EE010AB6EE000A30EE800ABCEEC00AB7
:10369000094880ED000A006804F050FCF0EE408A12
:1036A000B0EE680A05F046FFBDEC028B10BD0000CD
:1036B00004E400400024F44BE05C002010B500213D
:1036C000084601F0E3FF012015F672FC034880680C
:1036D00020F480700149886010BD000000A0004007
:1036E00010B516480068401C1449086000BF144813
:1036F000006800F0010040B100BF114808380068C0
:1037000000F0010008B105F0FDF900BF0D480068A8
:1037100000F0010040B100BF0A480838006800F01E
:10372000010008B100F046FD05F08AF920B102F071
:1037300055FB08B1FFF7C2FF10BD00000C5D002073
:1037400008E4004008E5004010B505F079F920B123
:1037500002F044FB08B1012010BD0020FCE710B5C9
:1037600005F0F6F900F0CCFC10BD10B504F06EFDCC
:10377000BDE8104000F0E2B810B500BF2348006873
:1037800020F000402149086000BF214A1078214AFA
:10379000117840EA81031D4A121D126863F31F72FB
:1037A0001A4B1B1D1A6000BF06201946096821F438
:1037B000E07141EA80111A46116000BF00BF101F7E
:1037C000006840F00040111F086000BF00BF1248B1
:1037D000006840F001001149C1F8880200BF10499B
:1037E000312005F0C3F9312000280DDB00BF00BFF8
:1037F00000F01F02012191404209920002F1E022F3
:10380000C2F8001100BF00BF00BF10BD04A90040F6
:10381000685C0020695C002088E2004000E0004015
:103820000D2720002DE9F04104460D4616460948B3
:10383000007810B1002003F0C1FD32462946204631
:1038400003F0A6FD07460348007803F0B7FD3846AD
:10385000BDE8F081215B00202DE9F04105460E46D0
:1038600014460948007810B1002003F0A7FDA2B269
:103870003146284603F0B2FD07460348007803F0BE
:103880009DFD3846BDE8F081215B00202DE9F04127
:1038900005460E4614460948007810B1002003F092
:1038A0008DFDA2B23146284603F0F9FD07460348D4
:1038B000007803F083FD3846BDE8F081215B0020ED
:1038C0002DE9F04104460D4616460948007810B12E
:1038D000002003F073FD32462946204603F01EFE09
:1038E00007460348007803F069FD3846BDE8F081DB
:1038F000215B00202DE9F04104460F4615464FF0AC
:103900000008206800F6FF702188491EC1F30B01F2
:10391000401A21682944884201D84FF008082A46F5
:1039200039462068FFF7B2FF86B205EB0801206830
:10393000084420603046BDE8F0810000024901489B
:1039400008607047ED5110006C03002010B502466E
:10395000012302B109B9002010BD084C1068A04233
:1039600002D10020087007E0054C1068A04202D187
:103970000120087000E000231846EDE700900140A8
:1039800000A001402DE9F84305460F462020009095
:1039900069462846FFF7DAFF012837D19DF8001065
:1039A00088401B490968084080B35FBB00BF00BF67
:1039B000EFF310800646012080F3108800BF4FF01F
:1039C000000814492868884202D1DFF84C8007E0DB
:1039D00012492868884203D1DFF83C8008F11808B2
:1039E000002408E058F8240018B158F8240000F723
:1039F00029FF601CC4B2062CF4DB00BF86F31088DC
:103A000000BF00BF9DF8000001F072FDBDE8F88323
:103A1000605D002000900140846D002000A0014006
:103A2000F8B504460D4620200090002604B9F8BDE4
:103A300069462046FFF78AFF012810D1012D02D0E8
:103A40000DB1012606E02068D0F8A00308B90026D1
:103A500000E0012631469DF8000001F0F7FD84F8F2
:103A60002D5000BFE3E738B504462020009069469A
:103A70002046FFF76BFF012803D19DF8000001F0FD
:103A8000C7FD38BD70B504460E46002E43D03749F9
:103A9000206888421CD12079062819DA0020217973
:103AA000334A42F82100002506E0314850F825004D
:103AB00000B103E0681CC5B2062DF6DB00BF062D81
:103AC00052D1002001F078FD002001F0FBFC4BE01A
:103AD00028492068884247D12079062844DA002105
:103AE00022792348183040F82210002507E02048AA
:103AF000183050F8250000B103E0681CC5B2062D4F
:103B0000F5DB00BF062D2FD1012001F055FD01206E
:103B100001F0D8FC28E01549206888420FD12079AF
:103B200006280CDA2079124941F820401249002079
:103B300001F02AFD0E49002001F054FD14E00D496A
:103B40002068884210D1207906280DDA21790848AA
:103B5000183040F821400849012001F015FD0449C2
:103B60001831012001F03EFD70BD000000900140C1
:103B7000846D002000A001400D481000F0B50446FF
:103B80000D4616461F463B4632462946204600F063
:103B900009F802F0A9F9F0BD01480078704700006B
:103BA0004C6D002030B501240A4D2C702C4660600D
:103BB000E2602361A160084CA4688C4203D2064CE9
:103BC000A4680C1B02E0044CA468641A014D6C61EB
:103BD00030BD00004C6D0020105D002010B502F0DB
:103BE0005BF9044618210548FEF7DBFC0020034979
:103BF0000870204600F07AF910BD00004C6D0020DE
:103C00002DE9F047054688461646324C324887680B
:103C10004FF0000994F800A026626562BD4201D908
:103C2000E81B00E0781B81462B48C068484507D355
:103C30003346424629460020FFF7A0FFBDE8F08743
:103C4000A069484502D9C4F81890E661BAF1010F9D
:103C500021D165616069B84203D92069401CA06028
:103C600002E02069401EE060D4E9020188420BD2E4
:103C7000D4E9020108444008206101202070404638
:103C8000216900F02BF8D9E7022020704046A16896
:103C900000F024F8D2E7BAF1020F10D1E069B04287
:103CA00006D13346424629460020FFF767FFC5E7A5
:103CB000032020704046E16900F010F808E0BAF1F6
:103CC000030F05D13346424629460020FFF756FF31
:103CD00000BFB3E7F46C0020105D002070B504460F
:103CE0000D460648806A401C04498862AAB2E1B2C7
:103CF000034B5868034B02F07FF870BDF46C002052
:103D0000105D0020013C200070B505460F4C2C21B1
:103D10002046FEF746FC0020A06040F2FF10E06065
:103D2000D4E902010844400820614FF0FF30A0614F
:103D3000A06A401CA06201202070238A9AB2E9B2D6
:103D4000034B5868034B02F057F870BDF46C002029
:103D5000105D0020013C20002DE9F84306460D4689
:103D60009046344C94F80090B9F1010F0AD1E66006
:103D700040F2FF10206102220146284600F09CF824
:103D8000BDE8F883B9F1020F4AD100270020009066
:103D90006661684600F050F807461FB92846FFF7ED
:103DA000B3FFEDE7012F12D10F2D07DA0020A0603D
:103DB0000122681CA16800F07FF8E1E70520E061BE
:103DC00043462A463146E069FFF7D8FED8E7022F7E
:103DD00012D1002D07DD0020A060681E0122002105
:103DE00000F06AF8CCE70620E06143462A463146F7
:103DF000E069FFF7C3FEC3E7032F08D10098E06135
:103E000043462A463146E069FFF7B8FEB8E7072087
:103E1000E06143462A463146E069FFF7AFFEAFE76F
:103E20000820E06143462A463146E069FFF7A6FED6
:103E300000BFA5E7D46C002070B504461C491D489E
:103E40000369826800250026C868904204D9486941
:103E5000904201D9022070BDC868904204D24869DE
:103E6000904201D20120F6E7C868904202D9C868A2
:103E7000801A01E0C868101A05464869904202D9C4
:103E80004869801A01E04869101A06469D4203D32A
:103E90009E4201D30020DEE79D4201D20120DAE7F5
:103EA0009E4201D20220D6E70320206000BFD2E765
:103EB000D46C0020105D00202DE9F04105460E462F
:103EC0001746074CA069401CA06165602770B2B21C
:103ED000E9B2044B5868044B01F08EFFBDE8F08155
:103EE000D46C0020105D0020593D200070B50546BF
:103EF000064C20212046FEF754FB0020A060012242
:103F00002846A168FFF7D8FF70BD0000D46C0020E0
:103F10002DE9F84305460E4617462A4C4FF0000897
:103F2000C14600200090E069401CE0616660A76027
:103F3000E0682061E56024488068A84203D22248F6
:103F40008068281A02E020488068401B804660692B
:103F5000404502D9C4F81480A761684600F036F8DD
:103F60008146B9F1000F09D0B9F1010F0CD0B9F1B8
:103F7000020F11D0B9F1030F1AD113E00020A06293
:103F8000204600F0CCF819E0012084F820003046EB
:103F9000A16900F087F811E0A068411C304600F0EC
:103FA00081F80BE0A068411E304600F07BF805E088
:103FB0000098A062204600F0B2F800BF00BFBDE844
:103FC000F8830000206D0020105D0020F0B503464E
:103FD000324933488268002400250026C868904290
:103FE00002D9C868801A01E0C868101A04462C4833
:103FF000C068A04201D30020F0BD486A012801D169
:104000000020F9E791F82000012801D10020F3E712
:104010004F6AC869B84209D38F688869B84201D12C
:104020000020E9E7012081F82000E5E7C8690128C0
:1040300015D90869904202D9C868904205D3086929
:1040400090420CD2C868904209D98F688869B842FA
:1040500001D10020D0E7012081F82000CCE7C8681A
:10406000904201D9012500E001264DB18868B0F5E4
:10407000FF7F03D9092018600420BDE70220BBE7B9
:104080003EB1886818B90A2018600420B4E70320FC
:10409000B2E70B2018600420AEE70000206D00207E
:1040A000105D002070B504460D46AAB2E1B2034B84
:1040B0005868034B01F0A0FE70BD0000105D0020A9
:1040C000113F200070B504460D4616462C210948C4
:1040D000FEF767FA0020074981F82000401E48617A
:1040E00008464462B2B2E9B2034B5868034B01F090
:1040F00083FE70BD206D0020105D0020113F200068
:1041000010B501F05DFE00B910BDFFF745FD10B917
:10411000FFF764FDF8E700F02DF800BFF4E700B505
:104120000346184600F004F801F0DEFE00BD000072
:1041300001210E4A1171816A9160C169D160C16823
:1041400011614168516181689161094AC168926851
:10415000914204D9064AC1689268891A03E0044969
:104160008968C268891A014AD1617047646D00206C
:10417000105D00202DE9F04101F08EFE064601F0B1
:104180009DFE0746094804680948456920210748FB
:10419000FEF707FA601C05490860002008713A46DE
:1041A00031462846FFF78EFFBDE8F081646D0020A0
:1041B000105D002010B512480069401C10490861CC
:1041C00001F098FE0E49C86001F066FE0C49486097
:1041D00001F074FE0A49886000200A490860084915
:1041E00048610846C06940B10C462489A2B20C4619
:1041F0002179E068E369984701E001F075FE10BDA0
:10420000B46C002000E500407CB500251B48006828
:1042100000F108041A48007810B1002003F0CEF82D
:1042200000BF08226946204603F0D8F8BDF8000018
:104230004FF6FF71884202D0BDF8000008B925464C
:1042400015E0BDF8020000F04DFABDF8021008318B
:10425000084486B23146204600F05AFA044609481E
:104260000068844202D30748056800E0D9E700BF30
:104270000348007803F0A2F828467CBD145B0020B8
:10428000215B00201C5B0020FEB506460C4602AAFE
:104290002146304605F094FC08B10298FEBD029814
:1042A00008B1029802E02248006808300546002064
:1042B00002902048007810B1002003F07FF800BF82
:1042C00008226946284603F089F8BDF800004FF639
:1042D000FF71884203D100202080029020E0BDF8C9
:1042E0000000B04205D114B1BDF802002080029553
:1042F00016E0BDF8020000F0F5F9BDF80210083133
:10430000084487B23946284600F002FA05460A48B2
:104310000068854203D300202080029000E0CFE7B0
:1043200000BF0448007803F049F80298B6E700009F
:10433000145B0020215B00201C5B002008B503F00B
:10434000EDFD00F0FBFFD8B100208DF80000A320A8
:104350008DF8010002208DF80200684600F76EF922
:1043600008494FF6FF700860091D8011086004F0CD
:10437000BFFC03F047FC05F036FA03F0B1FC08BDC2
:10438000FEE7000080A4004002494968002900D0EF
:10439000084770478C5D002070B5044600BFFEF7EB
:1043A000EDFA05460120FEF7F6FA0948047024B933
:1043B000482208490848FEF7C2F81DB90020FEF758
:1043C000EAFA02E00120FEF7E6FA00BF70BD000045
:1043D000085B002030680020002000E010B507488E
:1043E00040680749486006480830402203490831C0
:1043F000FEF7A5F803200249086010BDE867002019
:10440000002000E0002003490968002900D0084787
:10441000704700008C5D002070B500BFFEF7AEFA5B
:1044200005460120FEF7B7FA0B48047834B9482254
:104430000A490B48FEF783F8FFF7D0FF0120064931
:1044400008701DB90020FEF7A6FA02E00120FEF771
:10445000A2FA00BF204670BD085B0020002000E0EB
:104460003068002013B501216846FEF7C5FD012024
:104470001CBD00002DE9F04F8DB0884608200C903F
:10448000002400200B904FF008090A90CDF82480FA
:104490008246FFF7B9FE054605F6FF70691EC1F3B7
:1044A0000B01401A7C490968401A0121C1EB103008
:1044B000C4B20B9414B101200990824605F0A2FA0F
:1044C000E3E00020069007906CB17349096801EBA6
:1044D0000430042206A9FFF7A5F9042803D00F2011
:1044E0000DB0BDE8F08F002002900390A5208DF85C
:1044F00008008DF809409DF82C008DF80A00BDF8E1
:104500003000ADF80E009DF818008DF80B00BDF8D6
:104510001A00ADF80C006048006800EB0430484415
:104520000A905E480068484408904FF480515B4808
:10453000006802F0F7FE08B91020D1E79DF81800D6
:1045400048B19DF81820012308A90AA806F0B6F979
:1045500008B10F20C4E7BDF81A0048B1BDF81A2011
:10456000002308A90AA806F0A9F908B10F20B7E7A7
:1045700000BF49490A980968401AA0EB0430C0F509
:104580008055082D2DDD0120082304AA08A90090DC
:104590000AA806F05DF908B10F20A1E7BDF81000E8
:1045A0004FF6FF71884200D133E0083DBDF812009C
:1045B00000F098F8BDF812104718AF4208DDAAB213
:1045C000002308A90AA806F079F9D8B10F2087E7D7
:1045D000BAB2002308A90AA806F070F990B10F201A
:1045E0007EE7A8B200F07EF828441FFA80FB012085
:1045F0005B462B4A08A900900AA806F029F908B1E1
:104600000F206DE725480899006800F58050814229
:10461000AFD300BF082202A920480068FFF750F975
:10462000082801D00F205BE71B49096801EB043023
:104630004FF4805102F076FE08B9102050E7BAF12D
:10464000000F0DD01449096801EB0430042206A9BB
:10465000FFF736F9042801D00F2041E74FF0000A98
:1046600009AB0CAA0BA902A806F052F90646012EC6
:1046700006D101030948006802F054FE00202FE72C
:104680000EB10F202CE7601CC4B20648407AA0424D
:10469000BFF617AF002023E7145B0020185B002053
:1046A0003C6B00209C6900200146002008710879BD
:1046B0000A781044087108798A78104408710879DA
:1046C000704710B502460020507100BF05E05379D5
:1046D0000C5C23445371431C98B253888342F6DC2C
:1046E000507910BD01460020084A127862B10A468E
:1046F000CB1701EB93739B10A1EB8303DB43D8B281
:10470000421CD0B200F0030070470000215B002083
:1047100070B506460C46002535192146304601F095
:10472000D3FD08B1082000E000200544284670BDF4
:10473000024600210BE0084850F83130501E8342F9
:1047400004D1054800EBC10040687047491C10299E
:10475000F1DB0020F9E7000078680020002101E08B
:10476000491C4008C207FBD00846704770B5044694
:1047700000BFFEF703F905460120FEF70CF9002003
:10478000144908701448154908601548154908600F
:10479000482215491548FDF7D2FE154812494860D0
:1047A0000320086048221348FDF7C9FE48220F493C
:1047B0000D48FDF7C4FE882C01D005F013F81DB993
:1047C0000020FEF7E8F802E00120FEF7E4F800BF61
:1047D00070BD0000085B002099432000905D002020
:1047E000194420008C5D0020002000E0306800208B
:1047F00080700020E86700202DE9FE430546002474
:1048000003208DF8000000260C4F4FF00108E80748
:104810000BD008FA04F0019007EBC4004068029046
:1048200057F8341009B168468847641CA4B26D0873
:10483000761C082EEBDBBDE8FE83000070600020D4
:1048400010B588B004460CB908B010BD20680090BF
:10485000207900F003000190A0680290E0680390C6
:104860002069049060690590A0690690606800095D
:104870000790684601F052FD00BFE5E770B5FF20E4
:1048800024490968C9B201400C4600BF2248D0F84B
:104890008400C0F34000054664B3204601F032FDB9
:1048A00000BFE0431B49086000BF00BF6FF002007B
:1048B0001949C1F8840000BF00BF164818380068C5
:1048C00000F0010040B104F0100028B124F0100401
:1048D0001020FFF657FF11E000BF0F48806800F07E
:1048E000010040B104F0200028B124F02004202071
:1048F000FFF648FF02E02046FFF77EFF45B13CB9D6
:1049000000BF6FF0020004498431086000BF00BF9F
:1049100070BD000008A2004000A0004001218140BD
:10492000024A12688A4301490A607047985E002073
:1049300003480449086004480449086070470000BF
:10494000AB4E1000DC0A0020134F1000E00A0020DC
:1049500001218140024A12681143014A11607047E7
:10496000985E002010B504460448006820B1204637
:1049700002490968884710BD0120FCE7485D002016
:1049800010B504460448006820B120460249096871
:10499000884710BD0120FCE74C5D002070B504463F
:1049A00000250CB9012070BD94F82D0001280BD111
:1049B00000BF002084F82C0000BF206C002868D0C5
:1049C0002046216C884764E094F82D00022809D025
:1049D00094F82D00042805D0606C40F00400606459
:1049E000012556E02179206801F029FF00BF2179D7
:1049F000206801F0E4FF0028F9D12179206801F056
:104A000059FF2179206801F045FF2179206801F1E3
:104A10000802012393404FF44872135000BF2179DC
:104A2000206801F10802012393404FF44A721350A9
:104A300000BF2179206801F035FF2179206801F05D
:104A4000D7FE2179206801F0C9FE21792068012371
:104A50008B40C0F8483300BF2179206801238B4088
:104A6000C0F8503300BF2179206801F0BCFE2179E5
:104A7000206801F0FEFE01212046FEF7D1FF00BFB5
:104A8000002084F82C0000BF206C10B12046216C5F
:104A90008847284687E700002DE9F041044614B90D
:104AA0000120BDE8F081534807685348D0F80080E2
:104AB00000BF4146384614F6CBFA00BF4E48456861
:104AC000FDF7F2FE4D4800684FF47A71B0FBF1F04B
:104AD00000FB01F62179206801EB410202EBC102E3
:104AE00000EBC202126C42F4807201EB410303EB53
:104AF000C10300EBC3031A6400BF19E03E484068DD
:104B0000401BB04214D9606C40F02000606400BFCC
:104B1000002084F82C0000BF03212046FEF780FF10
:104B200000BF4146384614F671FA00BF0320B8E7CB
:104B30002179206801EB410202EBC10200EBC202C5
:104B4000126CC2F34022002AD8D02179206801F0EB
:104B500076FE29484568FDF7A7FE284800684FF40F
:104B60007A71B0FBF1F000FB01F619E022484068D1
:104B7000401BB04214D9606C40F02000606400BF5C
:104B8000002084F82C0000BF03212046FEF748FFD8
:104B900000BF4146384614F639FA00BF032080E7CB
:104BA0002179206801F00BFF0028DFD121792068EE
:104BB00001EB410202EBC10200EBC202126C22F4D3
:104BC000807201EB410303EBC10300EBC3031A64E2
:104BD00000BF01212046FEF723FF00BF002084F81C
:104BE0002C0000BF00BF4146384614F60FFA00BF44
:104BF000002056E7FCED00E0001000E054520020D9
:104C00002DE9F04104460D4616461F460748006848
:104C100050B13B46324629462046DFF810C0DCF84A
:104C200000C0E047BDE8F0810120FBE73C5D0020CB
:104C30002DE9F04104460D4616461F460748006818
:104C400050B13B46324629462046DFF810C0DCF81A
:104C500000C0E047BDE8F0810120FBE7385D00209F
:104C60002DE9F84304460E4617461D464FF000084E
:104C700014B90120BDE8F8832DB9606C40F008003C
:104C800060640120F6E700BF94F82C00012801D1F0
:104C90000220EFE7012084F82C0000BF94F82D00DB
:104CA00001287DD100212046FEF76CFE2046FEF74C
:104CB000DAFE02212046FEF7B3FE2179206801F0DA
:104CC000D8FD2069009021793B463246206801F0EA
:104CD00095FD21792A46206801F07DFE2179206822
:104CE00001F086FD2179206801F042FE21792068DB
:104CF00001F074FD2179206801F024FE21792068FB
:104D000001F071FD2179206801F027FE2179002250
:104D1000206801F0DEFE21790022206801F0FFFE0C
:104D200021790022206801F0E7FE2179206801F056
:104D3000CAFD21790022206801F03CFF2179002280
:104D4000206801F047FF2179206801F081FD217979
:104D50000022206801F09DFE21790022206801F0E8
:104D6000A8FE21790022206801F080FE217900222E
:104D7000206801F068FE21790022206801F051FED0
:104D800021790022206801F0DDFE217900222068CF
:104D900001F0FDFE21790022206801F0E6FE00E02E
:104DA00004E02179206801F0BBFD06E04FF0020825
:104DB00000BF002084F82C0000BF40465AE72DE9D0
:104DC000F04104460E4617469846002543463A46AB
:104DD00031462046FFF72CFF05461DB92179206892
:104DE00001F082FD2846BDE8F0812DE9F843044634
:104DF0000E4617461D464FF0000804B135B9606CE9
:104E000040F0080060640120BDE8F88300BF94F81A
:104E10002C00012801D10220F6E7012084F82C00A3
:104E200000BF94F82D0001287DD100212046FEF717
:104E3000A9FD2046FEF717FE02212046FEF7F0FDF1
:104E40002179206801F015FD2179206801F0D0FC5E
:104E50002179206801F02EFD2179206801F0BEFC47
:104E60002179206801F016FD2179206801F0BBFC52
:104E70002179206801F016FD21790022206801F0D7
:104E800028FE21790022206801F049FE21790022C4
:104E9000206801F031FE2179206801F014FD2179AC
:104EA0000022206801F086FE21790022206801F0AE
:104EB00091FE2179206801F0CBFC21790022206845
:104EC00001F0E7FD21790022206801F0F2FD21794F
:104ED0000022206801F0CAFD21790022206801F03B
:104EE000B2FD21790022206801F09BFD217900228A
:104EF000206801F027FE21790022206801F047FE9A
:104F000021790022206801F030FE2069009021798B
:104F10003B463246206801F071FC21792A46206820
:104F200001F059FD00E004E02179206801F0DCFC8B
:104F300006E04FF0020800BF002084F82C0000BFFC
:104F4000404661E72DE9F84304460D4616461F46E4
:104F5000DDF820800848006860B13B4632462946AB
:104F60002046DFF814C0CDF80080DCF800C0E04730
:104F7000BDE8F8830120FBE7405D00202DE9F84300
:104F800004460F4690461E46089D4FF0000914B98E
:104F90000120BDE8F88306B12DB9606C40F008002F
:104FA00060640120F5E700BF94F82C00012801D1CE
:104FB0000220EEE7012084F82C0000BF94F82D00B9
:104FC00001287DD100212046FEF7DCFC2046FEF7BB
:104FD0004AFD02212046FEF723FD2179206801F0D9
:104FE00048FC21792A6A206801F073FD2179AA69B9
:104FF000206801F094FD2179AA6A206801F07CFD07
:10500000A869B0F1805F0AD12179206801F0BBFC6A
:10501000217905F11C02206801F0DCFD08E021790E
:10502000206801F050FC21790022206801F0D2FDB7
:10503000286AB0F1006F0AD12179206801F05FFC85
:10504000217905F12402206801F033FD08E021797F
:10505000206801F0FDFB21790022206801F029FD84
:1050600021792A68206801F001FD21796A682068A9
:1050700001F0E9FC2179AA68206801F0D2FC2179CD
:10508000EA68206801F05EFD21792A69206801F054
:105090007EFD21796A69206801F067FD2069009032
:1050A000217943463A46206801F0A8FB217932462F
:1050B000206801F090FC2179206801F099FB00E064
:1050C00018E02179206801F053FC2179206801F073
:1050D00085FB2179206801F035FC2179206801F0F9
:1050E00082FB2179206801F038FC2179206801F0E9
:1050F00017FC06E04FF0020900BF002084F82C00E6
:1051000000BF484645E72DE9F84304460E461746DA
:105110009846DDF82090002543463A463146204621
:10512000CDF80090FFF70EFF05461DB921792068E4
:1051300001F0DAFB2846BDE8F8832DE9F843044680
:105140000F4690461E46089D4FF0000914B90120F5
:10515000BDE8F88306B12DB9606C40F008006064CA
:105160000120F5E700BF94F82C00012801D10220AE
:10517000EEE7012084F82C0000BF94F82D000128F0
:105180007DD100212046FEF7FDFB2046FEF76BFC9B
:1051900002212046FEF744FC2179206801F069FBDA
:1051A0002179206801F024FB2179206801F082FB3D
:1051B0002179206801F012FB2179206801F06AFB57
:1051C0002179206801F00FFB2179206801F06AFB4A
:1051D00021792A6A206801F07CFC2179AA6920687B
:1051E00001F09DFC2179AA6A206801F085FCA8697C
:1051F000B0F1805F0AD12179206801F0C4FB2179E8
:1052000005F11C02206801F0E5FC08E02179206826
:1052100001F059FB21790022206801F0DBFC286AAB
:10522000B0F1006F0AD12179206801F068FB217983
:1052300005F12402206801F03CFC08E02179206897
:1052400001F006FB21790022206801F032FC21796F
:105250002A68206801F00AFC21796A68206801F058
:10526000F2FB2179AA68206801F0DBFB2179EA686A
:10527000206801F067FC21792A69206800E018E0C5
:1052800001F085FC21796A69206801F06EFC2069D3
:105290000090217943463A46206801F0AFFA21791F
:1052A0003246206801F097FB2179206801F01CFB51
:1052B00006E04FF0020900BF002084F82C0000BF78
:1052C000484645E710B50446002014F661F820462C
:1052D00013F67AFF10BD000010B50446034814F61B
:1052E00057F8204613F6C4FF10BD0000A05E002052
:1052F0007047704770B504460D462A462146002087
:1053000014F6CCF908B9012070BD0020FCE70000BC
:1053100000B101B97047044A92680260024AD2683B
:105320000A6000BFF6E70000680D002010B514F613
:1053300079FA08B1012010BD0020FCE710B514F681
:105340007DFA08B9012010BD0020FCE770B50446C5
:105350000D46164632462946204614F653FB08B938
:10536000304670BD0020FCE710B50446204614F618
:105370004BFC10BD2DE9F047C0B08046894614466D
:1053800022464946404614F6C5FC8246BAF1000F53
:1053900034D100252646B4F5807F02D94FF48070C1
:1053A00000E02046074600BF08EB05003A46694684
:1053B00014F628FB8246BAF1000F1BD109EB050059
:1053C0003A466946FDF74AF8A0B9F61B1EB92046D1
:1053D00040B0BDE8F0873D44B6F5807F02D94FF478
:1053E000807000E030460746A54202D2E819A0428C
:1053F00001D901E000E0D7E700BF00BF0020E7E7E8
:105400002DE9FE4380460F463846FFF7A7F985B2DF
:105410000024DFF834900D4E59F8340040450ED189
:1054200005EB041085B28DF80040019706EBC5002E
:105430004068029056F835200AB168469047641CCF
:10544000032CE9DBBDE8FE83B4B62000705F0020CA
:1054500070B504464FF6FF70A16B01400D463DB19B
:105460002946204601F0C6FB29462046FFF7C8FF23
:1054700070BD30B589B005460C4605B10CB909B010
:1054800030BD20680190207900F003000290A068F0
:105490000390E06804902069059060690690A06917
:1054A000079060680009089001A9284601F0A4FB54
:1054B00000BFE4E770B504460D462946204601F0DA
:1054C00095FD70BD10B504460748006820B1204620
:1054D00005490968884705E0202C03DA00200349C4
:1054E00041F8240010BD0000785D0020B46E00205B
:1054F00010B504460B48006820B1204609490968E8
:1055000088470EE0202C0CDA0021074800F070409C
:1055100000F10070044AC2F3130200EB421040F89D
:10552000241010BD845D0020605D002070B504462D
:105530000D460848006828B129462046054A1268E9
:10554000904705E0202C03DA15B1034840F82450B9
:1055500070BD00006C5D0020346E002010B5044664
:105560000748006820B1204605490968884705E0DA
:10557000202C03DA0020034941F8240010BD00006C
:10558000705D0020346E002070B504460D4608485A
:10559000006828B129462046054A1268904705E070
:1055A000202C03DA15B1034840F8245070BD0000E8
:1055B000645D0020B46D002010B504460748006803
:1055C00020B1204605490968884705E0202C03DA08
:1055D0000020034941F8240010BD0000685D002050
:1055E000B46D002070B504460D460748006828B128
:1055F00029462046044A1268904704E0202C02DA2B
:10560000024840F8245070BD745D0020B46E002044
:1056100010B504460B48006820B1204609490968C6
:1056200088470EE0202C0CDA0121074800F070407A
:1056300000F10070044AC2F3130200EB421040F87C
:10564000241010BD805D0020585D002070B5044618
:105650000D460C48006828B129462046094A1268C0
:1056600090470DE0202C0BDA074800F0704000F165
:1056700000700549C1F3130100EB411040F82450BC
:1056800070BD00007C5D0020505D002004280BDA16
:10569000064A02F0704202F10072044BC3F3130396
:1056A00002EB431242F8201070470000545D0020C6
:1056B00038B50446202000900CB9012038BD94F87C
:1056C000370018B994F8380000287DD01422022140
:1056D000204604F049FD20680021C0F8901000BF6A
:1056E00041F2883300224021204604F06FFE2068FA
:1056F00001F0A6FD204600F0D5F945492068884212
:1057000009D100BF01204349086000BF00BF4249E2
:10571000086000BF2FE04149206888420BD100BFDC
:1057200001203C49091D086000BF00BF3A49091D1E
:10573000086000BF1FE03A49206888420BD100BFD3
:10574000012034490831086000BF00BF32490831E8
:10575000086000BF0FE03349206888420BD100BFCA
:1057600001202C490C31086000BF00BF2A490C31D0
:10577000086000BF00BF00BFFDF703F90546012028
:10578000FDF70FF900BF284800682849084028495C
:105790000840884206D100BF01201E49D839086060
:1057A00000BF00BF00BF2048083000682149084002
:1057B00021490840884205D100BF01201F490860E7
:1057C00000BF00BF284600E01BE0FDF7EAF800BF7D
:1057D0000020E06300220221204604F0C5FC0121E4
:1057E000204604F057FD6946204604F097FB012847
:1057F00003D19DF80000FFF7B1FE0121204604F01F
:105800008DFC00BF002084F8360000BF00BF55E7C4
:1058100000C5004080D51D4280D61D4200C6004014
:1058200000C7004000C80040ACEE0040CFC37F7A04
:10583000CF035E700FFF7F000F3F7C0028D41D4216
:105840001CB50446204604F093FB00228DF800208E
:10585000E16B0191064951F8203083F8002151F89D
:1058600020000168002901D0684688471CBD00005F
:10587000B0600020014609B90020704700220023D3
:1058800091F8372091F8383042EA0300F5E700003C
:1058900010B586B004462020009014B9012006B04F
:1058A00010BD94F83700002850D194F83800002833
:1058B0004CD184F8360000BF4049086000BF00BFEB
:1058C0003E498039086000BF3D49206888420AD1BE
:1058D00000BF00203949D831086000BF00BF3949F6
:1058E000086000BF2FE03849206888420BD100BF14
:1058F00000203249DC31086000BF00BF3149091D7A
:10590000086000BF1FE03149206888420BD100BF0A
:1059100000202A49E031086000BF00BF2949083152
:10592000086000BF0FE02A49206888420BD100BF01
:1059300000202249E431086000BF00BF21490C313A
:10594000086000BF00BF204600F0ADF8142202211D
:10595000204604F009FC60680190A068029020696C
:105960000490E06803906069059001A9206801F047
:105970007EFC0020E06310220221204604F0F4FBAC
:10598000204604F027FC0021204604F083FC6946F1
:10599000204604F0C3FA012804D10E499DF8000006
:1059A000FFF7C4FD0121204604F0B8FB00BF002032
:1059B00084F8360000BF00BF71E70000A8D41D4284
:1059C00000C5004080D61D4200C6004000C7004010
:1059D00000C80040F94810002DE9F0410446206855
:1059E000816801F00F010D4600260027022D06D028
:1059F000042D08D0062D14D00C2D4DD108E02046E2
:105A000004F00BFC49E00021204604F031FB44E0A7
:105A1000A069012800D101273946204604F028FB5F
:105A20003BE0206801F020FC0646E06B06F01E011A
:105A30000843E0632068C16FC1F3C00119B10021C0
:105A4000204604F015FBE06B00F00200F0B12046A8
:105A500004F032FA94F83500012813D1206B50B1CC
:105A60000F48216B0864206BFEF78AFF30B1206B72
:105A7000016C884702E02046FFF7E2FE002084F830
:105A8000350008E02046FFF7DBFE04E02046FFF784
:105A9000D7FE0020E06300E000BF00BFBDE8F0815A
:105AA000119E2000704770472DE9F04104460E46D4
:105AB000154614B90120BDE8F08106B12DB9E06B9F
:105AC00040F48060E0630120F5E794F83800102886
:105AD00038D10021204604F021FB204604F07AFB57
:105AE0006662258565850020E0631222012120463B
:105AF00004F03AFB0221206801F00BFC206801F061
:105B0000B3FB00F0820028B1206801F0FEFB2068A2
:105B100001F0A6FB00BF002084F8360000BF00BFE4
:105B200000BFFCF72EFF07460120FCF73AFF0521D6
:105B3000206801F091FB3846FCF733FF00BF00BF3F
:105B40000020B8E70220B6E71CB50446204604F062
:105B50000FFA02218DF80010218D628D891AADF89F
:105B60000410044951F820000168002901D068465A
:105B700088471CBDB06000202DE9F04104460E4668
:105B800015461F4614B90120BDE8F08106B12DB9B4
:105B9000E06B40F48060E0630120F5E794F83700A3
:105BA000102835D10021204604F0B8FA204604F030
:105BB00011FB0020E06311220021204604F0D4FAFA
:105BC00025840FE03B4600220221204604F090FB92
:105BD00008B10320D8E7681E85B216F8011B2068BB
:105BE00001F09DFB002DEDD83B46002240212046D0
:105BF00004F0ECFB08B10320C6E710220021204688
:105C000004F0B2FA00BF002084F8360000BFBBE702
:105C10000220B9E72DE9F04104460E46154600275B
:105C200014B90120BDE8F08116B10DB1E06A28B9C0
:105C3000E06B40F48060E0630120F3E794F8370004
:105C4000102847D10021204604F068FA204604F0CD
:105C5000C1FA0021E06AFDF795FEE06AFDF703FF57
:105C60000121206801F058FBE26A117910684FF4B5
:105C7000805200F0C3FEE661258465840020E06365
:105C800011220021204604F06FFA012084F834002C
:105C90001248E16A48631248E16AC8630020E16A79
:105CA000086400BF84F8360000BF206800BF80464B
:105CB0002B464246E169E06AFEF7A2FF074657B16C
:105CC000E06B40F48070E06310220021204604F075
:105CD0004BFA00E002273846A4E700006F9E200040
:105CE000259E20002DE9F04104460E46154614B9C4
:105CF0000120BDE8F08106B12DB9E06B40F4806071
:105D0000E0630120F5E794F8370010282CD100213A
:105D1000204604F003FA204604F05CFAE66125848C
:105D200065840020E06311220021204604F01CFA63
:105D30000121206801F0F0FA00BF002084F836004D
:105D400000BF00BF00BFFCF71CFE07460120FCF7A8
:105D500028FE8221206801F07FFA3846FCF721FEF8
:105D600000BF00BF0020C4E70220C2E77CB50546A3
:105D7000284604F0FDF8044601208DF80000288C28
:105D8000698C401AADF804000C4D55F8240090F8C9
:105D9000040118B12046FDF7B7F902E02046FDF7EF
:105DA0009FFA55F8240090F80011002904D10168E9
:105DB000002901D0684688477CBD0000B060002003
:105DC0000448406910B10448006808B901207047D0
:105DD0000020FCE7B46C0020E00A002000B5FFF7CB
:105DE000EFFF20B10348806908B1012000BD002009
:105DF000FCE70000B46C00202DE9F04106460C469B
:105E000015461F46FFF7DCFF08B9BDE8F081012108
:105E10000020FFF73BFC012013F6D2F801201A49BD
:105E200048610846066044608560C761002088615B
:105E300001F0A0F8204600F037F8284600F046F8B8
:105E400000BF1248806840F48070104988600220CA
:105E500001F0B8F80C49086801F0BEF801F09EF8AE
:105E600001F0A6F801F090F800BF0948006820F0A2
:105E70007F400028E5D00749322002F077FE32202B
:105E8000FCF76BFD00BFC0E7B46C002000A0004031
:105E90000CE50040F32120000248006800F00F00EC
:105EA0007047000054A800400349096821F00F0121
:105EB0000143014A1160704754A80040024800683D
:105EC000C0F308407047000050A80040044909682A
:105ED000044A114041EA0041014A11607047000044
:105EE00050A80040FFFF00FE012001498861704773
:105EF000B46C00202DE9F0472DED028B00BF174850
:105F0000006820F07F400025044600BF1348083891
:105F10000068C0F30B00461C002747F6122800203B
:105F20002146A1FB082A05FB08AC04FB00C1104672
:105F300005F080FB08EE100A3046394605F07AFB82
:105F400000EE100AC8EE000ABCEEE00A044880ED3C
:105F5000000A0068BDEC028BBDE8F0870CE500404C
:105F6000E85C0020F0B589B00446601C01033348AA
:105F7000006801F0D7F9E8B900BF13F64DFC0646FA
:105F800013F656FC074602200721CDE90317CDE999
:105F9000050640F2D940012103220223CDE9002168
:105FA00002901E22C903012041F628FC00BF1020E8
:105FB00009B0F0BD224801680791406808900822A6
:105FC00007A91E480068FDF77BFC0546082D17D180
:105FD0001C49086008464472E000C0EB04300C38ED
:105FE000486008464068052101220B23CDE90021C5
:105FF00002901E222903012041F600FC0020D7E771
:1060000000BF13F609FC064613F612FC07460220F1
:106010000721CDE90317CDE9050640F2ED40012146
:1060200003221346CDE9002102901E22C90301205C
:1060300041F6E4FB00BF1020BAE70000145B00202B
:10604000C0B720009C6900202DE9F04786B00546C6
:106050006248006800F10804614845720820604900
:106060000860C5EB45200821C1EBC000061F06F102
:1060700008005B4948604FF001094FF0000A594899
:10608000007810B1002001F099F900BF042204A9A2
:10609000204601F0A3F9BDF810004FF6FF718842C9
:1060A00002D14FF0010A56E0082204A9204601F06F
:1060B00095F9BDF8120000F10807BDF81200FEF7CF
:1060C00011FB8046BDF81000A0B304A804F00CFA40
:1060D00080B900200C231E224FF4004100900120C3
:1060E00041F68CFB3F48007801F068F90B2006B0C0
:1060F000BDE8F0873A48406807EB0801401A384984
:1061000048600846406800280EDA00200E231E2250
:106110004FF400410090012041F670FB31480078B7
:1061200001F04CF90E20E2E74FF00009214604A8E7
:1061300003F076FC07EB080081B22046FEF7E8FA90
:10614000044626480068201A2549086000BF2648F2
:10615000006884429AD300BF2248007801F02EF9EB
:10616000BAF1010F01D00D20C1E7B9F1000F02D043
:106170001B4846600FE01A484068082805DD1848AB
:10618000406808381649486005E015480079144908
:1061900008720020486012484068B0420FD810488A
:1061A0004068052101220F23CDE9002102901E2223
:1061B0004FF40041012041F621FB002097E70848F9
:1061C0004068052101221023CDE9002102901E2202
:1061D000D902012041F612FB0E2088E7145B002053
:1061E0009C690020215B00201C5B002070B50446E8
:1061F00000251548808B44F24471884205D100F097
:106200002FF810B900F024F800B170BD002C05DCA7
:106210000D4890F8300000F1080506E0052C03DD7C
:10622000094890F8305000E0EFE77F2D00D97F2536
:1062300000BF06480068C0F30660A84202D02846A6
:1062400000F066FA00BFE0E7F868002004A800400C
:106250000248C07CC0F3400070470000F86800208E
:106260000248C07C00F0010070470000F868002080
:106270002DE9F04180460D4616462C4600271DE0CC
:106280004FF480710F48FCF78CF9B4F5807F02DD84
:106290004FF4807000E0204607463A4609494046E0
:1062A00001F09CF87019011B3A460648FCF7D6F835
:1062B00010B10020BDE8F081E01B84B2002CDFD1DA
:1062C0000120F7E73C6B0020024602F6FF70531EE8
:1062D000C3F30B03C01A8B18984201D801207047F2
:1062E0000020FCE70248C068C0F30240704700008D
:1062F00000E0004002488068C0F3002070470000C2
:1063000000E00040034909688143034AC2F80812CB
:106310007047000008A2004000A000402DE9F043B3
:106320000146002400220A682CE092FAA2F0B0FA9A
:1063300080F3012000FA03F4501E02402046CB688F
:1063400090FAA0F6B6FA86F6B500BB4E36680F276F
:10635000AF40BE4303FA05F73E43B74F3E60082BFC
:1063600007D1B64E366826EA0046B54FC7F8F46145
:1063700006E0B24E366846EA0046B14FC7F8F4610F
:1063800000BF00BF002AD0D10B69086890FAA0F6C0
:10639000B6FA86F5A94E0C3E366826EA006703FA7F
:1063A00005F647EA0666A64FC7F8E86100BF4B69E5
:1063B000086890FAA0FCBCFA8CF5C3F3001603F051
:1063C0000107DFF87CC2DCF8ECC12CEA000C06FA0D
:1063D00005F84CEA080CDFF86882C8F8ECC1C4463E
:1063E000DCF8ECC12CEA002807FA05FC48EA0C2C82
:1063F000DFF84C82C8F8ECC100BF8B6908684FF425
:106400007F0505EA00408D4D083D2D688543012B31
:1064100001D1064600E000263543884E083E35602F
:1064200000BFD1E900304FF47F0808EA03454FF47C
:106430007F4808EA0326012801D0032801D1A84695
:1064400001E04FF000084746022801D0032801D19F
:10645000B04601E04FF00008C446DFF8E481D8F808
:10646000E48128EA050848EA0708DFF8D491C9F86A
:10647000E481C846D8F8E48128EA060848EA0C080E
:10648000C9F8E48100BF8B6808684FF47F4808EAC8
:106490000025C6B2012B01D1A84601E04FF000084B
:1064A000474613B94FF0000800E0B046C446DFF895
:1064B0009081D8F8E88146EA050928EA09084CEAFB
:1064C000070948EA0908DFF87891C9F8E88100BFB0
:1064D00008685A4B0C331B6883434D46C5F800329D
:1064E00000BF486801287BD1C869062879D2DFE857
:1064F00000F08A28034D627908684FF47F4C0CEA5B
:106500000023C5B20CEA00264FF47F0C0CEA0047CA
:10651000DFF82CC1DCF800C22CEA030CDFF8208184
:10652000C8F800C2C446DCF804C22CEA070C45EAED
:1065300006084CEA080CDFF80881C8F804C200BF5E
:1065400062E008684FF47F4C0CEA0023C5B20CEA05
:1065500000264FF47F0C0CEA0047DFF8E4C0DCF8BB
:1065600000C22CEA030CDFF8D880C8F800C2C44689
:10657000DCF804C246EA07082CEA080C4CEA050CD1
:10658000DFF8BC80C8F804C200BF3DE008684FF4E3
:106590007F4606EA0023C5B2284E0C3636689E4375
:1065A000274FC7F800623E46D6F80462AE43C7F8EC
:1065B000046200BF28E008684FF47F4606EA002323
:1065C000C5B21E4E0C3636681E431D4FC7F800621A
:1065D0003E46D6F80462AE43C7F8046200BF13E03B
:1065E00027E010E00868C3B24FF47F0606EA0045D2
:1065F000124E1036366843EA05073E43104FC7F87F
:10660000046200BF00E000BF00BF08680B4B1433FA
:106610001B6883430A4DC5F8083200BFC86940B102
:106620000868064B0C331B680343C5F8003200BFF3
:1066300000BF0120BDE8F08374EE0040F4A10040EB
:1066400000A000400348006820F480000149086071
:106650007047000014A800400348006820F0004084
:10666000014908607047000004A800400348006822
:1066700020F08000014908607047000004A8004035
:106680000348006840F0004001490860704700007E
:1066900004A8004002480068C0F380507047000022
:1066A00014A800400449096821F4804141EA80317E
:1066B000014A11607047000008A8004003490A68B9
:1066C00022F4804242EA80300860704708A8004007
:1066D0000349096821F01F010143014A1160704715
:1066E0009CA80040094A126860F39342074B1A6065
:1066F000064A8432126822F4F85201F00F0342EA8B
:106700004322024B84331A607047000014A80040F3
:106710000449096821F0FE4141EA0061014A116023
:106720007047000004A800400449096821F4706122
:1067300041EA0021014A11607047000094A800401E
:106740000449096821F07C5141EA0061014A116065
:106750007047000048A800400449096821F4F81176
:1067600041EA0041014A11607047000048A800401A
:106770000349096821F00F010143014A1160704784
:1067800094A800400349096821F003010143014A2C
:10679000116070473CA700400349096821F00301DC
:1067A0000143014A116070473CA60040024800685E
:1067B00000F007007047000048A4004006498969BE
:1067C00021F001010143044A91611146896921F0D8
:1067D000010101439161704700A0004001238B40FB
:1067E000C0F84033704701238B40C0F858337047DE
:1067F00001228A404FF44E731A50704770B5049CC2
:1068000001EB410505EBC10540F8352001EB4105E1
:1068100005EBC10500EBC505AB6001EB410505EBE0
:10682000C10500EBC505AD6925F44015254301EB15
:10683000410606EBC10600EBC606B56170BD01F16D
:106840000802012303FA02F24FF468731A507047EA
:1068500001EB410202EBC10200EBC202526C22F0DA
:10686000200201EB410303EBC10300EBC3035A64B5
:10687000704701EB410202EBC10200EBC2029269D8
:1068800022F0010201EB410303EBC10300EBC30360
:106890009A61704701F10802012393404FF4467258
:1068A0001350704701F10802012393404FF44C72DA
:1068B0001350704701F10802012303FA02F24FF46A
:1068C00044731A50704701EB410202EBC10200EB26
:1068D000C202526C22F0400201EB410303EBC10300
:1068E00000EBC3035A64704701F10802012393408F
:1068F00001228A4013444FF468721350704701EB31
:10690000410202EBC10200EBC202526C42F02002D3
:1069100001EB410303EBC10300EBC3035A6470476F
:1069200001EB410202EBC10200EBC202926922F0CC
:106930000102521C01EB410303EBC10300EBC30353
:106940009A61704701F108020123934001228A40B5
:1069500013444FF446721350704701F108020123AB
:10696000934001228A4013444FF44C7213507047F5
:1069700001F108020123934001228A4013444FF49D
:1069800044721350704701EB410202EBC10200EB6D
:10699000C202526C42F0400201EB410303EBC1031F
:1069A00000EBC3035A647047024601EB410000EB61
:1069B000C10002EBC000006C00F04040704702468E
:1069C0004FF46870805801238B40184008B10120B3
:1069D00070470020FCE710B501EB410303EBC10356
:1069E00000EBC303DB696FF30B03134301EB4104BB
:1069F00004EBC10400EBC404E36110BD10B501EB6E
:106A0000410303EBC10300EBC3039B6923F4605311
:106A1000134301EB410404EBC10400EBC404A36184
:106A200010BD10B501EB410303EBC10300EBC30341
:106A30001B6D62F31F5301EB410404EBC10400EB37
:106A4000C404236510BD10B501EB410303EBC10382
:106A500000EBC3031B6D6FF31303134301EB4104FE
:106A600004EBC10400EBC404236510BD10B501EBB9
:106A7000410303EBC10300EBC3039B6923F48023B1
:106A8000134301EB410404EBC10400EBC404A36114
:106A900010BD10B501EB410303EBC10300EBC303D1
:106AA0009B6A01EB410404EBC10400EBC404A26245
:106AB00010BD10B501EB410303EBC10300EBC303B1
:106AC0009B6B01EB410404EBC10400EBC404A26323
:106AD00010BD10B501EB410303EBC10300EBC30391
:106AE0009B6923F00063134301EB410404EBC104F1
:106AF00000EBC404A36110BD10B501EB410303EB2F
:106B0000C10300EBC3031B6903F00303134301EB51
:106B1000410404EBC10400EBC404236110BD10B5B3
:106B200001EB410303EBC10300EBC3039B6923F0BB
:106B30008053134301EB410404EBC10400EBC40494
:106B4000A36110BD10B501EB410303EBC10300EBE2
:106B5000C3039B6923F40033134301EB410404EBAB
:106B6000C10400EBC404A36110BD10B501EB4103E7
:106B700003EBC10300EBC3039B6C62F31F5301EBF8
:106B8000410404EBC10400EBC404A36410BD10B5C0
:106B900001EB410303EBC10300EBC3039B6C6FF3F9
:106BA0001303134301EB410404EBC10400EBC404E1
:106BB000A36410BD10B501EB410303EBC10300EB6F
:106BC000C3031B6A01EB410404EBC10400EBC404E2
:106BD000226210BD10B501EB410303EBC10300EBD2
:106BE000C3031B6B01EB410404EBC10400EBC404C1
:106BF000226310BD816370472DE9F04705460C46BE
:106C000000270026266838E096FAA6F0B0FA80F150
:106C1000012000FA01F7701E06402A463946E36853
:106C2000DFF8C8C191FAA1F9B9FA89F14FEA4179BF
:106C30004FEAD968DFF8B8914A4502D1C1F3C700DD
:106C40000BE0DFF8B0914A4506D14FF0020909EB9D
:106C5000D10909F0FF0000E004205CF820904FF01B
:106C60000F0A0AFA08FA29EA0A0903FA08FA49EAAD
:106C70000A094CF8209000BF00BF002EC4D128465E
:106C8000D4E9001200F0BAF8294622692068DFF83A
:106C900064C1614502D14FF0100C01E04FF0000CCF
:106CA00000FA0CF090FAA0FCBCFA8CF3DFF848C1B3
:106CB000614512D1DFF834C1ACF1300CDCF800C012
:106CC0002CEA000C02FA03F84CEA080CDFF81C81ED
:106CD000A8F13008C8F800C011E0DFF810C1ACF12D
:106CE000500CDCF800C02CEA000C02FA03F84CEA65
:106CF000080CDFF8F880A8F15008C8F800C000BF01
:106D000028466269216800F0F5F82946A2692068E2
:106D1000384B994201D1102300E000239840364BB4
:106D2000994212D1314B343B1B688343012A01D174
:106D3000844601E04FF0000C43EA0C03DFF8ACC0DE
:106D4000ACF1340CCCF8003011E0284B543B1B68FC
:106D50008343012A01D1844601E04FF0000C43EA4D
:106D60000C03DFF888C0ACF1540CCCF8003000BF45
:106D70002846A268216800F07BF82068686200BF9E
:106D8000606801282ED12068A86300BFE06906284A
:106D900020D2DFE800F01F09030F14192068686390
:106DA000A862686400BF16E020682863A86268646F
:106DB00000BF10E020682863E86200BF0BE0206895
:106DC0006863E86200BF06E020686863A862286420
:106DD00000BF00E000BF00BFE06918B12068286272
:106DE00000BF00BF0120BDE8F087000060EE00405A
:106DF000000001400010014000200140F0B58DB2BC
:106E0000184FB84201D1102700E00027B9400B46C7
:106E1000012A01D0032A01D11F4600E000273C4689
:106E2000022A01D0032A01D12F4600E000273E4666
:106E3000456106610C4FB84208D10C4F3F689F4333
:106E40002743DFF828C0CCF800700AE0074F203F46
:106E50003F689F432743DFF814C0ACF1200CCCF807
:106E60000070F0BD001001400020014028EE0040FD
:106E700010B51D4B984216D11C4B1B688B43012A41
:106E800001D10C4600E000242343184C2360231F4B
:106E90001B688B430AB9002400E00C462343134CC3
:106EA000241F23601EE0124B984201D1102300E002
:106EB000002399400D4B203B1B688B43012A01D1D5
:106EC0000C4600E000242343084C203C2360231F91
:106ED0001B688B430AB9002400E00C462343034C93
:106EE000243C236010BD00000020014024EE00403F
:106EF00000100140F0B503461B4EB34201D11026ED
:106F000000E00026B14091FAA1F6B6FA86F0C2F38D
:106F1000001402F00105154EB34211D1144E36682B
:106F20008E4304FA00F73E43114F3E603E1D366823
:106F30008E4305FA00F73E430D4F3F1D3E6012E0C1
:106F40000B4E203E36688E4304FA00F73E43084F4E
:106F5000203F3E603E1D36688E4305FA00F73E43F3
:106F6000034F1C3F3E60F0BD001001400020014077
:106F700034EE00400348006820F001000149086039
:106F80007047000000E500400348006840F0010041
:106F9000014908607047000000E5004003480068B0
:106FA00040F00100014908607047000014E500400E
:106FB0000348006840F00200014908607047000083
:106FC00014E500400349096821F0FF010143014A2B
:106FD0001160704720E50040034909686FF30B0119
:106FE0000143014A1160704704E500402DE9F04774
:106FF0000446002500220A6832E092FAA2F0B0FAB4
:1070000080F3012000FA03F5501E024028460B6968
:1070100090FAA0F7B7FA87F7BE00744F3F684FF0B9
:107020000F0C0CFA06FC27EA0C0703FA06FC47EAE9
:107030000C07DFF8B8C1CCF80070082B07D16C4FF3
:107040003F688743DFF8ACC1CCF8E07106E0684FD9
:107050003F680743DFF89CC1CCF8E07100BF00BF78
:10706000002ACAD14B69086890FAA0F7B7FA87F6E8
:107070005F4F083F3F6827EA006C03FA06F74CEAC7
:107080000767DFF870C1CCF8D87100BF8B6908685A
:1070900090FAA0F8B8FA88F6C3F3001703F0010CD1
:1070A000DFF85081D8F8DC8128EA000807FA06F9F1
:1070B00048EA0908DFF83C91C9F8DC81C846D8F8ED
:1070C000DC8128EA00290CFA06F849EA0828DFF8EA
:1070D0002491C9F8DC8100BFCB6908684FF47F06B2
:1070E00006EA00404E46D6F8D8618643012B01D10E
:1070F000074600E000273E433D4F083F3E6000BF8B
:107100000E7A06F0030308684FF07F4707EA00662F
:10711000012B08D1364F3F1F3F683743DFF8D4C0FB
:10712000CCF8DC7107E0324F3F1F3F68B743DFF810
:10713000C4C0CCF8DC7100BFD1E900304FF47F0946
:1071400009EA03464FF47F4909EA0327012801D0E1
:10715000032801D1B14601E04FF00009CC460228D6
:1071600001D0032801D1B94601E04FF00009C8461B
:10717000DFF88090D9F8D49129EA060949EA0C0988
:10718000DFF870A0CAF8D491D146D9F8D49129EA91
:10719000070949EA0809CAF8D49100BFCB68086812
:1071A0004FF47F4909EA0026C7B2012B01D1B1464D
:1071B00001E04FF00009CC4613B94FF0000900E0A0
:1071C000B946C846DFF82C90D9F8D89147EA060AA4
:1071D00029EA0A0948EA0C0A49EA0A09DFF814A070
:1071E000CAF8D89100BF0120BDE8F08778EE0040D2
:1071F000E0A1004000A00040C26B22F003020A435D
:10720000C26370470348006820F00100014908602C
:107210007047000000E400400348016821F00101CC
:1072200041F080710160704700A500400349096882
:1072300021F003010143014A116070473CA5004061
:107240000146012000BF0122C1F8882000BF70471D
:1072500042688A434260704742680A43426070470E
:107260000221C0F8881070470146486970472DE92F
:10727000F04104460D464FF00008D5E90221686848
:10728000E36823F03F0641EA020303431E43E6603E
:1072900000BFFBF795FA06462F68B6FBF7F1080921
:1072A000E16841F08001E160C1B22160C0F30721D3
:1072B0006160E16821F08001E160B6FBF7F101F067
:1072C0000F01C4F8C01000BF2869216921F0220114
:1072D0000143216100BF00BF0420C4F8880000BF43
:1072E00000BF0220C4F8880000BF00BF0120C4F81E
:1072F000980000BF00BFC4F8A00000BF0020C4F881
:107300009C0000BF4046BDE8F08101460868C0B25D
:107310007047C0F89C107047C0F8A010704701601B
:107320007047000070B504460D460748006928B153
:107330000548294602692046904770BD29462046E7
:10734000FDF7D8FFF9E700007069002070B504462A
:107350000D460748406928B105482946426920463C
:10736000904703E029462046FDF7D2FF70BD00009C
:107370007069002010B50548C06818B10349C86895
:10738000804710BDFDF7D2FFFBE7000070690020C9
:1073900070B504460D4616460748006830B10648E9
:1073A0003246294603682046984770BD3246294632
:1073B0002046FDF7CBFFF8E77069002010B50446C2
:1073C0000548806820B1044881682046884702E06B
:1073D0002046FDF7C9FF10BD706900202DE9F04778
:1073E0000446884615460026B1460027B24604F6F4
:1073F000FF70611EC1F30B01401A611988420AD265
:107400004FF0010A04F6FF70611EC1F30B01401A30
:10741000061BA5EB0609BAF1000F14D0324641460F
:107420002046FFF7B5FF074404F6FF72631EC3F35F
:107430000B03D21A02F1080008EB06014A46FFF7D7
:10744000A7FF074405E02A4641462046FFF7A0FF74
:107450000746B8B2BDE8F0872DE9F04104460F4673
:1074600015464FF00008206800F6FF702188491E7D
:10747000C1F30B01401A21682944884201D84FF01A
:1074800008082A463946206800F009F8064605EB48
:1074900008012068084420603046BDE8F0812DE9ED
:1074A000F0470446884615460026B1460027B246F6
:1074B00004F6FF70611EC1F30B01401A6119884286
:1074C0000AD24FF0010A04F6FF70611EC1F30B01EE
:1074D000401A061BA5EB0609BAF1000F14D032467C
:1074E0004146204600F01AF8074404F6FF72631E76
:1074F000C3F30B03D21A02F1080008EB06014A4657
:1075000000F00CF8074405E02A464146204600F00A
:1075100005F80746B8B2BDE8F087000070B504462C
:107520000D4616460748406830B10648324629469F
:1075300043682046984770BD324629462046FDF7ED
:1075400019FFF8E77069002010B501210020FEF74F
:107550009DF8012011F634FD01200849087001F062
:1075600013FC0446204601F075FA0549322001F06B
:10757000FDFA3220FBF7F1F910BD0000F45C0020A9
:10758000F321200010B52DED028B00BF1B480068D1
:10759000C0F30B00044600BF18480830006820F014
:1075A0007F4008EE100A601C00EE100AB8EE400A98
:1075B000DFED130A20EE200AF8EE480A80EE201ACA
:1075C000104880ED001A90ED000AF6EE000A30EE49
:1075D000200ABCEEC00A0C4880ED000A006801F0E9
:1075E000E3FB0A48006828B1064890ED000A074806
:1075F00000688047BDEC028B10BD000004E4004031
:107600000024F44BE45C00205C030020085D0020B3
:1076100010B502460B4601210C480078012813D111
:1076200001F064FF80B912F10A0F01DA042100E0D1
:10763000012100BF0648006820F0700040EA0110F8
:10764000034C206000BF00BF10BD0000235B002082
:1076500090A8004010B5FBF719FD002010BD10B533
:1076600000F0EAFD10B102F073FFFEE7BDE8104044
:10767000FAF7E6BC38B501F039FF30B140F22E41DF
:1076800040F24C4001F08AFC05E04FF47A7140F280
:107690002E4001F083FC0E48007878B10D48006858
:1076A000009001F095FC04460B480088009001F022
:1076B0008FFC0546214601F0ADFE05E04FF46671F2
:1076C0004FF47F7001F0A6FE044800F05FFC38BD67
:1076D000C85C0020C45C0020C65C0020905C0020D8
:1076E0007CB504460D460CB90F480468C4F30B0082
:1076F00008B107207CBD694601A8FFF727FE681C7A
:1077000004EB0031009800F50010814209D8681C94
:1077100001032046FFF706FE08B10020EAE710202B
:10772000E8E70720E6E70000145B00202DE9F04FB2
:1077300085B006460C4615466148406840B1604831
:107740002A46214643683046984705B0BDE8F08F89
:107750005C48007808B90320F7E73CB1208828B1DD
:1077600025B11EB14FF6FF70864201D10720ECE72C
:107770000227B4F800900020208004A93046FCF7CE
:1077800083FD8046B8F1000F2FD0BDF81000814571
:1077900029D308214046FCF7BBFF8246BDF81020E4
:1077A0002946FFF71BFE03901027082201A9404637
:1077B000FCF752F800900098082813D101A802F0B5
:1077C00093FE8246BAF1000F0BD0294601A802F0C1
:1077D00097FE8346BBF1000F02D00398208000275C
:1077E00000BF00BF02E0062700E00427042F65D198
:1077F0004FF0000A00200290039001906FF4404087
:10780000304410B1152856D13CE002A801F05CFAD2
:107810008246BAF1000F00D04EE09DF8080078B91A
:107820009DF8090060B99DF80A0048B99DF80B0061
:1078300030B99DF80C0018B99DF80D0000B93BE077
:107840009DF80800FF2814D19DF80900FF2810D1E9
:107850009DF80A00FF280CD19DF80B00FF2808D1E5
:107860009DF80C00FF2804D19DF80D00FF2800D1E1
:1078700022E002982860BDF80C00A8800620208035
:10788000002719E001A801F0F1F98246BAF1000FD2
:1078900000D011E0BDF8040028B1BDF804004FF697
:1078A000FF71884200D107E0BDF804002880022063
:1078B0002080002700E000BF00BF00BF384644E73B
:1078C00088690020205B00202DE9F0418CB005463E
:1078D0000C464248006838B14048214602682846B4
:1078E00090470CB0BDE8F0810CB90820F9E70AA96F
:1078F0000BA8FFF72BFD8DB1C5F30B0008B10920D4
:10790000EFE7601C05EB00310A9800F5001081429A
:1079100002D83348056009E00A20E2E70A9901F538
:107920000011601CA1EB00302D4908604FF4D071AC
:107930002C48FAF736FE00202B49087028480068CA
:1079400000EB0430294908600846006828490860AF
:10795000FFF710FD27490870082208A92048006891
:10796000FBF760FF0646082E1CD000BF11F654FF3F
:10797000074611F65DFF804602200721CDE9031876
:10798000CDE9050740F26110012103220023CDE972
:10799000002102901E22C90301203FF62FFF00BFE5
:1079A00010209EE70822144908A8FAF757FD38B1BD
:1079B0002046FEF7D7FA07460FB1384691E707E0B1
:1079C0002046FEF741FB07460FB1384689E700BF66
:1079D000012005490870002083E700008869002025
:1079E000145B00209C690020205B00201C5B0020B1
:1079F000185B0020215B0020C0B7200010B50121DA
:107A00000020FFF76DFE0121BDE810400020FFF7C8
:107A10005BBF00002DE9FF4706460C461746394874
:107A2000806840B137483A462146836830469847D7
:107A300004B0BDE8F0873448007808B90320F7E7C0
:107A40004FB144B140F6EC70844204D81EB14FF6F9
:107A5000FF70864201D10720EAE703A93046FCF710
:107A600013FC8046B8F1000F44D0082201A940461B
:107A7000FBF7F2FE01A802F037FD08B91020D7E7A6
:107A8000BDF80C00A04224D108214046FCF740FE7E
:107A900081463A462146FEF7EBFB48B10020082319
:107AA0001E221903009001203FF6A8FE002520E0C9
:107AB000002009231E224FF40041009001203FF6D0
:107AC0009DFE3B4622463146404600F0DFFB054620
:107AD0000FE000200A231E224FF4004100900120F5
