:020000040020DA
:102000000000042059202000612020000140100021
:10201000F3212000E9212000F92120000000000028
:10202000000000000000000000000000154010004B
:102030006B202000000000006D2020007120200097
:10204000DFF810D000F054FC00F070F800480047B2
:10205000B1C421000000042006488047064800471C
:10206000FEE7FEE7FEE7FEE7FEE7FEE7FEE7FEE748
:10207000FEE70000C1382000D1C421000649074A0C
:102080000868504343F23902104408604008704722
:102090000149086070470000046700206D4EC6418A
:1020A00010B5431A934209D28318881803E010F838
:1020B000011D03F8011D521EF9D210BD40EA0103B3
:1020C0009B0703D009E008C9121F08C0042AFAD2EE
:1020D00003E011F8013B00F8013B521EF9D210BD9C
:1020E000D2B201E000F8012B491EFBD2704700225A
:1020F000F6E710B513460A4604461946FFF7F0FF07
:10210000204610BD421C10F8011B0029FBD1801A8B
:10211000704730B504460020034600E05B1C934244
:1021200003D2E05CCD5C401BF8D030BD70B5054CEF
:10213000054D03E0206820448047241DAC42F9D1BE
:1021400070BD0000104B2200144B220030B4044636
:1021500096230800214604D0B62330BC002200F0AC
:10216000B0BA20460021F8E70EB5C10F80EAE07052
:102170000844CA07002140F233438DE80E000A46A6
:102180000B4600F0DBFA03B000BD0EB540F2334160
:1021900002910021CDE900110A460B4600F0CEFA6B
:1021A00003B000BD0EB540F2334202920022CDE9E9
:1021B0000022134600F0C2FA03B000BD20F0004038
:1021C000C20DC0F3160040F400007F2A02DA00209E
:1021D000014670470021962A03DCC2F19602D040E6
:1021E0007047963A00F033BAFEE710B509F074FD77
:1021F00010BDFEE702F7F7BBFEE7EFF31180704773
:1022000058585247010000002556000000202000C9
:10221000002020007EEE9247010100000000000037
:1022200000000000000000000000000000000000AE
:10223000000000000000000000000000000000009E
:102240002DE9FE4F804681EA0300C00F0C46009046
:1022500021F0004123F00045B8EB0200A94105D26E
:102260004046214690461C460B46024623F000405D
:10227000104347D0270DC7F30A00C3F30A51029059
:10228000401A019040286BDAC3F3130040F4801B1E
:102290000098924620B10023D2EB030A63EB0B0BAC
:1022A00001985946C0F14002504600F0D0F9064668
:1022B0000D4650465946019A00F0E8F910EB080027
:1022C0006141002487EA115284EAE7731A4340D03F
:1022D000009A62B3019A012A4FEA075215DC001BEB
:1022E00061EB02014FF0004202EA0752CDE90042E1
:1022F000001C41F5801132462B4600F01FFA03B056
:10230000BDE8F08F40462146F9E7001B61EB020172
:10231000001C41F5801300185B412018A2F500173E
:1023200047EB030140EAD570B6196D4111E06D0825
:102330004FEA360645EAC0754FEA0752001B61EBCB
:102340000201001C41F5801149084FEA30000019D4
:10235000514132462B4603B0BDE8F04F00F0DFB9E3
:102360000098012240000023D0EB020263EBE073EF
:10237000009821464FEAE074B8EB000061EB0401DD
:10238000E9E783F000435BE781F0004158E72DE97E
:10239000FE4F81EA030404F0004421F00041009460
:1023A0004FF0000B23F0004350EA01045ED052EAE4
:1023B00003045BD0C3F30A54C1F30A552C44A4F2BE
:1023C000F3340194A0FB0254C1F3130141F48011D2
:1023D000C3F3130343F4801301FB024400FB034ED9
:1023E000840A970A44EA815447EA8357A4FB0768A2
:1023F00002958D0A05FB07854FEA932C04FB0C54CC
:102400002705029D4FEA065847EA1637B5EB08053F
:102410006EEB070C870E920E47EA811742EA831291
:10242000A7FB0201B6EB0B0164EB00042B0D43EAA2
:102430000C335E1844EB1C50DA465146E7FB0201B0
:10244000C5F313044FEA0B3343EA14534FEA043243
:10245000019C43EA0603A4F10C040294009CCDE91C
:1024600000B400F06BF903B0BDE8F08F0020014626
:10247000F9E72DE9F04D81EA030404F0004B21F067
:10248000004514464FF0000A23F0004150EA0502CF
:1024900020D054EA01021DD0C5F30A570246C5F305
:1024A0001303C1F31300C1F30A5640F4801543F43B
:1024B0008013A7EB0608101BD64608F2FD3873EB15
:1024C000050002D308F1010801E092185B41B8F160
:1024D000000F03DA00200146BDE8F08D00204FF424
:1024E0008011064684460EE0171B73EB050705D3E3
:1024F000121B63EB050306434CEA010C49084FEA43
:10250000300092185B4150EA0107EDD152EA030016
:1025100012D082EA040083EA0501084305D0101BAB
:10252000AB4106D20122002306E000224FF0004317
:1025300002E06FF0010253101AEB06004CEB085159
:1025400010EB0A0041EB0B01BDE8F04D00F0E7B8DD
:1025500070B5C1F30A5201F000450024C1F3130124
:1025600040F2FF3341F480119A4201DA002070BD3D
:1025700040F233439A42A2F2334203DC524200F06B
:1025800075F800E090402C43F1D0404270BDC1F39B
:102590000A5210B5C1F3130140F2FF3341F4801128
:1025A0009A4201DA002010BD40F233439A42A2F26F
:1025B000334203DC524200F059F810BD904010BD88
:1025C00030B50B46014600202022012409E021FA03
:1025D00002F59D4205D303FA02F5491B04FA02F500
:1025E0002844151EA2F10102F1DC30BD2DE9F05F97
:1025F0000546002092469B46884606468146402472
:102600001BE0284641464746224600F02FF8534635
:102610005A46C01A914110D311461846224600F07E
:1026200016F82D1A67EB01084F46224601200021BB
:1026300000F00DF817EB00094E41201EA4F1010433
:10264000DFDC484631462A464346BDE8F09F202A53
:1026500004DB203A00FA02F1002070479140C2F1F9
:10266000200320FA03F3194390407047202A04DB2B
:10267000203A21FA02F00021704721FA02F3D040FB
:10268000C2F120029140084319467047202A06DB18
:10269000CB17203A41FA02F043EAE07306E041FA30
:1026A00002F3D040C2F1200291400843194670471E
:1026B0000029A8BF7047401C490008BF20F0010056
:1026C000704710B4B0FA80FC00FA0CF050EA010434
:1026D00004BF10BC704749B1CCF1200421FA04F4C6
:1026E00011FA0CF118BF012121430843A3EB0C019F
:1026F000CB1D4FEA00614FEA102042BF002010BC02
:10270000704700EBC35010440029A4BF10BC7047B1
:10271000401C490008BF20F0010010BC704710B5F4
:10272000141E73F1000408DA401C41F100019218F4
:102730005B411A4301D120F0010010BD2DE9F04D9D
:1027400092469B4611B1B1FA81F202E0B0FA80F2F2
:1027500020329046FFF77BFF04460F4640EA0A000E
:1027600041EA0B0153465A46084313D0114653EA37
:10277000010019D0C8F140025046FFF777FF054627
:102780000E46504659464246FFF761FF084305D0C2
:10279000012004E020463946BDE8F08D00200543C5
:1027A00046EAE0762C4337430A986305E40AA0EB37
:1027B00008000022FD0A44EA47540A3002D50020EE
:1027C0000146E9E7010510196941DDE908450019ED
:1027D0006941BDE8F04DA2E72DE9F041054621F041
:1027E00000400C46284309D0C4F30A5040F233415C
:1027F000884205DD28462146BDE8F0812846FBE7F2
:1028000040F2FE31884210DC0CDB4FEA043040EA33
:10281000155050EA053105D0104804F0004101433D
:102820000020E9E700200146E6E7A0F233404642F7
:10283000C6F1400228462146FFF709FF07468846B1
:10284000284621463246FFF711FF43463A46FFF736
:1028500066FF3246BDE8F041FFF7F9BE0000F03FE9
:10286000C1F30A52C1F3130140F2FF3341F4801166
:102870009A4202DA00200146704740F233439A42FE
:10288000A2F2334202DC5242FFF7F0BEFFF7DFBE96
:1028900030B5041E71F1000404DB4FF000444042E7
:1028A00064EB0101141E73F1000405DB1C464FF0BC
:1028B0000043524263EB04038B4208BF824230BDA7
:1028C00030B5041E71F1000404DB4FF000444042B7
:1028D00064EB0101141E73F1000405DB1C464FF08C
:1028E0000043524263EB0403994208BF904230BD5B
:1028F000064C074D06E0E06840F0010394E807004D
:1029000098471034AC42F6D3FFF79EFBD04A220022
:10291000104B220070B58C1810F8015B15F00703FE
:1029200001D110F8013B2A1106D110F8012B03E068
:1029300010F8016B01F8016B5B1EF9D12B0705D470
:102940000023521E0DD401F8013BFAE710F8013BB9
:10295000CB1A921C03E013F8015B01F8015B521ED5
:10296000F9D5A142D8D3002070BD70B5002308244A
:10297000002550F8242051F82460921945EB0506F3
:10298000D21846EB050303F001032B4301D00123CA
:1029900000E0002340F82420641E002CE9DA002126
:1029A00050F8212012B9491C0929F9DBC1F10901AC
:1029B000416270BDF0B500240825002650F825308E
:1029C00051F82570DB1946EB06071B1947EB060487
:1029D00004F00104344301D0012400E0002442F853
:1029E00025306D1E002DE9DA002052F8201011B9B3
:1029F000401C0928F9DBC0F1090151629662F0BD63
:102A000070B514462246FFF7D5FFA06A20B12046D4
:102A1000BDE8704000F026B8114D606A696A002672
:102A20000123884212D801D233460FE0C0F10901D8
:102A30000AE055F8212054F82100824201D933469A
:102A400004E003D301F101010929F2D3002B05D0E1
:102A50002046BDE87040024900F040BE70BD000055
:102A60003833220010B58CB0044601AA214607482D
:102A700000F06AFD01A924222046FFF711FB0A9805
:102A800060620020A0620CB010BD0000383322004C
:102A90002DE9F0418CB00746474CB86A4FF000086A
:102AA000002809D03A462346506A5D6A0121A842AF
:102AB00031D81FD241462EE04FF000004FF00802FF
:102AC000414657F8223054F8225088465B1941EBB2
:102AD00001061D184E4106F00100414658EA00006B
:102AE00001D0012000E0002047F82250521E002AA9
:102AF000E7DA3FE0C0F109000AE053F8205052F84D
:102B00002060B54201D9414605E004D300F101003F
:102B10000928F2D34146F1B100200822454654F875
:102B2000223057F822101E1845EB050C8E1B75EB52
:102B30000C0607D21844081A001C47F822004FF070
:102B4000010004E01844091A47F822100020521E20
:102B5000002AE4DA0EE001AA3946174800F0F4FC36
:102B600001A93C4624222046FFF79AFA0A9860629F
:102B7000C7F828800021002057F8202012EB080316
:102B800048EB010461084FEA330147F8201023F0B5
:102B90000101591A00F101000928EDD3002057F86E
:102BA000201011B9401C0928F9DBC0F10900786236
:102BB0000CB0BDE8F0810000383322001CB50324BE
:102BC00000BF27480068012121EA900078B900BFC2
:102BD00023480C30006800F0010040B100BF2048DD
:102BE0008C38006800F007002040A04200D01CBDD7
:102BF0000020009001F082FA00901A480068401C02
:102C00001849086064200AF6D7FB01A800F008FE06
:102C1000022000F00DFE32200AF6CEFB00BF124863
:102C2000006840F002001049086000BF0F49488961
:102C30000AF6C2FB00BF0C48006820F002000A49F7
:102C4000086000BF094988890AF6B6FB9DF80400B0
:102C500000F0EEFD009801F07AFF00BFC7E700002A
:102C6000D4A40040E45E002004A90040A65D00203A
:102C70002DE9F04FADF5377D82460D4614460AF139
:102C80002C0B0AF15800B6902F9005F12C00B5904E
:102C90002E902C30B4902D9024212046FFF727FA57
:102CA0004FF00008C4F82480C4F8288004F12C06F2
:102CB00024213046FFF71BFAC6F82480C6F8288086
:102CC00004F1580724213846FFF711FAC7F8248089
:102CD000C7F82880A9A82421FFF709FACDF8C882EF
:102CE000CDF8CC829EA82421FFF701FACDF89C8272
:102CF000CDF8A08293A82421FFF7F9F9CDF87082CE
:102D0000CDF8748288A82421FFF7F1F9CDF8448228
:102D1000CDF848827DA82421FFF7E9F9CDF8188283
:102D2000CDF81C8272A82421FFF7E1F9CDF8EC81DF
:102D3000CDF8F08167A82421FFF7D9F9CDF8C0813B
:102D4000CDF8C4815CA82421FFF7D1F9CDF8948196
:102D5000CDF8988151A82421FFF7C9F9CDF86881F1
:102D6000CDF86C8146A82421FFF7C1F9CDF83C814C
:102D7000CDF840813BA82421FFF7B9F9CDF81081A7
:102D8000CDF8148130A82421FFF7B1F9CDF8E48003
:102D9000CDF8E8805046E34919F036FCDFF884931B
:102DA00009F12C0809F1580948B94146584619F06B
:102DB0002BFC20B94946B69819F026FC40B10020FA
:102DC000002859D02846D74919F01EFC10B10BE055
:102DD0000120F5E74146B59819F016FC20B949469F
:102DE000B49819F011FC30B3002030B3CD4D24223B
:102DF00029462046FFF754F9686A6062A86AA06213
:102E0000242241463046FFF74BF9D8F8240070627F
:102E1000D8F82800B062242249463846FFF740F926
:102E2000D9F824007862D9F82800B86200200DF59E
:102E3000377DBDE8F08F0120D7E7242229462046C0
:102E4000FFF72EF9686A6062A86AA062B59C242226
:102E500021463046FFF724F9606A7062A06AB062CA
:102E6000B49C242221463846FFF71AF9606A78623A
:102E7000A06AB8620020DAE72846AA4919F0C4FB24
:102E800048B94146B59819F0BFFB20B94946B498F6
:102E900019F0BAFB18B3002018B32422514620467B
:102EA000FFF7FEF8DAF824006062DAF82800A06282
:102EB000242259463046FFF7F3F8DBF8240070620D
:102EC000DBF82800B062B69C242221463846FFF782
:102ED000E7F8606A7862A06AB8620020A7E701207C
:102EE000DAE75146284619F08FFB60BB5946B59882
:102EF00019F08AFB08B38B4D242229462046FFF7A0
:102F0000CFF8686A6062A86AA0622422414630460F
:102F1000FFF7C6F8D8F824007062D8F82800B0622D
:102F2000242249463846FFF7BBF8D9F824007862D6
:102F3000D9F82800B862002079E7286D012802D866
:102F4000E86C00287DD0DDE92E01A9AA00F018FA6E
:102F50009EAA58462D9900F013FA93AA28462F9955
:102F600000F00EFA88AA50462D9900F009FA88A9B7
:102F700093A819F049FB00287ED07DAA9EA9A9A894
:102F800000F010FB72AA88A993A800F00BFB5CAAC2
:102F90002D992F9800F0F4F922A82421FFF7A7F823
:102FA00000252B952C9517A82421FFF7A0F8209534
:102FB00021950CA82421FFF79AF81595169501A8DC
:102FC0002421FFF794F80A950B9551AA72A972A8CB
:102FD00000F0D6F946AA72A951A800F0D1F93BAA8F
:102FE0007DA97DA800F0CCF930AA88A951A800F0ED
:102FF000C7F901AA022130A800F0A2F917AA5CA91A
:103000003BA800F0BDF90CAA46A917A800F0CAFA1F
:1030100067AA01A90CA800F0C5FA224667A972A800
:1030200000F0AEF922A82421FFF761F82B952C952A
:1030300017A82421FFF75BF8209521950CA82421DF
:1030400000E020E0FFF753F81595169522AA67A92E
:1030500030A800F0A7FA17AA22A97DA800F090F9DD
:103060000CAA9EA946A800F08BF932460CA917A815
:1030700000F098FA3A4600E027E05CA946A800F084
:103080007FF90120D3E6274D242229462046FFF769
:1030900007F8686A6062A86AA06224224146304646
:1030A000FEF7FEFFD8F824007062D8F82800B0625E
:1030B000242249463846FEF7F3FFD9F82400786207
:1030C000D9F82800B8620020B1E69EA9A9A819F095
:1030D0009BFA08B3134D242229462046FEF7E0FF51
:1030E000686A6062A86AA062242241463046FEF700
:1030F000D7FFD8F824007062D8F82800B0622422E4
:1031000049463846FEF7CCFFD9F824007862D9F852
:103110002800B86200208AE62146504600F004F8F4
:10312000002084E6B43322002DE9F04FF9B00C46BC
:10313000824600F12C0500F1580B594F696A07F1DE
:103140002C06583704F12C0804F15809012901D83C
:10315000296A79B1524919F057FA48B931462846D7
:1031600019F052FA20B93946584619F04DFA28B3E9
:10317000002028B34A4D242229462046FEF790FF1E
:10318000686A6062A86AA062242231464046FEF75F
:1031900087FF706AC8F82400B06AC8F828002422A3
:1031A00039464846FEF77CFF786AC9F82400B86AB9
:1031B000C9F82800002079B0BDE8F08F0120D8E7D9
:1031C00037AA59465046FFF71BFC2CAA59465046D1
:1031D00000F0E8F921AA2CA937A800F0D1F86EAACE
:1031E000032121A800F0ACF863AA5946284600F054
:1031F000C7F837AA63A9284600F0C2F858AA37A929
:10320000504600F0BDF837AA6EA96EA800F0B8F8D5
:103210002CAA082158A800F093F84DAA2CA937A889
:1032200000F0C0F937AA63A94DA800F0A9F822461A
:10323000022137A800F084F837AA2946284600F072
:103240009FF842AA63A963A800F09AF82CAA42A9A1
:1032500037A800F095F821AA08212CA800F070F8F2
:1032600016AA042158A800F06BF80BAA4DA916A8BD
:1032700000F098F96A460BA96EA800F081F8424662
:1032800021A9684600F08EF937AA63A942A800F088
:1032900077F84A46082137A800F052F800208AE75C
:1032A000B43322002DE9F0478CB00546884691469C
:1032B000DFF854A0154E10279AF81730FF2B06D0D0
:1032C000706ED90007FA01F4A0432043706601A98B
:1032D00005F1580003F0CAFD9AF81730FF2B04D00F
:1032E000706ED9008F40B8437066424601A92846E7
:1032F00000F046F84A4601A905F12C0000F040F81C
:103300000CB0BDE8F0870000080E002000000E4061
:103310000748006800F0100008B1064870470648EA
:103320000068C0F30240054951F82000F6E70000AC
:1033300084E30040006CDC0200A000403832220030
:10334000F0B40646104600230825002256F82570E2
:103350001446E7FB013440F8253023466D1E002D4E
:10336000F4DA002150F8212012B9491C0929F9DBAF
:10337000C1F109024262B16A8162F0BC1DF03EB93E
:103380002DE9F04F9FB005460E4693460BAC482101
:103390000BA8FEF7ACFE4FF00009CDF87490CDF805
:1033A0007890082300210822D7187F1C55F8238025
:1033B00054F8270056F822A0401849EB090CE8FB06
:1033C0000A0C614644F82700521E002AECDA5B1E04
:1033D000002BE7DA0BA9002051F8202012B9401C7D
:1033E0001228F9DBC0F112008864A86AB16A884229
:1033F00001D0012000E000201E9000240BAD00E071
:10340000641C55F8240008B9092CF9D31E980A90B9
:1034100034490BAA1D988E6C0123B04201D99946FC
:1034200019E018D3C0F1120012E051F8206052F8F0
:103430002070BE420BD051F8201052F8200081427B
:1034400002D24FF0010906E04FF0000903E0401CF2
:103450001228EADB9946B9F1000F01D104E0641C9F
:1034600055F824000028FAD005EB84012422684690
:10347000FEF716FE6946002051F8202012B9401CC4
:103480000928F9DBC0F10900486216E068461DF022
:10349000B5F868462022011DFEF702FE55F8260009
:1034A0000890641C6946002051F8202012B9401C85
:1034B0000928F9DBC0F10900486204F10900064659
:1034C0001228E3D368461DF099F869465C46242229
:1034D0002046FEF7E5FD099860620A98A0621FB0D9
:1034E000BDE8F08F6433220010B54342421E0A60EB
:1034F0004B6088600020C86008614A61441E8C618E
:10350000CC610B628862002A02D00920486210BD9B
:103510000820486210BD0000052800DB70470949FB
:10352000096801F4E021B1EB004F08D0054A1268A8
:1035300022F4E02141EA0042024B1A6000BF00BFC2
:10354000ECE7000000A000402DE9F0410024082332
:10355000002751F8236050F8235016EB040C47EB7A
:103560000708B5EB0C0C77EB080C07D234442C1B86
:10357000241C42F823404FF0010404E034442D1B86
:1035800042F8235000245B1E002BE2DA002052F8A0
:10359000201011B9401C0928F9DBC0F10900506264
:1035A000BDE8F0812DE9F04103460E461446996AC4
:1035B00000270125B06A002906D088B3706A596ACD
:1035C00088423CD9284650E030B122463146184660
:1035D000FFF7F0F9A76256E0586A716A884201D98C
:1035E000284615E001D2384612E0C0F109000CE08F
:1035F00056F8202053F820108A4201D9384607E0B7
:1036000001D2284604E000F101000928F0D3284641
:1036100038B1224631461846FFF796FFA76232E0DE
:1036200006E0224619463046FFF78EFFA5622AE0E3
:10363000224631461846FFF7BDF9A56223E001D2C4
:10364000384612E0C0F109000CE053F8202056F88B
:1036500020108A4201D9384607E001D2284604E00A
:1036600000F101000928F0D3284630B1224619465E
:103670003046FFF769FFA76205E02246314618464B
:10368000FFF762FFA562A06A20B12046BDE8F041C5
:10369000FFF7E8B91049606A4A6A904212D801D22D
:1036A0003D460FE0C0F109000AE051F8203054F81F
:1036B0002020934201D93D4604E003D300F10100EC
:1036C0000928F2D3002D05D02046BDE8F04102497B
:1036D00000F004B8BDE8F08138332200F0B50023D3
:1036E0000822002651F8225050F82240EF1846EBED
:1036F000060CE71B76EB0C0707D22B44E31A1B1CC6
:1037000040F822304FF0010304E02B44E41A40F863
:1037100022400023521E002AE4DA002150F8212022
:1037200012B9491C0929F9DBC1F109014162F0BD57
:1037300070B58CB004460B46A16A01260025986A34
:10374000002907D0E8B3586A616A884251D840D24C
:103750002E464EE030B10CB02046BDE87040194610
:10376000FFF703B9606A596A884201D9354611E00A
:1037700010D3C0F109000AE053F8202054F82010BB
:103780008A4207D801D2354604E000F10100092839
:10379000F2D3354635B10CB02046BDE8704019462D
:1037A000FFF79CBF01AA21461846FFF7CDFE01A9ED
:1037B00024222046FEF774FC0A986062A6620CB0D0
:1037C00070BDFFE70CB02046BDE870401946FFF71A
:1037D000CCB8C0F109000AE054F8202053F82010BA
:1037E0008A4201D92E4604E003D300F101000928E2
:1037F000F2D36EB101AA21461846FFF7A5FE01A932
:1038000024222046FEF74CFC0A986062A562D6E7A7
:103810000CB02046BDE870401946FFF75FBF0000BE
:103820000249096801F007010170704700A00040DB
:1038300010B500220021072800DB10BD144B1B68C7
:1038400003F0070383421BD0114B1B6823F00702D0
:1038500042F003030E4C23602346DB6823F007018C
:1038600041F00103E36000BF00BF00BF00BF42EAB8
:103870000003074C2360074B53F820300B43E360F1
:10388000054B53F82030054C236000BFD5E70000FE
:1038900000A000401C3222000032220048590020C3
:1038A0000448006800F00700034951F8200003496C
:1038B0000860704700A000400032220048590020F4
:1038C0000248016841F470010160704788ED00E032
:1038D00002480068001D12F043BC0000206E00206A
:1038E00002484068001D12F03BBC0000206E002022
:1038F00002488068001D12F033BC0000206E0020DA
:103900000248C068001D12F02BBC0000206E002091
:103910000FB4054B10B503A9044A029800F080FDCE
:1039200010BC5DF814FB0000ADD9200070590020D8
:103930000FB41CB50246002007AC00290BD0491E6D
:10394000CDE90021054B6A462146069800F068FD46
:10395000009A002111701CBC5DF814FB5B4B200029
:103960000FB4084B10B504A902AA039800F058FD43
:10397000044602A9002001F0FBF8204610BC5DF8C7
:1039800014FB0000714B20007CB5044600201D464E
:10399000164600290BD0491ECDE90041044B6A466A
:1039A0002946304600F03CFD009A002111707CBD94
:1039B0005B4B2000002809DB00F01F020121914031
:1039C0004009800000F1E020C0F88012704700003C
:1039D000002807DB00F01F0201219140024A430941
:1039E00042F823107047000080E200E0002807DB67
:1039F00000F01F0201219140024A430942F82310BE
:103A00007047000080E200E000280DDB00BF00BF2F
:103A100000F01F02012191404209920002F1E022D0
:103A2000C2F8001100BF00BF704700280DDB00BFC7
:103A300000BF00F01F02012191404209920002F1F3
:103A4000E022C2F8001100BF00BF7047002804DB6D
:103A500000F1E02090F80004704700F00F0000F142
:103A6000E02090F8140D7047002804DB00F1E020FE
:103A700090F80004704700F00F0000F1E02090F88B
:103A8000140D70470146002902DB0448405C704772
:103A9000034801F00F02121F805CF8E700E400E029
:103AA00018ED00E00146002902DB0448405C704745
:103AB000034801F00F02121F805CF8E700E400E009
:103AC00018ED00E00146002902DB0448405C704725
:103AD000034801F00F02121F805CF8E700E400E0E9
:103AE00018ED00E00146002902DB0448405C704705
:103AF000034801F00F02121F805CF8E700E400E0C9
:103B000018ED00E00146002902DB0448405C7047E4
:103B1000034801F00F02121F805CF8E700E400E0A8
:103B200018ED00E00146002902DB0448405C7047C4
:103B3000034801F00F02121F805CF8E700E400E088
:103B400018ED00E00146002902DB0448405C7047A4
:103B5000034801F00F02121F805CF8E700E400E068
:103B600018ED00E00146002902DB0448405C704784
:103B7000034801F00F02121F805CF8E700E400E048
:103B800018ED00E002480068C0F302207047000012
:103B90000CED00E002480068C0F30220704700000E
:103BA0000CED00E002480068C0F3022070470000FE
:103BB0000CED00E002480068C0F3022070470000EE
:103BC0000CED00E002480068C0F3022070470000DE
:103BD0000CED00E002480068C0F3022070470000CE
:103BE0000CED00E002480068C0F3022070470000BE
:103BF0000CED00E002480068C0F3022070470000AE
:103C00000CED00E002480068C0F30220704700009D
:103C10000CED00E0002807DB00F01F0201219140BD
:103C2000024A430942F823107047000000E200E016
:103C3000EFF311807047EFF311807047EFF31180BD
:103C40007047EFF311807047EFF311807047EFF387
:103C500011807047EFF310807047EFF310807047CA
:103C6000EFF310807047000010B52DED020B2DED25
:103C7000088B84B09DED0C0B51EC100BFEF7ACFDE6
:103C800041EC180B9DED0C0B53EC182B51EC100B69
:103C9000FEF777FB41EC190B0D989FED290B10F007
:103CA000004F53EC102B51EC190B9FED21AB9FED06
:103CB00022BB0ED0FEF7ECFD0ED953EC1B2B51ECC2
:103CC000190BFEF7FDFD1CD214E000BF41EC180BF0
:103CD00017E0FEF7DDFD06D253EC1A2B51EC180B62
:103CE000FEF74FFBF2E753EC1B2B51EC190BFEF7E1
:103CF000E7FD06D853EC1A2B51EC180BFEF7A0FA8F
:103D0000E4E78DED028B9DED0C0B18EE901A10EE92
:103D1000900A8DED000B61F31E0003909DED020BE8
:103D200004B0BDEC088B02B010BD00000000000024
:103D3000000000000000F03F000000000000E03F35
:103D4000000000000000E0BF02E008C8121F08C128
:103D5000002AFAD170477047002001E001C1121F0C
:103D6000002AFBD17047C1B281F311887047C1B2FC
:103D700081F311887047C1B281F311887047C1B2D5
:103D800081F311887047C1B281F311887047C1B2C5
:103D900081F311887047C1B281F311887047C1B2B5
:103DA00081F311887047C1B281F311887047C1B2A5
:103DB00081F31188704780F31088704780F3108872
:103DC000704780F31088704780F31088704780F345
:103DD000108870472DE9F74F0446904600BF4FEA20
:103DE0005806019D4FF0000B7448754908603F204C
:103DF0007449496860F30501724A516000BF00BF11
:103E00001046406820F480301146486000BF00BF73
:103E10006B48006820F4700040EA0450684908606C
:103E200000BF00BF0846006820F4702040EA04404C
:103E3000086000BF0D2C07D100BF0846006840F4A1
:103E40000040086000BF00BF0E2C08D100BF5C48D6
:103E5000006840F480405A49086000BF00BF4FF43A
:103E600000505749096821F400510143544A116038
:103E700000BF00201146096821F060510143116024
:103E800000BF04201146096821F00F0101431160B1
:103E900000BF002000F006F9012801D0BDE8FE8F28
:103EA00000BF4748006840F080404549086000BFB7
:103EB0004FF0000A0DE000BF4248806840F48030B7
:103EC0004049886000BF0AF101008246401C00B9E9
:103ED00003E015F071FE0028EDD100BF072000F0CF
:103EE000E1F8012800D0D9E754E04FF0000B2CE0B6
:103EF000BBF57A7F24D900BF3148006820F08040AC
:103F00002F49086000BF00BF0846006840F000402D
:103F1000086000BF00BF0846006820F0004008604D
:103F200000BF002000F0BEF8012800D0B6E7264808
:103F30000068401C24490860052009F63DFA4EE758
:103F4000012009F639FA0BF1010B15F035FE0128B5
:103F5000CED100BF1B48806800F07F008146B1458C
:103F600001D9304600E0484681464FF0000A0DE096
:103F700000BF1448076800BF25F8027B4FF6FF70AA
:103F800000EA174025F8020B0AF1010ACA45EFD3EF
:103F9000A6EB0906002EA8D15EB908F0010040B1D9
:103FA00000BF15F009FE0128FBD100BF05480068DD
:103FB0002880002000F076F800BF6FE70A070807A6
:103FC00000A8004000E00040F05E002010B504466C
:103FD00000BF00201A49086000BF00BF184980399F
:103FE000086000BF00BF1748406A174908600846CC
:103FF000007800F0010020B10846008800F48070CD
:1040000098B906E00CB9002010BD641E012009F625
:10401000D3F900BF0B48806940F20111884201D1F9
:10402000012000E000200028ECD008480068084982
:10403000086004484068074908600120E4E7000080
:1040400094D41D4200E000404C5F002000A80040D6
:10405000445F0020485F00200D4800680D4948601B
:104060000D4800680D4908600D48007800F0010017
:1040700020B10B48008800F4807040B900BF0548AB
:10408000006A20F001000349086200BF00BF7047CA
:10409000485F002000E00040445F002000A800408E
:1040A0004C5F002070B5044615F07EFDA04201D1A2
:1040B000012070BD00BF1048C06820F007002043F9
:1040C0000D49C86000BF002508E015F06DFDA04255
:1040D00000D107E0012009F66FF96D1C4FF6FF7063
:1040E0008542F2D300BF4FF6FF70854201D1002018
:1040F000DFE70120DDE7000000E0004010B500BF71
:10410000EFF3108004460120FFF758FE204610BD53
:104110002DE9FF5F82B00021DDE90430020DDDF8FA
:1041200040B0034318D044F61050A2F2FF3242438D
:104130001514119801281FD0A5EB0B00401C5FEA55
:10414000000A4FF000064E4FDFF83891B046504657
:1041500015D5CAF1000413E0119801244AA30128DF
:1041600001D16FEA0B010298119AC0E90031C0E950
:10417000024206B0BDE8F09FCBF10000DFE7044645
:104180000021404A491842EB0450CDE9001012E0EA
:10419000E00707D032463B4640464946FEF7F7F86F
:1041A0008046894632463B4610461946FEF7EFF8F0
:1041B00006460F466410002CEAD1DDE90401DDE972
:1041C0000023BAF1000F06DAFEF7E1F842464B464B
:1041D000FEF7DDF805E0FEF74CF942464B46FEF7E8
:1041E00048F904460E460022284BFEF769FB03D827
:1041F0004FF0FF30014607E00022254B20463146B4
:10420000FEF71EF8FEF72CFB102409E0002C0ADB59
:104210000A220023FEF7EAF9039B30321A55641E86
:1042200050EA0102F2D1641C039AC4F11103144450
:10423000119A012A03D0012208430DD10AE0084354
:1042400004D000204FF0110B119072E7A3EB0B0587
:104250006D1E0DE05B4504DD4FF0000205F1010528
:1042600004E003DA4FF00002A5F10105002AECD0CA
:1042700002981199C0E90231C0E9004579E70000D0
:10428000000014400000F03F300000000000F04348
:104290000000E03F70B52DED108B8AB005460C464E
:1042A0009FED510B8DED080B20216846FDF71FFF98
:1042B0009FED4D0BB0EE408AF0EE608A1022694609
:1042C0002846FFF787FD00260FE006F108013DF8BC
:1042D0001100FDF75AFF41EC190B53EC182BFDF7B9
:1042E000AFFF41EC180B701CC6B2082EEDDB9FED42
:1042F000400B53EC102B51EC180BFEF7BAF841ECC5
:10430000180B0D2D41D1E08AFDF73FFF41EC1B0B4F
:104310009FED390B53EC102BFEF7ABF841EC190B6A
:104320006088FDF732FF41EC1F0B9FED350B53EC1E
:10433000102BFEF72CF841EC1E0B9FED330B53ECCA
:10434000102BFEF724F841EC1C0BA08AFDF71DFF93
:1043500041EC1E0B53EC182BFEF716F841EC1D0B2D
:1043600053EC1C2BFEF785F841EC1B0B9FED280B43
:1043700053EC102BFEF77DF841EC1A0B53EC192B84
:10438000FDF75EFFCDE9080127E00E2D25D16088FD
:10439000FDF7FBFE41EC1C0B9FED190B53EC102BB2
:1043A000FDF7F5FF41EC1A0B2088FDF7EEFE41EC1E
:1043B0001C0B53EC182BFDF7E7FF41EC1B0B53ECE8
:1043C0001A2BFEF756F841EC190B9FED130B53EC2B
:1043D000102BFDF7DCFFCDE908019DED080B0AB0BD
:1043E000BDEC108B70BD000000000000000000005C
:1043F00000000000000020400000000000005940C4
:10440000000000000000F0BF0000000000000040BD
:1044100079E9263108AC5CBFB76DDBB66DDB0E40C9
:104420002DE9FF4F95B09B468946064600250FE2D1
:10443000252877D100242746F84A0121059400E079
:10444000044316F8013F203B01FA03F01042F7D174
:1044500030782A2811D06FF02F033078A0F1300285
:10446000092A16D8059A44F0020402EB820203EBF3
:1044700042021044761C0590EFE759F8042B059290
:10448000002A03DA504244F40054059044F0020438
:10449000761C30782E2816D116F8010F44F004044B
:1044A0002A280DD06FF02F023078A0F13003092BAD
:1044B00009D807EB870302EB4303C718761CF3E721
:1044C00059F8047B761C30786C280FD006DC4C2819
:1044D00017D068280DD06A2814D104E0742810D0B1
:1044E0007A280FD10DE044F400140AE044F480145B
:1044F00001E044F440147278824202D104F5801441
:10450000761C761C307866280BD013DC582877D0C0
:1045100009DC002875D04528F6D04628F4D0472875
:104520001AD19DE118E0632835D0642879D0652838
:1045300012D195E1702873D008DC6728F1D0692882
:104540006FD06E280DD06F2806D1B5E073282CD01F
:10455000752875D0782874D05A46179990476D1CE5
:1045600075E1C4F30250022809D003280DD0D9F810
:10457000001004280DD00D6009F1040967E1D9F895
:104580000010EA17C1E90052F6E7D9F800100D80D3
:10459000F2E70D70F0E719F8041B8DF80010002009
:1045A0008DF80100EA46012003E059F804AB4FF012
:1045B000FF3061074FF0000102D40DE008F1010166
:1045C0008846B9420FDA8045F8DB1AF8081000294E
:1045D000F4D108E008F1010188468142FADB1AF8BB
:1045E00008100029F6D105985B46A0EB0807214684
:1045F0003846179A00F094FA284400EB080507E0C3
:104600004DE029E10DE01AF8010B5A461799904741
:10461000B8F10108F7D25B4621463846179A13E1F4
:1046200042E00A220092C4F302524FF0000A022A2A
:1046300008D059F804CB032A4FEAEC710AD00DE0F8
:1046400029E02AE009F1070121F00702F2E802C19E
:10465000914609E00FFA8CFC4FEAEC71042A03D171
:104660004FFA8CFC4FEAEC71002907DA0A46002168
:10467000DCF1000C61EB02012D2202E0220504D5E1
:104680002B228DF80420012203E0E20701D0202232
:10469000F7E7904659E00A2102E010220DE01021D0
:1046A0004FF0000A00910BE010224FF0000A44F096
:1046B00004040827009203E008224FF0000A009249
:1046C000C4F30252022A05D059F804CB0021032A70
:1046D00008D009E009F1070121F00702F2E802C160
:1046E000914605E01FFA8CFC042A01D10CF0FF0C66
:1046F0004FF00008220728D5702806D0009B83F0D1
:10470000100353EA0A0305D00EE040228DF804207E
:10471000012208E05CEA010206D030228DF8042074
:104720008DF8050002229046009B83F0080353EAAF
:104730000A030AD15CEA010201D1620705D53022E1
:104740008DF804204FF001087F1E582804D034A0B3
:1047500003900EA802900DE036A0F9E7534660469C
:10476000009AFDF743FF84460398825C0298401E3E
:10477000029002705CEA0100F0D1029806A9081AC2
:1047800000F1200A600702D524F4803400E00127FC
:10479000574502DDA7EB0A0000E0002000EB0A010C
:1047A000009005984144401A0590E00306D45B460A
:1047B0002146179A059800F0B3F90544002706E052
:1047C00001A85A46C05D179990476D1C7F1C47454C
:1047D000F6DBE0030CD55B462146179A059800F0FE
:1047E0009FF9054404E030205A46179990476D1C04
:1047F0000099481E00900029F5DC08E00298029913
:104800005A460078491C0291179990476D1CBAF1DD
:104810000001AAF1010AF1DC65E1000009280100AC
:104820003031323334353637383961626364656626
:1048300000000000303132333435363738394142E8
:10484000434445460000000000F058F90544761C3A
:10485000307800287FF4ECAD19B02846BDE8F08F21
:10486000620700D4062709F1070222F0070CFCE8D2
:104870000223E14603F000485FEA080C02D00FF281
:10488000702C0DE05FEA045C02D50FF2682C07E0A3
:104890005FEAC47C02D00FF2602C01E0AFF2700C32
:1048A0004FF0FF3823F00043CDF850C065280CD0FE
:1048B00006DC452809D046281DD047283DD13DE0DB
:1048C000662818D067287ED138E00021112F01DB3F
:1048D000112000E0781CCDE9000106A90EA8FFF721
:1048E00017FCDDE90F010E9A03910021009207F1F8
:1048F000010A04914DE04FF000400097CDE901100E
:1049000006A90EA8FFF704FCDDE90F0203920E9B37
:1049100011990022DDF80CA00093049211B9791CC2
:1049200000EB010AB7EB0A0004D4C0F1FF3007F135
:10493000010A0490AAEB0700019044E0012F00DA7D
:1049400001270021112F01DD112000E03846CDE9BB
:10495000000106A90EA8FFF7DBFBDDE90F010E9AA7
:104960000391002104910092BA4621070CD40399C7
:10497000514500DA8A46BAF1010F05DD009AAAF125
:104980000101515C302908D0B84202DA10F1040F5D
:1049900006DA0121CDE9011015E0AAF10101E9E7EC
:1049A000002805DC049901440491AAEB000102E00F
:1049B000411C514500DD8A460499401A401C019073
:1049C0004FF000400290200704D40198504501DBCD
:1049D000CDF8048000208DF84F0002980DF14F07AC
:1049E000B0F1004F25D02B200E9002984FF0020816
:1049F00000280CDA404202902D200E9007E00A2198
:104A00000298FDF7DDFD3031029007F8011DB8F185
:104A10000001A8F10108F2DC02980028EFD1791E0C
:104A20000E980870307800F0200040F0450007F83C
:104A3000020D12A8C01B00F107081498007800B1FD
:104A4000012000EB0A01019801EBE0710598414457
:104A5000401A401E0590E00306D45B462146179A93
:104A6000059800F05DF805441498007818B15A468E
:104A7000179990476D1CE00324D55B462146179A91
:104A8000059800F04DF805441CE00498002807DB69
:104A9000DDE90301884203DD0098405C179901E0DD
:104AA000179930205A469047049805F10105401C9B
:104AB00004900198401E019004D12E205A46179967
:104AC00090476D1CBAF10001AAF1010ADDDC05E096
:104AD00017F8010B5A46179990476D1CB8F1000161
:104AE000A8F10108F4DC5B462146179A0598ABE66D
:104AF0002D0000002B000000200000002DE9F041F7
:104B0000044600251E461746880404D405E03946AD
:104B10002020B0476D1C641EF9D52846BDE8F08101
:104B20002DE9F041044600251E469046C80301D5F4
:104B3000302700E02027880404D505E041463846A8
:104B4000B0476D1C641EF9D52846BDE8F08110B54C
:104B500004462046FFF732F910BD4A68002A06D005
:104B60000A68531C0B6010704868401E486070470C
:104B70000A68531C0B601070704710B5044620463D
:104B800012F060FB10BD10B50446204618F0EAFB99
:104B900010BD70B504460D46294620461CF0DEFFC8
:104BA0002946204617F062FC70BD000008480068E6
:104BB00040F00100064908600648074908600748B8
:104BC0004860074888600749074841677047000008
:104BD0008C600020EDE320002CBE002045E3200087
:104BE000BDD92000810A2100585B00202DE9F04149
:104BF00016461D46DDE90623074688460D497C20FA
:104C000000F62EFC044684F838502022414604F178
:104C10003900FDF745FA2022394604F15900FDF725
:104C20003FFA04F1380231462046BDE8F041412305
:104C300000F6F0BE394C200000F64ABE2DE9F047E0
:104C40001D46DDE9086A0A9B814688461746002210
:104C50001A49A42000F604FC044600213D3484F8DF
:104C6000641044F805ACE173012020743068C4F886
:104C70001100B088A4F81500B079E0752868A0612B
:104C8000A888A083A879A0773D3C1022394604F17A
:104C90005C00FDF705FA1022414604F16C00FDF7B7
:104CA000FFF907480068E0674A462046BDE8F0473C
:104CB00003492023091D00F6ADBE0000C54C2000AD
:104CC000983E22002DE9F04704468A464FF000083E
:104CD0005146204600F6FCFDF8B194F8A1004FF0D3
:104CE000010904F14C0704F13C0530B104F18106DF
:104CF000012813D002282FD121E010225146284646
:104D0000FDF7CEF9002084F8800084F8A1903523C7
:104D10003A462946204600F67DFE1DE01022514607
:104D20003046FDF7BDF984F88090022084F8A10098
:104D300035233A462946204600F66CFE0CE0102248
:104D4000514604F19100FDF7ABF9A36B3146002009
:104D5000626998474FF001084046BDE8F0870000BF
:104D60002DE9F05F1546DDE90B9A1E46DDF8288037
:104D7000DDE90D2383460F461D497C2000F670FBBC
:104D800004461022394604F16900FDF789F9102222
:104D9000294604F15900FDF783F91022314604F148
:104DA0004900FDF77DF93834B8F80000E08198F843
:104DB00002002074D9F80000C4F80700B9F8040014
:104DC000A4F80B0099F806006073DAF80000206080
:104DD000BAF80400A0809AF80600A071383C04F1EB
:104DE000380259462046BDE8F05F412300F612BE66
:104DF000F54D200000F66CBD2DE9F04115461E462C
:104E0000DDE9062380460F460F49882000F628FB7F
:104E100004462022414604F16800FDF741F92022B2
:104E2000394604F14800FDF73BF9314604F13800FA
:104E300010220646FDF734F9324629462046BDE8E1
:104E4000F041502300F6E6BD4D4E200000F640BD77
:104E50007FB58DF8000000238DF80130164A888850
:104E60009488A04218D104208DF801008868019030
:104E70004888ADF8080093820020012508E08B687F
:104E8000948A1E5C05FA06F31C439482401C80B28F
:104E90004B888342F3D80BE01289904208D1072057
:104EA0008DF801004B88886801AA194600F088F83F
:104EB000684600F02BF97FBDC47900201FB58DF83E
:104EC000000000238DF80130002914D151680A4BED
:104ED00009889B8999420BD18DF800000A208DF832
:104EE000010050688068019050688088ADF8080023
:104EF000684600F00BF91FBDC47900201FB58DF87E
:104F0000000000208DF801001A488388934206D1E2
:104F100019B10B208DF8010026E00320FAE7C388C1
:104F2000934206D119B10B208DF801001CE0052039
:104F3000FAE70389934206D119B10B208DF80100DD
:104F400012E00620FAE74389934206D119B10B20FB
:104F50008DF8010008E00820FAE78089904203D12B
:104F600031B10B208DF80100684600F0CFF81FBD6D
:104F70000920F7E7C479002008B50A460549898960
:104F8000002905D000920223002204F0B5FD08BDDF
:104F9000012008BDC479002008B50A4607490989DF
:104FA000002908D00092B2F80221521C93B20022CC
:104FB00004F0A2FD08BD012008BD0000C479002056
:104FC000037813704378537083789370C01C5060DB
:104FD000C91E1181704700001CB50191064949891D
:104FE000002906D001AA00920223002204F084FDC9
:104FF0001CBD01201CBD0000C4790020002821D068
:10500000028800F10801B2F5A06F0AD0A2F5A062F3
:10501000053A0CD0012A10D0022A13D10079FFF7EB
:1050200017BF83780A460079194600F081B9837862
:105030000A4600791946FFF741BF02898178007955
:10504000FFF75CBF7047000010B50446002C0BD082
:1050500018210648FDF74BF804480461BDE81040EC
:105060000349044804F0BABB022010BDC4790020F3
:10507000FD4F200090590020012181400348808A83
:10508000014201D00120704700207047C479002000
:105090001CB501910649C988002906D001AA0092D1
:1050A0000223002204F028FD1CBD01201CBD0000CD
:1050B000C479002003B581B006498988002906D04B
:1050C00002AA00920123002204F016FD0EBD012069
:1050D0000EBD0000C479002004498989002902D04E
:1050E000002204F0B5BB012070470000C479002005
:1050F00000224FF47A71014801F06ABA98B9002091
:10510000014904F031BC00009059002004490969AC
:10511000002903D04278002A00D0084770470000D9
:10512000C479002010B586B0044660780C2818D2E7
:10513000DFE800F01706193E4A25175B387385969D
:1051400020780121FFF7A4FF0446002C09D0142287
:10515000494901A8FCF7A4FFADF8084001A800F0F8
:10516000F9FA06B010BD45A0B921CDE90010424BB7
:1051700048A2143B4DA1022000F0CAFFF1E72078BD
:105180000121FFF729FF0446002CEAD014223A49F6
:10519000143101A8FCF784FFADF8084001A800F025
:1051A000D9FADEE7207806B0BDE8104001F0E6BD90
:1051B00040A0C621CDE900102F4B36A2143B3BA1E5
:1051C000022000F0A5FFCCE73FA0CA21CDE90010E6
:1051D000294B30A2143B35A1022000F099FF06B004
:1051E000201DBDE8104018F0A7B93DA0D221CDE99F
:1051F0000010214B27A2143B2CA1022000F088FFB5
:10520000201D18F0B7F9A079C007AAD0207806B001
:10521000211DBDE81040FFF7AFBE2078FFF75CFF0F
:105220000446002C9DD014221349283101A8FCF714
:1052300037FFADF8084001A800F08CFA91E72FA0E5
:10524000E021CDE900100C4B12A2143B17A1022063
:1052500000F05EFF06B0201DBDE8104018F054B904
:105260002FA0E521CDE90010034B0AA2143B0FA1AA
:10527000002000F04DFF74E7A030220053657276E5
:1052800069636520646973636F766572206661691E
:105290006C2E00002E2E5C5372635C757365725C1D
:1052A000757365725F6170702E6300004E4F5F54BE
:1052B0004147000052656D6F746520434D44207373
:1052C0007563636573732E004E657720434D4420EC
:1052D0006C69737420726563656976652E000000E1
:1052E0004174747269627574652075706461746567
:1052F00020726563656976652E00000041747472E2
:10530000696275746520636F6D706C657465207675
:10531000616C756520726563656976652E000000B5
:105320005772697465206572726F722E00000000FA
:105330002DE9FF4714468DF800004FF002098DF863
:105340000190572926D011BB10222949A01CFCF737
:10535000E0FEE0B9DFF89C80608AA8F80000A08A2F
:10536000A8F8020000260AE006EB4600A36900EB5D
:10537000C60013F81020032A0ED02AB1761CA08A8A
:10538000618A401AB042EFD801208DF801006846CA
:10539000FFF7BCFEBDE8FF87721C11448DB21449B3
:1053A00009EB4007D81910221031FCF7B2FE98B172
:1053B000A0690F49384410222031FCF7AAFE88B1B9
:1053C000A0690B49384410223031FCF7A2FE0028B6
:1053D000D4D1A8F80C50D1E7A8F80450AD1CA8F817
:1053E0000650CBE7A8F80850AD1CA8F80A50C5E74E
:1053F000542E2200C479002006460F46154672B688
:105400003846FCF77FFE402801D9402002E03846AC
:10541000FCF778FE80463046FCF774FE402801D940
:10542000402002E03046FCF76DFE04469C21104807
:10543000FCF75DFE424639460D48FCF731FE0C484C
:10544000224631465C30FCF72BFE09484FF0AA316A
:10545000016445644FF0BB3181644FF0CC3101658C
:105460004FF0DD318165002000F004F8FEE7000018
:10547000AC72002030B5ADF20C4D04464FF48061A3
:1054800003A8FCF734FE184D202085F83F0085F86E
:105490009B003CB12846012C436DC26C09D0022C04
:1054A0000CD00FE0104A11A15C3203A8FEF758FAA5
:1054B00008E011A103A8FEF753FA03E016A103A820
:1054C000FEF74EFA03A90BA2686CCDE9012100900A
:1054D00018A3054A18A1002000F01AFE00F0E4FD10
:1054E0000DF20C4D30BD0000AC7200205B455252F5
:1054F0004F525D20257300005B5741524E494E4785
:105500005D20506172616D303A25642C506172618A
:105510006D313A25640000005B504152414D5D20E1
:10552000506172616D303A25642C506172616D3149
:105530003A256400000000006170705F617373655C
:1055400072742E630000000001481BF03FB9000098
:105550007459002006460F4690461D4672B64046D6
:10556000FCF7D0FD402801D9402002E04046FCF77E
:10557000C9FD04469C210D48FCF7B9FD2246414671
:105580000A48FCF78DFD09484FF055310164456428
:105590004FF066318164C6644FF07731016547652D
:1055A000C94381650220FFF765FFFEE7AC7200206A
:1055B0002DE9F04106460F4690461D464046FCF751
:1055C000A1FD402801D9402002E04046FCF79AFDA9
:1055D00004469C210D48FCF78AFD224641460B48B3
:1055E000FCF75EFD09484FF0113101644564490044
:1055F0008164C6644FF03331016547654FF0443133
:105600008165BDE8F0410120FFF734BFAC72002096
:1056100070B588B006468A7ACB7A0C7B4D7BCDE993
:105620000632CDE90454887BC97B10A24FF49E73E7
:10563000CDE90032CDE902101A4B1BA220A10220B5
:1056400000F066FD304605F07BFE0446002C0AD0D3
:1056500014221449183103A8FCF722FDADF81040BC
:1056600003A800F077F808B070BD0000436F6E6EBD
:105670006563746564207769746820746865207058
:1056800065657220253032583A253032583A253037
:1056900032583A253032583A253032583A2530328D
:1056A000582E0000043122002E2E5C5372635C756C
:1056B0007365725C757365725F6170702E63000054
:1056C0004E4F5F544147000010B586B00446002994
:1056D0001DD110A14FF4A673CDE900310292134BF6
:1056E00013A219A1032000F013FD1949204602F06E
:1056F00029FE0446002C0AD014220C491C3101A8B2
:10570000FCF7CEFCADF8084001A800F023F806B085
:1057100010BD0000446973636F6E6E6563746564E9
:105720002028307825303258292E000030312200D0
:105730002E2E5C5372635C757365725C7573657253
:105740005F6170702E6300004E4F5F544147000050
:10575000DC5900203EB504464FF400711A48FCF7AE
:10576000C6FC207810B1012819D01DE0002117488F
:10577000A28830F831309A4207D100EBC10014A161
:1057800043681148FEF7ECF80EE02E2902D0491CC0
:10579000C9B2EEE714A10C48FEF7E2F804E01DA13F
:1057A00009486268FEF7DCF8074921A22069CDE9C3
:1057B00001210090D4E902231EA1002000F0A8FCE2
:1057C000BDE83E4000F070BCAC700020E42C22002C
:1057D0004572726F7220636F6465203078253034B3
:1057E000583A2025730000004572726F7220636F73
:1057F0006465203078253034583A204E6F20666F2B
:10580000756E6420696E666F726D6174696F6E2E5D
:105810000000000028257329206973206E6F742012
:1058200065737461626C69736865642E00000000C2
:10583000257300006170705F6572726F722E630075
:1058400070B504460D460121204602F0D1FE70BD20
:105850002DE9F041014600291BD000240F4E0E4ACD
:10586000357814E002EB04100F780378BB420CD1BA
:105870004B684068034208D0707808B900F0E6FB36
:105880002046BDE8F04100F04FBA641CE4B2AC42DF
:10589000E8D3BDE8F08100003C6E002050590020A4
:1058A0007CB505460E46002D01D0002418E0E52009
:1058B0007CBD05EB041041680091017A8DF804105D
:1058C000417A8DF8051008218DF80610C26800781D
:1058D0000023694600F038F80028E9D1641CE4B2DE
:1058E000B442E6D300207CBD10B502460846052A26
:1058F00025D2DFE802F0030303111900114951F822
:1059000032200104090C05D022B1014610460FF0E7
:105910000DFD10E0E42010BD10F0FF0F02D00EF0DE
:105920002BFE08E0E42010BD10F0FF0F05D001466B
:1059300000200FF00DFE002010BDE42010BDE62079
:1059400010BD0000D82B22002DE9F05F05460C4663
:105950009046994626680027042D11D031462846E6
:10596000FFF7C2FF2146284600F05EF8002808D164
:10597000032D08D04FF0100A2807070E002448E036
:10598000E620BDE8F09F4FF0080AF7E7F0073DD0AA
:105990003DB1012D05D0022D03D0032D21D0E620ED
:1059A000EFE71E4800EBC50090F904B0BBF1000F13
:1059B00015D0EFF31081012080F31088184AE01908
:1059C00042F8308002EBC000C0F8049081F31088E8
:1059D000584614F6F5FB584614F610FC16E0E42081
:1059E000CFE7EFF31081012080F310880D4AE01912
:1059F00042F8308002EBC000C0F8049081F31088B8
:105A00001B2014F6DDFB1B2014F6F8FB7608641C43
:105A1000E4B25445BAD30020B3E70000D82B2200EB
:105A2000886C0020886D002030B597B005460C4684
:105A30001C22454910A8FCF733FB1C2242491C31AB
:105A400009A8FCF72DFB20223F49383101A8FCF7BB
:105A500027FBD4B13D4906201AF0C8FD3C49072078
:105A60001AF0C4FD3B491B201AF0C0FD3A49122030
:105A70001AF0BCFD34496C39A1F12C02052D61D21C
:105A8000DFE805F0060606213900E52017B030BD35
:105A9000207931F810001190607932F810001290DE
:105AA000A0791390206810902748843850F835006A
:105AB00021880904090C04D018B110A90FF027FDA2
:105AC00039E0E420E2E7207901EB4000808A0A9087
:105AD000607902EB4000C0880B90A0790C902068A0
:105AE0000990207810F0FF0F03D009A80EF028FECF
:105AF00021E0E420CAE72079031F042B01D8E72026
:105B0000C4E7022819D001200290207901EB40005F
:105B1000008D0390607902EB400080890490A079A9
:105B2000059020680190207810F0FF0F08D001A99F
:105B300000200FF0C1FD0020A8E702200290E4E75A
:105B4000E420A3E7E620A1E75C2C2200C14110007D
:105B5000BB411000B7411000B141100002460020C7
:105B6000052A11D2DFE802F0030303090C000748FD
:105B700050F8320089B214F682BA88B20EF04EBEE6
:105B800089B200200FF0A0BD70470000D82B220082
:105B9000002803D0024908600120704700207047A8
:105BA0005859002070B505460024091F062917D250
:105BB000DFE801F003070C111315284600F0A4F8E4
:105BC0000EE00124284600F09FF809E00224284650
:105BD00000F09AF804E0032402E0042400E0052425
:105BE000034A214628461268BDE87040104700006D
:105BF000585900202DE9F0410446204600F0AEF847
:105C000001462E4800230826025D00F10A0700F134
:105C10001405AAB1052A33D0082A2AD1092945D06A
:105C2000082926D1295D491CC9B22955142920D338
:105C30002B5506552046BDE8F0410821FFF7B2BFBD
:105C4000052913D0042916D0072914D0082910D10A
:105C5000295D491CC9B2295514290AD32B5506556B
:105C60002046BDE8F0410821FFF79CBF3B550521C8
:105C70000155BDE8F0812046BDE8F041FFF792BF35
:105C800005290CD0395D491CC9B239553229F0D3E8
:105C900003552046BDE8F0410521FFF783BF0355BA
:105CA0002046BDE8F0410621FFF77CBF03552046A2
:105CB000BDE8F0410921FFF775BF00001C6F00200F
:105CC00070B504460D4600F00FF808B100F0D4F9A5
:105CD0000348044A2946005D5268BDE870401047F9
:105CE000306E0020505900200020064911F8102085
:105CF0000AB100207047401CC0B20A28F6D3012028
:105D0000704700003A6F00200349002201F810207C
:105D100001EB4000427070473A6F0020014A02F8E0
:105D2000101070473A6F0020024A012102EB400038
:105D3000417070473A6F002070B50024064D05EBA6
:105D40004400407810B12046FFF754FF641CE4B2D1
:105D50000A2CF4D370BD00003A6F002070B500210A
:105D60001D4B03F132051A5C002A09D0002403F10F
:105D70000A06012A0AD0022A12D0032A24D11FE0DF
:105D800015F8102002B301221A541DE015F8102056
:105D90001AB1345402221A5416E01C54042113E0A0
:105DA00015F810204AB1325C521CD2B23254642A27
:105DB0000AD3072103221A5406E005211C5403E0EC
:105DC00015F8101011B10821084670BD1C54FFF7DA
:105DD0009BFF0921F8E70000086F00201CB504288C
:105DE00016D0032847D0022854D0002861D00128BB
:105DF0006ED138A07E21CDE900103A4B3AA243A1E2
:105E0000022000F085F90620BDE81C4005F09EBF89
:105E1000012912D002291FD0032959D13DA06521A3
:105E2000CDE900102F4B30A238A1022000F070F90C
:105E30000220BDE81C4005F089BF3BA05921CDE9F7
:105E40000010284B28A231A1022000F061F90020A7
:105E5000BDE81C4005F07ABF36A05F21CDE90010F7
:105E6000204B21A229A1022000F052F90120BDE817
:105E70001C4005F06BBF33A06C21CDE90010194B1D
:105E800019A222A1022000F043F90320BDE81C4022
:105E900005F05CBF2EA07221CDE90010114B12A2BB
:105EA0001AA1022000F034F90420BDE81C4005F0DE
:105EB0004DBF2BA07821CDE900100A4B0AA213A1F7
:105EC000022000F025F90520BDE81C4005F03EBF8A
:105ED0001CBD0000566F6C756D6520646F776E2E6B
:105EE00000000000BC2E22002E2E5C5372635C70FA
:105EF0006C6174666F726D5C757365725F706572EC
:105F00006970685F73657475702E63004E4F5F54DF
:105F100041470000546F67676C6520706C617920A1
:105F200070617573652E00004D6564696120706C49
:105F300061792E004D656469612070617573652E0D
:105F4000000000004E65787420747261636B2E004F
:105F500050726576696F757320747261636B2E0081
:105F6000566F6C756D652075702E00002DE9F0413F
:105F70000E4617460A2E02D80FB100231AE0002061
:105F8000BDE8F08103EB430400EB8405114AA97AD4
:105F9000D154104910F824200C3101EB0314227065
:105FA00069686160297A2172697A61720A49E160DF
:105FB0005B1CDBB2B342E5D3064831460C30FFF739
:105FC0006FFC0648067047600548FFF7E1FD0120B9
:105FD000D6E70000306E00205158200050590020B4
:105FE000C15C20002DE9F0410024124FDFF8488009
:105FF00019E0002607EB041528786968FFF7AEFD65
:1060000010B9697A012902D0012802D005E00126E1
:1060100003E0687A022800D1012631462046FFF7C6
:106020007DFE641CE4B298F800008442E1D3BDE830
:10603000F08100003C6E00205059002010B5FFF7A1
:10604000D1FFBDE81040FFF777BE000010B5074A4A
:106050000121074800F0CFF900220A21044800F08E
:10606000B7FA04490120487010BD00003D602000CF
:10607000E06E00205059002010B5034800F0E9F907
:1060800002490020487010BDE06E002050590020E9
:10609000002806D0002904D0024AD269002A00D084
:1060A00010477047887000200248006A002800D01E
:1060B000004770478870002070B50D4616460D4C9D
:1060C00000280AD00178032911D80121A1760146C0
:1060D0001A222046FBF7E4FF05E00020A0761A21F3
:1060E0000448FCF704F8E5612662002070BD012039
:1060F00070BD000088700020044A1044807D084272
:1061000001D00120704700207047000088700020F7
:106110002DE9FE4FDDF830B0064692469946002440
:106120000027019702975A480178B14202D2807E37
:1061300000287DD10DF13808CDF80080EFF31185EE
:106140000220FDF791FC014652480068C0F302208E
:10615000401C012282408818C0B280F311880121BE
:106160003046FFF7C9FF38B14B484C4950F826205C
:10617000204600F0D3F804461C213046FFF7BCFF50
:1061800000285ED046A24549204600F0C7F82044CA
:1061900084B204213046FFF7AFFFF8B152463F49C1
:1061A000204600F0BBF8204484B208213046FFF7B7
:1061B000A3FF38B13BA23949204600F0AFF8204494
:1061C00084B20BE010213046FFF796FF30B136A2C3
:1061D0003249204600F0A2F8204484B2082130461B
:1061E000FFF78AFF90B14A462C49204600F096F806
:1061F000204484B210213046FFF77EFF30B12BA23D
:106200002649204600F08AF8204484B21021304606
:10621000FFF772FF70B15B4626A2052101A8FDF7CA
:1062200087FB01AA1D49204600F078F8204400E0D1
:106230002BE084B220A21949204600F06FF82044D8
:1062400084B21648C4F58071204443460D9AFDF788
:106250009BFB00974FF48071002804DB20448842A8
:1062600001DC86B200E00E46B01C884200D9FE2652
:1062700012A20A49304600F051F8304481B2074872
:10628000FFF706FFE8B280F31188BDE8FE8F00003B
:10629000887000200CED00E060590020886F00201D
:1062A00028000000200000003A000000204C696E29
:1062B000653A0000256C6400292000000D0A0000EA
:1062C0000FB438B505AC0094EFF311850220FDF74B
:1062D000CBFB10490968C1F30221491C01228A4005
:1062E0001044C0B280F3118823464FF480742146D5
:1062F0000948049AFDF748FBA04201D881B200E0AA
:1063000021460548FFF7C4FEE8B280F3118838BC87
:106310005DF814FB0CED00E0886F002030B50546F9
:10632000002000290CD0002A0AD006E02B18FF2BF1
:1063300006D8CC54521C401C80B21478002CF5D1E5
:1063400030BD000010B5074A06214CF2010016F0DE
:1063500081FB05F032FA1BF037FEBDE8104000204B
:106360003DF650BC942E220010B508480178002953
:106370000AD10121017006483DF646FBBDE81040F8
:10638000002104483DF6D6BC10BD00004C59002049
:10639000D5411000E5D5210070B58AB006460C46FF
:1063A000002C26D0242101A8FBF7A1FE207800258F
:1063B000012410B1012818D104E08DF804508DF8A3
:1063C000054012E08DF804408DF8054010210DF1D4
:1063D0000600FBF78CFE40208DF80600E2208DF8C9
:1063E00007008DF808408DF8095001A9304604F0E7
:1063F0000DFF0AB070BD2DE9F04104460D46174669
:10640000002D04D0012D02D00120BDE8F081E4B1BF
:10641000DFB1607801281AD0EFF311860220FDF772
:1064200015FB8046FDF7AEFB401C0121814008EBC7
:106430000100C0B280F3118800206070A570E76190
:10644000F0B280F311880020DFE70120DDE70620AD
:10645000DBE710B50446002C0CD0204600F04AF9CA
:10646000FF2060700021A160E16021616161002076
:10647000E06110BD012010BD10B586B0094A0021B1
:106480000948FFF7B8FF0446002C09D01422074939
:1064900001A8FBF705FEADF8084001A8FFF75AF97F
:1064A00006B010BDB5C0200098B90020F030220021
:1064B000F0B5DDE90745059981614FF47A76A2FBD5
:1064C000061C03FB06C3002702FB0732C0E90212C9
:1064D00009196A41C0E9041200210162F0BD0000FF
:1064E0002DE9F0410446002C13D0EFF31185022072
:1064F000FDF7ACFA0746FDF745FB401C012606FAFE
:1065000000F03844C0B280F31188124800212162A3
:106510000EE00020BDE8F081D4E90432D1E9047C2A
:10652000DB1B72EB0C0202D2016A216203E0084617
:10653000016A0029F0D104626670064810380168CB
:10654000491C0160016B4160E8B280F311880120B1
:10655000E0E70000606F00202DE9F04105460024CF
:10656000EFF311860220FDF771FA0746FDF70AFBEB
:10657000401C012181407818C0B280F31188134A71
:10658000106BE8B115B102F1100010E00446206A6A
:1065900010631068401E10600CE0A94206D111681B
:1065A000491E1160296A01622C4603E00846016A0F
:1065B0000029F2D124B1002020626070106B50607D
:1065C000F0B280F311882046BDE8F081506F0020C2
:1065D0002DE9FF5F82460E4693464FF00008BAF160
:1065E000000F20D0414886421DD8E6B1EFF3118755
:1065F0000220FDF72BFA0446FDF7C4FA401C0121E6
:1066000081406018C0B280F31188504611F020F824
:1066100010B19AF8010040B1F8B280F311880F2050
:1066200004B0BDE8F09F0120FAE715F02DFE044606
:106630000D464FF47A7106FB01F022462B460021ED
:1066400010F0A4FEDFF8A890B0B1D9F8040048B16A
:10665000D0E90410091B60EB0500C9E9021015F030
:106660008DFE04E00021C9F80810C9F80C104FF0A5
:106670000108D9E9020106E0D9F80400D0E90421B3
:10668000101B61EB0501CDE9020132460023CDF874
:1066900000B05046FFF70CFF5046FFF721FF19F0FE
:1066A000C1FE4FF0E024D4F800014FF0806510F0F7
:1066B000806F01D0012000E0002020B91A20FDF7F2
:1066C00079F9C4F80051B8F1000F0AD0D9F80400E4
:1066D000D0E90431D9E90202181A61EB020115F080
:1066E00009FEF8B280F31188002099E7008AB90703
:1066F000506F00202DE9F04104460025002C39D0D0
:10670000EFF311870220FDF7A1F90646FDF73AFAEB
:10671000401C012181407018C0B280F3118860785C
:10672000012824D1144E7068A0420BD115F0ACFDA5
:10673000D4E90432181A62EB0102C6E9020215F02C
:106740001DFE01252046FFF707FF5DB1706848B1C7
:10675000D0E90421D6E90203101A61EB030115F018
:10676000C9FD04E01DB9706808B915F007FEF8B25C
:1067700080F31188BDE8F081506F002070B50446A9
:106780001A4D55F82400703018F0E3F882B216461E
:10679000A2B155F8240090F8011101290ED0012171
:1067A00080F80411802A0FD355F82400802200F1CC
:1067B0008001703018F0E2F880260CE055F82410C3
:1067C000002081F8000170BD55F8240000F180011F
:1067D000703018F0D3F855F82400324600F18001EB
:1067E000001D0FF0DFFD0028EDD170BD206E0020F0
:1067F000704700002DE9F8430446514E56F8240036
:10680000071D042C7ED290F86C1000297AD0012943
:1068100078D190F80011012974D190F80111002964
:1068200070D1012180F80111002556F82400D0E92B
:1068300003120A44017D01F00101C91D02EB0108A8
:106840004168CA6FC2F38002002AFAD090F804119E
:10685000E1B1DFF8F0906D1C56F82400001D0FF038
:10686000CDFB10280BD056F82400D9F80010806812
:10687000B1FBF0F000FB08F0B5EBC01FEBD956F808
:106880002400703018F065F885B226E0B0F8248056
:10689000C58C001D0FF06CFA56F8240041F28833C5
:1068A00000EB0801491B8031001D2A460FF028FD2E
:1068B000E5E756F8240001227030694618F05EF8CA
:1068C00056F824004068C16FC1F340010029FAD096
:1068D0009DF8001001606D1EADB2002DE9D156F893
:1068E0002400703018F035F80028C8D138684169A4
:1068F0004906FCD5EFF31085012080F3108856F887
:10690000240000E01AE0703018F023F858B1EFF3DB
:106910001081012080F310883868426842F08202BA
:10692000426081F3108856F82410002081F800019D
:1069300056F8241081F8010185F31088BDE8F8832A
:10694000206E0020485900202DE9F04105460F46F1
:10695000002D06D02AB12C78042C04D3E820BDE801
:10696000F081E520FBE7344E05F1580046F824009D
:10697000D2E900310A467030194617F0D5FF291DBB
:10698000286D1BF0F3F90028E9D156F82410281DD2
:10699000486656F82400076056F82400182208308C
:1069A00005F14001FBF77CFB244856F8241000EB6E
:1069B000C4056868486056F82400001D0FF03CFAD2
:1069C00056F82400001D0FF027FB1C48012203216C
:1069D000103816F06BFE56F82410012081F86C0078
:1069E00056F82410002081F8000156F8241081F890
:1069F000010156F8241081F8020156F8241081F89C
:106A000003010F490C2019F0F1FD0E490D2019F07A
:106A1000EDFD0D49342019F0E9FD0C49352019F040
:106A2000E5FD95F9010013F6CBFB95F9010013F68E
:106A3000E5FB002093E70000206E0020C42C22001C
:106A4000D1382000E1382000F13820000139200041
:106A500070B5042801D3E82070BD134C54F82030E1
:106A60004BB193F86C5035B139B132B193F8035151
:106A7000012D04D010E0E52070BDE42070BD00259C
:106A800083F8035154F820305B680225C3F888501E
:106A900054F820305B681B6854F82000001D0FF08C
:106AA000C7FB0028EAD170BD206E002070B50078C9
:106AB00002285BD1FF25002402222DA12D48FBF7DF
:106AC00028FBC0B104222CA12A48FBF722FBA8B165
:106AD00004222BA12748FBF71CFB90B105222AA119
:106AE0002448FBF716FB78B1022229A12148FBF7C5
:106AF00010FB60B10DE0022400250AE0042401250A
:106B000007E00424022504E00524032501E0022413
:106B100004251848012204441EA12046FBF7F9FA77
:106B200080B1204601221CA1FBF7F3FAA0B1012499
:106B3000F4211048FBF7DBFA21462846BDE87040F7
:106B4000FFF74CB92046022214A1FBF7E2FA08B184
:106B50000224EDE70324EBE72046022210A1FBF715
:106B6000D8FA08B10524E3E70424E1E770BD00008A
:106B70007570000070770020646F776E0000000071
:106B80006C6566740000000072696768740000003C
:106B90006F6B00002B0000002D0000002B2B00006D
:106BA0002D2D00002DE9F04104461A4D55F8240022
:106BB000703017F0CEFE82B2164600277AB155F833
:106BC000240090F80111012909D0802A0ED300F188
:106BD00080017030802217F0D1FE80260BE055F83E
:106BE000240080F800710020BDE8F08100F18001F0
:106BF000703017F0C3FE55F8240080F8047155F882
:106C00002400324600F18001001D0FF033FC002803
:106C1000EAD1E9E7206E002070B5042801D3E8200E
:106C200070BD0C4D55F820407CB194F86C6066B195
:106C300069B162B1002684F8026155F82000001D98
:106C40000FF05EFB0028EBD170BDE52070BDE420A5
:106C500070BD0000206E00202DE9F74F84B005467E
:106C60000C46022604F1080920460DF02BF90746D0
:106C70003E48D0F804A000200390B5F5804F0ADB11
:106C8000B5F5004F07DA3948406839490968A0EB83
:106C9000010A01200390E019504501DD052662E05C
:106CA0003248006800F6FF7030490988491EC1F378
:106CB0000B01401AC0F3073B039810B12C48006841
:106CC00000E0002002902B4800682B490968401A18
:106CD000001F2649497AA1EB0B01A0EBC100234913
:106CE0000968411A0298A1EB000809EB070040452A
:106CF00032DD002011231E224FF4004100900120BC
:106D000040F67CFD002108460CF038FFC8B9174951
:106D1000487A10F0BDF906461EB1304607B0BDE80E
:106D2000F08F002012231E224FF40041009001201A
:106D300040F664FD21462846069A1BF081FB064674
:106D400010E0002013231E224FF400410090012088
:106D500040F654FD0F2605E021462846069A1BF012
:106D60006FFB064600BF3046D8E7000088C300200E
:106D7000345D0020485D0020405D002010B5C6B0A5
:106D800004464FF482720B4905A8FBF789F905A95F
:106D90002046FEF701F90446002C09D014220649CA
:106DA0006846FBF77DF9ADF804406846FEF7D2FC73
:106DB00046B010BD742F22007830220010B500219B
:106DC0000A4C0023002001EB410202EBC10204EB5C
:106DD000420222F81030401CC0B20A28F9D31375C1
:106DE000491CC9B20A29EDD310BD000018C9002002
:106DF0000848006800280CD090F82E10012908D10E
:106E000090F83000FF2804D20349086840F0806001
:106E1000086070479C09002000000E4010B586B045
:106E2000044668463DF69AFF9DE80E0003A80EC092
:106E30000B4A891C21F07041516010463EF65EF904
:106E400007483EF6CFF9207F002806D1054991F882
:106E50000101054A01EB0010426006B010BD0000C0
:106E6000E0200020F420002091BF2100F0B5ADB05B
:106E700005460E460024AC620CA82421FBF737F926
:106E80001594169401A82421FBF731F90A940B9468
:106E900022A824222946FBF703F9686A2B90A86AE6
:106EA0002C908A4D17A824222946FBF7F9F8686A26
:106EB0002090A86A219001251495099415950A95AA
:106EC000C8E022AF4FF0000C0022214657F8220004
:106ED000401844EB0C0149084FEA300147F82210F2
:106EE00020F00101B0EB010C02F10102092AECD300
:106EF000002057F8201011B9401C0928F9DBC0F117
:106F0000090078621498C00706D00CA8FBF7C0FDF2
:106F10002A98C007D5D048E00CAF4FF0000C0020F5
:106F2000214657F82020521841EB0C035B084FEA2A
:106F3000320347F8203022F00103B2EB030C00F1DA
:106F400001000928EDD3002057F8201011B9401C8A
:106F50000928F9DBC0F109007862D9E717AF4FF0D3
:106F6000000C0020214657F82020121944EB0C0396
:106F700059084FEA320147F8201022F00101B2EB24
:106F8000010C00F101000928ECD3002057F8201073
:106F900011B9401C0928F9DBC0F109007862099891
:106FA000C0070DD001A8FBF773FD1F98C007D5D00F
:106FB00022AA17A92B98209B984223D9284637E06C
:106FC00001AF4FF0000C6246234657F82200C0186C
:106FD00043EB0C0149084FEA300147F8221020F03A
:106FE0000101B0EB010C02F10102092AEDD30020EE
:106FF00057F8201011B9401C0928F9DBC0F109002D
:107000007862D2E701D2204612E0C0F109000CE01C
:1070100051F8203052F82070BB4201D9204607E0D9
:1070200001D2284604E000F101000928F0D32846E7
:1070300040B117A922A8FCF751FB01A90CA8FCF745
:1070400077FB07E022A917A8FCF748FB0CA901A8C9
:10705000FCF76EFB2B9800287FF47FAF0B9868B18C
:1070600001A819F0CBFA01A924223046FBF718F841
:107070000A9870620B98B0622DB0F0BD134901AA56
:10708000486A0A9B984201D92C4610E00FD3C0F100
:1070900009000AE052F8203051F82070BB4206D8AF
:1070A00001D22C4603E000F101000928F2D34CB1D3
:1070B00001A924223046FAF7F3FF0A9870620B9870
:1070C000B062D9E701A819F099FACCE73833220069
:1070D0000BF040B910B58CB008A81AF065F8BDF8EF
:1070E000221009989DF82120CDE904109DF8203048
:1070F0002FA04FF4CB71CDE90232CDE90010364B11
:1071000036A23CA10220FFF703F80AA800F09AFE7D
:10711000044654B114223049103103A8FAF7C0FFD5
:10712000ADF8104003A8FEF715FB9DF828009DF868
:107130002910CDE906109DF82A209DF82B30CDE9C5
:1071400004329DF82C109DF82D002CA24FF4CE7324
:10715000CDE90032CDE902011F4B20A225A102207A
:10716000FEF7D6FF30A04FF4D271CDE900101A4BD4
:107170001AA220A10220FEF7CBFF19F017F909F09F
:1071800095F9FFF779F93149002001F0DBF8044661
:10719000002C0AD014221049243103A8FAF780FFEA
:1071A000ADF8104003A8FEF7D5FA0CB010BD0000F2
:1071B000476F6F64697820424C452053444B2056FA
:1071C00025642E25642E25642028636F6D6D6974F7
:1071D0002025782900000000703122002E2E5C53FB
:1071E00072635C757365725C757365725F617070F4
:1071F0002E6300004E4F5F54414700004C6F6361A7
:107200006C20426F61726420253032583A2530324A
:10721000583A253032583A253032583A25303258CB
:107220003A253032582E00004170706C65204D6553
:1072300064696120436C69656E74206578616D7066
:107240006C6520737461727465642E00DC590020D3
:107250002DE9F04104460D4616461F463B46324690
:107260002946204600F6A0F8BDE8F0812DE9FF5F31
:1072700004460D4616461F46DDE910ABDDE90E89D2
:107280003B463246294620468DE8000F00F664FA58
:1072900004B0BDE8F09F2DE9FF5F04460D46164699
:1072A0001F46DDE910ABDDE90E893B463246294633
:1072B00020468DE8000F00F661FA04B0BDE8F09FAB
:1072C00070B504460D462946204600F6DDFC70BD2B
:1072D00010B50446204600F675FD10BD70B5044695
:1072E0000D462946204601F651FA70BD70B5054697
:1072F00028781949097808440A2801DD042070BD5E
:107300000024002623E01EE01448005DD0B9C6EB3F
:10731000C603691C5A1804F14001C1F30D0141F480
:107320000040072115F096FB08B10120E7E7012294
:107330002046641C09490A5407480078401C064945
:10734000087002E0641C0A2CDEDB00BF761C287883
:10735000B042D8DC0020D2E77D600020C4CC002001
:10736000F8B507460D46384606F03AFA06460B4889
:10737000007886420EDAC620009006EB46012231E4
:10738000C1F30D0141F400402A46694615F0E6F9C3
:10739000002400E003242046F8BD00007C600020AB
:1073A000F8B505460026002415E0082000900C489A
:1073B000005D01280ED1691C01EBC60204F16001D9
:1073C000C1F30D0141F40040694615F0C7F908B951
:1073D000701CC6B2641C042CE7DB2E700020F8BDC4
:1073E0007E6000202DE9F041A8B004460E4600273B
:1073F00000206070804648E08C20049008EB480133
:107400002131C1F30D0141F4004005AA04A915F092
:10741000A5F948BB9DF8150000F0020020B3607884
:10742000B04222DA07EB8701606800EBC1050DF17D
:107430003700DDF837102960BDF83B10A98080794E
:10744000A8719DF81600E87110220DF1270105F1D1
:107450000800FAF725FE10220DF1170105F11800BA
:10746000FAF71EFE781CC7B20BE0002001211E2394
:107470001A46CDE901060091C903012040F6BEF984
:1074800007E008F1010000F0FF080548007880459A
:10749000B2DB00BF6770002028B0BDE8F0810000BB
:1074A0007C600020F8B506460C46304606F098F998
:1074B000054602270A48007885420FDA8C200090A2
:1074C00005EB45012131C1F30D0141F40040224695
:1074D000694615F043F907463846F8BD0320FCE736
:1074E0007C600020F8B506460C46304606F096F95A
:1074F000054602270A48007885420FDA8C20009062
:1075000005EB45012131C1F30D0141F40040224654
:10751000694615F023F907463846F8BD0320FCE715
:107520007C600020F8B505460026002416E0072000
:1075300000900D48005D01280FD1C6EBC603691C01
:107540005A1804F14001C1F30D0141F400406946AD
:1075500015F004F908B9701CC6B2641C0A2CE6DBED
:107560002E700020F8BD0000C4CC0020FEB50446FB
:107570000D463020B5FBF0F015490870084600783C
:10758000C0EBC006084607780078002101221F23BF
:10759000CDE9002102901E224FF40041012040F667
:1075A0002DF90C480460A0190B49086000200B4914
:1075B00008704870A0193844486002F021FE28B1D4
:1075C0000FF050FC0FF0A6FC0020FEBD0220FCE7EF
:1075D0007C600020746000207860002084600020BF
:1075E0002DE9F04107460C46384606F0F9F8064604
:1075F0000D480078864213DA06EB46012231C1F3CA
:107600000D0141F400402246C62115F023FA8046C0
:10761000B8F1000F01D0012000E00020054600E095
:1076200003252846BDE8F0817C600020FEB50646B3
:107630000F460024304606F0D3F8054600BF404808
:107640000078854219DA05EB45012131C1F30D01BE
:1076500041F400403A468C2115F0FCF90446002C18
:107660005FD0002001211A231E22CDE901040091E0
:10767000C903012040F6C2F854E006F0FDF80546C3
:1076800005EB4501203141F400403246072115F059
:10769000E1F904465CB1002001211B231E22CDE943
:1076A00001040091C903012040F6A8F83AE005EB77
:1076B00045012131C1F30D0141F400403A468C21CE
:1076C00015F0C8F90446A4B1002001211C231E2294
:1076D000CDE901040091C903012040F68FF805EBC4
:1076E00045012031C1F30D0141F4004014F09CFF2D
:1076F00018E028461AF002FE05EB45012231C1F3DD
:107700000D0141F4004014F08FFFC5EBC5000D4999
:107710000968084431680160B1888180B17981715C
:10772000002400BF00BF44B9787800F0020020B107
:10773000034801780448FFF755FE2046FEBD0000CF
:107740007C60002074600020846000202DE9FE43EE
:1077500004460D464148008800F4807010B91E2090
:10776000BDE8FE83002600BF00BFEFF31180814615
:107770000220002802DB3A49095C04E0394900F0A4
:107780000F02121F895C00BF36480C380068C0F336
:107790000220401C0122824001EB02084046FCF717
:1077A00002FB06F0D7F8074600BF04B10DB9012669
:1077B0004AE02D4800782D490978884201DB1026DF
:1077C00042E000202A490968274A127801EB021199
:1077D000086027490968244A127801EB0211886081
:1077E00023490968204A127801EB0211C860002180
:1077F0001F4800681C4A127800EB021041601D48C7
:1078000000681949097840F8214017480078401C61
:107810001549087008460078401E28702088ADF889
:107820000800154800900920ADF80A0000200190DA
:107830000978491E0E4A126802EB01100A490A78BB
:10784000694602F007FD00BF00BF384606F04AF85F
:107850004846FCF7A8FA00BF304681E78C6000205C
:1078600000E400E018ED00E03960002038600020FE
:107870003460002030600020F83B220010B5044640
:10788000204604F6FDF910BD10B50446204604F666
:10789000EBFA10BD70B504460D462946204604F6A5
:1078A000FBFA70BD10B50AF02DFF0A480A4948607E
:1078B0000A490948C1600A4941610A49C1610A4946
:1078C00041620A49C1620A4941630A49C1630A49DE
:1078D000416410BDB98F210030660020758E2100F3
:1078E000F9902100E98D21005D942100259B210064
:1078F000098A210015882100898B210010B517F015
:107900008DFA0FF0BFFE0FF063F8BDE8104017F0DE
:107910003FB9000010B56FF00200814908603820BF
:10792000002807DB00F01F02012191407D4A430936
:1079300042F8231000BF00207B49086000BF7A484E
:107940001C30006840F0020077491C31086008468E
:10795000006840F0010008600846006820F002005E
:10796000086000BF00BF7048001F006840F00100C1
:107970006D49091F08600846006820F00200086091
:1079800000BF00BF13F0ACFA0028FBD1022066490B
:107990003839096821F0030108B9002206E00228FD
:1079A00002D140F2AA2201E040F2FF3202F00302CB
:1079B00011435D4A383A116000BF02201146096840
:1079C00021F00C0108B9002206E0022802D140F2A1
:1079D000AA2201E040F2FF3202F00C021143524AA7
:1079E000383A116000BF02201146096821F0C00139
:1079F00008B9002206E0022802D140F2AA2201E0E2
:107A000040F2FF3202F0C0021143474A383A116097
:107A100000BF032044494039096821F0030108B937
:107A2000002206E0022802D140F2AA2201E040F240
:107A3000FF3202F0030211433B4A403A116000BF9B
:107A400003201146096821F00C0108B9002206E064
:107A5000022802D140F2AA2201E040F2FF3202F0F5
:107A60000C021143304A403A116000BF0320114616
:107A7000096821F0C00108B9002206E0022802D1FD
:107A800040F2AA2201E040F2FF3202F0C0021143AC
:107A9000254A403A116000BF00BF01202249343915
:107AA000086000BF00BF13F01BFA0028FBD1FDF6F1
:107AB000B3FBFDF6B8FB00BF1B481C30006840F06C
:107AC000040019491C31086000BF00BF1648001FA0
:107AD000006840F004001449091F086000BF01203D
