:020000040020DA
:10200000000004205921200061212000014010001F
:1020100075292000FF2120009D2A200000000000DB
:10202000000000000000000000000000154010004B
:102030006B212000000000006D2120007121200094
:1020400000F002F800F077F80AA090E8000C824453
:102050008344AAF10107DA4501D100F06CF8AFF230
:10206000090EBAE80F0013F0010F18BFFB1A43F076
:1020700001031847A0EA0000E0EA00000A444FF01C
:10208000000C10F8013B13F0070408BF10F8014BD7
:102090001D1108BF10F8015B641E05D010F8016B1C
:1020A000641E01F8016BF9D113F0080F1EBF10F880
:1020B000014BAD1C0C1B09D16D1E58BF01F801CBA3
:1020C000FAD505E014F8016B01F8016B6D1EF9D526
:1020D0009142D6D370470000103A24BF78C878C127
:1020E000FAD8520724BF30C830C144BF04680C601E
:1020F000704700000023002400250026103A28BF66
:1021000078C1FBD8520728BF30C148BF0B60704769
:10211000642900F0E580782900F04981732900F0F6
:102120008E83002070471FB50EF0A8F900F0ECFA7E
:102130001FBD10B510BDDFF810D0FFF7F4FF08F099
:10214000E5FE00F097FB00000000042003B4FFF759
:10215000F0FF03BC01F011F806488047064800472D
:10216000FEE7FEE7FEE7FEE7FEE7FEE7FEE7FEE747
:10217000FEE700004D2A2000C5B120000FB404493D
:1021800010B503AA029800F05FFB10BC5DF814FBC9
:10219000645900200FB41CB5084B06AA7B4469465D
:1021A0000090059800F021FB04460020694600F0ED
:1021B0002FFB20461CBC5DF814FB000071060000DC
:1021C00010B5431C02E010F8011B71B18107FAD170
:1021D0004FF0013202C88C1A8C4314EAC211F9D0B4
:1021E000C01A0A0603D0C01E10BDC01A10BD0A04D2
:1021F00001D0801E10BD0902FCD0401E10BDFEE7BC
:1022000058585247010000002556000000202000C9
:10221000002020007EEE9247010100000000000037
:1022200000000000000000000000000000000000AE
:10223000000000000000000000000000000000009E
:1022400070B5044685690068C10601D5302600E0F6
:102250002026C00707D070BDD4E901213046904741
:10226000206A401C20626D1EF6D570BD70B5044614
:1022700085690078C00707D170BDD4E9012120200D
:102280009047206A401C20626D1EF6D570BD70B567
:102290000C460546012A05D02878800600D5EA6953
:1022A000002302E0012305E05B1C934202D2E05CC4
:1022B0000028F9D1A869E618C01AA861286A18444C
:1022C00028622846FFF7BCFF04E0D5E9012114F895
:1022D000010B9047B442F8D32846FFF7C7FF70BD03
:1022E0002DE9F0410646002410687529314616A5EF
:1022F00010D0AFF30080002802DA404213A507E0B7
:1023000031688A0701D512A502E0490704D511A555
:10231000012401E0AFF3008000210A2206F1240726
:1023200009E0B0FBF2FCB0FBF2F302FB1C00303022
:1023300078541846491C0028F3D123462A463046D3
:10234000BDE8F04100F0F2B9000000002D000000EF
:102350002B00000020000000F0B40D4601880905A4
:1023600002D5214C7C4402E01F4C7C440E340021F9
:1023700000F1240608E002F00F071209E75D42EAC7
:1023800003721B097754491C52EA0307F3D1027800
:102390000023120704D5702D06D009B10223113491
:1023A0002246F0BC00F0C2B901231034F8E770B542
:1023B00004460D4621461068AFF3008002462946C8
:1023C0002046BDE870400023C6E7D21D22F0070377
:1023D000D3E90023C0E70368126843F020030360D9
:1023E0000823C3610023B7E7D0E300002DE9F05FC5
:1023F000894604464FF0000ADFF874B1FB44C0F888
:1024000020A02046E1688847002874D0252806D0FF
:10241000D4E901219047206A401C2062F1E70026A0
:102420005F462046E16888472028054607DB312DB6
:1024300005D2781910F8200C08B10643F1E7B0076F
:1024400001D526F00406C4F81CA00027C4F818A083
:102450002A2D09D0284600F083FE38B304EB870804
:10246000303DC8F8185019E059F8041B204604EB19
:1024700087029161E1688847012F054618D1E0691C
:10248000002820DA26F020061DE0D8F8180000EB1E
:10249000800005EB40003038C8F818002046E1689D
:1024A0008847054600F05CFE0028EED1012F0AD0D7
:1024B0002E2D08D12046E16888477F1C0546022F53
:1024C00046F02006C4DBA069002803DA404246F04B
:1024D0000106A061F00701D026F010066C2D0BD08C
:1024E000682D09D04C2D39D06A2D35D0742D35D0BA
:1024F0007A2D33D016E038E0E1682F462046884731
:10250000B842054609D16C2F26D04FF48060E168AF
:10251000064320468847054604E06C2F1AD04FF446
:10252000807006430DB3A5F14100192802D820356B
:1025300046F400664A462946204626604E46FFF786
:10254000E7FD80B101280BD0F61D26F0070000F151
:10255000080956E74020E4E78020D8E70020D6E7C6
:1025600006F104094DE7284652E7206ABDE8F09FCE
:1025700060E3000040EA010310B59B070FD1042A75
:102580000DD310C808C9121F9C42F8D020BA19BA3E
:10259000884201D9012010BD4FF0FF3010BD1AB1A3
:1025A000D30703D0521C07E0002010BD10F8013BF8
:1025B00011F8014B1B1B07D110F8013B11F8014B1F
:1025C0001B1B01D1921EF1D1184610BD032A40F207
:1025D000308010F0030C00F0158011F8013BBCF1C5
:1025E000020F624498BF11F801CB00F8013B38BFDD
:1025F00011F8013BA2F1040298BF00F801CB38BFEB
:1026000000F8013B11F0030300F02580083AC0F008
:10261000088051F8043B083A51F804CBA0E80810B0
:10262000F5E7121D5CBF51F8043B40F8043BAFF3E3
:102630000080D20724BF11F8013B11F801CB48BF3D
:1026400011F8012B24BF00F8013B00F801CB48BF73
:1026500000F8012B704710B5203AC0F00B80B1E8AC
:102660001850203AA0E81850B1E81850A0E81850C7
:10267000BFF4F5AF5FEA027C24BFB1E81850A0E8D0
:10268000185044BF18C918C0BDE810405FEA827CEA
:1026900024BF51F8043B40F8043B08BF7047D20701
:1026A00028BF31F8023B48BF11F8012B28BF20F8A2
:1026B000023B48BF00F8012B70474FF0000200B505
:1026C000134694469646203922BFA0E80C50A0E855
:1026D0000C50B1F12001BFF4F7AF090728BFA0E803
:1026E0000C5048BF0CC05DF804EB890028BF40F8CF
:1026F000042B08BF704748BF20F8022B11F0804F11
:1027000018BF00F8012B704770B5064C7C44064D8D
:102710007D4403E0206820448047241DAC42F9D169
:1027200070BD000044E4000044E400002DE9F047DF
:102730000D4699469246044600F124080168880631
:1027400004D5E06921F01001216000E00120A842D9
:1027500001DD471B00E00027A1697A1902EB09009F
:10276000081AA0612078C00602D42046FFF768FD51
:10277000002608E0D4E901211AF806009047206AF3
:10278000401C761C20624E45F4DB2078C0060AD53A
:102790002046FFF755FD06E0D4E90121302090479F
:1027A000206A401C2062381EA7F10107F4DC07E014
:1027B000D4E9012118F805009047206A401C2062E6
:1027C000281EA5F10105F3DC2046FFF74FFD207818
:1027D000000602D50220BDE8F0870120FBE70000DB
:1027E00001694A1C02610878704700B58FB0CDE9D5
:1027F00001310021059105497944CDE903101146C5
:102800006846FFF7F3FD0FB000BD0000E5FFFFFFD6
:102810000A6802F8010B0A60704710B5436913B1EA
:10282000AFF3008001E0FFF732FD012010BD127808
:1028300000F124010A7000224A700122EDE71168BC
:102840004FF0FF32E9E70000074B70B50D467B44BF
:10285000FFF7CBFF0446284600F008F810B14FF010
:10286000FF3070BD204670BDE7300000007B00F0F7
:102870008000704710B50446AFF300802046BDE8E5
:102880001040FFF763BC10B502F084F810BD0000E3
:102890001CB5032400BF27480068012121EA9000ED
:1028A00078B900BF23480C30006800F0010040B147
:1028B00000BF20488C38006800F007002040A0428C
:1028C00000D01CBD0020009000F07AFB00901A4858
:1028D0000068401C1849086064200AF66DFD01A8D4
:1028E00000F064F8022000F069F832200AF664FD76
:1028F00000BF1248006840F002001049086000BFA5
:102900000F4948890AF658FD00BF0C48006820F0BE
:1029100002000A49086000BF094988890AF64CFD8F
:102920009DF8040000F04AF8009800F020FC00BF79
:10293000C7E70000D4A40040245C002004A90040A4
:10294000E65A00200748006800F0100008B1064869
:10295000704706480068C0F30240054951F820005E
:10296000F6E7000084E30040006CDC0200A00040B9
:102970005C062100FEE702F726B90000052800DB0F
:1029800070470949096801F4E021B1EB004F08D014
:10299000054A126822F4E02141EA0042024B1A6023
:1029A00000BF00BFECE7000000A00040024909683A
:1029B00001F007010170704700A0004010B500222F
:1029C0000021072800DB10BD144B1B6803F0070330
:1029D00083421BD0114B1B6823F0070242F0030314
:1029E0000E4C23602346DB6823F0070141F001030E
:1029F000E36000BF00BF00BF00BF42EA0003074C16
:102A00002360074B53F820300B43E360054B53F82A
:102A10002030054C236000BFD5E7000000A0004037
:102A2000400621002406210048590020044800687F
:102A300000F00700034951F820000349086070477F
:102A400000A00040240621004859002002480168E7
:102A500041F470010160704788ED00E002480068B1
:102A6000001D05F01BBD0000CC6500200248406839
:102A7000001D05F013BD0000CC65002002488068F1
:102A8000001D05F00BBD0000CC6500200248C068A9
:102A9000001D05F003BD0000CC650020FEE7002806
:102AA00009DB00F01F02012191404009800000F184
:102AB000E020C0F880127047002807DB00F01F02FA
:102AC00001219140024A430942F823107047000057
:102AD00080E200E0002807DB00F01F0201219140A6
:102AE000024A430942F823107047000080E200E0E8
:102AF00000280DDB00BF00BF00F01F020121914044
:102B00004209920002F1E022C2F8001100BF00BFAA
:102B1000704700280DDB00BF00BF00F01F0201213D
:102B200091404209920002F1E022C2F8001100BF78
:102B300000BF7047002804DB00F1E02090F800049B
:102B4000704700F00F0000F1E02090F8140D70477E
:102B500002480068C0F30220704700000CED00E05E
:102B6000002807DB00F01F0201219140024A4309BF
:102B700042F823107047000000E200E0EFF31080FD
:102B80007047EFF310807047EFF31080704700003C
:102B900010B52DED020B2DED088B84B09DED0C0BC7
:102BA00051EC100B0DF0A4FA41EC180B9DED0C0B41
:102BB00053EC182B51EC100B0DF000FB41EC190BF2
:102BC0000D989FED290B10F0004F53EC102B51EC9A
:102BD000190B9FED21AB9FED22BB0ED00DF018F924
:102BE0000ED953EC1B2B51EC190B0DF04BFA1CD2E8
:102BF00014E000BF41EC180B17E00DF009F906D204
:102C000053EC1A2B51EC180B0DF0D8FAF2E753ECF9
:102C10001B2B51EC190B0DF035FA06D853EC1A2B7F
:102C200051EC180B0CF01AFEE4E78DED028B9DEDD4
:102C30000C0B18EE901A10EE900A8DED000B61F35C
:102C40001E0003909DED020B04B0BDEC088B02B09A
:102C500010BD000000000000000000000000F03F78
:102C6000000000000000E03F000000000000E0BFA6
:102C7000C1B281F31188704780F31088704780F3E8
:102C80001088704780F31088704780F31088704771
:102C900080F31088704700002DE9F74F04469046F6
:102CA00000BF4FEA5806019D4FF0000B744875496C
:102CB00008603F207449496860F30501724A516019
:102CC00000BF00BF1046406820F4803011464860C5
:102CD00000BF00BF6B48006820F4700040EA045059
:102CE0006849086000BF00BF0846006820F47020F3
:102CF00040EA0440086000BF0D2C07D100BF084621
:102D0000006840F40040086000BF00BF0E2C08D1EE
:102D100000BF5C48006840F480405A49086000BF2A
:102D200000BF4FF400505749096821F40051014396
:102D3000544A116000BF00201146096821F060511B
:102D40000143116000BF04201146096821F00F0102
:102D50000143116000BF002000F006F9012801D0F6
:102D6000BDE8FE8F00BF4748006840F080404549FD
:102D7000086000BF4FF0000A0DE000BF42488068C5
:102D800040F480304049886000BF0AF1010082466B
:102D9000401C00B903E006F0A9FA0028EDD100BFFD
:102DA000072000F0E1F8012800D0D9E754E04FF007
:102DB000000B2CE0BBF57A7F24D900BF31480068B6
:102DC00020F080402F49086000BF00BF084600681F
:102DD00040F00040086000BF00BF0846006820F0D7
:102DE0000040086000BF002000F0BEF8012800D0BD
:102DF000B6E726480068401C2449086005200AF60A
:102E0000DBFA4EE701200AF6D7FA0BF1010B06F0C8
:102E10006DFA0128CED100BF1B48806800F07F000A
:102E20008146B14501D9304600E0484681464FF021
:102E3000000A0DE000BF1448076800BF25F8027BB8
:102E40004FF6FF7000EA174025F8020B0AF1010A5D
:102E5000CA45EFD3A6EB0906002EA8D15EB908F04B
:102E6000010040B100BF06F041FA0128FBD100BFCC
:102E7000054800682880002000F076F800BF6FE762
:102E80000A07080700A8004000E00040305C00206E
:102E900010B5044600BF00201A49086000BF00BFFB
:102EA00018498039086000BF00BF1748406A1749B9
:102EB00008600846007800F0010020B1084600884C
:102EC00000F4807098B906E00CB9002010BD641EB3
:102ED00001200AF671FA00BF0B48806940F2011127
:102EE000884201D1012000E000200028ECD00848F1
:102EF00000680849086004484068074908600120E4
:102F0000E4E7000094D41D4200E000408C5C002007
:102F100000A80040845C0020885C00200D48006808
:102F20000D4948600D4800680D4908600D4800785B
:102F300000F0010020B10B48008800F4807040B917
:102F400000BF0548006A20F001000349086200BF85
:102F500000BF7047885C002000E00040845C0020D7
:102F600000A800408C5C002070B5044606F0B6F95D
:102F7000A04201D1012070BD00BF1048C06820F000
:102F8000070020430D49C86000BF002508E006F097
:102F9000A5F9A04200D107E001200AF60DFA6D1C48
:102FA0004FF6FF708542F2D300BF4FF6FF708542A7
:102FB00001D10020DFE70120DDE7000000E0004054
:102FC00010B500BFEFF3108004460120FFF757FE55
:102FD000204610BD70B52DED108B8AB005460C460D
:102FE0009FED510B8DED080B20216846FFF765FB27
:102FF0009FED4D0BB0EE408AF0EE608A10226946DC
:103000002846FFF749FE00260FE006F108013DF8CB
:1030100011000CF0A3FE41EC190B53EC182B0CF033
:103020001DFC41EC180B701CC6B2082EEDDB9FEDA9
:10303000400B53EC102B51EC180B0CF0C3FC41EC83
:10304000180B0D2D41D1E08A0CF088FE41EC1B0BD2
:103050009FED390B53EC102B0CF0B4FC41EC190B29
:1030600060880CF07BFE41EC1F0B9FED350B53ECA1
:10307000102B0CF009FF41EC1E0B9FED330B53ECB2
:10308000102B0CF001FF41EC1C0BA08A0CF066FE2B
:1030900041EC1E0B53EC182B0DF084F841EC1D0B8A
:1030A00053EC1C2B0CF08EFC41EC1B0B9FED280B02
:1030B00053EC102B0CF086FC41EC1A0B53EC192B43
:1030C0000CF0CCFBCDE9080127E00E2D25D160885E
:1030D0000CF044FE41EC1C0B9FED190B53EC102B34
:1030E0000CF0D2FE41EC1A0B20880CF037FE41ECBC
:1030F0001C0B53EC182B0DF055F841EC1B0B53EC4B
:103100001A2B0CF05FFC41EC190B9FED130B53ECE9
:10311000102B0CF0B9FECDE908019DED080B0AB0AB
:10312000BDEC108B70BD000000000000000000002E
:103130000000000000002040000000000000594096
:10314000000000000000F0BF000000000000004090
:1031500079E9263108AC5CBFB76DDBB66DDB0E409C
:1031600030380A2801D2012070470020704710B57E
:1031700004462046FFF783FD10BD704710B5044696
:10318000204605F0C1FE10BD10B50446204608F0EB
:1031900077FD10BD70B504460D46294620460BF05C
:1031A000B3FB2946204607F08FFE70BD01480AF0A8
:1031B00047BA0000585900202DE9F0410146002986
:1031C0001BD000240F4E0E4A357814E002EB041099
:1031D0000F780378BB420CD14B684068034208D09B
:1031E000707808B900F020FB2046BDE8F04100F0FF
:1031F0004FBA641CE4B2AC42E8D3BDE8F0810000F1
:10320000FC6B0020685900207CB505460E46002D59
:1032100001D0002418E0E5207CBD05EB04104168D6
:103220000091017A8DF80410417A8DF8051008217B
:103230008DF80610C26800780023694600F038F85F
:103240000028E9D1641CE4B2B442E6D300207CBD7E
:1032500010B502460846052A25D2DFE802F003032E
:1032600003111900114951F832200104090C05D04D
:1032700022B10146104603F005FE10E0E42010BD27
:1032800010F0FF0F02D002F023FF08E0E42010BD91
:1032900010F0FF0F05D00146002003F005FF0020CD
:1032A00010BDE42010BDE62010BD00001005210077
:1032B0002DE9F05F05460C469046994626680027A2
:1032C000042D11D031462846FFF7C2FF214628467B
:1032D00000F05EF8002808D1032D08D04FF0100A46
:1032E0002807070E002448E0E620BDE8F09F4FF0D5
:1032F000080AF7E7F0073DD03DB1012D05D0022DBA
:1033000003D0032D21D0E620EFE71E4800EBC500D7
:1033100090F904B0BBF1000F15D0EFF3108101203C
:1033200080F31088184AE01942F8308002EBC000A0
:10333000C0F8049081F31088584616F641FF5846AD
:1033400016F65CFF16E0E420CFE7EFF310810120D2
:1033500080F310880D4AE01942F8308002EBC0007B
:10336000C0F8049081F310881B2016F629FF1B205B
:1033700016F644FF7608641CE4B25445BAD3002024
:10338000B3E70000100521008C6400208C6500204C
:1033900030B597B005460C461C22454910A8FFF7EA
:1033A0005AF91C2242491C3109A8FFF754F920227E
:1033B0003F49383101A8FFF74EF9D4B13D49062005
:1033C0000AF0BEF83C4907200AF0BAF83B491B2036
:1033D0000AF0B6F83A4912200AF0B2F834496C39CA
:1033E000A1F12C02052D61D2DFE805F006060621C9
:1033F0003900E52017B030BD207931F81000119068
:10340000607932F810001290A07913902068109023
:103410002748843850F8350021880904090C04D065
:1034200018B110A903F01FFE39E0E420E2E720798B
:1034300001EB4000808A0A90607902EB4000C0886E
:103440000B90A0790C9020680990207810F0FF0F65
:1034500003D009A802F020FF21E0E420CAE7207988
:10346000031F042B01D8E720C4E7022819D001204C
:103470000290207901EB4000008D0390607902EB0F
:10348000400080890490A079059020680190207800
:1034900010F0FF0F08D001A9002003F0B9FE0020B2
:1034A000A8E702200290E4E7E420A3E7E620A1E7F2
:1034B00094052100E5401000DF401000DB401000C3
:1034C000D540100002460020052A11D2DFE802F0A4
:1034D000030303090C00074850F8320089B216F6BE
:1034E000CEBD88B202F046BF89B2002003F098BE7C
:1034F0007047000010052100002803D00249086031
:1035000001207047002070477059002070B50546B3
:103510000024091F062917D2DFE801F003070C1168
:103520001315284600F0A4F80EE00124284600F008
:103530009FF809E00224284600F09AF804E00324EA
:1035400002E0042400E00524034A214628461268CC
:10355000BDE8704010470000705900202DE9F0418F
:103560000446204600F0AEF801462E480023082607
:10357000025D00F10A0700F11405AAB1052A33D053
:10358000082A2AD1092945D0082926D1295D491CB4
:10359000C9B22955142920D32B5506552046BDE81C
:1035A000F0410821FFF7B2BF052913D0042916D036
:1035B000072914D0082910D1295D491CC9B2295501
:1035C00014290AD32B5506552046BDE8F0410821A1
:1035D000FFF79CBF3B5505210155BDE8F081204612
:1035E000BDE8F041FFF792BF05290CD0395D491CB9
:1035F000C9B239553229F0D303552046BDE8F04110
:103600000521FFF783BF03552046BDE8F0410621A1
:10361000FFF77CBF03552046BDE8F0410921FFF7C5
:1036200075BF0000DC6C002070B504460D4600F04C
:103630000FF808B100F00EF90348044A2946005D6E
:103640005268BDE870401047F06B002068590020B8
:103650000020064911F810200AB100207047401CD4
:10366000C0B20A28F6D3012070470000FA6C00208F
:103670000349002201F8102001EB4000427070471E
:10368000FA6C0020014A02F810107047FA6C002012
:10369000024A012102EB400041707047FA6C0020A1
:1036A00070B50024064D05EB4400407810B120466B
:1036B000FFF754FF641CE4B20A2CF4D370BD000081
:1036C000FA6C002070B500211D4B03F132051A5C25
:1036D000002A09D0002403F10A06012A0AD0022A8E
:1036E00012D0032A24D11FE015F8102002B30122C2
:1036F0001A541DE015F810201AB1345402221A543D
:1037000016E01C54042113E015F810204AB1325C75
:10371000521CD2B23254642A0AD3072103221A540B
:1037200006E005211C5403E015F8101011B1082122
:10373000084670BD1C54FFF79BFF0921F8E7000005
:10374000C86C0020704700002DE9F0410E46174676
:103750000A2E02D80FB100231AE00020BDE8F08144
:1037600003EB430400EB8405114AA97AD1541049B4
:1037700010F824200C3101EB031422706968616099
:10378000297A2172697A61720A49E1605B1CDBB2B5
:10379000B342E5D3064831460C30FFF735FD064805
:1037A000067047600548FFF7A7FE0120D6E7000036
:1037B000F06B0020B9312000685900202936200024
:1037C0002DE9F0410024124FDFF8488019E000266F
:1037D00007EB041528786968FFF774FE10B9697A59
:1037E000012902D0012802D005E0012603E0687A11
:1037F000022800D1012631462046FFF743FF641C12
:10380000E4B298F800008442E1D3BDE8F081000002
:10381000FC6B00206859002010B5FFF7D1FFBDE810
:103820001040FFF73DBF000010B5074A01210748CF
:1038300000F0E8F900220A21044800F0B3FA044934
:103840000120487010BD000019382000A06C002035
:103850006859002010B5034800F002FA0249002020
:10386000487010BDA06C002068590020002806D0C8
:10387000002904D0024AD269002A00D010477047BC
:10388000CC6B002070B50D4616460D4C00280AD0B2
:103890000178032911D80121A17601461A22204678
:1038A000FEF794FE05E00020A0761A210448FEF7FA
:1038B00004FFE5612662002070BD012070BD00009C
:1038C000CC6B00201CB5022801D3E8201CBD0C4B9A
:1038D00053F8200088B103797BB113788DF800305C
:1038E00053788DF80130526801920A4608306946D3
:1038F00003F0A8FC0028E9D11CBDE9201CBD000094
:103900004C59002070B50446022C01D3E82070BD4C
:10391000234D55F8240088B1017979B10021017156
:1039200055F824004171EFF31086012080F31088D0
:1039300055F8210020B1007940B901E0E92070BDBF
:10394000491C0229F4D3042008F02CFB86F31088CC
:1039500055F824000068417A012903D141680078B4
:10396000FFF776FC55F824000068417D012903D15A
:103970000169007BFFF76CFC55F82400006890F8A3
:103980002110012903D1C169007EFFF761FC55F8C0
:103990002400083003F03AFE0028D0D170BD0000AA
:1039A0004C59002010B5022801D3E82010BD074A69
:1039B00052F8200038B102792AB1083003F0DFFE56
:1039C0000028F3D110BDE92010BD00004C590020A3
:1039D00070B50546002D04D02C78022C03D3E820C6
:1039E00070BDE52070BD1F4E05F15C0046F8240057
:1039F000281D08F083F90028F4D156F8240030225D
:103A00000C3005F12C01FEF726FE56F82410281D77
:103A1000086056F8241095F8280081F83C001248F8
:103A200056F8241050F82400886056F82400083016
:103A300003F0ECFD0028D5D156F82400083003F03F
:103A4000D5FE0028CED1084804220221083008F013
:103A500091FA56F824100120087156F8241000201D
:103A6000487170BD4C590020E404210070B5044633
:103A7000022C01D3E82070BD094D55F8240060B137
:103A8000017951B1083003F0A9FF0028F3D155F8AE
:103A9000241001204871002070BDE92070BD000095
:103AA0004C59002070B50446022C01D3E82070BDAB
:103AB000084D55F8240050B1017941B1083003F0A8
:103AC000C7FF0028F3D155F82410487170BDE920D4
:103AD00070BD00004C5900207CB500240094019476
:103AE0002148FFF775FF10B120A0FEF747FB00202B
:103AF000FFF7BCFF4FF4FA66304609F657FC711029
:103B0000002000F051F814218DF8001001258DF8E7
:103B1000015001946A4602210020FFF7D3FE0121E3
:103B20000020FFF73FFF304609F640FC0020FFF77A
:103B3000B9FF304609F63AFC3C208DF800008DF8BC
:103B4000015001956A4607210020FFF7BBFE0020C7
:103B5000FFF78CFF304609F629FC0020FFF7A2FF93
:103B60000020FFF7CFFE7CBD745900200D0A50578E
:103B70004D20696E697469616C206661696C656469
:103B80002120506C6561736520636865636B2074E8
:103B9000686520696E70757420706172616D656E04
:103BA00074732E0D0A00000010B5022801D3E8201E
:103BB00010BD074A52F8200038B102792AB1083006
:103BC00003F074FF0028F3D110BDE92010BD000000
:103BD0004C59002010B50848017800290AD101216C
:103BE000017006483FF610FFBDE810400021044870
:103BF00040F6A0B810BD0000545900205D401000F0
:103C0000ADBE20002DE9F04104460D461746002DBB
:103C100004D0012D02D00120BDE8F081E4B1DFB174
:103C2000607801281AD0EFF311860220FEF782FF98
:103C30008046FEF78DFF401C0121814008EB01000A
:103C4000C0B280F3118800206070A570E761F0B207
:103C500080F311880020DFE70120DDE70620DBE7A5
:103C600010B50446002C0CD0204600F02DF9FF20A2
:103C700060700021A160E160216161610020E0616C
:103C800010BD012010BDF0B5DDE907450599816142
:103C90004FF47A76A2FB061C03FB06C3002702FB47
:103CA0000732C0E9021209196A41C0E90412002171
:103CB0000162F0BD2DE9F0410446002C13D0EFF372
:103CC00011850220FEF736FF0746FEF741FF401C34
:103CD000012606FA00F03844C0B280F31188124879
:103CE000002121620EE00020BDE8F081D4E9043219
:103CF000D1E9047CDB1B72EB0C0202D2016A216267
:103D000003E00846016A0029F0D1046266700648A3
:103D100010380168491C0160016B4160E8B280F312
:103D200011880120E0E70000F06500202DE9F04156
:103D300005460024EFF311860220FEF7FBFE07463E
:103D4000FEF706FF401C012181407818C0B280F3C5
:103D50001188134A106BE8B115B102F1100010E0A0
:103D60000446206A10631068401E10600CE0A942EF
:103D700006D11168491E1160296A01622C4603E0D0
:103D80000846016A0029F2D124B100202062607047
:103D9000106B5060F0B280F311882046BDE8F081CE
:103DA000E06500202DE9FF5F82460E4693464FF006
:103DB0000008BAF1000F20D0414886421DD8E6B174
:103DC000EFF311870220FEF7B5FE0446FEF7C0FEB2
:103DD000401C012181406018C0B280F31188504618
:103DE00005F062FA10B19AF8010040B1F8B280F320
:103DF00011880F2004B0BDE8F09F0120FAE706F01B
:103E000071FF04460D464FF47A7106FB01F022461D
:103E10002B46002105F0E6F8DFF8A890B0B1D9F8FC
:103E2000040048B1D0E90410091B60EB0500C9E9A2
:103E3000021006F0D1FF04E00021C9F80810C9F80B
:103E40000C104FF00108D9E9020106E0D9F804008E
:103E5000D0E90421101B61EB0501CDE902013246D6
:103E60000023CDF800B05046FFF70DFF5046FFF796
:103E700021FF09F081FA4FF0E024D4F800014FF05F
:103E8000806510F0806F01D0012000E0002020B993
:103E90001A20FEF704FEC4F80051B8F1000F0AD052
:103EA000D9F80400D0E90431D9E90202181A61EB0B
:103EB000020106F04DFFF8B280F31188002099E767
:103EC000008AB907E06500202DE9F041044600258D
:103ED000002C39D0EFF311870220FEF72BFE0646A7
:103EE000FEF736FE401C012181407018C0B280F3FD
:103EF00011886078012824D1144E7068A0420BD13B
:103F000006F0F0FED4E90432181A62EB0102C6E9A9
:103F1000020206F061FF01252046FFF707FF5DB1B1
:103F2000706848B1D0E90421D6E90203101A61EBA8
:103F3000030106F00DFF04E01DB9706808B906F032
:103F40004BFFF8B280F31188BDE8F081E0650020F6
:103F500070B504461A4D55F82400703009F07DF90B
:103F600082B21646A2B155F8240090F80111012939
:103F70000ED0012180F80411802A0FD355F82400B7
:103F8000802200F18001703009F07CF980260CE07D
:103F900055F82410002081F8000170BD55F8240068
:103FA00000F18001703009F06DF955F824003246B7
:103FB00000F18001001D04F043FB0028EDD170BD2D
:103FC000CC650020704700002DE9F8430446514EAF
:103FD00056F82400071D042C7ED290F86C1000299E
:103FE0007AD0012978D190F80011012974D190F884
:103FF0000111002970D1012180F80111002556F826
:104000002400D0E903120A44017D01F00101C91D19
:1040100002EB01084168CA6FC2F38002002AFAD09D
:1040200090F80411E1B1DFF8F0906D1C56F824000F
:10403000001D04F081F910280BD056F82400D9F89F
:1040400000108068B1FBF0F000FB08F0B5EBC01F7A
:10405000EBD956F82400703009F0FFF885B226E05D
:10406000B0F82480C58C001D04F020F856F8240018
:1040700041F2883300EB0801491B8031001D2A46BC
:1040800004F08CFAE5E756F8240001227030694606
:1040900009F0F8F856F824004068C16FC1F34001F8
:1040A0000029FAD09DF8001001606D1EADB2002D00
:1040B000E9D156F82400703009F0CFF80028C8D1B3
:1040C000386841694906FCD5EFF31085012080F37B
:1040D000108856F8240000E01AE0703009F0BDF8AE
:1040E00058B1EFF31081012080F3108838684268DE
:1040F00042F08202426081F3108856F824100020BA
:1041000081F8000156F8241081F8010185F3108828
:10411000BDE8F883CC650020485900202DE9F04126
:1041200005460F46002D06D02AB12C78042C04D366
:10413000E820BDE8F081E520FBE7344E05F15800AA
:1041400046F82400D2E900310A467030194609F0D9
:104150006FF8291D286D0AF0CFFC0028E9D156F828
:104160002410281D486656F82400076056F82400DD
:104170001822083005F14001FEF76DFA244856F880
:10418000241000EBC4056868486056F82400001D40
:1041900003F0F0FF56F82400001D04F0DBF81C4883
:1041A00001220321103807F0E5FE56F82410012003
:1041B00081F86C0056F82410002081F8000156F8B0
:1041C000241081F8010156F8241081F8020156F8F4
:1041D000241081F803010F490C2009F0B1F90E49B0
:1041E0000D2009F0ADF90D49342009F0A9F90C4969
:1041F000352009F0A5F995F9010015F6E1FF95F9CB
:10420000010015F6FBFF002093E70000CC650020BD
:10421000FC0521005D2A20006D2A20007D2A200057
:104220008D2A20002DE9F04104461A4D55F824004E
:10423000703009F012F882B2164600277AB155F8AC
:10424000240090F80111012909D0802A0ED300F131
:1042500080017030802209F015F880260BE055F8B7
:10426000240080F800710020BDE8F08100F1800199
:10427000703009F007F855F8240080F8047155F8FB
:104280002400324600F18001001D04F041FA0028AC
:10429000EAD1E9E7CC65002070B5042801D3E82015
:1042A00070BD0C4D55F820407CB194F86C6066B13F
:1042B00069B162B1002684F8026155F82000001D42
:1042C00004F06CF90028EBD170BDE52070BDE4204E
:1042D00070BD0000CC6500202DE9F74F84B0054685
:1042E0000C46022604F10809204601F0CDFD0746E0
:1042F0003E48D0F804A000200390B5F5804F0ADBBB
:10430000B5F5004F07DA3948406839490968A0EB2C
:10431000010A01200390E019504501DD052662E005
:104320003248006800F6FF7030490988491EC1F321
:104330000B01401AC0F3073B039810B12C480068EA
:1043400000E0002002902B4800682B490968401AC1
:10435000001F2649497AA1EB0B01A0EBC1002349BC
:104360000968411A0298A1EB000809EB07004045D3
:1043700032DD002011231E224FF400410090012065
:1043800043F63CFA0021084601F0DAFBC8B91749A8
:10439000487A04F0DFFC06461EB1304607B0BDE89F
:1043A000F08F002012231E224FF4004100900120C4
:1043B00043F624FA21462846069A0AF08DFE064660
:1043C00010E0002013231E224FF400410090012032
:1043D00043F614FA0F2605E021462846069A0AF00D
:1043E0007BFE064600BF3046D8E70000C46E0020C2
:1043F000C45A0020D85A0020D05A002010B56FF0BF
:104400000200814908603820002807DB00F01F0205
:10441000012191407D4A430942F8231000BF00204A
:104420007B49086000BF7A481C30006840F00200F9
:1044300077491C3108600846006840F001000860B8
:104440000846006820F00200086000BF00BF704806
:10445000001F006840F001006D49091F0860084610
:10446000006820F00200086000BF00BF06F06CF991
:104470000028FBD1022066493839096821F0030180
:1044800008B9002206E0022802D140F2AA2201E087
:1044900040F2FF3202F0030211435D4A383A1160E4
:1044A00000BF02201146096821F00C0108B9002262
:1044B00006E0022802D140F2AA2201E040F2FF32D7
:1044C00002F00C021143524A383A116000BF022038
:1044D0001146096821F0C00108B9002206E002284F
:1044E00002D140F2AA2201E040F2FF3202F0C00203
:1044F0001143474A383A116000BF0320444940390C
:10450000096821F0030108B9002206E0022802D15F
:1045100040F2AA2201E040F2FF3202F0030211430E
:104520003B4A403A116000BF03201146096821F060
:104530000C0108B9002206E0022802D140F2AA22AA
:1045400001E040F2FF3202F00C021143304A403ADF
:10455000116000BF03201146096821F0C00108B9AD
:10456000002206E0022802D140F2AA2201E040F235
:10457000FF3202F0C0021143254A403A116000BFE9
:1045800000BF012022493439086000BF00BF06F097
:10459000DBF80028FBD100F7F3FE00F7F8FE00BFC0
:1045A0001B481C30006840F0040019491C310860A9
:1045B00000BF00BF1648001F006840F00400144907
:1045C000091F086000BF012009F0CEF800BF1148A4
:1045D000006820F040000C499839C1F8800200BF03
:1045E00000BF0846D0F8800220F01000C1F8800219
:1045F00000BF00BF0846D0F8800220F02000C1F8BC
:10460000800200BF10BD000098A0004080E200E0E2
:10461000C4A4004080A2004010B500F7B8FE00F727
:10462000AFFE00BF1048006840F002000E4908606D
:104630000846006820F00100086000BF00BF0A487B
:104640002030006840F0010007492031086008462A
:10465000006840F0020008600846006820F0010091
:10466000086000BF10BD0000C0A4004038B509F0CC
:1046700083FC28B140F27E41084609F0D5F904E0F8
:1046800040F27E41084609F0CFF92748007878B11A
:1046900026480068009009F0E1F9044624480088A3
:1046A000009009F0DBF90546214609F0F3FB05E02F
:1046B0004FF466714FF47F7009F0ECFB1D4807F072
:1046C0000BFA09F059FC10B91B48007880B91B4857
:1046D00018490A6802604A684260098901811849DC
:1046E000144802680A6042684A600089088119E03B
:1046F0001249104802680A6042684A6000890881CD
:104700000F490C4802680A6042684A6000890881C3
:1047100040F21A400949088009F01CF907498880CD
:104720000120487238BD0000805C00207C5C0020C5
:104730007E5C0020525C00203E5C00205C5C00201F
:10474000665C002010B540F6D9FB10BD10B500F036
:1047500099F800F059F8BDE8104000F079B8000071
:1047600010B50121002003F0EDFB012014F628FC18
:1047700002200649087008F05BFE0549322008F067
:10478000DFFE3220FEF7C5F910BD0000205E0020DC
:104790008728200010B52DED028B00BF1748006858
:1047A000C0F30B00044600BF14480830006820F036
:1047B0007F4008EE100A601C00EE100AB8EE400AB6
:1047C000DFED0F0A20EE200AB8EE481AC0EE010A0B
:1047D000B6EE000A30EE800ABCEEC00A094880ED51
:1047E000000A006807F050F9F0EE408AB0EE680A5F
:1047F00009F0E6FBBDEC028B10BD000004E40040B4
:104800000024F44B0C5E002000B587B003208DF827
:1048100004000821029105218DF80C1001228DF869
:104820000D2000238DF80E308DF81000102005901B
:104830008DF818108DF8192004208DF81A00034AFD
:10484000022101A8FEF780FF07B000BD4537200018
:104850007CB50825009502248DF804408DF80540AC
:104860008DF8065069460420FEF792FD0420009062
:104870008DF804408DF805408DF806506946FEF726
:1048800087FD7CBD00B587B000F01EF803208DF8D1
:1048900000001D208DF8160001208DF817008DF8FE
:1048A00018008DF81900044A04496846FEF7EAFF2B
:1048B000FEF77CFC07B000BDC1482000294920005C
:1048C0000020FFF781BB00007CB5144800904FF436
:1048D0008065019500F58060002101704FF4E132A0
:1048E0000264032444648164C16401650123436557
:1048F0000174DA024261022242740376017185601A
:104900004271017306494163816380F83C2080F85D
:104910003D406A460349FFF701FC7CBDD45E0020A0
:1049200000900140C53F20000A4601464FF47A73CB
:104930000020FFF7B1BC014600200A2904DC40F644
:10494000641000EB410012E0242904DC40F66610FC
:1049500000EB41000BE0252902D140F6621006E091
:10496000262902D140F67A1001E04FF41B6070470F
:1049700010B50021084603F0E5FA012014F618FBF3
:104980000348806820F480700149886010BD0000F1
:1049900000A0004010B516480068401C144908608B
:1049A00000BF1448006800F0010040B100BF11488A
:1049B0000838006800F0010008B108F091FD00BF60
:1049C0000D48006800F0010040B100BF0A480838F7
:1049D000006800F0010008B100F0F2FD08F0C2FC30
:1049E00020B104F04DF808B1FFF7C2FF10BD000080
:1049F000385E002008E4004008E5004010B508F0EB
:104A000095FD00F083FD10BD10B507F0ABFABDE8D1
:104A1000104000F019B900007CB504460D4624E0B2
:104A20002178154A126802EB01300822694600F02D
:104A30007FF8082814D1BDF800004FF6FF718842B6
:104A400000D10FE09DF800000C49C870BDF80200CD
:104A500088809DF8010028702078487000207CBD77
:104A60001020FCE72078401C207020780449497A07
:104A70008842D5DB0020F2E7D05A0020C85A002037
:104A8000C46E002010B500BF2348006820F000402D
:104A90002149086000BF214A1078214A117840EA74
:104AA00081031D4A121D126863F31F721A4B1B1DEE
:104AB0001A6000BF06201946096821F4E07141EA36
:104AC00080111A46116000BF00BF101F006840F03F
:104AD0000040111F086000BF00BF1248006840F08E
:104AE00001001149C1F8880200BF1049312008F0C7
:104AF00027FD312000280DDB00BF00BF00F01F02A2
:104B0000012191404209920002F1E022C2F8001115
:104B100000BF00BF00BF10BD04A90040205C002002
:104B2000215C002088E2004000E000409128200045
:104B30002DE9F04104460D4616460948007810B1AB
:104B4000002006F009F832462946204605F0EEFF1F
:104B500007460348007805F0FFFF3846BDE8F081BE
:104B6000DD5A00202DE9F04105460E46144609485D
:104B7000007810B1002005F0EFFFA2B231462846C0
:104B800005F0FAFF07460348007805F0E5FF3846D0
:104B9000BDE8F081DD5A00202DE9F04105460E46C2
:104BA00014460948007810B1002005F0D5FFA2B2E4
:104BB0003146284606F041F807460348007805F0DC
:104BC000CBFF3846BDE8F081DD5A00202DE9F041E9
:104BD00004460D4616460948007810B1002005F03D
:104BE000BBFF32462946204606F066F807460348D2
:104BF000007805F0B1FF3846BDE8F081DD5A0020AD
:104C00002DE9F04104460F4615464FF00008206894
:104C100000F6FF702188491EC1F30B01401A21687C
:104C20002944884201D84FF008082A4639462068AE
:104C3000FFF7B2FF86B205EB080120680844206048
:104C40003046BDE8F0810000024901480860704725
:104C50002D4D10006C03002010B50246012302B157
:104C600009B9002010BD084C1068A04202D10020F4
:104C7000087007E0054C1068A04202D101200870BE
:104C800000E000231846EDE70090014000A001403D
:104C90002DE9F84305460F46202000906946284636
:104CA000FFF7DAFF012837D19DF8001088401B4933
:104CB0000968084080B35FBB00BF00BFEFF31080FE
:104CC0000646012080F3108800BF4FF00008144909
:104CD0002868884202D1DFF84C8007E01249286832
:104CE000884203D1DFF83C8008F11808002408E06E
:104CF00058F8240018B158F82400FFF65DFE601C37
:104D0000C4B2062CF4DB00BF86F3108800BF00BFDE
:104D10009DF8000003F048F8BDE8F883D45C00205B
:104D200000900140C471002000A00140F8B5044685
:104D30000D4620200090002604B9F8BD69462046A3
:104D4000FFF78AFF012810D1012D02D00DB10126F5
:104D500006E02068D0F8A00308B9002600E001268C
:104D600031469DF8000003F0CDF884F82D5000BFC7
:104D7000E3E738B504462020009069462046FFF757
:104D80006BFF012803D19DF8000003F09DF838BDAA
:104D900070B504460E46002E43D03749206888423D
:104DA0001CD12079062819DA00202179334A42F8EB
:104DB0002100002506E0314850F8250000B103E04D
:104DC000681CC5B2062DF6DB00BF062D52D10020AF
:104DD00003F04EF8002002F0D1FF4BE02849206894
:104DE000884247D12079062844DA002122792348D5
:104DF000183040F82210002507E02048183050F8FD
:104E0000250000B103E0681CC5B2062DF5DB00BF2C
:104E1000062D2FD1012003F02BF8012002F0AEFF68
:104E200028E01549206888420FD1207906280CDA3D
:104E30002079124941F820401249002003F000F87F
:104E40000E49002003F02AF814E00D49206888423A
:104E500010D1207906280DDA21790848183040F859
:104E600021400849012002F0EBFF044918310120DC
:104E700003F014F870BD000000900140C4710020E0
:104E800000A001408149100070B506460C46154649
:104E900000BF6FF4004000EAC43028B140F2F322B2
:104EA0000CA111A001F6FCFA00BF00BFE80BC00383
:104EB00028B14FF43D7207A11AA001F6F1FA00BF24
:104EC00045EAC43081B294207043254A1044A0F8CA
:104ED000661170BD72665F6764785F62616C626F55
:104EE00061322E630000000028282875696E743135
:104EF000365F7429727877696465203C3C203135CF
:104F0000292026207E282875696E7431365F742921
:104F1000307830303030383030302929203D3D2055
:104F20003000000028282875696E7431365F7429B6
:104F3000727877696E737A203C3C203029202620D5
:104F40007E282875696E7431365F74293078303068
:104F50003030374646462929203D3D2030000000AC
:104F600000800E4070B5064C4FF4807628252A4606
:104F7000214604483044FDF729FB00BF70BD000006
:104F80001007210000800E40F0B504460D4616467D
:104F90001F463B4632462946204600F009F803F0FA
:104FA000F5FDF0BD014800787047000058750020FD
:104FB00030B501240A4D2C702C466060E2602361FC
:104FC000A160084CA4688C4203D2064CA4680C1B58
:104FD00002E0044CA468641A014D6C6130BD00000D
:104FE000587500203C5E002010B503F0A7FD044674
:104FF00018210548FDF761FB002003490870204691
:1050000000F07AF910BD0000587500202DE9F04736
:10501000054688461646324C324887684FF00009EC
:1050200094F800A026626562BD4201D9E81B00E049
:10503000781B81462B48C068484507D33346424613
:1050400029460020FFF7A0FFBDE8F087A06948458A
:1050500002D9C4F81890E661BAF1010F21D1656157
:105060006069B84203D92069401CA06002E0206951
:10507000401EE060D4E9020188420BD2D4E902016B
:10508000084440082061012020704046216900F05A
:105090002BF8D9E7022020704046A16800F024F8E0
:1050A000D2E7BAF1020F10D1E069B04206D133461F
:1050B000424629460020FFF767FFC5E7032020701E
:1050C0004046E16900F010F808E0BAF1030F05D19D
:1050D0003346424629460020FFF756FF00BFB3E79C
:1050E000007500203C5E002070B504460D46064861
:1050F000806A401C04498862AAB2E1B2034B586836
:10510000034B03F0CBFC70BD007500203C5E00201B
:105110000D50200070B505460F4C2C212046FDF7A0
:10512000CCFA0020A06040F2FF10E060D4E9020158
:105130000844400820614FF0FF30A061A06A401C85
:10514000A06201202070238A9AB2E9B2034B58680A
:10515000034B03F0A3FC70BD007500203C5E0020F3
:105160000D5020002DE9F84306460D469046344C7C
:1051700094F80090B9F1010F0AD1E66040F2FF10F7
:10518000206102220146284600F09CF8BDE8F88321
:10519000B9F1020F4AD100270020009066616846ED
:1051A00000F050F807461FB92846FFF7B3FFEDE7B8
:1051B000012F12D10F2D07DA0020A0600122681CF8
:1051C000A16800F07FF8E1E70520E06143462A4648
:1051D0003146E069FFF7D8FED8E7022F12D1002D43
:1051E00007DD0020A060681E0122002100F06AF89F
:1051F000CCE70620E06143462A463146E069FFF7E6
:10520000C3FEC3E7032F08D10098E06143462A4656
:105210003146E069FFF7B8FEB8E70720E061434692
:105220002A463146E069FFF7AFFEAFE70820E061AC
:1052300043462A463146E069FFF7A6FE00BFA5E7D0
:10524000E074002070B504461C491D48036982685B
:1052500000250026C868904204D94869904201D9C7
:10526000022070BDC868904204D24869904201D2C1
:105270000120F6E7C868904202D9C868801A01E0A8
:10528000C868101A05464869904202D94869801AD0
:1052900001E04869101A06469D4203D39E4201D39D
:1052A0000020DEE79D4201D20120DAE79E4201D2D2
:1052B0000220D6E70320206000BFD2E7E074002080
:1052C0003C5E00202DE9F04105460E461746074C8E
:1052D000A069401CA06165602770B2B2E9B2044BBE
:1052E0005868044B03F0DAFBBDE8F081E07400205D
:1052F0003C5E00206551200070B50546064C20211B
:105300002046FDF7DAF90020A06001222846A168B6
:10531000FFF7D8FF70BD0000E07400202DE9F843CE
:1053200005460E4617462A4C4FF00008C14600209D
:105330000090E069401CE0616660A760E068206161
:10534000E56024488068A84203D222488068281A71
:1053500002E020488068401B80466069404502D9D1
:10536000C4F81480A761684600F036F88146B9F1A8
:10537000000F09D0B9F1010F0CD0B9F1020F11D013
:10538000B9F1030F1AD113E00020A062204600F00B
:10539000CCF819E0012084F820003046A16900F023
:1053A00087F811E0A068411C304600F081F80BE05E
:1053B000A068411E304600F07BF805E00098A0622E
:1053C000204600F0B2F800BF00BFBDE8F88300003F
:1053D0002C7500203C5E0020F0B50346324933486E
:1053E0008268002400250026C868904202D9C86857
:1053F000801A01E0C868101A04462C48C068A04210
:1054000001D30020F0BD486A012801D10020F9E74E
:1054100091F82000012801D10020F3E74F6AC86904
:10542000B84209D38F688869B84201D10020E9E702
:10543000012081F82000E5E7C869012815D908692D
:10544000904202D9C868904205D3086990420CD2B4
:10545000C868904209D98F688869B84201D1002094
:10546000D0E7012081F82000CCE7C868904201D93C
:10547000012500E001264DB18868B0F5FF7F03D912
:10548000092018600420BDE70220BBE73EB1886810
:1054900018B90A2018600420B4E70320B2E70B20F3
:1054A00018600420AEE700002C7500203C5E002050
:1054B00070B504460D46AAB2E1B2034B5868034BDF
:1054C00003F0ECFA70BD00003C5E00201D5320008C
:1054D00070B504460D4616462C210948FDF7EDF837
:1054E0000020074981F82000401E486108464462B8
:1054F000B2B2E9B2034B5868034B03F0CFFA70BD68
:105500002C7500203C5E00201D53200010B503F0D8
:10551000A9FA00B910BDFFF745FD10B9FFF764FD0A
:10552000F8E700F02DF800BFF4E700B50346184691
:1055300000F004F803F02AFB00BD000001210E4A30
:105540001171816A9160C169D160C168116141685E
:10555000516181689161094AC1689268914204D998
:10556000064AC1689268891A03E004498968C268DA
:10557000891A014AD1617047707500203C5E002095
:105580002DE9F04103F0DAFA064603F0E9FA07469E
:10559000094804680948456920210748FDF78DF846
:1055A000601C05490860002008713A4631462846CB
:1055B000FFF78EFFBDE8F081707500203C5E002093
:1055C00010B512480069401C1049086103F0E4FA64
:1055D0000E49C86003F0B2FA0C49486003F0C0FA03
:1055E0000A49886000200A4908600849486108465D
:1055F000C06940B10C462489A2B20C462179E0680A
:10560000E369984701E003F0C1FA10BDC0740020BF
:1056100000E500402DE9F04106460F461C4C4FF6D0
:10562000FF75238C102B0AD3208821466084CD83FC
:105630005B1E0B841E22891C2046FCF7C7FF608C72
:105640003246394605F07CFF10B10C20BDE8F081F0
:10565000208C102804D3401C2084608CE08308E058
:10566000618C24F81010208C401C2084608C401C1D
:10567000608400F00FF80028E8D0218C491E89B220
:105680002184628C521E628424F81150DEE70000EF
:10569000186A002010B5054A24214FF4204005F077
:1056A0004FFF08B10C2010BD002010BD186A00206B
:1056B0007CB500251B48006800F108041A480078F2
:1056C00010B1002005F048FA00BF082269462046C4
:1056D00005F052FABDF800004FF6FF71884202D083
:1056E000BDF8000008B9254615E0BDF8020000F03D
:1056F000CBFBBDF802100831084486B23146204683
:1057000000F0D8FB044609480068844202D30748E9
:10571000056800E0D9E700BF0348007805F01CFAEF
:1057200028467CBDD05A0020DD5A0020D85A0020DF
:10573000FEB506460C4602AA2146304608F0E0FFB8
:1057400008B10298FEBD029808B1029802E0224812
:10575000006808300546002002902048007810B10B
:10576000002005F0F9F900BF08226946284605F037
:1057700003FABDF800004FF6FF71884203D1002004
:105780002080029020E0BDF80000B04205D114B1A5
:10579000BDF802002080029516E0BDF8020000F07E
:1057A00073FBBDF802100831084487B23946284619
:1057B00000F080FB05460A480068854203D30020BC
:1057C0002080029000E0CFE700BF0448007805F099
:1057D000C3F90298B6E70000D05A0020DD5A002035
:1057E000D85A002010B50021084B5A685B8809E0A0
:1057F00052F83140844203D102EBC100406810BD31
:10580000491C89B29942F3D310BD0000485A0020C8
:1058100010B50021084B5A681B8809E052F8314046
:10582000844203D102EBC100406810BD491C89B21B
:105830009942F3D310BD0000645A002008B506F069
:1058400013F901F0B9FA90B100208DF80000A320FF
:105850008DF8010002208DF802006846FEF632FF46
:1058600005F066FF08F04CFD05F0E4FF08BDFEE71B
:1058700002494968002900D008477047005D0020B0
:1058800070B5044600BFFDF779F905460120FDF724
:10589000F3F90648047024B9482205490548FCF785
:1058A000DAFE2846FDF7E8F900BF70BD405A002037
:1058B000586D0020002000E010B5074840680749F7
:1058C000486006480830402203490831FCF7C3FE0F
:1058D00003200249086010BD106D0020002000E088
:1058E000002003490968002900D0084770470000DC
:1058F000005D002070B500BFFDF740F905460120AE
:10590000FDF7BAF90948047834B94822084909482A
:10591000FCF7A1FEFFF7D0FF0120044908702846DC
:10592000FDF7AAF900BF204670BD0000405A0020D4
:10593000002000E0586D002013B501216846FDF7F6
:1059400095FF01201CBD0000F0B404460020002596
:1059500000266FF48857E419174F06D0012C07D0A2
:10596000022C0CD0032C0CD105E03D687E6808E0C9
:10597000BD68FE6805E0BD69FE690B7801E03D6920
:105980007E69002414E035F834709F420FD105EB96
:10599000C4046468002C0DD00848844203D1F0BCD4
:1059A00098B202F06FBFA446F0BC98B26047641C86
:1059B000B442E8D3F0BC7047B40C002021BB010016
:1059C0002DE9F04102460F461E4600200024002526
:1059D0006FF488515118144A04D0012905D00329C5
:1059E00009D105E01468556805E09468D56802E0BF
:1059F000146955693E78002212E034F83210B14241
:105A00000DD104EBC201496800290BD00846FFF70D
:105A1000FFFE0246B0B23946BDE8F0411047521CC5
:105A2000AA42EAD3BDE8F081D40C00202DE9F84366
:105A30000C463DA0006800906A46214600200FF603
:105A4000DFFD0746012F65D1607800F00F084FF0A9
:105A50000009A18C608C0EF6A9FD08B1402553E029
:105A6000324E86F8749086F8729002F6F7F8304954
:105A70002046096888470546280045D102203DF6A2
:105A800033FC86F872802B48006808B18069804733
:105A900086F87B9094F82A0086F87A0096F87200CF
:105AA000800820D04120E17E86F875108A0704D452
:105AB00021F0020086F875001720E18C4FF4006297
:105AC000914200D31146884200D9014689B2A6F816
:105AD0007610228D8A4200D21146884200D80846AC
:105AE000A6F8780001E086F875901048102204F1BD
:105AF0000A015C30FCF76AFDA07EC00704D0606834
:105B0000F0662089A6F870003DB10B4A29460020B6
:105B1000126890473846BDE8F883084A00210846D5
:105B200012689047F6E700000300000054140020BC
:105B3000D80500200C070020C4050020D405002053
:105B40002DE9F04F8DB08046894608200C90002446
:105B500000200B904FF0080A0A90CDF82490019095
:105B6000B8F1000F4ED0082204A9A5480068FEF73E
:105B7000DFFF082803D00F200DB0BDE8F08F9DF89F
:105B80001000A52836D19DF811109E4A126802EB2C
:105B9000013101F1080002226946FEF7C9FFBDF894
:105BA00000004FF6FF7188420CD09DF81110954A05
:105BB000126802EB01304FF4805104F081FF08B904
:105BC0001020D9E79DF812000B90BDF816000C903C
:105BD0009DF81100401CC4B29DF812000B9009AB57
:105BE0000CAA0BA904A809F023FC012801D100206C
:105BF000C2E71DE08448C0880C90834844788078D0
:105C00000B9015E0FFF754FD054605F6FF70691E81
:105C1000C1F30B01401A7B490968401A0121C1EB0D
:105C20001030C4B20B9414B101200990019000BF50
:105C300008F088FCDDE00020069007905CB1714917
:105C4000096801EB0430042206A9FEF771FF04285D
:105C500001D00F2090E76C48002101604160A52031
:105C600069490870084644709DF82C008870BDF89A
:105C70003000C8809DF81800C870BDF81A008880F0
:105C80006048006800EB043050440A905C480068AB
:105C9000504408904FF480515948006804F010FFB8
:105CA00008B9102068E79DF8180048B19DF8182041
:105CB000012308A90AA809F091FB08B10F205BE7AE
:105CC000BDF81A0048B1BDF81A20002308A90AA897
:105CD00009F084FB08B10F204EE700BF49490A983C
:105CE0000968401AA0EB0430C0F58055082D2DDD61
:105CF0000120082302AA08A900900AA809F038FB8D
:105D000008B10F2038E7BDF808004FF6FF71884250
:105D100000D133E0083DBDF80A0000F0B5F8BDF849
:105D20000A104718AF4208DDAAB2002308A90AA842
:105D300009F054FBD8B10F201EE7BAB2002308A91E
:105D40000AA809F04BFB90B10F2015E7A8B200F0AC
:105D50009BF828441FFA80FB01205B462B4A08A9C8
:105D600000900AA809F004FB08B10F2004E72448BA
:105D70000899006800F580508142AFD300BF082227
:105D800021491F480068FEF721FF082801D00F2095
:105D9000F2E61C49096801EB04304FF4805104F02D
:105DA0008FFE08B91020E7E6019868B11549096827
:105DB00001EB0430042206A9FEF708FF042801D0F5
:105DC0000F20D9E60020019009AB0CAA0BA90E48C0
:105DD00009F02EFB0646012E06D101030848006893
:105DE00004F06EFE0020C7E60EB10F20C4E6601C72
:105DF000C4B20748407AA042BFF61DAF0020BBE600
:105E0000D45A0020D05A0020C85A002064700020C4
:105E1000C46E002001460020087108790A781044F9
:105E2000087108798A78104408710879704710B5AC
:105E300002460020507100BF05E053790C5C2344FA
:105E40005371431C98B253888342F6DC507910BDDD
:105E500010B500220A480068C0F3160108489C38B3
:105E6000D0F8A000C0F3160205481C380068C0F343
:105E7000C113501A034C54F82340604310BD000076
:105E80009C200F40805E002001460020084A1278C6
:105E900062B10A46CB1701EB93739B10A1EB83030E
:105EA000DB43D8B2421CD0B200F0030070470000C0
:105EB000DD5A002070B506460C46002535192146EE
:105EC000304603F0FDF908B1082000E00020054449
:105ED000284670BD024600210BE0084850F83130DA
:105EE000501E834204D1054800EBC1004068704752
:105EF000491C1029F1DB0020F9E70000A06D00200B
:105F0000002101E0491C4008C207FBD00846704749
:105F10000248006800F480707047000040A3004011
:105F20002DE9F04704460D464FF0000800BFFCF78E
:105F300025FE81460120FCF79FFE2D4800681028B1
:105F400002D34FF0FF384BE048222A492A48FCF799
:105F500082FB482229492748FCF77DFB2848244931
:105F6000096840F831402249096800EBC1004560EA
:105F700027884DF6FF7624F0010425F0010504F092
:105F8000030080B1A01E40F001011A480830184AF1
:105F9000126840F8221007EB06401A49144A1268AA
:105FA00041F822000CE044F0010112480830104A88
:105FB000126840F8221013480D49096840F8216022
:105FC00048220C490D48FCF746FB48220A4909487B
:105FD000FCF741FB06480068401C0549086000BF0B
:105FE0004846FCF749FE00BF4046BDE8F087000088
:105FF000445A0020002000E0586D0020106D002061
:10600000A06D00208079002070B5044600BFFCF729
:10601000B5FD05460120FCF72FFE00201149087050
:106020001148124908601248124908604822124972
:106030001248FCF710FB12480F4948600320086023
:1060400048221048FCF707FB48220C490A48FCF795
:1060500002FB882C01D008F00BF92846FCF70CFE57
:1060600000BF70BD405A002081582000045D002010
:10607000F5582000005D0020002000E0586D002051
:1060800080790020106D00202DE9FE430546002494
:1060900003208DF8000000260C4F4FF00108E807A0
:1060A0000BD008FA04F0019007EBC400406802909E
:1060B00057F8341009B168468847641CA4B26D08CB
:1060C000761C082EEBDBBDE8FE8300008C6500200B
:1060D0002DE9F0470446002600252046FEF604FC84
:1060E000214601204FF47F0808EA01424FF47F481F
:1060F00008EA0123012801D0032801D1904601E0DC
:106100004FF000084746022801D0032801D19846E5
:1061100001E04FF00008C446DFF87081D8F8E48150
:1061200028EA020848EA0708DFF86091C9F8E48124
:10613000C846D8F8E48128EA030848EA0C08C9F8F8
:10614000E48100BF2046FEF6D7FB204603F0D6F8D8
:10615000204602214FF47F4808EA0023C2B20129F9
:1061600001D1984601E04FF00008474611B94FF0C1
:10617000000800E09046C446DFF81081D8F8E881B6
:1061800042EA030928EA09084CEA070948EA09082B
:10619000DFF8F890C9F8E88100BF012094FAA4F272
:1061A000B2FA82F13A4A126822EA046300FA01F272
:1061B00043EA02624B46C3F8E82100BF00BF94FAED
:1061C000A4F7B7FA87F102090346314F3F1D3F6834
:1061D000A74302FA01FC47EA0C07CC46CCF8EC7165
:1061E0004F46D7F8EC7127EA042C03FA01F74CEA82
:1061F0000727CC46CCF8EC7100BF204600214FF4B5
:106200007F0202EA0040224A121D1268824309B14D
:10621000034600E000231A431D4B1B1D1A6000BFFC
:1062200025462EE095FAA5F0B0FA80F1012000FA9B
:1062300001F6681E05403046082190FAA0F3B3FA33
:1062400083F39A00082908D1114B0C331B6823EA09
:1062500000430E4FC7F8F43111E00E4B1B680F27B7
:106260009740BB4301FA02F73B430A4F3B60084BA0
:106270000C331B6843EA0043044FC7F8F43100BFF6
:1062800000BF002DCED1BDE8F087000000A0004087
:10629000E8A1004074EE004010B588B004460CB987
:1062A00008B010BD20680090207900F00300019034
:1062B000A0680290E06803902069049060690590EE
:1062C000A0690690606800090790684603F022F80C
:1062D00000BFE5E770B5FF2024490968C9B2014055
:1062E0000C4600BF2248D0F88400C0F340000546A9
:1062F00064B3204603F002F800BFE0431B49086086
:1063000000BF00BF6FF002001949C1F8840000BF50
:1063100000BF16481838006800F0010040B104F0D2
:10632000100028B124F010041020FEF6E5FA11E068
:1063300000BF0F48806800F0010040B104F0200069
:1063400028B124F020042020FEF6D6FA02E02046F0
:10635000FFF79AFE45B13CB900BF6FF00200044957
:106360008431086000BF00BF70BD000008A200407B
:1063700000A00040014608464FF07F4202EA00605C
:10638000044A12680240824201D1012200E0002248
:10639000D0B27047E4A1004001218140024A126856
:1063A0008A4301490A607047545E0020034804494B
:1063B000086004480449086070470000AB521000B0
:1063C000DC0A002013531000E00A00200121814064
:1063D000024A12681143014A11607047545E00205E
:1063E00010B504460448006820B1204602490968F7
:1063F000884710BD0120FCE7B85C002010B50446BA
:106400000448006820B1204602490968884710BD49
:106410000120FCE7BC5C002070B5044600250CB9E7
:10642000012070BD94F82D0001280BD100BF002081
:1064300084F82C0000BF206C002868D02046216C16
:10644000884764E094F82D00022809D094F82D00C4
:10645000042805D0606C40F004006064012556E01B
:106460002179206803F0C3F900BF2179206803F087
:106470007EFA0028F9D12179206803F0F3F9217917
:10648000206803F0DFF92179206801F10802012377
:1064900093404FF44872135000BF2179206801F1F6
:1064A0000802012393404FF44A72135000BF217930
:1064B000206803F0CFF92179206803F071F9217980
:1064C000206803F063F92179206801238B40C0F82C
:1064D000483300BF2179206801238B40C0F8503336
:1064E00000BF2179206803F056F92179206803F074
:1064F00098F901212046FEF719FC00BF002084F81E
:106500002C0000BF206C10B12046216C8847284623
:1065100087E700002DE9F041044614B90120BDE8E9
:10652000F081534807685348D0F8008000BF4146C7
:10653000384612F68DFD00BF4E484568FCF776FAE6
:106540004D4800684FF47A71B0FBF1F000FB01F6A2
:106550002179206801EB410202EBC10200EBC2028B
:10656000126C42F4807201EB410303EBC10300EBB8
:10657000C3031A6400BF19E03E484068401BB042A4
:1065800014D9606C40F02000606400BF002084F8E3
:106590002C0000BF03212046FEF7C8FB00BF414688
:1065A000384612F633FD00BF0320B8E72179206892
:1065B00001EB410202EBC10200EBC202126CC2F31A
:1065C0004022002AD8D02179206803F010F9294808
:1065D0004568FCF72BFA284800684FF47A71B0FB45
:1065E000F1F000FB01F619E022484068401BB04280
:1065F00014D9606C40F02000606400BF002084F873
:106600002C0000BF03212046FEF790FB00BF41464F
:10661000384612F6FBFC00BF032080E72179206892
:1066200003F0A5F90028DFD12179206801EB4102B0
:1066300002EBC10200EBC202126C22F4807201EB89
:10664000410303EBC10300EBC3031A6400BF012144
:106650002046FEF76BFB00BF002084F82C0000BF33
:1066600000BF4146384612F6D1FC00BF002056E775
:10667000FCED00E0001000E0485900202DE9F04159
:1066800004460D4616461F460748006850B13B4673
:10669000324629462046DFF810C0DCF800C0E0474B
:1066A000BDE8F0810120FBE7AC5C00202DE9F04162
:1066B00004460D4616461F460748006850B13B4643
:1066C000324629462046DFF810C0DCF800C0E0471B
:1066D000BDE8F0810120FBE7A85C00202DE9F8432C
:1066E00004460E4617461D464FF0000814B9012017
:1066F000BDE8F8832DB9606C40F0080060640120AB
:10670000F6E700BF94F82C00012801D10220EFE742
:10671000012084F82C0000BF94F82D0001287DD1C1
:1067200000212046FEF7B4FA2046FEF722FB0221A4
:106730002046FEF7FBFA2179206803F072F8206901
:10674000009021793B463246206803F02FF82179EA
:106750002A46206803F017F92179206803F020F811
:106760002179206803F0DCF82179206803F00EF825
:106770002179206803F0BEF82179206803F00BF836
:106780002179206803F0C1F821790022206803F004
:1067900078F921790022206803F099F92179002203
:1067A000206803F081F92179206803F064F82179E9
:1067B0000022206803F0D6F921790022206803F036
:1067C000E1F92179206803F01BF821790022206883
:1067D00003F037F921790022206803F042F921798A
:1067E0000022206803F01AF921790022206803F0C2
:1067F00002F921790022206803F0EBF821790022C8
:10680000206803F077F921790022206803F097F9D6
:1068100021790022206803F080F900E004E021796A
:10682000206803F055F806E04FF0020800BF002092
:1068300084F82C0000BF40465AE72DE9F041044699
:106840000E4617469846002543463A4631462046AE
:10685000FFF72CFF05461DB92179206803F01CF8CD
:106860002846BDE8F0812DE9F84304460E46174658
:106870001D464FF0000804B135B9606C40F00800C7
:1068800060640120BDE8F88300BF94F82C00012863
:1068900001D10220F6E7012084F82C0000BF94F813
:1068A0002D0001287DD100212046FEF7F1F9204678
:1068B000FEF75FFA02212046FEF738FA21792068B8
:1068C00002F0AFFF2179206802F06AFF2179206889
:1068D00002F0C8FF2179206802F058FF2179206872
:1068E00002F0B0FF2179206802F055FF217920687D
:1068F00002F0B0FF21790022206803F0C2F821796C
:106900000022206803F0E3F821790022206803F0D8
:10691000CBF82179206802F0AEFF217900222068AF
:1069200003F020F921790022206803F02BF9217966
:10693000206802F065FF21790022206803F081F8C9
:1069400021790022206803F08CF821790022206848
:1069500003F064F821790022206803F04CF82179D3
:106960000022206803F035F821790022206803F026
:10697000C1F821790022206803F0E1F82179002292
:10698000206803F0CAF82069009021793B4632461E
:10699000206802F00BFF21792A46206802F0F3FFFD
:1069A00000E004E02179206802F076FF06E04FF075
:1069B000020800BF002084F82C0000BF404661E7B9
:1069C0002DE9F84304460D4616461F46DDF82080A3
:1069D0000848006860B13B46324629462046DFF849
:1069E00014C0CDF80080DCF800C0E047BDE8F883B3
:1069F0000120FBE7B05C00202DE9F84304460F4678
:106A000090461E46089D4FF0000914B90120BDE8CC
:106A1000F88306B12DB9606C40F008006064012075
:106A2000F5E700BF94F82C00012801D10220EEE721
:106A3000012084F82C0000BF94F82D0001287DD19E
:106A400000212046FEF724F92046FEF792F90221A4
:106A50002046FEF76BF92179206802F0E2FE2179E9
:106A60002A6A206803F00DF82179AA69206803F0EA
:106A70002EF82179AA6A206803F016F8A869B0F107
:106A8000805F0AD12179206802F055FF217905F154
:106A90001C02206803F076F808E02179206802F0F3
:106AA000EAFE21790022206803F06CF8286AB0F130
:106AB000006F0AD12179206802F0F9FE217905F1F1
:106AC0002402206802F0CDFF08E02179206802F05E
:106AD00097FE21790022206802F0C3FF21792A68FD
:106AE000206802F09BFF21796A68206802F083FF2A
:106AF0002179AA68206802F06CFF2179EA68206891
:106B000002F0F8FF21792A69206803F018F821794A
:106B10006A69206803F001F82069009021794346F2
:106B20003A46206802F042FE21793246206802F09F
:106B30002AFF2179206802F033FE00E018E0217975
:106B4000206802F0EDFE2179206802F01FFE217915
:106B5000206802F0CFFE2179206802F01CFE217926
:106B6000206802F0D2FE2179206802F0B1FE06E032
:106B70004FF0020900BF002084F82C0000BF4846F7
:106B800045E72DE9F84304460E4617469846DDF8DA
:106B90002090002543463A4631462046CDF80090E5
:106BA000FFF70EFF05461DB92179206802F074FE3B
:106BB0002846BDE8F8832DE9F84304460F46904681
:106BC0001E46089D4FF0000914B90120BDE8F88366
:106BD00006B12DB9606C40F0080060640120F5E753
:106BE00000BF94F82C00012801D10220EEE701201B
:106BF00084F82C0000BF94F82D0001287DD10021DD
:106C00002046FEF745F82046FEF7B3F8022120465D
:106C1000FEF78CF82179206802F003FE21792068C4
:106C200002F0BEFD2179206802F01CFE2179206867
:106C300002F0ACFD2179206802F004FE2179206881
:106C400002F0A9FD2179206802F004FE21792A6A68
:106C5000206802F016FF2179AA69206802F037FF48
:106C60002179AA6A206802F01FFFA869B0F1805F4D
:106C70000AD12179206802F05EFE217905F11C021B
:106C8000206802F07FFF08E02179206802F0F3FD20
:106C900021790022206802F075FF286AB0F1006FA8
:106CA0000AD12179206802F002FE217905F124023F
:106CB000206802F0D6FE08E02179206802F0A0FDED
:106CC00021790022206802F0CCFE21792A68206810
:106CD00002F0A4FE21796A68206802F08CFE217916
:106CE000AA68206802F075FE2179EA68206802F03F
:106CF00001FF21792A69206800E018E002F01FFFF7
:106D000021796A69206802F008FF206900902179E2
:106D100043463A46206802F049FD21793246206810
:106D200002F031FE2179206802F0B6FD06E04FF056
:106D3000020900BF002084F82C0000BF484645E748
:106D400010B50446002012F623FB204612F63CFA4A
:106D500010BD000010B50446034812F619FB20468A
:106D600012F686FA10BD00005C5E00207047704786
:106D700070B504460D462A462146002012F68EFCC8
:106D800008B9012070BD0020FCE7000000B101B986
:106D90007047044A92680260024AD2680A6000BFE3
:106DA000F6E70000680D002010B512F63BFD08B1B3
:106DB000012010BD0020FCE710B512F63FFD08B918
:106DC000012010BD0020FCE770B504460D461646B4
:106DD00032462946204612F615FE08B9304670BDE7
:106DE0000020FCE74FF48050704710B50446204661
:106DF00012F60AFF10BD2DE9F047C0B08046894663
:106E0000144622464946404612F684FF8246BAF1AD
:106E1000000F34D100252646B4F5807F02D94FF407
:106E2000807000E02046074600BF08EB05003A46A8
:106E3000694612F6E7FD8246BAF1000F1BD109EB55
:106E400005003A466946FBF795FBA0B9F61B1EB94B
:106E5000204640B0BDE8F0873D44B6F5807F02D9BA
:106E60004FF4807000E030460746A54202D2E81990
:106E7000A04201D901E000E0D7E700BF00BF002039
:106E8000E7E700002DE9F04104460D460027002603
:106E90000CB9BDE8F0812946204602F087FF0122A7
:106EA0002946204602F086FF00BF656200BF2946E2
:106EB000204602F077FE02222946204603F018F809
:106EC000224628460023DFF81CC1624502D14FF05C
:106ED000100C01E04FF0000C00FA0CF090FAA0FC4E
:106EE000BCFA8CF1DFF800C162450ED1DFF8FCC0BE
:106EF000DCF800C02CEA000C03FA01F84CEA080C9C
:106F0000DFF8E880C8F800C011E0DFF8E0C0ACF1BD
:106F1000200CDCF800C02CEA000C03FA01F84CEA63
:106F2000080CDFF8C880A8F12008C8F800C000BF2E
:106F300001222946204603F05FF822462846002118
:106F4000284B9A4201D1102300E000239840264BA1
:106F50009A4212D1254B1B1F1B688343012901D183
:106F6000844601E04FF0000C43EA0C03DFF87CC0DC
:106F7000ACF1040CCCF8003011E01C4B243B1B6836
:106F80008343012901D1844601E04FF0000C43EA1C
:106F90000C03DFF858C0ACF1240CCCF8003000BF73
:106FA0002E461AE096FAA6F0B0FA80F1012000FA17
:106FB00001F7701E06400E48844209D1012F01D00E
:106FC000022F05D100223946204602F067FF04E077
:106FD00008223946204602F061FF002EE2D100BFB0
:106FE00057E70000001001400020014030EE004053
:106FF000000001402DE9FE4380460F463846FEF76B
:107000007FFF85B20024DFF834900D4E59F834002C
:1070100040450ED105EB041085B28DF80040019774
:1070200006EBC5004068029056F835200AB1684664
:107030009047641C032CE9DBBDE8FE8310052100AA
:107040008C64002070B504464FF6FF70A16B0140C0
:107050000D463DB12946204602F0A4FD29462046B2
:10706000FFF7C8FF70BD30B589B005460C4605B1C5
:107070000CB909B030BD20680190207900F0030000
:107080000290A0680390E068049020690590606910
:107090000690A069079060680009089001A9284639
:1070A00002F082FD00BFE4E72DE9F0470646002428
:1070B00000220B4601204FF47F0909EA03454FF4F3
:1070C0007F4909EA0327012801D0032801D1A946F5
:1070D00001E04FF00009CC46022801D0032801D17D
:1070E000B94601E04FF00009C846DFF81891D9F819
:1070F000D49129EA050949EA0C09DFF808A1CAF880
:10710000D491D146D9F8D49129EA070949EA080966
:10711000CAF8D49100BF084600234FF07F4707EA22
:10712000006533B1384F3F682F43D446CCF8DC714B
:1071300006E0354F3F68AF43DFF8C8C0CCF8DC71DC
:1071400000BF084602234FF47F4909EA002CC5B26C
:10715000012B01D1E14601E04FF00009C84613B907
:107160004FF0000900E0A9464F46DFF89890D9F8A3
:10717000D89145EA0C0A29EA0A0947EA080A49EAC5
:107180000A09DFF880A0CAF8D89100BF0A4634E0A7
:1071900092FAA2F0B0FA80F3012000FA03F4501E34
:1071A00002402046082390FAA0F7B7FA87F7BD00FF
:1071B000082B08D1144F3F1D3F688743DFF844C0B8
:1071C000CCF8E07117E0114F3F684FF00F0C0CFA4C
:1071D00005FC27EA0C0703FA05FC47EA0C07DFF871
:1071E0002CC0CCF80070084F3F1D3F680743DFF804
:1071F00014C0CCF8E07100BF00BF002AC8D1BDE8C0
:10720000F087000000A00040DCA1004078EE0040C4
:1072100070B504460D462946204602F0A9FF70BD10
:10722000024608464FF07F4303EA0060044B1B68A8
:107230000340834201D1012300E00023D8B270470C
:10724000D4A100402DE9F04704460D4617464FF003
:10725000000814B90120BDE8F08794F8360010B991
:107260004FF00108CEE10021204604F0A5FD2046A4
:1072700004F0E1FD2878642801DD0120EBE707F048
:10728000010020B3297821770221206803F01AFA3F
:107290000121206803F01CFA6878012806D12068D3
:1072A000016841F00801016000BF06E02068016844
:1072B00021F00801016000BF00BF20686968026812
:1072C00022F0400242EA8112026000BF00BF07F0D4
:1072D000020028B3297884F824100221206803F0E2
:1072E000FEF90121206803F001FA6878012806D12F
:1072F0002068016841F01001016000BF06E02068CD
:10730000016821F01001016000BF00BF20686968BA
:10731000026822F0800242EAC112026000BF00BF90
:1073200007F0040028B3297884F82C100221206883
:1073300003F0E3F90121206803F0E6F968780128F9
:1073400006D12068016841F02001016000BF06E01D
:107350002068016821F02001016000BF00BF2068A3
:107360006968026822F4807242EA0122026000BF6A
:1073700000BFFBF75BFBA068002842D107F00100CB
:1073800088B10021206803F0C6F99F49E0680968C8
:10739000B1FBF0F0217F48436421B0FBF1F63146A8
:1073A000206803F0BCF907F0020090B100212068CA
:1073B00003F0B9F99449E0680968B1FBF0F094F87A
:1073C000241048436421B0FBF1F63146206803F0F5
:1073D000AEF907F00400002812D00021206803F065
:1073E000AAF98949E0680968B1FBF0F094F82C101B
:1073F00048436421B0FBF1F63146206803F09FF961
:10740000FDE0A0680128FBD10026217F94F824002C
:10741000814201DB207F01E094F82400064694F8C5
:107420002C00B04202DB94F82C0000E03046064607
:10743000207FB04234DA7449E0680968B1FBF0F0AB
:1074400070436421B0FBF1F042086F49E0680968BD
:10745000B1FBF0F0217F48436421B0FBF1F0A2EBD7
:1074600050094946206803F056F96749E068096801
:10747000B1FBF0F070436421B0FBF1F042086249C7
:10748000E0680968B1FBF0F0217F48436421B0FB5C
:10749000F1F002EB50094946206803F040F911E091
:1074A0000021206803F037F95749E0680968B1FB0B
:1074B000F0F0217F48436421B0FBF1F94946206890
:1074C00003F02DF994F82400B04236DA4E49E06812
:1074D0000968B1FBF0F070436421B0FBF1F04208A1
:1074E0004949E0680968B1FBF0F094F8241048437A
:1074F0006421B0FBF1F0A2EB50094946206803F08B
:1075000012F94149E0680968B1FBF0F07043642169
:10751000B0FBF1F042083C49E0680968B1FBF0F0CB
:1075200094F8241048436421B0FBF1F002EB5009B9
:107530004946206803F0FBF812E00021206803F0C0
:10754000F2F83149E0680968B1FBF0F094F82410D2
:1075500048436421B0FBF1F94946206803F0E7F89D
:1075600094F82C00B04236DA2749E0680968B1FB8C
:10757000F0F070436421B0FBF1F042082249E0686A
:107580000968B1FBF0F094F82C1048436421B0FB7B
:10759000F1F0A2EB50094946206803F0CCF81A49F3
:1075A000E0680968B1FBF0F070436421B0FBF1F0D2
:1075B00042081549E0680968B1FBF0F094F82C1016
:1075C00048436421B0FBF1F002EB500949462068C2
:1075D00003F0B5F812E00021206803F0ACF80A4986
:1075E000E0680968B1FBF0F094F82C10484364217E
:1075F000B0FBF1F94946206803F0A1F800BF20462E
:1076000005F084FE404626E64859002038B5044679
:10761000202000900CB9012038BD94F836000228D3
:107620000AD000BF94F83500012801D10220F3E709
:10763000012084F8350000BF44492068884205D104
:1076400000BF00204249086000BF0AE041492068AD
:10765000884206D100BF00203D49091D086000BFD7
:1076600000BF206802F086FE2068006820F001005C
:1076700021680860204600F0AFF93449206888424C
:107680000AD100BF01203249086000BF00BF304965
:10769000C031086000BF0FE02E49206888420BD13E
:1076A00000BF01202A49091D086000BF00BF28490A
:1076B000C431086000BF00BF00BF00BFEFF31080FF
:1076C00005460120FBF7DEFA00BF23480068234986
:1076D000084023490840884205D100BF01202149C4
:1076E000086000BF00BF00BF1B48083000681E498B
:1076F00008401E490840884206D100BF01201949B0
:107700008039086000BF00BF2846FBF7BBFA00BF06
:107710000021204604F078FB0121204604F098FB6C
:107720006946204604F0D2FA012803D19DF80000F2
:1077300000F070FB0121204604F03EFB00BF00205A
:1077400084F8350000BF00BF66E7000000CB0040B2
:10775000F0D51D4200CC0040ACEE0040CFC37F7A94
:10776000CF035E70A8D41D420FFF7F000F3F7C0047
:10777000014609B90020704791F83600FBE770B563
:1077800004460D4600260CB9012070BD94F8360061
:1077900008B9012627E00021204604F00DFB204611
:1077A00004F049FB05F0010038B10121206802F026
:1077B00089FF0021206802F08BFF05F0020038B13C
:1077C0000121206802F08BFF0021206802F08EFF6B
:1077D00005F0040038B10121206802F08EFF00217D
:1077E000206802F091FF3046CFE7000030B58DB041
:1077F000044600253022714901A8FAF72CFF202009
:10780000009014B901200DB030BDE06830B160685F
:10781000042805D1206908B1606908B90120F2E7A0
:1078200000BF94F83500012801D10220EBE70120C8
:1078300084F8350000BF94F8360068BB002084F857
:10784000350000BF5E49086000BF00BF5C49803959
:10785000086000BF5B49206888420AD100BF002051
:107860005949086000BF00BF5749C031086000BFD8
:107870000FE05649206888420BD100BF00205249D2
:10788000091D086000BF00BF4F49C431086000BF38
:1078900000BF204600F0A1F80221204604F0B4FA0F
:1078A000FBF7C4F860680190A06802904849E0685E
:1078B0000968B1FBF0F00390454800684FF47A7115
:1078C000B0FBF1F0216948430490414800684FF44F
:1078D0007A71B0FBF1F0616948430590A0690690A8
:1078E000207F8DF81C00617F8DF81D10216A0891A2
:1078F00094F824008DF8240094F825108DF82510B4
:10790000A16A0A9194F82C008DF82C0094F82D109F
:107910008DF82D10216B0C9101A9206802F03CFD1F
:1079200094F8340000F0010038B90121206802F019
:10793000C9FE0021206802F0CBFE94F8340000F06C
:10794000020038B90121206802F0C9FE0021206838
:1079500002F0CCFE94F8340000F0040038B90121A4
:10796000206802F0CAFE0021206802F0CDFE2068E7
:10797000006840F00100216808600121204604F001
:1079800043FA204604F057FA0021204604F060FA3A
:107990006946204604F09AF9012804D10D499DF862
:1079A000000000F01FFA0121204604F005FA00BF94
:1079B000002084F8350000BF284624E77006210027
:1079C000A8D41D4200CB0040F0D51D4200CC0040A1
:1079D000485900206D4A10007047704770B5044642
:1079E00000250CB9012070BD00BF94F835000128B6
:1079F00001D10220F7E7012084F8350000BF002103
:107A0000204604F0D9F9204604F015FA94F836001F
:107A1000012815D10221204604F0F6F920680168FA
:107A200021F00201016000BF606E10B1204604F039
:107A300037FB2068416841F00201416000BF05E06A
:107A4000022500BF002084F8350000BF2846CAE7A1
:107A500070B5044600250CB9012070BD94F83600BD
:107A6000022801D001251EE00021204604F0A4F9DF
:107A7000204604F0E0F92068416821F002014160ED
:107A800000BF2068016841F00201016000BF20468C
:107A900005F03CFC0121204604F0B6F900BF0020AF
:107AA00084F8350000BF2846D7E700002DE9F041F3
:107AB00004460E46002714B90120BDE8F08194F871
:107AC000360008B9012754E10021204604F074F97A
:107AD000204604F0B0F9FAF7A9FF26B1A6480068DD
