:020000040020DA
:10200000000004205921200069292000014010000F
:10201000FF212000FB212000A52A20000000000055
:10202000000000000000000000000000154010004B
:10203000FD212000000000006B292000B1292000B4
:1020400000F002F800F077F80AA090E8000C824453
:102050008344AAF10107DA4501D100F06CF8AFF230
:10206000090EBAE80F0013F0010F18BFFB1A43F076
:102070000103184764D60000A4D600000A444FF0BC
:10208000000C10F8013B13F0070408BF10F8014BD7
:102090001D1108BF10F8015B641E05D010F8016B1C
:1020A000641E01F8016BF9D113F0080F1EBF10F880
:1020B000014BAD1C0C1B09D16D1E58BF01F801CBA3
:1020C000FAD505E014F8016B01F8016B6D1EF9D526
:1020D0009142D6D370470000103A24BF78C878C127
:1020E000FAD8520724BF30C830C144BF04680C601E
:1020F000704700000023002400250026103A28BF66
:1021000078C1FBD8520728BF30C148BF0B60704769
:10211000642900F0BF80782900F02381732900F042
:102120008883002070471FB50CF0DEFE00F0E6FA51
:102130001FBD10B510BDDFF810D0FFF7F4FF07F09A
:102140006FFC00F091FB00000000042003B4FFF7D7
:10215000F0FF03BC01F015F8014880470148004733
:10216000552A2000A59A20000FB4044910B503AAEF
:10217000029800F063FB10BC5DF814FB505D00207A
:102180000FB41CB5084B06AA7B446946009005981D
:1021900000F025FB04460020694600F033FB204692
:1021A0001CBC5DF814FB00007906000070B5044605
:1021B00085690068C10601D5302600E02026C007E9
:1021C00007D070BDD4E9012130469047206A401CF9
:1021D00020626D1EF6D570BD70B504468569007825
:1021E000C00707D170BDD4E9012120209047206AA3
:1021F000401C20626D1EF6D570BDFEE7FEE7FEE7CF
:1022000058585247010000002556000000202000C9
:10221000002020007EEE9247010100000000000037
:1022200000000000000000000000000000000000AE
:10223000000000000000000000000000000000009E
:1022400070B50C460546012A05D02878800600D5D1
:10225000EA69002302E0012305E05B1C934202D2FD
:10226000E05C0028F9D1A869E618C01AA861286ABC
:10227000184428622846FFF799FF04E0D5E90121B8
:1022800014F8010B9047B442F8D32846FFF7A4FF97
:1022900070BD00002DE9F041064600241068752944
:1022A000314616A510D0AFF30080002802DA404274
:1022B00013A507E031688A0701D512A502E0490796
:1022C00004D511A5012401E0AFF3008000210A220A
:1022D00006F1240709E0B0FBF2FCB0FBF2F302FBCD
:1022E0001C00303078541846491C0028F3D123468E
:1022F0002A463046BDE8F04100F012BA0000000066
:102300002D0000002B00000020000000F0B40D465E
:102310000188090502D5214C7C4402E01F4C7C4415
:102320000E34002100F1240608E002F00F07120924
:10233000E75D42EA03721B097754491C52EA03071E
:10234000F3D102780023120704D5702D06D009B10D
:10235000022311342246F0BC00F0E2B9012310340C
:10236000F8E770B504460D4621461068AFF30080CB
:10237000024629462046BDE870400023C6E7D21D2C
:1023800022F00703D3E90023C0E70368126843F093
:10239000200303600823C3610023B7E748CE000091
:1023A0002DE9F05F894604464FF0000ADFF874B16A
:1023B000FB44C0F820A02046E1688847002874D07C
:1023C000252806D0D4E901219047206A401C2062CC
:1023D000F1E700265F462046E16888472028054649
:1023E00007DB312D05D2781910F8200C08B106430F
:1023F000F1E7B00701D526F00406C4F81CA00027B9
:10240000C4F818A02A2D09D0284600F0ADFE38B334
:1024100004EB8708303DC8F8185019E059F8041B40
:10242000204604EB87029161E1688847012F054649
:1024300018D1E069002820DA26F020061DE0D8F83F
:10244000180000EB800005EB40003038C8F8180099
:102450002046E1688847054600F086FE0028EED158
:10246000012F0AD02E2D08D12046E16888477F1C15
:102470000546022F46F02006C4DBA069002803DAD7
:10248000404246F00106A061F00701D026F0100698
:102490006C2D0BD0682D09D04C2D39D06A2D35D03C
:1024A000742D35D07A2D33D016E038E0E1682F4610
:1024B00020468847B842054609D16C2F26D04FF4F4
:1024C0008060E168064320468847054604E06C2F9B
:1024D0001AD04FF4807006430DB3A5F141001928BE
:1024E00002D8203546F400664A4629462046266032
:1024F0004E46FFF70DFE80B101280BD0F61D26F0E9
:10250000070000F1080956E74020E4E78020D8E7FB
:102510000020D6E706F104094DE7284652E7206A75
:10252000BDE8F09FD8CD000040EA010310B59B073D
:102530000FD1042A0DD310C808C9121F9C42F8D02D
:1025400020BA19BA884201D9012010BD4FF0FF30DE
:1025500010BD1AB1D30703D0521C07E0002010BDF4
:1025600010F8013B11F8014B1B1B07D110F8013B80
:1025700011F8014B1B1B01D1921EF1D1184610BD61
:1025800010B5431C02E010F8011B71B18107FAD1AC
:102590004FF0013202C88C1A8C4314EAC211F9D0F0
:1025A000C01A0A0603D0C01E10BDC01A10BD0A040E
:1025B00001D0801E10BD0902FCD0401E10BD032AB0
:1025C00040F2308010F0030C00F0158011F8013B50
:1025D000BCF1020F624498BF11F801CB00F8013B37
:1025E00038BF11F8013BA2F1040298BF00F801CBFB
:1025F00038BF00F8013B11F0030300F02580083AD2
:10260000C0F0088051F8043B083A51F804CBA0E828
:102610000810F5E7121D5CBF51F8043B40F8043B7D
:10262000AFF30080D20724BF11F8013B11F801CBB2
:1026300048BF11F8012B24BF00F8013B00F801CB83
:1026400048BF00F8012B704710B5203AC0F00B804E
:10265000B1E81850203AA0E81850B1E81850A0E8A6
:102660001850BFF4F5AF5FEA027C24BFB1E8185000
:10267000A0E8185044BF18C918C0BDE810405FEA70
:10268000827C24BF51F8043B40F8043B08BF7047EC
:10269000D20728BF31F8023B48BF11F8012B28BFF1
:1026A00020F8023B48BF00F8012B70474FF00002B2
:1026B00000B5134694469646203922BFA0E80C5038
:1026C000A0E80C50B1F12001BFF4F7AF090728BF13
:1026D000A0E80C5048BF0CC05DF804EB890028BF8F
:1026E00040F8042B08BF704748BF20F8022B11F0B8
:1026F000804F18BF00F8012B7047000070B5064CE2
:102700007C44064D7D4403E0206820448047241D1E
:10271000AC42F9D170BD000014D0000014D000000C
:102720002DE9F0470D4699469246044600F12408EB
:102730000168880604D5E06921F01001216000E0FD
:102740000120A84201DD471B00E00027A1697A199A
:1027500002EB0900081AA0612078C00602D42046C6
:10276000FFF724FD002608E0D4E901211AF806004D
:102770009047206A401C761C20624E45F4DB20788E
:10278000C0060AD52046FFF711FD06E0D4E9012175
:1027900030209047206A401C2062381EA7F10107B4
:1027A000F4DC07E0D4E9012118F805009047206A1D
:1027B000401C2062281EA5F10105F3DC2046FFF72E
:1027C0000BFD2078000602D50220BDE8F08701202D
:1027D000FBE7000001694A1C02610878704700B5F8
:1027E0008FB0CDE901310021059105497944CDE94A
:1027F000031011466846FFF7D3FD0FB000BD00007F
:10280000E5FFFFFF0A6802F8010B0A60704710B588
:10281000436913B1AFF3008001E0FFF711FD012020
:1028200010BD127800F124010A7000224A700122C2
:10283000EDE711684FF0FF32E9E70000074B70B594
:102840000D467B44FFF7CBFF0446284600F008F80E
:1028500010B14FF0FF3070BD204670BDCF2F00008B
:10286000007B00F08000704710B50446AFF3008095
:102870002046BDE81040FFF769BC10B502F03AF8F9
:1028800010BD00001CB5032400BF274800680121CB
:1028900021EA900078B900BF23480C30006800F0AE
:1028A000010040B100BF20488C38006800F00700EC
:1028B0002040A04200D01CBD0020009000F084FB0E
:1028C00000901A480068401C1849086064200AF605
:1028D00073FD01A800F06EF8022000F073F83220BA
:1028E0000AF66AFD00BF1248006840F00200104975
:1028F000086000BF0F4948890AF65EFD00BF0C481A
:10290000006820F002000A49086000BF0949888970
:102910000AF652FD9DF8040000F054F8009800F00B
:102920002AFC00BFC7E70000D4A40040B45F002029
:1029300004A90040765E00200748006800F01000FF
:1029400008B10648704706480068C0F302400549D0
:1029500051F82000F6E7000084E30040006CDC0240
:1029600000A00040B8F02000FEE7FEE70248006843
:10297000001D04F09BBD0000485D002002F783B8F5
:10298000052800DB70470949096801F4E021B1EB33
:10299000004F08D0054A126822F4E02141EA0042C3
:1029A000024B1A6000BF00BFECE7000000A000402F
:1029B000FEE700000249096801F007010170704755
:1029C00000A0004010B500220021072800DB10BD48
:1029D000144B1B6803F0070383421BD0114B1B6889
:1029E00023F0070242F003030E4C23602346DB680A
:1029F00023F0070141F00103E36000BF00BF00BF07
:102A000000BF42EA0003074C2360074B53F8203015
:102A10000B43E360054B53F82030054C236000BFA7
:102A2000D5E7000000A000409CF0200080F02000CE
:102A3000385400200448006800F00700034951F8AA
:102A4000200003490860704700A0004080F020008B
:102A5000385400200248016841F470010160704759
:102A600088ED00E002480068001D04F085BF00000A
:102A70005C69002002484068001D04F07DBF000032
:102A80005C69002002488068001D04F075BF0000EA
:102A90005C6900200248C068001D04F06DBF0000A2
:102AA0005C690020FEE7002809DB00F01F0201211D
:102AB00091404009800000F1E020C0F8801270478A
:102AC000002807DB00F01F0201219140024A430960
:102AD00042F823107047000080E200E0002807DB86
:102AE00000F01F0201219140024A430942F82310DD
:102AF0007047000080E200E000280DDB00BF00BF4F
:102B000000F01F02012191404209920002F1E022EF
:102B1000C2F8001100BF00BF704700280DDB00BFE6
:102B200000BF00F01F02012191404209920002F112
:102B3000E022C2F8001100BF00BF7047002804DB8C
:102B400000F1E02090F80004704700F00F0000F161
:102B5000E02090F8140D704702480068C0F302208E
:102B6000704700000CED00E0002807DB00F01F02BA
:102B700001219140024A430942F8231070470000A6
:102B800000E200E0EFF310807047EFF31080704731
:102B9000EFF310807047000010B52DED020B2DED06
:102BA000088B84B09DED0C0B51EC100B0BF0D6FF95
:102BB00041EC180B9DED0C0B53EC182B51EC100B4A
:102BC0000CF032F841EC190B0D989FED290B10F029
:102BD000004F53EC102B51EC190B9FED21AB9FEDE7
:102BE00022BB0ED00BF04AFE0ED953EC1B2B51EC3E
:102BF000190B0BF07DFF1CD214E000BF41EC180B49
:102C000017E00BF03BFE06D253EC1A2B51EC180BDD
:102C10000CF00AF8F2E753EC1B2B51EC190B0BF0FC
:102C200067FF06D853EC1A2B51EC180B0BF04CFB3A
:102C3000E4E78DED028B9DED0C0B18EE901A10EE73
:102C4000900A8DED000B61F31E0003909DED020BC9
:102C500004B0BDEC088B02B010BD00000000000005
:102C6000000000000000F03F000000000000E03F16
:102C7000000000000000E0BFC1B281F3118870477E
:102C800080F31088704780F31088704780F31088B5
:102C9000704780F31088704780F3108870470000F9
:102CA0002DE9F74F0446904600BF4FEA5806019DB4
:102CB0004FF0000B7448754908603F20744949681B
:102CC00060F30501724A516000BF00BF10464068C2
:102CD00020F480301146486000BF00BF6B48006898
:102CE00020F4700040EA04506849086000BF00BF4B
:102CF0000846006820F4702040EA0440086000BFE5
:102D00000D2C07D100BF0846006840F40040086061
:102D100000BF00BF0E2C08D100BF5C48006840F423
:102D200080405A49086000BF00BF4FF40050574927
:102D3000096821F400510143544A116000BF00208A
:102D40001146096821F060510143116000BF042061
:102D50001146096821F00F010143116000BF0020F6
:102D600000F006F9012801D0BDE8FE8F00BF4748FA
:102D7000006840F080404549086000BF4FF0000AFD
:102D80000DE000BF4248806840F4803040498860D0
:102D900000BF0AF101008246401C00B903E005F0C3
:102DA000C3FA0028EDD100BF072000F0E1F80128A8
:102DB00000D0D9E754E04FF0000B2CE0BBF57A7F50
:102DC00024D900BF3148006820F080402F490860B6
:102DD00000BF00BF0846006840F00040086000BF28
:102DE00000BF0846006820F00040086000BF0020D7
:102DF00000F0BEF8012800D0B6E726480068401C65
:102E00002449086005200AF6D7FA4EE701200AF6A1
:102E1000D3FA0BF1010B05F087FA0128CED100BFE0
:102E20001B48806800F07F008146B14501D93046DB
:102E300000E0484681464FF0000A0DE000BF14480C
:102E4000076800BF25F8027B4FF6FF7000EA1740C5
:102E500025F8020B0AF1010ACA45EFD3A6EB0906D1
:102E6000002EA8D15EB908F0010040B100BF05F006
:102E70005BFA0128FBD100BF0548006828800020CC
:102E800000F076F800BF6FE70A07080700A80040C7
:102E900000E00040C05F002010B5044600BF0020E5
:102EA0001A49086000BF00BF18498039086000BF98
:102EB00000BF1748406A174908600846007800F0CC
:102EC000010020B10846008800F4807098B906E03F
:102ED0000CB9002010BD641E01200AF66DFA00BF77
:102EE0000B48806940F20111884201D1012000E0C5
:102EF00000200028ECD00848006808490860044811
:102F00004068074908600120E4E7000094D41D42AE
:102F100000E000401C60002000A800401460002079
:102F2000186000200D4800680D4948600D48006891
:102F30000D4908600D48007800F0010020B10B48F1
:102F4000008800F4807040B900BF0548006A20F096
:102F500001000349086200BF00BF704718600020ED
:102F600000E000401460002000A800401C60002029
:102F700070B5044605F0D0F9A04201D1012070BD22
:102F800000BF1048C06820F0070020430D49C8600A
:102F900000BF002508E005F0BFF9A04200D107E01E
:102FA00001200AF609FA6D1C4FF6FF708542F2D334
:102FB00000BF4FF6FF70854201D10020DFE70120FE
:102FC000DDE7000000E0004010B500BFEFF3108027
:102FD00004460120FFF757FE204610BD70B52DEDC9
:102FE000108B8AB005460C469FED510B8DED080BFA
:102FF00020216846FFF75AFB9FED4D0BB0EE408A4B
:10300000F0EE608A102269462846FFF749FE002646
:103010000FE006F108013DF811000BF0D5FB41EC83
:10302000190B53EC182B0BF04FF941EC180B701CDB
:10303000C6B2082EEDDB9FED400B53EC102B51EC8C
:10304000180B0BF0F5F941EC180B0D2D41D1E08A6E
:103050000BF0BAFB41EC1B0B9FED390B53EC102B23
:103060000BF0E6F941EC190B60880BF0ADFB41EC7D
:103070001F0B9FED350B53EC102B0BF03BFC41EC81
:103080001E0B9FED330B53EC102B0BF033FC41EC7C
:103090001C0BA08A0BF098FB41EC1E0B53EC182B79
:1030A0000BF0B6FD41EC1D0B53EC1C2B0BF0C0F9E3
:1030B00041EC1B0B9FED280B53EC102B0BF0B8F9D8
:1030C00041EC1A0B53EC192B0BF0FEF8CDE908017B
:1030D00027E00E2D25D160880BF076FB41EC1C0B10
:1030E0009FED190B53EC102B0BF004FC41EC1A0B69
:1030F00020880BF069FB41EC1C0B53EC182B0BF0F8
:1031000087FD41EC1B0B53EC1A2B0BF091F941ECB2
:10311000190B9FED130B53EC102B0BF0EBFBCDE9D0
:1031200008019DED080B0AB0BDEC108B70BD0000CE
:10313000000000000000000000000000000020402F
:103140000000000000005940000000000000F0BF37
:10315000000000000000004079E9263108AC5CBFA7
:10316000B76DDBB66DDB0E4030380A2801D2012086
:1031700070470020704710B504462046FFF783FDD6
:1031800010BD704710B50446204605F00DF810BD7F
:1031900010B50446204607F0F1F910BD70B504469D
:1031A0000D46294620460AF0C3F82946204606F077
:1031B00015FC70BD014808F05FBF0000545D0020A1
:1031C0002DE9F041014600291BD000240F4E0E4A84
:1031D000357814E002EB04100F780378BB420CD171
:1031E0004B684068034208D0707808B900F020FBB3
:1031F0002046BDE8F04100F04FBA641CE4B2AC4296
:10320000E8D3BDE8F0810000EC6A0020605D00209A
:103210007CB505460E46002D01D0002418E0E520BF
:103220007CBD05EB041041680091017A8DF8041013
:10323000417A8DF8051008218DF80610C2680078D3
:103240000023694600F038F80028E9D1641CE4B294
:10325000B442E6D300207CBD10B502460846052ADC
:1032600025D2DFE802F0030303111900114951F8D8
:1032700032200104090C05D022B10146104603F0AA
:10328000A9FB10E0E42010BD10F0FF0F02D002F007
:10329000CBFC08E0E42010BD10F0FF0F05D0014684
:1032A000002003F0A9FC002010BDE42010BDE620A2
:1032B00010BD00006CEF20002DE9F05F05460C46C4
:1032C0009046994626680027042D11D0314628469D
:1032D000FFF7C2FF2146284600F05EF8002808D11B
:1032E000032D08D04FF0100A2807070E002448E0ED
:1032F000E620BDE8F09F4FF0080AF7E7F0073DD061
:103300003DB1012D05D0022D03D0032D21D0E620A3
:10331000EFE71E4800EBC50090F904B0BBF1000FC9
:1033200015D0EFF31081012080F31088184AE019BE
:1033300042F8308002EBC000C0F8049081F310889E
:10334000584616F63DFF584616F658FF16E0E4209C
:10335000CFE7EFF31081012080F310880D4AE019C8
:1033600042F8308002EBC000C0F8049081F310886E
:103370001B2016F625FF1B2016F640FF7608641C5E
:10338000E4B25445BAD30020B3E700006CEF20004C
:103390001C6800201C69002030B597B005460C461B
:1033A0001C22454910A8FFF74FF91C2242491C3145
:1033B00009A8FFF749F920223F49383101A8FFF752
:1033C00043F9D4B13D49062008F0D6FD3C49072019
:1033D00008F0D2FD3B491B2008F0CEFD3A491220EF
:1033E00008F0CAFD34496C39A1F12C02052D61D2D7
:1033F000DFE805F0060606213900E52017B030BDEC
:10340000207931F810001190607932F81000129094
:10341000A0791390206810902748843850F8350020
:1034200021880904090C04D018B110A903F0C3FBCA
:1034300039E0E420E2E7207901EB4000808A0A903D
:10344000607902EB4000C0880B90A0790C90206856
:103450000990207810F0FF0F03D009A802F0C8FCF3
:1034600021E0E420CAE72079031F042B01D8E720DC
:10347000C4E7022819D001200290207901EB400016
:10348000008D0390607902EB400080890490A07960
:10349000059020680190207810F0FF0F08D001A956
:1034A000002003F05DFC0020A8E702200290E4E782
:1034B000E420A3E7E620A1E7F0EF2000E5401000BC
:1034C000DF401000DB401000D54010000246002015
:1034D000052A11D2DFE802F0030303090C000748B4
:1034E00050F8320089B216F6CABD88B202F0EEBCBE
:1034F00089B2002003F03CBC704700006CEF200054
:10350000002803D00249086001207047002070475E
:10351000685D002070B505460024091F062917D2F2
:10352000DFE801F003070C111315284600F0A4F89A
:103530000EE00124284600F09FF809E00224284606
:1035400000F09AF804E0032402E0042400E00524DB
:10355000034A214628461268BDE870401047000023
:10356000685D00202DE9F0410446204600F0AEF8E9
:1035700001462E4800230826025D00F10A0700F1EB
:103580001405AAB1052A33D0082A2AD1092945D021
:10359000082926D1295D491CC9B22955142920D3EF
:1035A0002B5506552046BDE8F0410821FFF7B2BF74
:1035B000052913D0042916D0072914D0082910D1C1
:1035C000295D491CC9B2295514290AD32B55065522
:1035D0002046BDE8F0410821FFF79CBF3B5505217F
:1035E0000155BDE8F0812046BDE8F041FFF792BFEC
:1035F00005290CD0395D491CC9B239553229F0D39F
:1036000003552046BDE8F0410521FFF783BF035570
:103610002046BDE8F0410621FFF77CBF0355204658
:10362000BDE8F0410921FFF775BF0000CC6B002019
:1036300070B504460D4600F00FF808B100F00EF921
:103640000348044A2946005D5268BDE870401047AF
:10365000E06A0020605D00200020064911F810207B
:103660000AB100207047401CC0B20A28F6D30120DE
:1036700070470000EA6B00200349002201F8102087
:1036800001EB400042707047EA6B0020014A02F8EB
:1036900010107047EA6B0020024A012102EB400043
:1036A00041707047EA6B002070B50024064D05EBB1
:1036B0004400407810B12046FFF754FF641CE4B288
:1036C0000A2CF4D370BD0000EA6B002070B5002115
:1036D0001D4B03F132051A5C002A09D0002403F1C6
:1036E0000A06012A0AD0022A12D0032A24D11FE096
:1036F00015F8102002B301221A541DE015F810200D
:103700001AB1345402221A5416E01C54042113E056
:1037100015F810204AB1325C521CD2B23254642ADD
:103720000AD3072103221A5406E005211C5403E0A2
:1037300015F8101011B10821084670BD1C54FFF790
:103740009BFF0921F8E70000B86B002070470000DC
:103750002DE9F0410E4617460A2E02D80FB100237C
:103760001AE00020BDE8F08103EB430400EB840580
:10377000114AA97AD154104910F824200C3101EBD8
:103780000314227069686160297A2172697A617212
:103790000A49E1605B1CDBB2B342E5D3064831461F
:1037A0000C30FFF735FD0648067047600548FFF707
:1037B000A7FE0120D6E70000E06A0020C13120000A
:1037C000605D0020313620002DE9F0410024124FC9
:1037D000DFF8488019E0002607EB041528786968AF
:1037E000FFF774FE10B9697A012902D0012802D0CE
:1037F00005E0012603E0687A022800D1012631465F
:103800002046FFF743FF641CE4B298F800008442AE
:10381000E1D3BDE8F0810000EC6A0020605D00208B
:1038200010B5FFF7D1FFBDE81040FFF73DBF000026
:1038300010B5074A0121074800F00EF900220A21BD
:10384000044800F05FFA04490120487010BD0000F0
:1038500021382000906B0020605D002010B50348E7
:1038600000F028F902490020487010BD906B00203C
:10387000605D0020002806D0002904D0024AD269E9
:10388000002A00D010477047B86A002070B50D4676
:1038900016460D4C00280AD00178032911D80121C1
:1038A000A17601461A222046FEF789FE05E0002097
:1038B000A0761A210448FEF7F9FEE5612662002091
:1038C00070BD012070BD0000B86A002010B5084826
:1038D000017800290AD101210170064840F694F8C8
:1038E000BDE810400021044840F624BA10BD000095
:1038F0004C5D00205D401000C9A5200070B50D4C46
:103900002068002814D090F8250088B1132016F6FE
:1039100064FC2068002580F82550092006F0DAFEB6
:103920002068001D03F090FB002800D1256070BDC9
:10393000E92070BD485D00200178002904D10349C9
:1039400001220A6040684860704700006C5D0020FA
:1039500010B501460E480068002808D090F82520D0
:103960002AB190F82420012A03D021B109E0E920EE
:1039700010BDE72010BD8268B2F5805F01D0E42061
:1039800010BD001D03F0B2FC0028F9D110BD0000ED
:10399000485D002010B50D4A1368002B05D093F840
:1039A000252012B139B110B107E0E92010BD9A68A5
:1039B000B2F5805F01D0E42010BD0A460146181D13
:1039C00003F0BCFB0028F7D110BD0000485D0020CB
:1039D0002DE9F04104460026002C25D01A4D04F1B3
:1039E00014002860227880F824200160211D08300E
:1039F0008EC98EC0183815494160001D03F024FBA4
:103A0000002812D12868001D03F0FAFC00280CD110
:103A1000092202210E4806F045FE2968012081F89E
:103A20002500207818B10CE0E520BDE8F0810949B7
:103A3000132008F0A1FA132016F6C2FB132016F685
:103A4000DDFB3046F1E70000485D002000780140D2
:103A500050EF20006D2920002DE9F04104460D466D
:103A60001746002D04D0012D02D00120BDE8F081C1
:103A7000E4B1DFB1607801281AD0EFF3118602209B
:103A8000FFF75CF88046FFF767F8401C0121814092
:103A900008EB0100C0B280F3118800206070A570AF
:103AA000E761F0B280F311880020DFE70120DDE755
:103AB0000620DBE710B50446002C0CD0204600F0B1
:103AC000B3F9FF2060700021A160E16021616161B4
:103AD0000020E06110BD012010BDF0B5DDE9074513
:103AE000059981614FF47A76A2FB061C03FB06C39D
:103AF000002702FB0732C0E9021209196A41C0E936
:103B0000041200210162F0BD2DE9F0410446002CB1
:103B100013D0EFF311850220FFF710F80746FFF7E7
:103B20001BF8401C012606FA00F03844C0B280F3AE
:103B300011881248002121620EE00020BDE8F081CA
:103B4000D4E90432D1E9047CDB1B72EB0C0202D213
:103B5000016A216203E00846016A0029F0D104628B
:103B60006670064810380168491C0160016B4160AD
:103B7000E8B280F311880120E0E7000080690020AE
:103B80002DE9F04105460024EFF311860220FEF7EF
:103B9000D5FF0746FEF7E0FF401C01218140781861
:103BA000C0B280F31188134A106BE8B115B102F16D
:103BB000100010E00446206A10631068401E106078
:103BC0000CE0A94206D11168491E1160296A016200
:103BD0002C4603E00846016A0029F2D124B10020F6
:103BE00020626070106B5060F0B280F31188204644
:103BF000BDE8F081706900202DE9F041EFF31187F5
:103C00000220FEF79BFF0446FEF7A6FF401C0121A1
:103C100081406018C0B280F31188114D002608E081
:103C20002078012804D1E16909B1A069884726708C
:103C30002D6A2C6A002CF3D1094D103D07E0E16993
:103C400009B1A06988472670206AA8632662AC6B18
:103C5000002CF4D1F8B280F311880120BDE8F08186
:103C6000806900202DE9F041EFF311870220FEF773
:103C700065FF0446FEF770FF401C012606FA00F0BF
:103C80002044C0B280F311881D4DA5F110082DE02D
:103C9000D4E90430D8E902125B1A60EB0200D8E9DB
:103CA0001021D21A814124D326702046FFF768FFE5
:103CB000A078012806D0124828300021216201682E
:103CC00061B10FE0D8E90220D4E90213511858413C
:103CD000C4E904102046FFF717FF07E0046005E081
:103CE00001F1200001680029FAD104602C6A002C3F
:103CF000CED1F8B280F311880120BDE8F081000038
:103D0000806900202DE9FF5F82460E4693464FF002
:103D10000008BAF1000F20D0414886421DD8E6B114
:103D2000EFF311870220FEF709FF0446FEF714FFA8
:103D3000401C012181406018C0B280F311885046B8
:103D400004F0D0FA10B19AF8010040B1F8B280F353
:103D500011880F2004B0BDE8F09F0120FAE705F0BC
:103D60004BFD04460D464FF47A7106FB01F02246E6
:103D70002B46002104F086FADFF8A890B0B1D9F8FC
:103D8000040048B1D0E90410091B60EB0500C9E943
:103D9000021005F0ABFD04E00021C9F80810C9F8D5
:103DA0000C104FF00108D9E9020106E0D9F804002F
:103DB000D0E90421101B61EB0501CDE90201324677
:103DC0000023CDF800B05046FFF787FE5046FFF7BE
:103DD0009BFE07F0E9FF4FF0E024D4F800014FF01C
:103DE000806510F0806F01D0012000E0002020B934
:103DF0001A20FEF758FEC4F80051B8F1000F0AD09F
:103E0000D9F80400D0E90431D9E90202181A61EBAB
:103E1000020105F027FDF8B280F31188002099E730
:103E2000008AB907706900202DE9F0410446002599
:103E3000002C39D0EFF311870220FEF77FFE0646F3
:103E4000FEF78AFE401C012181407018C0B280F349
:103E500011886078012824D1144E7068A0420BD1DB
:103E600005F0CAFCD4E90432181A62EB0102C6E973
:103E7000020205F03BFD01252046FFF781FE5DB102
:103E8000706848B1D0E90421D6E90203101A61EB49
:103E9000030105F0E7FC04E01DB9706808B905F0FE
:103EA00025FDF8B280F31188BDE8F081706900202B
:103EB00070B504461A4D55F82400703007F03DFDEA
:103EC00082B21646A2B155F8240090F801110129DA
:103ED0000ED0012180F80411802A0FD355F8240058
:103EE000802200F18001703007F03CFD80260CE05C
:103EF00055F82410002081F8000170BD55F8240009
:103F000000F18001703007F02DFD55F82400324695
:103F100000F18001001D03F0FDFD0028EDD170BD12
:103F20005C690020704700002DE9F84304464D4FBE
:103F300057F82400061D042C7ED290F86C1000293E
:103F40007AD0012978D190F80011012974D190F824
:103F50000111002970D1012180F80111002157F8C9
:103F60002400D0E903231344027D02F00102D21D94
:103F70009D184268D36FC3F38003002BFAD090F8EA
:103F80000421A2B1384A1368491C90F83B20102A3A
:103F900006D08268B3FBF2F26A43B1EBC21FF3D9D9
:103FA00057F82400703007F0C8FC85B226E0B0F85E
:103FB0002480C58C001D03F0E7FA57F8240041F275
:103FC000883300EB0801491B8031001D2A4603F0AD
:103FD00053FDE5E757F8240001227030694607F0E9
:103FE000C1FC57F824004068C16FC1F340010029AB
:103FF000FAD09DF8001001606D1EADB2002DE9D120
:1040000057F82400703007F098FC0028C8D13068B9
:1040100041694906FCD5EFF31085012080F3108833
:1040200057F82400703007F088FC68B1EFF3108176
:10403000012080F3108800E011E03068426842F00F
:104040008202426081F3108857F82410002081F822
:10405000000157F8241081F8010185F31088BDE8AC
:10406000F88300005C690020385400202DE9F041FD
:1040700005460F46002D06D02AB12C78042C04D317
:10408000E820BDE8F081E520FBE7344E05F158005B
:1040900046F82400D2E900310A467030194607F08C
:1040A00037FC291D286D09F03BFA0028E9D156F8A4
:1040B0002410281D486656F82400076056F824008E
:1040C0001822083005F14001FEF7BEFA244856F8E0
:1040D000241000EBC4056868486056F82400001DF1
:1040E00003F0B6FA56F82400001D03F0A1FB1C48AB
:1040F00001220321103806F0D5FA56F824100120C9
:1041000081F86C0056F82410002081F8000156F860
:10411000241081F8010156F8241081F8020156F8A4
:10412000241081F803010F490C2007F025FF0E49E8
:104130000D2007F021FF0D49342007F01DFF0C4929
:10414000352007F019FF95F9010016F639F895F9B1
:10415000010016F653F8002093E700005C69002088
:1041600058F02000652A2000752A2000852A2000AA
:10417000952A20002DE9F04104461A4D55F82400F7
:10418000703007F0DAFB82B2164600277AB155F894
:10419000240090F80111012909D0802A0ED300F1E2
:1041A00080017030802207F0DDFB80260BE055F89F
:1041B000240080F800710020BDE8F08100F180014A
:1041C000703007F0CFFB55F8240080F8047155F8E3
:1041D0002400324600F18001001D03F003FD002899
:1041E000EAD1E9E75C69002070B5042801D3E82032
:1041F00070BD104D55F8204064B194F86C604EB11C
:1042000051B14AB15E1C09D044F62066B34205D9CB
:10421000E42070BDE52070BDE42070BD002684F868
:10422000026155F82000001D03F026FC0028F4D19F
:1042300070BD00005C6900202DE9F74F84B0054691
:104240000C46022604F10809204601F03FFC07460F
:104250003E48D0F804A000200390B5F5804F0ADB5B
:10426000B5F5004F07DA3948406839490968A0EBCD
:10427000010A01200390E019504501DD052662E0A6
:104280003248006800F6FF7030490988491EC1F3C2
:104290000B01401AC0F3073B039810B12C4800688B
:1042A00000E0002002902B4800682B490968401A62
:1042B000001F2649497AA1EB0B01A0EBC10023495D
:1042C0000968411A0298A1EB000809EB0700404574
:1042D00032DD002011231E224FF400410090012006
:1042E00043F68CFA0021084601F09CFAC8B9174938
:1042F000487A03F087FE06461EB1304607B0BDE897
:10430000F08F002012231E224FF400410090012064
:1043100043F674FA21462846069A09F013FC06462D
:1043200010E0002013231E224FF4004100900120D2
:1043300043F664FA0F2605E021462846069A09F05E
:1043400001FC064600BF3046D8E700006872002036
:104350005C5E0020685E0020605E002010B56FF09B
:104360000200814908603820002807DB00F01F02A6
:10437000012191407D4A430942F8231000BF0020EB
:104380007B49086000BF7A481C30006840F002009A
:1043900077491C3108600846006840F00100086059
:1043A0000846006820F00200086000BF00BF7048A7
:1043B000001F006840F001006D49091F08600846B1
:1043C000006820F00200086000BF00BF05F018F888
:1043D0000028FBD1022066493839096821F0030121
:1043E00008B9002206E0022802D140F2AA2201E028
:1043F00040F2FF3202F0030211435D4A383A116085
:1044000000BF02201146096821F00C0108B9002202
:1044100006E0022802D140F2AA2201E040F2FF3277
:1044200002F00C021143524A383A116000BF0220D8
:104430001146096821F0C00108B9002206E00228EF
:1044400002D140F2AA2201E040F2FF3202F0C002A3
:104450001143474A383A116000BF032044494039AC
:10446000096821F0030108B9002206E0022802D100
:1044700040F2AA2201E040F2FF3202F003021143AF
:104480003B4A403A116000BF03201146096821F001
:104490000C0108B9002206E0022802D140F2AA224B
:1044A00001E040F2FF3202F00C021143304A403A80
:1044B000116000BF03201146096821F0C00108B94E
:1044C000002206E0022802D140F2AA2201E040F2D6
:1044D000FF3202F0C0021143254A403A116000BF8A
:1044E00000BF012022493439086000BF00BF04F03A
:1044F00087FF0028FBD100F723FE00F728FE00BF4E
:104500001B481C30006840F0040019491C31086049
:1045100000BF00BF1648001F006840F004001449A7
:10452000091F086000BF012007F03AFE00BF1148D4
:10453000006820F040000C499839C1F8800200BFA3
:1045400000BF0846D0F8800220F01000C1F88002B9
:1045500000BF00BF0846D0F8800220F02000C1F85C
:10456000800200BF10BD000098A0004080E200E083
:10457000C4A4004080A2004010B500F7E8FD00F799
:10458000DFFD00BF1048006840F002000E490860DF
:104590000846006820F00100086000BF00BF0A481C
:1045A0002030006840F001000749203108600846CB
:1045B000006840F0020008600846006820F0010032
:1045C000086000BF10BD0000C0A4004038B508F06E
:1045D000FFF928B140F27E41084607F051FF04E0A0
:1045E00040F27E41084607F04BFF2748007878B13B
:1045F00026480068009007F05DFF044624480088C4
:10460000009007F057FF0546214608F075F905E0D0
:104610004FF466714FF47F7008F06EF91D4805F095
:10462000D9FE08F0D5F910B91B48007880B91B48AD
:1046300018490A6802604A6842600989018118497C
:10464000144802680A6042684A600089088119E0DB
:104650001249104802680A6042684A60008908816D
:104660000F490C4802680A6042684A600089088164
:1046700040F21A400949088007F098FE07498880EF
:104680000120487238BD0000106000200C6000203E
:104690000E600020E25F0020CE5F0020EC5F002073
:1046A000F65F002010B540F629FC10BD10B500F0F3
:1046B00099F800F059F8BDE8104000F079B8000012
:1046C00010B50121002002F049FC012014F678FC0D
:1046D00002200649087007F0C3FB0549322007F0A5
:1046E0004BFC3220FEF719FA10BD00003C600020A0
:1046F0007B28200010B52DED028B00BF1748006805
:10470000C0F30B00044600BF14480830006820F0D6
:104710007F4008EE100A601C00EE100AB8EE400A56
:10472000DFED0F0A20EE200AB8EE481AC0EE010AAB
:10473000B6EE000A30EE800ABCEEC00A094880EDF1
:10474000000A006805F01EFEF0EE408AB0EE680A2E
:1047500008F062F9BDEC028B10BD000004E40040DB
:104760000024F44B2860002000B587B003228DF8A8
:1047700004200120029005218DF80C108DF80D0009
:1047800000238DF80E308DF81020022205928DF84E
:1047900018108DF8190004208DF81A00034A022120
:1047A00001A8FEF7D5FF07B000BD00004D3720007F
:1047B0007CB50825009502248DF804408DF805404D
:1047C0008DF8065069460420FEF7E6FD04200090AF
:1047D0008DF804408DF805408DF806506946FEF7C7
:1047E000DBFD7CBD00B587B000F01EF803208DF81E
:1047F00000001D208DF8160001208DF817008DF89F
:1048000018008DF81900044A04496846FFF73EF87D
:10481000FEF7D0FC07B000BD2148200089482000E9
:104820000020FFF781BB00007CB5144800904FF4D6
:104830008065019500F58060002101704FF4E13240
:104840000264032444648164C164016501234365F7
:104850000174DA02426102224274037601718560BA
:104860004271017306494163816380F83C2080F8FE
:104870003D406A460349FFF7F9FB7CBD64620020B6
:1048800000900140253F20000A4601464FF47A730C
:104890000020FFF7A9BC014600200A2904DC40F6ED
:1048A000641000EB410012E0242904DC40F666109D
:1048B00000EB41000BE0252902D140F6621006E032
:1048C000262902D140F67A1001E04FF41B607047B0
:1048D00010B50021084602F041FB012014F668FBE8
:1048E0000348806820F480700149886010BD000092
:1048F00000A0004010B516480068401C144908602C
:1049000000BF1448006800F0010040B100BF11482A
:104910000838006800F0010008B107F0F9FA00BF9C
:104920000D48006800F0010040B100BF0A48083897
:10493000006800F0010008B100F0C6FD07F02AFA97
:1049400020B103F0F5F908B1FFF7C2FF10BD000078
:104950005460002008E4004008E5004010B507F06E
:1049600019FA20B103F0E4F908B1012010BD0020CC
:10497000FCE710B507F0F2FA00F04CFD10BD10B5E1
:1049800005F088FEBDE8104000F0E2B810B500BFA9
:104990002348006820F000402149086000BF214AF8
:1049A0001078214A117840EA81031D4A121D1268CD
:1049B00063F31F721A4B1B1D1A6000BF06201946B5
:1049C000096821F4E07141EA80111A46116000BFC4
:1049D00000BF101F006840F00040111F086000BFBA
:1049E00000BF1248006840F001001149C1F8880278
:1049F00000BF1049312007F0BFFA312000280DDB3D
:104A000000BF00BF00F01F02012191404209920047
:104A100002F1E022C2F8001100BF00BF00BF10BDCC
:104A200004A90040B05F0020B15F002088E2004090
:104A300000E00040852820002DE9F04104460D46A5
:104A400016460948007810B1002004F00FFE3246E7
:104A50002946204604F0F4FD07460348007804F098
:104A600005FE3846BDE8F0816D5E00202DE9F0417D
:104A700005460E4614460948007810B1002004F09F
:104A8000F5FDA2B23146284604F000FE0746034871
:104A9000007804F0EBFD3846BDE8F0816D5E002043
:104AA0002DE9F04105460E4614460948007810B13C
:104AB000002004F0DBFDA2B23146284604F047FE98
:104AC00007460348007804F0D1FD3846BDE8F08180
:104AD0006D5E00202DE9F04104460D46164609485A
:104AE000007810B1002004F0C1FD3246294620466E
:104AF00004F06CFE07460348007804F0B7FD384622
:104B0000BDE8F0816D5E00202DE9F04104460F46BE
:104B100015464FF00008206800F6FF702188491EF6
:104B2000C1F30B01401A21682944884201D84FF093
:104B300008082A4639462068FFF7B2FF86B205EB1F
:104B400008012068084420603046BDE8F08100007C
:104B50000249014808607047D15310006C030020DF
:104B600010B50246012302B109B9002010BD084C5E
:104B70001068A04202D10020087007E0054C1068C0
:104B8000A04202D10120087000E000231846EDE7A2
:104B90000090014000A001402DE9F84305460F4672
:104BA0002020009069462846FFF7DAFF012837D118
:104BB0009DF8001088401B490968084080B35FBB1E
:104BC00000BF00BFEFF310800646012080F310887D
:104BD00000BF4FF0000814492868884202D1DFF86E
:104BE0004C8007E012492868884203D1DFF83C80F6
:104BF00008F11808002408E058F8240018B158F803
:104C00002400FFF6D9FE601CC4B2062CF4DB00BF02
:104C100086F3108800BF00BF9DF8000002F0D0F8B6
:104C2000BDE8F883A8600020009001405076002085
:104C300000A00140F8B504460D4620200090002653
:104C400004B9F8BD69462046FFF78AFF012810D154
:104C5000012D02D00DB1012606E02068D0F8A00396
:104C600008B9002600E0012631469DF8000002F058
:104C700055F984F82D5000BFE3E738B504462020ED
:104C8000009069462046FFF76BFF012803D19DF88D
:104C9000000002F025F938BD70B504460E46002E1E
:104CA00043D03749206888421CD12079062819DA78
:104CB00000202179334A42F82100002506E03148DE
:104CC00050F8250000B103E0681CC5B2062DF6DBE4
:104CD00000BF062D52D1002002F0D6F8002002F0CD
:104CE00059F84BE028492068884247D120790628A6
:104CF00044DA002122792348183040F82210002598
:104D000007E02048183050F8250000B103E0681C87
:104D1000C5B2062DF5DB00BF062D2FD1012002F014
:104D2000B3F8012002F036F828E0154920688842DF
:104D30000FD1207906280CDA2079124941F8204059
:104D40001249002002F088F80E49002002F0B2F863
:104D500014E00D492068884210D1207906280DDA28
:104D600021790848183040F821400849012002F014
:104D700073F804491831012002F09CF870BD00005E
:104D8000009001405076002000A0014081491000B1
:104D900070B506460C46154600BF6FF4004000EAA9
:104DA000C43028B140F2F3220CA111A001F678FB27
:104DB00000BF00BFE80BC00328B14FF43D7207A14C
:104DC0001AA001F66DFB00BF45EAC43081B2942001
:104DD0007043254A1044A0F8661170BD72665F6783
:104DE00064785F62616C626F61322E630000000064
:104DF00028282875696E7431365F7429727877694E
:104E00006465203C3C203135292026207E282875E9
:104E1000696E7431365F7429307830303030383014
:104E200030302929203D3D203000000028282875F9
:104E3000696E7431365F7429727877696E737A207F
:104E40003C3C2030292026207E282875696E74314C
:104E5000365F74293078303030303746464629295D
:104E6000203D3D203000000000800E4070B5064C13
:104E70004FF4807628252A46214604483044FDF721
:104E80009EFB00BF70BD00003CF1200000800E4082
:104E9000F0B504460D4616461F463B4632462946A7
:104EA000204600F009F802F0C9FFF0BD0148007883
:104EB000704700001876002030B501240A4D2C7090
:104EC0002C466060E2602361A160084CA4688C42BB
:104ED00003D2064CA4680C1B02E0044CA468641ABC
:104EE000014D6C6130BD0000187600205860002034
:104EF00010B502F07BFF044618210548FDF7D6FBEC
:104F0000002003490870204600F07AF910BD000027
:104F1000187600202DE9F047054688461646324CA3
:104F2000324887684FF0000994F800A02662656255
:104F3000BD4201D9E81B00E0781B81462B48C068C0
:104F4000484507D33346424629460020FFF7A0FFD5
:104F5000BDE8F087A069484502D9C4F81890E66119
:104F6000BAF1010F21D165616069B84203D92069A6
:104F7000401CA06002E02069401EE060D4E902010C
:104F800088420BD2D4E90201084440082061012084
:104F900020704046216900F02BF8D9E702202070EC
:104FA0004046A16800F024F8D2E7BAF1020F10D110
:104FB000E069B04206D13346424629460020FFF759
:104FC00067FFC5E7032020704046E16900F010F854
:104FD00008E0BAF1030F05D13346424629460020C6
:104FE000FFF756FF00BFB3E7C075002058600020F0
:104FF00070B504460D460648806A401C0449886224
:10500000AAB2E1B2034B5868034B02F09FFE70BD99
:10501000C075002058600020154F200070B505466F
:105020000F4C2C212046FDF741FB0020A06040F2F0
:10503000FF10E060D4E902010844400820614FF00D
:10504000FF30A061A06A401CA06201202070238A6A
:105050009AB2E9B2034B5868034B02F077FE70BD79
:10506000C075002058600020154F20002DE9F8433E
:1050700006460D469046344C94F80090B9F1010F65
:105080000AD1E66040F2FF10206102220146284664
:1050900000F09CF8BDE8F883B9F1020F4AD100276F
:1050A000002000906661684600F050F807461FB97E
:1050B0002846FFF7B3FFEDE7012F12D10F2D07DAD6
:1050C0000020A0600122681CA16800F07FF8E1E7E1
:1050D0000520E06143462A463146E069FFF7D8FEE5
:1050E000D8E7022F12D1002D07DD0020A060681E36
:1050F0000122002100F06AF8CCE70620E061434677
:105100002A463146E069FFF7C3FEC3E7032F08D103
:105110000098E06143462A463146E069FFF7B8FE51
:10512000B8E70720E06143462A463146E069FFF7C9
:10513000AFFEAFE70820E06143462A463146E0690A
:10514000FFF7A6FE00BFA5E7A075002070B50446D6
:105150001C491D480369826800250026C8689042E2
:1051600004D94869904201D9022070BDC8689042B4
:1051700004D24869904201D20120F6E7C868904203
:1051800002D9C868801A01E0C868101A0546486943
:10519000904202D94869801A01E04869101A06460F
:1051A0009D4203D39E4201D30020DEE79D4201D2FF
:1051B0000120DAE79E4201D20220D6E703202060D8
:1051C00000BFD2E7A0750020586000202DE9F04113
:1051D00005460E461746074CA069401CA061656055
:1051E0002770B2B2E9B2044B5868044B02F0AEFD2E
:1051F000BDE8F081A0750020586000206D502000AF
:1052000070B50546064C20212046FDF74FFA0020D8
:10521000A06001222846A168FFF7D8FF70BD0000FA
:10522000A07500202DE9F84305460E4617462A4C86
:105230004FF00008C14600200090E069401CE0618A
:105240006660A760E0682061E56024488068A84245
:1052500003D222488068281A02E020488068401B58
:1052600080466069404502D9C4F81480A761684649
:1052700000F036F88146B9F1000F09D0B9F1010FFD
:105280000CD0B9F1020F11D0B9F1030F1AD113E00C
:105290000020A062204600F0CCF819E0012084F83C
:1052A00020003046A16900F087F811E0A068411C99
:1052B000304600F081F80BE0A068411E304600F057
:1052C0007BF805E00098A062204600F0B2F800BF2D
:1052D00000BFBDE8F8830000EC7500205860002096
:1052E000F0B5034632493348826800240025002681
:1052F000C868904202D9C868801A01E0C868101ACC
:1053000004462C48C068A04201D30020F0BD486A82
:10531000012801D10020F9E791F82000012801D1EE
:105320000020F3E74F6AC869B84209D38F688869DB
:10533000B84201D10020E9E7012081F82000E5E72B
:10534000C869012815D90869904202D9C8689042F5
:1053500005D3086990420CD2C868904209D98F6879
:105360008869B84201D10020D0E7012081F82000EF
:10537000CCE7C868904201D9012500E001264DB173
:105380008868B0F5FF7F03D9092018600420BDE7C5
:105390000220BBE73EB1886818B90A2018600420D3
:1053A000B4E70320B2E70B2018600420AEE700004A
:1053B000EC7500205860002070B504460D46AAB276
:1053C000E1B2034B5868034B02F0C0FC70BD000013
:1053D000586000202552200070B504460D46164640
:1053E0002C210948FDF762F90020074981F82000C7
:1053F000401E486108464462B2B2E9B2034B5868A5
:10540000034B02F0A3FC70BDEC7500205860002037
:105410002552200010B502F07DFC00B910BDFFF749
:1054200045FD10B9FFF764FDF8E700F02DF800BF67
:10543000F4E700B50346184600F004F802F0FEFC5D
:1054400000BD000001210E4A1171816A9160C1699D
:10545000D160C16811614168516181689161094AF7
:10546000C1689268914204D9064AC1689268891A53
:1054700003E004498968C268891A014AD16170470A
:1054800030760020586000202DE9F04102F0AEFC9B
:10549000064602F0BDFC074609480468094845690C
:1054A00020210748FDF702F9601C0549086000202B
:1054B00008713A4631462846FFF78EFFBDE8F08175
:1054C000307600205860002010B512480069401C5A
:1054D0001049086102F0B8FC0E49C86002F086FC71
:1054E0000C49486002F094FC0A49886000200A498F
:1054F0000860084948610846C06940B10C462489E3
:10550000A2B20C462179E068E369984701E002F015
:1055100095FC10BD8075002000E500402DE9F041AC
:1055200006460F461C4C4FF6FF75238C102B0AD3F2
:10553000208821466084CD835B1E0B841E22891C3B
:105540002046FDF73CF8608C3246394604F086FC74
:1055500010B10C20BDE8F081208C102804D3401C31
:105560002084608CE08308E0618C24F81010208C8B
:10557000401C2084608C401C608400F00FF80028E0
:10558000E8D0218C491E89B22184628C521E62842B
:1055900024F81150DEE700000070002010B5054A25
:1055A00024214FF4204004F059FC08B10C2010BD18
:1055B000002010BD007000207CB500251B4800684D
:1055C00000F108041A48007810B1002004F04EF8E9
:1055D00000BF08226946204604F058F8BDF80000D4
:1055E0004FF6FF71884202D0BDF8000008B9254689
:1055F00015E0BDF8020000F069FABDF802100831AC
:10560000084486B23146204600F076FA044609483E
:105610000068844202D30748056800E0D9E700BF6C
:105620000348007804F022F828467CBD605E002024
:105630006D5E0020685E0020FEB506460C4602AA9C
:105640002146304607F070FD08B10298FEBD029871
:1056500008B1029802E022480068083005460020A0
:1056600002902048007810B1002003F0FFFF00BF37
:1056700008226946284604F009F8BDF800004FF6F4
:10568000FF71884203D100202080029020E0BDF805
:105690000000B04205D114B1BDF80200208002958F
:1056A00016E0BDF8020000F011FABDF80210083152
:1056B000084487B23946284600F01EFA05460A48D3
:1056C0000068854203D300202080029000E0CFE7ED
:1056D00000BF0448007803F0C9FF0298B6E7000055
:1056E000605E00206D5E0020685E002008B504F05A
:1056F00039FE01F00DF9D8B100208DF80000A3208B
:105700008DF8010002208DF802006846FEF6DAFFEF
:1057100008494FF6FF700860091D8011086006F007
:1057200059FD04F093FC07F011FB04F0FDFC08BDEB
:10573000FEE7000080A4004002494968002900D02B
:1057400008477047D860002070B5044600BFFDF7D9
:1057500019FA05460120FDF793FA0948047024B9A7
:10576000482208490848FCF76FFF1DB90020FDF7E3
:1057700087FA02E00120FDF783FA00BF70BD000048
:10578000FC5D0020FC700020002000E010B5074800
:1057900040680749486006480830402203490831FC
:1057A000FCF752FF03200249086010BDB4700020CE
:1057B000002000E0002003490968002900D00847C4
:1057C00070470000D860002070B500BFFDF7DAF91F
:1057D00005460120FDF754FA0B48047834B94822F5
:1057E0000A490B48FCF730FFFFF7D0FF01200649BC
:1057F00008701DB90020FDF743FA02E00120FDF713
:105800003FFA00BF204670BDFC5D0020002000E094
:10581000FC70002013B501216846FEF72BF801202B
:105820001CBD00002DE9F04F8DB0884608200C907B
:10583000002400200B904FF008090A90CDF8248036
:105840008246FFF7B9FE054605F6FF70691EC1F3F3
:105850000B01401A7C490968401A0121C1EB103044
:10586000C4B20B9414B101200990824607F07EFB6C
:10587000E3E00020069007906CB17349096801EBE2
:105880000430042206A9FFF7D7F8042803D00F201C
:105890000DB0BDE8F08F002002900390A5208DF898
:1058A00008008DF809409DF82C008DF80A00BDF81D
:1058B0003000ADF80E009DF818008DF80B00BDF813
:1058C0001A00ADF80C006048006800EB0430484452
:1058D0000A905E480068484408904FF480515B4845
:1058E000006803F077FE08B91020D1E79DF8180092
:1058F00048B19DF81820012308A90AA808F0A4FAC5
:1059000008B10F20C4E7BDF81A0048B1BDF81A204D
:10591000002308A90AA808F097FA08B10F20B7E7F2
:1059200000BF49490A980968401AA0EB0430C0F545
:105930008055082D2DDD0120082304AA08A9009018
:105940000AA808F04BFA08B10F20A1E7BDF8100033
:105950004FF6FF71884200D133E0083DBDF81200D8
:1059600000F0B4F8BDF812104718AF4208DDAAB233
:10597000002308A90AA808F067FAD8B10F2087E722
:10598000BAB2002308A90AA808F05EFA90B10F2065
:105990007EE7A8B200F09AF828441FFA80FB0120A5
:1059A0005B462B4A08A900900AA808F017FA08B12C
:1059B0000F206DE725480899006800F58050814266
:1059C000AFD300BF082202A920480068FFF782F881
:1059D000082801D00F205BE71B49096801EB043060
:1059E0004FF4805103F0F6FD08B9102050E7BAF1EA
:1059F000000F0DD01449096801EB0430042206A9F8
:105A0000FFF768F8042801D00F2041E74FF0000AA3
:105A100009AB0CAA0BA902A808F040FA0646012E11
:105A200006D101030948006803F0D4FD00202FE7E8
:105A30000EB10F202CE7601CC4B20648407AA04289
:105A4000BFF617AF002023E7605E0020645E0020F1
:105A5000087400206872002001460020087108794F
:105A60000A781044087108798A7810440871087916
:105A7000704710B502460020507100BF05E0537911
:105A80000C5C23445371431C98B253888342F6DC68
:105A9000507910BD10B500220A480068C0F3160105
:105AA00008489C38D0F8A000C0F3160205481C38FE
:105AB0000068C0F3C113501A034C54F823406043EC
:105AC00010BD00009C200F40106200200146002005
:105AD000084A127862B10A46CB1701EB93739B1008
:105AE000A1EB8303DB43D8B2421CD0B200F0030029
:105AF000704700006D5E002070B506460C4600251C
:105B000035192146304602F0F9FB08B1082000E0C3
:105B100000200544284670BD024600210BE00848DD
:105B200050F83130501E834204D1054800EBC100CB
:105B300040687047491C1029F1DB0020F9E700009C
:105B400044710020002101E0491C4008C207FBD03D
:105B50000846704770B5044600BFFDF713F80546C8
:105B60000120FDF78DF800201449087014481549EC
:105B70000860154815490860482215491548FCF782
:105B800063FD154812494860032008604822134805
:105B9000FCF75AFD48220F490D48FCF755FD882CAB
:105BA00001D007F091F81DB90020FDF769F802E077
:105BB0000120FDF765F800BF70BD0000FC5D00200E
:105BC00049572000DC600020C9572000D860002021
:105BD000002000E0FC700020007D0020B470002058
:105BE0002DE9FE430546002403208DF80000002621
:105BF0000C4F4FF00108E8070BD008FA04F00190B1
:105C000007EBC4004068029057F8341009B16846A9
:105C10008847641CA4B26D08761C082EEBDBBDE837
:105C2000FE8300001C6900202DE9F0470446002691
:105C300000252046FEF658FE214601204FF47F083D
:105C400008EA01424FF47F4808EA0123012801D005
:105C5000032801D1904601E04FF000084746022892
:105C600001D0032801D1984601E04FF00008C44656
:105C7000DFF87081D8F8E48128EA020848EA0708CA
:105C8000DFF86091C9F8E481C846D8F8E48128EAD1
:105C9000030848EA0C08C9F8E48100BF2046FEF674
:105CA0002BFE204602F048FB204602214FF47F489D
:105CB00008EA0023C7B2012901D1984601E04FF05C
:105CC0000008C44611B94FF0000800E0B84642464B
:105CD000DFF81081D8F8E88147EA030928EA0908C3
:105CE00042EA0C0948EA0908DFF8F890C9F8E881A7
:105CF00000BF012094FAA4F2B2FA82F13A4A126883
:105D000022EA046300FA01F243EA02624B46C3F856
:105D1000E82100BF00BF94FAA4F7B7FA87F102099F
:105D20000346314F3F1D3F68A74302FA01FC47EA93
:105D30000C07CC46CCF8EC714F46D7F8EC7127EA4B
:105D4000042C03FA01F74CEA0727CC46CCF8EC7197
:105D500000BF204600214FF47F0202EA0040224AA1
:105D6000121D1268824309B1034600E000231A4362
:105D70001D4B1B1D1A6000BF25462EE095FAA5F0AD
:105D8000B0FA80F1012000FA01F6681E05403046A5
:105D9000082190FAA0F3B3FA83F39A00134B1B681F
:105DA0000F279740BB4301FA02F73B430F4F3B607D
:105DB000082908D10C4B0C331B6823EA0043094F18
:105DC000C7F8F43107E0084B0C331B6843EA004383
:105DD000044FC7F8F43100BF00BF002DCED1BDE89D
:105DE000F087000000A00040E8A1004074EE0040F1
:105DF00010B588B004460CB908B010BD20680090FA
:105E0000207900F003000190A0680290E068039000
:105E10002069049060690590A06906906068000997
:105E20000790684602F094FA00BFE5E770B5FF20DE
:105E300024490968C9B201400C4600BF2248D0F885
:105E40008400C0F34000054664B3204602F074FAB3
:105E500000BFE0431B49086000BF00BF6FF00200B5
:105E60001949C1F8840000BF00BF164818380068FF
:105E700000F0010040B104F0100028B124F010043B
:105E80001020FEF639FD11E000BF0F48806800F0D9
:105E9000010040B104F0200028B124F020042020AB
:105EA000FEF62AFD02E02046FFF79AFE45B13CB916
:105EB00000BF6FF0020004498431086000BF00BFDA
:105EC00070BD000008A2004000A000400146084646
:105ED0004FF07F4202EA0060044A126802408242A8
:105EE00001D1012200E00022D0B27047E4A10040BD
:105EF00001218140024A12688A4301490A607047C1
:105F0000E46100200348044908600448044908602B
:105F1000704700006B501000DC0A0020D3501000C6
:105F2000E00A002001218140024A12681143014A1F
:105F300011607047E461002010B504460448006811
:105F400020B1204602490968884710BD0120FCE7BE
:105F50009060002010B504460448006820B1204637
:105F600002490968884710BD0120FCE794600020C1
:105F700070B5044600250CB9012070BD94F82D00C1
:105F800001280BD100BF002084F82C0000BF206C3A
:105F9000002868D02046216C884764E094F82D00E2
:105FA000022809D094F82D00042805D0606C40F038
:105FB00004006064012556E02179206802F059FC54
:105FC00000BF2179206802F014FD0028F9D1217961
:105FD000206802F089FC2179206802F075FC2179A3
:105FE000206801F10802012393404FF448721350D6
:105FF00000BF2179206801F10802012393404FF48A
:106000004A72135000BF2179206802F065FC2179A3
:10601000206802F007FC2179206802F0F9FB217961
:10602000206801238B40C0F8483300BF21792068E5
:1060300001238B40C0F8503300BF2179206802F063
:10604000ECFB2179206802F02EFC01212046FEF7AE
:10605000F1FD00BF002084F82C0000BF206C10B1BF
:106060002046216C8847284687E700002DE9F0414B
:10607000044614B90120BDE8F0815348076853482D
:10608000D0F8008000BF4146384612F6E1FF00BF5D
:106090004E484568FCF7CEFC4D4800684FF47A71D5
:1060A000B0FBF1F000FB01F62179206801EB410221
:1060B00002EBC10200EBC202126C42F4807201EBEF
:1060C000410303EBC10300EBC3031A6400BF19E0F3
:1060D0003E484068401BB04214D9606C40F020003C
:1060E000606400BF002084F82C0000BF032120461C
:1060F000FEF7A0FD00BF4146384612F687FF00BFFD
:106100000320B8E72179206801EB410202EBC102CC
:1061100000EBC202126CC2F34022002AD8D02179CF
:10612000206802F0A6FB29484568FCF783FC284854
:1061300000684FF47A71B0FBF1F000FB01F619E052
:1061400022484068401BB04214D9606C40F02000E7
:10615000606400BF002084F82C0000BF03212046AB
:10616000FEF768FD00BF4146384612F64FFF00BFFC
:10617000032080E72179206802F03BFC0028DFD172
:106180002179206801EB410202EBC10200EBC2025F
:10619000126C22F4807201EB410303EBC10300EBAC
:1061A000C3031A6400BF01212046FEF743FD00BF70
:1061B000002084F82C0000BF00BF4146384612F68C
:1061C00025FF00BF002056E7FCED00E0001000E0D6
:1061D000385400202DE9F04104460D4616461F466E
:1061E0000748006850B13B46324629462046DFF852
:1061F00010C0DCF800C0E047BDE8F0810120FBE7FB
:10620000846000202DE9F04104460D4616461F46E5
:106210000748006850B13B46324629462046DFF821
:1062200010C0DCF800C0E047BDE8F0810120FBE7CA
:10623000806000202DE9F84304460E4617461D46AF
:106240004FF0000814B90120BDE8F8832DB9606C47
:1062500040F0080060640120F6E700BF94F82C00CD
:10626000012801D10220EFE7012084F82C0000BFB3
:1062700094F82D0001287DD100212046FEF78CFCEA
:106280002046FEF7FAFC02212046FEF7D3FC2179D6
:10629000206802F008FB2069009021793B463246D5
:1062A000206802F0C5FA21792A46206802F0ADFB89
:1062B0002179206802F0B6FA2179206802F072FB99
:1062C0002179206802F0A4FA2179206802F054FBB9
:1062D0002179206802F0A1FA2179206802F057FBA9
:1062E00021790022206802F00EFC2179002220682A
:1062F00002F02FFC21790022206802F017FC21799E
:10630000206802F0FAFA21790022206802F06CFC81
:1063100021790022206802F077FC2179206802F0C0
:10632000B1FA21790022206802F0CDFB2179002208
:10633000206802F0D8FB21790022206802F0B0FB2F
:1063400021790022206802F098FB21790022206840
:1063500002F081FB21790022206802F00DFC2179F6
:106360000022206802F02DFC21790022206802F032
:1063700016FC00E004E02179206802F0EBFA06E068
:106380004FF0020800BF002084F82C0000BF4046F8
:106390005AE72DE9F04104460E4617469846002577
:1063A00043463A4631462046FFF72CFF05461DB9C5
:1063B0002179206802F0B2FA2846BDE8F0812DE983
:1063C000F84304460E4617461D464FF0000804B138
:1063D00035B9606C40F0080060640120BDE8F883C6
:1063E00000BF94F82C00012801D10220F6E701201B
:1063F00084F82C0000BF94F82D0001287DD10021E5
:106400002046FEF7C9FB2046FEF737FC0221204656
:10641000FEF710FC2179206802F045FA2179206806
:1064200002F000FA2179206802F05EFA21792068F2
:1064300002F0EEF92179206802F046FA217920680D
:1064400002F0EBF92179206802F046FA2179002266
:10645000206802F058FB21790022206802F079FBC5
:1064600021790022206802F061FB2179206802F086
:1064700044FA21790022206802F0B6FB217900223B
:10648000206802F0C1FB2179206802F0FBF9217934
:106490000022206802F017FB21790022206802F018
:1064A00022FB21790022206802F0FAFA21790022E9
:1064B000206802F0E2FA21790022206802F0CBFA8B
:1064C00021790022206802F057FB21790022206800
:1064D00002F077FB21790022206802F060FB20693E
:1064E000009021793B463246206802F0A1F92179DB
:1064F0002A46206802F089FA00E004E02179206849
:1065000002F00CFA06E04FF0020800BF002084F809
:106510002C0000BF404661E72DE9F84304460D46D4
:1065200016461F46DDF820800848006860B13B46EB
:10653000324629462046DFF814C0CDF80080DCF84A
:1065400000C0E047BDE8F8830120FBE78860002039
:106550002DE9F84304460F4690461E46089D4FF02D
:10656000000914B90120BDE8F88306B12DB9606CAB
:1065700040F0080060640120F5E700BF94F82C00AB
:10658000012801D10220EEE7012084F82C0000BF91
:1065900094F82D0001287DD100212046FEF7FCFA59
:1065A0002046FEF76AFB02212046FEF743FB2179D5
:1065B000206802F078F921792A6A206802F0A3FAAB
:1065C0002179AA69206802F0C4FA2179AA6A2068B0
:1065D00002F0ACFAA869B0F1805F0AD12179206895
:1065E00002F0EBF9217905F11C02206802F00CFBA6
:1065F00008E02179206802F080F9217900222068E2
:1066000002F002FB286AB0F1006F0AD121792068FC
:1066100002F08FF9217905F12402206802F063FA73
:1066200008E02179206802F02DF921790022206804
:1066300002F059FA21792A68206802F031FA2179AA
:106640006A68206802F019FA2179AA68206802F0C5
:1066500002FA2179EA68206802F08EFA21792A6923
:10666000206802F0AEFA21796A69206802F097FA90
:1066700020690090217943463A46206802F0D8F814
:1066800021793246206802F0C0F92179206802F0B1
:10669000C9F800E018E02179206802F083F9217937
:1066A000206802F0B5F82179206802F065F92179B7
:1066B000206802F0B2F82179206802F068F92179A7
:1066C000206802F047F906E04FF0020900BF002001
:1066D00084F82C0000BF484645E72DE9F8430446FE
:1066E0000E4617469846DDF82090002543463A4668
:1066F00031462046CDF80090FFF70EFF05461DB944
:106700002179206802F00AF92846BDE8F8832DE9CE
:10671000F84304460F4690461E46089D4FF0000978
:1067200014B90120BDE8F88306B12DB9606C40F0C2
:10673000080060640120F5E700BF94F82C000128F0
:1067400001D10220EEE7012084F82C0000BF94F86C
:106750002D0001287DD100212046FEF71DFA20469C
:10676000FEF78BFA02212046FEF764FA21792068B1
:1067700002F099F82179206802F054F82179206814
:1067800002F0B2F82179206802F042F821792068FD
:1067900002F09AF82179206802F03FF82179206808
:1067A00002F09AF821792A6A206802F0ACF921797E
:1067B000AA69206802F0CDF92179AA6A206802F05E
:1067C000B5F9A869B0F1805F0AD12179206802F09B
:1067D000F4F8217905F11C02206802F015FA08E0AE
:1067E0002179206802F089F821790022206802F0DE
:1067F0000BFA286AB0F1006F0AD12179206802F003
:1068000098F8217905F12402206802F06CF908E07B
:106810002179206802F036F821790022206802F000
:1068200062F921792A68206802F03AF921796A68C8
:10683000206802F022F92179AA68206802F00BF999
:106840002179EA68206802F097F921792A6920689D
:1068500000E018E002F0B5F921796A69206802F0D9
:106860009EF920690090217943463A46206801F05C
:10687000DFFF21793246206802F0C7F821792068CD
:1068800002F04CF806E04FF0020900BF002084F847
:106890002C0000BF484645E710B50446002012F61C
:1068A00077FD204612F690FC10BD000010B504469E
:1068B000034812F66DFD204612F6DAFC10BD00000A
:1068C000EC6100207047704770B504460D462A46BB
:1068D0002146002012F6E2FE08B9012070BD00201A
:1068E000FCE7000000B101B97047044A92680260F9
:1068F000024AD2680A6000BFF6E70000680D002077
:1069000010B512F68FFF08B1012010BD0020FCE782
:1069100010B512F693FF08B9012010BD0020FCE766
:1069200070B504460D46164632462946204613F6F3
:1069300069F808B9304670BD0020FCE710B5044680
:10694000204613F661F910BD2DE9F047C0B080462E
:106950008946144622464946404613F6DBF98246EC
:10696000BAF1000F34D100252646B4F5807F02D954
:106970004FF4807000E02046074600BF08EB05009A
:106980003A46694613F63EF88246BAF1000F1BD12B
:1069900009EB05003A466946FBF7C6FDA0B9F61BB0
:1069A0001EB9204640B0BDE8F0873D44B6F5807F73
:1069B00002D94FF4807000E030460746A54202D26B
:1069C000E819A04201D901E000E0D7E700BF00BF0D
:1069D0000020E7E72DE9F04104460D460027002698
:1069E0000CB9BDE8F0812946204602F021FA0122C7
:1069F0002946204602F020FA00BF656200BF294602
:106A0000204602F011F902222946204602F0B2FA8D
:106A1000224628460023DFF81CC1624502D14FF010
:106A2000100C01E04FF0000C00FA0CF090FAA0FC02
:106A3000BCFA8CF1DFF800C162450ED1DFF8FCC072
:106A4000DCF800C02CEA000C03FA01F84CEA080C50
:106A5000DFF8E880C8F800C011E0DFF8E0C0ACF172
:106A6000200CDCF800C02CEA000C03FA01F84CEA18
:106A7000080CDFF8C880A8F12008C8F800C000BFE3
:106A800001222946204602F0F9FA22462846002132
:106A9000284B9A4201D1102300E000239840264B56
:106AA0009A4212D1254B1B1F1B688343012901D138
:106AB000844601E04FF0000C43EA0C03DFF87CC091
:106AC000ACF1040CCCF8003011E01C4B243B1B68EB
:106AD0008343012901D1844601E04FF0000C43EAD1
:106AE0000C03DFF858C0ACF1240CCCF8003000BF28
:106AF0002E461AE096FAA6F0B0FA80F1012000FACC
:106B000001F7701E06400E48844209D1012F01D0C2
:106B1000022F05D100223946204602F001FA04E096
:106B200008223946204602F0FBF9002EE2D100BFD0
:106B300057E70000001001400020014030EE004007
:106B4000000001402DE9FE4380460F463846FEF71F
:106B5000F9FF85B20024DFF834900D4E59F8340067
:106B600040450ED105EB041085B28DF80040019729
:106B700006EBC5004068029056F835200AB1684619
:106B80009047641C032CE9DBBDE8FE836CEF20001A
:106B90001C68002070B504464FF6FF70A16B0140E1
:106BA0000D463DB12946204602F03EF829462046D2
:106BB000FFF7C8FF70BD30B589B005460C4605B17A
:106BC0000CB909B030BD20680190207900F00300B5
:106BD0000290A0680390E0680490206905906069C5
:106BE0000690A069079060680009089001A92846EE
:106BF00002F01CF800BFE4E72DE9F0470646002448
:106C000000220B4601204FF47F0909EA03454FF4A7
:106C10007F4909EA0327012801D0032801D1A946A9
:106C200001E04FF00009CC46022801D0032801D131
:106C3000B94601E04FF00009C846DFF81891D9F8CD
:106C4000D49129EA050949EA0C09DFF808A1CAF834
:106C5000D491D146D9F8D49129EA070949EA08091B
:106C6000CAF8D49100BF084600234FF07F4707EAD7
:106C7000006533B1384F3F682F43D446CCF8DC7100
:106C800006E0354F3F68AF43DFF8C8C0CCF8DC7191
:106C900000BF084602234FF47F4909EA0025C7B226
:106CA000012B01D1A94601E04FF00009CC4613B9F0
:106CB0004FF0000900E0B946C846DFF89890D9F8CF
:106CC000D89147EA050A29EA0A0948EA0C0A49EA7A
:106CD0000A09DFF880A0CAF8D89100BF0A4634E05C
:106CE00092FAA2F0B0FA80F3012000FA03F4501EE9
:106CF00002402046082390FAA0F7B7FA87F7BD00B4
:106D0000164F3F684FF00F0C0CFA05FC27EA0C07F2
:106D100003FA05FC47EA0C07DFF840C0CCF8007026
:106D2000082B08D10C4F3F1D3F688743DFF824C074
:106D3000CCF8E07107E0084F3F1D3F680743DFF8DC
:106D400014C0CCF8E07100BF00BF002AC8D1BDE874
:106D5000F087000000A00040DCA1004078EE004079
:106D600070B504460D462946204602F043FA70BD30
:106D7000024608464FF07F4303EA0060044B1B685D
:106D80000340834201D1012300E00023D8B27047C1
:106D9000D4A1004010B504460748006820B1204641
:106DA00005490968884705E0202C03DA00200349DB
:106DB00041F8240010BD0000C06000208077002052
:106DC00010B504460B48006820B1204609490968FF
:106DD00088470EE0202C0CDA0021074800F07040B4
:106DE00000F10070044AC2F3130200EB421040F8B5
:106DF000241010BDCC600020A860002070B50446AF
:106E00000D460848006828B129462046054A126800
:106E1000904705E0202C03DA15B1034840F82450D0
:106E200070BD0000B46000200077002010B504465B
:106E30000748006820B1204605490968884705E0F1
:106E4000202C03DA0020034941F8240010BD000083
:106E5000B86000200077002070B504460D46084851
:106E6000006828B129462046054A1268904705E087
:106E7000202C03DA15B1034840F8245070BD0000FF
:106E8000AC6000208076002010B5044607480068FA
:106E900020B1204605490968884705E0202C03DA1F
:106EA0000020034941F8240010BD0000B06000201C
:106EB0008076002070B504460D460748006828B16A
:106EC00029462046044A1268904704E0202C02DA42
:106ED000024840F8245070BDBC600020807700203C
:106EE00010B504460B48006820B1204609490968DE
:106EF00088470EE0202C0CDA0121074800F0704092
:106F000000F10070044AC2F3130200EB421040F893
:106F1000241010BDC8600020A060002070B5044699
:106F20000D460C48006828B129462046094A1268D7
:106F300090470DE0202C0BDA074800F0704000F17C
:106F400000700549C1F3130100EB411040F82450D3
:106F500070BD0000C46000209860002004280BDA97
:106F6000064A02F0704202F10072044BC3F31303AD
:106F700002EB431242F82010704700009C60002092
:106F80002DE9F041EFF311870220FBF7D7FD04460E
:106F9000FBF7E2FD401C012181406018C0B280F384
:106FA00011880020FCF7ECFD0546254ED5E90412BA
:106FB000C6E902122348081A72F11E0019D306F11D
:106FC00010000EE0DCE90412D6E90234B1EB03084C
:106FD00072EB040804D3C91A62EB0402CCE9041270
:106FE000006AD0F820C0BCF1000FEBD10021B160E5
:106FF000F160A87801280AD1D6E90230D5E9021259
:1070000059185041C5E904102846FCF77DFDF8B237
:1070100080F31188FCF726FE706840B1D0E90421A6
:10702000D6E90203101A61EB030102F01BFCE969C7
:1070300009B1A8698847BDE8F041FCF7DDBD000053
:10704000706900200010C32C70B504460CB90120F3
:1070500070BD00BF207D012801D10220F8E701208A
:10706000207500BF00BF00203049086000BF00BF8E
:107070002F49086000BF00BF2E49086000BF20688C
:1070800002F0C6F9204600F02DFA00BF0120284981
:10709000086000BF00BF091D086000BF00BF00BF3F
:1070A000EFF3108005460120FBF7F0FD00BF2248FA
:1070B000006841F255510840884209D100BF0120C3
:1070C0001A49086000BF00BF1A49086000BF00BF2E
:1070D00000BF1948006842F6AA21084088420BD137
:1070E00000BF012011498039086000BF00BF11496D
:1070F000091F086000BF00BF2846FBF7C7FD00BF9F
:107100000021204604F0BCFD0121204604F0E0FDF2
:107110001A20FFF78BFE0121204604F087FD00BFF7
:107120000020207500BF00BF92E7000080D41D4200
:1071300028D71D42E4D51D42B8EE00402DE9F04F9E
:1071400087B004460D461646142102A8FBF7AEFA96
:107150000020019004B11EB9012007B0BDE8F08FF6
:1071600000BF207D012801D10220F6E70120207513
:1071700000BF607D01287CD10021204604F056FD2F
:10718000204604F096FD0221204604F079FD606857
:107190000290A0680390E0680490206905900020A8
:1071A000069002A9206802F059F98346BBF1000F4E
:1071B00009D10421204604F063FD00BF00202075A2
:1071C00000BF0120C9E76068B0F5C05F34D1002D71
:1071D00032D0A06880B92988206802F06BF96988EC
:1071E000206802F067F9A988206802F063F9E9884D
:1071F000206802F05FF91FE02988206802F05AF940
:107200006988206802F056F9A988206802F052F9CE
:10721000E988206802F04EF92989206802F04AF9CD
:107220006989206802F046F9A989206802F042F9CC
:10723000E989206802F03EF9206802F00AF927483F
:1072400007682748D0F8008000BF4146384611F64D
:10725000FFFE00BF2248D0F80490FBF7EBFB21486B
:1072600000684FF47A71B0FBF1F0C82100FB01FA1D
:1072700016E02BE01A484068A0EB090050450FD9F2
:107280000421204604F0FCFC00BF0020207500BF54
:1072900000BF4146384611F6B9FE00BF03205CE747
:1072A000114802F002F90028E4D000BF41463846F8
:1072B00011F6ACFE00BF00BF0B488068A061A0695A
:1072C00030600121204604F0DBFC01E00120019048
:1072D00000BF0020207500BF01983EE7FCED00E0F4
:1072E000001000E03854002000780140F0B585B06F
:1072F00004460D4614216846FBF7D8F9002614B958
:10730000012005B0F0BD00BF207D012801D1022081
:10731000F7E70120207500BF607D012866D10021BC
:10732000204604F083FC204604F0C3FC02212046E2
:1073300004F0A6FC60680090A0680190E0680290EC
:10734000206903904FF4005004906946206802F0D1
:1073500085F807464FB90421204604F091FC00BF90
:107360000020207500BF0120CBE76068B0F5C05F4A
:1073700034D1002D32D0A06880B92988206802F06D
:1073800099F86988206802F095F8A988206802F0C9
:1073900091F8E988206802F08DF81FE029882068BC
:1073A00002F088F86988206802F084F8A9882068CB
:1073B00002F080F8E988206802F07CF829892068CA
:1073C00002F078F86989206802F074F8A9892068C9
:1073D00002F070F8E989206802F06CF800BF002024
:1073E000207500BF206802F034F804E000BF0020E0
:1073F000207500BF0126304683E70146487D70476F
:1074000010B504460CB9012010BD00BF207D012835
:1074100001D10220F8E70120207500BF607DF8B996
:107420000020207500BF1D49086000BF00BF1B4938
:107430008039086000BF00BF1949086000BF00BF65
:107440001849086000BF00BF1549091D086000BF4A
:1074500000BF1449091F086000BF204600F043F830
:1074600002206075206801F0EAFF0121204604F047
:1074700007FC204604F01DFC0021204604F028FCF7
:1074800009491A20FFF7BAFC0121204604F0CEFB7F
:1074900000BF0020207500BF00BFB5E780D41D42AB
:1074A00028D71D42E4D51D426D4A100010B5044690
:1074B000206801F0FAFF88B100BF09488068A06128
:1074C000206801F0BCFF607D042807D00121204620
:1074D00004F0D6FB2046A16900F006F810BD0000BC
:1074E00000780140704770471CB500208DF80000FF
:1074F0000191044800680168002901D06846884766
:107500001CBD0000485D002070B504460D460026F5
:10751000142004F059FC064600BF0748056000BF70
:1075200000BF44F0030040F0807003494039086018
:1075300000BF304670BD000040A500400148006813
:10754000704700005C03002000BF014800687047DE
:1075500048A5004000BF0248006800F001007047E5
:1075600038A5004010B5142004F02EFC00BF0548DB
:10757000006820F0010040F080700249086000BF00
:1075800010BD000000A5004070B504460CB90120F4
:1075900070BD0021204606F087F8204606F0E0F88E
:1075A00000BF00BFFBF7F1FA05460120FBF771FBB6
:1075B0008221206801F0ACFF2846FBF76AFB00BF80
:1075C00000BF94F8340001281AD1E06A50B1144881
:1075D000E16A0864E06AFEF7BDFC68B1E06A016C2C
:1075E000884709E00020608410220021204606F030
:1075F00081F8204600F016F8002084F834000DE0F1
:107600000020608404202168C1F888001022002135
:10761000204606F06FF8204600F004F80020B7E797
:1076200021D420001CB505F069FF03218DF800105E
:107630000649002251F8203083F8002151F820003B
:107640000168002901D0684688471CBD5C6900209C
:1076500038B50446202000900CB9012038BD94F8BC
:10766000370018B994F8380000287DD01422022180
:10767000204606F03FF820680021C0F8901000BFB7
:1076800041F2883300224021204606F065F9206847
:1076900001F036FF204600F0D5F9454920688842C0
:1076A00009D100BF01204349086000BF00BF424923
:1076B000086000BF2FE04149206888420BD100BF1D
:1076C00001203C49091D086000BF00BF3A49091D5F
:1076D000086000BF1FE03A49206888420BD100BF14
:1076E000012034490831086000BF00BF3249083129
:1076F000086000BF0FE03349206888420BD100BF0B
:1077000001202C490C31086000BF00BF2A490C3110
:10771000086000BF00BF00BFFBF737FA0546012035
:10772000FBF7B7FA00BF28480068284908402849F5
:107730000840884206D100BF01201E49D8390860A0
:1077400000BF00BF00BF2048083000682149084042
:1077500021490840884205D100BF01201F49086027
:1077600000BF00BF284600E01BE0FBF792FA00BF15
:107770000020E06300220221204605F0BBFF01212A
:10778000204606F04DF86946204605F08DFE01289A
:1077900003D19DF80000FFF749FB0121204605F0C9
:1077A00083FF00BF002084F8360000BF00BF55E70C
:1077B00000C5004080D51D4280D61D4200C6004055
:1077C00000C7004000C80040ACEE0040CFC37F7A45
:1077D000CF035E700FFF7F000F3F7C0028D41D4257
:1077E0001CB50446204605F089FE00228DF80020D5
:1077F000E16B0191064951F8203083F8002151F8DE
:1078000020000168002901D0684688471CBD00009F
:107810005C690020014609B900207047002200235E
:1078200091F8372091F8383042EA0300F5E700007C
:1078300010B586B004462020009014B9012006B08F
:1078400010BD94F83700002850D194F83800002873
:107850004CD184F8360000BF4049086000BF00BF2B
:107860003E498039086000BF3D49206888420AD1FE
:1078700000BF00203949D831086000BF00BF394936
:10788000086000BF2FE03849206888420BD100BF54
:1078900000203249DC31086000BF00BF3149091DBA
:1078A000086000BF1FE03149206888420BD100BF4B
:1078B00000202A49E031086000BF00BF2949083193
:1078C000086000BF0FE02A49206888420BD100BF42
:1078D00000202249E431086000BF00BF21490C317B
:1078E000086000BF00BF204600F0ADF8142202215E
:1078F000204605F0FFFE60680190A06802902069B4
:107900000490E06803906069059001A9206801F087
:107910000AFE0020E06310220221204605F0EAFE64
:10792000204605F01DFF0021204605F079FF69463D
:10793000204605F0B9FD012804D10E499DF800004C
:10794000FFF75CFA0121204605F0AEFE00BF0020E3
:1079500084F8360000BF00BF71E70000A8D41D42C4
:1079600000C5004080D61D4200C6004000C7004050
:1079700000C80040B94A10002DE9F04104462068D3
:10798000816801F00F010D4600260027022D06D068
:10799000042D08D0062D14D00C2D4DD108E0204622
:1079A00005F001FF49E00021204605F027FE44E0F4
:1079B000A069012800D101273946204605F01EFEA6
:1079C0003BE0206801F0ACFD0646E06B06F01E01CE
:1079D0000843E0632068C16FC1F3C00119B1002101
:1079E000204605F00BFEE06B00F00200F0B12046EF
:1079F00005F028FD94F83500012813D1206B50B113
:107A00000F48216B0864206BFEF7A4FA30B1206B9D
:107A1000016C884702E02046FFF7E2FE002084F870
:107A2000350008E02046FFF7DBFE04E02046FFF7C4
:107A3000D7FE0020E06300E000BF00BFBDE8F0819A
:107A400079D32000704770471CB50446204605F0E6
:107A500055FD02218DF80010218D628D891AADF837
:107A60000410044951F820000168002901D068463B
:107A700088471CBD5C6900202DE9F04104460E4694
:107A800015461F4614B90120BDE8F08106B12DB995
:107A9000E06B40F48060E0630120F5E794F8370084
:107AA000102835D10021204605F0FEFD204605F0C6
:107AB00057FE0020E06311220021204605F01AFE47
:107AC00025840FE03B4600220221204605F0D6FE29
:107AD00008B10320D8E7681E85B216F8011B20689C
